{
	"data": {
		"bytecode": {
			"linkReferences": {},
			"object": "608060405234801561001057600080fd5b50610991806100206000396000f3fe608060405234801561001057600080fd5b506004361061002b5760003560e01c80639743665514610030575b600080fd5b61004a60048036038101906100459190610403565b610060565b604051610057919061046f565b60405180910390f35b60008060ff168260ff1611801561007e5750601260ff168260ff1611155b6100bd576040517f08c379a00000000000000000000000000000000000000000000000000000000081526004016100b4906104e7565b60405180910390fd5b60008260ff16600a6100cf9190610673565b905060008573ffffffffffffffffffffffffffffffffffffffff1663feaf968c6040518163ffffffff1660e01b815260040160a060405180830381865afa15801561011e573d6000803e3d6000fd5b505050506040513d601f19601f820116820180604052508101906101429190610758565b50505091505060008673ffffffffffffffffffffffffffffffffffffffff1663313ce5676040518163ffffffff1660e01b8152600401602060405180830381865afa158015610195573d6000803e3d6000fd5b505050506040513d601f19601f820116820180604052508101906101b991906107e8565b90506101c68282876102e4565b915060008673ffffffffffffffffffffffffffffffffffffffff1663feaf968c6040518163ffffffff1660e01b815260040160a060405180830381865afa158015610215573d6000803e3d6000fd5b505050506040513d601f19601f820116820180604052508101906102399190610758565b50505091505060008773ffffffffffffffffffffffffffffffffffffffff1663313ce5676040518163ffffffff1660e01b8152600401602060405180830381865afa15801561028c573d6000803e3d6000fd5b505050506040513d601f19601f820116820180604052508101906102b091906107e8565b90506102bd8282896102e4565b91508185856102cc9190610815565b6102d691906108bc565b955050505050509392505050565b60008160ff168360ff1610156103215782826103009190610926565b60ff16600a61030f9190610673565b8461031a9190610815565b9050610360565b8160ff168360ff16111561035c57818361033b9190610926565b60ff16600a61034a9190610673565b8461035591906108bc565b9050610360565b8390505b9392505050565b600080fd5b600073ffffffffffffffffffffffffffffffffffffffff82169050919050565b60006103978261036c565b9050919050565b6103a78161038c565b81146103b257600080fd5b50565b6000813590506103c48161039e565b92915050565b600060ff82169050919050565b6103e0816103ca565b81146103eb57600080fd5b50565b6000813590506103fd816103d7565b92915050565b60008060006060848603121561041c5761041b610367565b5b600061042a868287016103b5565b935050602061043b868287016103b5565b925050604061044c868287016103ee565b9150509250925092565b6000819050919050565b61046981610456565b82525050565b60006020820190506104846000830184610460565b92915050565b600082825260208201905092915050565b7f496e76616c6964205f646563696d616c73000000000000000000000000000000600082015250565b60006104d160118361048a565b91506104dc8261049b565b602082019050919050565b60006020820190508181036000830152610500816104c4565b9050919050565b7f4e487b7100000000000000000000000000000000000000000000000000000000600052601160045260246000fd5b60008160011c9050919050565b6000808291508390505b600185111561058d5780860481111561056957610568610507565b5b60018516156105785780820291505b808102905061058685610536565b945061054d565b94509492505050565b6000826105a65760019050610662565b816105b45760009050610662565b81600181146105ca57600281146105d457610603565b6001915050610662565b60ff8411156105e6576105e5610507565b5b8360020a9150848211156105fd576105fc610507565b5b50610662565b5060208310610133831016604e8410600b84101617156106385782820a90508381111561063357610632610507565b5b610662565b6106458484846001610543565b9250905081840481111561065c5761065b610507565b5b81810290505b9392505050565b6000819050919050565b600061067e82610669565b915061068983610669565b92506106b67fffffffffffffffffffffffffffffffffffffffffffffffffffffffffffffffff8484610596565b905092915050565b600069ffffffffffffffffffff82169050919050565b6106dd816106be565b81146106e857600080fd5b50565b6000815190506106fa816106d4565b92915050565b61070981610456565b811461071457600080fd5b50565b60008151905061072681610700565b92915050565b61073581610669565b811461074057600080fd5b50565b6000815190506107528161072c565b92915050565b600080600080600060a0868803121561077457610773610367565b5b6000610782888289016106eb565b955050602061079388828901610717565b94505060406107a488828901610743565b93505060606107b588828901610743565b92505060806107c6888289016106eb565b9150509295509295909350565b6000815190506107e2816103d7565b92915050565b6000602082840312156107fe576107fd610367565b5b600061080c848285016107d3565b91505092915050565b600061082082610456565b915061082b83610456565b925082820261083981610456565b91507f8000000000000000000000000000000000000000000000000000000000000000841460008412161561087157610870610507565b5b828205841483151761088657610885610507565b5b5092915050565b7f4e487b7100000000000000000000000000000000000000000000000000000000600052601260045260246000fd5b60006108c782610456565b91506108d283610456565b9250826108e2576108e161088d565b5b600160000383147f80000000000000000000000000000000000000000000000000000000000000008314161561091b5761091a610507565b5b828205905092915050565b6000610931826103ca565b915061093c836103ca565b9250828203905060ff81111561095557610954610507565b5b9291505056fea264697066735822122085d724a64d0e0285e5ac6187494ff4b97009193165799f8a0f4959cc8d6ea82d64736f6c63430008120033",
			"opcodes": "PUSH1 0x80 PUSH1 0x40 MSTORE CALLVALUE DUP1 ISZERO PUSH2 0x10 JUMPI PUSH1 0x0 DUP1 REVERT JUMPDEST POP PUSH2 0x991 DUP1 PUSH2 0x20 PUSH1 0x0 CODECOPY PUSH1 0x0 RETURN INVALID PUSH1 0x80 PUSH1 0x40 MSTORE CALLVALUE DUP1 ISZERO PUSH2 0x10 JUMPI PUSH1 0x0 DUP1 REVERT JUMPDEST POP PUSH1 0x4 CALLDATASIZE LT PUSH2 0x2B JUMPI PUSH1 0x0 CALLDATALOAD PUSH1 0xE0 SHR DUP1 PUSH4 0x97436655 EQ PUSH2 0x30 JUMPI JUMPDEST PUSH1 0x0 DUP1 REVERT JUMPDEST PUSH2 0x4A PUSH1 0x4 DUP1 CALLDATASIZE SUB DUP2 ADD SWAP1 PUSH2 0x45 SWAP2 SWAP1 PUSH2 0x403 JUMP JUMPDEST PUSH2 0x60 JUMP JUMPDEST PUSH1 0x40 MLOAD PUSH2 0x57 SWAP2 SWAP1 PUSH2 0x46F JUMP JUMPDEST PUSH1 0x40 MLOAD DUP1 SWAP2 SUB SWAP1 RETURN JUMPDEST PUSH1 0x0 DUP1 PUSH1 0xFF AND DUP3 PUSH1 0xFF AND GT DUP1 ISZERO PUSH2 0x7E JUMPI POP PUSH1 0x12 PUSH1 0xFF AND DUP3 PUSH1 0xFF AND GT ISZERO JUMPDEST PUSH2 0xBD JUMPI PUSH1 0x40 MLOAD PUSH32 0x8C379A000000000000000000000000000000000000000000000000000000000 DUP2 MSTORE PUSH1 0x4 ADD PUSH2 0xB4 SWAP1 PUSH2 0x4E7 JUMP JUMPDEST PUSH1 0x40 MLOAD DUP1 SWAP2 SUB SWAP1 REVERT JUMPDEST PUSH1 0x0 DUP3 PUSH1 0xFF AND PUSH1 0xA PUSH2 0xCF SWAP2 SWAP1 PUSH2 0x673 JUMP JUMPDEST SWAP1 POP PUSH1 0x0 DUP6 PUSH20 0xFFFFFFFFFFFFFFFFFFFFFFFFFFFFFFFFFFFFFFFF AND PUSH4 0xFEAF968C PUSH1 0x40 MLOAD DUP2 PUSH4 0xFFFFFFFF AND PUSH1 0xE0 SHL DUP2 MSTORE PUSH1 0x4 ADD PUSH1 0xA0 PUSH1 0x40 MLOAD DUP1 DUP4 SUB DUP2 DUP7 GAS STATICCALL ISZERO DUP1 ISZERO PUSH2 0x11E JUMPI RETURNDATASIZE PUSH1 0x0 DUP1 RETURNDATACOPY RETURNDATASIZE PUSH1 0x0 REVERT JUMPDEST POP POP POP POP PUSH1 0x40 MLOAD RETURNDATASIZE PUSH1 0x1F NOT PUSH1 0x1F DUP3 ADD AND DUP3 ADD DUP1 PUSH1 0x40 MSTORE POP DUP2 ADD SWAP1 PUSH2 0x142 SWAP2 SWAP1 PUSH2 0x758 JUMP JUMPDEST POP POP POP SWAP2 POP POP PUSH1 0x0 DUP7 PUSH20 0xFFFFFFFFFFFFFFFFFFFFFFFFFFFFFFFFFFFFFFFF AND PUSH4 0x313CE567 PUSH1 0x40 MLOAD DUP2 PUSH4 0xFFFFFFFF AND PUSH1 0xE0 SHL DUP2 MSTORE PUSH1 0x4 ADD PUSH1 0x20 PUSH1 0x40 MLOAD DUP1 DUP4 SUB DUP2 DUP7 GAS STATICCALL ISZERO DUP1 ISZERO PUSH2 0x195 JUMPI RETURNDATASIZE PUSH1 0x0 DUP1 RETURNDATACOPY RETURNDATASIZE PUSH1 0x0 REVERT JUMPDEST POP POP POP POP PUSH1 0x40 MLOAD RETURNDATASIZE PUSH1 0x1F NOT PUSH1 0x1F DUP3 ADD AND DUP3 ADD DUP1 PUSH1 0x40 MSTORE POP DUP2 ADD SWAP1 PUSH2 0x1B9 SWAP2 SWAP1 PUSH2 0x7E8 JUMP JUMPDEST SWAP1 POP PUSH2 0x1C6 DUP3 DUP3 DUP8 PUSH2 0x2E4 JUMP JUMPDEST SWAP2 POP PUSH1 0x0 DUP7 PUSH20 0xFFFFFFFFFFFFFFFFFFFFFFFFFFFFFFFFFFFFFFFF AND PUSH4 0xFEAF968C PUSH1 0x40 MLOAD DUP2 PUSH4 0xFFFFFFFF AND PUSH1 0xE0 SHL DUP2 MSTORE PUSH1 0x4 ADD PUSH1 0xA0 PUSH1 0x40 MLOAD DUP1 DUP4 SUB DUP2 DUP7 GAS STATICCALL ISZERO DUP1 ISZERO PUSH2 0x215 JUMPI RETURNDATASIZE PUSH1 0x0 DUP1 RETURNDATACOPY RETURNDATASIZE PUSH1 0x0 REVERT JUMPDEST POP POP POP POP PUSH1 0x40 MLOAD RETURNDATASIZE PUSH1 0x1F NOT PUSH1 0x1F DUP3 ADD AND DUP3 ADD DUP1 PUSH1 0x40 MSTORE POP DUP2 ADD SWAP1 PUSH2 0x239 SWAP2 SWAP1 PUSH2 0x758 JUMP JUMPDEST POP POP POP SWAP2 POP POP PUSH1 0x0 DUP8 PUSH20 0xFFFFFFFFFFFFFFFFFFFFFFFFFFFFFFFFFFFFFFFF AND PUSH4 0x313CE567 PUSH1 0x40 MLOAD DUP2 PUSH4 0xFFFFFFFF AND PUSH1 0xE0 SHL DUP2 MSTORE PUSH1 0x4 ADD PUSH1 0x20 PUSH1 0x40 MLOAD DUP1 DUP4 SUB DUP2 DUP7 GAS STATICCALL ISZERO DUP1 ISZERO PUSH2 0x28C JUMPI RETURNDATASIZE PUSH1 0x0 DUP1 RETURNDATACOPY RETURNDATASIZE PUSH1 0x0 REVERT JUMPDEST POP POP POP POP PUSH1 0x40 MLOAD RETURNDATASIZE PUSH1 0x1F NOT PUSH1 0x1F DUP3 ADD AND DUP3 ADD DUP1 PUSH1 0x40 MSTORE POP DUP2 ADD SWAP1 PUSH2 0x2B0 SWAP2 SWAP1 PUSH2 0x7E8 JUMP JUMPDEST SWAP1 POP PUSH2 0x2BD DUP3 DUP3 DUP10 PUSH2 0x2E4 JUMP JUMPDEST SWAP2 POP DUP2 DUP6 DUP6 PUSH2 0x2CC SWAP2 SWAP1 PUSH2 0x815 JUMP JUMPDEST PUSH2 0x2D6 SWAP2 SWAP1 PUSH2 0x8BC JUMP JUMPDEST SWAP6 POP POP POP POP POP POP SWAP4 SWAP3 POP POP POP JUMP JUMPDEST PUSH1 0x0 DUP2 PUSH1 0xFF AND DUP4 PUSH1 0xFF AND LT ISZERO PUSH2 0x321 JUMPI DUP3 DUP3 PUSH2 0x300 SWAP2 SWAP1 PUSH2 0x926 JUMP JUMPDEST PUSH1 0xFF AND PUSH1 0xA PUSH2 0x30F SWAP2 SWAP1 PUSH2 0x673 JUMP JUMPDEST DUP5 PUSH2 0x31A SWAP2 SWAP1 PUSH2 0x815 JUMP JUMPDEST SWAP1 POP PUSH2 0x360 JUMP JUMPDEST DUP2 PUSH1 0xFF AND DUP4 PUSH1 0xFF AND GT ISZERO PUSH2 0x35C JUMPI DUP2 DUP4 PUSH2 0x33B SWAP2 SWAP1 PUSH2 0x926 JUMP JUMPDEST PUSH1 0xFF AND PUSH1 0xA PUSH2 0x34A SWAP2 SWAP1 PUSH2 0x673 JUMP JUMPDEST DUP5 PUSH2 0x355 SWAP2 SWAP1 PUSH2 0x8BC JUMP JUMPDEST SWAP1 POP PUSH2 0x360 JUMP JUMPDEST DUP4 SWAP1 POP JUMPDEST SWAP4 SWAP3 POP POP POP JUMP JUMPDEST PUSH1 0x0 DUP1 REVERT JUMPDEST PUSH1 0x0 PUSH20 0xFFFFFFFFFFFFFFFFFFFFFFFFFFFFFFFFFFFFFFFF DUP3 AND SWAP1 POP SWAP2 SWAP1 POP JUMP JUMPDEST PUSH1 0x0 PUSH2 0x397 DUP3 PUSH2 0x36C JUMP JUMPDEST SWAP1 POP SWAP2 SWAP1 POP JUMP JUMPDEST PUSH2 0x3A7 DUP2 PUSH2 0x38C JUMP JUMPDEST DUP2 EQ PUSH2 0x3B2 JUMPI PUSH1 0x0 DUP1 REVERT JUMPDEST POP JUMP JUMPDEST PUSH1 0x0 DUP2 CALLDATALOAD SWAP1 POP PUSH2 0x3C4 DUP2 PUSH2 0x39E JUMP JUMPDEST SWAP3 SWAP2 POP POP JUMP JUMPDEST PUSH1 0x0 PUSH1 0xFF DUP3 AND SWAP1 POP SWAP2 SWAP1 POP JUMP JUMPDEST PUSH2 0x3E0 DUP2 PUSH2 0x3CA JUMP JUMPDEST DUP2 EQ PUSH2 0x3EB JUMPI PUSH1 0x0 DUP1 REVERT JUMPDEST POP JUMP JUMPDEST PUSH1 0x0 DUP2 CALLDATALOAD SWAP1 POP PUSH2 0x3FD DUP2 PUSH2 0x3D7 JUMP JUMPDEST SWAP3 SWAP2 POP POP JUMP JUMPDEST PUSH1 0x0 DUP1 PUSH1 0x0 PUSH1 0x60 DUP5 DUP7 SUB SLT ISZERO PUSH2 0x41C JUMPI PUSH2 0x41B PUSH2 0x367 JUMP JUMPDEST JUMPDEST PUSH1 0x0 PUSH2 0x42A DUP7 DUP3 DUP8 ADD PUSH2 0x3B5 JUMP JUMPDEST SWAP4 POP POP PUSH1 0x20 PUSH2 0x43B DUP7 DUP3 DUP8 ADD PUSH2 0x3B5 JUMP JUMPDEST SWAP3 POP POP PUSH1 0x40 PUSH2 0x44C DUP7 DUP3 DUP8 ADD PUSH2 0x3EE JUMP JUMPDEST SWAP2 POP POP SWAP3 POP SWAP3 POP SWAP3 JUMP JUMPDEST PUSH1 0x0 DUP2 SWAP1 POP SWAP2 SWAP1 POP JUMP JUMPDEST PUSH2 0x469 DUP2 PUSH2 0x456 JUMP JUMPDEST DUP3 MSTORE POP POP JUMP JUMPDEST PUSH1 0x0 PUSH1 0x20 DUP3 ADD SWAP1 POP PUSH2 0x484 PUSH1 0x0 DUP4 ADD DUP5 PUSH2 0x460 JUMP JUMPDEST SWAP3 SWAP2 POP POP JUMP JUMPDEST PUSH1 0x0 DUP3 DUP3 MSTORE PUSH1 0x20 DUP3 ADD SWAP1 POP SWAP3 SWAP2 POP POP JUMP JUMPDEST PUSH32 0x496E76616C6964205F646563696D616C73000000000000000000000000000000 PUSH1 0x0 DUP3 ADD MSTORE POP JUMP JUMPDEST PUSH1 0x0 PUSH2 0x4D1 PUSH1 0x11 DUP4 PUSH2 0x48A JUMP JUMPDEST SWAP2 POP PUSH2 0x4DC DUP3 PUSH2 0x49B JUMP JUMPDEST PUSH1 0x20 DUP3 ADD SWAP1 POP SWAP2 SWAP1 POP JUMP JUMPDEST PUSH1 0x0 PUSH1 0x20 DUP3 ADD SWAP1 POP DUP2 DUP2 SUB PUSH1 0x0 DUP4 ADD MSTORE PUSH2 0x500 DUP2 PUSH2 0x4C4 JUMP JUMPDEST SWAP1 POP SWAP2 SWAP1 POP JUMP JUMPDEST PUSH32 0x4E487B7100000000000000000000000000000000000000000000000000000000 PUSH1 0x0 MSTORE PUSH1 0x11 PUSH1 0x4 MSTORE PUSH1 0x24 PUSH1 0x0 REVERT JUMPDEST PUSH1 0x0 DUP2 PUSH1 0x1 SHR SWAP1 POP SWAP2 SWAP1 POP JUMP JUMPDEST PUSH1 0x0 DUP1 DUP3 SWAP2 POP DUP4 SWAP1 POP JUMPDEST PUSH1 0x1 DUP6 GT ISZERO PUSH2 0x58D JUMPI DUP1 DUP7 DIV DUP2 GT ISZERO PUSH2 0x569 JUMPI PUSH2 0x568 PUSH2 0x507 JUMP JUMPDEST JUMPDEST PUSH1 0x1 DUP6 AND ISZERO PUSH2 0x578 JUMPI DUP1 DUP3 MUL SWAP2 POP JUMPDEST DUP1 DUP2 MUL SWAP1 POP PUSH2 0x586 DUP6 PUSH2 0x536 JUMP JUMPDEST SWAP5 POP PUSH2 0x54D JUMP JUMPDEST SWAP5 POP SWAP5 SWAP3 POP POP POP JUMP JUMPDEST PUSH1 0x0 DUP3 PUSH2 0x5A6 JUMPI PUSH1 0x1 SWAP1 POP PUSH2 0x662 JUMP JUMPDEST DUP2 PUSH2 0x5B4 JUMPI PUSH1 0x0 SWAP1 POP PUSH2 0x662 JUMP JUMPDEST DUP2 PUSH1 0x1 DUP2 EQ PUSH2 0x5CA JUMPI PUSH1 0x2 DUP2 EQ PUSH2 0x5D4 JUMPI PUSH2 0x603 JUMP JUMPDEST PUSH1 0x1 SWAP2 POP POP PUSH2 0x662 JUMP JUMPDEST PUSH1 0xFF DUP5 GT ISZERO PUSH2 0x5E6 JUMPI PUSH2 0x5E5 PUSH2 0x507 JUMP JUMPDEST JUMPDEST DUP4 PUSH1 0x2 EXP SWAP2 POP DUP5 DUP3 GT ISZERO PUSH2 0x5FD JUMPI PUSH2 0x5FC PUSH2 0x507 JUMP JUMPDEST JUMPDEST POP PUSH2 0x662 JUMP JUMPDEST POP PUSH1 0x20 DUP4 LT PUSH2 0x133 DUP4 LT AND PUSH1 0x4E DUP5 LT PUSH1 0xB DUP5 LT AND OR ISZERO PUSH2 0x638 JUMPI DUP3 DUP3 EXP SWAP1 POP DUP4 DUP2 GT ISZERO PUSH2 0x633 JUMPI PUSH2 0x632 PUSH2 0x507 JUMP JUMPDEST JUMPDEST PUSH2 0x662 JUMP JUMPDEST PUSH2 0x645 DUP5 DUP5 DUP5 PUSH1 0x1 PUSH2 0x543 JUMP JUMPDEST SWAP3 POP SWAP1 POP DUP2 DUP5 DIV DUP2 GT ISZERO PUSH2 0x65C JUMPI PUSH2 0x65B PUSH2 0x507 JUMP JUMPDEST JUMPDEST DUP2 DUP2 MUL SWAP1 POP JUMPDEST SWAP4 SWAP3 POP POP POP JUMP JUMPDEST PUSH1 0x0 DUP2 SWAP1 POP SWAP2 SWAP1 POP JUMP JUMPDEST PUSH1 0x0 PUSH2 0x67E DUP3 PUSH2 0x669 JUMP JUMPDEST SWAP2 POP PUSH2 0x689 DUP4 PUSH2 0x669 JUMP JUMPDEST SWAP3 POP PUSH2 0x6B6 PUSH32 0xFFFFFFFFFFFFFFFFFFFFFFFFFFFFFFFFFFFFFFFFFFFFFFFFFFFFFFFFFFFFFFFF DUP5 DUP5 PUSH2 0x596 JUMP JUMPDEST SWAP1 POP SWAP3 SWAP2 POP POP JUMP JUMPDEST PUSH1 0x0 PUSH10 0xFFFFFFFFFFFFFFFFFFFF DUP3 AND SWAP1 POP SWAP2 SWAP1 POP JUMP JUMPDEST PUSH2 0x6DD DUP2 PUSH2 0x6BE JUMP JUMPDEST DUP2 EQ PUSH2 0x6E8 JUMPI PUSH1 0x0 DUP1 REVERT JUMPDEST POP JUMP JUMPDEST PUSH1 0x0 DUP2 MLOAD SWAP1 POP PUSH2 0x6FA DUP2 PUSH2 0x6D4 JUMP JUMPDEST SWAP3 SWAP2 POP POP JUMP JUMPDEST PUSH2 0x709 DUP2 PUSH2 0x456 JUMP JUMPDEST DUP2 EQ PUSH2 0x714 JUMPI PUSH1 0x0 DUP1 REVERT JUMPDEST POP JUMP JUMPDEST PUSH1 0x0 DUP2 MLOAD SWAP1 POP PUSH2 0x726 DUP2 PUSH2 0x700 JUMP JUMPDEST SWAP3 SWAP2 POP POP JUMP JUMPDEST PUSH2 0x735 DUP2 PUSH2 0x669 JUMP JUMPDEST DUP2 EQ PUSH2 0x740 JUMPI PUSH1 0x0 DUP1 REVERT JUMPDEST POP JUMP JUMPDEST PUSH1 0x0 DUP2 MLOAD SWAP1 POP PUSH2 0x752 DUP2 PUSH2 0x72C JUMP JUMPDEST SWAP3 SWAP2 POP POP JUMP JUMPDEST PUSH1 0x0 DUP1 PUSH1 0x0 DUP1 PUSH1 0x0 PUSH1 0xA0 DUP7 DUP9 SUB SLT ISZERO PUSH2 0x774 JUMPI PUSH2 0x773 PUSH2 0x367 JUMP JUMPDEST JUMPDEST PUSH1 0x0 PUSH2 0x782 DUP9 DUP3 DUP10 ADD PUSH2 0x6EB JUMP JUMPDEST SWAP6 POP POP PUSH1 0x20 PUSH2 0x793 DUP9 DUP3 DUP10 ADD PUSH2 0x717 JUMP JUMPDEST SWAP5 POP POP PUSH1 0x40 PUSH2 0x7A4 DUP9 DUP3 DUP10 ADD PUSH2 0x743 JUMP JUMPDEST SWAP4 POP POP PUSH1 0x60 PUSH2 0x7B5 DUP9 DUP3 DUP10 ADD PUSH2 0x743 JUMP JUMPDEST SWAP3 POP POP PUSH1 0x80 PUSH2 0x7C6 DUP9 DUP3 DUP10 ADD PUSH2 0x6EB JUMP JUMPDEST SWAP2 POP POP SWAP3 SWAP6 POP SWAP3 SWAP6 SWAP1 SWAP4 POP JUMP JUMPDEST PUSH1 0x0 DUP2 MLOAD SWAP1 POP PUSH2 0x7E2 DUP2 PUSH2 0x3D7 JUMP JUMPDEST SWAP3 SWAP2 POP POP JUMP JUMPDEST PUSH1 0x0 PUSH1 0x20 DUP3 DUP5 SUB SLT ISZERO PUSH2 0x7FE JUMPI PUSH2 0x7FD PUSH2 0x367 JUMP JUMPDEST JUMPDEST PUSH1 0x0 PUSH2 0x80C DUP5 DUP3 DUP6 ADD PUSH2 0x7D3 JUMP JUMPDEST SWAP2 POP POP SWAP3 SWAP2 POP POP JUMP JUMPDEST PUSH1 0x0 PUSH2 0x820 DUP3 PUSH2 0x456 JUMP JUMPDEST SWAP2 POP PUSH2 0x82B DUP4 PUSH2 0x456 JUMP JUMPDEST SWAP3 POP DUP3 DUP3 MUL PUSH2 0x839 DUP2 PUSH2 0x456 JUMP JUMPDEST SWAP2 POP PUSH32 0x8000000000000000000000000000000000000000000000000000000000000000 DUP5 EQ PUSH1 0x0 DUP5 SLT AND ISZERO PUSH2 0x871 JUMPI PUSH2 0x870 PUSH2 0x507 JUMP JUMPDEST JUMPDEST DUP3 DUP3 SDIV DUP5 EQ DUP4 ISZERO OR PUSH2 0x886 JUMPI PUSH2 0x885 PUSH2 0x507 JUMP JUMPDEST JUMPDEST POP SWAP3 SWAP2 POP POP JUMP JUMPDEST PUSH32 0x4E487B7100000000000000000000000000000000000000000000000000000000 PUSH1 0x0 MSTORE PUSH1 0x12 PUSH1 0x4 MSTORE PUSH1 0x24 PUSH1 0x0 REVERT JUMPDEST PUSH1 0x0 PUSH2 0x8C7 DUP3 PUSH2 0x456 JUMP JUMPDEST SWAP2 POP PUSH2 0x8D2 DUP4 PUSH2 0x456 JUMP JUMPDEST SWAP3 POP DUP3 PUSH2 0x8E2 JUMPI PUSH2 0x8E1 PUSH2 0x88D JUMP JUMPDEST JUMPDEST PUSH1 0x1 PUSH1 0x0 SUB DUP4 EQ PUSH32 0x8000000000000000000000000000000000000000000000000000000000000000 DUP4 EQ AND ISZERO PUSH2 0x91B JUMPI PUSH2 0x91A PUSH2 0x507 JUMP JUMPDEST JUMPDEST DUP3 DUP3 SDIV SWAP1 POP SWAP3 SWAP2 POP POP JUMP JUMPDEST PUSH1 0x0 PUSH2 0x931 DUP3 PUSH2 0x3CA JUMP JUMPDEST SWAP2 POP PUSH2 0x93C DUP4 PUSH2 0x3CA JUMP JUMPDEST SWAP3 POP DUP3 DUP3 SUB SWAP1 POP PUSH1 0xFF DUP2 GT ISZERO PUSH2 0x955 JUMPI PUSH2 0x954 PUSH2 0x507 JUMP JUMPDEST JUMPDEST SWAP3 SWAP2 POP POP JUMP INVALID LOG2 PUSH5 0x6970667358 0x22 SLT KECCAK256 DUP6 0xD7 0x24 0xA6 0x4D 0xE MUL DUP6 0xE5 0xAC PUSH2 0x8749 0x4F DELEGATECALL 0xB9 PUSH17 0x9193165799F8A0F4959CC8D6EA82D6473 PUSH16 0x6C634300081200330000000000000000 "
		},
		"gasEstimates": {
			"creation": {
				"codeDepositCost": "489800",
				"executionCost": "524",
				"totalCost": "490324"
			},
			"external": {
				"getDerivedPrice(address,address,uint8)": "infinite"
			},
			"internal": {
				"scalePrice(int256,uint8,uint8)": "infinite"
			}
		},
		"methodIdentifiers": {
			"getDerivedPrice(address,address,uint8)": "97436655"
		}
	},
	"abi": [
		{
			"inputs": [
				{
					"internalType": "address",
					"name": "_base",
					"type": "address"
				},
				{
					"internalType": "address",
					"name": "_quote",
					"type": "address"
				},
				{
					"internalType": "uint8",
					"name": "_decimals",
					"type": "uint8"
				}
			],
			"name": "getDerivedPrice",
			"outputs": [
				{
					"internalType": "int256",
					"name": "",
					"type": "int256"
				}
			],
			"stateMutability": "view",
			"type": "function"
		}
	]
}