{
	"smartContract/did/did.sol": {
		"CredentialBox": {
			"abi": [
				{
					"inputs": [],
					"stateMutability": "nonpayable",
					"type": "constructor"
				},
				{
					"inputs": [
						{
							"internalType": "address",
							"name": "_alumniAddress",
							"type": "address"
						},
						{
							"internalType": "uint8",
							"name": "_alumniType",
							"type": "uint8"
						},
						{
							"internalType": "string",
							"name": "_value",
							"type": "string"
						}
					],
					"name": "claimCredential",
					"outputs": [
						{
							"internalType": "bool",
							"name": "",
							"type": "bool"
						}
					],
					"stateMutability": "nonpayable",
					"type": "function"
				},
				{
					"inputs": [
						{
							"internalType": "address",
							"name": "_alumniAddress",
							"type": "address"
						}
					],
					"name": "getCredential",
					"outputs": [
						{
							"components": [
								{
									"internalType": "uint256",
									"name": "id",
									"type": "uint256"
								},
								{
									"internalType": "address",
									"name": "issuer",
									"type": "address"
								},
								{
									"internalType": "uint8",
									"name": "alumniType",
									"type": "uint8"
								},
								{
									"internalType": "string",
									"name": "value",
									"type": "string"
								}
							],
							"internalType": "struct CredentialBox.Credential",
							"name": "",
							"type": "tuple"
						}
					],
					"stateMutability": "view",
					"type": "function"
				}
			],
			"devdoc": {
				"kind": "dev",
				"methods": {},
				"version": 1
			},
			"evm": {
				"assembly": "    /* \"smartContract/did/did.sol\":61:2921  contract CredentialBox {... */\n  mstore(0x40, 0x80)\n    /* \"smartContract/did/did.sol\":1375:1648  constructor() {... */\n  callvalue\n  dup1\n  iszero\n  tag_1\n  jumpi\n  0x00\n  dup1\n  revert\ntag_1:\n  pop\n    /* \"smartContract/did/did.sol\":1465:1475  msg.sender */\n  caller\n    /* \"smartContract/did/did.sol\":1449:1462  issuerAddress */\n  0x00\n  dup1\n    /* \"smartContract/did/did.sol\":1449:1475  issuerAddress = msg.sender */\n  0x0100\n  exp\n  dup2\n  sload\n  dup2\n  0xffffffffffffffffffffffffffffffffffffffff\n  mul\n  not\n  and\n  swap1\n  dup4\n  0xffffffffffffffffffffffffffffffffffffffff\n  and\n  mul\n  or\n  swap1\n  sstore\n  pop\n    /* \"smartContract/did/did.sol\":1526:1527  1 */\n  0x01\n    /* \"smartContract/did/did.sol\":1516:1523  idCount */\n  dup1\n    /* \"smartContract/did/did.sol\":1516:1527  idCount = 1 */\n  dup2\n  swap1\n  sstore\n  pop\n    /* \"smartContract/did/did.sol\":1558:1579  alumniEnum[0] = \"SEB\" */\n  mload(0x40)\n  dup1\n  0x40\n  add\n  0x40\n  mstore\n  dup1\n  0x03\n  dup2\n  mstore\n  0x20\n  add\n  0x5345420000000000000000000000000000000000000000000000000000000000\n  dup2\n  mstore\n  pop\n    /* \"smartContract/did/did.sol\":1558:1568  alumniEnum */\n  0x02\n    /* \"smartContract/did/did.sol\":1558:1571  alumniEnum[0] */\n  0x00\n    /* \"smartContract/did/did.sol\":1569:1570  0 */\n  dup1\n    /* \"smartContract/did/did.sol\":1558:1571  alumniEnum[0] */\n  0xff\n  and\n  dup2\n  mstore\n  0x20\n  add\n  swap1\n  dup2\n  mstore\n  0x20\n  add\n  0x00\n  keccak256\n    /* \"smartContract/did/did.sol\":1558:1579  alumniEnum[0] = \"SEB\" */\n  swap1\n  dup1\n  mload\n  swap1\n  0x20\n  add\n  swap1\n  tag_4\n  swap3\n  swap2\n  swap1\n  tag_5\n  jump\t// in\ntag_4:\n  pop\n    /* \"smartContract/did/did.sol\":1589:1610  alumniEnum[1] = \"BEB\" */\n  mload(0x40)\n  dup1\n  0x40\n  add\n  0x40\n  mstore\n  dup1\n  0x03\n  dup2\n  mstore\n  0x20\n  add\n  0x4245420000000000000000000000000000000000000000000000000000000000\n  dup2\n  mstore\n  pop\n    /* \"smartContract/did/did.sol\":1589:1599  alumniEnum */\n  0x02\n    /* \"smartContract/did/did.sol\":1589:1602  alumniEnum[1] */\n  0x00\n    /* \"smartContract/did/did.sol\":1600:1601  1 */\n  0x01\n    /* \"smartContract/did/did.sol\":1589:1602  alumniEnum[1] */\n  0xff\n  and\n  dup2\n  mstore\n  0x20\n  add\n  swap1\n  dup2\n  mstore\n  0x20\n  add\n  0x00\n  keccak256\n    /* \"smartContract/did/did.sol\":1589:1610  alumniEnum[1] = \"BEB\" */\n  swap1\n  dup1\n  mload\n  swap1\n  0x20\n  add\n  swap1\n  tag_6\n  swap3\n  swap2\n  swap1\n  tag_5\n  jump\t// in\ntag_6:\n  pop\n    /* \"smartContract/did/did.sol\":1620:1641  alumniEnum[2] = \"AIB\" */\n  mload(0x40)\n  dup1\n  0x40\n  add\n  0x40\n  mstore\n  dup1\n  0x03\n  dup2\n  mstore\n  0x20\n  add\n  0x4149420000000000000000000000000000000000000000000000000000000000\n  dup2\n  mstore\n  pop\n    /* \"smartContract/did/did.sol\":1620:1630  alumniEnum */\n  0x02\n    /* \"smartContract/did/did.sol\":1620:1633  alumniEnum[2] */\n  0x00\n    /* \"smartContract/did/did.sol\":1631:1632  2 */\n  0x02\n    /* \"smartContract/did/did.sol\":1620:1633  alumniEnum[2] */\n  0xff\n  and\n  dup2\n  mstore\n  0x20\n  add\n  swap1\n  dup2\n  mstore\n  0x20\n  add\n  0x00\n  keccak256\n    /* \"smartContract/did/did.sol\":1620:1641  alumniEnum[2] = \"AIB\" */\n  swap1\n  dup1\n  mload\n  swap1\n  0x20\n  add\n  swap1\n  tag_7\n  swap3\n  swap2\n  swap1\n  tag_5\n  jump\t// in\ntag_7:\n  pop\n    /* \"smartContract/did/did.sol\":61:2921  contract CredentialBox {... */\n  jump(tag_8)\ntag_5:\n  dup3\n  dup1\n  sload\n  tag_9\n  swap1\n  tag_10\n  jump\t// in\ntag_9:\n  swap1\n  0x00\n  mstore\n  keccak256(0x00, 0x20)\n  swap1\n  0x1f\n  add\n  0x20\n  swap1\n  div\n  dup2\n  add\n  swap3\n  dup3\n  tag_12\n  jumpi\n  0x00\n  dup6\n  sstore\n  jump(tag_11)\ntag_12:\n  dup3\n  0x1f\n  lt\n  tag_13\n  jumpi\n  dup1\n  mload\n  not(0xff)\n  and\n  dup4\n  dup1\n  add\n  or\n  dup6\n  sstore\n  jump(tag_11)\ntag_13:\n  dup3\n  dup1\n  add\n  0x01\n  add\n  dup6\n  sstore\n  dup3\n  iszero\n  tag_11\n  jumpi\n  swap2\n  dup3\n  add\ntag_14:\n  dup3\n  dup2\n  gt\n  iszero\n  tag_15\n  jumpi\n  dup3\n  mload\n  dup3\n  sstore\n  swap2\n  0x20\n  add\n  swap2\n  swap1\n  0x01\n  add\n  swap1\n  jump(tag_14)\ntag_15:\ntag_11:\n  pop\n  swap1\n  pop\n  tag_16\n  swap2\n  swap1\n  tag_17\n  jump\t// in\ntag_16:\n  pop\n  swap1\n  jump\t// out\ntag_17:\ntag_18:\n  dup1\n  dup3\n  gt\n  iszero\n  tag_19\n  jumpi\n  0x00\n  dup2\n  0x00\n  swap1\n  sstore\n  pop\n  0x01\n  add\n  jump(tag_18)\ntag_19:\n  pop\n  swap1\n  jump\t// out\n    /* \"#utility.yul\":7:187   */\ntag_20:\n    /* \"#utility.yul\":55:132   */\n  0x4e487b7100000000000000000000000000000000000000000000000000000000\n    /* \"#utility.yul\":52:53   */\n  0x00\n    /* \"#utility.yul\":45:133   */\n  mstore\n    /* \"#utility.yul\":152:156   */\n  0x22\n    /* \"#utility.yul\":149:150   */\n  0x04\n    /* \"#utility.yul\":142:157   */\n  mstore\n    /* \"#utility.yul\":176:180   */\n  0x24\n    /* \"#utility.yul\":173:174   */\n  0x00\n    /* \"#utility.yul\":166:181   */\n  revert\n    /* \"#utility.yul\":193:513   */\ntag_10:\n    /* \"#utility.yul\":237:243   */\n  0x00\n    /* \"#utility.yul\":274:275   */\n  0x02\n    /* \"#utility.yul\":268:272   */\n  dup3\n    /* \"#utility.yul\":264:276   */\n  div\n    /* \"#utility.yul\":254:276   */\n  swap1\n  pop\n    /* \"#utility.yul\":321:322   */\n  0x01\n    /* \"#utility.yul\":315:319   */\n  dup3\n    /* \"#utility.yul\":311:323   */\n  and\n    /* \"#utility.yul\":342:360   */\n  dup1\n    /* \"#utility.yul\":332:413   */\n  tag_24\n  jumpi\n    /* \"#utility.yul\":398:402   */\n  0x7f\n    /* \"#utility.yul\":390:396   */\n  dup3\n    /* \"#utility.yul\":386:403   */\n  and\n    /* \"#utility.yul\":376:403   */\n  swap2\n  pop\n    /* \"#utility.yul\":332:413   */\ntag_24:\n    /* \"#utility.yul\":460:462   */\n  0x20\n    /* \"#utility.yul\":452:458   */\n  dup3\n    /* \"#utility.yul\":449:463   */\n  lt\n    /* \"#utility.yul\":429:447   */\n  dup2\n    /* \"#utility.yul\":426:464   */\n  eq\n    /* \"#utility.yul\":423:507   */\n  iszero\n  tag_25\n  jumpi\n    /* \"#utility.yul\":479:497   */\n  tag_26\n  tag_20\n  jump\t// in\ntag_26:\n    /* \"#utility.yul\":423:507   */\ntag_25:\n    /* \"#utility.yul\":244:513   */\n  pop\n    /* \"#utility.yul\":193:513   */\n  swap2\n  swap1\n  pop\n  jump\t// out\n    /* \"smartContract/did/did.sol\":61:2921  contract CredentialBox {... */\ntag_8:\n  dataSize(sub_0)\n  dup1\n  dataOffset(sub_0)\n  0x00\n  codecopy\n  0x00\n  return\nstop\n\nsub_0: assembly {\n        /* \"smartContract/did/did.sol\":61:2921  contract CredentialBox {... */\n      mstore(0x40, 0x80)\n      callvalue\n      dup1\n      iszero\n      tag_1\n      jumpi\n      0x00\n      dup1\n      revert\n    tag_1:\n      pop\n      jumpi(tag_2, lt(calldatasize, 0x04))\n      shr(0xe0, calldataload(0x00))\n      dup1\n      0x617ae364\n      eq\n      tag_3\n      jumpi\n      dup1\n      0xccdad14b\n      eq\n      tag_4\n      jumpi\n    tag_2:\n      0x00\n      dup1\n      revert\n        /* \"smartContract/did/did.sol\":1820:2502  function claimCredential(address _alumniAddress, uint8 _alumniType, string calldata _value) public returns(bool){... */\n    tag_3:\n      tag_5\n      0x04\n      dup1\n      calldatasize\n      sub\n      dup2\n      add\n      swap1\n      tag_6\n      swap2\n      swap1\n      tag_7\n      jump\t// in\n    tag_6:\n      tag_8\n      jump\t// in\n    tag_5:\n      mload(0x40)\n      tag_9\n      swap2\n      swap1\n      tag_10\n      jump\t// in\n    tag_9:\n      mload(0x40)\n      dup1\n      swap2\n      sub\n      swap1\n      return\n        /* \"smartContract/did/did.sol\":2656:2918  function getCredential(address _alumniAddress) public view returns (Credential memory){... */\n    tag_4:\n      tag_11\n      0x04\n      dup1\n      calldatasize\n      sub\n      dup2\n      add\n      swap1\n      tag_12\n      swap2\n      swap1\n      tag_13\n      jump\t// in\n    tag_12:\n      tag_14\n      jump\t// in\n    tag_11:\n      mload(0x40)\n      tag_15\n      swap2\n      swap1\n      tag_16\n      jump\t// in\n    tag_15:\n      mload(0x40)\n      dup1\n      swap2\n      sub\n      swap1\n      return\n        /* \"smartContract/did/did.sol\":1820:2502  function claimCredential(address _alumniAddress, uint8 _alumniType, string calldata _value) public returns(bool){... */\n    tag_8:\n        /* \"smartContract/did/did.sol\":1927:1931  bool */\n      0x00\n        /* \"smartContract/did/did.sol\":2051:2061  msg.sender */\n      caller\n        /* \"smartContract/did/did.sol\":2034:2061  issuerAddress == msg.sender */\n      0xffffffffffffffffffffffffffffffffffffffff\n      and\n        /* \"smartContract/did/did.sol\":2034:2047  issuerAddress */\n      0x00\n      dup1\n      sload\n      swap1\n      0x0100\n      exp\n      swap1\n      div\n      0xffffffffffffffffffffffffffffffffffffffff\n      and\n        /* \"smartContract/did/did.sol\":2034:2061  issuerAddress == msg.sender */\n      0xffffffffffffffffffffffffffffffffffffffff\n      and\n      eq\n        /* \"smartContract/did/did.sol\":2026:2076  require(issuerAddress == msg.sender, \"Not Issuer\") */\n      tag_18\n      jumpi\n      mload(0x40)\n      0x08c379a000000000000000000000000000000000000000000000000000000000\n      dup2\n      mstore\n      0x04\n      add\n      tag_19\n      swap1\n      tag_20\n      jump\t// in\n    tag_19:\n      mload(0x40)\n      dup1\n      swap2\n      sub\n      swap1\n      revert\n    tag_18:\n        /* \"smartContract/did/did.sol\":2082:2111  Credential storage credential */\n      0x00\n        /* \"smartContract/did/did.sol\":2114:2125  credentials */\n      0x03\n        /* \"smartContract/did/did.sol\":2114:2141  credentials[_alumniAddress] */\n      0x00\n        /* \"smartContract/did/did.sol\":2126:2140  _alumniAddress */\n      dup8\n        /* \"smartContract/did/did.sol\":2114:2141  credentials[_alumniAddress] */\n      0xffffffffffffffffffffffffffffffffffffffff\n      and\n      0xffffffffffffffffffffffffffffffffffffffff\n      and\n      dup2\n      mstore\n      0x20\n      add\n      swap1\n      dup2\n      mstore\n      0x20\n      add\n      0x00\n      keccak256\n        /* \"smartContract/did/did.sol\":2082:2141  Credential storage credential = credentials[_alumniAddress] */\n      swap1\n      pop\n        /* \"smartContract/did/did.sol\":2177:2178  0 */\n      0x00\n        /* \"smartContract/did/did.sol\":2160:2170  credential */\n      dup2\n        /* \"smartContract/did/did.sol\":2160:2173  credential.id */\n      0x00\n      add\n      sload\n        /* \"smartContract/did/did.sol\":2160:2178  credential.id == 0 */\n      eq\n        /* \"smartContract/did/did.sol\":2152:2179  require(credential.id == 0) */\n      tag_21\n      jumpi\n      0x00\n      dup1\n      revert\n    tag_21:\n        /* \"smartContract/did/did.sol\":2258:2265  idCount */\n      sload(0x01)\n        /* \"smartContract/did/did.sol\":2242:2252  credential */\n      dup2\n        /* \"smartContract/did/did.sol\":2242:2255  credential.id */\n      0x00\n      add\n        /* \"smartContract/did/did.sol\":2242:2265  credential.id = idCount */\n      dup2\n      swap1\n      sstore\n      pop\n        /* \"smartContract/did/did.sol\":2295:2305  msg.sender */\n      caller\n        /* \"smartContract/did/did.sol\":2275:2285  credential */\n      dup2\n        /* \"smartContract/did/did.sol\":2275:2292  credential.issuer */\n      0x01\n      add\n      0x00\n        /* \"smartContract/did/did.sol\":2275:2305  credential.issuer = msg.sender */\n      0x0100\n      exp\n      dup2\n      sload\n      dup2\n      0xffffffffffffffffffffffffffffffffffffffff\n      mul\n      not\n      and\n      swap1\n      dup4\n      0xffffffffffffffffffffffffffffffffffffffff\n      and\n      mul\n      or\n      swap1\n      sstore\n      pop\n        /* \"smartContract/did/did.sol\":2339:2350  _alumniType */\n      dup5\n        /* \"smartContract/did/did.sol\":2315:2325  credential */\n      dup2\n        /* \"smartContract/did/did.sol\":2315:2336  credential.alumniType */\n      0x01\n      add\n      0x14\n        /* \"smartContract/did/did.sol\":2315:2350  credential.alumniType = _alumniType */\n      0x0100\n      exp\n      dup2\n      sload\n      dup2\n      0xff\n      mul\n      not\n      and\n      swap1\n      dup4\n      0xff\n      and\n      mul\n      or\n      swap1\n      sstore\n      pop\n        /* \"smartContract/did/did.sol\":2379:2385  _value */\n      dup4\n      dup4\n        /* \"smartContract/did/did.sol\":2360:2370  credential */\n      dup3\n        /* \"smartContract/did/did.sol\":2360:2376  credential.value */\n      0x02\n      add\n        /* \"smartContract/did/did.sol\":2360:2385  credential.value = _value */\n      swap2\n      swap1\n      tag_22\n      swap3\n      swap2\n      swap1\n      tag_23\n      jump\t// in\n    tag_22:\n      pop\n        /* \"smartContract/did/did.sol\":2449:2450  1 */\n      0x01\n        /* \"smartContract/did/did.sol\":2438:2445  idCount */\n      dup1\n      0x00\n        /* \"smartContract/did/did.sol\":2438:2450  idCount += 1 */\n      dup3\n      dup3\n      sload\n      tag_24\n      swap2\n      swap1\n      tag_25\n      jump\t// in\n    tag_24:\n      swap3\n      pop\n      pop\n      dup2\n      swap1\n      sstore\n      pop\n        /* \"smartContract/did/did.sol\":2491:2495  true */\n      0x01\n        /* \"smartContract/did/did.sol\":2484:2495  return true */\n      swap2\n      pop\n      pop\n        /* \"smartContract/did/did.sol\":1820:2502  function claimCredential(address _alumniAddress, uint8 _alumniType, string calldata _value) public returns(bool){... */\n      swap5\n      swap4\n      pop\n      pop\n      pop\n      pop\n      jump\t// out\n        /* \"smartContract/did/did.sol\":2656:2918  function getCredential(address _alumniAddress) public view returns (Credential memory){... */\n    tag_14:\n        /* \"smartContract/did/did.sol\":2724:2741  Credential memory */\n      tag_26\n      tag_27\n      jump\t// in\n    tag_26:\n        /* \"smartContract/did/did.sol\":2884:2895  credentials */\n      0x03\n        /* \"smartContract/did/did.sol\":2884:2911  credentials[_alumniAddress] */\n      0x00\n        /* \"smartContract/did/did.sol\":2896:2910  _alumniAddress */\n      dup4\n        /* \"smartContract/did/did.sol\":2884:2911  credentials[_alumniAddress] */\n      0xffffffffffffffffffffffffffffffffffffffff\n      and\n      0xffffffffffffffffffffffffffffffffffffffff\n      and\n      dup2\n      mstore\n      0x20\n      add\n      swap1\n      dup2\n      mstore\n      0x20\n      add\n      0x00\n      keccak256\n        /* \"smartContract/did/did.sol\":2877:2911  return credentials[_alumniAddress] */\n      mload(0x40)\n      dup1\n      0x80\n      add\n      0x40\n      mstore\n      swap1\n      dup2\n      0x00\n      dup3\n      add\n      sload\n      dup2\n      mstore\n      0x20\n      add\n      0x01\n      dup3\n      add\n      0x00\n      swap1\n      sload\n      swap1\n      0x0100\n      exp\n      swap1\n      div\n      0xffffffffffffffffffffffffffffffffffffffff\n      and\n      0xffffffffffffffffffffffffffffffffffffffff\n      and\n      0xffffffffffffffffffffffffffffffffffffffff\n      and\n      dup2\n      mstore\n      0x20\n      add\n      0x01\n      dup3\n      add\n      0x14\n      swap1\n      sload\n      swap1\n      0x0100\n      exp\n      swap1\n      div\n      0xff\n      and\n      0xff\n      and\n      0xff\n      and\n      dup2\n      mstore\n      0x20\n      add\n      0x02\n      dup3\n      add\n      dup1\n      sload\n      tag_29\n      swap1\n      tag_30\n      jump\t// in\n    tag_29:\n      dup1\n      0x1f\n      add\n      0x20\n      dup1\n      swap2\n      div\n      mul\n      0x20\n      add\n      mload(0x40)\n      swap1\n      dup2\n      add\n      0x40\n      mstore\n      dup1\n      swap3\n      swap2\n      swap1\n      dup2\n      dup2\n      mstore\n      0x20\n      add\n      dup3\n      dup1\n      sload\n      tag_31\n      swap1\n      tag_30\n      jump\t// in\n    tag_31:\n      dup1\n      iszero\n      tag_32\n      jumpi\n      dup1\n      0x1f\n      lt\n      tag_33\n      jumpi\n      0x0100\n      dup1\n      dup4\n      sload\n      div\n      mul\n      dup4\n      mstore\n      swap2\n      0x20\n      add\n      swap2\n      jump(tag_32)\n    tag_33:\n      dup3\n      add\n      swap2\n      swap1\n      0x00\n      mstore\n      keccak256(0x00, 0x20)\n      swap1\n    tag_34:\n      dup2\n      sload\n      dup2\n      mstore\n      swap1\n      0x01\n      add\n      swap1\n      0x20\n      add\n      dup1\n      dup4\n      gt\n      tag_34\n      jumpi\n      dup3\n      swap1\n      sub\n      0x1f\n      and\n      dup3\n      add\n      swap2\n    tag_32:\n      pop\n      pop\n      pop\n      pop\n      pop\n      dup2\n      mstore\n      pop\n      pop\n      swap1\n      pop\n        /* \"smartContract/did/did.sol\":2656:2918  function getCredential(address _alumniAddress) public view returns (Credential memory){... */\n      swap2\n      swap1\n      pop\n      jump\t// out\n    tag_23:\n      dup3\n      dup1\n      sload\n      tag_35\n      swap1\n      tag_30\n      jump\t// in\n    tag_35:\n      swap1\n      0x00\n      mstore\n      keccak256(0x00, 0x20)\n      swap1\n      0x1f\n      add\n      0x20\n      swap1\n      div\n      dup2\n      add\n      swap3\n      dup3\n      tag_37\n      jumpi\n      0x00\n      dup6\n      sstore\n      jump(tag_36)\n    tag_37:\n      dup3\n      0x1f\n      lt\n      tag_38\n      jumpi\n      dup1\n      calldataload\n      not(0xff)\n      and\n      dup4\n      dup1\n      add\n      or\n      dup6\n      sstore\n      jump(tag_36)\n    tag_38:\n      dup3\n      dup1\n      add\n      0x01\n      add\n      dup6\n      sstore\n      dup3\n      iszero\n      tag_36\n      jumpi\n      swap2\n      dup3\n      add\n    tag_39:\n      dup3\n      dup2\n      gt\n      iszero\n      tag_40\n      jumpi\n      dup3\n      calldataload\n      dup3\n      sstore\n      swap2\n      0x20\n      add\n      swap2\n      swap1\n      0x01\n      add\n      swap1\n      jump(tag_39)\n    tag_40:\n    tag_36:\n      pop\n      swap1\n      pop\n      tag_41\n      swap2\n      swap1\n      tag_42\n      jump\t// in\n    tag_41:\n      pop\n      swap1\n      jump\t// out\n    tag_27:\n      mload(0x40)\n      dup1\n      0x80\n      add\n      0x40\n      mstore\n      dup1\n      0x00\n      dup2\n      mstore\n      0x20\n      add\n      and(0xffffffffffffffffffffffffffffffffffffffff, 0x00)\n      dup2\n      mstore\n      0x20\n      add\n      and(0xff, 0x00)\n      dup2\n      mstore\n      0x20\n      add\n      0x60\n      dup2\n      mstore\n      pop\n      swap1\n      jump\t// out\n    tag_42:\n    tag_43:\n      dup1\n      dup3\n      gt\n      iszero\n      tag_44\n      jumpi\n      0x00\n      dup2\n      0x00\n      swap1\n      sstore\n      pop\n      0x01\n      add\n      jump(tag_43)\n    tag_44:\n      pop\n      swap1\n      jump\t// out\n        /* \"#utility.yul\":88:205   */\n    tag_46:\n        /* \"#utility.yul\":197:198   */\n      0x00\n        /* \"#utility.yul\":194:195   */\n      dup1\n        /* \"#utility.yul\":187:199   */\n      revert\n        /* \"#utility.yul\":211:328   */\n    tag_47:\n        /* \"#utility.yul\":320:321   */\n      0x00\n        /* \"#utility.yul\":317:318   */\n      dup1\n        /* \"#utility.yul\":310:322   */\n      revert\n        /* \"#utility.yul\":334:460   */\n    tag_48:\n        /* \"#utility.yul\":371:378   */\n      0x00\n        /* \"#utility.yul\":411:453   */\n      0xffffffffffffffffffffffffffffffffffffffff\n        /* \"#utility.yul\":404:409   */\n      dup3\n        /* \"#utility.yul\":400:454   */\n      and\n        /* \"#utility.yul\":389:454   */\n      swap1\n      pop\n        /* \"#utility.yul\":334:460   */\n      swap2\n      swap1\n      pop\n      jump\t// out\n        /* \"#utility.yul\":466:562   */\n    tag_49:\n        /* \"#utility.yul\":503:510   */\n      0x00\n        /* \"#utility.yul\":532:556   */\n      tag_82\n        /* \"#utility.yul\":550:555   */\n      dup3\n        /* \"#utility.yul\":532:556   */\n      tag_48\n      jump\t// in\n    tag_82:\n        /* \"#utility.yul\":521:556   */\n      swap1\n      pop\n        /* \"#utility.yul\":466:562   */\n      swap2\n      swap1\n      pop\n      jump\t// out\n        /* \"#utility.yul\":568:690   */\n    tag_50:\n        /* \"#utility.yul\":641:665   */\n      tag_84\n        /* \"#utility.yul\":659:664   */\n      dup2\n        /* \"#utility.yul\":641:665   */\n      tag_49\n      jump\t// in\n    tag_84:\n        /* \"#utility.yul\":634:639   */\n      dup2\n        /* \"#utility.yul\":631:666   */\n      eq\n        /* \"#utility.yul\":621:684   */\n      tag_85\n      jumpi\n        /* \"#utility.yul\":680:681   */\n      0x00\n        /* \"#utility.yul\":677:678   */\n      dup1\n        /* \"#utility.yul\":670:682   */\n      revert\n        /* \"#utility.yul\":621:684   */\n    tag_85:\n        /* \"#utility.yul\":568:690   */\n      pop\n      jump\t// out\n        /* \"#utility.yul\":696:835   */\n    tag_51:\n        /* \"#utility.yul\":742:747   */\n      0x00\n        /* \"#utility.yul\":780:786   */\n      dup2\n        /* \"#utility.yul\":767:787   */\n      calldataload\n        /* \"#utility.yul\":758:787   */\n      swap1\n      pop\n        /* \"#utility.yul\":796:829   */\n      tag_87\n        /* \"#utility.yul\":823:828   */\n      dup2\n        /* \"#utility.yul\":796:829   */\n      tag_50\n      jump\t// in\n    tag_87:\n        /* \"#utility.yul\":696:835   */\n      swap3\n      swap2\n      pop\n      pop\n      jump\t// out\n        /* \"#utility.yul\":841:927   */\n    tag_52:\n        /* \"#utility.yul\":876:883   */\n      0x00\n        /* \"#utility.yul\":916:920   */\n      0xff\n        /* \"#utility.yul\":909:914   */\n      dup3\n        /* \"#utility.yul\":905:921   */\n      and\n        /* \"#utility.yul\":894:921   */\n      swap1\n      pop\n        /* \"#utility.yul\":841:927   */\n      swap2\n      swap1\n      pop\n      jump\t// out\n        /* \"#utility.yul\":933:1051   */\n    tag_53:\n        /* \"#utility.yul\":1004:1026   */\n      tag_90\n        /* \"#utility.yul\":1020:1025   */\n      dup2\n        /* \"#utility.yul\":1004:1026   */\n      tag_52\n      jump\t// in\n    tag_90:\n        /* \"#utility.yul\":997:1002   */\n      dup2\n        /* \"#utility.yul\":994:1027   */\n      eq\n        /* \"#utility.yul\":984:1045   */\n      tag_91\n      jumpi\n        /* \"#utility.yul\":1041:1042   */\n      0x00\n        /* \"#utility.yul\":1038:1039   */\n      dup1\n        /* \"#utility.yul\":1031:1043   */\n      revert\n        /* \"#utility.yul\":984:1045   */\n    tag_91:\n        /* \"#utility.yul\":933:1051   */\n      pop\n      jump\t// out\n        /* \"#utility.yul\":1057:1192   */\n    tag_54:\n        /* \"#utility.yul\":1101:1106   */\n      0x00\n        /* \"#utility.yul\":1139:1145   */\n      dup2\n        /* \"#utility.yul\":1126:1146   */\n      calldataload\n        /* \"#utility.yul\":1117:1146   */\n      swap1\n      pop\n        /* \"#utility.yul\":1155:1186   */\n      tag_93\n        /* \"#utility.yul\":1180:1185   */\n      dup2\n        /* \"#utility.yul\":1155:1186   */\n      tag_53\n      jump\t// in\n    tag_93:\n        /* \"#utility.yul\":1057:1192   */\n      swap3\n      swap2\n      pop\n      pop\n      jump\t// out\n        /* \"#utility.yul\":1198:1315   */\n    tag_55:\n        /* \"#utility.yul\":1307:1308   */\n      0x00\n        /* \"#utility.yul\":1304:1305   */\n      dup1\n        /* \"#utility.yul\":1297:1309   */\n      revert\n        /* \"#utility.yul\":1321:1438   */\n    tag_56:\n        /* \"#utility.yul\":1430:1431   */\n      0x00\n        /* \"#utility.yul\":1427:1428   */\n      dup1\n        /* \"#utility.yul\":1420:1432   */\n      revert\n        /* \"#utility.yul\":1444:1561   */\n    tag_57:\n        /* \"#utility.yul\":1553:1554   */\n      0x00\n        /* \"#utility.yul\":1550:1551   */\n      dup1\n        /* \"#utility.yul\":1543:1555   */\n      revert\n        /* \"#utility.yul\":1581:2134   */\n    tag_58:\n        /* \"#utility.yul\":1639:1647   */\n      0x00\n        /* \"#utility.yul\":1649:1655   */\n      dup1\n        /* \"#utility.yul\":1699:1702   */\n      dup4\n        /* \"#utility.yul\":1692:1696   */\n      0x1f\n        /* \"#utility.yul\":1684:1690   */\n      dup5\n        /* \"#utility.yul\":1680:1697   */\n      add\n        /* \"#utility.yul\":1676:1703   */\n      slt\n        /* \"#utility.yul\":1666:1788   */\n      tag_98\n      jumpi\n        /* \"#utility.yul\":1707:1786   */\n      tag_99\n      tag_55\n      jump\t// in\n    tag_99:\n        /* \"#utility.yul\":1666:1788   */\n    tag_98:\n        /* \"#utility.yul\":1820:1826   */\n      dup3\n        /* \"#utility.yul\":1807:1827   */\n      calldataload\n        /* \"#utility.yul\":1797:1827   */\n      swap1\n      pop\n        /* \"#utility.yul\":1850:1868   */\n      0xffffffffffffffff\n        /* \"#utility.yul\":1842:1848   */\n      dup2\n        /* \"#utility.yul\":1839:1869   */\n      gt\n        /* \"#utility.yul\":1836:1953   */\n      iszero\n      tag_100\n      jumpi\n        /* \"#utility.yul\":1872:1951   */\n      tag_101\n      tag_56\n      jump\t// in\n    tag_101:\n        /* \"#utility.yul\":1836:1953   */\n    tag_100:\n        /* \"#utility.yul\":1986:1990   */\n      0x20\n        /* \"#utility.yul\":1978:1984   */\n      dup4\n        /* \"#utility.yul\":1974:1991   */\n      add\n        /* \"#utility.yul\":1962:1991   */\n      swap2\n      pop\n        /* \"#utility.yul\":2040:2043   */\n      dup4\n        /* \"#utility.yul\":2032:2036   */\n      0x01\n        /* \"#utility.yul\":2024:2030   */\n      dup3\n        /* \"#utility.yul\":2020:2037   */\n      mul\n        /* \"#utility.yul\":2010:2018   */\n      dup4\n        /* \"#utility.yul\":2006:2038   */\n      add\n        /* \"#utility.yul\":2003:2044   */\n      gt\n        /* \"#utility.yul\":2000:2128   */\n      iszero\n      tag_102\n      jumpi\n        /* \"#utility.yul\":2047:2126   */\n      tag_103\n      tag_57\n      jump\t// in\n    tag_103:\n        /* \"#utility.yul\":2000:2128   */\n    tag_102:\n        /* \"#utility.yul\":1581:2134   */\n      swap3\n      pop\n      swap3\n      swap1\n      pop\n      jump\t// out\n        /* \"#utility.yul\":2140:2955   */\n    tag_7:\n        /* \"#utility.yul\":2227:2233   */\n      0x00\n        /* \"#utility.yul\":2235:2241   */\n      dup1\n        /* \"#utility.yul\":2243:2249   */\n      0x00\n        /* \"#utility.yul\":2251:2257   */\n      dup1\n        /* \"#utility.yul\":2300:2302   */\n      0x60\n        /* \"#utility.yul\":2288:2297   */\n      dup6\n        /* \"#utility.yul\":2279:2286   */\n      dup8\n        /* \"#utility.yul\":2275:2298   */\n      sub\n        /* \"#utility.yul\":2271:2303   */\n      slt\n        /* \"#utility.yul\":2268:2387   */\n      iszero\n      tag_105\n      jumpi\n        /* \"#utility.yul\":2306:2385   */\n      tag_106\n      tag_46\n      jump\t// in\n    tag_106:\n        /* \"#utility.yul\":2268:2387   */\n    tag_105:\n        /* \"#utility.yul\":2426:2427   */\n      0x00\n        /* \"#utility.yul\":2451:2504   */\n      tag_107\n        /* \"#utility.yul\":2496:2503   */\n      dup8\n        /* \"#utility.yul\":2487:2493   */\n      dup3\n        /* \"#utility.yul\":2476:2485   */\n      dup9\n        /* \"#utility.yul\":2472:2494   */\n      add\n        /* \"#utility.yul\":2451:2504   */\n      tag_51\n      jump\t// in\n    tag_107:\n        /* \"#utility.yul\":2441:2504   */\n      swap5\n      pop\n        /* \"#utility.yul\":2397:2514   */\n      pop\n        /* \"#utility.yul\":2553:2555   */\n      0x20\n        /* \"#utility.yul\":2579:2630   */\n      tag_108\n        /* \"#utility.yul\":2622:2629   */\n      dup8\n        /* \"#utility.yul\":2613:2619   */\n      dup3\n        /* \"#utility.yul\":2602:2611   */\n      dup9\n        /* \"#utility.yul\":2598:2620   */\n      add\n        /* \"#utility.yul\":2579:2630   */\n      tag_54\n      jump\t// in\n    tag_108:\n        /* \"#utility.yul\":2569:2630   */\n      swap4\n      pop\n        /* \"#utility.yul\":2524:2640   */\n      pop\n        /* \"#utility.yul\":2707:2709   */\n      0x40\n        /* \"#utility.yul\":2696:2705   */\n      dup6\n        /* \"#utility.yul\":2692:2710   */\n      add\n        /* \"#utility.yul\":2679:2711   */\n      calldataload\n        /* \"#utility.yul\":2738:2756   */\n      0xffffffffffffffff\n        /* \"#utility.yul\":2730:2736   */\n      dup2\n        /* \"#utility.yul\":2727:2757   */\n      gt\n        /* \"#utility.yul\":2724:2841   */\n      iszero\n      tag_109\n      jumpi\n        /* \"#utility.yul\":2760:2839   */\n      tag_110\n      tag_47\n      jump\t// in\n    tag_110:\n        /* \"#utility.yul\":2724:2841   */\n    tag_109:\n        /* \"#utility.yul\":2873:2938   */\n      tag_111\n        /* \"#utility.yul\":2930:2937   */\n      dup8\n        /* \"#utility.yul\":2921:2927   */\n      dup3\n        /* \"#utility.yul\":2910:2919   */\n      dup9\n        /* \"#utility.yul\":2906:2928   */\n      add\n        /* \"#utility.yul\":2873:2938   */\n      tag_58\n      jump\t// in\n    tag_111:\n        /* \"#utility.yul\":2855:2938   */\n      swap3\n      pop\n      swap3\n      pop\n        /* \"#utility.yul\":2650:2948   */\n      pop\n        /* \"#utility.yul\":2140:2955   */\n      swap3\n      swap6\n      swap2\n      swap5\n      pop\n      swap3\n      pop\n      jump\t// out\n        /* \"#utility.yul\":2961:3051   */\n    tag_59:\n        /* \"#utility.yul\":2995:3002   */\n      0x00\n        /* \"#utility.yul\":3038:3043   */\n      dup2\n        /* \"#utility.yul\":3031:3044   */\n      iszero\n        /* \"#utility.yul\":3024:3045   */\n      iszero\n        /* \"#utility.yul\":3013:3045   */\n      swap1\n      pop\n        /* \"#utility.yul\":2961:3051   */\n      swap2\n      swap1\n      pop\n      jump\t// out\n        /* \"#utility.yul\":3057:3166   */\n    tag_60:\n        /* \"#utility.yul\":3138:3159   */\n      tag_114\n        /* \"#utility.yul\":3153:3158   */\n      dup2\n        /* \"#utility.yul\":3138:3159   */\n      tag_59\n      jump\t// in\n    tag_114:\n        /* \"#utility.yul\":3133:3136   */\n      dup3\n        /* \"#utility.yul\":3126:3160   */\n      mstore\n        /* \"#utility.yul\":3057:3166   */\n      pop\n      pop\n      jump\t// out\n        /* \"#utility.yul\":3172:3382   */\n    tag_10:\n        /* \"#utility.yul\":3259:3263   */\n      0x00\n        /* \"#utility.yul\":3297:3299   */\n      0x20\n        /* \"#utility.yul\":3286:3295   */\n      dup3\n        /* \"#utility.yul\":3282:3300   */\n      add\n        /* \"#utility.yul\":3274:3300   */\n      swap1\n      pop\n        /* \"#utility.yul\":3310:3375   */\n      tag_116\n        /* \"#utility.yul\":3372:3373   */\n      0x00\n        /* \"#utility.yul\":3361:3370   */\n      dup4\n        /* \"#utility.yul\":3357:3374   */\n      add\n        /* \"#utility.yul\":3348:3354   */\n      dup5\n        /* \"#utility.yul\":3310:3375   */\n      tag_60\n      jump\t// in\n    tag_116:\n        /* \"#utility.yul\":3172:3382   */\n      swap3\n      swap2\n      pop\n      pop\n      jump\t// out\n        /* \"#utility.yul\":3388:3717   */\n    tag_13:\n        /* \"#utility.yul\":3447:3453   */\n      0x00\n        /* \"#utility.yul\":3496:3498   */\n      0x20\n        /* \"#utility.yul\":3484:3493   */\n      dup3\n        /* \"#utility.yul\":3475:3482   */\n      dup5\n        /* \"#utility.yul\":3471:3494   */\n      sub\n        /* \"#utility.yul\":3467:3499   */\n      slt\n        /* \"#utility.yul\":3464:3583   */\n      iszero\n      tag_118\n      jumpi\n        /* \"#utility.yul\":3502:3581   */\n      tag_119\n      tag_46\n      jump\t// in\n    tag_119:\n        /* \"#utility.yul\":3464:3583   */\n    tag_118:\n        /* \"#utility.yul\":3622:3623   */\n      0x00\n        /* \"#utility.yul\":3647:3700   */\n      tag_120\n        /* \"#utility.yul\":3692:3699   */\n      dup5\n        /* \"#utility.yul\":3683:3689   */\n      dup3\n        /* \"#utility.yul\":3672:3681   */\n      dup6\n        /* \"#utility.yul\":3668:3690   */\n      add\n        /* \"#utility.yul\":3647:3700   */\n      tag_51\n      jump\t// in\n    tag_120:\n        /* \"#utility.yul\":3637:3700   */\n      swap2\n      pop\n        /* \"#utility.yul\":3593:3710   */\n      pop\n        /* \"#utility.yul\":3388:3717   */\n      swap3\n      swap2\n      pop\n      pop\n      jump\t// out\n        /* \"#utility.yul\":3723:3800   */\n    tag_61:\n        /* \"#utility.yul\":3760:3767   */\n      0x00\n        /* \"#utility.yul\":3789:3794   */\n      dup2\n        /* \"#utility.yul\":3778:3794   */\n      swap1\n      pop\n        /* \"#utility.yul\":3723:3800   */\n      swap2\n      swap1\n      pop\n      jump\t// out\n        /* \"#utility.yul\":3806:3914   */\n    tag_62:\n        /* \"#utility.yul\":3883:3907   */\n      tag_123\n        /* \"#utility.yul\":3901:3906   */\n      dup2\n        /* \"#utility.yul\":3883:3907   */\n      tag_61\n      jump\t// in\n    tag_123:\n        /* \"#utility.yul\":3878:3881   */\n      dup3\n        /* \"#utility.yul\":3871:3908   */\n      mstore\n        /* \"#utility.yul\":3806:3914   */\n      pop\n      pop\n      jump\t// out\n        /* \"#utility.yul\":3920:4028   */\n    tag_63:\n        /* \"#utility.yul\":3997:4021   */\n      tag_125\n        /* \"#utility.yul\":4015:4020   */\n      dup2\n        /* \"#utility.yul\":3997:4021   */\n      tag_49\n      jump\t// in\n    tag_125:\n        /* \"#utility.yul\":3992:3995   */\n      dup3\n        /* \"#utility.yul\":3985:4022   */\n      mstore\n        /* \"#utility.yul\":3920:4028   */\n      pop\n      pop\n      jump\t// out\n        /* \"#utility.yul\":4034:4136   */\n    tag_64:\n        /* \"#utility.yul\":4107:4129   */\n      tag_127\n        /* \"#utility.yul\":4123:4128   */\n      dup2\n        /* \"#utility.yul\":4107:4129   */\n      tag_52\n      jump\t// in\n    tag_127:\n        /* \"#utility.yul\":4102:4105   */\n      dup3\n        /* \"#utility.yul\":4095:4130   */\n      mstore\n        /* \"#utility.yul\":4034:4136   */\n      pop\n      pop\n      jump\t// out\n        /* \"#utility.yul\":4142:4241   */\n    tag_65:\n        /* \"#utility.yul\":4194:4200   */\n      0x00\n        /* \"#utility.yul\":4228:4233   */\n      dup2\n        /* \"#utility.yul\":4222:4234   */\n      mload\n        /* \"#utility.yul\":4212:4234   */\n      swap1\n      pop\n        /* \"#utility.yul\":4142:4241   */\n      swap2\n      swap1\n      pop\n      jump\t// out\n        /* \"#utility.yul\":4247:4406   */\n    tag_66:\n        /* \"#utility.yul\":4321:4332   */\n      0x00\n        /* \"#utility.yul\":4355:4361   */\n      dup3\n        /* \"#utility.yul\":4350:4353   */\n      dup3\n        /* \"#utility.yul\":4343:4362   */\n      mstore\n        /* \"#utility.yul\":4395:4399   */\n      0x20\n        /* \"#utility.yul\":4390:4393   */\n      dup3\n        /* \"#utility.yul\":4386:4400   */\n      add\n        /* \"#utility.yul\":4371:4400   */\n      swap1\n      pop\n        /* \"#utility.yul\":4247:4406   */\n      swap3\n      swap2\n      pop\n      pop\n      jump\t// out\n        /* \"#utility.yul\":4412:4719   */\n    tag_67:\n        /* \"#utility.yul\":4480:4481   */\n      0x00\n        /* \"#utility.yul\":4490:4603   */\n    tag_131:\n        /* \"#utility.yul\":4504:4510   */\n      dup4\n        /* \"#utility.yul\":4501:4502   */\n      dup2\n        /* \"#utility.yul\":4498:4511   */\n      lt\n        /* \"#utility.yul\":4490:4603   */\n      iszero\n      tag_133\n      jumpi\n        /* \"#utility.yul\":4589:4590   */\n      dup1\n        /* \"#utility.yul\":4584:4587   */\n      dup3\n        /* \"#utility.yul\":4580:4591   */\n      add\n        /* \"#utility.yul\":4574:4592   */\n      mload\n        /* \"#utility.yul\":4570:4571   */\n      dup2\n        /* \"#utility.yul\":4565:4568   */\n      dup5\n        /* \"#utility.yul\":4561:4572   */\n      add\n        /* \"#utility.yul\":4554:4593   */\n      mstore\n        /* \"#utility.yul\":4526:4528   */\n      0x20\n        /* \"#utility.yul\":4523:4524   */\n      dup2\n        /* \"#utility.yul\":4519:4529   */\n      add\n        /* \"#utility.yul\":4514:4529   */\n      swap1\n      pop\n        /* \"#utility.yul\":4490:4603   */\n      jump(tag_131)\n    tag_133:\n        /* \"#utility.yul\":4621:4627   */\n      dup4\n        /* \"#utility.yul\":4618:4619   */\n      dup2\n        /* \"#utility.yul\":4615:4628   */\n      gt\n        /* \"#utility.yul\":4612:4713   */\n      iszero\n      tag_134\n      jumpi\n        /* \"#utility.yul\":4701:4702   */\n      0x00\n        /* \"#utility.yul\":4692:4698   */\n      dup5\n        /* \"#utility.yul\":4687:4690   */\n      dup5\n        /* \"#utility.yul\":4683:4699   */\n      add\n        /* \"#utility.yul\":4676:4703   */\n      mstore\n        /* \"#utility.yul\":4612:4713   */\n    tag_134:\n        /* \"#utility.yul\":4461:4719   */\n      pop\n        /* \"#utility.yul\":4412:4719   */\n      pop\n      pop\n      pop\n      jump\t// out\n        /* \"#utility.yul\":4725:4827   */\n    tag_68:\n        /* \"#utility.yul\":4766:4772   */\n      0x00\n        /* \"#utility.yul\":4817:4819   */\n      0x1f\n        /* \"#utility.yul\":4813:4820   */\n      not\n        /* \"#utility.yul\":4808:4810   */\n      0x1f\n        /* \"#utility.yul\":4801:4806   */\n      dup4\n        /* \"#utility.yul\":4797:4811   */\n      add\n        /* \"#utility.yul\":4793:4821   */\n      and\n        /* \"#utility.yul\":4783:4821   */\n      swap1\n      pop\n        /* \"#utility.yul\":4725:4827   */\n      swap2\n      swap1\n      pop\n      jump\t// out\n        /* \"#utility.yul\":4833:5177   */\n    tag_69:\n        /* \"#utility.yul\":4911:4914   */\n      0x00\n        /* \"#utility.yul\":4939:4978   */\n      tag_137\n        /* \"#utility.yul\":4972:4977   */\n      dup3\n        /* \"#utility.yul\":4939:4978   */\n      tag_65\n      jump\t// in\n    tag_137:\n        /* \"#utility.yul\":4994:5055   */\n      tag_138\n        /* \"#utility.yul\":5048:5054   */\n      dup2\n        /* \"#utility.yul\":5043:5046   */\n      dup6\n        /* \"#utility.yul\":4994:5055   */\n      tag_66\n      jump\t// in\n    tag_138:\n        /* \"#utility.yul\":4987:5055   */\n      swap4\n      pop\n        /* \"#utility.yul\":5064:5116   */\n      tag_139\n        /* \"#utility.yul\":5109:5115   */\n      dup2\n        /* \"#utility.yul\":5104:5107   */\n      dup6\n        /* \"#utility.yul\":5097:5101   */\n      0x20\n        /* \"#utility.yul\":5090:5095   */\n      dup7\n        /* \"#utility.yul\":5086:5102   */\n      add\n        /* \"#utility.yul\":5064:5116   */\n      tag_67\n      jump\t// in\n    tag_139:\n        /* \"#utility.yul\":5141:5170   */\n      tag_140\n        /* \"#utility.yul\":5163:5169   */\n      dup2\n        /* \"#utility.yul\":5141:5170   */\n      tag_68\n      jump\t// in\n    tag_140:\n        /* \"#utility.yul\":5136:5139   */\n      dup5\n        /* \"#utility.yul\":5132:5171   */\n      add\n        /* \"#utility.yul\":5125:5171   */\n      swap2\n      pop\n        /* \"#utility.yul\":4915:5177   */\n      pop\n        /* \"#utility.yul\":4833:5177   */\n      swap3\n      swap2\n      pop\n      pop\n      jump\t// out\n        /* \"#utility.yul\":5257:6216   */\n    tag_70:\n        /* \"#utility.yul\":5378:5381   */\n      0x00\n        /* \"#utility.yul\":5414:5418   */\n      0x80\n        /* \"#utility.yul\":5409:5412   */\n      dup4\n        /* \"#utility.yul\":5405:5419   */\n      add\n        /* \"#utility.yul\":5499:5503   */\n      0x00\n        /* \"#utility.yul\":5492:5497   */\n      dup4\n        /* \"#utility.yul\":5488:5504   */\n      add\n        /* \"#utility.yul\":5482:5505   */\n      mload\n        /* \"#utility.yul\":5518:5581   */\n      tag_142\n        /* \"#utility.yul\":5575:5579   */\n      0x00\n        /* \"#utility.yul\":5570:5573   */\n      dup7\n        /* \"#utility.yul\":5566:5580   */\n      add\n        /* \"#utility.yul\":5552:5564   */\n      dup3\n        /* \"#utility.yul\":5518:5581   */\n      tag_62\n      jump\t// in\n    tag_142:\n        /* \"#utility.yul\":5429:5591   */\n      pop\n        /* \"#utility.yul\":5675:5679   */\n      0x20\n        /* \"#utility.yul\":5668:5673   */\n      dup4\n        /* \"#utility.yul\":5664:5680   */\n      add\n        /* \"#utility.yul\":5658:5681   */\n      mload\n        /* \"#utility.yul\":5694:5757   */\n      tag_143\n        /* \"#utility.yul\":5751:5755   */\n      0x20\n        /* \"#utility.yul\":5746:5749   */\n      dup7\n        /* \"#utility.yul\":5742:5756   */\n      add\n        /* \"#utility.yul\":5728:5740   */\n      dup3\n        /* \"#utility.yul\":5694:5757   */\n      tag_63\n      jump\t// in\n    tag_143:\n        /* \"#utility.yul\":5601:5767   */\n      pop\n        /* \"#utility.yul\":5855:5859   */\n      0x40\n        /* \"#utility.yul\":5848:5853   */\n      dup4\n        /* \"#utility.yul\":5844:5860   */\n      add\n        /* \"#utility.yul\":5838:5861   */\n      mload\n        /* \"#utility.yul\":5874:5933   */\n      tag_144\n        /* \"#utility.yul\":5927:5931   */\n      0x40\n        /* \"#utility.yul\":5922:5925   */\n      dup7\n        /* \"#utility.yul\":5918:5932   */\n      add\n        /* \"#utility.yul\":5904:5916   */\n      dup3\n        /* \"#utility.yul\":5874:5933   */\n      tag_64\n      jump\t// in\n    tag_144:\n        /* \"#utility.yul\":5777:5943   */\n      pop\n        /* \"#utility.yul\":6026:6030   */\n      0x60\n        /* \"#utility.yul\":6019:6024   */\n      dup4\n        /* \"#utility.yul\":6015:6031   */\n      add\n        /* \"#utility.yul\":6009:6032   */\n      mload\n        /* \"#utility.yul\":6079:6082   */\n      dup5\n        /* \"#utility.yul\":6073:6077   */\n      dup3\n        /* \"#utility.yul\":6069:6083   */\n      sub\n        /* \"#utility.yul\":6062:6066   */\n      0x60\n        /* \"#utility.yul\":6057:6060   */\n      dup7\n        /* \"#utility.yul\":6053:6067   */\n      add\n        /* \"#utility.yul\":6046:6084   */\n      mstore\n        /* \"#utility.yul\":6105:6178   */\n      tag_145\n        /* \"#utility.yul\":6173:6177   */\n      dup3\n        /* \"#utility.yul\":6159:6171   */\n      dup3\n        /* \"#utility.yul\":6105:6178   */\n      tag_69\n      jump\t// in\n    tag_145:\n        /* \"#utility.yul\":6097:6178   */\n      swap2\n      pop\n        /* \"#utility.yul\":5953:6189   */\n      pop\n        /* \"#utility.yul\":6206:6210   */\n      dup1\n        /* \"#utility.yul\":6199:6210   */\n      swap2\n      pop\n        /* \"#utility.yul\":5383:6216   */\n      pop\n        /* \"#utility.yul\":5257:6216   */\n      swap3\n      swap2\n      pop\n      pop\n      jump\t// out\n        /* \"#utility.yul\":6222:6599   */\n    tag_16:\n        /* \"#utility.yul\":6367:6371   */\n      0x00\n        /* \"#utility.yul\":6405:6407   */\n      0x20\n        /* \"#utility.yul\":6394:6403   */\n      dup3\n        /* \"#utility.yul\":6390:6408   */\n      add\n        /* \"#utility.yul\":6382:6408   */\n      swap1\n      pop\n        /* \"#utility.yul\":6454:6463   */\n      dup2\n        /* \"#utility.yul\":6448:6452   */\n      dup2\n        /* \"#utility.yul\":6444:6464   */\n      sub\n        /* \"#utility.yul\":6440:6441   */\n      0x00\n        /* \"#utility.yul\":6429:6438   */\n      dup4\n        /* \"#utility.yul\":6425:6442   */\n      add\n        /* \"#utility.yul\":6418:6465   */\n      mstore\n        /* \"#utility.yul\":6482:6592   */\n      tag_147\n        /* \"#utility.yul\":6587:6591   */\n      dup2\n        /* \"#utility.yul\":6578:6584   */\n      dup5\n        /* \"#utility.yul\":6482:6592   */\n      tag_70\n      jump\t// in\n    tag_147:\n        /* \"#utility.yul\":6474:6592   */\n      swap1\n      pop\n        /* \"#utility.yul\":6222:6599   */\n      swap3\n      swap2\n      pop\n      pop\n      jump\t// out\n        /* \"#utility.yul\":6605:6774   */\n    tag_71:\n        /* \"#utility.yul\":6689:6700   */\n      0x00\n        /* \"#utility.yul\":6723:6729   */\n      dup3\n        /* \"#utility.yul\":6718:6721   */\n      dup3\n        /* \"#utility.yul\":6711:6730   */\n      mstore\n        /* \"#utility.yul\":6763:6767   */\n      0x20\n        /* \"#utility.yul\":6758:6761   */\n      dup3\n        /* \"#utility.yul\":6754:6768   */\n      add\n        /* \"#utility.yul\":6739:6768   */\n      swap1\n      pop\n        /* \"#utility.yul\":6605:6774   */\n      swap3\n      swap2\n      pop\n      pop\n      jump\t// out\n        /* \"#utility.yul\":6780:6940   */\n    tag_72:\n        /* \"#utility.yul\":6920:6932   */\n      0x4e6f742049737375657200000000000000000000000000000000000000000000\n        /* \"#utility.yul\":6916:6917   */\n      0x00\n        /* \"#utility.yul\":6908:6914   */\n      dup3\n        /* \"#utility.yul\":6904:6918   */\n      add\n        /* \"#utility.yul\":6897:6933   */\n      mstore\n        /* \"#utility.yul\":6780:6940   */\n      pop\n      jump\t// out\n        /* \"#utility.yul\":6946:7312   */\n    tag_73:\n        /* \"#utility.yul\":7088:7091   */\n      0x00\n        /* \"#utility.yul\":7109:7176   */\n      tag_151\n        /* \"#utility.yul\":7173:7175   */\n      0x0a\n        /* \"#utility.yul\":7168:7171   */\n      dup4\n        /* \"#utility.yul\":7109:7176   */\n      tag_71\n      jump\t// in\n    tag_151:\n        /* \"#utility.yul\":7102:7176   */\n      swap2\n      pop\n        /* \"#utility.yul\":7185:7278   */\n      tag_152\n        /* \"#utility.yul\":7274:7277   */\n      dup3\n        /* \"#utility.yul\":7185:7278   */\n      tag_72\n      jump\t// in\n    tag_152:\n        /* \"#utility.yul\":7303:7305   */\n      0x20\n        /* \"#utility.yul\":7298:7301   */\n      dup3\n        /* \"#utility.yul\":7294:7306   */\n      add\n        /* \"#utility.yul\":7287:7306   */\n      swap1\n      pop\n        /* \"#utility.yul\":6946:7312   */\n      swap2\n      swap1\n      pop\n      jump\t// out\n        /* \"#utility.yul\":7318:7737   */\n    tag_20:\n        /* \"#utility.yul\":7484:7488   */\n      0x00\n        /* \"#utility.yul\":7522:7524   */\n      0x20\n        /* \"#utility.yul\":7511:7520   */\n      dup3\n        /* \"#utility.yul\":7507:7525   */\n      add\n        /* \"#utility.yul\":7499:7525   */\n      swap1\n      pop\n        /* \"#utility.yul\":7571:7580   */\n      dup2\n        /* \"#utility.yul\":7565:7569   */\n      dup2\n        /* \"#utility.yul\":7561:7581   */\n      sub\n        /* \"#utility.yul\":7557:7558   */\n      0x00\n        /* \"#utility.yul\":7546:7555   */\n      dup4\n        /* \"#utility.yul\":7542:7559   */\n      add\n        /* \"#utility.yul\":7535:7582   */\n      mstore\n        /* \"#utility.yul\":7599:7730   */\n      tag_154\n        /* \"#utility.yul\":7725:7729   */\n      dup2\n        /* \"#utility.yul\":7599:7730   */\n      tag_73\n      jump\t// in\n    tag_154:\n        /* \"#utility.yul\":7591:7730   */\n      swap1\n      pop\n        /* \"#utility.yul\":7318:7737   */\n      swap2\n      swap1\n      pop\n      jump\t// out\n        /* \"#utility.yul\":7743:7923   */\n    tag_74:\n        /* \"#utility.yul\":7791:7868   */\n      0x4e487b7100000000000000000000000000000000000000000000000000000000\n        /* \"#utility.yul\":7788:7789   */\n      0x00\n        /* \"#utility.yul\":7781:7869   */\n      mstore\n        /* \"#utility.yul\":7888:7892   */\n      0x11\n        /* \"#utility.yul\":7885:7886   */\n      0x04\n        /* \"#utility.yul\":7878:7893   */\n      mstore\n        /* \"#utility.yul\":7912:7916   */\n      0x24\n        /* \"#utility.yul\":7909:7910   */\n      0x00\n        /* \"#utility.yul\":7902:7917   */\n      revert\n        /* \"#utility.yul\":7929:8234   */\n    tag_25:\n        /* \"#utility.yul\":7969:7972   */\n      0x00\n        /* \"#utility.yul\":7988:8008   */\n      tag_157\n        /* \"#utility.yul\":8006:8007   */\n      dup3\n        /* \"#utility.yul\":7988:8008   */\n      tag_61\n      jump\t// in\n    tag_157:\n        /* \"#utility.yul\":7983:8008   */\n      swap2\n      pop\n        /* \"#utility.yul\":8022:8042   */\n      tag_158\n        /* \"#utility.yul\":8040:8041   */\n      dup4\n        /* \"#utility.yul\":8022:8042   */\n      tag_61\n      jump\t// in\n    tag_158:\n        /* \"#utility.yul\":8017:8042   */\n      swap3\n      pop\n        /* \"#utility.yul\":8176:8177   */\n      dup3\n        /* \"#utility.yul\":8108:8174   */\n      0xffffffffffffffffffffffffffffffffffffffffffffffffffffffffffffffff\n        /* \"#utility.yul\":8104:8178   */\n      sub\n        /* \"#utility.yul\":8101:8102   */\n      dup3\n        /* \"#utility.yul\":8098:8179   */\n      gt\n        /* \"#utility.yul\":8095:8202   */\n      iszero\n      tag_159\n      jumpi\n        /* \"#utility.yul\":8182:8200   */\n      tag_160\n      tag_74\n      jump\t// in\n    tag_160:\n        /* \"#utility.yul\":8095:8202   */\n    tag_159:\n        /* \"#utility.yul\":8226:8227   */\n      dup3\n        /* \"#utility.yul\":8223:8224   */\n      dup3\n        /* \"#utility.yul\":8219:8228   */\n      add\n        /* \"#utility.yul\":8212:8228   */\n      swap1\n      pop\n        /* \"#utility.yul\":7929:8234   */\n      swap3\n      swap2\n      pop\n      pop\n      jump\t// out\n        /* \"#utility.yul\":8240:8420   */\n    tag_75:\n        /* \"#utility.yul\":8288:8365   */\n      0x4e487b7100000000000000000000000000000000000000000000000000000000\n        /* \"#utility.yul\":8285:8286   */\n      0x00\n        /* \"#utility.yul\":8278:8366   */\n      mstore\n        /* \"#utility.yul\":8385:8389   */\n      0x22\n        /* \"#utility.yul\":8382:8383   */\n      0x04\n        /* \"#utility.yul\":8375:8390   */\n      mstore\n        /* \"#utility.yul\":8409:8413   */\n      0x24\n        /* \"#utility.yul\":8406:8407   */\n      0x00\n        /* \"#utility.yul\":8399:8414   */\n      revert\n        /* \"#utility.yul\":8426:8746   */\n    tag_30:\n        /* \"#utility.yul\":8470:8476   */\n      0x00\n        /* \"#utility.yul\":8507:8508   */\n      0x02\n        /* \"#utility.yul\":8501:8505   */\n      dup3\n        /* \"#utility.yul\":8497:8509   */\n      div\n        /* \"#utility.yul\":8487:8509   */\n      swap1\n      pop\n        /* \"#utility.yul\":8554:8555   */\n      0x01\n        /* \"#utility.yul\":8548:8552   */\n      dup3\n        /* \"#utility.yul\":8544:8556   */\n      and\n        /* \"#utility.yul\":8575:8593   */\n      dup1\n        /* \"#utility.yul\":8565:8646   */\n      tag_163\n      jumpi\n        /* \"#utility.yul\":8631:8635   */\n      0x7f\n        /* \"#utility.yul\":8623:8629   */\n      dup3\n        /* \"#utility.yul\":8619:8636   */\n      and\n        /* \"#utility.yul\":8609:8636   */\n      swap2\n      pop\n        /* \"#utility.yul\":8565:8646   */\n    tag_163:\n        /* \"#utility.yul\":8693:8695   */\n      0x20\n        /* \"#utility.yul\":8685:8691   */\n      dup3\n        /* \"#utility.yul\":8682:8696   */\n      lt\n        /* \"#utility.yul\":8662:8680   */\n      dup2\n        /* \"#utility.yul\":8659:8697   */\n      eq\n        /* \"#utility.yul\":8656:8740   */\n      iszero\n      tag_164\n      jumpi\n        /* \"#utility.yul\":8712:8730   */\n      tag_165\n      tag_75\n      jump\t// in\n    tag_165:\n        /* \"#utility.yul\":8656:8740   */\n    tag_164:\n        /* \"#utility.yul\":8477:8746   */\n      pop\n        /* \"#utility.yul\":8426:8746   */\n      swap2\n      swap1\n      pop\n      jump\t// out\n\n    auxdata: 0xa2646970667358221220cfcb3823d01c762e44debfcc46eba10157863278ff422f962b18173f736ee06c64736f6c634300080a0033\n}\n",
				"bytecode": {
					"linkReferences": {},
					"object": "608060405234801561001057600080fd5b50336000806101000a81548173ffffffffffffffffffffffffffffffffffffffff021916908373ffffffffffffffffffffffffffffffffffffffff160217905550600180819055506040518060400160405280600381526020017f5345420000000000000000000000000000000000000000000000000000000000815250600260008060ff16815260200190815260200160002090805190602001906100b792919061017f565b506040518060400160405280600381526020017f424542000000000000000000000000000000000000000000000000000000000081525060026000600160ff168152602001908152602001600020908051906020019061011892919061017f565b506040518060400160405280600381526020017f414942000000000000000000000000000000000000000000000000000000000081525060026000600260ff168152602001908152602001600020908051906020019061017992919061017f565b50610283565b82805461018b90610251565b90600052602060002090601f0160209004810192826101ad57600085556101f4565b82601f106101c657805160ff19168380011785556101f4565b828001600101855582156101f4579182015b828111156101f35782518255916020019190600101906101d8565b5b5090506102019190610205565b5090565b5b8082111561021e576000816000905550600101610206565b5090565b7f4e487b7100000000000000000000000000000000000000000000000000000000600052602260045260246000fd5b6000600282049050600182168061026957607f821691505b6020821081141561027d5761027c610222565b5b50919050565b61093b806102926000396000f3fe608060405234801561001057600080fd5b50600436106100365760003560e01c8063617ae3641461003b578063ccdad14b1461006b575b600080fd5b61005560048036038101906100509190610576565b61009b565b6040516100629190610605565b60405180910390f35b61008560048036038101906100809190610620565b610224565b6040516100929190610780565b60405180910390f35b60003373ffffffffffffffffffffffffffffffffffffffff1660008054906101000a900473ffffffffffffffffffffffffffffffffffffffff1673ffffffffffffffffffffffffffffffffffffffff161461012b576040517f08c379a0000000000000000000000000000000000000000000000000000000008152600401610122906107ff565b60405180910390fd5b6000600360008773ffffffffffffffffffffffffffffffffffffffff1673ffffffffffffffffffffffffffffffffffffffff1681526020019081526020016000209050600081600001541461017f57600080fd5b6001548160000181905550338160010160006101000a81548173ffffffffffffffffffffffffffffffffffffffff021916908373ffffffffffffffffffffffffffffffffffffffff160217905550848160010160146101000a81548160ff021916908360ff16021790555083838260020191906101fd92919061038c565b506001806000828254610210919061084e565b925050819055506001915050949350505050565b61022c610412565b600360008373ffffffffffffffffffffffffffffffffffffffff1673ffffffffffffffffffffffffffffffffffffffff168152602001908152602001600020604051806080016040529081600082015481526020016001820160009054906101000a900473ffffffffffffffffffffffffffffffffffffffff1673ffffffffffffffffffffffffffffffffffffffff1673ffffffffffffffffffffffffffffffffffffffff1681526020016001820160149054906101000a900460ff1660ff1660ff168152602001600282018054610303906108d3565b80601f016020809104026020016040519081016040528092919081815260200182805461032f906108d3565b801561037c5780601f106103515761010080835404028352916020019161037c565b820191906000526020600020905b81548152906001019060200180831161035f57829003601f168201915b5050505050815250509050919050565b828054610398906108d3565b90600052602060002090601f0160209004810192826103ba5760008555610401565b82601f106103d357803560ff1916838001178555610401565b82800160010185558215610401579182015b828111156104005782358255916020019190600101906103e5565b5b50905061040e9190610453565b5090565b604051806080016040528060008152602001600073ffffffffffffffffffffffffffffffffffffffff168152602001600060ff168152602001606081525090565b5b8082111561046c576000816000905550600101610454565b5090565b600080fd5b600080fd5b600073ffffffffffffffffffffffffffffffffffffffff82169050919050565b60006104a58261047a565b9050919050565b6104b58161049a565b81146104c057600080fd5b50565b6000813590506104d2816104ac565b92915050565b600060ff82169050919050565b6104ee816104d8565b81146104f957600080fd5b50565b60008135905061050b816104e5565b92915050565b600080fd5b600080fd5b600080fd5b60008083601f84011261053657610535610511565b5b8235905067ffffffffffffffff81111561055357610552610516565b5b60208301915083600182028301111561056f5761056e61051b565b5b9250929050565b600080600080606085870312156105905761058f610470565b5b600061059e878288016104c3565b94505060206105af878288016104fc565b935050604085013567ffffffffffffffff8111156105d0576105cf610475565b5b6105dc87828801610520565b925092505092959194509250565b60008115159050919050565b6105ff816105ea565b82525050565b600060208201905061061a60008301846105f6565b92915050565b60006020828403121561063657610635610470565b5b6000610644848285016104c3565b91505092915050565b6000819050919050565b6106608161064d565b82525050565b61066f8161049a565b82525050565b61067e816104d8565b82525050565b600081519050919050565b600082825260208201905092915050565b60005b838110156106be5780820151818401526020810190506106a3565b838111156106cd576000848401525b50505050565b6000601f19601f8301169050919050565b60006106ef82610684565b6106f9818561068f565b93506107098185602086016106a0565b610712816106d3565b840191505092915050565b60006080830160008301516107356000860182610657565b5060208301516107486020860182610666565b50604083015161075b6040860182610675565b506060830151848203606086015261077382826106e4565b9150508091505092915050565b6000602082019050818103600083015261079a818461071d565b905092915050565b600082825260208201905092915050565b7f4e6f742049737375657200000000000000000000000000000000000000000000600082015250565b60006107e9600a836107a2565b91506107f4826107b3565b602082019050919050565b60006020820190508181036000830152610818816107dc565b9050919050565b7f4e487b7100000000000000000000000000000000000000000000000000000000600052601160045260246000fd5b60006108598261064d565b91506108648361064d565b9250827fffffffffffffffffffffffffffffffffffffffffffffffffffffffffffffffff038211156108995761089861081f565b5b828201905092915050565b7f4e487b7100000000000000000000000000000000000000000000000000000000600052602260045260246000fd5b600060028204905060018216806108eb57607f821691505b602082108114156108ff576108fe6108a4565b5b5091905056fea2646970667358221220cfcb3823d01c762e44debfcc46eba10157863278ff422f962b18173f736ee06c64736f6c634300080a0033",
					"opcodes": "PUSH1 0x80 PUSH1 0x40 MSTORE CALLVALUE DUP1 ISZERO PUSH2 0x10 JUMPI PUSH1 0x0 DUP1 REVERT JUMPDEST POP CALLER PUSH1 0x0 DUP1 PUSH2 0x100 EXP DUP2 SLOAD DUP2 PUSH20 0xFFFFFFFFFFFFFFFFFFFFFFFFFFFFFFFFFFFFFFFF MUL NOT AND SWAP1 DUP4 PUSH20 0xFFFFFFFFFFFFFFFFFFFFFFFFFFFFFFFFFFFFFFFF AND MUL OR SWAP1 SSTORE POP PUSH1 0x1 DUP1 DUP2 SWAP1 SSTORE POP PUSH1 0x40 MLOAD DUP1 PUSH1 0x40 ADD PUSH1 0x40 MSTORE DUP1 PUSH1 0x3 DUP2 MSTORE PUSH1 0x20 ADD PUSH32 0x5345420000000000000000000000000000000000000000000000000000000000 DUP2 MSTORE POP PUSH1 0x2 PUSH1 0x0 DUP1 PUSH1 0xFF AND DUP2 MSTORE PUSH1 0x20 ADD SWAP1 DUP2 MSTORE PUSH1 0x20 ADD PUSH1 0x0 KECCAK256 SWAP1 DUP1 MLOAD SWAP1 PUSH1 0x20 ADD SWAP1 PUSH2 0xB7 SWAP3 SWAP2 SWAP1 PUSH2 0x17F JUMP JUMPDEST POP PUSH1 0x40 MLOAD DUP1 PUSH1 0x40 ADD PUSH1 0x40 MSTORE DUP1 PUSH1 0x3 DUP2 MSTORE PUSH1 0x20 ADD PUSH32 0x4245420000000000000000000000000000000000000000000000000000000000 DUP2 MSTORE POP PUSH1 0x2 PUSH1 0x0 PUSH1 0x1 PUSH1 0xFF AND DUP2 MSTORE PUSH1 0x20 ADD SWAP1 DUP2 MSTORE PUSH1 0x20 ADD PUSH1 0x0 KECCAK256 SWAP1 DUP1 MLOAD SWAP1 PUSH1 0x20 ADD SWAP1 PUSH2 0x118 SWAP3 SWAP2 SWAP1 PUSH2 0x17F JUMP JUMPDEST POP PUSH1 0x40 MLOAD DUP1 PUSH1 0x40 ADD PUSH1 0x40 MSTORE DUP1 PUSH1 0x3 DUP2 MSTORE PUSH1 0x20 ADD PUSH32 0x4149420000000000000000000000000000000000000000000000000000000000 DUP2 MSTORE POP PUSH1 0x2 PUSH1 0x0 PUSH1 0x2 PUSH1 0xFF AND DUP2 MSTORE PUSH1 0x20 ADD SWAP1 DUP2 MSTORE PUSH1 0x20 ADD PUSH1 0x0 KECCAK256 SWAP1 DUP1 MLOAD SWAP1 PUSH1 0x20 ADD SWAP1 PUSH2 0x179 SWAP3 SWAP2 SWAP1 PUSH2 0x17F JUMP JUMPDEST POP PUSH2 0x283 JUMP JUMPDEST DUP3 DUP1 SLOAD PUSH2 0x18B SWAP1 PUSH2 0x251 JUMP JUMPDEST SWAP1 PUSH1 0x0 MSTORE PUSH1 0x20 PUSH1 0x0 KECCAK256 SWAP1 PUSH1 0x1F ADD PUSH1 0x20 SWAP1 DIV DUP2 ADD SWAP3 DUP3 PUSH2 0x1AD JUMPI PUSH1 0x0 DUP6 SSTORE PUSH2 0x1F4 JUMP JUMPDEST DUP3 PUSH1 0x1F LT PUSH2 0x1C6 JUMPI DUP1 MLOAD PUSH1 0xFF NOT AND DUP4 DUP1 ADD OR DUP6 SSTORE PUSH2 0x1F4 JUMP JUMPDEST DUP3 DUP1 ADD PUSH1 0x1 ADD DUP6 SSTORE DUP3 ISZERO PUSH2 0x1F4 JUMPI SWAP2 DUP3 ADD JUMPDEST DUP3 DUP2 GT ISZERO PUSH2 0x1F3 JUMPI DUP3 MLOAD DUP3 SSTORE SWAP2 PUSH1 0x20 ADD SWAP2 SWAP1 PUSH1 0x1 ADD SWAP1 PUSH2 0x1D8 JUMP JUMPDEST JUMPDEST POP SWAP1 POP PUSH2 0x201 SWAP2 SWAP1 PUSH2 0x205 JUMP JUMPDEST POP SWAP1 JUMP JUMPDEST JUMPDEST DUP1 DUP3 GT ISZERO PUSH2 0x21E JUMPI PUSH1 0x0 DUP2 PUSH1 0x0 SWAP1 SSTORE POP PUSH1 0x1 ADD PUSH2 0x206 JUMP JUMPDEST POP SWAP1 JUMP JUMPDEST PUSH32 0x4E487B7100000000000000000000000000000000000000000000000000000000 PUSH1 0x0 MSTORE PUSH1 0x22 PUSH1 0x4 MSTORE PUSH1 0x24 PUSH1 0x0 REVERT JUMPDEST PUSH1 0x0 PUSH1 0x2 DUP3 DIV SWAP1 POP PUSH1 0x1 DUP3 AND DUP1 PUSH2 0x269 JUMPI PUSH1 0x7F DUP3 AND SWAP2 POP JUMPDEST PUSH1 0x20 DUP3 LT DUP2 EQ ISZERO PUSH2 0x27D JUMPI PUSH2 0x27C PUSH2 0x222 JUMP JUMPDEST JUMPDEST POP SWAP2 SWAP1 POP JUMP JUMPDEST PUSH2 0x93B DUP1 PUSH2 0x292 PUSH1 0x0 CODECOPY PUSH1 0x0 RETURN INVALID PUSH1 0x80 PUSH1 0x40 MSTORE CALLVALUE DUP1 ISZERO PUSH2 0x10 JUMPI PUSH1 0x0 DUP1 REVERT JUMPDEST POP PUSH1 0x4 CALLDATASIZE LT PUSH2 0x36 JUMPI PUSH1 0x0 CALLDATALOAD PUSH1 0xE0 SHR DUP1 PUSH4 0x617AE364 EQ PUSH2 0x3B JUMPI DUP1 PUSH4 0xCCDAD14B EQ PUSH2 0x6B JUMPI JUMPDEST PUSH1 0x0 DUP1 REVERT JUMPDEST PUSH2 0x55 PUSH1 0x4 DUP1 CALLDATASIZE SUB DUP2 ADD SWAP1 PUSH2 0x50 SWAP2 SWAP1 PUSH2 0x576 JUMP JUMPDEST PUSH2 0x9B JUMP JUMPDEST PUSH1 0x40 MLOAD PUSH2 0x62 SWAP2 SWAP1 PUSH2 0x605 JUMP JUMPDEST PUSH1 0x40 MLOAD DUP1 SWAP2 SUB SWAP1 RETURN JUMPDEST PUSH2 0x85 PUSH1 0x4 DUP1 CALLDATASIZE SUB DUP2 ADD SWAP1 PUSH2 0x80 SWAP2 SWAP1 PUSH2 0x620 JUMP JUMPDEST PUSH2 0x224 JUMP JUMPDEST PUSH1 0x40 MLOAD PUSH2 0x92 SWAP2 SWAP1 PUSH2 0x780 JUMP JUMPDEST PUSH1 0x40 MLOAD DUP1 SWAP2 SUB SWAP1 RETURN JUMPDEST PUSH1 0x0 CALLER PUSH20 0xFFFFFFFFFFFFFFFFFFFFFFFFFFFFFFFFFFFFFFFF AND PUSH1 0x0 DUP1 SLOAD SWAP1 PUSH2 0x100 EXP SWAP1 DIV PUSH20 0xFFFFFFFFFFFFFFFFFFFFFFFFFFFFFFFFFFFFFFFF AND PUSH20 0xFFFFFFFFFFFFFFFFFFFFFFFFFFFFFFFFFFFFFFFF AND EQ PUSH2 0x12B JUMPI PUSH1 0x40 MLOAD PUSH32 0x8C379A000000000000000000000000000000000000000000000000000000000 DUP2 MSTORE PUSH1 0x4 ADD PUSH2 0x122 SWAP1 PUSH2 0x7FF JUMP JUMPDEST PUSH1 0x40 MLOAD DUP1 SWAP2 SUB SWAP1 REVERT JUMPDEST PUSH1 0x0 PUSH1 0x3 PUSH1 0x0 DUP8 PUSH20 0xFFFFFFFFFFFFFFFFFFFFFFFFFFFFFFFFFFFFFFFF AND PUSH20 0xFFFFFFFFFFFFFFFFFFFFFFFFFFFFFFFFFFFFFFFF AND DUP2 MSTORE PUSH1 0x20 ADD SWAP1 DUP2 MSTORE PUSH1 0x20 ADD PUSH1 0x0 KECCAK256 SWAP1 POP PUSH1 0x0 DUP2 PUSH1 0x0 ADD SLOAD EQ PUSH2 0x17F JUMPI PUSH1 0x0 DUP1 REVERT JUMPDEST PUSH1 0x1 SLOAD DUP2 PUSH1 0x0 ADD DUP2 SWAP1 SSTORE POP CALLER DUP2 PUSH1 0x1 ADD PUSH1 0x0 PUSH2 0x100 EXP DUP2 SLOAD DUP2 PUSH20 0xFFFFFFFFFFFFFFFFFFFFFFFFFFFFFFFFFFFFFFFF MUL NOT AND SWAP1 DUP4 PUSH20 0xFFFFFFFFFFFFFFFFFFFFFFFFFFFFFFFFFFFFFFFF AND MUL OR SWAP1 SSTORE POP DUP5 DUP2 PUSH1 0x1 ADD PUSH1 0x14 PUSH2 0x100 EXP DUP2 SLOAD DUP2 PUSH1 0xFF MUL NOT AND SWAP1 DUP4 PUSH1 0xFF AND MUL OR SWAP1 SSTORE POP DUP4 DUP4 DUP3 PUSH1 0x2 ADD SWAP2 SWAP1 PUSH2 0x1FD SWAP3 SWAP2 SWAP1 PUSH2 0x38C JUMP JUMPDEST POP PUSH1 0x1 DUP1 PUSH1 0x0 DUP3 DUP3 SLOAD PUSH2 0x210 SWAP2 SWAP1 PUSH2 0x84E JUMP JUMPDEST SWAP3 POP POP DUP2 SWAP1 SSTORE POP PUSH1 0x1 SWAP2 POP POP SWAP5 SWAP4 POP POP POP POP JUMP JUMPDEST PUSH2 0x22C PUSH2 0x412 JUMP JUMPDEST PUSH1 0x3 PUSH1 0x0 DUP4 PUSH20 0xFFFFFFFFFFFFFFFFFFFFFFFFFFFFFFFFFFFFFFFF AND PUSH20 0xFFFFFFFFFFFFFFFFFFFFFFFFFFFFFFFFFFFFFFFF AND DUP2 MSTORE PUSH1 0x20 ADD SWAP1 DUP2 MSTORE PUSH1 0x20 ADD PUSH1 0x0 KECCAK256 PUSH1 0x40 MLOAD DUP1 PUSH1 0x80 ADD PUSH1 0x40 MSTORE SWAP1 DUP2 PUSH1 0x0 DUP3 ADD SLOAD DUP2 MSTORE PUSH1 0x20 ADD PUSH1 0x1 DUP3 ADD PUSH1 0x0 SWAP1 SLOAD SWAP1 PUSH2 0x100 EXP SWAP1 DIV PUSH20 0xFFFFFFFFFFFFFFFFFFFFFFFFFFFFFFFFFFFFFFFF AND PUSH20 0xFFFFFFFFFFFFFFFFFFFFFFFFFFFFFFFFFFFFFFFF AND PUSH20 0xFFFFFFFFFFFFFFFFFFFFFFFFFFFFFFFFFFFFFFFF AND DUP2 MSTORE PUSH1 0x20 ADD PUSH1 0x1 DUP3 ADD PUSH1 0x14 SWAP1 SLOAD SWAP1 PUSH2 0x100 EXP SWAP1 DIV PUSH1 0xFF AND PUSH1 0xFF AND PUSH1 0xFF AND DUP2 MSTORE PUSH1 0x20 ADD PUSH1 0x2 DUP3 ADD DUP1 SLOAD PUSH2 0x303 SWAP1 PUSH2 0x8D3 JUMP JUMPDEST DUP1 PUSH1 0x1F ADD PUSH1 0x20 DUP1 SWAP2 DIV MUL PUSH1 0x20 ADD PUSH1 0x40 MLOAD SWAP1 DUP2 ADD PUSH1 0x40 MSTORE DUP1 SWAP3 SWAP2 SWAP1 DUP2 DUP2 MSTORE PUSH1 0x20 ADD DUP3 DUP1 SLOAD PUSH2 0x32F SWAP1 PUSH2 0x8D3 JUMP JUMPDEST DUP1 ISZERO PUSH2 0x37C JUMPI DUP1 PUSH1 0x1F LT PUSH2 0x351 JUMPI PUSH2 0x100 DUP1 DUP4 SLOAD DIV MUL DUP4 MSTORE SWAP2 PUSH1 0x20 ADD SWAP2 PUSH2 0x37C JUMP JUMPDEST DUP3 ADD SWAP2 SWAP1 PUSH1 0x0 MSTORE PUSH1 0x20 PUSH1 0x0 KECCAK256 SWAP1 JUMPDEST DUP2 SLOAD DUP2 MSTORE SWAP1 PUSH1 0x1 ADD SWAP1 PUSH1 0x20 ADD DUP1 DUP4 GT PUSH2 0x35F JUMPI DUP3 SWAP1 SUB PUSH1 0x1F AND DUP3 ADD SWAP2 JUMPDEST POP POP POP POP POP DUP2 MSTORE POP POP SWAP1 POP SWAP2 SWAP1 POP JUMP JUMPDEST DUP3 DUP1 SLOAD PUSH2 0x398 SWAP1 PUSH2 0x8D3 JUMP JUMPDEST SWAP1 PUSH1 0x0 MSTORE PUSH1 0x20 PUSH1 0x0 KECCAK256 SWAP1 PUSH1 0x1F ADD PUSH1 0x20 SWAP1 DIV DUP2 ADD SWAP3 DUP3 PUSH2 0x3BA JUMPI PUSH1 0x0 DUP6 SSTORE PUSH2 0x401 JUMP JUMPDEST DUP3 PUSH1 0x1F LT PUSH2 0x3D3 JUMPI DUP1 CALLDATALOAD PUSH1 0xFF NOT AND DUP4 DUP1 ADD OR DUP6 SSTORE PUSH2 0x401 JUMP JUMPDEST DUP3 DUP1 ADD PUSH1 0x1 ADD DUP6 SSTORE DUP3 ISZERO PUSH2 0x401 JUMPI SWAP2 DUP3 ADD JUMPDEST DUP3 DUP2 GT ISZERO PUSH2 0x400 JUMPI DUP3 CALLDATALOAD DUP3 SSTORE SWAP2 PUSH1 0x20 ADD SWAP2 SWAP1 PUSH1 0x1 ADD SWAP1 PUSH2 0x3E5 JUMP JUMPDEST JUMPDEST POP SWAP1 POP PUSH2 0x40E SWAP2 SWAP1 PUSH2 0x453 JUMP JUMPDEST POP SWAP1 JUMP JUMPDEST PUSH1 0x40 MLOAD DUP1 PUSH1 0x80 ADD PUSH1 0x40 MSTORE DUP1 PUSH1 0x0 DUP2 MSTORE PUSH1 0x20 ADD PUSH1 0x0 PUSH20 0xFFFFFFFFFFFFFFFFFFFFFFFFFFFFFFFFFFFFFFFF AND DUP2 MSTORE PUSH1 0x20 ADD PUSH1 0x0 PUSH1 0xFF AND DUP2 MSTORE PUSH1 0x20 ADD PUSH1 0x60 DUP2 MSTORE POP SWAP1 JUMP JUMPDEST JUMPDEST DUP1 DUP3 GT ISZERO PUSH2 0x46C JUMPI PUSH1 0x0 DUP2 PUSH1 0x0 SWAP1 SSTORE POP PUSH1 0x1 ADD PUSH2 0x454 JUMP JUMPDEST POP SWAP1 JUMP JUMPDEST PUSH1 0x0 DUP1 REVERT JUMPDEST PUSH1 0x0 DUP1 REVERT JUMPDEST PUSH1 0x0 PUSH20 0xFFFFFFFFFFFFFFFFFFFFFFFFFFFFFFFFFFFFFFFF DUP3 AND SWAP1 POP SWAP2 SWAP1 POP JUMP JUMPDEST PUSH1 0x0 PUSH2 0x4A5 DUP3 PUSH2 0x47A JUMP JUMPDEST SWAP1 POP SWAP2 SWAP1 POP JUMP JUMPDEST PUSH2 0x4B5 DUP2 PUSH2 0x49A JUMP JUMPDEST DUP2 EQ PUSH2 0x4C0 JUMPI PUSH1 0x0 DUP1 REVERT JUMPDEST POP JUMP JUMPDEST PUSH1 0x0 DUP2 CALLDATALOAD SWAP1 POP PUSH2 0x4D2 DUP2 PUSH2 0x4AC JUMP JUMPDEST SWAP3 SWAP2 POP POP JUMP JUMPDEST PUSH1 0x0 PUSH1 0xFF DUP3 AND SWAP1 POP SWAP2 SWAP1 POP JUMP JUMPDEST PUSH2 0x4EE DUP2 PUSH2 0x4D8 JUMP JUMPDEST DUP2 EQ PUSH2 0x4F9 JUMPI PUSH1 0x0 DUP1 REVERT JUMPDEST POP JUMP JUMPDEST PUSH1 0x0 DUP2 CALLDATALOAD SWAP1 POP PUSH2 0x50B DUP2 PUSH2 0x4E5 JUMP JUMPDEST SWAP3 SWAP2 POP POP JUMP JUMPDEST PUSH1 0x0 DUP1 REVERT JUMPDEST PUSH1 0x0 DUP1 REVERT JUMPDEST PUSH1 0x0 DUP1 REVERT JUMPDEST PUSH1 0x0 DUP1 DUP4 PUSH1 0x1F DUP5 ADD SLT PUSH2 0x536 JUMPI PUSH2 0x535 PUSH2 0x511 JUMP JUMPDEST JUMPDEST DUP3 CALLDATALOAD SWAP1 POP PUSH8 0xFFFFFFFFFFFFFFFF DUP2 GT ISZERO PUSH2 0x553 JUMPI PUSH2 0x552 PUSH2 0x516 JUMP JUMPDEST JUMPDEST PUSH1 0x20 DUP4 ADD SWAP2 POP DUP4 PUSH1 0x1 DUP3 MUL DUP4 ADD GT ISZERO PUSH2 0x56F JUMPI PUSH2 0x56E PUSH2 0x51B JUMP JUMPDEST JUMPDEST SWAP3 POP SWAP3 SWAP1 POP JUMP JUMPDEST PUSH1 0x0 DUP1 PUSH1 0x0 DUP1 PUSH1 0x60 DUP6 DUP8 SUB SLT ISZERO PUSH2 0x590 JUMPI PUSH2 0x58F PUSH2 0x470 JUMP JUMPDEST JUMPDEST PUSH1 0x0 PUSH2 0x59E DUP8 DUP3 DUP9 ADD PUSH2 0x4C3 JUMP JUMPDEST SWAP5 POP POP PUSH1 0x20 PUSH2 0x5AF DUP8 DUP3 DUP9 ADD PUSH2 0x4FC JUMP JUMPDEST SWAP4 POP POP PUSH1 0x40 DUP6 ADD CALLDATALOAD PUSH8 0xFFFFFFFFFFFFFFFF DUP2 GT ISZERO PUSH2 0x5D0 JUMPI PUSH2 0x5CF PUSH2 0x475 JUMP JUMPDEST JUMPDEST PUSH2 0x5DC DUP8 DUP3 DUP9 ADD PUSH2 0x520 JUMP JUMPDEST SWAP3 POP SWAP3 POP POP SWAP3 SWAP6 SWAP2 SWAP5 POP SWAP3 POP JUMP JUMPDEST PUSH1 0x0 DUP2 ISZERO ISZERO SWAP1 POP SWAP2 SWAP1 POP JUMP JUMPDEST PUSH2 0x5FF DUP2 PUSH2 0x5EA JUMP JUMPDEST DUP3 MSTORE POP POP JUMP JUMPDEST PUSH1 0x0 PUSH1 0x20 DUP3 ADD SWAP1 POP PUSH2 0x61A PUSH1 0x0 DUP4 ADD DUP5 PUSH2 0x5F6 JUMP JUMPDEST SWAP3 SWAP2 POP POP JUMP JUMPDEST PUSH1 0x0 PUSH1 0x20 DUP3 DUP5 SUB SLT ISZERO PUSH2 0x636 JUMPI PUSH2 0x635 PUSH2 0x470 JUMP JUMPDEST JUMPDEST PUSH1 0x0 PUSH2 0x644 DUP5 DUP3 DUP6 ADD PUSH2 0x4C3 JUMP JUMPDEST SWAP2 POP POP SWAP3 SWAP2 POP POP JUMP JUMPDEST PUSH1 0x0 DUP2 SWAP1 POP SWAP2 SWAP1 POP JUMP JUMPDEST PUSH2 0x660 DUP2 PUSH2 0x64D JUMP JUMPDEST DUP3 MSTORE POP POP JUMP JUMPDEST PUSH2 0x66F DUP2 PUSH2 0x49A JUMP JUMPDEST DUP3 MSTORE POP POP JUMP JUMPDEST PUSH2 0x67E DUP2 PUSH2 0x4D8 JUMP JUMPDEST DUP3 MSTORE POP POP JUMP JUMPDEST PUSH1 0x0 DUP2 MLOAD SWAP1 POP SWAP2 SWAP1 POP JUMP JUMPDEST PUSH1 0x0 DUP3 DUP3 MSTORE PUSH1 0x20 DUP3 ADD SWAP1 POP SWAP3 SWAP2 POP POP JUMP JUMPDEST PUSH1 0x0 JUMPDEST DUP4 DUP2 LT ISZERO PUSH2 0x6BE JUMPI DUP1 DUP3 ADD MLOAD DUP2 DUP5 ADD MSTORE PUSH1 0x20 DUP2 ADD SWAP1 POP PUSH2 0x6A3 JUMP JUMPDEST DUP4 DUP2 GT ISZERO PUSH2 0x6CD JUMPI PUSH1 0x0 DUP5 DUP5 ADD MSTORE JUMPDEST POP POP POP POP JUMP JUMPDEST PUSH1 0x0 PUSH1 0x1F NOT PUSH1 0x1F DUP4 ADD AND SWAP1 POP SWAP2 SWAP1 POP JUMP JUMPDEST PUSH1 0x0 PUSH2 0x6EF DUP3 PUSH2 0x684 JUMP JUMPDEST PUSH2 0x6F9 DUP2 DUP6 PUSH2 0x68F JUMP JUMPDEST SWAP4 POP PUSH2 0x709 DUP2 DUP6 PUSH1 0x20 DUP7 ADD PUSH2 0x6A0 JUMP JUMPDEST PUSH2 0x712 DUP2 PUSH2 0x6D3 JUMP JUMPDEST DUP5 ADD SWAP2 POP POP SWAP3 SWAP2 POP POP JUMP JUMPDEST PUSH1 0x0 PUSH1 0x80 DUP4 ADD PUSH1 0x0 DUP4 ADD MLOAD PUSH2 0x735 PUSH1 0x0 DUP7 ADD DUP3 PUSH2 0x657 JUMP JUMPDEST POP PUSH1 0x20 DUP4 ADD MLOAD PUSH2 0x748 PUSH1 0x20 DUP7 ADD DUP3 PUSH2 0x666 JUMP JUMPDEST POP PUSH1 0x40 DUP4 ADD MLOAD PUSH2 0x75B PUSH1 0x40 DUP7 ADD DUP3 PUSH2 0x675 JUMP JUMPDEST POP PUSH1 0x60 DUP4 ADD MLOAD DUP5 DUP3 SUB PUSH1 0x60 DUP7 ADD MSTORE PUSH2 0x773 DUP3 DUP3 PUSH2 0x6E4 JUMP JUMPDEST SWAP2 POP POP DUP1 SWAP2 POP POP SWAP3 SWAP2 POP POP JUMP JUMPDEST PUSH1 0x0 PUSH1 0x20 DUP3 ADD SWAP1 POP DUP2 DUP2 SUB PUSH1 0x0 DUP4 ADD MSTORE PUSH2 0x79A DUP2 DUP5 PUSH2 0x71D JUMP JUMPDEST SWAP1 POP SWAP3 SWAP2 POP POP JUMP JUMPDEST PUSH1 0x0 DUP3 DUP3 MSTORE PUSH1 0x20 DUP3 ADD SWAP1 POP SWAP3 SWAP2 POP POP JUMP JUMPDEST PUSH32 0x4E6F742049737375657200000000000000000000000000000000000000000000 PUSH1 0x0 DUP3 ADD MSTORE POP JUMP JUMPDEST PUSH1 0x0 PUSH2 0x7E9 PUSH1 0xA DUP4 PUSH2 0x7A2 JUMP JUMPDEST SWAP2 POP PUSH2 0x7F4 DUP3 PUSH2 0x7B3 JUMP JUMPDEST PUSH1 0x20 DUP3 ADD SWAP1 POP SWAP2 SWAP1 POP JUMP JUMPDEST PUSH1 0x0 PUSH1 0x20 DUP3 ADD SWAP1 POP DUP2 DUP2 SUB PUSH1 0x0 DUP4 ADD MSTORE PUSH2 0x818 DUP2 PUSH2 0x7DC JUMP JUMPDEST SWAP1 POP SWAP2 SWAP1 POP JUMP JUMPDEST PUSH32 0x4E487B7100000000000000000000000000000000000000000000000000000000 PUSH1 0x0 MSTORE PUSH1 0x11 PUSH1 0x4 MSTORE PUSH1 0x24 PUSH1 0x0 REVERT JUMPDEST PUSH1 0x0 PUSH2 0x859 DUP3 PUSH2 0x64D JUMP JUMPDEST SWAP2 POP PUSH2 0x864 DUP4 PUSH2 0x64D JUMP JUMPDEST SWAP3 POP DUP3 PUSH32 0xFFFFFFFFFFFFFFFFFFFFFFFFFFFFFFFFFFFFFFFFFFFFFFFFFFFFFFFFFFFFFFFF SUB DUP3 GT ISZERO PUSH2 0x899 JUMPI PUSH2 0x898 PUSH2 0x81F JUMP JUMPDEST JUMPDEST DUP3 DUP3 ADD SWAP1 POP SWAP3 SWAP2 POP POP JUMP JUMPDEST PUSH32 0x4E487B7100000000000000000000000000000000000000000000000000000000 PUSH1 0x0 MSTORE PUSH1 0x22 PUSH1 0x4 MSTORE PUSH1 0x24 PUSH1 0x0 REVERT JUMPDEST PUSH1 0x0 PUSH1 0x2 DUP3 DIV SWAP1 POP PUSH1 0x1 DUP3 AND DUP1 PUSH2 0x8EB JUMPI PUSH1 0x7F DUP3 AND SWAP2 POP JUMPDEST PUSH1 0x20 DUP3 LT DUP2 EQ ISZERO PUSH2 0x8FF JUMPI PUSH2 0x8FE PUSH2 0x8A4 JUMP JUMPDEST JUMPDEST POP SWAP2 SWAP1 POP JUMP INVALID LOG2 PUSH5 0x6970667358 0x22 SLT KECCAK256 0xCF 0xCB CODESIZE 0x23 0xD0 SHR PUSH23 0x2E44DEBFCC46EBA10157863278FF422F962B18173F736E 0xE0 PUSH13 0x64736F6C634300080A00330000 "
				},
				"gasEstimates": {
					"creation": {
						"codeDepositCost": "472600",
						"executionCost": "infinite",
						"totalCost": "infinite"
					},
					"external": {
						"claimCredential(address,uint8,string)": "infinite",
						"getCredential(address)": "infinite"
					}
				},
				"methodIdentifiers": {
					"claimCredential(address,uint8,string)": "617ae364",
					"getCredential(address)": "ccdad14b"
				}
			},
			"storageLayout": {
				"storage": [
					{
						"astId": 3,
						"contract": "smartContract/did/did.sol:CredentialBox",
						"label": "issuerAddress",
						"offset": 0,
						"slot": "0",
						"type": "t_address"
					},
					{
						"astId": 5,
						"contract": "smartContract/did/did.sol:CredentialBox",
						"label": "idCount",
						"offset": 0,
						"slot": "1",
						"type": "t_uint256"
					},
					{
						"astId": 9,
						"contract": "smartContract/did/did.sol:CredentialBox",
						"label": "alumniEnum",
						"offset": 0,
						"slot": "2",
						"type": "t_mapping(t_uint8,t_string_storage)"
					},
					{
						"astId": 23,
						"contract": "smartContract/did/did.sol:CredentialBox",
						"label": "credentials",
						"offset": 0,
						"slot": "3",
						"type": "t_mapping(t_address,t_struct(Credential)18_storage)"
					}
				],
				"types": {
					"t_address": {
						"encoding": "inplace",
						"label": "address",
						"numberOfBytes": "20"
					},
					"t_mapping(t_address,t_struct(Credential)18_storage)": {
						"encoding": "mapping",
						"key": "t_address",
						"label": "mapping(address => struct CredentialBox.Credential)",
						"numberOfBytes": "32",
						"value": "t_struct(Credential)18_storage"
					},
					"t_mapping(t_uint8,t_string_storage)": {
						"encoding": "mapping",
						"key": "t_uint8",
						"label": "mapping(uint8 => string)",
						"numberOfBytes": "32",
						"value": "t_string_storage"
					},
					"t_string_storage": {
						"encoding": "bytes",
						"label": "string",
						"numberOfBytes": "32"
					},
					"t_struct(Credential)18_storage": {
						"encoding": "inplace",
						"label": "struct CredentialBox.Credential",
						"members": [
							{
								"astId": 11,
								"contract": "smartContract/did/did.sol:CredentialBox",
								"label": "id",
								"offset": 0,
								"slot": "0",
								"type": "t_uint256"
							},
							{
								"astId": 13,
								"contract": "smartContract/did/did.sol:CredentialBox",
								"label": "issuer",
								"offset": 0,
								"slot": "1",
								"type": "t_address"
							},
							{
								"astId": 15,
								"contract": "smartContract/did/did.sol:CredentialBox",
								"label": "alumniType",
								"offset": 20,
								"slot": "1",
								"type": "t_uint8"
							},
							{
								"astId": 17,
								"contract": "smartContract/did/did.sol:CredentialBox",
								"label": "value",
								"offset": 0,
								"slot": "2",
								"type": "t_string_storage"
							}
						],
						"numberOfBytes": "96"
					},
					"t_uint256": {
						"encoding": "inplace",
						"label": "uint256",
						"numberOfBytes": "32"
					},
					"t_uint8": {
						"encoding": "inplace",
						"label": "uint8",
						"numberOfBytes": "1"
					}
				}
			},
			"userdoc": {
				"kind": "user",
				"methods": {},
				"version": 1
			}
		}
	}
}