{
	"dynamic_nft/test_yongh/test.sol": {
		"AccuweatherConsumer": {
			"abi": [
				{
					"inputs": [
						{
							"internalType": "address",
							"name": "_link",
							"type": "address"
						},
						{
							"internalType": "address",
							"name": "_oracle",
							"type": "address"
						}
					],
					"stateMutability": "nonpayable",
					"type": "constructor"
				},
				{
					"anonymous": false,
					"inputs": [
						{
							"indexed": true,
							"internalType": "bytes32",
							"name": "id",
							"type": "bytes32"
						}
					],
					"name": "ChainlinkCancelled",
					"type": "event"
				},
				{
					"anonymous": false,
					"inputs": [
						{
							"indexed": true,
							"internalType": "bytes32",
							"name": "id",
							"type": "bytes32"
						}
					],
					"name": "ChainlinkFulfilled",
					"type": "event"
				},
				{
					"anonymous": false,
					"inputs": [
						{
							"indexed": true,
							"internalType": "bytes32",
							"name": "id",
							"type": "bytes32"
						}
					],
					"name": "ChainlinkRequested",
					"type": "event"
				},
				{
					"inputs": [],
					"name": "fee",
					"outputs": [
						{
							"internalType": "uint256",
							"name": "",
							"type": "uint256"
						}
					],
					"stateMutability": "view",
					"type": "function"
				},
				{
					"inputs": [
						{
							"internalType": "bytes32",
							"name": "_requestId",
							"type": "bytes32"
						},
						{
							"internalType": "bytes",
							"name": "_currentConditionsResult",
							"type": "bytes"
						}
					],
					"name": "fulfillCurrentConditions",
					"outputs": [],
					"stateMutability": "nonpayable",
					"type": "function"
				},
				{
					"inputs": [
						{
							"internalType": "bytes32",
							"name": "_requestId",
							"type": "bytes32"
						},
						{
							"internalType": "bool",
							"name": "_locationFound",
							"type": "bool"
						},
						{
							"internalType": "bytes",
							"name": "_locationResult",
							"type": "bytes"
						}
					],
					"name": "fulfillLocation",
					"outputs": [],
					"stateMutability": "nonpayable",
					"type": "function"
				},
				{
					"inputs": [
						{
							"internalType": "bytes32",
							"name": "_requestId",
							"type": "bytes32"
						},
						{
							"internalType": "bool",
							"name": "_locationFound",
							"type": "bool"
						},
						{
							"internalType": "bytes",
							"name": "_locationResult",
							"type": "bytes"
						},
						{
							"internalType": "bytes",
							"name": "_currentConditionsResult",
							"type": "bytes"
						}
					],
					"name": "fulfillLocationCurrentConditions",
					"outputs": [],
					"stateMutability": "nonpayable",
					"type": "function"
				},
				{
					"inputs": [],
					"name": "getOracleAddress",
					"outputs": [
						{
							"internalType": "address",
							"name": "",
							"type": "address"
						}
					],
					"stateMutability": "view",
					"type": "function"
				},
				{
					"inputs": [
						{
							"internalType": "bytes32",
							"name": "_specId",
							"type": "bytes32"
						},
						{
							"internalType": "uint256",
							"name": "_locationKey",
							"type": "uint256"
						},
						{
							"internalType": "string",
							"name": "_units",
							"type": "string"
						}
					],
					"name": "requestCurrentConditions",
					"outputs": [],
					"stateMutability": "nonpayable",
					"type": "function"
				},
				{
					"inputs": [
						{
							"internalType": "bytes32",
							"name": "",
							"type": "bytes32"
						}
					],
					"name": "requestIdCurrentConditionsResult",
					"outputs": [
						{
							"internalType": "uint256",
							"name": "timestamp",
							"type": "uint256"
						},
						{
							"internalType": "uint24",
							"name": "precipitationPast12Hours",
							"type": "uint24"
						},
						{
							"internalType": "uint24",
							"name": "precipitationPast24Hours",
							"type": "uint24"
						},
						{
							"internalType": "uint24",
							"name": "precipitationPastHour",
							"type": "uint24"
						},
						{
							"internalType": "uint24",
							"name": "pressure",
							"type": "uint24"
						},
						{
							"internalType": "int16",
							"name": "temperature",
							"type": "int16"
						},
						{
							"internalType": "uint16",
							"name": "windDirectionDegrees",
							"type": "uint16"
						},
						{
							"internalType": "uint16",
							"name": "windSpeed",
							"type": "uint16"
						},
						{
							"internalType": "uint8",
							"name": "precipitationType",
							"type": "uint8"
						},
						{
							"internalType": "uint8",
							"name": "relativeHumidity",
							"type": "uint8"
						},
						{
							"internalType": "uint8",
							"name": "uvIndex",
							"type": "uint8"
						},
						{
							"internalType": "uint8",
							"name": "weatherIcon",
							"type": "uint8"
						}
					],
					"stateMutability": "view",
					"type": "function"
				},
				{
					"inputs": [
						{
							"internalType": "bytes32",
							"name": "",
							"type": "bytes32"
						}
					],
					"name": "requestIdLocationResult",
					"outputs": [
						{
							"internalType": "uint256",
							"name": "locationKey",
							"type": "uint256"
						},
						{
							"internalType": "string",
							"name": "name",
							"type": "string"
						},
						{
							"internalType": "bytes2",
							"name": "countryCode",
							"type": "bytes2"
						}
					],
					"stateMutability": "view",
					"type": "function"
				},
				{
					"inputs": [
						{
							"internalType": "bytes32",
							"name": "",
							"type": "bytes32"
						}
					],
					"name": "requestIdRequestParams",
					"outputs": [
						{
							"internalType": "uint256",
							"name": "locationKey",
							"type": "uint256"
						},
						{
							"internalType": "string",
							"name": "endpoint",
							"type": "string"
						},
						{
							"internalType": "string",
							"name": "lat",
							"type": "string"
						},
						{
							"internalType": "string",
							"name": "lon",
							"type": "string"
						},
						{
							"internalType": "string",
							"name": "units",
							"type": "string"
						}
					],
					"stateMutability": "view",
					"type": "function"
				},
				{
					"inputs": [
						{
							"internalType": "bytes32",
							"name": "_specId",
							"type": "bytes32"
						},
						{
							"internalType": "string",
							"name": "_lat",
							"type": "string"
						},
						{
							"internalType": "string",
							"name": "_lon",
							"type": "string"
						}
					],
					"name": "requestLocation",
					"outputs": [],
					"stateMutability": "nonpayable",
					"type": "function"
				},
				{
					"inputs": [
						{
							"internalType": "bytes32",
							"name": "_specId",
							"type": "bytes32"
						},
						{
							"internalType": "string",
							"name": "_lat",
							"type": "string"
						},
						{
							"internalType": "string",
							"name": "_lon",
							"type": "string"
						},
						{
							"internalType": "string",
							"name": "_units",
							"type": "string"
						}
					],
					"name": "requestLocationCurrentConditions",
					"outputs": [],
					"stateMutability": "nonpayable",
					"type": "function"
				},
				{
					"inputs": [
						{
							"internalType": "address",
							"name": "_oracle",
							"type": "address"
						}
					],
					"name": "setOracle",
					"outputs": [],
					"stateMutability": "nonpayable",
					"type": "function"
				},
				{
					"inputs": [],
					"name": "withdrawLink",
					"outputs": [],
					"stateMutability": "nonpayable",
					"type": "function"
				}
			],
			"devdoc": {
				"author": "LinkPool.",
				"details": "Uses @chainlink/contracts 0.4.0.",
				"kind": "dev",
				"methods": {
					"constructor": {
						"params": {
							"_link": "the LINK token address.",
							"_oracle": "the Operator.sol contract address."
						}
					},
					"fulfillCurrentConditions(bytes32,bytes)": {
						"params": {
							"_currentConditionsResult": "the current weather conditions (encoded as CurrentConditionsResult).",
							"_requestId": "the request ID for fulfillment."
						}
					},
					"fulfillLocation(bytes32,bool,bytes)": {
						"details": "Only when `_locationFound` is true, both `_locationFound` will contain meaningful data (as bytes). This function body is just an example of usage.",
						"params": {
							"_locationFound": "true if a location was found for the given coordinates, otherwise false.",
							"_locationResult": "the location information (encoded as LocationResult).",
							"_requestId": "the request ID for fulfillment."
						}
					},
					"fulfillLocationCurrentConditions(bytes32,bool,bytes,bytes)": {
						"details": "Only when `_locationFound` is true, both `_locationFound` and `_currentConditionsResult` will contain meaningful data (as bytes). This function body is just an example of usage.",
						"params": {
							"_currentConditionsResult": "the current weather conditions (encoded as CurrentConditionsResult).",
							"_locationFound": "true if a location was found for the given coordinates, otherwise false.",
							"_locationResult": "the location information (encoded as LocationResult).",
							"_requestId": "the request ID for fulfillment."
						}
					},
					"requestCurrentConditions(bytes32,uint256,string)": {
						"params": {
							"_locationKey": "the location ID.",
							"_specId": "the jobID.",
							"_units": "the measurement system (\"metric\" or \"imperial\")."
						}
					},
					"requestLocation(bytes32,string,string)": {
						"params": {
							"_lat": "the latitude (WGS84 standard, from -90 to 90).",
							"_lon": "the longitude (WGS84 standard, from -180 to 180).",
							"_specId": "the jobID."
						}
					},
					"requestLocationCurrentConditions(bytes32,string,string,string)": {
						"params": {
							"_lat": "the latitude (WGS84 standard, from -90 to 90).",
							"_lon": "the longitude (WGS84 standard, from -180 to 180).",
							"_specId": "the jobID.",
							"_units": "the measurement system (\"metric\" or \"imperial\")."
						}
					}
				},
				"title": "A consumer contract for AccuWeather EA 'location-current-conditions' endpoint.",
				"version": 1
			},
			"evm": {
				"assembly": "    /* \"dynamic_nft/test_yongh/test.sol\":2364:10888  contract AccuweatherConsumer is ChainlinkClient {... */\n  mstore(0x40, 0x80)\n    /* \"@chainlink/contracts/src/v0.8/ChainlinkClient.sol\":1291:1292  1 */\n  0x01\n    /* \"@chainlink/contracts/src/v0.8/ChainlinkClient.sol\":1258:1292  uint256 private s_requestCount = 1 */\n  0x04\n  sstore\n    /* \"dynamic_nft/test_yongh/test.sol\":3624:3768  constructor(address _link, address _oracle) {... */\n  callvalue\n  dup1\n  iszero\n  tag_1\n  jumpi\n  0x00\n  dup1\n  revert\ntag_1:\n  pop\n  mload(0x40)\n  sub(codesize, bytecodeSize)\n  dup1\n  bytecodeSize\n  dup4\n  codecopy\n  dup2\n  dup2\n  add\n  0x40\n  mstore\n  dup2\n  add\n  swap1\n  tag_2\n  swap2\n  swap1\n  tag_3\n  jump\t// in\ntag_2:\n    /* \"dynamic_nft/test_yongh/test.sol\":3678:3702  setChainlinkToken(_link) */\n  tag_6\n    /* \"dynamic_nft/test_yongh/test.sol\":3696:3701  _link */\n  dup3\n    /* \"dynamic_nft/test_yongh/test.sol\":3678:3695  setChainlinkToken */\n  shl(0x20, tag_7)\n    /* \"dynamic_nft/test_yongh/test.sol\":3678:3702  setChainlinkToken(_link) */\n  0x20\n  shr\n  jump\t// in\ntag_6:\n    /* \"dynamic_nft/test_yongh/test.sol\":3712:3739  setChainlinkOracle(_oracle) */\n  tag_8\n    /* \"dynamic_nft/test_yongh/test.sol\":3731:3738  _oracle */\n  dup2\n    /* \"dynamic_nft/test_yongh/test.sol\":3712:3730  setChainlinkOracle */\n  shl(0x20, tag_9)\n    /* \"dynamic_nft/test_yongh/test.sol\":3712:3739  setChainlinkOracle(_oracle) */\n  0x20\n  shr\n  jump\t// in\ntag_8:\n    /* \"dynamic_nft/test_yongh/test.sol\":3755:3761  10**18 */\n  0x0de0b6b3a7640000\n    /* \"dynamic_nft/test_yongh/test.sol\":3749:3752  fee */\n  0x09\n    /* \"dynamic_nft/test_yongh/test.sol\":3749:3761  fee = 10**18 */\n  dup2\n  swap1\n  sstore\n  pop\n    /* \"dynamic_nft/test_yongh/test.sol\":3624:3768  constructor(address _link, address _oracle) {... */\n  pop\n  pop\n    /* \"dynamic_nft/test_yongh/test.sol\":2364:10888  contract AccuweatherConsumer is ChainlinkClient {... */\n  jump(tag_10)\n    /* \"@chainlink/contracts/src/v0.8/ChainlinkClient.sol\":8625:8733  function setChainlinkToken(address linkAddress) internal {... */\ntag_7:\n    /* \"@chainlink/contracts/src/v0.8/ChainlinkClient.sol\":8716:8727  linkAddress */\n  dup1\n    /* \"@chainlink/contracts/src/v0.8/ChainlinkClient.sol\":8688:8694  s_link */\n  0x02\n  0x00\n    /* \"@chainlink/contracts/src/v0.8/ChainlinkClient.sol\":8688:8728  s_link = LinkTokenInterface(linkAddress) */\n  0x0100\n  exp\n  dup2\n  sload\n  dup2\n  0xffffffffffffffffffffffffffffffffffffffff\n  mul\n  not\n  and\n  swap1\n  dup4\n  0xffffffffffffffffffffffffffffffffffffffff\n  and\n  mul\n  or\n  swap1\n  sstore\n  pop\n    /* \"@chainlink/contracts/src/v0.8/ChainlinkClient.sol\":8625:8733  function setChainlinkToken(address linkAddress) internal {... */\n  pop\n  jump\t// out\n    /* \"@chainlink/contracts/src/v0.8/ChainlinkClient.sol\":8391:8505  function setChainlinkOracle(address oracleAddress) internal {... */\ntag_9:\n    /* \"@chainlink/contracts/src/v0.8/ChainlinkClient.sol\":8486:8499  oracleAddress */\n  dup1\n    /* \"@chainlink/contracts/src/v0.8/ChainlinkClient.sol\":8457:8465  s_oracle */\n  0x03\n  0x00\n    /* \"@chainlink/contracts/src/v0.8/ChainlinkClient.sol\":8457:8500  s_oracle = OperatorInterface(oracleAddress) */\n  0x0100\n  exp\n  dup2\n  sload\n  dup2\n  0xffffffffffffffffffffffffffffffffffffffff\n  mul\n  not\n  and\n  swap1\n  dup4\n  0xffffffffffffffffffffffffffffffffffffffff\n  and\n  mul\n  or\n  swap1\n  sstore\n  pop\n    /* \"@chainlink/contracts/src/v0.8/ChainlinkClient.sol\":8391:8505  function setChainlinkOracle(address oracleAddress) internal {... */\n  pop\n  jump\t// out\n    /* \"#utility.yul\":88:205   */\ntag_14:\n    /* \"#utility.yul\":197:198   */\n  0x00\n    /* \"#utility.yul\":194:195   */\n  dup1\n    /* \"#utility.yul\":187:199   */\n  revert\n    /* \"#utility.yul\":334:460   */\ntag_16:\n    /* \"#utility.yul\":371:378   */\n  0x00\n    /* \"#utility.yul\":411:453   */\n  0xffffffffffffffffffffffffffffffffffffffff\n    /* \"#utility.yul\":404:409   */\n  dup3\n    /* \"#utility.yul\":400:454   */\n  and\n    /* \"#utility.yul\":389:454   */\n  swap1\n  pop\n    /* \"#utility.yul\":334:460   */\n  swap2\n  swap1\n  pop\n  jump\t// out\n    /* \"#utility.yul\":466:562   */\ntag_17:\n    /* \"#utility.yul\":503:510   */\n  0x00\n    /* \"#utility.yul\":532:556   */\n  tag_26\n    /* \"#utility.yul\":550:555   */\n  dup3\n    /* \"#utility.yul\":532:556   */\n  tag_16\n  jump\t// in\ntag_26:\n    /* \"#utility.yul\":521:556   */\n  swap1\n  pop\n    /* \"#utility.yul\":466:562   */\n  swap2\n  swap1\n  pop\n  jump\t// out\n    /* \"#utility.yul\":568:690   */\ntag_18:\n    /* \"#utility.yul\":641:665   */\n  tag_28\n    /* \"#utility.yul\":659:664   */\n  dup2\n    /* \"#utility.yul\":641:665   */\n  tag_17\n  jump\t// in\ntag_28:\n    /* \"#utility.yul\":634:639   */\n  dup2\n    /* \"#utility.yul\":631:666   */\n  eq\n    /* \"#utility.yul\":621:684   */\n  tag_29\n  jumpi\n    /* \"#utility.yul\":680:681   */\n  0x00\n    /* \"#utility.yul\":677:678   */\n  dup1\n    /* \"#utility.yul\":670:682   */\n  revert\n    /* \"#utility.yul\":621:684   */\ntag_29:\n    /* \"#utility.yul\":568:690   */\n  pop\n  jump\t// out\n    /* \"#utility.yul\":696:839   */\ntag_19:\n    /* \"#utility.yul\":753:758   */\n  0x00\n    /* \"#utility.yul\":784:790   */\n  dup2\n    /* \"#utility.yul\":778:791   */\n  mload\n    /* \"#utility.yul\":769:791   */\n  swap1\n  pop\n    /* \"#utility.yul\":800:833   */\n  tag_31\n    /* \"#utility.yul\":827:832   */\n  dup2\n    /* \"#utility.yul\":800:833   */\n  tag_18\n  jump\t// in\ntag_31:\n    /* \"#utility.yul\":696:839   */\n  swap3\n  swap2\n  pop\n  pop\n  jump\t// out\n    /* \"#utility.yul\":845:1352   */\ntag_3:\n    /* \"#utility.yul\":924:930   */\n  0x00\n    /* \"#utility.yul\":932:938   */\n  dup1\n    /* \"#utility.yul\":981:983   */\n  0x40\n    /* \"#utility.yul\":969:978   */\n  dup4\n    /* \"#utility.yul\":960:967   */\n  dup6\n    /* \"#utility.yul\":956:979   */\n  sub\n    /* \"#utility.yul\":952:984   */\n  slt\n    /* \"#utility.yul\":949:1068   */\n  iszero\n  tag_33\n  jumpi\n    /* \"#utility.yul\":987:1066   */\n  tag_34\n  tag_14\n  jump\t// in\ntag_34:\n    /* \"#utility.yul\":949:1068   */\ntag_33:\n    /* \"#utility.yul\":1107:1108   */\n  0x00\n    /* \"#utility.yul\":1132:1196   */\n  tag_35\n    /* \"#utility.yul\":1188:1195   */\n  dup6\n    /* \"#utility.yul\":1179:1185   */\n  dup3\n    /* \"#utility.yul\":1168:1177   */\n  dup7\n    /* \"#utility.yul\":1164:1186   */\n  add\n    /* \"#utility.yul\":1132:1196   */\n  tag_19\n  jump\t// in\ntag_35:\n    /* \"#utility.yul\":1122:1196   */\n  swap3\n  pop\n    /* \"#utility.yul\":1078:1206   */\n  pop\n    /* \"#utility.yul\":1245:1247   */\n  0x20\n    /* \"#utility.yul\":1271:1335   */\n  tag_36\n    /* \"#utility.yul\":1327:1334   */\n  dup6\n    /* \"#utility.yul\":1318:1324   */\n  dup3\n    /* \"#utility.yul\":1307:1316   */\n  dup7\n    /* \"#utility.yul\":1303:1325   */\n  add\n    /* \"#utility.yul\":1271:1335   */\n  tag_19\n  jump\t// in\ntag_36:\n    /* \"#utility.yul\":1261:1335   */\n  swap2\n  pop\n    /* \"#utility.yul\":1216:1345   */\n  pop\n    /* \"#utility.yul\":845:1352   */\n  swap3\n  pop\n  swap3\n  swap1\n  pop\n  jump\t// out\n    /* \"dynamic_nft/test_yongh/test.sol\":2364:10888  contract AccuweatherConsumer is ChainlinkClient {... */\ntag_10:\n  dataSize(sub_0)\n  dup1\n  dataOffset(sub_0)\n  0x00\n  codecopy\n  0x00\n  return\nstop\n\nsub_0: assembly {\n        /* \"dynamic_nft/test_yongh/test.sol\":2364:10888  contract AccuweatherConsumer is ChainlinkClient {... */\n      mstore(0x40, 0x80)\n      callvalue\n      dup1\n      iszero\n      tag_1\n      jumpi\n      0x00\n      dup1\n      revert\n    tag_1:\n      pop\n      jumpi(tag_2, lt(calldatasize, 0x04))\n      shr(0xe0, calldataload(0x00))\n      dup1\n      0x9e1e86c0\n      gt\n      tag_16\n      jumpi\n      dup1\n      0xddca3f43\n      gt\n      tag_17\n      jumpi\n      dup1\n      0xddca3f43\n      eq\n      tag_12\n      jumpi\n      dup1\n      0xdffe2894\n      eq\n      tag_13\n      jumpi\n      dup1\n      0xe13caa63\n      eq\n      tag_14\n      jumpi\n      dup1\n      0xed6a7175\n      eq\n      tag_15\n      jumpi\n      jump(tag_2)\n    tag_17:\n      dup1\n      0x9e1e86c0\n      eq\n      tag_9\n      jumpi\n      dup1\n      0xb18b78dd\n      eq\n      tag_10\n      jumpi\n      dup1\n      0xb69293e3\n      eq\n      tag_11\n      jumpi\n      jump(tag_2)\n    tag_16:\n      dup1\n      0x022f2b87\n      eq\n      tag_3\n      jumpi\n      dup1\n      0x371eaced\n      eq\n      tag_4\n      jumpi\n      dup1\n      0x37b95e86\n      eq\n      tag_5\n      jumpi\n      dup1\n      0x7adbf973\n      eq\n      tag_6\n      jumpi\n      dup1\n      0x8dc654a2\n      eq\n      tag_7\n      jumpi\n      dup1\n      0x9c2b98fb\n      eq\n      tag_8\n      jumpi\n    tag_2:\n      0x00\n      dup1\n      revert\n        /* \"dynamic_nft/test_yongh/test.sol\":4091:4685  function requestLocation(... */\n    tag_3:\n      tag_18\n      0x04\n      dup1\n      calldatasize\n      sub\n      dup2\n      add\n      swap1\n      tag_19\n      swap2\n      swap1\n      tag_20\n      jump\t// in\n    tag_19:\n      tag_21\n      jump\t// in\n    tag_18:\n      stop\n        /* \"dynamic_nft/test_yongh/test.sol\":8855:9280  function fulfillLocationCurrentConditions(... */\n    tag_4:\n      tag_22\n      0x04\n      dup1\n      calldatasize\n      sub\n      dup2\n      add\n      swap1\n      tag_23\n      swap2\n      swap1\n      tag_24\n      jump\t// in\n    tag_23:\n      tag_25\n      jump\t// in\n    tag_22:\n      stop\n        /* \"dynamic_nft/test_yongh/test.sol\":3211:3294  mapping(bytes32 => CurrentConditionsResult) public requestIdCurrentConditionsResult */\n    tag_5:\n      tag_26\n      0x04\n      dup1\n      calldatasize\n      sub\n      dup2\n      add\n      swap1\n      tag_27\n      swap2\n      swap1\n      tag_28\n      jump\t// in\n    tag_27:\n      tag_29\n      jump\t// in\n    tag_26:\n      mload(0x40)\n      tag_30\n      swap13\n      swap12\n      swap11\n      swap10\n      swap9\n      swap8\n      swap7\n      swap6\n      swap5\n      swap4\n      swap3\n      swap2\n      swap1\n      tag_31\n      jump\t// in\n    tag_30:\n      mload(0x40)\n      dup1\n      swap2\n      sub\n      swap1\n      return\n        /* \"dynamic_nft/test_yongh/test.sol\":10563:10652  function setOracle(address _oracle) external {... */\n    tag_6:\n      tag_32\n      0x04\n      dup1\n      calldatasize\n      sub\n      dup2\n      add\n      swap1\n      tag_33\n      swap2\n      swap1\n      tag_34\n      jump\t// in\n    tag_33:\n      tag_35\n      jump\t// in\n    tag_32:\n      stop\n        /* \"dynamic_nft/test_yongh/test.sol\":10657:10886  function withdrawLink() public {... */\n    tag_7:\n      tag_36\n      tag_37\n      jump\t// in\n    tag_36:\n      stop\n        /* \"dynamic_nft/test_yongh/test.sol\":3300:3365  mapping(bytes32 => LocationResult) public requestIdLocationResult */\n    tag_8:\n      tag_38\n      0x04\n      dup1\n      calldatasize\n      sub\n      dup2\n      add\n      swap1\n      tag_39\n      swap2\n      swap1\n      tag_28\n      jump\t// in\n    tag_39:\n      tag_40\n      jump\t// in\n    tag_38:\n      mload(0x40)\n      tag_41\n      swap4\n      swap3\n      swap2\n      swap1\n      tag_42\n      jump\t// in\n    tag_41:\n      mload(0x40)\n      dup1\n      swap2\n      sub\n      swap1\n      return\n        /* \"dynamic_nft/test_yongh/test.sol\":6049:6839  function requestLocationCurrentConditions(... */\n    tag_9:\n      tag_43\n      0x04\n      dup1\n      calldatasize\n      sub\n      dup2\n      add\n      swap1\n      tag_44\n      swap2\n      swap1\n      tag_45\n      jump\t// in\n    tag_44:\n      tag_46\n      jump\t// in\n    tag_43:\n      stop\n        /* \"dynamic_nft/test_yongh/test.sol\":10450:10558  function getOracleAddress() external view returns (address) {... */\n    tag_10:\n      tag_47\n      tag_48\n      jump\t// in\n    tag_47:\n      mload(0x40)\n      tag_49\n      swap2\n      swap1\n      tag_50\n      jump\t// in\n    tag_49:\n      mload(0x40)\n      dup1\n      swap2\n      sub\n      swap1\n      return\n        /* \"dynamic_nft/test_yongh/test.sol\":4928:5645  function requestCurrentConditions(... */\n    tag_11:\n      tag_51\n      0x04\n      dup1\n      calldatasize\n      sub\n      dup2\n      add\n      swap1\n      tag_52\n      swap2\n      swap1\n      tag_53\n      jump\t// in\n    tag_52:\n      tag_54\n      jump\t// in\n    tag_51:\n      stop\n        /* \"dynamic_nft/test_yongh/test.sol\":3441:3456  uint public fee */\n    tag_12:\n      tag_55\n      tag_56\n      jump\t// in\n    tag_55:\n      mload(0x40)\n      tag_57\n      swap2\n      swap1\n      tag_58\n      jump\t// in\n    tag_57:\n      mload(0x40)\n      dup1\n      swap2\n      sub\n      swap1\n      return\n        /* \"dynamic_nft/test_yongh/test.sol\":7411:7692  function fulfillLocation(... */\n    tag_13:\n      tag_59\n      0x04\n      dup1\n      calldatasize\n      sub\n      dup2\n      add\n      swap1\n      tag_60\n      swap2\n      swap1\n      tag_61\n      jump\t// in\n    tag_60:\n      tag_62\n      jump\t// in\n    tag_59:\n      stop\n        /* \"dynamic_nft/test_yongh/test.sol\":7961:8203  function fulfillCurrentConditions(bytes32 _requestId, bytes memory _currentConditionsResult)... */\n    tag_14:\n      tag_63\n      0x04\n      dup1\n      calldatasize\n      sub\n      dup2\n      add\n      swap1\n      tag_64\n      swap2\n      swap1\n      tag_65\n      jump\t// in\n    tag_64:\n      tag_66\n      jump\t// in\n    tag_63:\n      stop\n        /* \"dynamic_nft/test_yongh/test.sol\":3371:3434  mapping(bytes32 => RequestParams) public requestIdRequestParams */\n    tag_15:\n      tag_67\n      0x04\n      dup1\n      calldatasize\n      sub\n      dup2\n      add\n      swap1\n      tag_68\n      swap2\n      swap1\n      tag_28\n      jump\t// in\n    tag_68:\n      tag_69\n      jump\t// in\n    tag_67:\n      mload(0x40)\n      tag_70\n      swap6\n      swap5\n      swap4\n      swap3\n      swap2\n      swap1\n      tag_71\n      jump\t// in\n    tag_70:\n      mload(0x40)\n      dup1\n      swap2\n      sub\n      swap1\n      return\n        /* \"dynamic_nft/test_yongh/test.sol\":4091:4685  function requestLocation(... */\n    tag_21:\n        /* \"dynamic_nft/test_yongh/test.sol\":4224:4252  Chainlink.Request memory req */\n      0x00\n        /* \"dynamic_nft/test_yongh/test.sol\":4255:4331  buildChainlinkRequest(_specId, address(this), this.fulfillLocation.selector) */\n      tag_73\n        /* \"dynamic_nft/test_yongh/test.sol\":4277:4284  _specId */\n      dup7\n        /* \"dynamic_nft/test_yongh/test.sol\":4294:4298  this */\n      address\n        /* \"dynamic_nft/test_yongh/test.sol\":4301:4330  this.fulfillLocation.selector */\n      shl(0xe0, 0xdffe2894)\n        /* \"dynamic_nft/test_yongh/test.sol\":4255:4276  buildChainlinkRequest */\n      tag_74\n        /* \"dynamic_nft/test_yongh/test.sol\":4255:4331  buildChainlinkRequest(_specId, address(this), this.fulfillLocation.selector) */\n      jump\t// in\n    tag_73:\n        /* \"dynamic_nft/test_yongh/test.sol\":4224:4331  Chainlink.Request memory req = buildChainlinkRequest(_specId, address(this), this.fulfillLocation.selector) */\n      swap1\n      pop\n        /* \"dynamic_nft/test_yongh/test.sol\":4341:4372  req.add(\"endpoint\", \"location\") */\n      tag_75\n      mload(0x40)\n      dup1\n      0x40\n      add\n      0x40\n      mstore\n      dup1\n      0x08\n      dup2\n      mstore\n      0x20\n      add\n      0x656e64706f696e74000000000000000000000000000000000000000000000000\n      dup2\n      mstore\n      pop\n      mload(0x40)\n      dup1\n      0x40\n      add\n      0x40\n      mstore\n      dup1\n      0x08\n      dup2\n      mstore\n      0x20\n      add\n      0x6c6f636174696f6e000000000000000000000000000000000000000000000000\n      dup2\n      mstore\n      pop\n        /* \"dynamic_nft/test_yongh/test.sol\":4341:4344  req */\n      dup4\n        /* \"dynamic_nft/test_yongh/test.sol\":4341:4348  req.add */\n      tag_76\n      swap1\n        /* \"dynamic_nft/test_yongh/test.sol\":4341:4372  req.add(\"endpoint\", \"location\") */\n      swap3\n      swap2\n      swap1\n      0xffffffff\n      and\n      jump\t// in\n    tag_75:\n        /* \"dynamic_nft/test_yongh/test.sol\":4443:4463  req.add(\"lat\", _lat) */\n      tag_77\n      mload(0x40)\n      dup1\n      0x40\n      add\n      0x40\n      mstore\n      dup1\n      0x03\n      dup2\n      mstore\n      0x20\n      add\n      0x6c61740000000000000000000000000000000000000000000000000000000000\n      dup2\n      mstore\n      pop\n        /* \"dynamic_nft/test_yongh/test.sol\":4458:4462  _lat */\n      dup7\n      dup7\n        /* \"dynamic_nft/test_yongh/test.sol\":4443:4463  req.add(\"lat\", _lat) */\n      dup1\n      dup1\n      0x1f\n      add\n      0x20\n      dup1\n      swap2\n      div\n      mul\n      0x20\n      add\n      mload(0x40)\n      swap1\n      dup2\n      add\n      0x40\n      mstore\n      dup1\n      swap4\n      swap3\n      swap2\n      swap1\n      dup2\n      dup2\n      mstore\n      0x20\n      add\n      dup4\n      dup4\n      dup1\n      dup3\n      dup5\n      calldatacopy\n      0x00\n      dup2\n      dup5\n      add\n      mstore\n      not(0x1f)\n      0x1f\n      dup3\n      add\n      and\n      swap1\n      pop\n      dup1\n      dup4\n      add\n      swap3\n      pop\n      pop\n      pop\n      pop\n      pop\n      pop\n      pop\n        /* \"dynamic_nft/test_yongh/test.sol\":4443:4446  req */\n      dup4\n        /* \"dynamic_nft/test_yongh/test.sol\":4443:4450  req.add */\n      tag_76\n      swap1\n        /* \"dynamic_nft/test_yongh/test.sol\":4443:4463  req.add(\"lat\", _lat) */\n      swap3\n      swap2\n      swap1\n      0xffffffff\n      and\n      jump\t// in\n    tag_77:\n        /* \"dynamic_nft/test_yongh/test.sol\":4473:4493  req.add(\"lon\", _lon) */\n      tag_78\n      mload(0x40)\n      dup1\n      0x40\n      add\n      0x40\n      mstore\n      dup1\n      0x03\n      dup2\n      mstore\n      0x20\n      add\n      0x6c6f6e0000000000000000000000000000000000000000000000000000000000\n      dup2\n      mstore\n      pop\n        /* \"dynamic_nft/test_yongh/test.sol\":4488:4492  _lon */\n      dup5\n      dup5\n        /* \"dynamic_nft/test_yongh/test.sol\":4473:4493  req.add(\"lon\", _lon) */\n      dup1\n      dup1\n      0x1f\n      add\n      0x20\n      dup1\n      swap2\n      div\n      mul\n      0x20\n      add\n      mload(0x40)\n      swap1\n      dup2\n      add\n      0x40\n      mstore\n      dup1\n      swap4\n      swap3\n      swap2\n      swap1\n      dup2\n      dup2\n      mstore\n      0x20\n      add\n      dup4\n      dup4\n      dup1\n      dup3\n      dup5\n      calldatacopy\n      0x00\n      dup2\n      dup5\n      add\n      mstore\n      not(0x1f)\n      0x1f\n      dup3\n      add\n      and\n      swap1\n      pop\n      dup1\n      dup4\n      add\n      swap3\n      pop\n      pop\n      pop\n      pop\n      pop\n      pop\n      pop\n        /* \"dynamic_nft/test_yongh/test.sol\":4473:4476  req */\n      dup4\n        /* \"dynamic_nft/test_yongh/test.sol\":4473:4480  req.add */\n      tag_76\n      swap1\n        /* \"dynamic_nft/test_yongh/test.sol\":4473:4493  req.add(\"lon\", _lon) */\n      swap3\n      swap2\n      swap1\n      0xffffffff\n      and\n      jump\t// in\n    tag_78:\n        /* \"dynamic_nft/test_yongh/test.sol\":4503:4520  bytes32 requestId */\n      0x00\n        /* \"dynamic_nft/test_yongh/test.sol\":4523:4553  sendChainlinkRequest(req, fee) */\n      tag_79\n        /* \"dynamic_nft/test_yongh/test.sol\":4544:4547  req */\n      dup3\n        /* \"dynamic_nft/test_yongh/test.sol\":4549:4552  fee */\n      sload(0x09)\n        /* \"dynamic_nft/test_yongh/test.sol\":4523:4543  sendChainlinkRequest */\n      tag_80\n        /* \"dynamic_nft/test_yongh/test.sol\":4523:4553  sendChainlinkRequest(req, fee) */\n      jump\t// in\n    tag_79:\n        /* \"dynamic_nft/test_yongh/test.sol\":4503:4553  bytes32 requestId = sendChainlinkRequest(req, fee) */\n      swap1\n      pop\n        /* \"dynamic_nft/test_yongh/test.sol\":4618:4678  storeRequestParams(requestId, 0, \"location\", _lat, _lon, \"\") */\n      tag_81\n        /* \"dynamic_nft/test_yongh/test.sol\":4637:4646  requestId */\n      dup2\n        /* \"dynamic_nft/test_yongh/test.sol\":4648:4649  0 */\n      0x00\n        /* \"dynamic_nft/test_yongh/test.sol\":4618:4678  storeRequestParams(requestId, 0, \"location\", _lat, _lon, \"\") */\n      mload(0x40)\n      dup1\n      0x40\n      add\n      0x40\n      mstore\n      dup1\n      0x08\n      dup2\n      mstore\n      0x20\n      add\n      0x6c6f636174696f6e000000000000000000000000000000000000000000000000\n      dup2\n      mstore\n      pop\n        /* \"dynamic_nft/test_yongh/test.sol\":4663:4667  _lat */\n      dup10\n      dup10\n        /* \"dynamic_nft/test_yongh/test.sol\":4618:4678  storeRequestParams(requestId, 0, \"location\", _lat, _lon, \"\") */\n      dup1\n      dup1\n      0x1f\n      add\n      0x20\n      dup1\n      swap2\n      div\n      mul\n      0x20\n      add\n      mload(0x40)\n      swap1\n      dup2\n      add\n      0x40\n      mstore\n      dup1\n      swap4\n      swap3\n      swap2\n      swap1\n      dup2\n      dup2\n      mstore\n      0x20\n      add\n      dup4\n      dup4\n      dup1\n      dup3\n      dup5\n      calldatacopy\n      0x00\n      dup2\n      dup5\n      add\n      mstore\n      not(0x1f)\n      0x1f\n      dup3\n      add\n      and\n      swap1\n      pop\n      dup1\n      dup4\n      add\n      swap3\n      pop\n      pop\n      pop\n      pop\n      pop\n      pop\n      pop\n        /* \"dynamic_nft/test_yongh/test.sol\":4669:4673  _lon */\n      dup9\n      dup9\n        /* \"dynamic_nft/test_yongh/test.sol\":4618:4678  storeRequestParams(requestId, 0, \"location\", _lat, _lon, \"\") */\n      dup1\n      dup1\n      0x1f\n      add\n      0x20\n      dup1\n      swap2\n      div\n      mul\n      0x20\n      add\n      mload(0x40)\n      swap1\n      dup2\n      add\n      0x40\n      mstore\n      dup1\n      swap4\n      swap3\n      swap2\n      swap1\n      dup2\n      dup2\n      mstore\n      0x20\n      add\n      dup4\n      dup4\n      dup1\n      dup3\n      dup5\n      calldatacopy\n      0x00\n      dup2\n      dup5\n      add\n      mstore\n      not(0x1f)\n      0x1f\n      dup3\n      add\n      and\n      swap1\n      pop\n      dup1\n      dup4\n      add\n      swap3\n      pop\n      pop\n      pop\n      pop\n      pop\n      pop\n      pop\n      mload(0x40)\n      dup1\n      0x20\n      add\n      0x40\n      mstore\n      dup1\n      0x00\n      dup2\n      mstore\n      pop\n        /* \"dynamic_nft/test_yongh/test.sol\":4618:4636  storeRequestParams */\n      tag_82\n        /* \"dynamic_nft/test_yongh/test.sol\":4618:4678  storeRequestParams(requestId, 0, \"location\", _lat, _lon, \"\") */\n      jump\t// in\n    tag_81:\n        /* \"dynamic_nft/test_yongh/test.sol\":4214:4685  {... */\n      pop\n      pop\n        /* \"dynamic_nft/test_yongh/test.sol\":4091:4685  function requestLocation(... */\n      pop\n      pop\n      pop\n      pop\n      pop\n      jump\t// out\n        /* \"dynamic_nft/test_yongh/test.sol\":8855:9280  function fulfillLocationCurrentConditions(... */\n    tag_25:\n        /* \"dynamic_nft/test_yongh/test.sol\":9079:9089  _requestId */\n      dup4\n        /* \"@chainlink/contracts/src/v0.8/ChainlinkClient.sol\":11663:11680  s_pendingRequests */\n      0x05\n        /* \"@chainlink/contracts/src/v0.8/ChainlinkClient.sol\":11663:11691  s_pendingRequests[requestId] */\n      0x00\n        /* \"@chainlink/contracts/src/v0.8/ChainlinkClient.sol\":11681:11690  requestId */\n      dup3\n        /* \"@chainlink/contracts/src/v0.8/ChainlinkClient.sol\":11663:11691  s_pendingRequests[requestId] */\n      dup2\n      mstore\n      0x20\n      add\n      swap1\n      dup2\n      mstore\n      0x20\n      add\n      0x00\n      keccak256\n      0x00\n      swap1\n      sload\n      swap1\n      0x0100\n      exp\n      swap1\n      div\n      0xffffffffffffffffffffffffffffffffffffffff\n      and\n        /* \"@chainlink/contracts/src/v0.8/ChainlinkClient.sol\":11649:11691  msg.sender == s_pendingRequests[requestId] */\n      0xffffffffffffffffffffffffffffffffffffffff\n      and\n        /* \"@chainlink/contracts/src/v0.8/ChainlinkClient.sol\":11649:11659  msg.sender */\n      caller\n        /* \"@chainlink/contracts/src/v0.8/ChainlinkClient.sol\":11649:11691  msg.sender == s_pendingRequests[requestId] */\n      0xffffffffffffffffffffffffffffffffffffffff\n      and\n      eq\n        /* \"@chainlink/contracts/src/v0.8/ChainlinkClient.sol\":11641:11736  require(msg.sender == s_pendingRequests[requestId], \"Source must be the oracle of the request\") */\n      tag_84\n      jumpi\n      mload(0x40)\n      0x08c379a000000000000000000000000000000000000000000000000000000000\n      dup2\n      mstore\n      0x04\n      add\n      tag_85\n      swap1\n      tag_86\n      jump\t// in\n    tag_85:\n      mload(0x40)\n      dup1\n      swap2\n      sub\n      swap1\n      revert\n    tag_84:\n        /* \"@chainlink/contracts/src/v0.8/ChainlinkClient.sol\":11749:11766  s_pendingRequests */\n      0x05\n        /* \"@chainlink/contracts/src/v0.8/ChainlinkClient.sol\":11749:11777  s_pendingRequests[requestId] */\n      0x00\n        /* \"@chainlink/contracts/src/v0.8/ChainlinkClient.sol\":11767:11776  requestId */\n      dup3\n        /* \"@chainlink/contracts/src/v0.8/ChainlinkClient.sol\":11749:11777  s_pendingRequests[requestId] */\n      dup2\n      mstore\n      0x20\n      add\n      swap1\n      dup2\n      mstore\n      0x20\n      add\n      0x00\n      keccak256\n      0x00\n        /* \"@chainlink/contracts/src/v0.8/ChainlinkClient.sol\":11742:11777  delete s_pendingRequests[requestId] */\n      0x0100\n      exp\n      dup2\n      sload\n      swap1\n      0xffffffffffffffffffffffffffffffffffffffff\n      mul\n      not\n      and\n      swap1\n      sstore\n        /* \"@chainlink/contracts/src/v0.8/ChainlinkClient.sol\":11807:11816  requestId */\n      dup1\n        /* \"@chainlink/contracts/src/v0.8/ChainlinkClient.sol\":11788:11817  ChainlinkFulfilled(requestId) */\n      0x7cc135e0cebb02c3480ae5d74d377283180a2601f8f644edf7987b009316c63a\n      mload(0x40)\n      mload(0x40)\n      dup1\n      swap2\n      sub\n      swap1\n      log2\n        /* \"dynamic_nft/test_yongh/test.sol\":9105:9119  _locationFound */\n      dup4\n        /* \"dynamic_nft/test_yongh/test.sol\":9101:9274  if (_locationFound) {... */\n      iszero\n      tag_88\n      jumpi\n        /* \"dynamic_nft/test_yongh/test.sol\":9135:9183  storeLocationResult(_requestId, _locationResult) */\n      tag_89\n        /* \"dynamic_nft/test_yongh/test.sol\":9155:9165  _requestId */\n      dup6\n        /* \"dynamic_nft/test_yongh/test.sol\":9167:9182  _locationResult */\n      dup5\n        /* \"dynamic_nft/test_yongh/test.sol\":9135:9154  storeLocationResult */\n      tag_90\n        /* \"dynamic_nft/test_yongh/test.sol\":9135:9183  storeLocationResult(_requestId, _locationResult) */\n      jump\t// in\n    tag_89:\n        /* \"dynamic_nft/test_yongh/test.sol\":9197:9263  storeCurrentConditionsResult(_requestId, _currentConditionsResult) */\n      tag_91\n        /* \"dynamic_nft/test_yongh/test.sol\":9226:9236  _requestId */\n      dup6\n        /* \"dynamic_nft/test_yongh/test.sol\":9238:9262  _currentConditionsResult */\n      dup4\n        /* \"dynamic_nft/test_yongh/test.sol\":9197:9225  storeCurrentConditionsResult */\n      tag_92\n        /* \"dynamic_nft/test_yongh/test.sol\":9197:9263  storeCurrentConditionsResult(_requestId, _currentConditionsResult) */\n      jump\t// in\n    tag_91:\n        /* \"dynamic_nft/test_yongh/test.sol\":9101:9274  if (_locationFound) {... */\n    tag_88:\n        /* \"dynamic_nft/test_yongh/test.sol\":8855:9280  function fulfillLocationCurrentConditions(... */\n      pop\n      pop\n      pop\n      pop\n      pop\n      jump\t// out\n        /* \"dynamic_nft/test_yongh/test.sol\":3211:3294  mapping(bytes32 => CurrentConditionsResult) public requestIdCurrentConditionsResult */\n    tag_29:\n      mstore(0x20, 0x06)\n      dup1\n      0x00\n      mstore\n      keccak256(0x00, 0x40)\n      0x00\n      swap2\n      pop\n      swap1\n      pop\n      dup1\n      0x00\n      add\n      sload\n      swap1\n      dup1\n      0x01\n      add\n      0x00\n      swap1\n      sload\n      swap1\n      0x0100\n      exp\n      swap1\n      div\n      0xffffff\n      and\n      swap1\n      dup1\n      0x01\n      add\n      0x03\n      swap1\n      sload\n      swap1\n      0x0100\n      exp\n      swap1\n      div\n      0xffffff\n      and\n      swap1\n      dup1\n      0x01\n      add\n      0x06\n      swap1\n      sload\n      swap1\n      0x0100\n      exp\n      swap1\n      div\n      0xffffff\n      and\n      swap1\n      dup1\n      0x01\n      add\n      0x09\n      swap1\n      sload\n      swap1\n      0x0100\n      exp\n      swap1\n      div\n      0xffffff\n      and\n      swap1\n      dup1\n      0x01\n      add\n      0x0c\n      swap1\n      sload\n      swap1\n      0x0100\n      exp\n      swap1\n      div\n      0x01\n      signextend\n      swap1\n      dup1\n      0x01\n      add\n      0x0e\n      swap1\n      sload\n      swap1\n      0x0100\n      exp\n      swap1\n      div\n      0xffff\n      and\n      swap1\n      dup1\n      0x01\n      add\n      0x10\n      swap1\n      sload\n      swap1\n      0x0100\n      exp\n      swap1\n      div\n      0xffff\n      and\n      swap1\n      dup1\n      0x01\n      add\n      0x12\n      swap1\n      sload\n      swap1\n      0x0100\n      exp\n      swap1\n      div\n      0xff\n      and\n      swap1\n      dup1\n      0x01\n      add\n      0x13\n      swap1\n      sload\n      swap1\n      0x0100\n      exp\n      swap1\n      div\n      0xff\n      and\n      swap1\n      dup1\n      0x01\n      add\n      0x14\n      swap1\n      sload\n      swap1\n      0x0100\n      exp\n      swap1\n      div\n      0xff\n      and\n      swap1\n      dup1\n      0x01\n      add\n      0x15\n      swap1\n      sload\n      swap1\n      0x0100\n      exp\n      swap1\n      div\n      0xff\n      and\n      swap1\n      pop\n      dup13\n      jump\t// out\n        /* \"dynamic_nft/test_yongh/test.sol\":10563:10652  function setOracle(address _oracle) external {... */\n    tag_35:\n        /* \"dynamic_nft/test_yongh/test.sol\":10618:10645  setChainlinkOracle(_oracle) */\n      tag_94\n        /* \"dynamic_nft/test_yongh/test.sol\":10637:10644  _oracle */\n      dup2\n        /* \"dynamic_nft/test_yongh/test.sol\":10618:10636  setChainlinkOracle */\n      tag_95\n        /* \"dynamic_nft/test_yongh/test.sol\":10618:10645  setChainlinkOracle(_oracle) */\n      jump\t// in\n    tag_94:\n        /* \"dynamic_nft/test_yongh/test.sol\":10563:10652  function setOracle(address _oracle) external {... */\n      pop\n      jump\t// out\n        /* \"dynamic_nft/test_yongh/test.sol\":10657:10886  function withdrawLink() public {... */\n    tag_37:\n        /* \"dynamic_nft/test_yongh/test.sol\":10698:10726  LinkTokenInterface linkToken */\n      0x00\n        /* \"dynamic_nft/test_yongh/test.sol\":10748:10771  chainlinkTokenAddress() */\n      tag_97\n        /* \"dynamic_nft/test_yongh/test.sol\":10748:10769  chainlinkTokenAddress */\n      tag_98\n        /* \"dynamic_nft/test_yongh/test.sol\":10748:10771  chainlinkTokenAddress() */\n      jump\t// in\n    tag_97:\n        /* \"dynamic_nft/test_yongh/test.sol\":10698:10772  LinkTokenInterface linkToken = LinkTokenInterface(chainlinkTokenAddress()) */\n      swap1\n      pop\n        /* \"dynamic_nft/test_yongh/test.sol\":10790:10799  linkToken */\n      dup1\n        /* \"dynamic_nft/test_yongh/test.sol\":10790:10808  linkToken.transfer */\n      0xffffffffffffffffffffffffffffffffffffffff\n      and\n      0xa9059cbb\n        /* \"dynamic_nft/test_yongh/test.sol\":10809:10819  msg.sender */\n      caller\n        /* \"dynamic_nft/test_yongh/test.sol\":10821:10830  linkToken */\n      dup4\n        /* \"dynamic_nft/test_yongh/test.sol\":10821:10840  linkToken.balanceOf */\n      0xffffffffffffffffffffffffffffffffffffffff\n      and\n      0x70a08231\n        /* \"dynamic_nft/test_yongh/test.sol\":10849:10853  this */\n      address\n        /* \"dynamic_nft/test_yongh/test.sol\":10821:10855  linkToken.balanceOf(address(this)) */\n      mload(0x40)\n      dup3\n      0xffffffff\n      and\n      0xe0\n      shl\n      dup2\n      mstore\n      0x04\n      add\n      tag_99\n      swap2\n      swap1\n      tag_50\n      jump\t// in\n    tag_99:\n      0x20\n      mload(0x40)\n      dup1\n      dup4\n      sub\n      dup2\n      dup7\n      dup1\n      extcodesize\n      iszero\n      dup1\n      iszero\n      tag_100\n      jumpi\n      0x00\n      dup1\n      revert\n    tag_100:\n      pop\n      gas\n      staticcall\n      iszero\n      dup1\n      iszero\n      tag_102\n      jumpi\n      returndatasize\n      0x00\n      dup1\n      returndatacopy\n      revert(0x00, returndatasize)\n    tag_102:\n      pop\n      pop\n      pop\n      pop\n      mload(0x40)\n      returndatasize\n      not(0x1f)\n      0x1f\n      dup3\n      add\n      and\n      dup3\n      add\n      dup1\n      0x40\n      mstore\n      pop\n      dup2\n      add\n      swap1\n      tag_103\n      swap2\n      swap1\n      tag_104\n      jump\t// in\n    tag_103:\n        /* \"dynamic_nft/test_yongh/test.sol\":10790:10856  linkToken.transfer(msg.sender, linkToken.balanceOf(address(this))) */\n      mload(0x40)\n      dup4\n      0xffffffff\n      and\n      0xe0\n      shl\n      dup2\n      mstore\n      0x04\n      add\n      tag_105\n      swap3\n      swap2\n      swap1\n      tag_106\n      jump\t// in\n    tag_105:\n      0x20\n      mload(0x40)\n      dup1\n      dup4\n      sub\n      dup2\n      0x00\n      dup8\n      dup1\n      extcodesize\n      iszero\n      dup1\n      iszero\n      tag_107\n      jumpi\n      0x00\n      dup1\n      revert\n    tag_107:\n      pop\n      gas\n      call\n      iszero\n      dup1\n      iszero\n      tag_109\n      jumpi\n      returndatasize\n      0x00\n      dup1\n      returndatacopy\n      revert(0x00, returndatasize)\n    tag_109:\n      pop\n      pop\n      pop\n      pop\n      mload(0x40)\n      returndatasize\n      not(0x1f)\n      0x1f\n      dup3\n      add\n      and\n      dup3\n      add\n      dup1\n      0x40\n      mstore\n      pop\n      dup2\n      add\n      swap1\n      tag_110\n      swap2\n      swap1\n      tag_111\n      jump\t// in\n    tag_110:\n        /* \"dynamic_nft/test_yongh/test.sol\":10782:10879  require(linkToken.transfer(msg.sender, linkToken.balanceOf(address(this))), \"Unable to transfer\") */\n      tag_112\n      jumpi\n      mload(0x40)\n      0x08c379a000000000000000000000000000000000000000000000000000000000\n      dup2\n      mstore\n      0x04\n      add\n      tag_113\n      swap1\n      tag_114\n      jump\t// in\n    tag_113:\n      mload(0x40)\n      dup1\n      swap2\n      sub\n      swap1\n      revert\n    tag_112:\n        /* \"dynamic_nft/test_yongh/test.sol\":10688:10886  {... */\n      pop\n        /* \"dynamic_nft/test_yongh/test.sol\":10657:10886  function withdrawLink() public {... */\n      jump\t// out\n        /* \"dynamic_nft/test_yongh/test.sol\":3300:3365  mapping(bytes32 => LocationResult) public requestIdLocationResult */\n    tag_40:\n      mstore(0x20, 0x07)\n      dup1\n      0x00\n      mstore\n      keccak256(0x00, 0x40)\n      0x00\n      swap2\n      pop\n      swap1\n      pop\n      dup1\n      0x00\n      add\n      sload\n      swap1\n      dup1\n      0x01\n      add\n      dup1\n      sload\n      tag_115\n      swap1\n      tag_116\n      jump\t// in\n    tag_115:\n      dup1\n      0x1f\n      add\n      0x20\n      dup1\n      swap2\n      div\n      mul\n      0x20\n      add\n      mload(0x40)\n      swap1\n      dup2\n      add\n      0x40\n      mstore\n      dup1\n      swap3\n      swap2\n      swap1\n      dup2\n      dup2\n      mstore\n      0x20\n      add\n      dup3\n      dup1\n      sload\n      tag_117\n      swap1\n      tag_116\n      jump\t// in\n    tag_117:\n      dup1\n      iszero\n      tag_118\n      jumpi\n      dup1\n      0x1f\n      lt\n      tag_119\n      jumpi\n      0x0100\n      dup1\n      dup4\n      sload\n      div\n      mul\n      dup4\n      mstore\n      swap2\n      0x20\n      add\n      swap2\n      jump(tag_118)\n    tag_119:\n      dup3\n      add\n      swap2\n      swap1\n      0x00\n      mstore\n      keccak256(0x00, 0x20)\n      swap1\n    tag_120:\n      dup2\n      sload\n      dup2\n      mstore\n      swap1\n      0x01\n      add\n      swap1\n      0x20\n      add\n      dup1\n      dup4\n      gt\n      tag_120\n      jumpi\n      dup3\n      swap1\n      sub\n      0x1f\n      and\n      dup3\n      add\n      swap2\n    tag_118:\n      pop\n      pop\n      pop\n      pop\n      pop\n      swap1\n      dup1\n      0x02\n      add\n      0x00\n      swap1\n      sload\n      swap1\n      0x0100\n      exp\n      swap1\n      div\n      0xf0\n      shl\n      swap1\n      pop\n      dup4\n      jump\t// out\n        /* \"dynamic_nft/test_yongh/test.sol\":6049:6839  function requestLocationCurrentConditions(... */\n    tag_46:\n        /* \"dynamic_nft/test_yongh/test.sol\":6239:6267  Chainlink.Request memory req */\n      0x00\n        /* \"dynamic_nft/test_yongh/test.sol\":6270:6409  buildChainlinkRequest(... */\n      tag_122\n        /* \"dynamic_nft/test_yongh/test.sol\":6305:6312  _specId */\n      dup9\n        /* \"dynamic_nft/test_yongh/test.sol\":6334:6338  this */\n      address\n        /* \"dynamic_nft/test_yongh/test.sol\":6353:6399  this.fulfillLocationCurrentConditions.selector */\n      shl(0xe0, 0x371eaced)\n        /* \"dynamic_nft/test_yongh/test.sol\":6270:6291  buildChainlinkRequest */\n      tag_74\n        /* \"dynamic_nft/test_yongh/test.sol\":6270:6409  buildChainlinkRequest(... */\n      jump\t// in\n    tag_122:\n        /* \"dynamic_nft/test_yongh/test.sol\":6239:6409  Chainlink.Request memory req = buildChainlinkRequest(... */\n      swap1\n      pop\n        /* \"dynamic_nft/test_yongh/test.sol\":6419:6469  req.add(\"endpoint\", \"location-current-conditions\") */\n      tag_123\n      mload(0x40)\n      dup1\n      0x40\n      add\n      0x40\n      mstore\n      dup1\n      0x08\n      dup2\n      mstore\n      0x20\n      add\n      0x656e64706f696e74000000000000000000000000000000000000000000000000\n      dup2\n      mstore\n      pop\n      mload(0x40)\n      dup1\n      0x40\n      add\n      0x40\n      mstore\n      dup1\n      0x1b\n      dup2\n      mstore\n      0x20\n      add\n      0x6c6f636174696f6e2d63757272656e742d636f6e646974696f6e730000000000\n      dup2\n      mstore\n      pop\n        /* \"dynamic_nft/test_yongh/test.sol\":6419:6422  req */\n      dup4\n        /* \"dynamic_nft/test_yongh/test.sol\":6419:6426  req.add */\n      tag_76\n      swap1\n        /* \"dynamic_nft/test_yongh/test.sol\":6419:6469  req.add(\"endpoint\", \"location-current-conditions\") */\n      swap3\n      swap2\n      swap1\n      0xffffffff\n      and\n      jump\t// in\n    tag_123:\n        /* \"dynamic_nft/test_yongh/test.sol\":6540:6560  req.add(\"lat\", _lat) */\n      tag_124\n      mload(0x40)\n      dup1\n      0x40\n      add\n      0x40\n      mstore\n      dup1\n      0x03\n      dup2\n      mstore\n      0x20\n      add\n      0x6c61740000000000000000000000000000000000000000000000000000000000\n      dup2\n      mstore\n      pop\n        /* \"dynamic_nft/test_yongh/test.sol\":6555:6559  _lat */\n      dup9\n      dup9\n        /* \"dynamic_nft/test_yongh/test.sol\":6540:6560  req.add(\"lat\", _lat) */\n      dup1\n      dup1\n      0x1f\n      add\n      0x20\n      dup1\n      swap2\n      div\n      mul\n      0x20\n      add\n      mload(0x40)\n      swap1\n      dup2\n      add\n      0x40\n      mstore\n      dup1\n      swap4\n      swap3\n      swap2\n      swap1\n      dup2\n      dup2\n      mstore\n      0x20\n      add\n      dup4\n      dup4\n      dup1\n      dup3\n      dup5\n      calldatacopy\n      0x00\n      dup2\n      dup5\n      add\n      mstore\n      not(0x1f)\n      0x1f\n      dup3\n      add\n      and\n      swap1\n      pop\n      dup1\n      dup4\n      add\n      swap3\n      pop\n      pop\n      pop\n      pop\n      pop\n      pop\n      pop\n        /* \"dynamic_nft/test_yongh/test.sol\":6540:6543  req */\n      dup4\n        /* \"dynamic_nft/test_yongh/test.sol\":6540:6547  req.add */\n      tag_76\n      swap1\n        /* \"dynamic_nft/test_yongh/test.sol\":6540:6560  req.add(\"lat\", _lat) */\n      swap3\n      swap2\n      swap1\n      0xffffffff\n      and\n      jump\t// in\n    tag_124:\n        /* \"dynamic_nft/test_yongh/test.sol\":6570:6590  req.add(\"lon\", _lon) */\n      tag_125\n      mload(0x40)\n      dup1\n      0x40\n      add\n      0x40\n      mstore\n      dup1\n      0x03\n      dup2\n      mstore\n      0x20\n      add\n      0x6c6f6e0000000000000000000000000000000000000000000000000000000000\n      dup2\n      mstore\n      pop\n        /* \"dynamic_nft/test_yongh/test.sol\":6585:6589  _lon */\n      dup7\n      dup7\n        /* \"dynamic_nft/test_yongh/test.sol\":6570:6590  req.add(\"lon\", _lon) */\n      dup1\n      dup1\n      0x1f\n      add\n      0x20\n      dup1\n      swap2\n      div\n      mul\n      0x20\n      add\n      mload(0x40)\n      swap1\n      dup2\n      add\n      0x40\n      mstore\n      dup1\n      swap4\n      swap3\n      swap2\n      swap1\n      dup2\n      dup2\n      mstore\n      0x20\n      add\n      dup4\n      dup4\n      dup1\n      dup3\n      dup5\n      calldatacopy\n      0x00\n      dup2\n      dup5\n      add\n      mstore\n      not(0x1f)\n      0x1f\n      dup3\n      add\n      and\n      swap1\n      pop\n      dup1\n      dup4\n      add\n      swap3\n      pop\n      pop\n      pop\n      pop\n      pop\n      pop\n      pop\n        /* \"dynamic_nft/test_yongh/test.sol\":6570:6573  req */\n      dup4\n        /* \"dynamic_nft/test_yongh/test.sol\":6570:6577  req.add */\n      tag_76\n      swap1\n        /* \"dynamic_nft/test_yongh/test.sol\":6570:6590  req.add(\"lon\", _lon) */\n      swap3\n      swap2\n      swap1\n      0xffffffff\n      and\n      jump\t// in\n    tag_125:\n        /* \"dynamic_nft/test_yongh/test.sol\":6600:6624  req.add(\"units\", _units) */\n      tag_126\n      mload(0x40)\n      dup1\n      0x40\n      add\n      0x40\n      mstore\n      dup1\n      0x05\n      dup2\n      mstore\n      0x20\n      add\n      0x756e697473000000000000000000000000000000000000000000000000000000\n      dup2\n      mstore\n      pop\n        /* \"dynamic_nft/test_yongh/test.sol\":6617:6623  _units */\n      dup5\n      dup5\n        /* \"dynamic_nft/test_yongh/test.sol\":6600:6624  req.add(\"units\", _units) */\n      dup1\n      dup1\n      0x1f\n      add\n      0x20\n      dup1\n      swap2\n      div\n      mul\n      0x20\n      add\n      mload(0x40)\n      swap1\n      dup2\n      add\n      0x40\n      mstore\n      dup1\n      swap4\n      swap3\n      swap2\n      swap1\n      dup2\n      dup2\n      mstore\n      0x20\n      add\n      dup4\n      dup4\n      dup1\n      dup3\n      dup5\n      calldatacopy\n      0x00\n      dup2\n      dup5\n      add\n      mstore\n      not(0x1f)\n      0x1f\n      dup3\n      add\n      and\n      swap1\n      pop\n      dup1\n      dup4\n      add\n      swap3\n      pop\n      pop\n      pop\n      pop\n      pop\n      pop\n      pop\n        /* \"dynamic_nft/test_yongh/test.sol\":6600:6603  req */\n      dup4\n        /* \"dynamic_nft/test_yongh/test.sol\":6600:6607  req.add */\n      tag_76\n      swap1\n        /* \"dynamic_nft/test_yongh/test.sol\":6600:6624  req.add(\"units\", _units) */\n      swap3\n      swap2\n      swap1\n      0xffffffff\n      and\n      jump\t// in\n    tag_126:\n        /* \"dynamic_nft/test_yongh/test.sol\":6634:6651  bytes32 requestId */\n      0x00\n        /* \"dynamic_nft/test_yongh/test.sol\":6654:6684  sendChainlinkRequest(req, fee) */\n      tag_127\n        /* \"dynamic_nft/test_yongh/test.sol\":6675:6678  req */\n      dup3\n        /* \"dynamic_nft/test_yongh/test.sol\":6680:6683  fee */\n      sload(0x09)\n        /* \"dynamic_nft/test_yongh/test.sol\":6654:6674  sendChainlinkRequest */\n      tag_80\n        /* \"dynamic_nft/test_yongh/test.sol\":6654:6684  sendChainlinkRequest(req, fee) */\n      jump\t// in\n    tag_127:\n        /* \"dynamic_nft/test_yongh/test.sol\":6634:6684  bytes32 requestId = sendChainlinkRequest(req, fee) */\n      swap1\n      pop\n        /* \"dynamic_nft/test_yongh/test.sol\":6749:6832  storeRequestParams(requestId, 0, \"location-current-conditions\", _lat, _lon, _units) */\n      tag_128\n        /* \"dynamic_nft/test_yongh/test.sol\":6768:6777  requestId */\n      dup2\n        /* \"dynamic_nft/test_yongh/test.sol\":6779:6780  0 */\n      0x00\n        /* \"dynamic_nft/test_yongh/test.sol\":6749:6832  storeRequestParams(requestId, 0, \"location-current-conditions\", _lat, _lon, _units) */\n      mload(0x40)\n      dup1\n      0x40\n      add\n      0x40\n      mstore\n      dup1\n      0x1b\n      dup2\n      mstore\n      0x20\n      add\n      0x6c6f636174696f6e2d63757272656e742d636f6e646974696f6e730000000000\n      dup2\n      mstore\n      pop\n        /* \"dynamic_nft/test_yongh/test.sol\":6813:6817  _lat */\n      dup12\n      dup12\n        /* \"dynamic_nft/test_yongh/test.sol\":6749:6832  storeRequestParams(requestId, 0, \"location-current-conditions\", _lat, _lon, _units) */\n      dup1\n      dup1\n      0x1f\n      add\n      0x20\n      dup1\n      swap2\n      div\n      mul\n      0x20\n      add\n      mload(0x40)\n      swap1\n      dup2\n      add\n      0x40\n      mstore\n      dup1\n      swap4\n      swap3\n      swap2\n      swap1\n      dup2\n      dup2\n      mstore\n      0x20\n      add\n      dup4\n      dup4\n      dup1\n      dup3\n      dup5\n      calldatacopy\n      0x00\n      dup2\n      dup5\n      add\n      mstore\n      not(0x1f)\n      0x1f\n      dup3\n      add\n      and\n      swap1\n      pop\n      dup1\n      dup4\n      add\n      swap3\n      pop\n      pop\n      pop\n      pop\n      pop\n      pop\n      pop\n        /* \"dynamic_nft/test_yongh/test.sol\":6819:6823  _lon */\n      dup11\n      dup11\n        /* \"dynamic_nft/test_yongh/test.sol\":6749:6832  storeRequestParams(requestId, 0, \"location-current-conditions\", _lat, _lon, _units) */\n      dup1\n      dup1\n      0x1f\n      add\n      0x20\n      dup1\n      swap2\n      div\n      mul\n      0x20\n      add\n      mload(0x40)\n      swap1\n      dup2\n      add\n      0x40\n      mstore\n      dup1\n      swap4\n      swap3\n      swap2\n      swap1\n      dup2\n      dup2\n      mstore\n      0x20\n      add\n      dup4\n      dup4\n      dup1\n      dup3\n      dup5\n      calldatacopy\n      0x00\n      dup2\n      dup5\n      add\n      mstore\n      not(0x1f)\n      0x1f\n      dup3\n      add\n      and\n      swap1\n      pop\n      dup1\n      dup4\n      add\n      swap3\n      pop\n      pop\n      pop\n      pop\n      pop\n      pop\n      pop\n        /* \"dynamic_nft/test_yongh/test.sol\":6825:6831  _units */\n      dup10\n      dup10\n        /* \"dynamic_nft/test_yongh/test.sol\":6749:6832  storeRequestParams(requestId, 0, \"location-current-conditions\", _lat, _lon, _units) */\n      dup1\n      dup1\n      0x1f\n      add\n      0x20\n      dup1\n      swap2\n      div\n      mul\n      0x20\n      add\n      mload(0x40)\n      swap1\n      dup2\n      add\n      0x40\n      mstore\n      dup1\n      swap4\n      swap3\n      swap2\n      swap1\n      dup2\n      dup2\n      mstore\n      0x20\n      add\n      dup4\n      dup4\n      dup1\n      dup3\n      dup5\n      calldatacopy\n      0x00\n      dup2\n      dup5\n      add\n      mstore\n      not(0x1f)\n      0x1f\n      dup3\n      add\n      and\n      swap1\n      pop\n      dup1\n      dup4\n      add\n      swap3\n      pop\n      pop\n      pop\n      pop\n      pop\n      pop\n      pop\n        /* \"dynamic_nft/test_yongh/test.sol\":6749:6767  storeRequestParams */\n      tag_82\n        /* \"dynamic_nft/test_yongh/test.sol\":6749:6832  storeRequestParams(requestId, 0, \"location-current-conditions\", _lat, _lon, _units) */\n      jump\t// in\n    tag_128:\n        /* \"dynamic_nft/test_yongh/test.sol\":6229:6839  {... */\n      pop\n      pop\n        /* \"dynamic_nft/test_yongh/test.sol\":6049:6839  function requestLocationCurrentConditions(... */\n      pop\n      pop\n      pop\n      pop\n      pop\n      pop\n      pop\n      jump\t// out\n        /* \"dynamic_nft/test_yongh/test.sol\":10450:10558  function getOracleAddress() external view returns (address) {... */\n    tag_48:\n        /* \"dynamic_nft/test_yongh/test.sol\":10501:10508  address */\n      0x00\n        /* \"dynamic_nft/test_yongh/test.sol\":10527:10551  chainlinkOracleAddress() */\n      tag_130\n        /* \"dynamic_nft/test_yongh/test.sol\":10527:10549  chainlinkOracleAddress */\n      tag_131\n        /* \"dynamic_nft/test_yongh/test.sol\":10527:10551  chainlinkOracleAddress() */\n      jump\t// in\n    tag_130:\n        /* \"dynamic_nft/test_yongh/test.sol\":10520:10551  return chainlinkOracleAddress() */\n      swap1\n      pop\n        /* \"dynamic_nft/test_yongh/test.sol\":10450:10558  function getOracleAddress() external view returns (address) {... */\n      swap1\n      jump\t// out\n        /* \"dynamic_nft/test_yongh/test.sol\":4928:5645  function requestCurrentConditions(... */\n    tag_54:\n        /* \"dynamic_nft/test_yongh/test.sol\":5072:5100  Chainlink.Request memory req */\n      0x00\n        /* \"dynamic_nft/test_yongh/test.sol\":5103:5234  buildChainlinkRequest(... */\n      tag_133\n        /* \"dynamic_nft/test_yongh/test.sol\":5138:5145  _specId */\n      dup6\n        /* \"dynamic_nft/test_yongh/test.sol\":5167:5171  this */\n      address\n        /* \"dynamic_nft/test_yongh/test.sol\":5186:5224  this.fulfillCurrentConditions.selector */\n      shl(0xe0, 0xe13caa63)\n        /* \"dynamic_nft/test_yongh/test.sol\":5103:5124  buildChainlinkRequest */\n      tag_74\n        /* \"dynamic_nft/test_yongh/test.sol\":5103:5234  buildChainlinkRequest(... */\n      jump\t// in\n    tag_133:\n        /* \"dynamic_nft/test_yongh/test.sol\":5072:5234  Chainlink.Request memory req = buildChainlinkRequest(... */\n      swap1\n      pop\n        /* \"dynamic_nft/test_yongh/test.sol\":5244:5285  req.add(\"endpoint\", \"current-conditions\") */\n      tag_134\n      mload(0x40)\n      dup1\n      0x40\n      add\n      0x40\n      mstore\n      dup1\n      0x08\n      dup2\n      mstore\n      0x20\n      add\n      0x656e64706f696e74000000000000000000000000000000000000000000000000\n      dup2\n      mstore\n      pop\n      mload(0x40)\n      dup1\n      0x40\n      add\n      0x40\n      mstore\n      dup1\n      0x12\n      dup2\n      mstore\n      0x20\n      add\n      0x63757272656e742d636f6e646974696f6e730000000000000000000000000000\n      dup2\n      mstore\n      pop\n        /* \"dynamic_nft/test_yongh/test.sol\":5244:5247  req */\n      dup4\n        /* \"dynamic_nft/test_yongh/test.sol\":5244:5251  req.add */\n      tag_76\n      swap1\n        /* \"dynamic_nft/test_yongh/test.sol\":5244:5285  req.add(\"endpoint\", \"current-conditions\") */\n      swap3\n      swap2\n      swap1\n      0xffffffff\n      and\n      jump\t// in\n    tag_134:\n        /* \"dynamic_nft/test_yongh/test.sol\":5356:5396  req.addUint(\"locationKey\", _locationKey) */\n      tag_135\n      mload(0x40)\n      dup1\n      0x40\n      add\n      0x40\n      mstore\n      dup1\n      0x0b\n      dup2\n      mstore\n      0x20\n      add\n      0x6c6f636174696f6e4b6579000000000000000000000000000000000000000000\n      dup2\n      mstore\n      pop\n        /* \"dynamic_nft/test_yongh/test.sol\":5383:5395  _locationKey */\n      dup6\n        /* \"dynamic_nft/test_yongh/test.sol\":5356:5359  req */\n      dup4\n        /* \"dynamic_nft/test_yongh/test.sol\":5356:5367  req.addUint */\n      tag_136\n      swap1\n        /* \"dynamic_nft/test_yongh/test.sol\":5356:5396  req.addUint(\"locationKey\", _locationKey) */\n      swap3\n      swap2\n      swap1\n      0xffffffff\n      and\n      jump\t// in\n    tag_135:\n        /* \"dynamic_nft/test_yongh/test.sol\":5406:5430  req.add(\"units\", _units) */\n      tag_137\n      mload(0x40)\n      dup1\n      0x40\n      add\n      0x40\n      mstore\n      dup1\n      0x05\n      dup2\n      mstore\n      0x20\n      add\n      0x756e697473000000000000000000000000000000000000000000000000000000\n      dup2\n      mstore\n      pop\n        /* \"dynamic_nft/test_yongh/test.sol\":5423:5429  _units */\n      dup5\n      dup5\n        /* \"dynamic_nft/test_yongh/test.sol\":5406:5430  req.add(\"units\", _units) */\n      dup1\n      dup1\n      0x1f\n      add\n      0x20\n      dup1\n      swap2\n      div\n      mul\n      0x20\n      add\n      mload(0x40)\n      swap1\n      dup2\n      add\n      0x40\n      mstore\n      dup1\n      swap4\n      swap3\n      swap2\n      swap1\n      dup2\n      dup2\n      mstore\n      0x20\n      add\n      dup4\n      dup4\n      dup1\n      dup3\n      dup5\n      calldatacopy\n      0x00\n      dup2\n      dup5\n      add\n      mstore\n      not(0x1f)\n      0x1f\n      dup3\n      add\n      and\n      swap1\n      pop\n      dup1\n      dup4\n      add\n      swap3\n      pop\n      pop\n      pop\n      pop\n      pop\n      pop\n      pop\n        /* \"dynamic_nft/test_yongh/test.sol\":5406:5409  req */\n      dup4\n        /* \"dynamic_nft/test_yongh/test.sol\":5406:5413  req.add */\n      tag_76\n      swap1\n        /* \"dynamic_nft/test_yongh/test.sol\":5406:5430  req.add(\"units\", _units) */\n      swap3\n      swap2\n      swap1\n      0xffffffff\n      and\n      jump\t// in\n    tag_137:\n        /* \"dynamic_nft/test_yongh/test.sol\":5440:5457  bytes32 requestId */\n      0x00\n        /* \"dynamic_nft/test_yongh/test.sol\":5460:5490  sendChainlinkRequest(req, fee) */\n      tag_138\n        /* \"dynamic_nft/test_yongh/test.sol\":5481:5484  req */\n      dup3\n        /* \"dynamic_nft/test_yongh/test.sol\":5486:5489  fee */\n      sload(0x09)\n        /* \"dynamic_nft/test_yongh/test.sol\":5460:5480  sendChainlinkRequest */\n      tag_80\n        /* \"dynamic_nft/test_yongh/test.sol\":5460:5490  sendChainlinkRequest(req, fee) */\n      jump\t// in\n    tag_138:\n        /* \"dynamic_nft/test_yongh/test.sol\":5440:5490  bytes32 requestId = sendChainlinkRequest(req, fee) */\n      swap1\n      pop\n        /* \"dynamic_nft/test_yongh/test.sol\":5555:5638  storeRequestParams(requestId, _locationKey, \"current-conditions\", \"0\", \"0\", _units) */\n      tag_139\n        /* \"dynamic_nft/test_yongh/test.sol\":5574:5583  requestId */\n      dup2\n        /* \"dynamic_nft/test_yongh/test.sol\":5585:5597  _locationKey */\n      dup7\n        /* \"dynamic_nft/test_yongh/test.sol\":5555:5638  storeRequestParams(requestId, _locationKey, \"current-conditions\", \"0\", \"0\", _units) */\n      mload(0x40)\n      dup1\n      0x40\n      add\n      0x40\n      mstore\n      dup1\n      0x12\n      dup2\n      mstore\n      0x20\n      add\n      0x63757272656e742d636f6e646974696f6e730000000000000000000000000000\n      dup2\n      mstore\n      pop\n      mload(0x40)\n      dup1\n      0x40\n      add\n      0x40\n      mstore\n      dup1\n      0x01\n      dup2\n      mstore\n      0x20\n      add\n      0x3000000000000000000000000000000000000000000000000000000000000000\n      dup2\n      mstore\n      pop\n      mload(0x40)\n      dup1\n      0x40\n      add\n      0x40\n      mstore\n      dup1\n      0x01\n      dup2\n      mstore\n      0x20\n      add\n      0x3000000000000000000000000000000000000000000000000000000000000000\n      dup2\n      mstore\n      pop\n        /* \"dynamic_nft/test_yongh/test.sol\":5631:5637  _units */\n      dup10\n      dup10\n        /* \"dynamic_nft/test_yongh/test.sol\":5555:5638  storeRequestParams(requestId, _locationKey, \"current-conditions\", \"0\", \"0\", _units) */\n      dup1\n      dup1\n      0x1f\n      add\n      0x20\n      dup1\n      swap2\n      div\n      mul\n      0x20\n      add\n      mload(0x40)\n      swap1\n      dup2\n      add\n      0x40\n      mstore\n      dup1\n      swap4\n      swap3\n      swap2\n      swap1\n      dup2\n      dup2\n      mstore\n      0x20\n      add\n      dup4\n      dup4\n      dup1\n      dup3\n      dup5\n      calldatacopy\n      0x00\n      dup2\n      dup5\n      add\n      mstore\n      not(0x1f)\n      0x1f\n      dup3\n      add\n      and\n      swap1\n      pop\n      dup1\n      dup4\n      add\n      swap3\n      pop\n      pop\n      pop\n      pop\n      pop\n      pop\n      pop\n        /* \"dynamic_nft/test_yongh/test.sol\":5555:5573  storeRequestParams */\n      tag_82\n        /* \"dynamic_nft/test_yongh/test.sol\":5555:5638  storeRequestParams(requestId, _locationKey, \"current-conditions\", \"0\", \"0\", _units) */\n      jump\t// in\n    tag_139:\n        /* \"dynamic_nft/test_yongh/test.sol\":5062:5645  {... */\n      pop\n      pop\n        /* \"dynamic_nft/test_yongh/test.sol\":4928:5645  function requestCurrentConditions(... */\n      pop\n      pop\n      pop\n      pop\n      jump\t// out\n        /* \"dynamic_nft/test_yongh/test.sol\":3441:3456  uint public fee */\n    tag_56:\n      sload(0x09)\n      dup2\n      jump\t// out\n        /* \"dynamic_nft/test_yongh/test.sol\":7411:7692  function fulfillLocation(... */\n    tag_62:\n        /* \"dynamic_nft/test_yongh/test.sol\":7571:7581  _requestId */\n      dup3\n        /* \"@chainlink/contracts/src/v0.8/ChainlinkClient.sol\":11663:11680  s_pendingRequests */\n      0x05\n        /* \"@chainlink/contracts/src/v0.8/ChainlinkClient.sol\":11663:11691  s_pendingRequests[requestId] */\n      0x00\n        /* \"@chainlink/contracts/src/v0.8/ChainlinkClient.sol\":11681:11690  requestId */\n      dup3\n        /* \"@chainlink/contracts/src/v0.8/ChainlinkClient.sol\":11663:11691  s_pendingRequests[requestId] */\n      dup2\n      mstore\n      0x20\n      add\n      swap1\n      dup2\n      mstore\n      0x20\n      add\n      0x00\n      keccak256\n      0x00\n      swap1\n      sload\n      swap1\n      0x0100\n      exp\n      swap1\n      div\n      0xffffffffffffffffffffffffffffffffffffffff\n      and\n        /* \"@chainlink/contracts/src/v0.8/ChainlinkClient.sol\":11649:11691  msg.sender == s_pendingRequests[requestId] */\n      0xffffffffffffffffffffffffffffffffffffffff\n      and\n        /* \"@chainlink/contracts/src/v0.8/ChainlinkClient.sol\":11649:11659  msg.sender */\n      caller\n        /* \"@chainlink/contracts/src/v0.8/ChainlinkClient.sol\":11649:11691  msg.sender == s_pendingRequests[requestId] */\n      0xffffffffffffffffffffffffffffffffffffffff\n      and\n      eq\n        /* \"@chainlink/contracts/src/v0.8/ChainlinkClient.sol\":11641:11736  require(msg.sender == s_pendingRequests[requestId], \"Source must be the oracle of the request\") */\n      tag_141\n      jumpi\n      mload(0x40)\n      0x08c379a000000000000000000000000000000000000000000000000000000000\n      dup2\n      mstore\n      0x04\n      add\n      tag_142\n      swap1\n      tag_86\n      jump\t// in\n    tag_142:\n      mload(0x40)\n      dup1\n      swap2\n      sub\n      swap1\n      revert\n    tag_141:\n        /* \"@chainlink/contracts/src/v0.8/ChainlinkClient.sol\":11749:11766  s_pendingRequests */\n      0x05\n        /* \"@chainlink/contracts/src/v0.8/ChainlinkClient.sol\":11749:11777  s_pendingRequests[requestId] */\n      0x00\n        /* \"@chainlink/contracts/src/v0.8/ChainlinkClient.sol\":11767:11776  requestId */\n      dup3\n        /* \"@chainlink/contracts/src/v0.8/ChainlinkClient.sol\":11749:11777  s_pendingRequests[requestId] */\n      dup2\n      mstore\n      0x20\n      add\n      swap1\n      dup2\n      mstore\n      0x20\n      add\n      0x00\n      keccak256\n      0x00\n        /* \"@chainlink/contracts/src/v0.8/ChainlinkClient.sol\":11742:11777  delete s_pendingRequests[requestId] */\n      0x0100\n      exp\n      dup2\n      sload\n      swap1\n      0xffffffffffffffffffffffffffffffffffffffff\n      mul\n      not\n      and\n      swap1\n      sstore\n        /* \"@chainlink/contracts/src/v0.8/ChainlinkClient.sol\":11807:11816  requestId */\n      dup1\n        /* \"@chainlink/contracts/src/v0.8/ChainlinkClient.sol\":11788:11817  ChainlinkFulfilled(requestId) */\n      0x7cc135e0cebb02c3480ae5d74d377283180a2601f8f644edf7987b009316c63a\n      mload(0x40)\n      mload(0x40)\n      dup1\n      swap2\n      sub\n      swap1\n      log2\n        /* \"dynamic_nft/test_yongh/test.sol\":7597:7611  _locationFound */\n      dup3\n        /* \"dynamic_nft/test_yongh/test.sol\":7593:7686  if (_locationFound) {... */\n      iszero\n      tag_144\n      jumpi\n        /* \"dynamic_nft/test_yongh/test.sol\":7627:7675  storeLocationResult(_requestId, _locationResult) */\n      tag_145\n        /* \"dynamic_nft/test_yongh/test.sol\":7647:7657  _requestId */\n      dup5\n        /* \"dynamic_nft/test_yongh/test.sol\":7659:7674  _locationResult */\n      dup4\n        /* \"dynamic_nft/test_yongh/test.sol\":7627:7646  storeLocationResult */\n      tag_90\n        /* \"dynamic_nft/test_yongh/test.sol\":7627:7675  storeLocationResult(_requestId, _locationResult) */\n      jump\t// in\n    tag_145:\n        /* \"dynamic_nft/test_yongh/test.sol\":7593:7686  if (_locationFound) {... */\n    tag_144:\n        /* \"dynamic_nft/test_yongh/test.sol\":7411:7692  function fulfillLocation(... */\n      pop\n      pop\n      pop\n      pop\n      jump\t// out\n        /* \"dynamic_nft/test_yongh/test.sol\":7961:8203  function fulfillCurrentConditions(bytes32 _requestId, bytes memory _currentConditionsResult)... */\n    tag_66:\n        /* \"dynamic_nft/test_yongh/test.sol\":8104:8114  _requestId */\n      dup2\n        /* \"@chainlink/contracts/src/v0.8/ChainlinkClient.sol\":11663:11680  s_pendingRequests */\n      0x05\n        /* \"@chainlink/contracts/src/v0.8/ChainlinkClient.sol\":11663:11691  s_pendingRequests[requestId] */\n      0x00\n        /* \"@chainlink/contracts/src/v0.8/ChainlinkClient.sol\":11681:11690  requestId */\n      dup3\n        /* \"@chainlink/contracts/src/v0.8/ChainlinkClient.sol\":11663:11691  s_pendingRequests[requestId] */\n      dup2\n      mstore\n      0x20\n      add\n      swap1\n      dup2\n      mstore\n      0x20\n      add\n      0x00\n      keccak256\n      0x00\n      swap1\n      sload\n      swap1\n      0x0100\n      exp\n      swap1\n      div\n      0xffffffffffffffffffffffffffffffffffffffff\n      and\n        /* \"@chainlink/contracts/src/v0.8/ChainlinkClient.sol\":11649:11691  msg.sender == s_pendingRequests[requestId] */\n      0xffffffffffffffffffffffffffffffffffffffff\n      and\n        /* \"@chainlink/contracts/src/v0.8/ChainlinkClient.sol\":11649:11659  msg.sender */\n      caller\n        /* \"@chainlink/contracts/src/v0.8/ChainlinkClient.sol\":11649:11691  msg.sender == s_pendingRequests[requestId] */\n      0xffffffffffffffffffffffffffffffffffffffff\n      and\n      eq\n        /* \"@chainlink/contracts/src/v0.8/ChainlinkClient.sol\":11641:11736  require(msg.sender == s_pendingRequests[requestId], \"Source must be the oracle of the request\") */\n      tag_147\n      jumpi\n      mload(0x40)\n      0x08c379a000000000000000000000000000000000000000000000000000000000\n      dup2\n      mstore\n      0x04\n      add\n      tag_148\n      swap1\n      tag_86\n      jump\t// in\n    tag_148:\n      mload(0x40)\n      dup1\n      swap2\n      sub\n      swap1\n      revert\n    tag_147:\n        /* \"@chainlink/contracts/src/v0.8/ChainlinkClient.sol\":11749:11766  s_pendingRequests */\n      0x05\n        /* \"@chainlink/contracts/src/v0.8/ChainlinkClient.sol\":11749:11777  s_pendingRequests[requestId] */\n      0x00\n        /* \"@chainlink/contracts/src/v0.8/ChainlinkClient.sol\":11767:11776  requestId */\n      dup3\n        /* \"@chainlink/contracts/src/v0.8/ChainlinkClient.sol\":11749:11777  s_pendingRequests[requestId] */\n      dup2\n      mstore\n      0x20\n      add\n      swap1\n      dup2\n      mstore\n      0x20\n      add\n      0x00\n      keccak256\n      0x00\n        /* \"@chainlink/contracts/src/v0.8/ChainlinkClient.sol\":11742:11777  delete s_pendingRequests[requestId] */\n      0x0100\n      exp\n      dup2\n      sload\n      swap1\n      0xffffffffffffffffffffffffffffffffffffffff\n      mul\n      not\n      and\n      swap1\n      sstore\n        /* \"@chainlink/contracts/src/v0.8/ChainlinkClient.sol\":11807:11816  requestId */\n      dup1\n        /* \"@chainlink/contracts/src/v0.8/ChainlinkClient.sol\":11788:11817  ChainlinkFulfilled(requestId) */\n      0x7cc135e0cebb02c3480ae5d74d377283180a2601f8f644edf7987b009316c63a\n      mload(0x40)\n      mload(0x40)\n      dup1\n      swap2\n      sub\n      swap1\n      log2\n        /* \"dynamic_nft/test_yongh/test.sol\":8130:8196  storeCurrentConditionsResult(_requestId, _currentConditionsResult) */\n      tag_150\n        /* \"dynamic_nft/test_yongh/test.sol\":8159:8169  _requestId */\n      dup4\n        /* \"dynamic_nft/test_yongh/test.sol\":8171:8195  _currentConditionsResult */\n      dup4\n        /* \"dynamic_nft/test_yongh/test.sol\":8130:8158  storeCurrentConditionsResult */\n      tag_92\n        /* \"dynamic_nft/test_yongh/test.sol\":8130:8196  storeCurrentConditionsResult(_requestId, _currentConditionsResult) */\n      jump\t// in\n    tag_150:\n        /* \"dynamic_nft/test_yongh/test.sol\":7961:8203  function fulfillCurrentConditions(bytes32 _requestId, bytes memory _currentConditionsResult)... */\n      pop\n      pop\n      pop\n      jump\t// out\n        /* \"dynamic_nft/test_yongh/test.sol\":3371:3434  mapping(bytes32 => RequestParams) public requestIdRequestParams */\n    tag_69:\n      mstore(0x20, 0x08)\n      dup1\n      0x00\n      mstore\n      keccak256(0x00, 0x40)\n      0x00\n      swap2\n      pop\n      swap1\n      pop\n      dup1\n      0x00\n      add\n      sload\n      swap1\n      dup1\n      0x01\n      add\n      dup1\n      sload\n      tag_151\n      swap1\n      tag_116\n      jump\t// in\n    tag_151:\n      dup1\n      0x1f\n      add\n      0x20\n      dup1\n      swap2\n      div\n      mul\n      0x20\n      add\n      mload(0x40)\n      swap1\n      dup2\n      add\n      0x40\n      mstore\n      dup1\n      swap3\n      swap2\n      swap1\n      dup2\n      dup2\n      mstore\n      0x20\n      add\n      dup3\n      dup1\n      sload\n      tag_152\n      swap1\n      tag_116\n      jump\t// in\n    tag_152:\n      dup1\n      iszero\n      tag_153\n      jumpi\n      dup1\n      0x1f\n      lt\n      tag_154\n      jumpi\n      0x0100\n      dup1\n      dup4\n      sload\n      div\n      mul\n      dup4\n      mstore\n      swap2\n      0x20\n      add\n      swap2\n      jump(tag_153)\n    tag_154:\n      dup3\n      add\n      swap2\n      swap1\n      0x00\n      mstore\n      keccak256(0x00, 0x20)\n      swap1\n    tag_155:\n      dup2\n      sload\n      dup2\n      mstore\n      swap1\n      0x01\n      add\n      swap1\n      0x20\n      add\n      dup1\n      dup4\n      gt\n      tag_155\n      jumpi\n      dup3\n      swap1\n      sub\n      0x1f\n      and\n      dup3\n      add\n      swap2\n    tag_153:\n      pop\n      pop\n      pop\n      pop\n      pop\n      swap1\n      dup1\n      0x02\n      add\n      dup1\n      sload\n      tag_156\n      swap1\n      tag_116\n      jump\t// in\n    tag_156:\n      dup1\n      0x1f\n      add\n      0x20\n      dup1\n      swap2\n      div\n      mul\n      0x20\n      add\n      mload(0x40)\n      swap1\n      dup2\n      add\n      0x40\n      mstore\n      dup1\n      swap3\n      swap2\n      swap1\n      dup2\n      dup2\n      mstore\n      0x20\n      add\n      dup3\n      dup1\n      sload\n      tag_157\n      swap1\n      tag_116\n      jump\t// in\n    tag_157:\n      dup1\n      iszero\n      tag_158\n      jumpi\n      dup1\n      0x1f\n      lt\n      tag_159\n      jumpi\n      0x0100\n      dup1\n      dup4\n      sload\n      div\n      mul\n      dup4\n      mstore\n      swap2\n      0x20\n      add\n      swap2\n      jump(tag_158)\n    tag_159:\n      dup3\n      add\n      swap2\n      swap1\n      0x00\n      mstore\n      keccak256(0x00, 0x20)\n      swap1\n    tag_160:\n      dup2\n      sload\n      dup2\n      mstore\n      swap1\n      0x01\n      add\n      swap1\n      0x20\n      add\n      dup1\n      dup4\n      gt\n      tag_160\n      jumpi\n      dup3\n      swap1\n      sub\n      0x1f\n      and\n      dup3\n      add\n      swap2\n    tag_158:\n      pop\n      pop\n      pop\n      pop\n      pop\n      swap1\n      dup1\n      0x03\n      add\n      dup1\n      sload\n      tag_161\n      swap1\n      tag_116\n      jump\t// in\n    tag_161:\n      dup1\n      0x1f\n      add\n      0x20\n      dup1\n      swap2\n      div\n      mul\n      0x20\n      add\n      mload(0x40)\n      swap1\n      dup2\n      add\n      0x40\n      mstore\n      dup1\n      swap3\n      swap2\n      swap1\n      dup2\n      dup2\n      mstore\n      0x20\n      add\n      dup3\n      dup1\n      sload\n      tag_162\n      swap1\n      tag_116\n      jump\t// in\n    tag_162:\n      dup1\n      iszero\n      tag_163\n      jumpi\n      dup1\n      0x1f\n      lt\n      tag_164\n      jumpi\n      0x0100\n      dup1\n      dup4\n      sload\n      div\n      mul\n      dup4\n      mstore\n      swap2\n      0x20\n      add\n      swap2\n      jump(tag_163)\n    tag_164:\n      dup3\n      add\n      swap2\n      swap1\n      0x00\n      mstore\n      keccak256(0x00, 0x20)\n      swap1\n    tag_165:\n      dup2\n      sload\n      dup2\n      mstore\n      swap1\n      0x01\n      add\n      swap1\n      0x20\n      add\n      dup1\n      dup4\n      gt\n      tag_165\n      jumpi\n      dup3\n      swap1\n      sub\n      0x1f\n      and\n      dup3\n      add\n      swap2\n    tag_163:\n      pop\n      pop\n      pop\n      pop\n      pop\n      swap1\n      dup1\n      0x04\n      add\n      dup1\n      sload\n      tag_166\n      swap1\n      tag_116\n      jump\t// in\n    tag_166:\n      dup1\n      0x1f\n      add\n      0x20\n      dup1\n      swap2\n      div\n      mul\n      0x20\n      add\n      mload(0x40)\n      swap1\n      dup2\n      add\n      0x40\n      mstore\n      dup1\n      swap3\n      swap2\n      swap1\n      dup2\n      dup2\n      mstore\n      0x20\n      add\n      dup3\n      dup1\n      sload\n      tag_167\n      swap1\n      tag_116\n      jump\t// in\n    tag_167:\n      dup1\n      iszero\n      tag_168\n      jumpi\n      dup1\n      0x1f\n      lt\n      tag_169\n      jumpi\n      0x0100\n      dup1\n      dup4\n      sload\n      div\n      mul\n      dup4\n      mstore\n      swap2\n      0x20\n      add\n      swap2\n      jump(tag_168)\n    tag_169:\n      dup3\n      add\n      swap2\n      swap1\n      0x00\n      mstore\n      keccak256(0x00, 0x20)\n      swap1\n    tag_170:\n      dup2\n      sload\n      dup2\n      mstore\n      swap1\n      0x01\n      add\n      swap1\n      0x20\n      add\n      dup1\n      dup4\n      gt\n      tag_170\n      jumpi\n      dup3\n      swap1\n      sub\n      0x1f\n      and\n      dup3\n      add\n      swap2\n    tag_168:\n      pop\n      pop\n      pop\n      pop\n      pop\n      swap1\n      pop\n      dup6\n      jump\t// out\n        /* \"@chainlink/contracts/src/v0.8/ChainlinkClient.sol\":1850:2133  function buildChainlinkRequest(... */\n    tag_74:\n        /* \"@chainlink/contracts/src/v0.8/ChainlinkClient.sol\":1992:2016  Chainlink.Request memory */\n      tag_171\n      tag_172\n      jump\t// in\n    tag_171:\n        /* \"@chainlink/contracts/src/v0.8/ChainlinkClient.sol\":2024:2052  Chainlink.Request memory req */\n      tag_174\n      tag_172\n      jump\t// in\n    tag_174:\n        /* \"@chainlink/contracts/src/v0.8/ChainlinkClient.sol\":2065:2128  req.initialize(specId, callbackAddr, callbackFunctionSignature) */\n      tag_175\n        /* \"@chainlink/contracts/src/v0.8/ChainlinkClient.sol\":2080:2086  specId */\n      dup6\n        /* \"@chainlink/contracts/src/v0.8/ChainlinkClient.sol\":2088:2100  callbackAddr */\n      dup6\n        /* \"@chainlink/contracts/src/v0.8/ChainlinkClient.sol\":2102:2127  callbackFunctionSignature */\n      dup6\n        /* \"@chainlink/contracts/src/v0.8/ChainlinkClient.sol\":2065:2068  req */\n      dup5\n        /* \"@chainlink/contracts/src/v0.8/ChainlinkClient.sol\":2065:2079  req.initialize */\n      tag_176\n      swap1\n        /* \"@chainlink/contracts/src/v0.8/ChainlinkClient.sol\":2065:2128  req.initialize(specId, callbackAddr, callbackFunctionSignature) */\n      swap4\n      swap3\n      swap2\n      swap1\n      0xffffffff\n      and\n      jump\t// in\n    tag_175:\n        /* \"@chainlink/contracts/src/v0.8/ChainlinkClient.sol\":2058:2128  return req.initialize(specId, callbackAddr, callbackFunctionSignature) */\n      swap2\n      pop\n      pop\n        /* \"@chainlink/contracts/src/v0.8/ChainlinkClient.sol\":1850:2133  function buildChainlinkRequest(... */\n      swap4\n      swap3\n      pop\n      pop\n      pop\n      jump\t// out\n        /* \"@chainlink/contracts/src/v0.8/Chainlink.sol\":1951:2126  function add(... */\n    tag_76:\n        /* \"@chainlink/contracts/src/v0.8/Chainlink.sol\":2061:2087  self.buf.encodeString(key) */\n      tag_178\n        /* \"@chainlink/contracts/src/v0.8/Chainlink.sol\":2083:2086  key */\n      dup3\n        /* \"@chainlink/contracts/src/v0.8/Chainlink.sol\":2061:2065  self */\n      dup5\n        /* \"@chainlink/contracts/src/v0.8/Chainlink.sol\":2061:2069  self.buf */\n      0x80\n      add\n      mload\n        /* \"@chainlink/contracts/src/v0.8/Chainlink.sol\":2061:2082  self.buf.encodeString */\n      tag_179\n      swap1\n        /* \"@chainlink/contracts/src/v0.8/Chainlink.sol\":2061:2087  self.buf.encodeString(key) */\n      swap2\n      swap1\n      0xffffffff\n      and\n      jump\t// in\n    tag_178:\n        /* \"@chainlink/contracts/src/v0.8/Chainlink.sol\":2093:2121  self.buf.encodeString(value) */\n      tag_180\n        /* \"@chainlink/contracts/src/v0.8/Chainlink.sol\":2115:2120  value */\n      dup2\n        /* \"@chainlink/contracts/src/v0.8/Chainlink.sol\":2093:2097  self */\n      dup5\n        /* \"@chainlink/contracts/src/v0.8/Chainlink.sol\":2093:2101  self.buf */\n      0x80\n      add\n      mload\n        /* \"@chainlink/contracts/src/v0.8/Chainlink.sol\":2093:2114  self.buf.encodeString */\n      tag_179\n      swap1\n        /* \"@chainlink/contracts/src/v0.8/Chainlink.sol\":2093:2121  self.buf.encodeString(value) */\n      swap2\n      swap1\n      0xffffffff\n      and\n      jump\t// in\n    tag_180:\n        /* \"@chainlink/contracts/src/v0.8/Chainlink.sol\":1951:2126  function add(... */\n      pop\n      pop\n      pop\n      jump\t// out\n        /* \"@chainlink/contracts/src/v0.8/ChainlinkClient.sol\":2992:3169  function sendChainlinkRequest(Chainlink.Request memory req, uint256 payment) internal returns (bytes32) {... */\n    tag_80:\n        /* \"@chainlink/contracts/src/v0.8/ChainlinkClient.sol\":3087:3094  bytes32 */\n      0x00\n        /* \"@chainlink/contracts/src/v0.8/ChainlinkClient.sol\":3109:3164  sendChainlinkRequestTo(address(s_oracle), req, payment) */\n      tag_182\n        /* \"@chainlink/contracts/src/v0.8/ChainlinkClient.sol\":3140:3148  s_oracle */\n      0x03\n      0x00\n      swap1\n      sload\n      swap1\n      0x0100\n      exp\n      swap1\n      div\n      0xffffffffffffffffffffffffffffffffffffffff\n      and\n        /* \"@chainlink/contracts/src/v0.8/ChainlinkClient.sol\":3151:3154  req */\n      dup5\n        /* \"@chainlink/contracts/src/v0.8/ChainlinkClient.sol\":3156:3163  payment */\n      dup5\n        /* \"@chainlink/contracts/src/v0.8/ChainlinkClient.sol\":3109:3131  sendChainlinkRequestTo */\n      tag_183\n        /* \"@chainlink/contracts/src/v0.8/ChainlinkClient.sol\":3109:3164  sendChainlinkRequestTo(address(s_oracle), req, payment) */\n      jump\t// in\n    tag_182:\n        /* \"@chainlink/contracts/src/v0.8/ChainlinkClient.sol\":3102:3164  return sendChainlinkRequestTo(address(s_oracle), req, payment) */\n      swap1\n      pop\n        /* \"@chainlink/contracts/src/v0.8/ChainlinkClient.sol\":2992:3169  function sendChainlinkRequest(Chainlink.Request memory req, uint256 payment) internal returns (bytes32) {... */\n      swap3\n      swap2\n      pop\n      pop\n      jump\t// out\n        /* \"dynamic_nft/test_yongh/test.sol\":9335:9865  function storeRequestParams(... */\n    tag_82:\n        /* \"dynamic_nft/test_yongh/test.sol\":9564:9598  RequestParams memory requestParams */\n      tag_185\n      tag_186\n      jump\t// in\n    tag_185:\n        /* \"dynamic_nft/test_yongh/test.sol\":9636:9648  _locationKey */\n      dup6\n        /* \"dynamic_nft/test_yongh/test.sol\":9608:9621  requestParams */\n      dup2\n        /* \"dynamic_nft/test_yongh/test.sol\":9608:9633  requestParams.locationKey */\n      0x00\n      add\n        /* \"dynamic_nft/test_yongh/test.sol\":9608:9648  requestParams.locationKey = _locationKey */\n      dup2\n      dup2\n      mstore\n      pop\n      pop\n        /* \"dynamic_nft/test_yongh/test.sol\":9683:9692  _endpoint */\n      dup5\n        /* \"dynamic_nft/test_yongh/test.sol\":9658:9671  requestParams */\n      dup2\n        /* \"dynamic_nft/test_yongh/test.sol\":9658:9680  requestParams.endpoint */\n      0x20\n      add\n        /* \"dynamic_nft/test_yongh/test.sol\":9658:9692  requestParams.endpoint = _endpoint */\n      dup2\n      swap1\n      mstore\n      pop\n        /* \"dynamic_nft/test_yongh/test.sol\":9722:9726  _lat */\n      dup4\n        /* \"dynamic_nft/test_yongh/test.sol\":9702:9715  requestParams */\n      dup2\n        /* \"dynamic_nft/test_yongh/test.sol\":9702:9719  requestParams.lat */\n      0x40\n      add\n        /* \"dynamic_nft/test_yongh/test.sol\":9702:9726  requestParams.lat = _lat */\n      dup2\n      swap1\n      mstore\n      pop\n        /* \"dynamic_nft/test_yongh/test.sol\":9756:9760  _lon */\n      dup3\n        /* \"dynamic_nft/test_yongh/test.sol\":9736:9749  requestParams */\n      dup2\n        /* \"dynamic_nft/test_yongh/test.sol\":9736:9753  requestParams.lon */\n      0x60\n      add\n        /* \"dynamic_nft/test_yongh/test.sol\":9736:9760  requestParams.lon = _lon */\n      dup2\n      swap1\n      mstore\n      pop\n        /* \"dynamic_nft/test_yongh/test.sol\":9792:9798  _units */\n      dup2\n        /* \"dynamic_nft/test_yongh/test.sol\":9770:9783  requestParams */\n      dup2\n        /* \"dynamic_nft/test_yongh/test.sol\":9770:9789  requestParams.units */\n      0x80\n      add\n        /* \"dynamic_nft/test_yongh/test.sol\":9770:9798  requestParams.units = _units */\n      dup2\n      swap1\n      mstore\n      pop\n        /* \"dynamic_nft/test_yongh/test.sol\":9845:9858  requestParams */\n      dup1\n        /* \"dynamic_nft/test_yongh/test.sol\":9808:9830  requestIdRequestParams */\n      0x08\n        /* \"dynamic_nft/test_yongh/test.sol\":9808:9842  requestIdRequestParams[_requestId] */\n      0x00\n        /* \"dynamic_nft/test_yongh/test.sol\":9831:9841  _requestId */\n      dup10\n        /* \"dynamic_nft/test_yongh/test.sol\":9808:9842  requestIdRequestParams[_requestId] */\n      dup2\n      mstore\n      0x20\n      add\n      swap1\n      dup2\n      mstore\n      0x20\n      add\n      0x00\n      keccak256\n        /* \"dynamic_nft/test_yongh/test.sol\":9808:9858  requestIdRequestParams[_requestId] = requestParams */\n      0x00\n      dup3\n      add\n      mload\n      dup2\n      0x00\n      add\n      sstore\n      0x20\n      dup3\n      add\n      mload\n      dup2\n      0x01\n      add\n      swap1\n      dup1\n      mload\n      swap1\n      0x20\n      add\n      swap1\n      tag_187\n      swap3\n      swap2\n      swap1\n      tag_188\n      jump\t// in\n    tag_187:\n      pop\n      0x40\n      dup3\n      add\n      mload\n      dup2\n      0x02\n      add\n      swap1\n      dup1\n      mload\n      swap1\n      0x20\n      add\n      swap1\n      tag_189\n      swap3\n      swap2\n      swap1\n      tag_188\n      jump\t// in\n    tag_189:\n      pop\n      0x60\n      dup3\n      add\n      mload\n      dup2\n      0x03\n      add\n      swap1\n      dup1\n      mload\n      swap1\n      0x20\n      add\n      swap1\n      tag_190\n      swap3\n      swap2\n      swap1\n      tag_188\n      jump\t// in\n    tag_190:\n      pop\n      0x80\n      dup3\n      add\n      mload\n      dup2\n      0x04\n      add\n      swap1\n      dup1\n      mload\n      swap1\n      0x20\n      add\n      swap1\n      tag_191\n      swap3\n      swap2\n      swap1\n      tag_188\n      jump\t// in\n    tag_191:\n      pop\n      swap1\n      pop\n      pop\n        /* \"dynamic_nft/test_yongh/test.sol\":9554:9865  {... */\n      pop\n        /* \"dynamic_nft/test_yongh/test.sol\":9335:9865  function storeRequestParams(... */\n      pop\n      pop\n      pop\n      pop\n      pop\n      pop\n      jump\t// out\n        /* \"dynamic_nft/test_yongh/test.sol\":9870:10104  function storeLocationResult(bytes32 _requestId, bytes memory _locationResult) private {... */\n    tag_90:\n        /* \"dynamic_nft/test_yongh/test.sol\":9967:9995  LocationResult memory result */\n      0x00\n        /* \"dynamic_nft/test_yongh/test.sol\":10009:10024  _locationResult */\n      dup2\n        /* \"dynamic_nft/test_yongh/test.sol\":9998:10043  abi.decode(_locationResult, (LocationResult)) */\n      dup1\n      0x20\n      add\n      swap1\n      mload\n      dup2\n      add\n      swap1\n      tag_193\n      swap2\n      swap1\n      tag_194\n      jump\t// in\n    tag_193:\n        /* \"dynamic_nft/test_yongh/test.sol\":9967:10043  LocationResult memory result = abi.decode(_locationResult, (LocationResult)) */\n      swap1\n      pop\n        /* \"dynamic_nft/test_yongh/test.sol\":10091:10097  result */\n      dup1\n        /* \"dynamic_nft/test_yongh/test.sol\":10053:10076  requestIdLocationResult */\n      0x07\n        /* \"dynamic_nft/test_yongh/test.sol\":10053:10088  requestIdLocationResult[_requestId] */\n      0x00\n        /* \"dynamic_nft/test_yongh/test.sol\":10077:10087  _requestId */\n      dup6\n        /* \"dynamic_nft/test_yongh/test.sol\":10053:10088  requestIdLocationResult[_requestId] */\n      dup2\n      mstore\n      0x20\n      add\n      swap1\n      dup2\n      mstore\n      0x20\n      add\n      0x00\n      keccak256\n        /* \"dynamic_nft/test_yongh/test.sol\":10053:10097  requestIdLocationResult[_requestId] = result */\n      0x00\n      dup3\n      add\n      mload\n      dup2\n      0x00\n      add\n      sstore\n      0x20\n      dup3\n      add\n      mload\n      dup2\n      0x01\n      add\n      swap1\n      dup1\n      mload\n      swap1\n      0x20\n      add\n      swap1\n      tag_195\n      swap3\n      swap2\n      swap1\n      tag_188\n      jump\t// in\n    tag_195:\n      pop\n      0x40\n      dup3\n      add\n      mload\n      dup2\n      0x02\n      add\n      exp(0x0100, 0x00)\n      dup2\n      sload\n      dup2\n      0xffff\n      mul\n      not\n      and\n      swap1\n      dup4\n      0xf0\n      shr\n      mul\n      or\n      swap1\n      sstore\n      pop\n      swap1\n      pop\n      pop\n        /* \"dynamic_nft/test_yongh/test.sol\":9957:10104  {... */\n      pop\n        /* \"dynamic_nft/test_yongh/test.sol\":9870:10104  function storeLocationResult(bytes32 _requestId, bytes memory _locationResult) private {... */\n      pop\n      pop\n      jump\t// out\n        /* \"dynamic_nft/test_yongh/test.sol\":10109:10397  function storeCurrentConditionsResult(bytes32 _requestId, bytes memory _currentConditionsResult) private {... */\n    tag_92:\n        /* \"dynamic_nft/test_yongh/test.sol\":10224:10261  CurrentConditionsResult memory result */\n      0x00\n        /* \"dynamic_nft/test_yongh/test.sol\":10275:10299  _currentConditionsResult */\n      dup2\n        /* \"dynamic_nft/test_yongh/test.sol\":10264:10327  abi.decode(_currentConditionsResult, (CurrentConditionsResult)) */\n      dup1\n      0x20\n      add\n      swap1\n      mload\n      dup2\n      add\n      swap1\n      tag_197\n      swap2\n      swap1\n      tag_198\n      jump\t// in\n    tag_197:\n        /* \"dynamic_nft/test_yongh/test.sol\":10224:10327  CurrentConditionsResult memory result = abi.decode(_currentConditionsResult, (CurrentConditionsResult)) */\n      swap1\n      pop\n        /* \"dynamic_nft/test_yongh/test.sol\":10384:10390  result */\n      dup1\n        /* \"dynamic_nft/test_yongh/test.sol\":10337:10369  requestIdCurrentConditionsResult */\n      0x06\n        /* \"dynamic_nft/test_yongh/test.sol\":10337:10381  requestIdCurrentConditionsResult[_requestId] */\n      0x00\n        /* \"dynamic_nft/test_yongh/test.sol\":10370:10380  _requestId */\n      dup6\n        /* \"dynamic_nft/test_yongh/test.sol\":10337:10381  requestIdCurrentConditionsResult[_requestId] */\n      dup2\n      mstore\n      0x20\n      add\n      swap1\n      dup2\n      mstore\n      0x20\n      add\n      0x00\n      keccak256\n        /* \"dynamic_nft/test_yongh/test.sol\":10337:10390  requestIdCurrentConditionsResult[_requestId] = result */\n      0x00\n      dup3\n      add\n      mload\n      dup2\n      0x00\n      add\n      sstore\n      0x20\n      dup3\n      add\n      mload\n      dup2\n      0x01\n      add\n      exp(0x0100, 0x00)\n      dup2\n      sload\n      dup2\n      0xffffff\n      mul\n      not\n      and\n      swap1\n      dup4\n      0xffffff\n      and\n      mul\n      or\n      swap1\n      sstore\n      pop\n      0x40\n      dup3\n      add\n      mload\n      dup2\n      0x01\n      add\n      exp(0x0100, 0x03)\n      dup2\n      sload\n      dup2\n      0xffffff\n      mul\n      not\n      and\n      swap1\n      dup4\n      0xffffff\n      and\n      mul\n      or\n      swap1\n      sstore\n      pop\n      0x60\n      dup3\n      add\n      mload\n      dup2\n      0x01\n      add\n      exp(0x0100, 0x06)\n      dup2\n      sload\n      dup2\n      0xffffff\n      mul\n      not\n      and\n      swap1\n      dup4\n      0xffffff\n      and\n      mul\n      or\n      swap1\n      sstore\n      pop\n      0x80\n      dup3\n      add\n      mload\n      dup2\n      0x01\n      add\n      exp(0x0100, 0x09)\n      dup2\n      sload\n      dup2\n      0xffffff\n      mul\n      not\n      and\n      swap1\n      dup4\n      0xffffff\n      and\n      mul\n      or\n      swap1\n      sstore\n      pop\n      0xa0\n      dup3\n      add\n      mload\n      dup2\n      0x01\n      add\n      exp(0x0100, 0x0c)\n      dup2\n      sload\n      dup2\n      0xffff\n      mul\n      not\n      and\n      swap1\n      dup4\n      0x01\n      signextend\n      0xffff\n      and\n      mul\n      or\n      swap1\n      sstore\n      pop\n      0xc0\n      dup3\n      add\n      mload\n      dup2\n      0x01\n      add\n      exp(0x0100, 0x0e)\n      dup2\n      sload\n      dup2\n      0xffff\n      mul\n      not\n      and\n      swap1\n      dup4\n      0xffff\n      and\n      mul\n      or\n      swap1\n      sstore\n      pop\n      0xe0\n      dup3\n      add\n      mload\n      dup2\n      0x01\n      add\n      exp(0x0100, 0x10)\n      dup2\n      sload\n      dup2\n      0xffff\n      mul\n      not\n      and\n      swap1\n      dup4\n      0xffff\n      and\n      mul\n      or\n      swap1\n      sstore\n      pop\n      0x0100\n      dup3\n      add\n      mload\n      dup2\n      0x01\n      add\n      exp(0x0100, 0x12)\n      dup2\n      sload\n      dup2\n      0xff\n      mul\n      not\n      and\n      swap1\n      dup4\n      0xff\n      and\n      mul\n      or\n      swap1\n      sstore\n      pop\n      0x0120\n      dup3\n      add\n      mload\n      dup2\n      0x01\n      add\n      exp(0x0100, 0x13)\n      dup2\n      sload\n      dup2\n      0xff\n      mul\n      not\n      and\n      swap1\n      dup4\n      0xff\n      and\n      mul\n      or\n      swap1\n      sstore\n      pop\n      0x0140\n      dup3\n      add\n      mload\n      dup2\n      0x01\n      add\n      exp(0x0100, 0x14)\n      dup2\n      sload\n      dup2\n      0xff\n      mul\n      not\n      and\n      swap1\n      dup4\n      0xff\n      and\n      mul\n      or\n      swap1\n      sstore\n      pop\n      0x0160\n      dup3\n      add\n      mload\n      dup2\n      0x01\n      add\n      exp(0x0100, 0x15)\n      dup2\n      sload\n      dup2\n      0xff\n      mul\n      not\n      and\n      swap1\n      dup4\n      0xff\n      and\n      mul\n      or\n      swap1\n      sstore\n      pop\n      swap1\n      pop\n      pop\n        /* \"dynamic_nft/test_yongh/test.sol\":10214:10397  {... */\n      pop\n        /* \"dynamic_nft/test_yongh/test.sol\":10109:10397  function storeCurrentConditionsResult(bytes32 _requestId, bytes memory _currentConditionsResult) private {... */\n      pop\n      pop\n      jump\t// out\n        /* \"@chainlink/contracts/src/v0.8/ChainlinkClient.sol\":8391:8505  function setChainlinkOracle(address oracleAddress) internal {... */\n    tag_95:\n        /* \"@chainlink/contracts/src/v0.8/ChainlinkClient.sol\":8486:8499  oracleAddress */\n      dup1\n        /* \"@chainlink/contracts/src/v0.8/ChainlinkClient.sol\":8457:8465  s_oracle */\n      0x03\n      0x00\n        /* \"@chainlink/contracts/src/v0.8/ChainlinkClient.sol\":8457:8500  s_oracle = OperatorInterface(oracleAddress) */\n      0x0100\n      exp\n      dup2\n      sload\n      dup2\n      0xffffffffffffffffffffffffffffffffffffffff\n      mul\n      not\n      and\n      swap1\n      dup4\n      0xffffffffffffffffffffffffffffffffffffffff\n      and\n      mul\n      or\n      swap1\n      sstore\n      pop\n        /* \"@chainlink/contracts/src/v0.8/ChainlinkClient.sol\":8391:8505  function setChainlinkOracle(address oracleAddress) internal {... */\n      pop\n      jump\t// out\n        /* \"@chainlink/contracts/src/v0.8/ChainlinkClient.sol\":9098:9196  function chainlinkTokenAddress() internal view returns (address) {... */\n    tag_98:\n        /* \"@chainlink/contracts/src/v0.8/ChainlinkClient.sol\":9154:9161  address */\n      0x00\n        /* \"@chainlink/contracts/src/v0.8/ChainlinkClient.sol\":9184:9190  s_link */\n      0x02\n      0x00\n      swap1\n      sload\n      swap1\n      0x0100\n      exp\n      swap1\n      div\n      0xffffffffffffffffffffffffffffffffffffffff\n      and\n        /* \"@chainlink/contracts/src/v0.8/ChainlinkClient.sol\":9169:9191  return address(s_link) */\n      swap1\n      pop\n        /* \"@chainlink/contracts/src/v0.8/ChainlinkClient.sol\":9098:9196  function chainlinkTokenAddress() internal view returns (address) {... */\n      swap1\n      jump\t// out\n        /* \"@chainlink/contracts/src/v0.8/ChainlinkClient.sol\":9325:9426  function chainlinkOracleAddress() internal view returns (address) {... */\n    tag_131:\n        /* \"@chainlink/contracts/src/v0.8/ChainlinkClient.sol\":9382:9389  address */\n      0x00\n        /* \"@chainlink/contracts/src/v0.8/ChainlinkClient.sol\":9412:9420  s_oracle */\n      0x03\n      0x00\n      swap1\n      sload\n      swap1\n      0x0100\n      exp\n      swap1\n      div\n      0xffffffffffffffffffffffffffffffffffffffff\n      and\n        /* \"@chainlink/contracts/src/v0.8/ChainlinkClient.sol\":9397:9421  return address(s_oracle) */\n      swap1\n      pop\n        /* \"@chainlink/contracts/src/v0.8/ChainlinkClient.sol\":9325:9426  function chainlinkOracleAddress() internal view returns (address) {... */\n      swap1\n      jump\t// out\n        /* \"@chainlink/contracts/src/v0.8/Chainlink.sol\":3087:3258  function addUint(... */\n    tag_136:\n        /* \"@chainlink/contracts/src/v0.8/Chainlink.sol\":3195:3221  self.buf.encodeString(key) */\n      tag_203\n        /* \"@chainlink/contracts/src/v0.8/Chainlink.sol\":3217:3220  key */\n      dup3\n        /* \"@chainlink/contracts/src/v0.8/Chainlink.sol\":3195:3199  self */\n      dup5\n        /* \"@chainlink/contracts/src/v0.8/Chainlink.sol\":3195:3203  self.buf */\n      0x80\n      add\n      mload\n        /* \"@chainlink/contracts/src/v0.8/Chainlink.sol\":3195:3216  self.buf.encodeString */\n      tag_179\n      swap1\n        /* \"@chainlink/contracts/src/v0.8/Chainlink.sol\":3195:3221  self.buf.encodeString(key) */\n      swap2\n      swap1\n      0xffffffff\n      and\n      jump\t// in\n    tag_203:\n        /* \"@chainlink/contracts/src/v0.8/Chainlink.sol\":3227:3253  self.buf.encodeUInt(value) */\n      tag_204\n        /* \"@chainlink/contracts/src/v0.8/Chainlink.sol\":3247:3252  value */\n      dup2\n        /* \"@chainlink/contracts/src/v0.8/Chainlink.sol\":3227:3231  self */\n      dup5\n        /* \"@chainlink/contracts/src/v0.8/Chainlink.sol\":3227:3235  self.buf */\n      0x80\n      add\n      mload\n        /* \"@chainlink/contracts/src/v0.8/Chainlink.sol\":3227:3246  self.buf.encodeUInt */\n      tag_205\n      swap1\n        /* \"@chainlink/contracts/src/v0.8/Chainlink.sol\":3227:3253  self.buf.encodeUInt(value) */\n      swap2\n      swap1\n      0xffffffff\n      and\n      jump\t// in\n    tag_204:\n        /* \"@chainlink/contracts/src/v0.8/Chainlink.sol\":3087:3258  function addUint(... */\n      pop\n      pop\n      pop\n      jump\t// out\n        /* \"@chainlink/contracts/src/v0.8/Chainlink.sol\":987:1338  function initialize(... */\n    tag_176:\n        /* \"@chainlink/contracts/src/v0.8/Chainlink.sol\":1129:1153  Chainlink.Request memory */\n      tag_206\n      tag_172\n      jump\t// in\n    tag_206:\n        /* \"@chainlink/contracts/src/v0.8/Chainlink.sol\":1161:1210  BufferChainlink.init(self.buf, defaultBufferSize) */\n      tag_208\n        /* \"@chainlink/contracts/src/v0.8/Chainlink.sol\":1182:1186  self */\n      dup6\n        /* \"@chainlink/contracts/src/v0.8/Chainlink.sol\":1182:1190  self.buf */\n      0x80\n      add\n      mload\n        /* \"@chainlink/contracts/src/v0.8/Chainlink.sol\":361:364  256 */\n      0x0100\n        /* \"@chainlink/contracts/src/v0.8/Chainlink.sol\":1161:1181  BufferChainlink.init */\n      tag_209\n        /* \"@chainlink/contracts/src/v0.8/Chainlink.sol\":1161:1210  BufferChainlink.init(self.buf, defaultBufferSize) */\n      jump\t// in\n    tag_208:\n      pop\n        /* \"@chainlink/contracts/src/v0.8/Chainlink.sol\":1226:1231  jobId */\n      dup4\n        /* \"@chainlink/contracts/src/v0.8/Chainlink.sol\":1216:1220  self */\n      dup6\n        /* \"@chainlink/contracts/src/v0.8/Chainlink.sol\":1216:1223  self.id */\n      0x00\n      add\n        /* \"@chainlink/contracts/src/v0.8/Chainlink.sol\":1216:1231  self.id = jobId */\n      dup2\n      dup2\n      mstore\n      pop\n      pop\n        /* \"@chainlink/contracts/src/v0.8/Chainlink.sol\":1260:1272  callbackAddr */\n      dup3\n        /* \"@chainlink/contracts/src/v0.8/Chainlink.sol\":1237:1241  self */\n      dup6\n        /* \"@chainlink/contracts/src/v0.8/Chainlink.sol\":1237:1257  self.callbackAddress */\n      0x20\n      add\n        /* \"@chainlink/contracts/src/v0.8/Chainlink.sol\":1237:1272  self.callbackAddress = callbackAddr */\n      swap1\n      0xffffffffffffffffffffffffffffffffffffffff\n      and\n      swap1\n      dup2\n      0xffffffffffffffffffffffffffffffffffffffff\n      and\n      dup2\n      mstore\n      pop\n      pop\n        /* \"@chainlink/contracts/src/v0.8/Chainlink.sol\":1304:1316  callbackFunc */\n      dup2\n        /* \"@chainlink/contracts/src/v0.8/Chainlink.sol\":1278:1282  self */\n      dup6\n        /* \"@chainlink/contracts/src/v0.8/Chainlink.sol\":1278:1301  self.callbackFunctionId */\n      0x40\n      add\n        /* \"@chainlink/contracts/src/v0.8/Chainlink.sol\":1278:1316  self.callbackFunctionId = callbackFunc */\n      swap1\n      not(0xffffffffffffffffffffffffffffffffffffffffffffffffffffffff)\n      and\n      swap1\n      dup2\n      not(0xffffffffffffffffffffffffffffffffffffffffffffffffffffffff)\n      and\n      dup2\n      mstore\n      pop\n      pop\n        /* \"@chainlink/contracts/src/v0.8/Chainlink.sol\":1329:1333  self */\n      dup5\n        /* \"@chainlink/contracts/src/v0.8/Chainlink.sol\":1322:1333  return self */\n      swap1\n      pop\n        /* \"@chainlink/contracts/src/v0.8/Chainlink.sol\":987:1338  function initialize(... */\n      swap5\n      swap4\n      pop\n      pop\n      pop\n      pop\n      jump\t// out\n        /* \"@chainlink/contracts/src/v0.8/vendor/CBORChainlink.sol\":2777:2981  function encodeString(BufferChainlink.buffer memory buf, string memory value) internal pure {... */\n    tag_179:\n        /* \"@chainlink/contracts/src/v0.8/vendor/CBORChainlink.sol\":2875:2946  encodeFixedNumeric(buf, MAJOR_TYPE_STRING, uint64(bytes(value).length)) */\n      tag_211\n        /* \"@chainlink/contracts/src/v0.8/vendor/CBORChainlink.sol\":2894:2897  buf */\n      dup3\n        /* \"@chainlink/contracts/src/v0.8/vendor/CBORChainlink.sol\":383:384  3 */\n      0x03\n        /* \"@chainlink/contracts/src/v0.8/vendor/CBORChainlink.sol\":2931:2936  value */\n      dup4\n        /* \"@chainlink/contracts/src/v0.8/vendor/CBORChainlink.sol\":2925:2944  bytes(value).length */\n      mload\n        /* \"@chainlink/contracts/src/v0.8/vendor/CBORChainlink.sol\":2875:2893  encodeFixedNumeric */\n      tag_212\n        /* \"@chainlink/contracts/src/v0.8/vendor/CBORChainlink.sol\":2875:2946  encodeFixedNumeric(buf, MAJOR_TYPE_STRING, uint64(bytes(value).length)) */\n      jump\t// in\n    tag_211:\n        /* \"@chainlink/contracts/src/v0.8/vendor/CBORChainlink.sol\":2952:2976  buf.append(bytes(value)) */\n      tag_213\n        /* \"@chainlink/contracts/src/v0.8/vendor/CBORChainlink.sol\":2969:2974  value */\n      dup2\n        /* \"@chainlink/contracts/src/v0.8/vendor/CBORChainlink.sol\":2952:2955  buf */\n      dup4\n        /* \"@chainlink/contracts/src/v0.8/vendor/CBORChainlink.sol\":2952:2962  buf.append */\n      tag_214\n      swap1\n        /* \"@chainlink/contracts/src/v0.8/vendor/CBORChainlink.sol\":2952:2976  buf.append(bytes(value)) */\n      swap2\n      swap1\n      0xffffffff\n      and\n      jump\t// in\n    tag_213:\n      pop\n        /* \"@chainlink/contracts/src/v0.8/vendor/CBORChainlink.sol\":2777:2981  function encodeString(BufferChainlink.buffer memory buf, string memory value) internal pure {... */\n      pop\n      pop\n      jump\t// out\n        /* \"@chainlink/contracts/src/v0.8/ChainlinkClient.sol\":3687:4443  function sendChainlinkRequestTo(... */\n    tag_183:\n        /* \"@chainlink/contracts/src/v0.8/ChainlinkClient.sol\":3823:3840  bytes32 requestId */\n      0x00\n        /* \"@chainlink/contracts/src/v0.8/ChainlinkClient.sol\":3848:3861  uint256 nonce */\n      dup1\n        /* \"@chainlink/contracts/src/v0.8/ChainlinkClient.sol\":3864:3878  s_requestCount */\n      sload(0x04)\n        /* \"@chainlink/contracts/src/v0.8/ChainlinkClient.sol\":3848:3878  uint256 nonce = s_requestCount */\n      swap1\n      pop\n        /* \"@chainlink/contracts/src/v0.8/ChainlinkClient.sol\":3909:3910  1 */\n      0x01\n        /* \"@chainlink/contracts/src/v0.8/ChainlinkClient.sol\":3901:3906  nonce */\n      dup2\n        /* \"@chainlink/contracts/src/v0.8/ChainlinkClient.sol\":3901:3910  nonce + 1 */\n      tag_216\n      swap2\n      swap1\n      tag_217\n      jump\t// in\n    tag_216:\n        /* \"@chainlink/contracts/src/v0.8/ChainlinkClient.sol\":3884:3898  s_requestCount */\n      0x04\n        /* \"@chainlink/contracts/src/v0.8/ChainlinkClient.sol\":3884:3910  s_requestCount = nonce + 1 */\n      dup2\n      swap1\n      sstore\n      pop\n        /* \"@chainlink/contracts/src/v0.8/ChainlinkClient.sol\":3916:3943  bytes memory encodedRequest */\n      0x00\n        /* \"@chainlink/contracts/src/v0.8/ChainlinkClient.sol\":3976:4024  ChainlinkRequestInterface.oracleRequest.selector */\n      shl(0xe0, 0x40429946)\n        /* \"@chainlink/contracts/src/v0.8/ChainlinkClient.sol\":784:785  0 */\n      0x00\n        /* \"@chainlink/contracts/src/v0.8/ChainlinkClient.sol\":728:729  0 */\n      dup1\n        /* \"@chainlink/contracts/src/v0.8/ChainlinkClient.sol\":4245:4248  req */\n      dup8\n        /* \"@chainlink/contracts/src/v0.8/ChainlinkClient.sol\":4245:4251  req.id */\n      0x00\n      add\n      mload\n        /* \"@chainlink/contracts/src/v0.8/ChainlinkClient.sol\":4267:4271  this */\n      address\n        /* \"@chainlink/contracts/src/v0.8/ChainlinkClient.sol\":4280:4283  req */\n      dup10\n        /* \"@chainlink/contracts/src/v0.8/ChainlinkClient.sol\":4280:4302  req.callbackFunctionId */\n      0x40\n      add\n      mload\n        /* \"@chainlink/contracts/src/v0.8/ChainlinkClient.sol\":4310:4315  nonce */\n      dup8\n        /* \"@chainlink/contracts/src/v0.8/ChainlinkClient.sol\":837:838  1 */\n      0x01\n        /* \"@chainlink/contracts/src/v0.8/ChainlinkClient.sol\":4350:4353  req */\n      dup13\n        /* \"@chainlink/contracts/src/v0.8/ChainlinkClient.sol\":4350:4357  req.buf */\n      0x80\n      add\n      mload\n        /* \"@chainlink/contracts/src/v0.8/ChainlinkClient.sol\":4350:4361  req.buf.buf */\n      0x00\n      add\n      mload\n        /* \"@chainlink/contracts/src/v0.8/ChainlinkClient.sol\":3946:4367  abi.encodeWithSelector(... */\n      add(0x24, mload(0x40))\n      tag_218\n      swap9\n      swap8\n      swap7\n      swap6\n      swap5\n      swap4\n      swap3\n      swap2\n      swap1\n      tag_219\n      jump\t// in\n    tag_218:\n      mload(0x40)\n      0x20\n      dup2\n      dup4\n      sub\n      sub\n      dup2\n      mstore\n      swap1\n      0x40\n      mstore\n      swap1\n      not(0xffffffffffffffffffffffffffffffffffffffffffffffffffffffff)\n      and\n      0x20\n      dup3\n      add\n      dup1\n      mload\n      0xffffffffffffffffffffffffffffffffffffffffffffffffffffffff\n      dup4\n      dup2\n      dup4\n      and\n      or\n      dup4\n      mstore\n      pop\n      pop\n      pop\n      pop\n        /* \"@chainlink/contracts/src/v0.8/ChainlinkClient.sol\":3916:4367  bytes memory encodedRequest = abi.encodeWithSelector(... */\n      swap1\n      pop\n        /* \"@chainlink/contracts/src/v0.8/ChainlinkClient.sol\":4380:4438  _rawRequest(oracleAddress, nonce, payment, encodedRequest) */\n      tag_220\n        /* \"@chainlink/contracts/src/v0.8/ChainlinkClient.sol\":4392:4405  oracleAddress */\n      dup7\n        /* \"@chainlink/contracts/src/v0.8/ChainlinkClient.sol\":4407:4412  nonce */\n      dup4\n        /* \"@chainlink/contracts/src/v0.8/ChainlinkClient.sol\":4414:4421  payment */\n      dup7\n        /* \"@chainlink/contracts/src/v0.8/ChainlinkClient.sol\":4423:4437  encodedRequest */\n      dup5\n        /* \"@chainlink/contracts/src/v0.8/ChainlinkClient.sol\":4380:4391  _rawRequest */\n      tag_221\n        /* \"@chainlink/contracts/src/v0.8/ChainlinkClient.sol\":4380:4438  _rawRequest(oracleAddress, nonce, payment, encodedRequest) */\n      jump\t// in\n    tag_220:\n        /* \"@chainlink/contracts/src/v0.8/ChainlinkClient.sol\":4373:4438  return _rawRequest(oracleAddress, nonce, payment, encodedRequest) */\n      swap3\n      pop\n      pop\n      pop\n        /* \"@chainlink/contracts/src/v0.8/ChainlinkClient.sol\":3687:4443  function sendChainlinkRequestTo(... */\n      swap4\n      swap3\n      pop\n      pop\n      pop\n      jump\t// out\n        /* \"@chainlink/contracts/src/v0.8/vendor/CBORChainlink.sol\":1464:1700  function encodeUInt(BufferChainlink.buffer memory buf, uint value) internal pure {... */\n    tag_205:\n        /* \"@chainlink/contracts/src/v0.8/vendor/CBORChainlink.sol\":1562:1580  0xFFFFFFFFFFFFFFFF */\n      0xffffffffffffffff\n        /* \"@chainlink/contracts/src/v0.8/vendor/CBORChainlink.sol\":1554:1559  value */\n      dup2\n        /* \"@chainlink/contracts/src/v0.8/vendor/CBORChainlink.sol\":1554:1580  value > 0xFFFFFFFFFFFFFFFF */\n      gt\n        /* \"@chainlink/contracts/src/v0.8/vendor/CBORChainlink.sol\":1551:1696  if(value > 0xFFFFFFFFFFFFFFFF) {... */\n      iszero\n      tag_223\n      jumpi\n        /* \"@chainlink/contracts/src/v0.8/vendor/CBORChainlink.sol\":1590:1614  encodeBigNum(buf, value) */\n      tag_224\n        /* \"@chainlink/contracts/src/v0.8/vendor/CBORChainlink.sol\":1603:1606  buf */\n      dup3\n        /* \"@chainlink/contracts/src/v0.8/vendor/CBORChainlink.sol\":1608:1613  value */\n      dup3\n        /* \"@chainlink/contracts/src/v0.8/vendor/CBORChainlink.sol\":1590:1602  encodeBigNum */\n      tag_225\n        /* \"@chainlink/contracts/src/v0.8/vendor/CBORChainlink.sol\":1590:1614  encodeBigNum(buf, value) */\n      jump\t// in\n    tag_224:\n        /* \"@chainlink/contracts/src/v0.8/vendor/CBORChainlink.sol\":1551:1696  if(value > 0xFFFFFFFFFFFFFFFF) {... */\n      jump(tag_226)\n    tag_223:\n        /* \"@chainlink/contracts/src/v0.8/vendor/CBORChainlink.sol\":1635:1689  encodeFixedNumeric(buf, MAJOR_TYPE_INT, uint64(value)) */\n      tag_227\n        /* \"@chainlink/contracts/src/v0.8/vendor/CBORChainlink.sol\":1654:1657  buf */\n      dup3\n        /* \"@chainlink/contracts/src/v0.8/vendor/CBORChainlink.sol\":234:235  0 */\n      0x00\n        /* \"@chainlink/contracts/src/v0.8/vendor/CBORChainlink.sol\":1682:1687  value */\n      dup4\n        /* \"@chainlink/contracts/src/v0.8/vendor/CBORChainlink.sol\":1635:1653  encodeFixedNumeric */\n      tag_212\n        /* \"@chainlink/contracts/src/v0.8/vendor/CBORChainlink.sol\":1635:1689  encodeFixedNumeric(buf, MAJOR_TYPE_INT, uint64(value)) */\n      jump\t// in\n    tag_227:\n        /* \"@chainlink/contracts/src/v0.8/vendor/CBORChainlink.sol\":1551:1696  if(value > 0xFFFFFFFFFFFFFFFF) {... */\n    tag_226:\n        /* \"@chainlink/contracts/src/v0.8/vendor/CBORChainlink.sol\":1464:1700  function encodeUInt(BufferChainlink.buffer memory buf, uint value) internal pure {... */\n      pop\n      pop\n      jump\t// out\n        /* \"@chainlink/contracts/src/v0.8/vendor/BufferChainlink.sol\":1001:1400  function init(buffer memory buf, uint256 capacity) internal pure returns (buffer memory) {... */\n    tag_209:\n        /* \"@chainlink/contracts/src/v0.8/vendor/BufferChainlink.sol\":1075:1088  buffer memory */\n      tag_228\n      tag_229\n      jump\t// in\n    tag_228:\n        /* \"@chainlink/contracts/src/v0.8/vendor/BufferChainlink.sol\":1117:1118  0 */\n      0x00\n        /* \"@chainlink/contracts/src/v0.8/vendor/BufferChainlink.sol\":1111:1113  32 */\n      0x20\n        /* \"@chainlink/contracts/src/v0.8/vendor/BufferChainlink.sol\":1100:1108  capacity */\n      dup4\n        /* \"@chainlink/contracts/src/v0.8/vendor/BufferChainlink.sol\":1100:1113  capacity % 32 */\n      tag_231\n      swap2\n      swap1\n      tag_232\n      jump\t// in\n    tag_231:\n        /* \"@chainlink/contracts/src/v0.8/vendor/BufferChainlink.sol\":1100:1118  capacity % 32 != 0 */\n      eq\n        /* \"@chainlink/contracts/src/v0.8/vendor/BufferChainlink.sol\":1096:1167  if (capacity % 32 != 0) {... */\n      tag_233\n      jumpi\n        /* \"@chainlink/contracts/src/v0.8/vendor/BufferChainlink.sol\":1157:1159  32 */\n      0x20\n        /* \"@chainlink/contracts/src/v0.8/vendor/BufferChainlink.sol\":1146:1154  capacity */\n      dup3\n        /* \"@chainlink/contracts/src/v0.8/vendor/BufferChainlink.sol\":1146:1159  capacity % 32 */\n      tag_234\n      swap2\n      swap1\n      tag_232\n      jump\t// in\n    tag_234:\n        /* \"@chainlink/contracts/src/v0.8/vendor/BufferChainlink.sol\":1140:1142  32 */\n      0x20\n        /* \"@chainlink/contracts/src/v0.8/vendor/BufferChainlink.sol\":1140:1160  32 - (capacity % 32) */\n      tag_235\n      swap2\n      swap1\n      tag_236\n      jump\t// in\n    tag_235:\n        /* \"@chainlink/contracts/src/v0.8/vendor/BufferChainlink.sol\":1128:1160  capacity += 32 - (capacity % 32) */\n      dup3\n      tag_237\n      swap2\n      swap1\n      tag_217\n      jump\t// in\n    tag_237:\n      swap2\n      pop\n        /* \"@chainlink/contracts/src/v0.8/vendor/BufferChainlink.sol\":1096:1167  if (capacity % 32 != 0) {... */\n    tag_233:\n        /* \"@chainlink/contracts/src/v0.8/vendor/BufferChainlink.sol\":1229:1237  capacity */\n      dup2\n        /* \"@chainlink/contracts/src/v0.8/vendor/BufferChainlink.sol\":1214:1217  buf */\n      dup4\n        /* \"@chainlink/contracts/src/v0.8/vendor/BufferChainlink.sol\":1214:1226  buf.capacity */\n      0x20\n      add\n        /* \"@chainlink/contracts/src/v0.8/vendor/BufferChainlink.sol\":1214:1237  buf.capacity = capacity */\n      dup2\n      dup2\n      mstore\n      pop\n      pop\n        /* \"@chainlink/contracts/src/v0.8/vendor/BufferChainlink.sol\":1277:1281  0x40 */\n      0x40\n        /* \"@chainlink/contracts/src/v0.8/vendor/BufferChainlink.sol\":1271:1282  mload(0x40) */\n      mload\n        /* \"@chainlink/contracts/src/v0.8/vendor/BufferChainlink.sol\":1301:1304  ptr */\n      dup1\n        /* \"@chainlink/contracts/src/v0.8/vendor/BufferChainlink.sol\":1296:1299  buf */\n      dup5\n        /* \"@chainlink/contracts/src/v0.8/vendor/BufferChainlink.sol\":1289:1305  mstore(buf, ptr) */\n      mstore\n        /* \"@chainlink/contracts/src/v0.8/vendor/BufferChainlink.sol\":1324:1325  0 */\n      0x00\n        /* \"@chainlink/contracts/src/v0.8/vendor/BufferChainlink.sol\":1319:1322  ptr */\n      dup2\n        /* \"@chainlink/contracts/src/v0.8/vendor/BufferChainlink.sol\":1312:1326  mstore(ptr, 0) */\n      mstore\n        /* \"@chainlink/contracts/src/v0.8/vendor/BufferChainlink.sol\":1363:1371  capacity */\n      dup3\n        /* \"@chainlink/contracts/src/v0.8/vendor/BufferChainlink.sol\":1358:1361  ptr */\n      dup2\n        /* \"@chainlink/contracts/src/v0.8/vendor/BufferChainlink.sol\":1354:1372  add(ptr, capacity) */\n      add\n        /* \"@chainlink/contracts/src/v0.8/vendor/BufferChainlink.sol\":1350:1352  32 */\n      0x20\n        /* \"@chainlink/contracts/src/v0.8/vendor/BufferChainlink.sol\":1346:1373  add(32, add(ptr, capacity)) */\n      add\n        /* \"@chainlink/contracts/src/v0.8/vendor/BufferChainlink.sol\":1340:1344  0x40 */\n      0x40\n        /* \"@chainlink/contracts/src/v0.8/vendor/BufferChainlink.sol\":1333:1374  mstore(0x40, add(32, add(ptr, capacity))) */\n      mstore\n        /* \"@chainlink/contracts/src/v0.8/vendor/BufferChainlink.sol\":1252:1380  {... */\n      pop\n        /* \"@chainlink/contracts/src/v0.8/vendor/BufferChainlink.sol\":1392:1395  buf */\n      dup3\n        /* \"@chainlink/contracts/src/v0.8/vendor/BufferChainlink.sol\":1385:1395  return buf */\n      swap1\n      pop\n        /* \"@chainlink/contracts/src/v0.8/vendor/BufferChainlink.sol\":1001:1400  function init(buffer memory buf, uint256 capacity) internal pure returns (buffer memory) {... */\n      swap3\n      swap2\n      pop\n      pop\n      jump\t// out\n        /* \"@chainlink/contracts/src/v0.8/vendor/CBORChainlink.sol\":682:1307  function encodeFixedNumeric(BufferChainlink.buffer memory buf, uint8 major, uint64 value) private pure {... */\n    tag_212:\n        /* \"@chainlink/contracts/src/v0.8/vendor/CBORChainlink.sol\":803:805  23 */\n      0x17\n        /* \"@chainlink/contracts/src/v0.8/vendor/CBORChainlink.sol\":794:799  value */\n      dup2\n        /* \"@chainlink/contracts/src/v0.8/vendor/CBORChainlink.sol\":794:805  value <= 23 */\n      0xffffffffffffffff\n      and\n      gt\n        /* \"@chainlink/contracts/src/v0.8/vendor/CBORChainlink.sol\":791:1303  if(value <= 23) {... */\n      tag_239\n      jumpi\n        /* \"@chainlink/contracts/src/v0.8/vendor/CBORChainlink.sol\":815:859  buf.appendUint8(uint8((major << 5) | value)) */\n      tag_240\n        /* \"@chainlink/contracts/src/v0.8/vendor/CBORChainlink.sol\":852:857  value */\n      dup2\n        /* \"@chainlink/contracts/src/v0.8/vendor/CBORChainlink.sol\":847:848  5 */\n      0x05\n        /* \"@chainlink/contracts/src/v0.8/vendor/CBORChainlink.sol\":838:843  major */\n      dup5\n        /* \"@chainlink/contracts/src/v0.8/vendor/CBORChainlink.sol\":838:848  major << 5 */\n      0xff\n      and\n      swap1\n      shl\n        /* \"@chainlink/contracts/src/v0.8/vendor/CBORChainlink.sol\":837:857  (major << 5) | value */\n      0xff\n      and\n      or\n        /* \"@chainlink/contracts/src/v0.8/vendor/CBORChainlink.sol\":815:818  buf */\n      dup5\n        /* \"@chainlink/contracts/src/v0.8/vendor/CBORChainlink.sol\":815:830  buf.appendUint8 */\n      tag_241\n      swap1\n        /* \"@chainlink/contracts/src/v0.8/vendor/CBORChainlink.sol\":815:859  buf.appendUint8(uint8((major << 5) | value)) */\n      swap2\n      swap1\n      0xffffffff\n      and\n      jump\t// in\n    tag_240:\n      pop\n        /* \"@chainlink/contracts/src/v0.8/vendor/CBORChainlink.sol\":791:1303  if(value <= 23) {... */\n      jump(tag_242)\n    tag_239:\n        /* \"@chainlink/contracts/src/v0.8/vendor/CBORChainlink.sol\":885:889  0xFF */\n      0xff\n        /* \"@chainlink/contracts/src/v0.8/vendor/CBORChainlink.sol\":876:881  value */\n      dup2\n        /* \"@chainlink/contracts/src/v0.8/vendor/CBORChainlink.sol\":876:889  value <= 0xFF */\n      0xffffffffffffffff\n      and\n      gt\n        /* \"@chainlink/contracts/src/v0.8/vendor/CBORChainlink.sol\":872:1303  if (value <= 0xFF) {... */\n      tag_243\n      jumpi\n        /* \"@chainlink/contracts/src/v0.8/vendor/CBORChainlink.sol\":899:940  buf.appendUint8(uint8((major << 5) | 24)) */\n      tag_244\n        /* \"@chainlink/contracts/src/v0.8/vendor/CBORChainlink.sol\":936:938  24 */\n      0x18\n        /* \"@chainlink/contracts/src/v0.8/vendor/CBORChainlink.sol\":931:932  5 */\n      0x05\n        /* \"@chainlink/contracts/src/v0.8/vendor/CBORChainlink.sol\":922:927  major */\n      dup5\n        /* \"@chainlink/contracts/src/v0.8/vendor/CBORChainlink.sol\":922:932  major << 5 */\n      0xff\n      and\n      swap1\n      shl\n        /* \"@chainlink/contracts/src/v0.8/vendor/CBORChainlink.sol\":921:938  (major << 5) | 24 */\n      or\n        /* \"@chainlink/contracts/src/v0.8/vendor/CBORChainlink.sol\":899:902  buf */\n      dup5\n        /* \"@chainlink/contracts/src/v0.8/vendor/CBORChainlink.sol\":899:914  buf.appendUint8 */\n      tag_241\n      swap1\n        /* \"@chainlink/contracts/src/v0.8/vendor/CBORChainlink.sol\":899:940  buf.appendUint8(uint8((major << 5) | 24)) */\n      swap2\n      swap1\n      0xffffffff\n      and\n      jump\t// in\n    tag_244:\n      pop\n        /* \"@chainlink/contracts/src/v0.8/vendor/CBORChainlink.sol\":948:971  buf.appendInt(value, 1) */\n      tag_245\n        /* \"@chainlink/contracts/src/v0.8/vendor/CBORChainlink.sol\":962:967  value */\n      dup2\n        /* \"@chainlink/contracts/src/v0.8/vendor/CBORChainlink.sol\":948:971  buf.appendInt(value, 1) */\n      0xffffffffffffffff\n      and\n        /* \"@chainlink/contracts/src/v0.8/vendor/CBORChainlink.sol\":969:970  1 */\n      0x01\n        /* \"@chainlink/contracts/src/v0.8/vendor/CBORChainlink.sol\":948:951  buf */\n      dup6\n        /* \"@chainlink/contracts/src/v0.8/vendor/CBORChainlink.sol\":948:961  buf.appendInt */\n      tag_246\n      swap1\n        /* \"@chainlink/contracts/src/v0.8/vendor/CBORChainlink.sol\":948:971  buf.appendInt(value, 1) */\n      swap3\n      swap2\n      swap1\n      0xffffffff\n      and\n      jump\t// in\n    tag_245:\n      pop\n        /* \"@chainlink/contracts/src/v0.8/vendor/CBORChainlink.sol\":872:1303  if (value <= 0xFF) {... */\n      jump(tag_247)\n    tag_243:\n        /* \"@chainlink/contracts/src/v0.8/vendor/CBORChainlink.sol\":997:1003  0xFFFF */\n      0xffff\n        /* \"@chainlink/contracts/src/v0.8/vendor/CBORChainlink.sol\":988:993  value */\n      dup2\n        /* \"@chainlink/contracts/src/v0.8/vendor/CBORChainlink.sol\":988:1003  value <= 0xFFFF */\n      0xffffffffffffffff\n      and\n      gt\n        /* \"@chainlink/contracts/src/v0.8/vendor/CBORChainlink.sol\":984:1303  if (value <= 0xFFFF) {... */\n      tag_248\n      jumpi\n        /* \"@chainlink/contracts/src/v0.8/vendor/CBORChainlink.sol\":1013:1054  buf.appendUint8(uint8((major << 5) | 25)) */\n      tag_249\n        /* \"@chainlink/contracts/src/v0.8/vendor/CBORChainlink.sol\":1050:1052  25 */\n      0x19\n        /* \"@chainlink/contracts/src/v0.8/vendor/CBORChainlink.sol\":1045:1046  5 */\n      0x05\n        /* \"@chainlink/contracts/src/v0.8/vendor/CBORChainlink.sol\":1036:1041  major */\n      dup5\n        /* \"@chainlink/contracts/src/v0.8/vendor/CBORChainlink.sol\":1036:1046  major << 5 */\n      0xff\n      and\n      swap1\n      shl\n        /* \"@chainlink/contracts/src/v0.8/vendor/CBORChainlink.sol\":1035:1052  (major << 5) | 25 */\n      or\n        /* \"@chainlink/contracts/src/v0.8/vendor/CBORChainlink.sol\":1013:1016  buf */\n      dup5\n        /* \"@chainlink/contracts/src/v0.8/vendor/CBORChainlink.sol\":1013:1028  buf.appendUint8 */\n      tag_241\n      swap1\n        /* \"@chainlink/contracts/src/v0.8/vendor/CBORChainlink.sol\":1013:1054  buf.appendUint8(uint8((major << 5) | 25)) */\n      swap2\n      swap1\n      0xffffffff\n      and\n      jump\t// in\n    tag_249:\n      pop\n        /* \"@chainlink/contracts/src/v0.8/vendor/CBORChainlink.sol\":1062:1085  buf.appendInt(value, 2) */\n      tag_250\n        /* \"@chainlink/contracts/src/v0.8/vendor/CBORChainlink.sol\":1076:1081  value */\n      dup2\n        /* \"@chainlink/contracts/src/v0.8/vendor/CBORChainlink.sol\":1062:1085  buf.appendInt(value, 2) */\n      0xffffffffffffffff\n      and\n        /* \"@chainlink/contracts/src/v0.8/vendor/CBORChainlink.sol\":1083:1084  2 */\n      0x02\n        /* \"@chainlink/contracts/src/v0.8/vendor/CBORChainlink.sol\":1062:1065  buf */\n      dup6\n        /* \"@chainlink/contracts/src/v0.8/vendor/CBORChainlink.sol\":1062:1075  buf.appendInt */\n      tag_246\n      swap1\n        /* \"@chainlink/contracts/src/v0.8/vendor/CBORChainlink.sol\":1062:1085  buf.appendInt(value, 2) */\n      swap3\n      swap2\n      swap1\n      0xffffffff\n      and\n      jump\t// in\n    tag_250:\n      pop\n        /* \"@chainlink/contracts/src/v0.8/vendor/CBORChainlink.sol\":984:1303  if (value <= 0xFFFF) {... */\n      jump(tag_251)\n    tag_248:\n        /* \"@chainlink/contracts/src/v0.8/vendor/CBORChainlink.sol\":1111:1121  0xFFFFFFFF */\n      0xffffffff\n        /* \"@chainlink/contracts/src/v0.8/vendor/CBORChainlink.sol\":1102:1107  value */\n      dup2\n        /* \"@chainlink/contracts/src/v0.8/vendor/CBORChainlink.sol\":1102:1121  value <= 0xFFFFFFFF */\n      0xffffffffffffffff\n      and\n      gt\n        /* \"@chainlink/contracts/src/v0.8/vendor/CBORChainlink.sol\":1098:1303  if (value <= 0xFFFFFFFF) {... */\n      tag_252\n      jumpi\n        /* \"@chainlink/contracts/src/v0.8/vendor/CBORChainlink.sol\":1131:1172  buf.appendUint8(uint8((major << 5) | 26)) */\n      tag_253\n        /* \"@chainlink/contracts/src/v0.8/vendor/CBORChainlink.sol\":1168:1170  26 */\n      0x1a\n        /* \"@chainlink/contracts/src/v0.8/vendor/CBORChainlink.sol\":1163:1164  5 */\n      0x05\n        /* \"@chainlink/contracts/src/v0.8/vendor/CBORChainlink.sol\":1154:1159  major */\n      dup5\n        /* \"@chainlink/contracts/src/v0.8/vendor/CBORChainlink.sol\":1154:1164  major << 5 */\n      0xff\n      and\n      swap1\n      shl\n        /* \"@chainlink/contracts/src/v0.8/vendor/CBORChainlink.sol\":1153:1170  (major << 5) | 26 */\n      or\n        /* \"@chainlink/contracts/src/v0.8/vendor/CBORChainlink.sol\":1131:1134  buf */\n      dup5\n        /* \"@chainlink/contracts/src/v0.8/vendor/CBORChainlink.sol\":1131:1146  buf.appendUint8 */\n      tag_241\n      swap1\n        /* \"@chainlink/contracts/src/v0.8/vendor/CBORChainlink.sol\":1131:1172  buf.appendUint8(uint8((major << 5) | 26)) */\n      swap2\n      swap1\n      0xffffffff\n      and\n      jump\t// in\n    tag_253:\n      pop\n        /* \"@chainlink/contracts/src/v0.8/vendor/CBORChainlink.sol\":1180:1203  buf.appendInt(value, 4) */\n      tag_254\n        /* \"@chainlink/contracts/src/v0.8/vendor/CBORChainlink.sol\":1194:1199  value */\n      dup2\n        /* \"@chainlink/contracts/src/v0.8/vendor/CBORChainlink.sol\":1180:1203  buf.appendInt(value, 4) */\n      0xffffffffffffffff\n      and\n        /* \"@chainlink/contracts/src/v0.8/vendor/CBORChainlink.sol\":1201:1202  4 */\n      0x04\n        /* \"@chainlink/contracts/src/v0.8/vendor/CBORChainlink.sol\":1180:1183  buf */\n      dup6\n        /* \"@chainlink/contracts/src/v0.8/vendor/CBORChainlink.sol\":1180:1193  buf.appendInt */\n      tag_246\n      swap1\n        /* \"@chainlink/contracts/src/v0.8/vendor/CBORChainlink.sol\":1180:1203  buf.appendInt(value, 4) */\n      swap3\n      swap2\n      swap1\n      0xffffffff\n      and\n      jump\t// in\n    tag_254:\n      pop\n        /* \"@chainlink/contracts/src/v0.8/vendor/CBORChainlink.sol\":1098:1303  if (value <= 0xFFFFFFFF) {... */\n      jump(tag_255)\n    tag_252:\n        /* \"@chainlink/contracts/src/v0.8/vendor/CBORChainlink.sol\":1224:1265  buf.appendUint8(uint8((major << 5) | 27)) */\n      tag_256\n        /* \"@chainlink/contracts/src/v0.8/vendor/CBORChainlink.sol\":1261:1263  27 */\n      0x1b\n        /* \"@chainlink/contracts/src/v0.8/vendor/CBORChainlink.sol\":1256:1257  5 */\n      0x05\n        /* \"@chainlink/contracts/src/v0.8/vendor/CBORChainlink.sol\":1247:1252  major */\n      dup5\n        /* \"@chainlink/contracts/src/v0.8/vendor/CBORChainlink.sol\":1247:1257  major << 5 */\n      0xff\n      and\n      swap1\n      shl\n        /* \"@chainlink/contracts/src/v0.8/vendor/CBORChainlink.sol\":1246:1263  (major << 5) | 27 */\n      or\n        /* \"@chainlink/contracts/src/v0.8/vendor/CBORChainlink.sol\":1224:1227  buf */\n      dup5\n        /* \"@chainlink/contracts/src/v0.8/vendor/CBORChainlink.sol\":1224:1239  buf.appendUint8 */\n      tag_241\n      swap1\n        /* \"@chainlink/contracts/src/v0.8/vendor/CBORChainlink.sol\":1224:1265  buf.appendUint8(uint8((major << 5) | 27)) */\n      swap2\n      swap1\n      0xffffffff\n      and\n      jump\t// in\n    tag_256:\n      pop\n        /* \"@chainlink/contracts/src/v0.8/vendor/CBORChainlink.sol\":1273:1296  buf.appendInt(value, 8) */\n      tag_257\n        /* \"@chainlink/contracts/src/v0.8/vendor/CBORChainlink.sol\":1287:1292  value */\n      dup2\n        /* \"@chainlink/contracts/src/v0.8/vendor/CBORChainlink.sol\":1273:1296  buf.appendInt(value, 8) */\n      0xffffffffffffffff\n      and\n        /* \"@chainlink/contracts/src/v0.8/vendor/CBORChainlink.sol\":1294:1295  8 */\n      0x08\n        /* \"@chainlink/contracts/src/v0.8/vendor/CBORChainlink.sol\":1273:1276  buf */\n      dup6\n        /* \"@chainlink/contracts/src/v0.8/vendor/CBORChainlink.sol\":1273:1286  buf.appendInt */\n      tag_246\n      swap1\n        /* \"@chainlink/contracts/src/v0.8/vendor/CBORChainlink.sol\":1273:1296  buf.appendInt(value, 8) */\n      swap3\n      swap2\n      swap1\n      0xffffffff\n      and\n      jump\t// in\n    tag_257:\n      pop\n        /* \"@chainlink/contracts/src/v0.8/vendor/CBORChainlink.sol\":1098:1303  if (value <= 0xFFFFFFFF) {... */\n    tag_255:\n        /* \"@chainlink/contracts/src/v0.8/vendor/CBORChainlink.sol\":984:1303  if (value <= 0xFFFF) {... */\n    tag_251:\n        /* \"@chainlink/contracts/src/v0.8/vendor/CBORChainlink.sol\":872:1303  if (value <= 0xFF) {... */\n    tag_247:\n        /* \"@chainlink/contracts/src/v0.8/vendor/CBORChainlink.sol\":791:1303  if(value <= 23) {... */\n    tag_242:\n        /* \"@chainlink/contracts/src/v0.8/vendor/CBORChainlink.sol\":682:1307  function encodeFixedNumeric(BufferChainlink.buffer memory buf, uint8 major, uint64 value) private pure {... */\n      pop\n      pop\n      pop\n      jump\t// out\n        /* \"@chainlink/contracts/src/v0.8/vendor/BufferChainlink.sol\":4692:4847  function append(buffer memory buf, bytes memory data) internal pure returns (buffer memory) {... */\n    tag_214:\n        /* \"@chainlink/contracts/src/v0.8/vendor/BufferChainlink.sol\":4769:4782  buffer memory */\n      tag_258\n      tag_229\n      jump\t// in\n    tag_258:\n        /* \"@chainlink/contracts/src/v0.8/vendor/BufferChainlink.sol\":4797:4842  write(buf, buf.buf.length, data, data.length) */\n      tag_260\n        /* \"@chainlink/contracts/src/v0.8/vendor/BufferChainlink.sol\":4803:4806  buf */\n      dup4\n        /* \"@chainlink/contracts/src/v0.8/vendor/BufferChainlink.sol\":4808:4811  buf */\n      dup5\n        /* \"@chainlink/contracts/src/v0.8/vendor/BufferChainlink.sol\":4808:4815  buf.buf */\n      0x00\n      add\n      mload\n        /* \"@chainlink/contracts/src/v0.8/vendor/BufferChainlink.sol\":4808:4822  buf.buf.length */\n      mload\n        /* \"@chainlink/contracts/src/v0.8/vendor/BufferChainlink.sol\":4824:4828  data */\n      dup5\n        /* \"@chainlink/contracts/src/v0.8/vendor/BufferChainlink.sol\":4830:4834  data */\n      dup6\n        /* \"@chainlink/contracts/src/v0.8/vendor/BufferChainlink.sol\":4830:4841  data.length */\n      mload\n        /* \"@chainlink/contracts/src/v0.8/vendor/BufferChainlink.sol\":4797:4802  write */\n      tag_261\n        /* \"@chainlink/contracts/src/v0.8/vendor/BufferChainlink.sol\":4797:4842  write(buf, buf.buf.length, data, data.length) */\n      jump\t// in\n    tag_260:\n        /* \"@chainlink/contracts/src/v0.8/vendor/BufferChainlink.sol\":4790:4842  return write(buf, buf.buf.length, data, data.length) */\n      swap1\n      pop\n        /* \"@chainlink/contracts/src/v0.8/vendor/BufferChainlink.sol\":4692:4847  function append(buffer memory buf, bytes memory data) internal pure returns (buffer memory) {... */\n      swap3\n      swap2\n      pop\n      pop\n      jump\t// out\n        /* \"@chainlink/contracts/src/v0.8/ChainlinkClient.sol\":6629:7059  function _rawRequest(... */\n    tag_221:\n        /* \"@chainlink/contracts/src/v0.8/ChainlinkClient.sol\":6771:6788  bytes32 requestId */\n      0x00\n        /* \"@chainlink/contracts/src/v0.8/ChainlinkClient.sol\":6835:6839  this */\n      address\n        /* \"@chainlink/contracts/src/v0.8/ChainlinkClient.sol\":6841:6846  nonce */\n      dup5\n        /* \"@chainlink/contracts/src/v0.8/ChainlinkClient.sol\":6818:6847  abi.encodePacked(this, nonce) */\n      add(0x20, mload(0x40))\n      tag_263\n      swap3\n      swap2\n      swap1\n      tag_264\n      jump\t// in\n    tag_263:\n      mload(0x40)\n      0x20\n      dup2\n      dup4\n      sub\n      sub\n      dup2\n      mstore\n      swap1\n      0x40\n      mstore\n        /* \"@chainlink/contracts/src/v0.8/ChainlinkClient.sol\":6808:6848  keccak256(abi.encodePacked(this, nonce)) */\n      dup1\n      mload\n      swap1\n      0x20\n      add\n      keccak256\n        /* \"@chainlink/contracts/src/v0.8/ChainlinkClient.sol\":6796:6848  requestId = keccak256(abi.encodePacked(this, nonce)) */\n      swap1\n      pop\n        /* \"@chainlink/contracts/src/v0.8/ChainlinkClient.sol\":6885:6898  oracleAddress */\n      dup5\n        /* \"@chainlink/contracts/src/v0.8/ChainlinkClient.sol\":6854:6871  s_pendingRequests */\n      0x05\n        /* \"@chainlink/contracts/src/v0.8/ChainlinkClient.sol\":6854:6882  s_pendingRequests[requestId] */\n      0x00\n        /* \"@chainlink/contracts/src/v0.8/ChainlinkClient.sol\":6872:6881  requestId */\n      dup4\n        /* \"@chainlink/contracts/src/v0.8/ChainlinkClient.sol\":6854:6882  s_pendingRequests[requestId] */\n      dup2\n      mstore\n      0x20\n      add\n      swap1\n      dup2\n      mstore\n      0x20\n      add\n      0x00\n      keccak256\n      0x00\n        /* \"@chainlink/contracts/src/v0.8/ChainlinkClient.sol\":6854:6898  s_pendingRequests[requestId] = oracleAddress */\n      0x0100\n      exp\n      dup2\n      sload\n      dup2\n      0xffffffffffffffffffffffffffffffffffffffff\n      mul\n      not\n      and\n      swap1\n      dup4\n      0xffffffffffffffffffffffffffffffffffffffff\n      and\n      mul\n      or\n      swap1\n      sstore\n      pop\n        /* \"@chainlink/contracts/src/v0.8/ChainlinkClient.sol\":6928:6937  requestId */\n      dup1\n        /* \"@chainlink/contracts/src/v0.8/ChainlinkClient.sol\":6909:6938  ChainlinkRequested(requestId) */\n      0xb5e6e01e79f91267dc17b4e6314d5d4d03593d2ceee0fbb452b750bd70ea5af9\n      mload(0x40)\n      mload(0x40)\n      dup1\n      swap2\n      sub\n      swap1\n      log2\n        /* \"@chainlink/contracts/src/v0.8/ChainlinkClient.sol\":6952:6958  s_link */\n      0x02\n      0x00\n      swap1\n      sload\n      swap1\n      0x0100\n      exp\n      swap1\n      div\n      0xffffffffffffffffffffffffffffffffffffffff\n      and\n        /* \"@chainlink/contracts/src/v0.8/ChainlinkClient.sol\":6952:6974  s_link.transferAndCall */\n      0xffffffffffffffffffffffffffffffffffffffff\n      and\n      0x4000aea0\n        /* \"@chainlink/contracts/src/v0.8/ChainlinkClient.sol\":6975:6988  oracleAddress */\n      dup7\n        /* \"@chainlink/contracts/src/v0.8/ChainlinkClient.sol\":6990:6997  payment */\n      dup6\n        /* \"@chainlink/contracts/src/v0.8/ChainlinkClient.sol\":6999:7013  encodedRequest */\n      dup6\n        /* \"@chainlink/contracts/src/v0.8/ChainlinkClient.sol\":6952:7014  s_link.transferAndCall(oracleAddress, payment, encodedRequest) */\n      mload(0x40)\n      dup5\n      0xffffffff\n      and\n      0xe0\n      shl\n      dup2\n      mstore\n      0x04\n      add\n      tag_265\n      swap4\n      swap3\n      swap2\n      swap1\n      tag_266\n      jump\t// in\n    tag_265:\n      0x20\n      mload(0x40)\n      dup1\n      dup4\n      sub\n      dup2\n      0x00\n      dup8\n      dup1\n      extcodesize\n      iszero\n      dup1\n      iszero\n      tag_267\n      jumpi\n      0x00\n      dup1\n      revert\n    tag_267:\n      pop\n      gas\n      call\n      iszero\n      dup1\n      iszero\n      tag_269\n      jumpi\n      returndatasize\n      0x00\n      dup1\n      returndatacopy\n      revert(0x00, returndatasize)\n    tag_269:\n      pop\n      pop\n      pop\n      pop\n      mload(0x40)\n      returndatasize\n      not(0x1f)\n      0x1f\n      dup3\n      add\n      and\n      dup3\n      add\n      dup1\n      0x40\n      mstore\n      pop\n      dup2\n      add\n      swap1\n      tag_270\n      swap2\n      swap1\n      tag_111\n      jump\t// in\n    tag_270:\n        /* \"@chainlink/contracts/src/v0.8/ChainlinkClient.sol\":6944:7054  require(s_link.transferAndCall(oracleAddress, payment, encodedRequest), \"unable to transferAndCall to oracle\") */\n      tag_271\n      jumpi\n      mload(0x40)\n      0x08c379a000000000000000000000000000000000000000000000000000000000\n      dup2\n      mstore\n      0x04\n      add\n      tag_272\n      swap1\n      tag_273\n      jump\t// in\n    tag_272:\n      mload(0x40)\n      dup1\n      swap2\n      sub\n      swap1\n      revert\n    tag_271:\n        /* \"@chainlink/contracts/src/v0.8/ChainlinkClient.sol\":6629:7059  function _rawRequest(... */\n      swap5\n      swap4\n      pop\n      pop\n      pop\n      pop\n      jump\t// out\n        /* \"@chainlink/contracts/src/v0.8/vendor/CBORChainlink.sol\":2345:2543  function encodeBigNum(BufferChainlink.buffer memory buf, uint value) internal pure {... */\n    tag_225:\n        /* \"@chainlink/contracts/src/v0.8/vendor/CBORChainlink.sol\":2434:2497  buf.appendUint8(uint8((MAJOR_TYPE_TAG << 5) | TAG_TYPE_BIGNUM)) */\n      tag_275\n        /* \"@chainlink/contracts/src/v0.8/vendor/CBORChainlink.sol\":621:622  2 */\n      0x02\n        /* \"@chainlink/contracts/src/v0.8/vendor/CBORChainlink.sol\":2475:2476  5 */\n      0x05\n        /* \"@chainlink/contracts/src/v0.8/vendor/CBORChainlink.sol\":520:521  6 */\n      0x06\n        /* \"@chainlink/contracts/src/v0.8/vendor/CBORChainlink.sol\":2457:2476  MAJOR_TYPE_TAG << 5 */\n      0xff\n      and\n      swap1\n      shl\n        /* \"@chainlink/contracts/src/v0.8/vendor/CBORChainlink.sol\":2456:2495  (MAJOR_TYPE_TAG << 5) | TAG_TYPE_BIGNUM */\n      or\n        /* \"@chainlink/contracts/src/v0.8/vendor/CBORChainlink.sol\":2434:2437  buf */\n      dup4\n        /* \"@chainlink/contracts/src/v0.8/vendor/CBORChainlink.sol\":2434:2449  buf.appendUint8 */\n      tag_241\n      swap1\n        /* \"@chainlink/contracts/src/v0.8/vendor/CBORChainlink.sol\":2434:2497  buf.appendUint8(uint8((MAJOR_TYPE_TAG << 5) | TAG_TYPE_BIGNUM)) */\n      swap2\n      swap1\n      0xffffffff\n      and\n      jump\t// in\n    tag_275:\n      pop\n        /* \"@chainlink/contracts/src/v0.8/vendor/CBORChainlink.sol\":2503:2538  encodeBytes(buf, abi.encode(value)) */\n      tag_276\n        /* \"@chainlink/contracts/src/v0.8/vendor/CBORChainlink.sol\":2515:2518  buf */\n      dup3\n        /* \"@chainlink/contracts/src/v0.8/vendor/CBORChainlink.sol\":2531:2536  value */\n      dup3\n        /* \"@chainlink/contracts/src/v0.8/vendor/CBORChainlink.sol\":2520:2537  abi.encode(value) */\n      add(0x20, mload(0x40))\n      tag_277\n      swap2\n      swap1\n      tag_58\n      jump\t// in\n    tag_277:\n      mload(0x40)\n      0x20\n      dup2\n      dup4\n      sub\n      sub\n      dup2\n      mstore\n      swap1\n      0x40\n      mstore\n        /* \"@chainlink/contracts/src/v0.8/vendor/CBORChainlink.sol\":2503:2514  encodeBytes */\n      tag_278\n        /* \"@chainlink/contracts/src/v0.8/vendor/CBORChainlink.sol\":2503:2538  encodeBytes(buf, abi.encode(value)) */\n      jump\t// in\n    tag_276:\n        /* \"@chainlink/contracts/src/v0.8/vendor/CBORChainlink.sol\":2345:2543  function encodeBigNum(BufferChainlink.buffer memory buf, uint value) internal pure {... */\n      pop\n      pop\n      jump\t// out\n        /* \"@chainlink/contracts/src/v0.8/vendor/BufferChainlink.sol\":6040:6185  function appendUint8(buffer memory buf, uint8 data) internal pure returns (buffer memory) {... */\n    tag_241:\n        /* \"@chainlink/contracts/src/v0.8/vendor/BufferChainlink.sol\":6115:6128  buffer memory */\n      tag_279\n      tag_229\n      jump\t// in\n    tag_279:\n        /* \"@chainlink/contracts/src/v0.8/vendor/BufferChainlink.sol\":6143:6180  writeUint8(buf, buf.buf.length, data) */\n      tag_281\n        /* \"@chainlink/contracts/src/v0.8/vendor/BufferChainlink.sol\":6154:6157  buf */\n      dup4\n        /* \"@chainlink/contracts/src/v0.8/vendor/BufferChainlink.sol\":6159:6162  buf */\n      dup5\n        /* \"@chainlink/contracts/src/v0.8/vendor/BufferChainlink.sol\":6159:6166  buf.buf */\n      0x00\n      add\n      mload\n        /* \"@chainlink/contracts/src/v0.8/vendor/BufferChainlink.sol\":6159:6173  buf.buf.length */\n      mload\n        /* \"@chainlink/contracts/src/v0.8/vendor/BufferChainlink.sol\":6175:6179  data */\n      dup5\n        /* \"@chainlink/contracts/src/v0.8/vendor/BufferChainlink.sol\":6143:6153  writeUint8 */\n      tag_282\n        /* \"@chainlink/contracts/src/v0.8/vendor/BufferChainlink.sol\":6143:6180  writeUint8(buf, buf.buf.length, data) */\n      jump\t// in\n    tag_281:\n        /* \"@chainlink/contracts/src/v0.8/vendor/BufferChainlink.sol\":6136:6180  return writeUint8(buf, buf.buf.length, data) */\n      swap1\n      pop\n        /* \"@chainlink/contracts/src/v0.8/vendor/BufferChainlink.sol\":6040:6185  function appendUint8(buffer memory buf, uint8 data) internal pure returns (buffer memory) {... */\n      swap3\n      swap2\n      pop\n      pop\n      jump\t// out\n        /* \"@chainlink/contracts/src/v0.8/vendor/BufferChainlink.sol\":9894:10071  function appendInt(... */\n    tag_246:\n        /* \"@chainlink/contracts/src/v0.8/vendor/BufferChainlink.sol\":9998:10011  buffer memory */\n      tag_283\n      tag_229\n      jump\t// in\n    tag_283:\n        /* \"@chainlink/contracts/src/v0.8/vendor/BufferChainlink.sol\":10026:10066  writeInt(buf, buf.buf.length, data, len) */\n      tag_285\n        /* \"@chainlink/contracts/src/v0.8/vendor/BufferChainlink.sol\":10035:10038  buf */\n      dup5\n        /* \"@chainlink/contracts/src/v0.8/vendor/BufferChainlink.sol\":10040:10043  buf */\n      dup6\n        /* \"@chainlink/contracts/src/v0.8/vendor/BufferChainlink.sol\":10040:10047  buf.buf */\n      0x00\n      add\n      mload\n        /* \"@chainlink/contracts/src/v0.8/vendor/BufferChainlink.sol\":10040:10054  buf.buf.length */\n      mload\n        /* \"@chainlink/contracts/src/v0.8/vendor/BufferChainlink.sol\":10056:10060  data */\n      dup6\n        /* \"@chainlink/contracts/src/v0.8/vendor/BufferChainlink.sol\":10062:10065  len */\n      dup6\n        /* \"@chainlink/contracts/src/v0.8/vendor/BufferChainlink.sol\":10026:10034  writeInt */\n      tag_286\n        /* \"@chainlink/contracts/src/v0.8/vendor/BufferChainlink.sol\":10026:10066  writeInt(buf, buf.buf.length, data, len) */\n      jump\t// in\n    tag_285:\n        /* \"@chainlink/contracts/src/v0.8/vendor/BufferChainlink.sol\":10019:10066  return writeInt(buf, buf.buf.length, data, len) */\n      swap1\n      pop\n        /* \"@chainlink/contracts/src/v0.8/vendor/BufferChainlink.sol\":9894:10071  function appendInt(... */\n      swap4\n      swap3\n      pop\n      pop\n      pop\n      jump\t// out\n        /* \"@chainlink/contracts/src/v0.8/vendor/BufferChainlink.sol\":2745:3955  function write(... */\n    tag_261:\n        /* \"@chainlink/contracts/src/v0.8/vendor/BufferChainlink.sol\":2867:2880  buffer memory */\n      tag_287\n      tag_229\n      jump\t// in\n    tag_287:\n        /* \"@chainlink/contracts/src/v0.8/vendor/BufferChainlink.sol\":2903:2907  data */\n      dup3\n        /* \"@chainlink/contracts/src/v0.8/vendor/BufferChainlink.sol\":2903:2914  data.length */\n      mload\n        /* \"@chainlink/contracts/src/v0.8/vendor/BufferChainlink.sol\":2896:2899  len */\n      dup3\n        /* \"@chainlink/contracts/src/v0.8/vendor/BufferChainlink.sol\":2896:2914  len <= data.length */\n      gt\n      iszero\n        /* \"@chainlink/contracts/src/v0.8/vendor/BufferChainlink.sol\":2888:2915  require(len <= data.length) */\n      tag_289\n      jumpi\n      0x00\n      dup1\n      revert\n    tag_289:\n        /* \"@chainlink/contracts/src/v0.8/vendor/BufferChainlink.sol\":2938:2941  buf */\n      dup5\n        /* \"@chainlink/contracts/src/v0.8/vendor/BufferChainlink.sol\":2938:2950  buf.capacity */\n      0x20\n      add\n      mload\n        /* \"@chainlink/contracts/src/v0.8/vendor/BufferChainlink.sol\":2932:2935  len */\n      dup3\n        /* \"@chainlink/contracts/src/v0.8/vendor/BufferChainlink.sol\":2926:2929  off */\n      dup6\n        /* \"@chainlink/contracts/src/v0.8/vendor/BufferChainlink.sol\":2926:2935  off + len */\n      tag_290\n      swap2\n      swap1\n      tag_217\n      jump\t// in\n    tag_290:\n        /* \"@chainlink/contracts/src/v0.8/vendor/BufferChainlink.sol\":2926:2950  off + len > buf.capacity */\n      gt\n        /* \"@chainlink/contracts/src/v0.8/vendor/BufferChainlink.sol\":2922:3012  if (off + len > buf.capacity) {... */\n      iszero\n      tag_291\n      jumpi\n        /* \"@chainlink/contracts/src/v0.8/vendor/BufferChainlink.sol\":2960:3005  resize(buf, max(buf.capacity, len + off) * 2) */\n      tag_292\n        /* \"@chainlink/contracts/src/v0.8/vendor/BufferChainlink.sol\":2967:2970  buf */\n      dup6\n        /* \"@chainlink/contracts/src/v0.8/vendor/BufferChainlink.sol\":3003:3004  2 */\n      0x02\n        /* \"@chainlink/contracts/src/v0.8/vendor/BufferChainlink.sol\":2972:3000  max(buf.capacity, len + off) */\n      tag_293\n        /* \"@chainlink/contracts/src/v0.8/vendor/BufferChainlink.sol\":2976:2979  buf */\n      dup9\n        /* \"@chainlink/contracts/src/v0.8/vendor/BufferChainlink.sol\":2976:2988  buf.capacity */\n      0x20\n      add\n      mload\n        /* \"@chainlink/contracts/src/v0.8/vendor/BufferChainlink.sol\":2996:2999  off */\n      dup9\n        /* \"@chainlink/contracts/src/v0.8/vendor/BufferChainlink.sol\":2990:2993  len */\n      dup8\n        /* \"@chainlink/contracts/src/v0.8/vendor/BufferChainlink.sol\":2990:2999  len + off */\n      tag_294\n      swap2\n      swap1\n      tag_217\n      jump\t// in\n    tag_294:\n        /* \"@chainlink/contracts/src/v0.8/vendor/BufferChainlink.sol\":2972:2975  max */\n      tag_295\n        /* \"@chainlink/contracts/src/v0.8/vendor/BufferChainlink.sol\":2972:3000  max(buf.capacity, len + off) */\n      jump\t// in\n    tag_293:\n        /* \"@chainlink/contracts/src/v0.8/vendor/BufferChainlink.sol\":2972:3004  max(buf.capacity, len + off) * 2 */\n      tag_296\n      swap2\n      swap1\n      tag_297\n      jump\t// in\n    tag_296:\n        /* \"@chainlink/contracts/src/v0.8/vendor/BufferChainlink.sol\":2960:2966  resize */\n      tag_298\n        /* \"@chainlink/contracts/src/v0.8/vendor/BufferChainlink.sol\":2960:3005  resize(buf, max(buf.capacity, len + off) * 2) */\n      jump\t// in\n    tag_292:\n        /* \"@chainlink/contracts/src/v0.8/vendor/BufferChainlink.sol\":2922:3012  if (off + len > buf.capacity) {... */\n    tag_291:\n        /* \"@chainlink/contracts/src/v0.8/vendor/BufferChainlink.sol\":3018:3030  uint256 dest */\n      0x00\n        /* \"@chainlink/contracts/src/v0.8/vendor/BufferChainlink.sol\":3036:3047  uint256 src */\n      dup1\n        /* \"@chainlink/contracts/src/v0.8/vendor/BufferChainlink.sol\":3133:3136  buf */\n      dup7\n        /* \"@chainlink/contracts/src/v0.8/vendor/BufferChainlink.sol\":3127:3137  mload(buf) */\n      mload\n        /* \"@chainlink/contracts/src/v0.8/vendor/BufferChainlink.sol\":3204:3210  bufptr */\n      dup1\n        /* \"@chainlink/contracts/src/v0.8/vendor/BufferChainlink.sol\":3198:3211  mload(bufptr) */\n      mload\n        /* \"@chainlink/contracts/src/v0.8/vendor/BufferChainlink.sol\":3320:3323  off */\n      dup8\n        /* \"@chainlink/contracts/src/v0.8/vendor/BufferChainlink.sol\":3315:3317  32 */\n      0x20\n        /* \"@chainlink/contracts/src/v0.8/vendor/BufferChainlink.sol\":3307:3313  bufptr */\n      dup4\n        /* \"@chainlink/contracts/src/v0.8/vendor/BufferChainlink.sol\":3303:3318  add(bufptr, 32) */\n      add\n        /* \"@chainlink/contracts/src/v0.8/vendor/BufferChainlink.sol\":3299:3324  add(add(bufptr, 32), off) */\n      add\n        /* \"@chainlink/contracts/src/v0.8/vendor/BufferChainlink.sol\":3291:3324  dest := add(add(bufptr, 32), off) */\n      swap4\n      pop\n        /* \"@chainlink/contracts/src/v0.8/vendor/BufferChainlink.sol\":3404:3410  buflen */\n      dup1\n        /* \"@chainlink/contracts/src/v0.8/vendor/BufferChainlink.sol\":3398:3401  off */\n      dup9\n        /* \"@chainlink/contracts/src/v0.8/vendor/BufferChainlink.sol\":3393:3396  len */\n      dup8\n        /* \"@chainlink/contracts/src/v0.8/vendor/BufferChainlink.sol\":3389:3402  add(len, off) */\n      add\n        /* \"@chainlink/contracts/src/v0.8/vendor/BufferChainlink.sol\":3386:3411  gt(add(len, off), buflen) */\n      gt\n        /* \"@chainlink/contracts/src/v0.8/vendor/BufferChainlink.sol\":3383:3459  if gt(add(len, off), buflen) {... */\n      iszero\n      tag_299\n      jumpi\n        /* \"@chainlink/contracts/src/v0.8/vendor/BufferChainlink.sol\":3446:3449  off */\n      dup8\n        /* \"@chainlink/contracts/src/v0.8/vendor/BufferChainlink.sol\":3441:3444  len */\n      dup7\n        /* \"@chainlink/contracts/src/v0.8/vendor/BufferChainlink.sol\":3437:3450  add(len, off) */\n      add\n        /* \"@chainlink/contracts/src/v0.8/vendor/BufferChainlink.sol\":3429:3435  bufptr */\n      dup3\n        /* \"@chainlink/contracts/src/v0.8/vendor/BufferChainlink.sol\":3422:3451  mstore(bufptr, add(len, off)) */\n      mstore\n        /* \"@chainlink/contracts/src/v0.8/vendor/BufferChainlink.sol\":3383:3459  if gt(add(len, off), buflen) {... */\n    tag_299:\n        /* \"@chainlink/contracts/src/v0.8/vendor/BufferChainlink.sol\":3483:3485  32 */\n      0x20\n        /* \"@chainlink/contracts/src/v0.8/vendor/BufferChainlink.sol\":3477:3481  data */\n      dup8\n        /* \"@chainlink/contracts/src/v0.8/vendor/BufferChainlink.sol\":3473:3486  add(data, 32) */\n      add\n        /* \"@chainlink/contracts/src/v0.8/vendor/BufferChainlink.sol\":3466:3486  src := add(data, 32) */\n      swap3\n      pop\n        /* \"@chainlink/contracts/src/v0.8/vendor/BufferChainlink.sol\":3062:3492  {... */\n      pop\n      pop\n        /* \"@chainlink/contracts/src/v0.8/vendor/BufferChainlink.sol\":3544:3673  for (; len >= 32; len -= 32) {... */\n    tag_300:\n        /* \"@chainlink/contracts/src/v0.8/vendor/BufferChainlink.sol\":3558:3560  32 */\n      0x20\n        /* \"@chainlink/contracts/src/v0.8/vendor/BufferChainlink.sol\":3551:3554  len */\n      dup5\n        /* \"@chainlink/contracts/src/v0.8/vendor/BufferChainlink.sol\":3551:3560  len >= 32 */\n      lt\n        /* \"@chainlink/contracts/src/v0.8/vendor/BufferChainlink.sol\":3544:3673  for (; len >= 32; len -= 32) {... */\n      tag_301\n      jumpi\n        /* \"@chainlink/contracts/src/v0.8/vendor/BufferChainlink.sol\":3619:3622  src */\n      dup1\n        /* \"@chainlink/contracts/src/v0.8/vendor/BufferChainlink.sol\":3613:3623  mload(src) */\n      mload\n        /* \"@chainlink/contracts/src/v0.8/vendor/BufferChainlink.sol\":3607:3611  dest */\n      dup3\n        /* \"@chainlink/contracts/src/v0.8/vendor/BufferChainlink.sol\":3600:3624  mstore(dest, mload(src)) */\n      mstore\n        /* \"@chainlink/contracts/src/v0.8/vendor/BufferChainlink.sol\":3647:3649  32 */\n      0x20\n        /* \"@chainlink/contracts/src/v0.8/vendor/BufferChainlink.sol\":3639:3649  dest += 32 */\n      dup3\n      tag_303\n      swap2\n      swap1\n      tag_217\n      jump\t// in\n    tag_303:\n      swap2\n      pop\n        /* \"@chainlink/contracts/src/v0.8/vendor/BufferChainlink.sol\":3664:3666  32 */\n      0x20\n        /* \"@chainlink/contracts/src/v0.8/vendor/BufferChainlink.sol\":3657:3666  src += 32 */\n      dup2\n      tag_304\n      swap2\n      swap1\n      tag_217\n      jump\t// in\n    tag_304:\n      swap1\n      pop\n        /* \"@chainlink/contracts/src/v0.8/vendor/BufferChainlink.sol\":3569:3571  32 */\n      0x20\n        /* \"@chainlink/contracts/src/v0.8/vendor/BufferChainlink.sol\":3562:3571  len -= 32 */\n      dup5\n      tag_305\n      swap2\n      swap1\n      tag_236\n      jump\t// in\n    tag_305:\n      swap4\n      pop\n        /* \"@chainlink/contracts/src/v0.8/vendor/BufferChainlink.sol\":3544:3673  for (; len >= 32; len -= 32) {... */\n      jump(tag_300)\n    tag_301:\n        /* \"@chainlink/contracts/src/v0.8/vendor/BufferChainlink.sol\":3725:3737  uint256 mask */\n      0x00\n        /* \"@chainlink/contracts/src/v0.8/vendor/BufferChainlink.sol\":3760:3761  1 */\n      0x01\n        /* \"@chainlink/contracts/src/v0.8/vendor/BufferChainlink.sol\":3752:3755  len */\n      dup6\n        /* \"@chainlink/contracts/src/v0.8/vendor/BufferChainlink.sol\":3747:3749  32 */\n      0x20\n        /* \"@chainlink/contracts/src/v0.8/vendor/BufferChainlink.sol\":3747:3755  32 - len */\n      sub\n        /* \"@chainlink/contracts/src/v0.8/vendor/BufferChainlink.sol\":3741:3744  256 */\n      0x0100\n        /* \"@chainlink/contracts/src/v0.8/vendor/BufferChainlink.sol\":3741:3756  256**(32 - len) */\n      exp\n        /* \"@chainlink/contracts/src/v0.8/vendor/BufferChainlink.sol\":3740:3761  (256**(32 - len)) - 1 */\n      sub\n        /* \"@chainlink/contracts/src/v0.8/vendor/BufferChainlink.sol\":3725:3761  uint256 mask = (256**(32 - len)) - 1 */\n      swap1\n      pop\n        /* \"@chainlink/contracts/src/v0.8/vendor/BufferChainlink.sol\":3823:3827  mask */\n      dup1\n        /* \"@chainlink/contracts/src/v0.8/vendor/BufferChainlink.sol\":3819:3828  not(mask) */\n      not\n        /* \"@chainlink/contracts/src/v0.8/vendor/BufferChainlink.sol\":3813:3816  src */\n      dup3\n        /* \"@chainlink/contracts/src/v0.8/vendor/BufferChainlink.sol\":3807:3817  mload(src) */\n      mload\n        /* \"@chainlink/contracts/src/v0.8/vendor/BufferChainlink.sol\":3803:3829  and(mload(src), not(mask)) */\n      and\n        /* \"@chainlink/contracts/src/v0.8/vendor/BufferChainlink.sol\":3871:3875  mask */\n      dup2\n        /* \"@chainlink/contracts/src/v0.8/vendor/BufferChainlink.sol\":3864:3868  dest */\n      dup5\n        /* \"@chainlink/contracts/src/v0.8/vendor/BufferChainlink.sol\":3858:3869  mload(dest) */\n      mload\n        /* \"@chainlink/contracts/src/v0.8/vendor/BufferChainlink.sol\":3854:3876  and(mload(dest), mask) */\n      and\n        /* \"@chainlink/contracts/src/v0.8/vendor/BufferChainlink.sol\":3911:3918  srcpart */\n      dup2\n        /* \"@chainlink/contracts/src/v0.8/vendor/BufferChainlink.sol\":3901:3909  destpart */\n      dup2\n        /* \"@chainlink/contracts/src/v0.8/vendor/BufferChainlink.sol\":3898:3919  or(destpart, srcpart) */\n      or\n        /* \"@chainlink/contracts/src/v0.8/vendor/BufferChainlink.sol\":3892:3896  dest */\n      dup6\n        /* \"@chainlink/contracts/src/v0.8/vendor/BufferChainlink.sol\":3885:3920  mstore(dest, or(destpart, srcpart)) */\n      mstore\n        /* \"@chainlink/contracts/src/v0.8/vendor/BufferChainlink.sol\":3778:3928  {... */\n      pop\n      pop\n      pop\n        /* \"@chainlink/contracts/src/v0.8/vendor/BufferChainlink.sol\":3947:3950  buf */\n      dup7\n        /* \"@chainlink/contracts/src/v0.8/vendor/BufferChainlink.sol\":3940:3950  return buf */\n      swap3\n      pop\n      pop\n      pop\n        /* \"@chainlink/contracts/src/v0.8/vendor/BufferChainlink.sol\":2745:3955  function write(... */\n      swap5\n      swap4\n      pop\n      pop\n      pop\n      pop\n      jump\t// out\n        /* \"@chainlink/contracts/src/v0.8/vendor/CBORChainlink.sol\":2154:2341  function encodeBytes(BufferChainlink.buffer memory buf, bytes memory value) internal pure {... */\n    tag_278:\n        /* \"@chainlink/contracts/src/v0.8/vendor/CBORChainlink.sol\":2250:2313  encodeFixedNumeric(buf, MAJOR_TYPE_BYTES, uint64(value.length)) */\n      tag_307\n        /* \"@chainlink/contracts/src/v0.8/vendor/CBORChainlink.sol\":2269:2272  buf */\n      dup3\n        /* \"@chainlink/contracts/src/v0.8/vendor/CBORChainlink.sol\":335:336  2 */\n      0x02\n        /* \"@chainlink/contracts/src/v0.8/vendor/CBORChainlink.sol\":2299:2304  value */\n      dup4\n        /* \"@chainlink/contracts/src/v0.8/vendor/CBORChainlink.sol\":2299:2311  value.length */\n      mload\n        /* \"@chainlink/contracts/src/v0.8/vendor/CBORChainlink.sol\":2250:2268  encodeFixedNumeric */\n      tag_212\n        /* \"@chainlink/contracts/src/v0.8/vendor/CBORChainlink.sol\":2250:2313  encodeFixedNumeric(buf, MAJOR_TYPE_BYTES, uint64(value.length)) */\n      jump\t// in\n    tag_307:\n        /* \"@chainlink/contracts/src/v0.8/vendor/CBORChainlink.sol\":2319:2336  buf.append(value) */\n      tag_308\n        /* \"@chainlink/contracts/src/v0.8/vendor/CBORChainlink.sol\":2330:2335  value */\n      dup2\n        /* \"@chainlink/contracts/src/v0.8/vendor/CBORChainlink.sol\":2319:2322  buf */\n      dup4\n        /* \"@chainlink/contracts/src/v0.8/vendor/CBORChainlink.sol\":2319:2329  buf.append */\n      tag_214\n      swap1\n        /* \"@chainlink/contracts/src/v0.8/vendor/CBORChainlink.sol\":2319:2336  buf.append(value) */\n      swap2\n      swap1\n      0xffffffff\n      and\n      jump\t// in\n    tag_308:\n      pop\n        /* \"@chainlink/contracts/src/v0.8/vendor/CBORChainlink.sol\":2154:2341  function encodeBytes(BufferChainlink.buffer memory buf, bytes memory value) internal pure {... */\n      pop\n      pop\n      jump\t// out\n        /* \"@chainlink/contracts/src/v0.8/vendor/BufferChainlink.sol\":5148:5787  function writeUint8(... */\n    tag_282:\n        /* \"@chainlink/contracts/src/v0.8/vendor/BufferChainlink.sol\":5251:5264  buffer memory */\n      tag_309\n      tag_229\n      jump\t// in\n    tag_309:\n        /* \"@chainlink/contracts/src/v0.8/vendor/BufferChainlink.sol\":5283:5286  buf */\n      dup4\n        /* \"@chainlink/contracts/src/v0.8/vendor/BufferChainlink.sol\":5283:5295  buf.capacity */\n      0x20\n      add\n      mload\n        /* \"@chainlink/contracts/src/v0.8/vendor/BufferChainlink.sol\":5276:5279  off */\n      dup4\n        /* \"@chainlink/contracts/src/v0.8/vendor/BufferChainlink.sol\":5276:5295  off >= buf.capacity */\n      lt\n        /* \"@chainlink/contracts/src/v0.8/vendor/BufferChainlink.sol\":5272:5341  if (off >= buf.capacity) {... */\n      tag_311\n      jumpi\n        /* \"@chainlink/contracts/src/v0.8/vendor/BufferChainlink.sol\":5305:5334  resize(buf, buf.capacity * 2) */\n      tag_312\n        /* \"@chainlink/contracts/src/v0.8/vendor/BufferChainlink.sol\":5312:5315  buf */\n      dup5\n        /* \"@chainlink/contracts/src/v0.8/vendor/BufferChainlink.sol\":5332:5333  2 */\n      0x02\n        /* \"@chainlink/contracts/src/v0.8/vendor/BufferChainlink.sol\":5317:5320  buf */\n      dup7\n        /* \"@chainlink/contracts/src/v0.8/vendor/BufferChainlink.sol\":5317:5329  buf.capacity */\n      0x20\n      add\n      mload\n        /* \"@chainlink/contracts/src/v0.8/vendor/BufferChainlink.sol\":5317:5333  buf.capacity * 2 */\n      tag_313\n      swap2\n      swap1\n      tag_297\n      jump\t// in\n    tag_313:\n        /* \"@chainlink/contracts/src/v0.8/vendor/BufferChainlink.sol\":5305:5311  resize */\n      tag_298\n        /* \"@chainlink/contracts/src/v0.8/vendor/BufferChainlink.sol\":5305:5334  resize(buf, buf.capacity * 2) */\n      jump\t// in\n    tag_312:\n        /* \"@chainlink/contracts/src/v0.8/vendor/BufferChainlink.sol\":5272:5341  if (off >= buf.capacity) {... */\n    tag_311:\n        /* \"@chainlink/contracts/src/v0.8/vendor/BufferChainlink.sol\":5427:5430  buf */\n      dup4\n        /* \"@chainlink/contracts/src/v0.8/vendor/BufferChainlink.sol\":5421:5431  mload(buf) */\n      mload\n        /* \"@chainlink/contracts/src/v0.8/vendor/BufferChainlink.sol\":5498:5504  bufptr */\n      dup1\n        /* \"@chainlink/contracts/src/v0.8/vendor/BufferChainlink.sol\":5492:5505  mload(bufptr) */\n      mload\n        /* \"@chainlink/contracts/src/v0.8/vendor/BufferChainlink.sol\":5610:5612  32 */\n      0x20\n        /* \"@chainlink/contracts/src/v0.8/vendor/BufferChainlink.sol\":5604:5607  off */\n      dup6\n        /* \"@chainlink/contracts/src/v0.8/vendor/BufferChainlink.sol\":5596:5602  bufptr */\n      dup4\n        /* \"@chainlink/contracts/src/v0.8/vendor/BufferChainlink.sol\":5592:5608  add(bufptr, off) */\n      add\n        /* \"@chainlink/contracts/src/v0.8/vendor/BufferChainlink.sol\":5588:5613  add(add(bufptr, off), 32) */\n      add\n        /* \"@chainlink/contracts/src/v0.8/vendor/BufferChainlink.sol\":5634:5638  data */\n      dup5\n        /* \"@chainlink/contracts/src/v0.8/vendor/BufferChainlink.sol\":5628:5632  dest */\n      dup2\n        /* \"@chainlink/contracts/src/v0.8/vendor/BufferChainlink.sol\":5620:5639  mstore8(dest, data) */\n      mstore8\n        /* \"@chainlink/contracts/src/v0.8/vendor/BufferChainlink.sol\":5705:5711  buflen */\n      dup2\n        /* \"@chainlink/contracts/src/v0.8/vendor/BufferChainlink.sol\":5700:5703  off */\n      dup7\n        /* \"@chainlink/contracts/src/v0.8/vendor/BufferChainlink.sol\":5697:5712  eq(off, buflen) */\n      eq\n        /* \"@chainlink/contracts/src/v0.8/vendor/BufferChainlink.sol\":5694:5761  if eq(off, buflen) {... */\n      iszero\n      tag_314\n      jumpi\n        /* \"@chainlink/contracts/src/v0.8/vendor/BufferChainlink.sol\":5750:5751  1 */\n      0x01\n        /* \"@chainlink/contracts/src/v0.8/vendor/BufferChainlink.sol\":5742:5748  buflen */\n      dup3\n        /* \"@chainlink/contracts/src/v0.8/vendor/BufferChainlink.sol\":5738:5752  add(buflen, 1) */\n      add\n        /* \"@chainlink/contracts/src/v0.8/vendor/BufferChainlink.sol\":5730:5736  bufptr */\n      dup4\n        /* \"@chainlink/contracts/src/v0.8/vendor/BufferChainlink.sol\":5723:5753  mstore(bufptr, add(buflen, 1)) */\n      mstore\n        /* \"@chainlink/contracts/src/v0.8/vendor/BufferChainlink.sol\":5694:5761  if eq(off, buflen) {... */\n    tag_314:\n        /* \"@chainlink/contracts/src/v0.8/vendor/BufferChainlink.sol\":5356:5767  {... */\n      pop\n      pop\n      pop\n        /* \"@chainlink/contracts/src/v0.8/vendor/BufferChainlink.sol\":5779:5782  buf */\n      dup4\n        /* \"@chainlink/contracts/src/v0.8/vendor/BufferChainlink.sol\":5772:5782  return buf */\n      swap1\n      pop\n        /* \"@chainlink/contracts/src/v0.8/vendor/BufferChainlink.sol\":5148:5787  function writeUint8(... */\n      swap4\n      swap3\n      pop\n      pop\n      pop\n      jump\t// out\n        /* \"@chainlink/contracts/src/v0.8/vendor/BufferChainlink.sol\":8974:9649  function writeInt(... */\n    tag_286:\n        /* \"@chainlink/contracts/src/v0.8/vendor/BufferChainlink.sol\":9093:9106  buffer memory */\n      tag_315\n      tag_229\n      jump\t// in\n    tag_315:\n        /* \"@chainlink/contracts/src/v0.8/vendor/BufferChainlink.sol\":9130:9133  buf */\n      dup5\n        /* \"@chainlink/contracts/src/v0.8/vendor/BufferChainlink.sol\":9130:9142  buf.capacity */\n      0x20\n      add\n      mload\n        /* \"@chainlink/contracts/src/v0.8/vendor/BufferChainlink.sol\":9124:9127  off */\n      dup5\n        /* \"@chainlink/contracts/src/v0.8/vendor/BufferChainlink.sol\":9118:9121  len */\n      dup4\n        /* \"@chainlink/contracts/src/v0.8/vendor/BufferChainlink.sol\":9118:9127  len + off */\n      tag_317\n      swap2\n      swap1\n      tag_217\n      jump\t// in\n    tag_317:\n        /* \"@chainlink/contracts/src/v0.8/vendor/BufferChainlink.sol\":9118:9142  len + off > buf.capacity */\n      gt\n        /* \"@chainlink/contracts/src/v0.8/vendor/BufferChainlink.sol\":9114:9187  if (len + off > buf.capacity) {... */\n      iszero\n      tag_318\n      jumpi\n        /* \"@chainlink/contracts/src/v0.8/vendor/BufferChainlink.sol\":9152:9180  resize(buf, (len + off) * 2) */\n      tag_319\n        /* \"@chainlink/contracts/src/v0.8/vendor/BufferChainlink.sol\":9159:9162  buf */\n      dup6\n        /* \"@chainlink/contracts/src/v0.8/vendor/BufferChainlink.sol\":9178:9179  2 */\n      0x02\n        /* \"@chainlink/contracts/src/v0.8/vendor/BufferChainlink.sol\":9171:9174  off */\n      dup7\n        /* \"@chainlink/contracts/src/v0.8/vendor/BufferChainlink.sol\":9165:9168  len */\n      dup6\n        /* \"@chainlink/contracts/src/v0.8/vendor/BufferChainlink.sol\":9165:9174  len + off */\n      tag_320\n      swap2\n      swap1\n      tag_217\n      jump\t// in\n    tag_320:\n        /* \"@chainlink/contracts/src/v0.8/vendor/BufferChainlink.sol\":9164:9179  (len + off) * 2 */\n      tag_321\n      swap2\n      swap1\n      tag_297\n      jump\t// in\n    tag_321:\n        /* \"@chainlink/contracts/src/v0.8/vendor/BufferChainlink.sol\":9152:9158  resize */\n      tag_298\n        /* \"@chainlink/contracts/src/v0.8/vendor/BufferChainlink.sol\":9152:9180  resize(buf, (len + off) * 2) */\n      jump\t// in\n    tag_319:\n        /* \"@chainlink/contracts/src/v0.8/vendor/BufferChainlink.sol\":9114:9187  if (len + off > buf.capacity) {... */\n    tag_318:\n        /* \"@chainlink/contracts/src/v0.8/vendor/BufferChainlink.sol\":9193:9205  uint256 mask */\n      0x00\n        /* \"@chainlink/contracts/src/v0.8/vendor/BufferChainlink.sol\":9221:9222  1 */\n      0x01\n        /* \"@chainlink/contracts/src/v0.8/vendor/BufferChainlink.sol\":9214:9217  len */\n      dup4\n        /* \"@chainlink/contracts/src/v0.8/vendor/BufferChainlink.sol\":9209:9212  256 */\n      0x0100\n        /* \"@chainlink/contracts/src/v0.8/vendor/BufferChainlink.sol\":9209:9217  256**len */\n      tag_322\n      swap2\n      swap1\n      tag_323\n      jump\t// in\n    tag_322:\n        /* \"@chainlink/contracts/src/v0.8/vendor/BufferChainlink.sol\":9208:9222  (256**len) - 1 */\n      tag_324\n      swap2\n      swap1\n      tag_236\n      jump\t// in\n    tag_324:\n        /* \"@chainlink/contracts/src/v0.8/vendor/BufferChainlink.sol\":9193:9222  uint256 mask = (256**len) - 1 */\n      swap1\n      pop\n        /* \"@chainlink/contracts/src/v0.8/vendor/BufferChainlink.sol\":9308:9311  buf */\n      dup6\n        /* \"@chainlink/contracts/src/v0.8/vendor/BufferChainlink.sol\":9302:9312  mload(buf) */\n      mload\n        /* \"@chainlink/contracts/src/v0.8/vendor/BufferChainlink.sol\":9423:9426  len */\n      dup4\n        /* \"@chainlink/contracts/src/v0.8/vendor/BufferChainlink.sol\":9417:9420  off */\n      dup7\n        /* \"@chainlink/contracts/src/v0.8/vendor/BufferChainlink.sol\":9409:9415  bufptr */\n      dup3\n        /* \"@chainlink/contracts/src/v0.8/vendor/BufferChainlink.sol\":9405:9421  add(bufptr, off) */\n      add\n        /* \"@chainlink/contracts/src/v0.8/vendor/BufferChainlink.sol\":9401:9427  add(add(bufptr, off), len) */\n      add\n        /* \"@chainlink/contracts/src/v0.8/vendor/BufferChainlink.sol\":9479:9483  data */\n      dup6\n        /* \"@chainlink/contracts/src/v0.8/vendor/BufferChainlink.sol\":9471:9475  mask */\n      dup4\n        /* \"@chainlink/contracts/src/v0.8/vendor/BufferChainlink.sol\":9467:9476  not(mask) */\n      not\n        /* \"@chainlink/contracts/src/v0.8/vendor/BufferChainlink.sol\":9460:9464  dest */\n      dup3\n        /* \"@chainlink/contracts/src/v0.8/vendor/BufferChainlink.sol\":9454:9465  mload(dest) */\n      mload\n        /* \"@chainlink/contracts/src/v0.8/vendor/BufferChainlink.sol\":9450:9477  and(mload(dest), not(mask)) */\n      and\n        /* \"@chainlink/contracts/src/v0.8/vendor/BufferChainlink.sol\":9447:9484  or(and(mload(dest), not(mask)), data) */\n      or\n        /* \"@chainlink/contracts/src/v0.8/vendor/BufferChainlink.sol\":9441:9445  dest */\n      dup2\n        /* \"@chainlink/contracts/src/v0.8/vendor/BufferChainlink.sol\":9434:9485  mstore(dest, or(and(mload(dest), not(mask)), data)) */\n      mstore\n        /* \"@chainlink/contracts/src/v0.8/vendor/BufferChainlink.sol\":9567:9573  bufptr */\n      dup2\n        /* \"@chainlink/contracts/src/v0.8/vendor/BufferChainlink.sol\":9561:9574  mload(bufptr) */\n      mload\n        /* \"@chainlink/contracts/src/v0.8/vendor/BufferChainlink.sol\":9555:9558  len */\n      dup6\n        /* \"@chainlink/contracts/src/v0.8/vendor/BufferChainlink.sol\":9550:9553  off */\n      dup9\n        /* \"@chainlink/contracts/src/v0.8/vendor/BufferChainlink.sol\":9546:9559  add(off, len) */\n      add\n        /* \"@chainlink/contracts/src/v0.8/vendor/BufferChainlink.sol\":9543:9575  gt(add(off, len), mload(bufptr)) */\n      gt\n        /* \"@chainlink/contracts/src/v0.8/vendor/BufferChainlink.sol\":9540:9623  if gt(add(off, len), mload(bufptr)) {... */\n      iszero\n      tag_325\n      jumpi\n        /* \"@chainlink/contracts/src/v0.8/vendor/BufferChainlink.sol\":9610:9613  len */\n      dup5\n        /* \"@chainlink/contracts/src/v0.8/vendor/BufferChainlink.sol\":9605:9608  off */\n      dup8\n        /* \"@chainlink/contracts/src/v0.8/vendor/BufferChainlink.sol\":9601:9614  add(off, len) */\n      add\n        /* \"@chainlink/contracts/src/v0.8/vendor/BufferChainlink.sol\":9593:9599  bufptr */\n      dup3\n        /* \"@chainlink/contracts/src/v0.8/vendor/BufferChainlink.sol\":9586:9615  mstore(bufptr, add(off, len)) */\n      mstore\n        /* \"@chainlink/contracts/src/v0.8/vendor/BufferChainlink.sol\":9540:9623  if gt(add(off, len), mload(bufptr)) {... */\n    tag_325:\n        /* \"@chainlink/contracts/src/v0.8/vendor/BufferChainlink.sol\":9237:9629  {... */\n      pop\n      pop\n        /* \"@chainlink/contracts/src/v0.8/vendor/BufferChainlink.sol\":9641:9644  buf */\n      dup6\n        /* \"@chainlink/contracts/src/v0.8/vendor/BufferChainlink.sol\":9634:9644  return buf */\n      swap2\n      pop\n      pop\n        /* \"@chainlink/contracts/src/v0.8/vendor/BufferChainlink.sol\":8974:9649  function writeInt(... */\n      swap5\n      swap4\n      pop\n      pop\n      pop\n      pop\n      jump\t// out\n        /* \"@chainlink/contracts/src/v0.8/vendor/BufferChainlink.sol\":1961:2085  function max(uint256 a, uint256 b) private pure returns (uint256) {... */\n    tag_295:\n        /* \"@chainlink/contracts/src/v0.8/vendor/BufferChainlink.sol\":2018:2025  uint256 */\n      0x00\n        /* \"@chainlink/contracts/src/v0.8/vendor/BufferChainlink.sol\":2041:2042  b */\n      dup2\n        /* \"@chainlink/contracts/src/v0.8/vendor/BufferChainlink.sol\":2037:2038  a */\n      dup4\n        /* \"@chainlink/contracts/src/v0.8/vendor/BufferChainlink.sol\":2037:2042  a > b */\n      gt\n        /* \"@chainlink/contracts/src/v0.8/vendor/BufferChainlink.sol\":2033:2067  if (a > b) {... */\n      iszero\n      tag_327\n      jumpi\n        /* \"@chainlink/contracts/src/v0.8/vendor/BufferChainlink.sol\":2059:2060  a */\n      dup3\n        /* \"@chainlink/contracts/src/v0.8/vendor/BufferChainlink.sol\":2052:2060  return a */\n      swap1\n      pop\n      jump(tag_326)\n        /* \"@chainlink/contracts/src/v0.8/vendor/BufferChainlink.sol\":2033:2067  if (a > b) {... */\n    tag_327:\n        /* \"@chainlink/contracts/src/v0.8/vendor/BufferChainlink.sol\":2079:2080  b */\n      dup2\n        /* \"@chainlink/contracts/src/v0.8/vendor/BufferChainlink.sol\":2072:2080  return b */\n      swap1\n      pop\n        /* \"@chainlink/contracts/src/v0.8/vendor/BufferChainlink.sol\":1961:2085  function max(uint256 a, uint256 b) private pure returns (uint256) {... */\n    tag_326:\n      swap3\n      swap2\n      pop\n      pop\n      jump\t// out\n        /* \"@chainlink/contracts/src/v0.8/vendor/BufferChainlink.sol\":1801:1957  function resize(buffer memory buf, uint256 capacity) private pure {... */\n    tag_298:\n        /* \"@chainlink/contracts/src/v0.8/vendor/BufferChainlink.sol\":1873:1892  bytes memory oldbuf */\n      0x00\n        /* \"@chainlink/contracts/src/v0.8/vendor/BufferChainlink.sol\":1895:1898  buf */\n      dup3\n        /* \"@chainlink/contracts/src/v0.8/vendor/BufferChainlink.sol\":1895:1902  buf.buf */\n      0x00\n      add\n      mload\n        /* \"@chainlink/contracts/src/v0.8/vendor/BufferChainlink.sol\":1873:1902  bytes memory oldbuf = buf.buf */\n      swap1\n      pop\n        /* \"@chainlink/contracts/src/v0.8/vendor/BufferChainlink.sol\":1908:1927  init(buf, capacity) */\n      tag_329\n        /* \"@chainlink/contracts/src/v0.8/vendor/BufferChainlink.sol\":1913:1916  buf */\n      dup4\n        /* \"@chainlink/contracts/src/v0.8/vendor/BufferChainlink.sol\":1918:1926  capacity */\n      dup4\n        /* \"@chainlink/contracts/src/v0.8/vendor/BufferChainlink.sol\":1908:1912  init */\n      tag_209\n        /* \"@chainlink/contracts/src/v0.8/vendor/BufferChainlink.sol\":1908:1927  init(buf, capacity) */\n      jump\t// in\n    tag_329:\n      pop\n        /* \"@chainlink/contracts/src/v0.8/vendor/BufferChainlink.sol\":1933:1952  append(buf, oldbuf) */\n      tag_330\n        /* \"@chainlink/contracts/src/v0.8/vendor/BufferChainlink.sol\":1940:1943  buf */\n      dup4\n        /* \"@chainlink/contracts/src/v0.8/vendor/BufferChainlink.sol\":1945:1951  oldbuf */\n      dup3\n        /* \"@chainlink/contracts/src/v0.8/vendor/BufferChainlink.sol\":1933:1939  append */\n      tag_214\n        /* \"@chainlink/contracts/src/v0.8/vendor/BufferChainlink.sol\":1933:1952  append(buf, oldbuf) */\n      jump\t// in\n    tag_330:\n      pop\n        /* \"@chainlink/contracts/src/v0.8/vendor/BufferChainlink.sol\":1867:1957  {... */\n      pop\n        /* \"@chainlink/contracts/src/v0.8/vendor/BufferChainlink.sol\":1801:1957  function resize(buffer memory buf, uint256 capacity) private pure {... */\n      pop\n      pop\n      jump\t// out\n    tag_172:\n      mload(0x40)\n      dup1\n      0xa0\n      add\n      0x40\n      mstore\n      dup1\n      0x00\n      dup1\n      not\n      and\n      dup2\n      mstore\n      0x20\n      add\n      and(0xffffffffffffffffffffffffffffffffffffffff, 0x00)\n      dup2\n      mstore\n      0x20\n      add\n      and(not(0xffffffffffffffffffffffffffffffffffffffffffffffffffffffff), 0x00)\n      dup2\n      mstore\n      0x20\n      add\n      0x00\n      dup2\n      mstore\n      0x20\n      add\n      tag_331\n      tag_229\n      jump\t// in\n    tag_331:\n      dup2\n      mstore\n      pop\n      swap1\n      jump\t// out\n    tag_186:\n      mload(0x40)\n      dup1\n      0xa0\n      add\n      0x40\n      mstore\n      dup1\n      0x00\n      dup2\n      mstore\n      0x20\n      add\n      0x60\n      dup2\n      mstore\n      0x20\n      add\n      0x60\n      dup2\n      mstore\n      0x20\n      add\n      0x60\n      dup2\n      mstore\n      0x20\n      add\n      0x60\n      dup2\n      mstore\n      pop\n      swap1\n      jump\t// out\n    tag_188:\n      dup3\n      dup1\n      sload\n      tag_332\n      swap1\n      tag_116\n      jump\t// in\n    tag_332:\n      swap1\n      0x00\n      mstore\n      keccak256(0x00, 0x20)\n      swap1\n      0x1f\n      add\n      0x20\n      swap1\n      div\n      dup2\n      add\n      swap3\n      dup3\n      tag_334\n      jumpi\n      0x00\n      dup6\n      sstore\n      jump(tag_333)\n    tag_334:\n      dup3\n      0x1f\n      lt\n      tag_335\n      jumpi\n      dup1\n      mload\n      not(0xff)\n      and\n      dup4\n      dup1\n      add\n      or\n      dup6\n      sstore\n      jump(tag_333)\n    tag_335:\n      dup3\n      dup1\n      add\n      0x01\n      add\n      dup6\n      sstore\n      dup3\n      iszero\n      tag_333\n      jumpi\n      swap2\n      dup3\n      add\n    tag_336:\n      dup3\n      dup2\n      gt\n      iszero\n      tag_337\n      jumpi\n      dup3\n      mload\n      dup3\n      sstore\n      swap2\n      0x20\n      add\n      swap2\n      swap1\n      0x01\n      add\n      swap1\n      jump(tag_336)\n    tag_337:\n    tag_333:\n      pop\n      swap1\n      pop\n      tag_338\n      swap2\n      swap1\n      tag_339\n      jump\t// in\n    tag_338:\n      pop\n      swap1\n      jump\t// out\n    tag_229:\n      mload(0x40)\n      dup1\n      0x40\n      add\n      0x40\n      mstore\n      dup1\n      0x60\n      dup2\n      mstore\n      0x20\n      add\n      0x00\n      dup2\n      mstore\n      pop\n      swap1\n      jump\t// out\n    tag_339:\n    tag_340:\n      dup1\n      dup3\n      gt\n      iszero\n      tag_341\n      jumpi\n      0x00\n      dup2\n      0x00\n      swap1\n      sstore\n      pop\n      0x01\n      add\n      jump(tag_340)\n    tag_341:\n      pop\n      swap1\n      jump\t// out\n        /* \"#utility.yul\":7:82   */\n    tag_342:\n        /* \"#utility.yul\":40:46   */\n      0x00\n        /* \"#utility.yul\":73:75   */\n      0x40\n        /* \"#utility.yul\":67:76   */\n      mload\n        /* \"#utility.yul\":57:76   */\n      swap1\n      pop\n        /* \"#utility.yul\":7:82   */\n      swap1\n      jump\t// out\n        /* \"#utility.yul\":88:205   */\n    tag_343:\n        /* \"#utility.yul\":197:198   */\n      0x00\n        /* \"#utility.yul\":194:195   */\n      dup1\n        /* \"#utility.yul\":187:199   */\n      revert\n        /* \"#utility.yul\":211:328   */\n    tag_344:\n        /* \"#utility.yul\":320:321   */\n      0x00\n        /* \"#utility.yul\":317:318   */\n      dup1\n        /* \"#utility.yul\":310:322   */\n      revert\n        /* \"#utility.yul\":334:411   */\n    tag_345:\n        /* \"#utility.yul\":371:378   */\n      0x00\n        /* \"#utility.yul\":400:405   */\n      dup2\n        /* \"#utility.yul\":389:405   */\n      swap1\n      pop\n        /* \"#utility.yul\":334:411   */\n      swap2\n      swap1\n      pop\n      jump\t// out\n        /* \"#utility.yul\":417:539   */\n    tag_346:\n        /* \"#utility.yul\":490:514   */\n      tag_440\n        /* \"#utility.yul\":508:513   */\n      dup2\n        /* \"#utility.yul\":490:514   */\n      tag_345\n      jump\t// in\n    tag_440:\n        /* \"#utility.yul\":483:488   */\n      dup2\n        /* \"#utility.yul\":480:515   */\n      eq\n        /* \"#utility.yul\":470:533   */\n      tag_441\n      jumpi\n        /* \"#utility.yul\":529:530   */\n      0x00\n        /* \"#utility.yul\":526:527   */\n      dup1\n        /* \"#utility.yul\":519:531   */\n      revert\n        /* \"#utility.yul\":470:533   */\n    tag_441:\n        /* \"#utility.yul\":417:539   */\n      pop\n      jump\t// out\n        /* \"#utility.yul\":545:684   */\n    tag_347:\n        /* \"#utility.yul\":591:596   */\n      0x00\n        /* \"#utility.yul\":629:635   */\n      dup2\n        /* \"#utility.yul\":616:636   */\n      calldataload\n        /* \"#utility.yul\":607:636   */\n      swap1\n      pop\n        /* \"#utility.yul\":645:678   */\n      tag_443\n        /* \"#utility.yul\":672:677   */\n      dup2\n        /* \"#utility.yul\":645:678   */\n      tag_346\n      jump\t// in\n    tag_443:\n        /* \"#utility.yul\":545:684   */\n      swap3\n      swap2\n      pop\n      pop\n      jump\t// out\n        /* \"#utility.yul\":690:807   */\n    tag_348:\n        /* \"#utility.yul\":799:800   */\n      0x00\n        /* \"#utility.yul\":796:797   */\n      dup1\n        /* \"#utility.yul\":789:801   */\n      revert\n        /* \"#utility.yul\":813:930   */\n    tag_349:\n        /* \"#utility.yul\":922:923   */\n      0x00\n        /* \"#utility.yul\":919:920   */\n      dup1\n        /* \"#utility.yul\":912:924   */\n      revert\n        /* \"#utility.yul\":936:1053   */\n    tag_350:\n        /* \"#utility.yul\":1045:1046   */\n      0x00\n        /* \"#utility.yul\":1042:1043   */\n      dup1\n        /* \"#utility.yul\":1035:1047   */\n      revert\n        /* \"#utility.yul\":1073:1626   */\n    tag_351:\n        /* \"#utility.yul\":1131:1139   */\n      0x00\n        /* \"#utility.yul\":1141:1147   */\n      dup1\n        /* \"#utility.yul\":1191:1194   */\n      dup4\n        /* \"#utility.yul\":1184:1188   */\n      0x1f\n        /* \"#utility.yul\":1176:1182   */\n      dup5\n        /* \"#utility.yul\":1172:1189   */\n      add\n        /* \"#utility.yul\":1168:1195   */\n      slt\n        /* \"#utility.yul\":1158:1280   */\n      tag_448\n      jumpi\n        /* \"#utility.yul\":1199:1278   */\n      tag_449\n      tag_348\n      jump\t// in\n    tag_449:\n        /* \"#utility.yul\":1158:1280   */\n    tag_448:\n        /* \"#utility.yul\":1312:1318   */\n      dup3\n        /* \"#utility.yul\":1299:1319   */\n      calldataload\n        /* \"#utility.yul\":1289:1319   */\n      swap1\n      pop\n        /* \"#utility.yul\":1342:1360   */\n      0xffffffffffffffff\n        /* \"#utility.yul\":1334:1340   */\n      dup2\n        /* \"#utility.yul\":1331:1361   */\n      gt\n        /* \"#utility.yul\":1328:1445   */\n      iszero\n      tag_450\n      jumpi\n        /* \"#utility.yul\":1364:1443   */\n      tag_451\n      tag_349\n      jump\t// in\n    tag_451:\n        /* \"#utility.yul\":1328:1445   */\n    tag_450:\n        /* \"#utility.yul\":1478:1482   */\n      0x20\n        /* \"#utility.yul\":1470:1476   */\n      dup4\n        /* \"#utility.yul\":1466:1483   */\n      add\n        /* \"#utility.yul\":1454:1483   */\n      swap2\n      pop\n        /* \"#utility.yul\":1532:1535   */\n      dup4\n        /* \"#utility.yul\":1524:1528   */\n      0x01\n        /* \"#utility.yul\":1516:1522   */\n      dup3\n        /* \"#utility.yul\":1512:1529   */\n      mul\n        /* \"#utility.yul\":1502:1510   */\n      dup4\n        /* \"#utility.yul\":1498:1530   */\n      add\n        /* \"#utility.yul\":1495:1536   */\n      gt\n        /* \"#utility.yul\":1492:1620   */\n      iszero\n      tag_452\n      jumpi\n        /* \"#utility.yul\":1539:1618   */\n      tag_453\n      tag_350\n      jump\t// in\n    tag_453:\n        /* \"#utility.yul\":1492:1620   */\n    tag_452:\n        /* \"#utility.yul\":1073:1626   */\n      swap3\n      pop\n      swap3\n      swap1\n      pop\n      jump\t// out\n        /* \"#utility.yul\":1632:2651   */\n    tag_20:\n        /* \"#utility.yul\":1733:1739   */\n      0x00\n        /* \"#utility.yul\":1741:1747   */\n      dup1\n        /* \"#utility.yul\":1749:1755   */\n      0x00\n        /* \"#utility.yul\":1757:1763   */\n      dup1\n        /* \"#utility.yul\":1765:1771   */\n      0x00\n        /* \"#utility.yul\":1814:1816   */\n      0x60\n        /* \"#utility.yul\":1802:1811   */\n      dup7\n        /* \"#utility.yul\":1793:1800   */\n      dup9\n        /* \"#utility.yul\":1789:1812   */\n      sub\n        /* \"#utility.yul\":1785:1817   */\n      slt\n        /* \"#utility.yul\":1782:1901   */\n      iszero\n      tag_455\n      jumpi\n        /* \"#utility.yul\":1820:1899   */\n      tag_456\n      tag_343\n      jump\t// in\n    tag_456:\n        /* \"#utility.yul\":1782:1901   */\n    tag_455:\n        /* \"#utility.yul\":1940:1941   */\n      0x00\n        /* \"#utility.yul\":1965:2018   */\n      tag_457\n        /* \"#utility.yul\":2010:2017   */\n      dup9\n        /* \"#utility.yul\":2001:2007   */\n      dup3\n        /* \"#utility.yul\":1990:1999   */\n      dup10\n        /* \"#utility.yul\":1986:2008   */\n      add\n        /* \"#utility.yul\":1965:2018   */\n      tag_347\n      jump\t// in\n    tag_457:\n        /* \"#utility.yul\":1955:2018   */\n      swap6\n      pop\n        /* \"#utility.yul\":1911:2028   */\n      pop\n        /* \"#utility.yul\":2095:2097   */\n      0x20\n        /* \"#utility.yul\":2084:2093   */\n      dup7\n        /* \"#utility.yul\":2080:2098   */\n      add\n        /* \"#utility.yul\":2067:2099   */\n      calldataload\n        /* \"#utility.yul\":2126:2144   */\n      0xffffffffffffffff\n        /* \"#utility.yul\":2118:2124   */\n      dup2\n        /* \"#utility.yul\":2115:2145   */\n      gt\n        /* \"#utility.yul\":2112:2229   */\n      iszero\n      tag_458\n      jumpi\n        /* \"#utility.yul\":2148:2227   */\n      tag_459\n      tag_344\n      jump\t// in\n    tag_459:\n        /* \"#utility.yul\":2112:2229   */\n    tag_458:\n        /* \"#utility.yul\":2261:2326   */\n      tag_460\n        /* \"#utility.yul\":2318:2325   */\n      dup9\n        /* \"#utility.yul\":2309:2315   */\n      dup3\n        /* \"#utility.yul\":2298:2307   */\n      dup10\n        /* \"#utility.yul\":2294:2316   */\n      add\n        /* \"#utility.yul\":2261:2326   */\n      tag_351\n      jump\t// in\n    tag_460:\n        /* \"#utility.yul\":2243:2326   */\n      swap5\n      pop\n      swap5\n      pop\n        /* \"#utility.yul\":2038:2336   */\n      pop\n        /* \"#utility.yul\":2403:2405   */\n      0x40\n        /* \"#utility.yul\":2392:2401   */\n      dup7\n        /* \"#utility.yul\":2388:2406   */\n      add\n        /* \"#utility.yul\":2375:2407   */\n      calldataload\n        /* \"#utility.yul\":2434:2452   */\n      0xffffffffffffffff\n        /* \"#utility.yul\":2426:2432   */\n      dup2\n        /* \"#utility.yul\":2423:2453   */\n      gt\n        /* \"#utility.yul\":2420:2537   */\n      iszero\n      tag_461\n      jumpi\n        /* \"#utility.yul\":2456:2535   */\n      tag_462\n      tag_344\n      jump\t// in\n    tag_462:\n        /* \"#utility.yul\":2420:2537   */\n    tag_461:\n        /* \"#utility.yul\":2569:2634   */\n      tag_463\n        /* \"#utility.yul\":2626:2633   */\n      dup9\n        /* \"#utility.yul\":2617:2623   */\n      dup3\n        /* \"#utility.yul\":2606:2615   */\n      dup10\n        /* \"#utility.yul\":2602:2624   */\n      add\n        /* \"#utility.yul\":2569:2634   */\n      tag_351\n      jump\t// in\n    tag_463:\n        /* \"#utility.yul\":2551:2634   */\n      swap3\n      pop\n      swap3\n      pop\n        /* \"#utility.yul\":2346:2644   */\n      pop\n        /* \"#utility.yul\":1632:2651   */\n      swap3\n      swap6\n      pop\n      swap3\n      swap6\n      swap1\n      swap4\n      pop\n      jump\t// out\n        /* \"#utility.yul\":2657:2747   */\n    tag_352:\n        /* \"#utility.yul\":2691:2698   */\n      0x00\n        /* \"#utility.yul\":2734:2739   */\n      dup2\n        /* \"#utility.yul\":2727:2740   */\n      iszero\n        /* \"#utility.yul\":2720:2741   */\n      iszero\n        /* \"#utility.yul\":2709:2741   */\n      swap1\n      pop\n        /* \"#utility.yul\":2657:2747   */\n      swap2\n      swap1\n      pop\n      jump\t// out\n        /* \"#utility.yul\":2753:2869   */\n    tag_353:\n        /* \"#utility.yul\":2823:2844   */\n      tag_466\n        /* \"#utility.yul\":2838:2843   */\n      dup2\n        /* \"#utility.yul\":2823:2844   */\n      tag_352\n      jump\t// in\n    tag_466:\n        /* \"#utility.yul\":2816:2821   */\n      dup2\n        /* \"#utility.yul\":2813:2845   */\n      eq\n        /* \"#utility.yul\":2803:2863   */\n      tag_467\n      jumpi\n        /* \"#utility.yul\":2859:2860   */\n      0x00\n        /* \"#utility.yul\":2856:2857   */\n      dup1\n        /* \"#utility.yul\":2849:2861   */\n      revert\n        /* \"#utility.yul\":2803:2863   */\n    tag_467:\n        /* \"#utility.yul\":2753:2869   */\n      pop\n      jump\t// out\n        /* \"#utility.yul\":2875:3008   */\n    tag_354:\n        /* \"#utility.yul\":2918:2923   */\n      0x00\n        /* \"#utility.yul\":2956:2962   */\n      dup2\n        /* \"#utility.yul\":2943:2963   */\n      calldataload\n        /* \"#utility.yul\":2934:2963   */\n      swap1\n      pop\n        /* \"#utility.yul\":2972:3002   */\n      tag_469\n        /* \"#utility.yul\":2996:3001   */\n      dup2\n        /* \"#utility.yul\":2972:3002   */\n      tag_353\n      jump\t// in\n    tag_469:\n        /* \"#utility.yul\":2875:3008   */\n      swap3\n      swap2\n      pop\n      pop\n      jump\t// out\n        /* \"#utility.yul\":3014:3131   */\n    tag_355:\n        /* \"#utility.yul\":3123:3124   */\n      0x00\n        /* \"#utility.yul\":3120:3121   */\n      dup1\n        /* \"#utility.yul\":3113:3125   */\n      revert\n        /* \"#utility.yul\":3137:3239   */\n    tag_356:\n        /* \"#utility.yul\":3178:3184   */\n      0x00\n        /* \"#utility.yul\":3229:3231   */\n      0x1f\n        /* \"#utility.yul\":3225:3232   */\n      not\n        /* \"#utility.yul\":3220:3222   */\n      0x1f\n        /* \"#utility.yul\":3213:3218   */\n      dup4\n        /* \"#utility.yul\":3209:3223   */\n      add\n        /* \"#utility.yul\":3205:3233   */\n      and\n        /* \"#utility.yul\":3195:3233   */\n      swap1\n      pop\n        /* \"#utility.yul\":3137:3239   */\n      swap2\n      swap1\n      pop\n      jump\t// out\n        /* \"#utility.yul\":3245:3425   */\n    tag_357:\n        /* \"#utility.yul\":3293:3370   */\n      0x4e487b7100000000000000000000000000000000000000000000000000000000\n        /* \"#utility.yul\":3290:3291   */\n      0x00\n        /* \"#utility.yul\":3283:3371   */\n      mstore\n        /* \"#utility.yul\":3390:3394   */\n      0x41\n        /* \"#utility.yul\":3387:3388   */\n      0x04\n        /* \"#utility.yul\":3380:3395   */\n      mstore\n        /* \"#utility.yul\":3414:3418   */\n      0x24\n        /* \"#utility.yul\":3411:3412   */\n      0x00\n        /* \"#utility.yul\":3404:3419   */\n      revert\n        /* \"#utility.yul\":3431:3712   */\n    tag_358:\n        /* \"#utility.yul\":3514:3541   */\n      tag_474\n        /* \"#utility.yul\":3536:3540   */\n      dup3\n        /* \"#utility.yul\":3514:3541   */\n      tag_356\n      jump\t// in\n    tag_474:\n        /* \"#utility.yul\":3506:3512   */\n      dup2\n        /* \"#utility.yul\":3502:3542   */\n      add\n        /* \"#utility.yul\":3644:3650   */\n      dup2\n        /* \"#utility.yul\":3632:3642   */\n      dup2\n        /* \"#utility.yul\":3629:3651   */\n      lt\n        /* \"#utility.yul\":3608:3626   */\n      0xffffffffffffffff\n        /* \"#utility.yul\":3596:3606   */\n      dup3\n        /* \"#utility.yul\":3593:3627   */\n      gt\n        /* \"#utility.yul\":3590:3652   */\n      or\n        /* \"#utility.yul\":3587:3675   */\n      iszero\n      tag_475\n      jumpi\n        /* \"#utility.yul\":3655:3673   */\n      tag_476\n      tag_357\n      jump\t// in\n    tag_476:\n        /* \"#utility.yul\":3587:3675   */\n    tag_475:\n        /* \"#utility.yul\":3695:3705   */\n      dup1\n        /* \"#utility.yul\":3691:3693   */\n      0x40\n        /* \"#utility.yul\":3684:3706   */\n      mstore\n        /* \"#utility.yul\":3474:3712   */\n      pop\n        /* \"#utility.yul\":3431:3712   */\n      pop\n      pop\n      jump\t// out\n        /* \"#utility.yul\":3718:3847   */\n    tag_359:\n        /* \"#utility.yul\":3752:3758   */\n      0x00\n        /* \"#utility.yul\":3779:3799   */\n      tag_478\n      tag_342\n      jump\t// in\n    tag_478:\n        /* \"#utility.yul\":3769:3799   */\n      swap1\n      pop\n        /* \"#utility.yul\":3808:3841   */\n      tag_479\n        /* \"#utility.yul\":3836:3840   */\n      dup3\n        /* \"#utility.yul\":3828:3834   */\n      dup3\n        /* \"#utility.yul\":3808:3841   */\n      tag_358\n      jump\t// in\n    tag_479:\n        /* \"#utility.yul\":3718:3847   */\n      swap2\n      swap1\n      pop\n      jump\t// out\n        /* \"#utility.yul\":3853:4160   */\n    tag_360:\n        /* \"#utility.yul\":3914:3918   */\n      0x00\n        /* \"#utility.yul\":4004:4022   */\n      0xffffffffffffffff\n        /* \"#utility.yul\":3996:4002   */\n      dup3\n        /* \"#utility.yul\":3993:4023   */\n      gt\n        /* \"#utility.yul\":3990:4046   */\n      iszero\n      tag_481\n      jumpi\n        /* \"#utility.yul\":4026:4044   */\n      tag_482\n      tag_357\n      jump\t// in\n    tag_482:\n        /* \"#utility.yul\":3990:4046   */\n    tag_481:\n        /* \"#utility.yul\":4064:4093   */\n      tag_483\n        /* \"#utility.yul\":4086:4092   */\n      dup3\n        /* \"#utility.yul\":4064:4093   */\n      tag_356\n      jump\t// in\n    tag_483:\n        /* \"#utility.yul\":4056:4093   */\n      swap1\n      pop\n        /* \"#utility.yul\":4148:4152   */\n      0x20\n        /* \"#utility.yul\":4142:4146   */\n      dup2\n        /* \"#utility.yul\":4138:4153   */\n      add\n        /* \"#utility.yul\":4130:4153   */\n      swap1\n      pop\n        /* \"#utility.yul\":3853:4160   */\n      swap2\n      swap1\n      pop\n      jump\t// out\n        /* \"#utility.yul\":4166:4320   */\n    tag_361:\n        /* \"#utility.yul\":4250:4256   */\n      dup3\n        /* \"#utility.yul\":4245:4248   */\n      dup2\n        /* \"#utility.yul\":4240:4243   */\n      dup4\n        /* \"#utility.yul\":4227:4257   */\n      calldatacopy\n        /* \"#utility.yul\":4312:4313   */\n      0x00\n        /* \"#utility.yul\":4303:4309   */\n      dup4\n        /* \"#utility.yul\":4298:4301   */\n      dup4\n        /* \"#utility.yul\":4294:4310   */\n      add\n        /* \"#utility.yul\":4287:4314   */\n      mstore\n        /* \"#utility.yul\":4166:4320   */\n      pop\n      pop\n      pop\n      jump\t// out\n        /* \"#utility.yul\":4326:4736   */\n    tag_362:\n        /* \"#utility.yul\":4403:4408   */\n      0x00\n        /* \"#utility.yul\":4428:4493   */\n      tag_486\n        /* \"#utility.yul\":4444:4492   */\n      tag_487\n        /* \"#utility.yul\":4485:4491   */\n      dup5\n        /* \"#utility.yul\":4444:4492   */\n      tag_360\n      jump\t// in\n    tag_487:\n        /* \"#utility.yul\":4428:4493   */\n      tag_359\n      jump\t// in\n    tag_486:\n        /* \"#utility.yul\":4419:4493   */\n      swap1\n      pop\n        /* \"#utility.yul\":4516:4522   */\n      dup3\n        /* \"#utility.yul\":4509:4514   */\n      dup2\n        /* \"#utility.yul\":4502:4523   */\n      mstore\n        /* \"#utility.yul\":4554:4558   */\n      0x20\n        /* \"#utility.yul\":4547:4552   */\n      dup2\n        /* \"#utility.yul\":4543:4559   */\n      add\n        /* \"#utility.yul\":4592:4595   */\n      dup5\n        /* \"#utility.yul\":4583:4589   */\n      dup5\n        /* \"#utility.yul\":4578:4581   */\n      dup5\n        /* \"#utility.yul\":4574:4590   */\n      add\n        /* \"#utility.yul\":4571:4596   */\n      gt\n        /* \"#utility.yul\":4568:4680   */\n      iszero\n      tag_488\n      jumpi\n        /* \"#utility.yul\":4599:4678   */\n      tag_489\n      tag_355\n      jump\t// in\n    tag_489:\n        /* \"#utility.yul\":4568:4680   */\n    tag_488:\n        /* \"#utility.yul\":4689:4730   */\n      tag_490\n        /* \"#utility.yul\":4723:4729   */\n      dup5\n        /* \"#utility.yul\":4718:4721   */\n      dup3\n        /* \"#utility.yul\":4713:4716   */\n      dup6\n        /* \"#utility.yul\":4689:4730   */\n      tag_361\n      jump\t// in\n    tag_490:\n        /* \"#utility.yul\":4409:4736   */\n      pop\n        /* \"#utility.yul\":4326:4736   */\n      swap4\n      swap3\n      pop\n      pop\n      pop\n      jump\t// out\n        /* \"#utility.yul\":4755:5093   */\n    tag_363:\n        /* \"#utility.yul\":4810:4815   */\n      0x00\n        /* \"#utility.yul\":4859:4862   */\n      dup3\n        /* \"#utility.yul\":4852:4856   */\n      0x1f\n        /* \"#utility.yul\":4844:4850   */\n      dup4\n        /* \"#utility.yul\":4840:4857   */\n      add\n        /* \"#utility.yul\":4836:4863   */\n      slt\n        /* \"#utility.yul\":4826:4948   */\n      tag_492\n      jumpi\n        /* \"#utility.yul\":4867:4946   */\n      tag_493\n      tag_348\n      jump\t// in\n    tag_493:\n        /* \"#utility.yul\":4826:4948   */\n    tag_492:\n        /* \"#utility.yul\":4984:4990   */\n      dup2\n        /* \"#utility.yul\":4971:4991   */\n      calldataload\n        /* \"#utility.yul\":5009:5087   */\n      tag_494\n        /* \"#utility.yul\":5083:5086   */\n      dup5\n        /* \"#utility.yul\":5075:5081   */\n      dup3\n        /* \"#utility.yul\":5068:5072   */\n      0x20\n        /* \"#utility.yul\":5060:5066   */\n      dup7\n        /* \"#utility.yul\":5056:5073   */\n      add\n        /* \"#utility.yul\":5009:5087   */\n      tag_362\n      jump\t// in\n    tag_494:\n        /* \"#utility.yul\":5000:5087   */\n      swap2\n      pop\n        /* \"#utility.yul\":4816:5093   */\n      pop\n        /* \"#utility.yul\":4755:5093   */\n      swap3\n      swap2\n      pop\n      pop\n      jump\t// out\n        /* \"#utility.yul\":5099:6214   */\n    tag_24:\n        /* \"#utility.yul\":5200:5206   */\n      0x00\n        /* \"#utility.yul\":5208:5214   */\n      dup1\n        /* \"#utility.yul\":5216:5222   */\n      0x00\n        /* \"#utility.yul\":5224:5230   */\n      dup1\n        /* \"#utility.yul\":5273:5276   */\n      0x80\n        /* \"#utility.yul\":5261:5270   */\n      dup6\n        /* \"#utility.yul\":5252:5259   */\n      dup8\n        /* \"#utility.yul\":5248:5271   */\n      sub\n        /* \"#utility.yul\":5244:5277   */\n      slt\n        /* \"#utility.yul\":5241:5361   */\n      iszero\n      tag_496\n      jumpi\n        /* \"#utility.yul\":5280:5359   */\n      tag_497\n      tag_343\n      jump\t// in\n    tag_497:\n        /* \"#utility.yul\":5241:5361   */\n    tag_496:\n        /* \"#utility.yul\":5400:5401   */\n      0x00\n        /* \"#utility.yul\":5425:5478   */\n      tag_498\n        /* \"#utility.yul\":5470:5477   */\n      dup8\n        /* \"#utility.yul\":5461:5467   */\n      dup3\n        /* \"#utility.yul\":5450:5459   */\n      dup9\n        /* \"#utility.yul\":5446:5468   */\n      add\n        /* \"#utility.yul\":5425:5478   */\n      tag_347\n      jump\t// in\n    tag_498:\n        /* \"#utility.yul\":5415:5478   */\n      swap5\n      pop\n        /* \"#utility.yul\":5371:5488   */\n      pop\n        /* \"#utility.yul\":5527:5529   */\n      0x20\n        /* \"#utility.yul\":5553:5603   */\n      tag_499\n        /* \"#utility.yul\":5595:5602   */\n      dup8\n        /* \"#utility.yul\":5586:5592   */\n      dup3\n        /* \"#utility.yul\":5575:5584   */\n      dup9\n        /* \"#utility.yul\":5571:5593   */\n      add\n        /* \"#utility.yul\":5553:5603   */\n      tag_354\n      jump\t// in\n    tag_499:\n        /* \"#utility.yul\":5543:5603   */\n      swap4\n      pop\n        /* \"#utility.yul\":5498:5613   */\n      pop\n        /* \"#utility.yul\":5680:5682   */\n      0x40\n        /* \"#utility.yul\":5669:5678   */\n      dup6\n        /* \"#utility.yul\":5665:5683   */\n      add\n        /* \"#utility.yul\":5652:5684   */\n      calldataload\n        /* \"#utility.yul\":5711:5729   */\n      0xffffffffffffffff\n        /* \"#utility.yul\":5703:5709   */\n      dup2\n        /* \"#utility.yul\":5700:5730   */\n      gt\n        /* \"#utility.yul\":5697:5814   */\n      iszero\n      tag_500\n      jumpi\n        /* \"#utility.yul\":5733:5812   */\n      tag_501\n      tag_344\n      jump\t// in\n    tag_501:\n        /* \"#utility.yul\":5697:5814   */\n    tag_500:\n        /* \"#utility.yul\":5838:5900   */\n      tag_502\n        /* \"#utility.yul\":5892:5899   */\n      dup8\n        /* \"#utility.yul\":5883:5889   */\n      dup3\n        /* \"#utility.yul\":5872:5881   */\n      dup9\n        /* \"#utility.yul\":5868:5890   */\n      add\n        /* \"#utility.yul\":5838:5900   */\n      tag_363\n      jump\t// in\n    tag_502:\n        /* \"#utility.yul\":5828:5900   */\n      swap3\n      pop\n        /* \"#utility.yul\":5623:5910   */\n      pop\n        /* \"#utility.yul\":5977:5979   */\n      0x60\n        /* \"#utility.yul\":5966:5975   */\n      dup6\n        /* \"#utility.yul\":5962:5980   */\n      add\n        /* \"#utility.yul\":5949:5981   */\n      calldataload\n        /* \"#utility.yul\":6008:6026   */\n      0xffffffffffffffff\n        /* \"#utility.yul\":6000:6006   */\n      dup2\n        /* \"#utility.yul\":5997:6027   */\n      gt\n        /* \"#utility.yul\":5994:6111   */\n      iszero\n      tag_503\n      jumpi\n        /* \"#utility.yul\":6030:6109   */\n      tag_504\n      tag_344\n      jump\t// in\n    tag_504:\n        /* \"#utility.yul\":5994:6111   */\n    tag_503:\n        /* \"#utility.yul\":6135:6197   */\n      tag_505\n        /* \"#utility.yul\":6189:6196   */\n      dup8\n        /* \"#utility.yul\":6180:6186   */\n      dup3\n        /* \"#utility.yul\":6169:6178   */\n      dup9\n        /* \"#utility.yul\":6165:6187   */\n      add\n        /* \"#utility.yul\":6135:6197   */\n      tag_363\n      jump\t// in\n    tag_505:\n        /* \"#utility.yul\":6125:6197   */\n      swap2\n      pop\n        /* \"#utility.yul\":5920:6207   */\n      pop\n        /* \"#utility.yul\":5099:6214   */\n      swap3\n      swap6\n      swap2\n      swap5\n      pop\n      swap3\n      pop\n      jump\t// out\n        /* \"#utility.yul\":6220:6549   */\n    tag_28:\n        /* \"#utility.yul\":6279:6285   */\n      0x00\n        /* \"#utility.yul\":6328:6330   */\n      0x20\n        /* \"#utility.yul\":6316:6325   */\n      dup3\n        /* \"#utility.yul\":6307:6314   */\n      dup5\n        /* \"#utility.yul\":6303:6326   */\n      sub\n        /* \"#utility.yul\":6299:6331   */\n      slt\n        /* \"#utility.yul\":6296:6415   */\n      iszero\n      tag_507\n      jumpi\n        /* \"#utility.yul\":6334:6413   */\n      tag_508\n      tag_343\n      jump\t// in\n    tag_508:\n        /* \"#utility.yul\":6296:6415   */\n    tag_507:\n        /* \"#utility.yul\":6454:6455   */\n      0x00\n        /* \"#utility.yul\":6479:6532   */\n      tag_509\n        /* \"#utility.yul\":6524:6531   */\n      dup5\n        /* \"#utility.yul\":6515:6521   */\n      dup3\n        /* \"#utility.yul\":6504:6513   */\n      dup6\n        /* \"#utility.yul\":6500:6522   */\n      add\n        /* \"#utility.yul\":6479:6532   */\n      tag_347\n      jump\t// in\n    tag_509:\n        /* \"#utility.yul\":6469:6532   */\n      swap2\n      pop\n        /* \"#utility.yul\":6425:6542   */\n      pop\n        /* \"#utility.yul\":6220:6549   */\n      swap3\n      swap2\n      pop\n      pop\n      jump\t// out\n        /* \"#utility.yul\":6555:6632   */\n    tag_364:\n        /* \"#utility.yul\":6592:6599   */\n      0x00\n        /* \"#utility.yul\":6621:6626   */\n      dup2\n        /* \"#utility.yul\":6610:6626   */\n      swap1\n      pop\n        /* \"#utility.yul\":6555:6632   */\n      swap2\n      swap1\n      pop\n      jump\t// out\n        /* \"#utility.yul\":6638:6756   */\n    tag_365:\n        /* \"#utility.yul\":6725:6749   */\n      tag_512\n        /* \"#utility.yul\":6743:6748   */\n      dup2\n        /* \"#utility.yul\":6725:6749   */\n      tag_364\n      jump\t// in\n    tag_512:\n        /* \"#utility.yul\":6720:6723   */\n      dup3\n        /* \"#utility.yul\":6713:6750   */\n      mstore\n        /* \"#utility.yul\":6638:6756   */\n      pop\n      pop\n      jump\t// out\n        /* \"#utility.yul\":6762:6853   */\n    tag_366:\n        /* \"#utility.yul\":6798:6805   */\n      0x00\n        /* \"#utility.yul\":6838:6846   */\n      0xffffff\n        /* \"#utility.yul\":6831:6836   */\n      dup3\n        /* \"#utility.yul\":6827:6847   */\n      and\n        /* \"#utility.yul\":6816:6847   */\n      swap1\n      pop\n        /* \"#utility.yul\":6762:6853   */\n      swap2\n      swap1\n      pop\n      jump\t// out\n        /* \"#utility.yul\":6859:6974   */\n    tag_367:\n        /* \"#utility.yul\":6944:6967   */\n      tag_515\n        /* \"#utility.yul\":6961:6966   */\n      dup2\n        /* \"#utility.yul\":6944:6967   */\n      tag_366\n      jump\t// in\n    tag_515:\n        /* \"#utility.yul\":6939:6942   */\n      dup3\n        /* \"#utility.yul\":6932:6968   */\n      mstore\n        /* \"#utility.yul\":6859:6974   */\n      pop\n      pop\n      jump\t// out\n        /* \"#utility.yul\":6980:7070   */\n    tag_368:\n        /* \"#utility.yul\":7015:7022   */\n      0x00\n        /* \"#utility.yul\":7058:7063   */\n      dup2\n        /* \"#utility.yul\":7055:7056   */\n      0x01\n        /* \"#utility.yul\":7044:7064   */\n      signextend\n        /* \"#utility.yul\":7033:7064   */\n      swap1\n      pop\n        /* \"#utility.yul\":6980:7070   */\n      swap2\n      swap1\n      pop\n      jump\t// out\n        /* \"#utility.yul\":7076:7188   */\n    tag_369:\n        /* \"#utility.yul\":7159:7181   */\n      tag_518\n        /* \"#utility.yul\":7175:7180   */\n      dup2\n        /* \"#utility.yul\":7159:7181   */\n      tag_368\n      jump\t// in\n    tag_518:\n        /* \"#utility.yul\":7154:7157   */\n      dup3\n        /* \"#utility.yul\":7147:7182   */\n      mstore\n        /* \"#utility.yul\":7076:7188   */\n      pop\n      pop\n      jump\t// out\n        /* \"#utility.yul\":7194:7283   */\n    tag_370:\n        /* \"#utility.yul\":7230:7237   */\n      0x00\n        /* \"#utility.yul\":7270:7276   */\n      0xffff\n        /* \"#utility.yul\":7263:7268   */\n      dup3\n        /* \"#utility.yul\":7259:7277   */\n      and\n        /* \"#utility.yul\":7248:7277   */\n      swap1\n      pop\n        /* \"#utility.yul\":7194:7283   */\n      swap2\n      swap1\n      pop\n      jump\t// out\n        /* \"#utility.yul\":7289:7404   */\n    tag_371:\n        /* \"#utility.yul\":7374:7397   */\n      tag_521\n        /* \"#utility.yul\":7391:7396   */\n      dup2\n        /* \"#utility.yul\":7374:7397   */\n      tag_370\n      jump\t// in\n    tag_521:\n        /* \"#utility.yul\":7369:7372   */\n      dup3\n        /* \"#utility.yul\":7362:7398   */\n      mstore\n        /* \"#utility.yul\":7289:7404   */\n      pop\n      pop\n      jump\t// out\n        /* \"#utility.yul\":7410:7496   */\n    tag_372:\n        /* \"#utility.yul\":7445:7452   */\n      0x00\n        /* \"#utility.yul\":7485:7489   */\n      0xff\n        /* \"#utility.yul\":7478:7483   */\n      dup3\n        /* \"#utility.yul\":7474:7490   */\n      and\n        /* \"#utility.yul\":7463:7490   */\n      swap1\n      pop\n        /* \"#utility.yul\":7410:7496   */\n      swap2\n      swap1\n      pop\n      jump\t// out\n        /* \"#utility.yul\":7502:7614   */\n    tag_373:\n        /* \"#utility.yul\":7585:7607   */\n      tag_524\n        /* \"#utility.yul\":7601:7606   */\n      dup2\n        /* \"#utility.yul\":7585:7607   */\n      tag_372\n      jump\t// in\n    tag_524:\n        /* \"#utility.yul\":7580:7583   */\n      dup3\n        /* \"#utility.yul\":7573:7608   */\n      mstore\n        /* \"#utility.yul\":7502:7614   */\n      pop\n      pop\n      jump\t// out\n        /* \"#utility.yul\":7620:9001   */\n    tag_31:\n        /* \"#utility.yul\":7991:7995   */\n      0x00\n        /* \"#utility.yul\":8029:8032   */\n      0x0180\n        /* \"#utility.yul\":8018:8027   */\n      dup3\n        /* \"#utility.yul\":8014:8033   */\n      add\n        /* \"#utility.yul\":8006:8033   */\n      swap1\n      pop\n        /* \"#utility.yul\":8043:8114   */\n      tag_526\n        /* \"#utility.yul\":8111:8112   */\n      0x00\n        /* \"#utility.yul\":8100:8109   */\n      dup4\n        /* \"#utility.yul\":8096:8113   */\n      add\n        /* \"#utility.yul\":8087:8093   */\n      dup16\n        /* \"#utility.yul\":8043:8114   */\n      tag_365\n      jump\t// in\n    tag_526:\n        /* \"#utility.yul\":8124:8194   */\n      tag_527\n        /* \"#utility.yul\":8190:8192   */\n      0x20\n        /* \"#utility.yul\":8179:8188   */\n      dup4\n        /* \"#utility.yul\":8175:8193   */\n      add\n        /* \"#utility.yul\":8166:8172   */\n      dup15\n        /* \"#utility.yul\":8124:8194   */\n      tag_367\n      jump\t// in\n    tag_527:\n        /* \"#utility.yul\":8204:8274   */\n      tag_528\n        /* \"#utility.yul\":8270:8272   */\n      0x40\n        /* \"#utility.yul\":8259:8268   */\n      dup4\n        /* \"#utility.yul\":8255:8273   */\n      add\n        /* \"#utility.yul\":8246:8252   */\n      dup14\n        /* \"#utility.yul\":8204:8274   */\n      tag_367\n      jump\t// in\n    tag_528:\n        /* \"#utility.yul\":8284:8354   */\n      tag_529\n        /* \"#utility.yul\":8350:8352   */\n      0x60\n        /* \"#utility.yul\":8339:8348   */\n      dup4\n        /* \"#utility.yul\":8335:8353   */\n      add\n        /* \"#utility.yul\":8326:8332   */\n      dup13\n        /* \"#utility.yul\":8284:8354   */\n      tag_367\n      jump\t// in\n    tag_529:\n        /* \"#utility.yul\":8364:8435   */\n      tag_530\n        /* \"#utility.yul\":8430:8433   */\n      0x80\n        /* \"#utility.yul\":8419:8428   */\n      dup4\n        /* \"#utility.yul\":8415:8434   */\n      add\n        /* \"#utility.yul\":8406:8412   */\n      dup12\n        /* \"#utility.yul\":8364:8435   */\n      tag_367\n      jump\t// in\n    tag_530:\n        /* \"#utility.yul\":8445:8514   */\n      tag_531\n        /* \"#utility.yul\":8509:8512   */\n      0xa0\n        /* \"#utility.yul\":8498:8507   */\n      dup4\n        /* \"#utility.yul\":8494:8513   */\n      add\n        /* \"#utility.yul\":8485:8491   */\n      dup11\n        /* \"#utility.yul\":8445:8514   */\n      tag_369\n      jump\t// in\n    tag_531:\n        /* \"#utility.yul\":8524:8595   */\n      tag_532\n        /* \"#utility.yul\":8590:8593   */\n      0xc0\n        /* \"#utility.yul\":8579:8588   */\n      dup4\n        /* \"#utility.yul\":8575:8594   */\n      add\n        /* \"#utility.yul\":8566:8572   */\n      dup10\n        /* \"#utility.yul\":8524:8595   */\n      tag_371\n      jump\t// in\n    tag_532:\n        /* \"#utility.yul\":8605:8676   */\n      tag_533\n        /* \"#utility.yul\":8671:8674   */\n      0xe0\n        /* \"#utility.yul\":8660:8669   */\n      dup4\n        /* \"#utility.yul\":8656:8675   */\n      add\n        /* \"#utility.yul\":8647:8653   */\n      dup9\n        /* \"#utility.yul\":8605:8676   */\n      tag_371\n      jump\t// in\n    tag_533:\n        /* \"#utility.yul\":8686:8755   */\n      tag_534\n        /* \"#utility.yul\":8750:8753   */\n      0x0100\n        /* \"#utility.yul\":8739:8748   */\n      dup4\n        /* \"#utility.yul\":8735:8754   */\n      add\n        /* \"#utility.yul\":8726:8732   */\n      dup8\n        /* \"#utility.yul\":8686:8755   */\n      tag_373\n      jump\t// in\n    tag_534:\n        /* \"#utility.yul\":8765:8834   */\n      tag_535\n        /* \"#utility.yul\":8829:8832   */\n      0x0120\n        /* \"#utility.yul\":8818:8827   */\n      dup4\n        /* \"#utility.yul\":8814:8833   */\n      add\n        /* \"#utility.yul\":8805:8811   */\n      dup7\n        /* \"#utility.yul\":8765:8834   */\n      tag_373\n      jump\t// in\n    tag_535:\n        /* \"#utility.yul\":8844:8914   */\n      tag_536\n        /* \"#utility.yul\":8909:8912   */\n      0x0140\n        /* \"#utility.yul\":8898:8907   */\n      dup4\n        /* \"#utility.yul\":8894:8913   */\n      add\n        /* \"#utility.yul\":8884:8891   */\n      dup6\n        /* \"#utility.yul\":8844:8914   */\n      tag_373\n      jump\t// in\n    tag_536:\n        /* \"#utility.yul\":8924:8994   */\n      tag_537\n        /* \"#utility.yul\":8989:8992   */\n      0x0160\n        /* \"#utility.yul\":8978:8987   */\n      dup4\n        /* \"#utility.yul\":8974:8993   */\n      add\n        /* \"#utility.yul\":8964:8971   */\n      dup5\n        /* \"#utility.yul\":8924:8994   */\n      tag_373\n      jump\t// in\n    tag_537:\n        /* \"#utility.yul\":7620:9001   */\n      swap14\n      swap13\n      pop\n      pop\n      pop\n      pop\n      pop\n      pop\n      pop\n      pop\n      pop\n      pop\n      pop\n      pop\n      pop\n      jump\t// out\n        /* \"#utility.yul\":9007:9133   */\n    tag_374:\n        /* \"#utility.yul\":9044:9051   */\n      0x00\n        /* \"#utility.yul\":9084:9126   */\n      0xffffffffffffffffffffffffffffffffffffffff\n        /* \"#utility.yul\":9077:9082   */\n      dup3\n        /* \"#utility.yul\":9073:9127   */\n      and\n        /* \"#utility.yul\":9062:9127   */\n      swap1\n      pop\n        /* \"#utility.yul\":9007:9133   */\n      swap2\n      swap1\n      pop\n      jump\t// out\n        /* \"#utility.yul\":9139:9235   */\n    tag_375:\n        /* \"#utility.yul\":9176:9183   */\n      0x00\n        /* \"#utility.yul\":9205:9229   */\n      tag_540\n        /* \"#utility.yul\":9223:9228   */\n      dup3\n        /* \"#utility.yul\":9205:9229   */\n      tag_374\n      jump\t// in\n    tag_540:\n        /* \"#utility.yul\":9194:9229   */\n      swap1\n      pop\n        /* \"#utility.yul\":9139:9235   */\n      swap2\n      swap1\n      pop\n      jump\t// out\n        /* \"#utility.yul\":9241:9363   */\n    tag_376:\n        /* \"#utility.yul\":9314:9338   */\n      tag_542\n        /* \"#utility.yul\":9332:9337   */\n      dup2\n        /* \"#utility.yul\":9314:9338   */\n      tag_375\n      jump\t// in\n    tag_542:\n        /* \"#utility.yul\":9307:9312   */\n      dup2\n        /* \"#utility.yul\":9304:9339   */\n      eq\n        /* \"#utility.yul\":9294:9357   */\n      tag_543\n      jumpi\n        /* \"#utility.yul\":9353:9354   */\n      0x00\n        /* \"#utility.yul\":9350:9351   */\n      dup1\n        /* \"#utility.yul\":9343:9355   */\n      revert\n        /* \"#utility.yul\":9294:9357   */\n    tag_543:\n        /* \"#utility.yul\":9241:9363   */\n      pop\n      jump\t// out\n        /* \"#utility.yul\":9369:9508   */\n    tag_377:\n        /* \"#utility.yul\":9415:9420   */\n      0x00\n        /* \"#utility.yul\":9453:9459   */\n      dup2\n        /* \"#utility.yul\":9440:9460   */\n      calldataload\n        /* \"#utility.yul\":9431:9460   */\n      swap1\n      pop\n        /* \"#utility.yul\":9469:9502   */\n      tag_545\n        /* \"#utility.yul\":9496:9501   */\n      dup2\n        /* \"#utility.yul\":9469:9502   */\n      tag_376\n      jump\t// in\n    tag_545:\n        /* \"#utility.yul\":9369:9508   */\n      swap3\n      swap2\n      pop\n      pop\n      jump\t// out\n        /* \"#utility.yul\":9514:9843   */\n    tag_34:\n        /* \"#utility.yul\":9573:9579   */\n      0x00\n        /* \"#utility.yul\":9622:9624   */\n      0x20\n        /* \"#utility.yul\":9610:9619   */\n      dup3\n        /* \"#utility.yul\":9601:9608   */\n      dup5\n        /* \"#utility.yul\":9597:9620   */\n      sub\n        /* \"#utility.yul\":9593:9625   */\n      slt\n        /* \"#utility.yul\":9590:9709   */\n      iszero\n      tag_547\n      jumpi\n        /* \"#utility.yul\":9628:9707   */\n      tag_548\n      tag_343\n      jump\t// in\n    tag_548:\n        /* \"#utility.yul\":9590:9709   */\n    tag_547:\n        /* \"#utility.yul\":9748:9749   */\n      0x00\n        /* \"#utility.yul\":9773:9826   */\n      tag_549\n        /* \"#utility.yul\":9818:9825   */\n      dup5\n        /* \"#utility.yul\":9809:9815   */\n      dup3\n        /* \"#utility.yul\":9798:9807   */\n      dup6\n        /* \"#utility.yul\":9794:9816   */\n      add\n        /* \"#utility.yul\":9773:9826   */\n      tag_377\n      jump\t// in\n    tag_549:\n        /* \"#utility.yul\":9763:9826   */\n      swap2\n      pop\n        /* \"#utility.yul\":9719:9836   */\n      pop\n        /* \"#utility.yul\":9514:9843   */\n      swap3\n      swap2\n      pop\n      pop\n      jump\t// out\n        /* \"#utility.yul\":9849:9948   */\n    tag_378:\n        /* \"#utility.yul\":9901:9907   */\n      0x00\n        /* \"#utility.yul\":9935:9940   */\n      dup2\n        /* \"#utility.yul\":9929:9941   */\n      mload\n        /* \"#utility.yul\":9919:9941   */\n      swap1\n      pop\n        /* \"#utility.yul\":9849:9948   */\n      swap2\n      swap1\n      pop\n      jump\t// out\n        /* \"#utility.yul\":9954:10123   */\n    tag_379:\n        /* \"#utility.yul\":10038:10049   */\n      0x00\n        /* \"#utility.yul\":10072:10078   */\n      dup3\n        /* \"#utility.yul\":10067:10070   */\n      dup3\n        /* \"#utility.yul\":10060:10079   */\n      mstore\n        /* \"#utility.yul\":10112:10116   */\n      0x20\n        /* \"#utility.yul\":10107:10110   */\n      dup3\n        /* \"#utility.yul\":10103:10117   */\n      add\n        /* \"#utility.yul\":10088:10117   */\n      swap1\n      pop\n        /* \"#utility.yul\":9954:10123   */\n      swap3\n      swap2\n      pop\n      pop\n      jump\t// out\n        /* \"#utility.yul\":10129:10436   */\n    tag_380:\n        /* \"#utility.yul\":10197:10198   */\n      0x00\n        /* \"#utility.yul\":10207:10320   */\n    tag_553:\n        /* \"#utility.yul\":10221:10227   */\n      dup4\n        /* \"#utility.yul\":10218:10219   */\n      dup2\n        /* \"#utility.yul\":10215:10228   */\n      lt\n        /* \"#utility.yul\":10207:10320   */\n      iszero\n      tag_555\n      jumpi\n        /* \"#utility.yul\":10306:10307   */\n      dup1\n        /* \"#utility.yul\":10301:10304   */\n      dup3\n        /* \"#utility.yul\":10297:10308   */\n      add\n        /* \"#utility.yul\":10291:10309   */\n      mload\n        /* \"#utility.yul\":10287:10288   */\n      dup2\n        /* \"#utility.yul\":10282:10285   */\n      dup5\n        /* \"#utility.yul\":10278:10289   */\n      add\n        /* \"#utility.yul\":10271:10310   */\n      mstore\n        /* \"#utility.yul\":10243:10245   */\n      0x20\n        /* \"#utility.yul\":10240:10241   */\n      dup2\n        /* \"#utility.yul\":10236:10246   */\n      add\n        /* \"#utility.yul\":10231:10246   */\n      swap1\n      pop\n        /* \"#utility.yul\":10207:10320   */\n      jump(tag_553)\n    tag_555:\n        /* \"#utility.yul\":10338:10344   */\n      dup4\n        /* \"#utility.yul\":10335:10336   */\n      dup2\n        /* \"#utility.yul\":10332:10345   */\n      gt\n        /* \"#utility.yul\":10329:10430   */\n      iszero\n      tag_556\n      jumpi\n        /* \"#utility.yul\":10418:10419   */\n      0x00\n        /* \"#utility.yul\":10409:10415   */\n      dup5\n        /* \"#utility.yul\":10404:10407   */\n      dup5\n        /* \"#utility.yul\":10400:10416   */\n      add\n        /* \"#utility.yul\":10393:10420   */\n      mstore\n        /* \"#utility.yul\":10329:10430   */\n    tag_556:\n        /* \"#utility.yul\":10178:10436   */\n      pop\n        /* \"#utility.yul\":10129:10436   */\n      pop\n      pop\n      pop\n      jump\t// out\n        /* \"#utility.yul\":10442:10806   */\n    tag_381:\n        /* \"#utility.yul\":10530:10533   */\n      0x00\n        /* \"#utility.yul\":10558:10597   */\n      tag_558\n        /* \"#utility.yul\":10591:10596   */\n      dup3\n        /* \"#utility.yul\":10558:10597   */\n      tag_378\n      jump\t// in\n    tag_558:\n        /* \"#utility.yul\":10613:10684   */\n      tag_559\n        /* \"#utility.yul\":10677:10683   */\n      dup2\n        /* \"#utility.yul\":10672:10675   */\n      dup6\n        /* \"#utility.yul\":10613:10684   */\n      tag_379\n      jump\t// in\n    tag_559:\n        /* \"#utility.yul\":10606:10684   */\n      swap4\n      pop\n        /* \"#utility.yul\":10693:10745   */\n      tag_560\n        /* \"#utility.yul\":10738:10744   */\n      dup2\n        /* \"#utility.yul\":10733:10736   */\n      dup6\n        /* \"#utility.yul\":10726:10730   */\n      0x20\n        /* \"#utility.yul\":10719:10724   */\n      dup7\n        /* \"#utility.yul\":10715:10731   */\n      add\n        /* \"#utility.yul\":10693:10745   */\n      tag_380\n      jump\t// in\n    tag_560:\n        /* \"#utility.yul\":10770:10799   */\n      tag_561\n        /* \"#utility.yul\":10792:10798   */\n      dup2\n        /* \"#utility.yul\":10770:10799   */\n      tag_356\n      jump\t// in\n    tag_561:\n        /* \"#utility.yul\":10765:10768   */\n      dup5\n        /* \"#utility.yul\":10761:10800   */\n      add\n        /* \"#utility.yul\":10754:10800   */\n      swap2\n      pop\n        /* \"#utility.yul\":10534:10806   */\n      pop\n        /* \"#utility.yul\":10442:10806   */\n      swap3\n      swap2\n      pop\n      pop\n      jump\t// out\n        /* \"#utility.yul\":10812:10961   */\n    tag_382:\n        /* \"#utility.yul\":10848:10855   */\n      0x00\n        /* \"#utility.yul\":10888:10954   */\n      0xffff000000000000000000000000000000000000000000000000000000000000\n        /* \"#utility.yul\":10881:10886   */\n      dup3\n        /* \"#utility.yul\":10877:10955   */\n      and\n        /* \"#utility.yul\":10866:10955   */\n      swap1\n      pop\n        /* \"#utility.yul\":10812:10961   */\n      swap2\n      swap1\n      pop\n      jump\t// out\n        /* \"#utility.yul\":10967:11082   */\n    tag_383:\n        /* \"#utility.yul\":11052:11075   */\n      tag_564\n        /* \"#utility.yul\":11069:11074   */\n      dup2\n        /* \"#utility.yul\":11052:11075   */\n      tag_382\n      jump\t// in\n    tag_564:\n        /* \"#utility.yul\":11047:11050   */\n      dup3\n        /* \"#utility.yul\":11040:11076   */\n      mstore\n        /* \"#utility.yul\":10967:11082   */\n      pop\n      pop\n      jump\t// out\n        /* \"#utility.yul\":11088:11617   */\n    tag_42:\n        /* \"#utility.yul\":11255:11259   */\n      0x00\n        /* \"#utility.yul\":11293:11295   */\n      0x60\n        /* \"#utility.yul\":11282:11291   */\n      dup3\n        /* \"#utility.yul\":11278:11296   */\n      add\n        /* \"#utility.yul\":11270:11296   */\n      swap1\n      pop\n        /* \"#utility.yul\":11306:11377   */\n      tag_566\n        /* \"#utility.yul\":11374:11375   */\n      0x00\n        /* \"#utility.yul\":11363:11372   */\n      dup4\n        /* \"#utility.yul\":11359:11376   */\n      add\n        /* \"#utility.yul\":11350:11356   */\n      dup7\n        /* \"#utility.yul\":11306:11377   */\n      tag_365\n      jump\t// in\n    tag_566:\n        /* \"#utility.yul\":11424:11433   */\n      dup2\n        /* \"#utility.yul\":11418:11422   */\n      dup2\n        /* \"#utility.yul\":11414:11434   */\n      sub\n        /* \"#utility.yul\":11409:11411   */\n      0x20\n        /* \"#utility.yul\":11398:11407   */\n      dup4\n        /* \"#utility.yul\":11394:11412   */\n      add\n        /* \"#utility.yul\":11387:11435   */\n      mstore\n        /* \"#utility.yul\":11452:11530   */\n      tag_567\n        /* \"#utility.yul\":11525:11529   */\n      dup2\n        /* \"#utility.yul\":11516:11522   */\n      dup6\n        /* \"#utility.yul\":11452:11530   */\n      tag_381\n      jump\t// in\n    tag_567:\n        /* \"#utility.yul\":11444:11530   */\n      swap1\n      pop\n        /* \"#utility.yul\":11540:11610   */\n      tag_568\n        /* \"#utility.yul\":11606:11608   */\n      0x40\n        /* \"#utility.yul\":11595:11604   */\n      dup4\n        /* \"#utility.yul\":11591:11609   */\n      add\n        /* \"#utility.yul\":11582:11588   */\n      dup5\n        /* \"#utility.yul\":11540:11610   */\n      tag_383\n      jump\t// in\n    tag_568:\n        /* \"#utility.yul\":11088:11617   */\n      swap5\n      swap4\n      pop\n      pop\n      pop\n      pop\n      jump\t// out\n        /* \"#utility.yul\":11623:12988   */\n    tag_45:\n        /* \"#utility.yul\":11745:11751   */\n      0x00\n        /* \"#utility.yul\":11753:11759   */\n      dup1\n        /* \"#utility.yul\":11761:11767   */\n      0x00\n        /* \"#utility.yul\":11769:11775   */\n      dup1\n        /* \"#utility.yul\":11777:11783   */\n      0x00\n        /* \"#utility.yul\":11785:11791   */\n      dup1\n        /* \"#utility.yul\":11793:11799   */\n      0x00\n        /* \"#utility.yul\":11842:11845   */\n      0x80\n        /* \"#utility.yul\":11830:11839   */\n      dup9\n        /* \"#utility.yul\":11821:11828   */\n      dup11\n        /* \"#utility.yul\":11817:11840   */\n      sub\n        /* \"#utility.yul\":11813:11846   */\n      slt\n        /* \"#utility.yul\":11810:11930   */\n      iszero\n      tag_570\n      jumpi\n        /* \"#utility.yul\":11849:11928   */\n      tag_571\n      tag_343\n      jump\t// in\n    tag_571:\n        /* \"#utility.yul\":11810:11930   */\n    tag_570:\n        /* \"#utility.yul\":11969:11970   */\n      0x00\n        /* \"#utility.yul\":11994:12047   */\n      tag_572\n        /* \"#utility.yul\":12039:12046   */\n      dup11\n        /* \"#utility.yul\":12030:12036   */\n      dup3\n        /* \"#utility.yul\":12019:12028   */\n      dup12\n        /* \"#utility.yul\":12015:12037   */\n      add\n        /* \"#utility.yul\":11994:12047   */\n      tag_347\n      jump\t// in\n    tag_572:\n        /* \"#utility.yul\":11984:12047   */\n      swap8\n      pop\n        /* \"#utility.yul\":11940:12057   */\n      pop\n        /* \"#utility.yul\":12124:12126   */\n      0x20\n        /* \"#utility.yul\":12113:12122   */\n      dup9\n        /* \"#utility.yul\":12109:12127   */\n      add\n        /* \"#utility.yul\":12096:12128   */\n      calldataload\n        /* \"#utility.yul\":12155:12173   */\n      0xffffffffffffffff\n        /* \"#utility.yul\":12147:12153   */\n      dup2\n        /* \"#utility.yul\":12144:12174   */\n      gt\n        /* \"#utility.yul\":12141:12258   */\n      iszero\n      tag_573\n      jumpi\n        /* \"#utility.yul\":12177:12256   */\n      tag_574\n      tag_344\n      jump\t// in\n    tag_574:\n        /* \"#utility.yul\":12141:12258   */\n    tag_573:\n        /* \"#utility.yul\":12290:12355   */\n      tag_575\n        /* \"#utility.yul\":12347:12354   */\n      dup11\n        /* \"#utility.yul\":12338:12344   */\n      dup3\n        /* \"#utility.yul\":12327:12336   */\n      dup12\n        /* \"#utility.yul\":12323:12345   */\n      add\n        /* \"#utility.yul\":12290:12355   */\n      tag_351\n      jump\t// in\n    tag_575:\n        /* \"#utility.yul\":12272:12355   */\n      swap7\n      pop\n      swap7\n      pop\n        /* \"#utility.yul\":12067:12365   */\n      pop\n        /* \"#utility.yul\":12432:12434   */\n      0x40\n        /* \"#utility.yul\":12421:12430   */\n      dup9\n        /* \"#utility.yul\":12417:12435   */\n      add\n        /* \"#utility.yul\":12404:12436   */\n      calldataload\n        /* \"#utility.yul\":12463:12481   */\n      0xffffffffffffffff\n        /* \"#utility.yul\":12455:12461   */\n      dup2\n        /* \"#utility.yul\":12452:12482   */\n      gt\n        /* \"#utility.yul\":12449:12566   */\n      iszero\n      tag_576\n      jumpi\n        /* \"#utility.yul\":12485:12564   */\n      tag_577\n      tag_344\n      jump\t// in\n    tag_577:\n        /* \"#utility.yul\":12449:12566   */\n    tag_576:\n        /* \"#utility.yul\":12598:12663   */\n      tag_578\n        /* \"#utility.yul\":12655:12662   */\n      dup11\n        /* \"#utility.yul\":12646:12652   */\n      dup3\n        /* \"#utility.yul\":12635:12644   */\n      dup12\n        /* \"#utility.yul\":12631:12653   */\n      add\n        /* \"#utility.yul\":12598:12663   */\n      tag_351\n      jump\t// in\n    tag_578:\n        /* \"#utility.yul\":12580:12663   */\n      swap5\n      pop\n      swap5\n      pop\n        /* \"#utility.yul\":12375:12673   */\n      pop\n        /* \"#utility.yul\":12740:12742   */\n      0x60\n        /* \"#utility.yul\":12729:12738   */\n      dup9\n        /* \"#utility.yul\":12725:12743   */\n      add\n        /* \"#utility.yul\":12712:12744   */\n      calldataload\n        /* \"#utility.yul\":12771:12789   */\n      0xffffffffffffffff\n        /* \"#utility.yul\":12763:12769   */\n      dup2\n        /* \"#utility.yul\":12760:12790   */\n      gt\n        /* \"#utility.yul\":12757:12874   */\n      iszero\n      tag_579\n      jumpi\n        /* \"#utility.yul\":12793:12872   */\n      tag_580\n      tag_344\n      jump\t// in\n    tag_580:\n        /* \"#utility.yul\":12757:12874   */\n    tag_579:\n        /* \"#utility.yul\":12906:12971   */\n      tag_581\n        /* \"#utility.yul\":12963:12970   */\n      dup11\n        /* \"#utility.yul\":12954:12960   */\n      dup3\n        /* \"#utility.yul\":12943:12952   */\n      dup12\n        /* \"#utility.yul\":12939:12961   */\n      add\n        /* \"#utility.yul\":12906:12971   */\n      tag_351\n      jump\t// in\n    tag_581:\n        /* \"#utility.yul\":12888:12971   */\n      swap3\n      pop\n      swap3\n      pop\n        /* \"#utility.yul\":12683:12981   */\n      pop\n        /* \"#utility.yul\":11623:12988   */\n      swap3\n      swap6\n      swap9\n      swap2\n      swap5\n      swap8\n      pop\n      swap3\n      swap6\n      pop\n      jump\t// out\n        /* \"#utility.yul\":12994:13112   */\n    tag_384:\n        /* \"#utility.yul\":13081:13105   */\n      tag_583\n        /* \"#utility.yul\":13099:13104   */\n      dup2\n        /* \"#utility.yul\":13081:13105   */\n      tag_375\n      jump\t// in\n    tag_583:\n        /* \"#utility.yul\":13076:13079   */\n      dup3\n        /* \"#utility.yul\":13069:13106   */\n      mstore\n        /* \"#utility.yul\":12994:13112   */\n      pop\n      pop\n      jump\t// out\n        /* \"#utility.yul\":13118:13340   */\n    tag_50:\n        /* \"#utility.yul\":13211:13215   */\n      0x00\n        /* \"#utility.yul\":13249:13251   */\n      0x20\n        /* \"#utility.yul\":13238:13247   */\n      dup3\n        /* \"#utility.yul\":13234:13252   */\n      add\n        /* \"#utility.yul\":13226:13252   */\n      swap1\n      pop\n        /* \"#utility.yul\":13262:13333   */\n      tag_585\n        /* \"#utility.yul\":13330:13331   */\n      0x00\n        /* \"#utility.yul\":13319:13328   */\n      dup4\n        /* \"#utility.yul\":13315:13332   */\n      add\n        /* \"#utility.yul\":13306:13312   */\n      dup5\n        /* \"#utility.yul\":13262:13333   */\n      tag_384\n      jump\t// in\n    tag_585:\n        /* \"#utility.yul\":13118:13340   */\n      swap3\n      swap2\n      pop\n      pop\n      jump\t// out\n        /* \"#utility.yul\":13346:13468   */\n    tag_385:\n        /* \"#utility.yul\":13419:13443   */\n      tag_587\n        /* \"#utility.yul\":13437:13442   */\n      dup2\n        /* \"#utility.yul\":13419:13443   */\n      tag_364\n      jump\t// in\n    tag_587:\n        /* \"#utility.yul\":13412:13417   */\n      dup2\n        /* \"#utility.yul\":13409:13444   */\n      eq\n        /* \"#utility.yul\":13399:13462   */\n      tag_588\n      jumpi\n        /* \"#utility.yul\":13458:13459   */\n      0x00\n        /* \"#utility.yul\":13455:13456   */\n      dup1\n        /* \"#utility.yul\":13448:13460   */\n      revert\n        /* \"#utility.yul\":13399:13462   */\n    tag_588:\n        /* \"#utility.yul\":13346:13468   */\n      pop\n      jump\t// out\n        /* \"#utility.yul\":13474:13613   */\n    tag_386:\n        /* \"#utility.yul\":13520:13525   */\n      0x00\n        /* \"#utility.yul\":13558:13564   */\n      dup2\n        /* \"#utility.yul\":13545:13565   */\n      calldataload\n        /* \"#utility.yul\":13536:13565   */\n      swap1\n      pop\n        /* \"#utility.yul\":13574:13607   */\n      tag_590\n        /* \"#utility.yul\":13601:13606   */\n      dup2\n        /* \"#utility.yul\":13574:13607   */\n      tag_385\n      jump\t// in\n    tag_590:\n        /* \"#utility.yul\":13474:13613   */\n      swap3\n      swap2\n      pop\n      pop\n      jump\t// out\n        /* \"#utility.yul\":13619:14438   */\n    tag_53:\n        /* \"#utility.yul\":13708:13714   */\n      0x00\n        /* \"#utility.yul\":13716:13722   */\n      dup1\n        /* \"#utility.yul\":13724:13730   */\n      0x00\n        /* \"#utility.yul\":13732:13738   */\n      dup1\n        /* \"#utility.yul\":13781:13783   */\n      0x60\n        /* \"#utility.yul\":13769:13778   */\n      dup6\n        /* \"#utility.yul\":13760:13767   */\n      dup8\n        /* \"#utility.yul\":13756:13779   */\n      sub\n        /* \"#utility.yul\":13752:13784   */\n      slt\n        /* \"#utility.yul\":13749:13868   */\n      iszero\n      tag_592\n      jumpi\n        /* \"#utility.yul\":13787:13866   */\n      tag_593\n      tag_343\n      jump\t// in\n    tag_593:\n        /* \"#utility.yul\":13749:13868   */\n    tag_592:\n        /* \"#utility.yul\":13907:13908   */\n      0x00\n        /* \"#utility.yul\":13932:13985   */\n      tag_594\n        /* \"#utility.yul\":13977:13984   */\n      dup8\n        /* \"#utility.yul\":13968:13974   */\n      dup3\n        /* \"#utility.yul\":13957:13966   */\n      dup9\n        /* \"#utility.yul\":13953:13975   */\n      add\n        /* \"#utility.yul\":13932:13985   */\n      tag_347\n      jump\t// in\n    tag_594:\n        /* \"#utility.yul\":13922:13985   */\n      swap5\n      pop\n        /* \"#utility.yul\":13878:13995   */\n      pop\n        /* \"#utility.yul\":14034:14036   */\n      0x20\n        /* \"#utility.yul\":14060:14113   */\n      tag_595\n        /* \"#utility.yul\":14105:14112   */\n      dup8\n        /* \"#utility.yul\":14096:14102   */\n      dup3\n        /* \"#utility.yul\":14085:14094   */\n      dup9\n        /* \"#utility.yul\":14081:14103   */\n      add\n        /* \"#utility.yul\":14060:14113   */\n      tag_386\n      jump\t// in\n    tag_595:\n        /* \"#utility.yul\":14050:14113   */\n      swap4\n      pop\n        /* \"#utility.yul\":14005:14123   */\n      pop\n        /* \"#utility.yul\":14190:14192   */\n      0x40\n        /* \"#utility.yul\":14179:14188   */\n      dup6\n        /* \"#utility.yul\":14175:14193   */\n      add\n        /* \"#utility.yul\":14162:14194   */\n      calldataload\n        /* \"#utility.yul\":14221:14239   */\n      0xffffffffffffffff\n        /* \"#utility.yul\":14213:14219   */\n      dup2\n        /* \"#utility.yul\":14210:14240   */\n      gt\n        /* \"#utility.yul\":14207:14324   */\n      iszero\n      tag_596\n      jumpi\n        /* \"#utility.yul\":14243:14322   */\n      tag_597\n      tag_344\n      jump\t// in\n    tag_597:\n        /* \"#utility.yul\":14207:14324   */\n    tag_596:\n        /* \"#utility.yul\":14356:14421   */\n      tag_598\n        /* \"#utility.yul\":14413:14420   */\n      dup8\n        /* \"#utility.yul\":14404:14410   */\n      dup3\n        /* \"#utility.yul\":14393:14402   */\n      dup9\n        /* \"#utility.yul\":14389:14411   */\n      add\n        /* \"#utility.yul\":14356:14421   */\n      tag_351\n      jump\t// in\n    tag_598:\n        /* \"#utility.yul\":14338:14421   */\n      swap3\n      pop\n      swap3\n      pop\n        /* \"#utility.yul\":14133:14431   */\n      pop\n        /* \"#utility.yul\":13619:14438   */\n      swap3\n      swap6\n      swap2\n      swap5\n      pop\n      swap3\n      pop\n      jump\t// out\n        /* \"#utility.yul\":14444:14666   */\n    tag_58:\n        /* \"#utility.yul\":14537:14541   */\n      0x00\n        /* \"#utility.yul\":14575:14577   */\n      0x20\n        /* \"#utility.yul\":14564:14573   */\n      dup3\n        /* \"#utility.yul\":14560:14578   */\n      add\n        /* \"#utility.yul\":14552:14578   */\n      swap1\n      pop\n        /* \"#utility.yul\":14588:14659   */\n      tag_600\n        /* \"#utility.yul\":14656:14657   */\n      0x00\n        /* \"#utility.yul\":14645:14654   */\n      dup4\n        /* \"#utility.yul\":14641:14658   */\n      add\n        /* \"#utility.yul\":14632:14638   */\n      dup5\n        /* \"#utility.yul\":14588:14659   */\n      tag_365\n      jump\t// in\n    tag_600:\n        /* \"#utility.yul\":14444:14666   */\n      swap3\n      swap2\n      pop\n      pop\n      jump\t// out\n        /* \"#utility.yul\":14672:15463   */\n    tag_61:\n        /* \"#utility.yul\":14755:14761   */\n      0x00\n        /* \"#utility.yul\":14763:14769   */\n      dup1\n        /* \"#utility.yul\":14771:14777   */\n      0x00\n        /* \"#utility.yul\":14820:14822   */\n      0x60\n        /* \"#utility.yul\":14808:14817   */\n      dup5\n        /* \"#utility.yul\":14799:14806   */\n      dup7\n        /* \"#utility.yul\":14795:14818   */\n      sub\n        /* \"#utility.yul\":14791:14823   */\n      slt\n        /* \"#utility.yul\":14788:14907   */\n      iszero\n      tag_602\n      jumpi\n        /* \"#utility.yul\":14826:14905   */\n      tag_603\n      tag_343\n      jump\t// in\n    tag_603:\n        /* \"#utility.yul\":14788:14907   */\n    tag_602:\n        /* \"#utility.yul\":14946:14947   */\n      0x00\n        /* \"#utility.yul\":14971:15024   */\n      tag_604\n        /* \"#utility.yul\":15016:15023   */\n      dup7\n        /* \"#utility.yul\":15007:15013   */\n      dup3\n        /* \"#utility.yul\":14996:15005   */\n      dup8\n        /* \"#utility.yul\":14992:15014   */\n      add\n        /* \"#utility.yul\":14971:15024   */\n      tag_347\n      jump\t// in\n    tag_604:\n        /* \"#utility.yul\":14961:15024   */\n      swap4\n      pop\n        /* \"#utility.yul\":14917:15034   */\n      pop\n        /* \"#utility.yul\":15073:15075   */\n      0x20\n        /* \"#utility.yul\":15099:15149   */\n      tag_605\n        /* \"#utility.yul\":15141:15148   */\n      dup7\n        /* \"#utility.yul\":15132:15138   */\n      dup3\n        /* \"#utility.yul\":15121:15130   */\n      dup8\n        /* \"#utility.yul\":15117:15139   */\n      add\n        /* \"#utility.yul\":15099:15149   */\n      tag_354\n      jump\t// in\n    tag_605:\n        /* \"#utility.yul\":15089:15149   */\n      swap3\n      pop\n        /* \"#utility.yul\":15044:15159   */\n      pop\n        /* \"#utility.yul\":15226:15228   */\n      0x40\n        /* \"#utility.yul\":15215:15224   */\n      dup5\n        /* \"#utility.yul\":15211:15229   */\n      add\n        /* \"#utility.yul\":15198:15230   */\n      calldataload\n        /* \"#utility.yul\":15257:15275   */\n      0xffffffffffffffff\n        /* \"#utility.yul\":15249:15255   */\n      dup2\n        /* \"#utility.yul\":15246:15276   */\n      gt\n        /* \"#utility.yul\":15243:15360   */\n      iszero\n      tag_606\n      jumpi\n        /* \"#utility.yul\":15279:15358   */\n      tag_607\n      tag_344\n      jump\t// in\n    tag_607:\n        /* \"#utility.yul\":15243:15360   */\n    tag_606:\n        /* \"#utility.yul\":15384:15446   */\n      tag_608\n        /* \"#utility.yul\":15438:15445   */\n      dup7\n        /* \"#utility.yul\":15429:15435   */\n      dup3\n        /* \"#utility.yul\":15418:15427   */\n      dup8\n        /* \"#utility.yul\":15414:15436   */\n      add\n        /* \"#utility.yul\":15384:15446   */\n      tag_363\n      jump\t// in\n    tag_608:\n        /* \"#utility.yul\":15374:15446   */\n      swap2\n      pop\n        /* \"#utility.yul\":15169:15456   */\n      pop\n        /* \"#utility.yul\":14672:15463   */\n      swap3\n      pop\n      swap3\n      pop\n      swap3\n      jump\t// out\n        /* \"#utility.yul\":15469:16121   */\n    tag_65:\n        /* \"#utility.yul\":15546:15552   */\n      0x00\n        /* \"#utility.yul\":15554:15560   */\n      dup1\n        /* \"#utility.yul\":15603:15605   */\n      0x40\n        /* \"#utility.yul\":15591:15600   */\n      dup4\n        /* \"#utility.yul\":15582:15589   */\n      dup6\n        /* \"#utility.yul\":15578:15601   */\n      sub\n        /* \"#utility.yul\":15574:15606   */\n      slt\n        /* \"#utility.yul\":15571:15690   */\n      iszero\n      tag_610\n      jumpi\n        /* \"#utility.yul\":15609:15688   */\n      tag_611\n      tag_343\n      jump\t// in\n    tag_611:\n        /* \"#utility.yul\":15571:15690   */\n    tag_610:\n        /* \"#utility.yul\":15729:15730   */\n      0x00\n        /* \"#utility.yul\":15754:15807   */\n      tag_612\n        /* \"#utility.yul\":15799:15806   */\n      dup6\n        /* \"#utility.yul\":15790:15796   */\n      dup3\n        /* \"#utility.yul\":15779:15788   */\n      dup7\n        /* \"#utility.yul\":15775:15797   */\n      add\n        /* \"#utility.yul\":15754:15807   */\n      tag_347\n      jump\t// in\n    tag_612:\n        /* \"#utility.yul\":15744:15807   */\n      swap3\n      pop\n        /* \"#utility.yul\":15700:15817   */\n      pop\n        /* \"#utility.yul\":15884:15886   */\n      0x20\n        /* \"#utility.yul\":15873:15882   */\n      dup4\n        /* \"#utility.yul\":15869:15887   */\n      add\n        /* \"#utility.yul\":15856:15888   */\n      calldataload\n        /* \"#utility.yul\":15915:15933   */\n      0xffffffffffffffff\n        /* \"#utility.yul\":15907:15913   */\n      dup2\n        /* \"#utility.yul\":15904:15934   */\n      gt\n        /* \"#utility.yul\":15901:16018   */\n      iszero\n      tag_613\n      jumpi\n        /* \"#utility.yul\":15937:16016   */\n      tag_614\n      tag_344\n      jump\t// in\n    tag_614:\n        /* \"#utility.yul\":15901:16018   */\n    tag_613:\n        /* \"#utility.yul\":16042:16104   */\n      tag_615\n        /* \"#utility.yul\":16096:16103   */\n      dup6\n        /* \"#utility.yul\":16087:16093   */\n      dup3\n        /* \"#utility.yul\":16076:16085   */\n      dup7\n        /* \"#utility.yul\":16072:16094   */\n      add\n        /* \"#utility.yul\":16042:16104   */\n      tag_363\n      jump\t// in\n    tag_615:\n        /* \"#utility.yul\":16032:16104   */\n      swap2\n      pop\n        /* \"#utility.yul\":15827:16114   */\n      pop\n        /* \"#utility.yul\":15469:16121   */\n      swap3\n      pop\n      swap3\n      swap1\n      pop\n      jump\t// out\n        /* \"#utility.yul\":16127:17155   */\n    tag_71:\n        /* \"#utility.yul\":16412:16416   */\n      0x00\n        /* \"#utility.yul\":16450:16453   */\n      0xa0\n        /* \"#utility.yul\":16439:16448   */\n      dup3\n        /* \"#utility.yul\":16435:16454   */\n      add\n        /* \"#utility.yul\":16427:16454   */\n      swap1\n      pop\n        /* \"#utility.yul\":16464:16535   */\n      tag_617\n        /* \"#utility.yul\":16532:16533   */\n      0x00\n        /* \"#utility.yul\":16521:16530   */\n      dup4\n        /* \"#utility.yul\":16517:16534   */\n      add\n        /* \"#utility.yul\":16508:16514   */\n      dup9\n        /* \"#utility.yul\":16464:16535   */\n      tag_365\n      jump\t// in\n    tag_617:\n        /* \"#utility.yul\":16582:16591   */\n      dup2\n        /* \"#utility.yul\":16576:16580   */\n      dup2\n        /* \"#utility.yul\":16572:16592   */\n      sub\n        /* \"#utility.yul\":16567:16569   */\n      0x20\n        /* \"#utility.yul\":16556:16565   */\n      dup4\n        /* \"#utility.yul\":16552:16570   */\n      add\n        /* \"#utility.yul\":16545:16593   */\n      mstore\n        /* \"#utility.yul\":16610:16688   */\n      tag_618\n        /* \"#utility.yul\":16683:16687   */\n      dup2\n        /* \"#utility.yul\":16674:16680   */\n      dup8\n        /* \"#utility.yul\":16610:16688   */\n      tag_381\n      jump\t// in\n    tag_618:\n        /* \"#utility.yul\":16602:16688   */\n      swap1\n      pop\n        /* \"#utility.yul\":16735:16744   */\n      dup2\n        /* \"#utility.yul\":16729:16733   */\n      dup2\n        /* \"#utility.yul\":16725:16745   */\n      sub\n        /* \"#utility.yul\":16720:16722   */\n      0x40\n        /* \"#utility.yul\":16709:16718   */\n      dup4\n        /* \"#utility.yul\":16705:16723   */\n      add\n        /* \"#utility.yul\":16698:16746   */\n      mstore\n        /* \"#utility.yul\":16763:16841   */\n      tag_619\n        /* \"#utility.yul\":16836:16840   */\n      dup2\n        /* \"#utility.yul\":16827:16833   */\n      dup7\n        /* \"#utility.yul\":16763:16841   */\n      tag_381\n      jump\t// in\n    tag_619:\n        /* \"#utility.yul\":16755:16841   */\n      swap1\n      pop\n        /* \"#utility.yul\":16888:16897   */\n      dup2\n        /* \"#utility.yul\":16882:16886   */\n      dup2\n        /* \"#utility.yul\":16878:16898   */\n      sub\n        /* \"#utility.yul\":16873:16875   */\n      0x60\n        /* \"#utility.yul\":16862:16871   */\n      dup4\n        /* \"#utility.yul\":16858:16876   */\n      add\n        /* \"#utility.yul\":16851:16899   */\n      mstore\n        /* \"#utility.yul\":16916:16994   */\n      tag_620\n        /* \"#utility.yul\":16989:16993   */\n      dup2\n        /* \"#utility.yul\":16980:16986   */\n      dup6\n        /* \"#utility.yul\":16916:16994   */\n      tag_381\n      jump\t// in\n    tag_620:\n        /* \"#utility.yul\":16908:16994   */\n      swap1\n      pop\n        /* \"#utility.yul\":17042:17051   */\n      dup2\n        /* \"#utility.yul\":17036:17040   */\n      dup2\n        /* \"#utility.yul\":17032:17052   */\n      sub\n        /* \"#utility.yul\":17026:17029   */\n      0x80\n        /* \"#utility.yul\":17015:17024   */\n      dup4\n        /* \"#utility.yul\":17011:17030   */\n      add\n        /* \"#utility.yul\":17004:17053   */\n      mstore\n        /* \"#utility.yul\":17070:17148   */\n      tag_621\n        /* \"#utility.yul\":17143:17147   */\n      dup2\n        /* \"#utility.yul\":17134:17140   */\n      dup5\n        /* \"#utility.yul\":17070:17148   */\n      tag_381\n      jump\t// in\n    tag_621:\n        /* \"#utility.yul\":17062:17148   */\n      swap1\n      pop\n        /* \"#utility.yul\":16127:17155   */\n      swap7\n      swap6\n      pop\n      pop\n      pop\n      pop\n      pop\n      pop\n      jump\t// out\n        /* \"#utility.yul\":17161:17388   */\n    tag_387:\n        /* \"#utility.yul\":17301:17335   */\n      0x536f75726365206d75737420626520746865206f7261636c65206f6620746865\n        /* \"#utility.yul\":17297:17298   */\n      0x00\n        /* \"#utility.yul\":17289:17295   */\n      dup3\n        /* \"#utility.yul\":17285:17299   */\n      add\n        /* \"#utility.yul\":17278:17336   */\n      mstore\n        /* \"#utility.yul\":17370:17380   */\n      0x2072657175657374000000000000000000000000000000000000000000000000\n        /* \"#utility.yul\":17365:17367   */\n      0x20\n        /* \"#utility.yul\":17357:17363   */\n      dup3\n        /* \"#utility.yul\":17353:17368   */\n      add\n        /* \"#utility.yul\":17346:17381   */\n      mstore\n        /* \"#utility.yul\":17161:17388   */\n      pop\n      jump\t// out\n        /* \"#utility.yul\":17394:17760   */\n    tag_388:\n        /* \"#utility.yul\":17536:17539   */\n      0x00\n        /* \"#utility.yul\":17557:17624   */\n      tag_624\n        /* \"#utility.yul\":17621:17623   */\n      0x28\n        /* \"#utility.yul\":17616:17619   */\n      dup4\n        /* \"#utility.yul\":17557:17624   */\n      tag_379\n      jump\t// in\n    tag_624:\n        /* \"#utility.yul\":17550:17624   */\n      swap2\n      pop\n        /* \"#utility.yul\":17633:17726   */\n      tag_625\n        /* \"#utility.yul\":17722:17725   */\n      dup3\n        /* \"#utility.yul\":17633:17726   */\n      tag_387\n      jump\t// in\n    tag_625:\n        /* \"#utility.yul\":17751:17753   */\n      0x40\n        /* \"#utility.yul\":17746:17749   */\n      dup3\n        /* \"#utility.yul\":17742:17754   */\n      add\n        /* \"#utility.yul\":17735:17754   */\n      swap1\n      pop\n        /* \"#utility.yul\":17394:17760   */\n      swap2\n      swap1\n      pop\n      jump\t// out\n        /* \"#utility.yul\":17766:18185   */\n    tag_86:\n        /* \"#utility.yul\":17932:17936   */\n      0x00\n        /* \"#utility.yul\":17970:17972   */\n      0x20\n        /* \"#utility.yul\":17959:17968   */\n      dup3\n        /* \"#utility.yul\":17955:17973   */\n      add\n        /* \"#utility.yul\":17947:17973   */\n      swap1\n      pop\n        /* \"#utility.yul\":18019:18028   */\n      dup2\n        /* \"#utility.yul\":18013:18017   */\n      dup2\n        /* \"#utility.yul\":18009:18029   */\n      sub\n        /* \"#utility.yul\":18005:18006   */\n      0x00\n        /* \"#utility.yul\":17994:18003   */\n      dup4\n        /* \"#utility.yul\":17990:18007   */\n      add\n        /* \"#utility.yul\":17983:18030   */\n      mstore\n        /* \"#utility.yul\":18047:18178   */\n      tag_627\n        /* \"#utility.yul\":18173:18177   */\n      dup2\n        /* \"#utility.yul\":18047:18178   */\n      tag_388\n      jump\t// in\n    tag_627:\n        /* \"#utility.yul\":18039:18178   */\n      swap1\n      pop\n        /* \"#utility.yul\":17766:18185   */\n      swap2\n      swap1\n      pop\n      jump\t// out\n        /* \"#utility.yul\":18191:18334   */\n    tag_389:\n        /* \"#utility.yul\":18248:18253   */\n      0x00\n        /* \"#utility.yul\":18279:18285   */\n      dup2\n        /* \"#utility.yul\":18273:18286   */\n      mload\n        /* \"#utility.yul\":18264:18286   */\n      swap1\n      pop\n        /* \"#utility.yul\":18295:18328   */\n      tag_629\n        /* \"#utility.yul\":18322:18327   */\n      dup2\n        /* \"#utility.yul\":18295:18328   */\n      tag_385\n      jump\t// in\n    tag_629:\n        /* \"#utility.yul\":18191:18334   */\n      swap3\n      swap2\n      pop\n      pop\n      jump\t// out\n        /* \"#utility.yul\":18340:18691   */\n    tag_104:\n        /* \"#utility.yul\":18410:18416   */\n      0x00\n        /* \"#utility.yul\":18459:18461   */\n      0x20\n        /* \"#utility.yul\":18447:18456   */\n      dup3\n        /* \"#utility.yul\":18438:18445   */\n      dup5\n        /* \"#utility.yul\":18434:18457   */\n      sub\n        /* \"#utility.yul\":18430:18462   */\n      slt\n        /* \"#utility.yul\":18427:18546   */\n      iszero\n      tag_631\n      jumpi\n        /* \"#utility.yul\":18465:18544   */\n      tag_632\n      tag_343\n      jump\t// in\n    tag_632:\n        /* \"#utility.yul\":18427:18546   */\n    tag_631:\n        /* \"#utility.yul\":18585:18586   */\n      0x00\n        /* \"#utility.yul\":18610:18674   */\n      tag_633\n        /* \"#utility.yul\":18666:18673   */\n      dup5\n        /* \"#utility.yul\":18657:18663   */\n      dup3\n        /* \"#utility.yul\":18646:18655   */\n      dup6\n        /* \"#utility.yul\":18642:18664   */\n      add\n        /* \"#utility.yul\":18610:18674   */\n      tag_389\n      jump\t// in\n    tag_633:\n        /* \"#utility.yul\":18600:18674   */\n      swap2\n      pop\n        /* \"#utility.yul\":18556:18684   */\n      pop\n        /* \"#utility.yul\":18340:18691   */\n      swap3\n      swap2\n      pop\n      pop\n      jump\t// out\n        /* \"#utility.yul\":18697:19029   */\n    tag_106:\n        /* \"#utility.yul\":18818:18822   */\n      0x00\n        /* \"#utility.yul\":18856:18858   */\n      0x40\n        /* \"#utility.yul\":18845:18854   */\n      dup3\n        /* \"#utility.yul\":18841:18859   */\n      add\n        /* \"#utility.yul\":18833:18859   */\n      swap1\n      pop\n        /* \"#utility.yul\":18869:18940   */\n      tag_635\n        /* \"#utility.yul\":18937:18938   */\n      0x00\n        /* \"#utility.yul\":18926:18935   */\n      dup4\n        /* \"#utility.yul\":18922:18939   */\n      add\n        /* \"#utility.yul\":18913:18919   */\n      dup6\n        /* \"#utility.yul\":18869:18940   */\n      tag_384\n      jump\t// in\n    tag_635:\n        /* \"#utility.yul\":18950:19022   */\n      tag_636\n        /* \"#utility.yul\":19018:19020   */\n      0x20\n        /* \"#utility.yul\":19007:19016   */\n      dup4\n        /* \"#utility.yul\":19003:19021   */\n      add\n        /* \"#utility.yul\":18994:19000   */\n      dup5\n        /* \"#utility.yul\":18950:19022   */\n      tag_365\n      jump\t// in\n    tag_636:\n        /* \"#utility.yul\":18697:19029   */\n      swap4\n      swap3\n      pop\n      pop\n      pop\n      jump\t// out\n        /* \"#utility.yul\":19035:19172   */\n    tag_390:\n        /* \"#utility.yul\":19089:19094   */\n      0x00\n        /* \"#utility.yul\":19120:19126   */\n      dup2\n        /* \"#utility.yul\":19114:19127   */\n      mload\n        /* \"#utility.yul\":19105:19127   */\n      swap1\n      pop\n        /* \"#utility.yul\":19136:19166   */\n      tag_638\n        /* \"#utility.yul\":19160:19165   */\n      dup2\n        /* \"#utility.yul\":19136:19166   */\n      tag_353\n      jump\t// in\n    tag_638:\n        /* \"#utility.yul\":19035:19172   */\n      swap3\n      swap2\n      pop\n      pop\n      jump\t// out\n        /* \"#utility.yul\":19178:19523   */\n    tag_111:\n        /* \"#utility.yul\":19245:19251   */\n      0x00\n        /* \"#utility.yul\":19294:19296   */\n      0x20\n        /* \"#utility.yul\":19282:19291   */\n      dup3\n        /* \"#utility.yul\":19273:19280   */\n      dup5\n        /* \"#utility.yul\":19269:19292   */\n      sub\n        /* \"#utility.yul\":19265:19297   */\n      slt\n        /* \"#utility.yul\":19262:19381   */\n      iszero\n      tag_640\n      jumpi\n        /* \"#utility.yul\":19300:19379   */\n      tag_641\n      tag_343\n      jump\t// in\n    tag_641:\n        /* \"#utility.yul\":19262:19381   */\n    tag_640:\n        /* \"#utility.yul\":19420:19421   */\n      0x00\n        /* \"#utility.yul\":19445:19506   */\n      tag_642\n        /* \"#utility.yul\":19498:19505   */\n      dup5\n        /* \"#utility.yul\":19489:19495   */\n      dup3\n        /* \"#utility.yul\":19478:19487   */\n      dup6\n        /* \"#utility.yul\":19474:19496   */\n      add\n        /* \"#utility.yul\":19445:19506   */\n      tag_390\n      jump\t// in\n    tag_642:\n        /* \"#utility.yul\":19435:19506   */\n      swap2\n      pop\n        /* \"#utility.yul\":19391:19516   */\n      pop\n        /* \"#utility.yul\":19178:19523   */\n      swap3\n      swap2\n      pop\n      pop\n      jump\t// out\n        /* \"#utility.yul\":19529:19697   */\n    tag_391:\n        /* \"#utility.yul\":19669:19689   */\n      0x556e61626c6520746f207472616e736665720000000000000000000000000000\n        /* \"#utility.yul\":19665:19666   */\n      0x00\n        /* \"#utility.yul\":19657:19663   */\n      dup3\n        /* \"#utility.yul\":19653:19667   */\n      add\n        /* \"#utility.yul\":19646:19690   */\n      mstore\n        /* \"#utility.yul\":19529:19697   */\n      pop\n      jump\t// out\n        /* \"#utility.yul\":19703:20069   */\n    tag_392:\n        /* \"#utility.yul\":19845:19848   */\n      0x00\n        /* \"#utility.yul\":19866:19933   */\n      tag_645\n        /* \"#utility.yul\":19930:19932   */\n      0x12\n        /* \"#utility.yul\":19925:19928   */\n      dup4\n        /* \"#utility.yul\":19866:19933   */\n      tag_379\n      jump\t// in\n    tag_645:\n        /* \"#utility.yul\":19859:19933   */\n      swap2\n      pop\n        /* \"#utility.yul\":19942:20035   */\n      tag_646\n        /* \"#utility.yul\":20031:20034   */\n      dup3\n        /* \"#utility.yul\":19942:20035   */\n      tag_391\n      jump\t// in\n    tag_646:\n        /* \"#utility.yul\":20060:20062   */\n      0x20\n        /* \"#utility.yul\":20055:20058   */\n      dup3\n        /* \"#utility.yul\":20051:20063   */\n      add\n        /* \"#utility.yul\":20044:20063   */\n      swap1\n      pop\n        /* \"#utility.yul\":19703:20069   */\n      swap2\n      swap1\n      pop\n      jump\t// out\n        /* \"#utility.yul\":20075:20494   */\n    tag_114:\n        /* \"#utility.yul\":20241:20245   */\n      0x00\n        /* \"#utility.yul\":20279:20281   */\n      0x20\n        /* \"#utility.yul\":20268:20277   */\n      dup3\n        /* \"#utility.yul\":20264:20282   */\n      add\n        /* \"#utility.yul\":20256:20282   */\n      swap1\n      pop\n        /* \"#utility.yul\":20328:20337   */\n      dup2\n        /* \"#utility.yul\":20322:20326   */\n      dup2\n        /* \"#utility.yul\":20318:20338   */\n      sub\n        /* \"#utility.yul\":20314:20315   */\n      0x00\n        /* \"#utility.yul\":20303:20312   */\n      dup4\n        /* \"#utility.yul\":20299:20316   */\n      add\n        /* \"#utility.yul\":20292:20339   */\n      mstore\n        /* \"#utility.yul\":20356:20487   */\n      tag_648\n        /* \"#utility.yul\":20482:20486   */\n      dup2\n        /* \"#utility.yul\":20356:20487   */\n      tag_392\n      jump\t// in\n    tag_648:\n        /* \"#utility.yul\":20348:20487   */\n      swap1\n      pop\n        /* \"#utility.yul\":20075:20494   */\n      swap2\n      swap1\n      pop\n      jump\t// out\n        /* \"#utility.yul\":20500:20680   */\n    tag_393:\n        /* \"#utility.yul\":20548:20625   */\n      0x4e487b7100000000000000000000000000000000000000000000000000000000\n        /* \"#utility.yul\":20545:20546   */\n      0x00\n        /* \"#utility.yul\":20538:20626   */\n      mstore\n        /* \"#utility.yul\":20645:20649   */\n      0x22\n        /* \"#utility.yul\":20642:20643   */\n      0x04\n        /* \"#utility.yul\":20635:20650   */\n      mstore\n        /* \"#utility.yul\":20669:20673   */\n      0x24\n        /* \"#utility.yul\":20666:20667   */\n      0x00\n        /* \"#utility.yul\":20659:20674   */\n      revert\n        /* \"#utility.yul\":20686:21006   */\n    tag_116:\n        /* \"#utility.yul\":20730:20736   */\n      0x00\n        /* \"#utility.yul\":20767:20768   */\n      0x02\n        /* \"#utility.yul\":20761:20765   */\n      dup3\n        /* \"#utility.yul\":20757:20769   */\n      div\n        /* \"#utility.yul\":20747:20769   */\n      swap1\n      pop\n        /* \"#utility.yul\":20814:20815   */\n      0x01\n        /* \"#utility.yul\":20808:20812   */\n      dup3\n        /* \"#utility.yul\":20804:20816   */\n      and\n        /* \"#utility.yul\":20835:20853   */\n      dup1\n        /* \"#utility.yul\":20825:20906   */\n      tag_651\n      jumpi\n        /* \"#utility.yul\":20891:20895   */\n      0x7f\n        /* \"#utility.yul\":20883:20889   */\n      dup3\n        /* \"#utility.yul\":20879:20896   */\n      and\n        /* \"#utility.yul\":20869:20896   */\n      swap2\n      pop\n        /* \"#utility.yul\":20825:20906   */\n    tag_651:\n        /* \"#utility.yul\":20953:20955   */\n      0x20\n        /* \"#utility.yul\":20945:20951   */\n      dup3\n        /* \"#utility.yul\":20942:20956   */\n      lt\n        /* \"#utility.yul\":20922:20940   */\n      dup2\n        /* \"#utility.yul\":20919:20957   */\n      eq\n        /* \"#utility.yul\":20916:21000   */\n      iszero\n      tag_652\n      jumpi\n        /* \"#utility.yul\":20972:20990   */\n      tag_653\n      tag_393\n      jump\t// in\n    tag_653:\n        /* \"#utility.yul\":20916:21000   */\n    tag_652:\n        /* \"#utility.yul\":20737:21006   */\n      pop\n        /* \"#utility.yul\":20686:21006   */\n      swap2\n      swap1\n      pop\n      jump\t// out\n        /* \"#utility.yul\":21012:21129   */\n    tag_394:\n        /* \"#utility.yul\":21121:21122   */\n      0x00\n        /* \"#utility.yul\":21118:21119   */\n      dup1\n        /* \"#utility.yul\":21111:21123   */\n      revert\n        /* \"#utility.yul\":21135:21252   */\n    tag_395:\n        /* \"#utility.yul\":21244:21245   */\n      0x00\n        /* \"#utility.yul\":21241:21242   */\n      dup1\n        /* \"#utility.yul\":21234:21246   */\n      revert\n        /* \"#utility.yul\":21258:21566   */\n    tag_396:\n        /* \"#utility.yul\":21320:21324   */\n      0x00\n        /* \"#utility.yul\":21410:21428   */\n      0xffffffffffffffff\n        /* \"#utility.yul\":21402:21408   */\n      dup3\n        /* \"#utility.yul\":21399:21429   */\n      gt\n        /* \"#utility.yul\":21396:21452   */\n      iszero\n      tag_657\n      jumpi\n        /* \"#utility.yul\":21432:21450   */\n      tag_658\n      tag_357\n      jump\t// in\n    tag_658:\n        /* \"#utility.yul\":21396:21452   */\n    tag_657:\n        /* \"#utility.yul\":21470:21499   */\n      tag_659\n        /* \"#utility.yul\":21492:21498   */\n      dup3\n        /* \"#utility.yul\":21470:21499   */\n      tag_356\n      jump\t// in\n    tag_659:\n        /* \"#utility.yul\":21462:21499   */\n      swap1\n      pop\n        /* \"#utility.yul\":21554:21558   */\n      0x20\n        /* \"#utility.yul\":21548:21552   */\n      dup2\n        /* \"#utility.yul\":21544:21559   */\n      add\n        /* \"#utility.yul\":21536:21559   */\n      swap1\n      pop\n        /* \"#utility.yul\":21258:21566   */\n      swap2\n      swap1\n      pop\n      jump\t// out\n        /* \"#utility.yul\":21572:21993   */\n    tag_397:\n        /* \"#utility.yul\":21661:21666   */\n      0x00\n        /* \"#utility.yul\":21686:21752   */\n      tag_661\n        /* \"#utility.yul\":21702:21751   */\n      tag_662\n        /* \"#utility.yul\":21744:21750   */\n      dup5\n        /* \"#utility.yul\":21702:21751   */\n      tag_396\n      jump\t// in\n    tag_662:\n        /* \"#utility.yul\":21686:21752   */\n      tag_359\n      jump\t// in\n    tag_661:\n        /* \"#utility.yul\":21677:21752   */\n      swap1\n      pop\n        /* \"#utility.yul\":21775:21781   */\n      dup3\n        /* \"#utility.yul\":21768:21773   */\n      dup2\n        /* \"#utility.yul\":21761:21782   */\n      mstore\n        /* \"#utility.yul\":21813:21817   */\n      0x20\n        /* \"#utility.yul\":21806:21811   */\n      dup2\n        /* \"#utility.yul\":21802:21818   */\n      add\n        /* \"#utility.yul\":21851:21854   */\n      dup5\n        /* \"#utility.yul\":21842:21848   */\n      dup5\n        /* \"#utility.yul\":21837:21840   */\n      dup5\n        /* \"#utility.yul\":21833:21849   */\n      add\n        /* \"#utility.yul\":21830:21855   */\n      gt\n        /* \"#utility.yul\":21827:21939   */\n      iszero\n      tag_663\n      jumpi\n        /* \"#utility.yul\":21858:21937   */\n      tag_664\n      tag_355\n      jump\t// in\n    tag_664:\n        /* \"#utility.yul\":21827:21939   */\n    tag_663:\n        /* \"#utility.yul\":21948:21987   */\n      tag_665\n        /* \"#utility.yul\":21980:21986   */\n      dup5\n        /* \"#utility.yul\":21975:21978   */\n      dup3\n        /* \"#utility.yul\":21970:21973   */\n      dup6\n        /* \"#utility.yul\":21948:21987   */\n      tag_380\n      jump\t// in\n    tag_665:\n        /* \"#utility.yul\":21667:21993   */\n      pop\n        /* \"#utility.yul\":21572:21993   */\n      swap4\n      swap3\n      pop\n      pop\n      pop\n      jump\t// out\n        /* \"#utility.yul\":22013:22368   */\n    tag_398:\n        /* \"#utility.yul\":22080:22085   */\n      0x00\n        /* \"#utility.yul\":22129:22132   */\n      dup3\n        /* \"#utility.yul\":22122:22126   */\n      0x1f\n        /* \"#utility.yul\":22114:22120   */\n      dup4\n        /* \"#utility.yul\":22110:22127   */\n      add\n        /* \"#utility.yul\":22106:22133   */\n      slt\n        /* \"#utility.yul\":22096:22218   */\n      tag_667\n      jumpi\n        /* \"#utility.yul\":22137:22216   */\n      tag_668\n      tag_348\n      jump\t// in\n    tag_668:\n        /* \"#utility.yul\":22096:22218   */\n    tag_667:\n        /* \"#utility.yul\":22247:22253   */\n      dup2\n        /* \"#utility.yul\":22241:22254   */\n      mload\n        /* \"#utility.yul\":22272:22362   */\n      tag_669\n        /* \"#utility.yul\":22358:22361   */\n      dup5\n        /* \"#utility.yul\":22350:22356   */\n      dup3\n        /* \"#utility.yul\":22343:22347   */\n      0x20\n        /* \"#utility.yul\":22335:22341   */\n      dup7\n        /* \"#utility.yul\":22331:22348   */\n      add\n        /* \"#utility.yul\":22272:22362   */\n      tag_397\n      jump\t// in\n    tag_669:\n        /* \"#utility.yul\":22263:22362   */\n      swap2\n      pop\n        /* \"#utility.yul\":22086:22368   */\n      pop\n        /* \"#utility.yul\":22013:22368   */\n      swap3\n      swap2\n      pop\n      pop\n      jump\t// out\n        /* \"#utility.yul\":22374:22494   */\n    tag_399:\n        /* \"#utility.yul\":22446:22469   */\n      tag_671\n        /* \"#utility.yul\":22463:22468   */\n      dup2\n        /* \"#utility.yul\":22446:22469   */\n      tag_382\n      jump\t// in\n    tag_671:\n        /* \"#utility.yul\":22439:22444   */\n      dup2\n        /* \"#utility.yul\":22436:22470   */\n      eq\n        /* \"#utility.yul\":22426:22488   */\n      tag_672\n      jumpi\n        /* \"#utility.yul\":22484:22485   */\n      0x00\n        /* \"#utility.yul\":22481:22482   */\n      dup1\n        /* \"#utility.yul\":22474:22486   */\n      revert\n        /* \"#utility.yul\":22426:22488   */\n    tag_672:\n        /* \"#utility.yul\":22374:22494   */\n      pop\n      jump\t// out\n        /* \"#utility.yul\":22500:22641   */\n    tag_400:\n        /* \"#utility.yul\":22556:22561   */\n      0x00\n        /* \"#utility.yul\":22587:22593   */\n      dup2\n        /* \"#utility.yul\":22581:22594   */\n      mload\n        /* \"#utility.yul\":22572:22594   */\n      swap1\n      pop\n        /* \"#utility.yul\":22603:22635   */\n      tag_674\n        /* \"#utility.yul\":22629:22634   */\n      dup2\n        /* \"#utility.yul\":22603:22635   */\n      tag_399\n      jump\t// in\n    tag_674:\n        /* \"#utility.yul\":22500:22641   */\n      swap3\n      swap2\n      pop\n      pop\n      jump\t// out\n        /* \"#utility.yul\":22696:23658   */\n    tag_401:\n        /* \"#utility.yul\":22788:22793   */\n      0x00\n        /* \"#utility.yul\":22832:22836   */\n      0x60\n        /* \"#utility.yul\":22820:22829   */\n      dup3\n        /* \"#utility.yul\":22815:22818   */\n      dup5\n        /* \"#utility.yul\":22811:22830   */\n      sub\n        /* \"#utility.yul\":22807:22837   */\n      slt\n        /* \"#utility.yul\":22804:22921   */\n      iszero\n      tag_676\n      jumpi\n        /* \"#utility.yul\":22840:22919   */\n      tag_677\n      tag_394\n      jump\t// in\n    tag_677:\n        /* \"#utility.yul\":22804:22921   */\n    tag_676:\n        /* \"#utility.yul\":22939:22960   */\n      tag_678\n        /* \"#utility.yul\":22955:22959   */\n      0x60\n        /* \"#utility.yul\":22939:22960   */\n      tag_359\n      jump\t// in\n    tag_678:\n        /* \"#utility.yul\":22930:22960   */\n      swap1\n      pop\n        /* \"#utility.yul\":23026:23027   */\n      0x00\n        /* \"#utility.yul\":23066:23126   */\n      tag_679\n        /* \"#utility.yul\":23122:23125   */\n      dup5\n        /* \"#utility.yul\":23113:23119   */\n      dup3\n        /* \"#utility.yul\":23102:23111   */\n      dup6\n        /* \"#utility.yul\":23098:23120   */\n      add\n        /* \"#utility.yul\":23066:23126   */\n      tag_389\n      jump\t// in\n    tag_679:\n        /* \"#utility.yul\":23059:23063   */\n      0x00\n        /* \"#utility.yul\":23052:23057   */\n      dup4\n        /* \"#utility.yul\":23048:23064   */\n      add\n        /* \"#utility.yul\":23041:23127   */\n      mstore\n        /* \"#utility.yul\":22970:23138   */\n      pop\n        /* \"#utility.yul\":23218:23220   */\n      0x20\n        /* \"#utility.yul\":23207:23216   */\n      dup3\n        /* \"#utility.yul\":23203:23221   */\n      add\n        /* \"#utility.yul\":23197:23222   */\n      mload\n        /* \"#utility.yul\":23249:23267   */\n      0xffffffffffffffff\n        /* \"#utility.yul\":23241:23247   */\n      dup2\n        /* \"#utility.yul\":23238:23268   */\n      gt\n        /* \"#utility.yul\":23235:23352   */\n      iszero\n      tag_680\n      jumpi\n        /* \"#utility.yul\":23271:23350   */\n      tag_681\n      tag_395\n      jump\t// in\n    tag_681:\n        /* \"#utility.yul\":23235:23352   */\n    tag_680:\n        /* \"#utility.yul\":23391:23461   */\n      tag_682\n        /* \"#utility.yul\":23457:23460   */\n      dup5\n        /* \"#utility.yul\":23448:23454   */\n      dup3\n        /* \"#utility.yul\":23437:23446   */\n      dup6\n        /* \"#utility.yul\":23433:23455   */\n      add\n        /* \"#utility.yul\":23391:23461   */\n      tag_398\n      jump\t// in\n    tag_682:\n        /* \"#utility.yul\":23384:23388   */\n      0x20\n        /* \"#utility.yul\":23377:23382   */\n      dup4\n        /* \"#utility.yul\":23373:23389   */\n      add\n        /* \"#utility.yul\":23366:23462   */\n      mstore\n        /* \"#utility.yul\":23148:23473   */\n      pop\n        /* \"#utility.yul\":23539:23541   */\n      0x40\n        /* \"#utility.yul\":23580:23639   */\n      tag_683\n        /* \"#utility.yul\":23635:23638   */\n      dup5\n        /* \"#utility.yul\":23626:23632   */\n      dup3\n        /* \"#utility.yul\":23615:23624   */\n      dup6\n        /* \"#utility.yul\":23611:23633   */\n      add\n        /* \"#utility.yul\":23580:23639   */\n      tag_400\n      jump\t// in\n    tag_683:\n        /* \"#utility.yul\":23573:23577   */\n      0x40\n        /* \"#utility.yul\":23566:23571   */\n      dup4\n        /* \"#utility.yul\":23562:23578   */\n      add\n        /* \"#utility.yul\":23555:23640   */\n      mstore\n        /* \"#utility.yul\":23483:23651   */\n      pop\n        /* \"#utility.yul\":22696:23658   */\n      swap3\n      swap2\n      pop\n      pop\n      jump\t// out\n        /* \"#utility.yul\":23664:24232   */\n    tag_194:\n        /* \"#utility.yul\":23766:23772   */\n      0x00\n        /* \"#utility.yul\":23815:23817   */\n      0x20\n        /* \"#utility.yul\":23803:23812   */\n      dup3\n        /* \"#utility.yul\":23794:23801   */\n      dup5\n        /* \"#utility.yul\":23790:23813   */\n      sub\n        /* \"#utility.yul\":23786:23818   */\n      slt\n        /* \"#utility.yul\":23783:23902   */\n      iszero\n      tag_685\n      jumpi\n        /* \"#utility.yul\":23821:23900   */\n      tag_686\n      tag_343\n      jump\t// in\n    tag_686:\n        /* \"#utility.yul\":23783:23902   */\n    tag_685:\n        /* \"#utility.yul\":23962:23963   */\n      0x00\n        /* \"#utility.yul\":23951:23960   */\n      dup3\n        /* \"#utility.yul\":23947:23964   */\n      add\n        /* \"#utility.yul\":23941:23965   */\n      mload\n        /* \"#utility.yul\":23992:24010   */\n      0xffffffffffffffff\n        /* \"#utility.yul\":23984:23990   */\n      dup2\n        /* \"#utility.yul\":23981:24011   */\n      gt\n        /* \"#utility.yul\":23978:24095   */\n      iszero\n      tag_687\n      jumpi\n        /* \"#utility.yul\":24014:24093   */\n      tag_688\n      tag_344\n      jump\t// in\n    tag_688:\n        /* \"#utility.yul\":23978:24095   */\n    tag_687:\n        /* \"#utility.yul\":24119:24215   */\n      tag_689\n        /* \"#utility.yul\":24207:24214   */\n      dup5\n        /* \"#utility.yul\":24198:24204   */\n      dup3\n        /* \"#utility.yul\":24187:24196   */\n      dup6\n        /* \"#utility.yul\":24183:24205   */\n      add\n        /* \"#utility.yul\":24119:24215   */\n      tag_401\n      jump\t// in\n    tag_689:\n        /* \"#utility.yul\":24109:24215   */\n      swap2\n      pop\n        /* \"#utility.yul\":23912:24225   */\n      pop\n        /* \"#utility.yul\":23664:24232   */\n      swap3\n      swap2\n      pop\n      pop\n      jump\t// out\n        /* \"#utility.yul\":24238:24358   */\n    tag_402:\n        /* \"#utility.yul\":24310:24333   */\n      tag_691\n        /* \"#utility.yul\":24327:24332   */\n      dup2\n        /* \"#utility.yul\":24310:24333   */\n      tag_366\n      jump\t// in\n    tag_691:\n        /* \"#utility.yul\":24303:24308   */\n      dup2\n        /* \"#utility.yul\":24300:24334   */\n      eq\n        /* \"#utility.yul\":24290:24352   */\n      tag_692\n      jumpi\n        /* \"#utility.yul\":24348:24349   */\n      0x00\n        /* \"#utility.yul\":24345:24346   */\n      dup1\n        /* \"#utility.yul\":24338:24350   */\n      revert\n        /* \"#utility.yul\":24290:24352   */\n    tag_692:\n        /* \"#utility.yul\":24238:24358   */\n      pop\n      jump\t// out\n        /* \"#utility.yul\":24364:24505   */\n    tag_403:\n        /* \"#utility.yul\":24420:24425   */\n      0x00\n        /* \"#utility.yul\":24451:24457   */\n      dup2\n        /* \"#utility.yul\":24445:24458   */\n      mload\n        /* \"#utility.yul\":24436:24458   */\n      swap1\n      pop\n        /* \"#utility.yul\":24467:24499   */\n      tag_694\n        /* \"#utility.yul\":24493:24498   */\n      dup2\n        /* \"#utility.yul\":24467:24499   */\n      tag_402\n      jump\t// in\n    tag_694:\n        /* \"#utility.yul\":24364:24505   */\n      swap3\n      swap2\n      pop\n      pop\n      jump\t// out\n        /* \"#utility.yul\":24511:24629   */\n    tag_404:\n        /* \"#utility.yul\":24582:24604   */\n      tag_696\n        /* \"#utility.yul\":24598:24603   */\n      dup2\n        /* \"#utility.yul\":24582:24604   */\n      tag_368\n      jump\t// in\n    tag_696:\n        /* \"#utility.yul\":24575:24580   */\n      dup2\n        /* \"#utility.yul\":24572:24605   */\n      eq\n        /* \"#utility.yul\":24562:24623   */\n      tag_697\n      jumpi\n        /* \"#utility.yul\":24619:24620   */\n      0x00\n        /* \"#utility.yul\":24616:24617   */\n      dup1\n        /* \"#utility.yul\":24609:24621   */\n      revert\n        /* \"#utility.yul\":24562:24623   */\n    tag_697:\n        /* \"#utility.yul\":24511:24629   */\n      pop\n      jump\t// out\n        /* \"#utility.yul\":24635:24774   */\n    tag_405:\n        /* \"#utility.yul\":24690:24695   */\n      0x00\n        /* \"#utility.yul\":24721:24727   */\n      dup2\n        /* \"#utility.yul\":24715:24728   */\n      mload\n        /* \"#utility.yul\":24706:24728   */\n      swap1\n      pop\n        /* \"#utility.yul\":24737:24768   */\n      tag_699\n        /* \"#utility.yul\":24762:24767   */\n      dup2\n        /* \"#utility.yul\":24737:24768   */\n      tag_404\n      jump\t// in\n    tag_699:\n        /* \"#utility.yul\":24635:24774   */\n      swap3\n      swap2\n      pop\n      pop\n      jump\t// out\n        /* \"#utility.yul\":24780:24900   */\n    tag_406:\n        /* \"#utility.yul\":24852:24875   */\n      tag_701\n        /* \"#utility.yul\":24869:24874   */\n      dup2\n        /* \"#utility.yul\":24852:24875   */\n      tag_370\n      jump\t// in\n    tag_701:\n        /* \"#utility.yul\":24845:24850   */\n      dup2\n        /* \"#utility.yul\":24842:24876   */\n      eq\n        /* \"#utility.yul\":24832:24894   */\n      tag_702\n      jumpi\n        /* \"#utility.yul\":24890:24891   */\n      0x00\n        /* \"#utility.yul\":24887:24888   */\n      dup1\n        /* \"#utility.yul\":24880:24892   */\n      revert\n        /* \"#utility.yul\":24832:24894   */\n    tag_702:\n        /* \"#utility.yul\":24780:24900   */\n      pop\n      jump\t// out\n        /* \"#utility.yul\":24906:25047   */\n    tag_407:\n        /* \"#utility.yul\":24962:24967   */\n      0x00\n        /* \"#utility.yul\":24993:24999   */\n      dup2\n        /* \"#utility.yul\":24987:25000   */\n      mload\n        /* \"#utility.yul\":24978:25000   */\n      swap1\n      pop\n        /* \"#utility.yul\":25009:25041   */\n      tag_704\n        /* \"#utility.yul\":25035:25040   */\n      dup2\n        /* \"#utility.yul\":25009:25041   */\n      tag_406\n      jump\t// in\n    tag_704:\n        /* \"#utility.yul\":24906:25047   */\n      swap3\n      swap2\n      pop\n      pop\n      jump\t// out\n        /* \"#utility.yul\":25053:25171   */\n    tag_408:\n        /* \"#utility.yul\":25124:25146   */\n      tag_706\n        /* \"#utility.yul\":25140:25145   */\n      dup2\n        /* \"#utility.yul\":25124:25146   */\n      tag_372\n      jump\t// in\n    tag_706:\n        /* \"#utility.yul\":25117:25122   */\n      dup2\n        /* \"#utility.yul\":25114:25147   */\n      eq\n        /* \"#utility.yul\":25104:25165   */\n      tag_707\n      jumpi\n        /* \"#utility.yul\":25161:25162   */\n      0x00\n        /* \"#utility.yul\":25158:25159   */\n      dup1\n        /* \"#utility.yul\":25151:25163   */\n      revert\n        /* \"#utility.yul\":25104:25165   */\n    tag_707:\n        /* \"#utility.yul\":25053:25171   */\n      pop\n      jump\t// out\n        /* \"#utility.yul\":25177:25316   */\n    tag_409:\n        /* \"#utility.yul\":25232:25237   */\n      0x00\n        /* \"#utility.yul\":25263:25269   */\n      dup2\n        /* \"#utility.yul\":25257:25270   */\n      mload\n        /* \"#utility.yul\":25248:25270   */\n      swap1\n      pop\n        /* \"#utility.yul\":25279:25310   */\n      tag_709\n        /* \"#utility.yul\":25304:25309   */\n      dup2\n        /* \"#utility.yul\":25279:25310   */\n      tag_408\n      jump\t// in\n    tag_709:\n        /* \"#utility.yul\":25177:25316   */\n      swap3\n      swap2\n      pop\n      pop\n      jump\t// out\n        /* \"#utility.yul\":25380:27856   */\n    tag_410:\n        /* \"#utility.yul\":25481:25486   */\n      0x00\n        /* \"#utility.yul\":25525:25531   */\n      0x0180\n        /* \"#utility.yul\":25513:25522   */\n      dup3\n        /* \"#utility.yul\":25508:25511   */\n      dup5\n        /* \"#utility.yul\":25504:25523   */\n      sub\n        /* \"#utility.yul\":25500:25532   */\n      slt\n        /* \"#utility.yul\":25497:25616   */\n      iszero\n      tag_711\n      jumpi\n        /* \"#utility.yul\":25535:25614   */\n      tag_712\n      tag_394\n      jump\t// in\n    tag_712:\n        /* \"#utility.yul\":25497:25616   */\n    tag_711:\n        /* \"#utility.yul\":25634:25657   */\n      tag_713\n        /* \"#utility.yul\":25650:25656   */\n      0x0180\n        /* \"#utility.yul\":25634:25657   */\n      tag_359\n      jump\t// in\n    tag_713:\n        /* \"#utility.yul\":25625:25657   */\n      swap1\n      pop\n        /* \"#utility.yul\":25721:25722   */\n      0x00\n        /* \"#utility.yul\":25761:25821   */\n      tag_714\n        /* \"#utility.yul\":25817:25820   */\n      dup5\n        /* \"#utility.yul\":25808:25814   */\n      dup3\n        /* \"#utility.yul\":25797:25806   */\n      dup6\n        /* \"#utility.yul\":25793:25815   */\n      add\n        /* \"#utility.yul\":25761:25821   */\n      tag_389\n      jump\t// in\n    tag_714:\n        /* \"#utility.yul\":25754:25758   */\n      0x00\n        /* \"#utility.yul\":25747:25752   */\n      dup4\n        /* \"#utility.yul\":25743:25759   */\n      add\n        /* \"#utility.yul\":25736:25822   */\n      mstore\n        /* \"#utility.yul\":25667:25833   */\n      pop\n        /* \"#utility.yul\":25912:25914   */\n      0x20\n        /* \"#utility.yul\":25953:26012   */\n      tag_715\n        /* \"#utility.yul\":26008:26011   */\n      dup5\n        /* \"#utility.yul\":25999:26005   */\n      dup3\n        /* \"#utility.yul\":25988:25997   */\n      dup6\n        /* \"#utility.yul\":25984:26006   */\n      add\n        /* \"#utility.yul\":25953:26012   */\n      tag_403\n      jump\t// in\n    tag_715:\n        /* \"#utility.yul\":25946:25950   */\n      0x20\n        /* \"#utility.yul\":25939:25944   */\n      dup4\n        /* \"#utility.yul\":25935:25951   */\n      add\n        /* \"#utility.yul\":25928:26013   */\n      mstore\n        /* \"#utility.yul\":25843:26024   */\n      pop\n        /* \"#utility.yul\":26103:26105   */\n      0x40\n        /* \"#utility.yul\":26144:26203   */\n      tag_716\n        /* \"#utility.yul\":26199:26202   */\n      dup5\n        /* \"#utility.yul\":26190:26196   */\n      dup3\n        /* \"#utility.yul\":26179:26188   */\n      dup6\n        /* \"#utility.yul\":26175:26197   */\n      add\n        /* \"#utility.yul\":26144:26203   */\n      tag_403\n      jump\t// in\n    tag_716:\n        /* \"#utility.yul\":26137:26141   */\n      0x40\n        /* \"#utility.yul\":26130:26135   */\n      dup4\n        /* \"#utility.yul\":26126:26142   */\n      add\n        /* \"#utility.yul\":26119:26204   */\n      mstore\n        /* \"#utility.yul\":26034:26215   */\n      pop\n        /* \"#utility.yul\":26291:26293   */\n      0x60\n        /* \"#utility.yul\":26332:26391   */\n      tag_717\n        /* \"#utility.yul\":26387:26390   */\n      dup5\n        /* \"#utility.yul\":26378:26384   */\n      dup3\n        /* \"#utility.yul\":26367:26376   */\n      dup6\n        /* \"#utility.yul\":26363:26385   */\n      add\n        /* \"#utility.yul\":26332:26391   */\n      tag_403\n      jump\t// in\n    tag_717:\n        /* \"#utility.yul\":26325:26329   */\n      0x60\n        /* \"#utility.yul\":26318:26323   */\n      dup4\n        /* \"#utility.yul\":26314:26330   */\n      add\n        /* \"#utility.yul\":26307:26392   */\n      mstore\n        /* \"#utility.yul\":26225:26403   */\n      pop\n        /* \"#utility.yul\":26466:26469   */\n      0x80\n        /* \"#utility.yul\":26508:26567   */\n      tag_718\n        /* \"#utility.yul\":26563:26566   */\n      dup5\n        /* \"#utility.yul\":26554:26560   */\n      dup3\n        /* \"#utility.yul\":26543:26552   */\n      dup6\n        /* \"#utility.yul\":26539:26561   */\n      add\n        /* \"#utility.yul\":26508:26567   */\n      tag_403\n      jump\t// in\n    tag_718:\n        /* \"#utility.yul\":26501:26505   */\n      0x80\n        /* \"#utility.yul\":26494:26499   */\n      dup4\n        /* \"#utility.yul\":26490:26506   */\n      add\n        /* \"#utility.yul\":26483:26568   */\n      mstore\n        /* \"#utility.yul\":26413:26579   */\n      pop\n        /* \"#utility.yul\":26645:26648   */\n      0xa0\n        /* \"#utility.yul\":26687:26745   */\n      tag_719\n        /* \"#utility.yul\":26741:26744   */\n      dup5\n        /* \"#utility.yul\":26732:26738   */\n      dup3\n        /* \"#utility.yul\":26721:26730   */\n      dup6\n        /* \"#utility.yul\":26717:26739   */\n      add\n        /* \"#utility.yul\":26687:26745   */\n      tag_405\n      jump\t// in\n    tag_719:\n        /* \"#utility.yul\":26680:26684   */\n      0xa0\n        /* \"#utility.yul\":26673:26678   */\n      dup4\n        /* \"#utility.yul\":26669:26685   */\n      add\n        /* \"#utility.yul\":26662:26746   */\n      mstore\n        /* \"#utility.yul\":26589:26757   */\n      pop\n        /* \"#utility.yul\":26832:26835   */\n      0xc0\n        /* \"#utility.yul\":26874:26933   */\n      tag_720\n        /* \"#utility.yul\":26929:26932   */\n      dup5\n        /* \"#utility.yul\":26920:26926   */\n      dup3\n        /* \"#utility.yul\":26909:26918   */\n      dup6\n        /* \"#utility.yul\":26905:26927   */\n      add\n        /* \"#utility.yul\":26874:26933   */\n      tag_407\n      jump\t// in\n    tag_720:\n        /* \"#utility.yul\":26867:26871   */\n      0xc0\n        /* \"#utility.yul\":26860:26865   */\n      dup4\n        /* \"#utility.yul\":26856:26872   */\n      add\n        /* \"#utility.yul\":26849:26934   */\n      mstore\n        /* \"#utility.yul\":26767:26945   */\n      pop\n        /* \"#utility.yul\":27009:27012   */\n      0xe0\n        /* \"#utility.yul\":27051:27110   */\n      tag_721\n        /* \"#utility.yul\":27106:27109   */\n      dup5\n        /* \"#utility.yul\":27097:27103   */\n      dup3\n        /* \"#utility.yul\":27086:27095   */\n      dup6\n        /* \"#utility.yul\":27082:27104   */\n      add\n        /* \"#utility.yul\":27051:27110   */\n      tag_407\n      jump\t// in\n    tag_721:\n        /* \"#utility.yul\":27044:27048   */\n      0xe0\n        /* \"#utility.yul\":27037:27042   */\n      dup4\n        /* \"#utility.yul\":27033:27049   */\n      add\n        /* \"#utility.yul\":27026:27111   */\n      mstore\n        /* \"#utility.yul\":26955:27122   */\n      pop\n        /* \"#utility.yul\":27194:27197   */\n      0x0100\n        /* \"#utility.yul\":27238:27296   */\n      tag_722\n        /* \"#utility.yul\":27292:27295   */\n      dup5\n        /* \"#utility.yul\":27283:27289   */\n      dup3\n        /* \"#utility.yul\":27272:27281   */\n      dup6\n        /* \"#utility.yul\":27268:27290   */\n      add\n        /* \"#utility.yul\":27238:27296   */\n      tag_409\n      jump\t// in\n    tag_722:\n        /* \"#utility.yul\":27229:27235   */\n      0x0100\n        /* \"#utility.yul\":27222:27227   */\n      dup4\n        /* \"#utility.yul\":27218:27236   */\n      add\n        /* \"#utility.yul\":27211:27297   */\n      mstore\n        /* \"#utility.yul\":27132:27308   */\n      pop\n        /* \"#utility.yul\":27379:27382   */\n      0x0120\n        /* \"#utility.yul\":27423:27481   */\n      tag_723\n        /* \"#utility.yul\":27477:27480   */\n      dup5\n        /* \"#utility.yul\":27468:27474   */\n      dup3\n        /* \"#utility.yul\":27457:27466   */\n      dup6\n        /* \"#utility.yul\":27453:27475   */\n      add\n        /* \"#utility.yul\":27423:27481   */\n      tag_409\n      jump\t// in\n    tag_723:\n        /* \"#utility.yul\":27414:27420   */\n      0x0120\n        /* \"#utility.yul\":27407:27412   */\n      dup4\n        /* \"#utility.yul\":27403:27421   */\n      add\n        /* \"#utility.yul\":27396:27482   */\n      mstore\n        /* \"#utility.yul\":27318:27493   */\n      pop\n        /* \"#utility.yul\":27555:27558   */\n      0x0140\n        /* \"#utility.yul\":27599:27657   */\n      tag_724\n        /* \"#utility.yul\":27653:27656   */\n      dup5\n        /* \"#utility.yul\":27644:27650   */\n      dup3\n        /* \"#utility.yul\":27633:27642   */\n      dup6\n        /* \"#utility.yul\":27629:27651   */\n      add\n        /* \"#utility.yul\":27599:27657   */\n      tag_409\n      jump\t// in\n    tag_724:\n        /* \"#utility.yul\":27590:27596   */\n      0x0140\n        /* \"#utility.yul\":27583:27588   */\n      dup4\n        /* \"#utility.yul\":27579:27597   */\n      add\n        /* \"#utility.yul\":27572:27658   */\n      mstore\n        /* \"#utility.yul\":27503:27669   */\n      pop\n        /* \"#utility.yul\":27735:27738   */\n      0x0160\n        /* \"#utility.yul\":27779:27837   */\n      tag_725\n        /* \"#utility.yul\":27833:27836   */\n      dup5\n        /* \"#utility.yul\":27824:27830   */\n      dup3\n        /* \"#utility.yul\":27813:27822   */\n      dup6\n        /* \"#utility.yul\":27809:27831   */\n      add\n        /* \"#utility.yul\":27779:27837   */\n      tag_409\n      jump\t// in\n    tag_725:\n        /* \"#utility.yul\":27770:27776   */\n      0x0160\n        /* \"#utility.yul\":27763:27768   */\n      dup4\n        /* \"#utility.yul\":27759:27777   */\n      add\n        /* \"#utility.yul\":27752:27838   */\n      mstore\n        /* \"#utility.yul\":27679:27849   */\n      pop\n        /* \"#utility.yul\":25380:27856   */\n      swap3\n      swap2\n      pop\n      pop\n      jump\t// out\n        /* \"#utility.yul\":27862:28296   */\n    tag_198:\n        /* \"#utility.yul\":27973:27979   */\n      0x00\n        /* \"#utility.yul\":28022:28025   */\n      0x0180\n        /* \"#utility.yul\":28010:28019   */\n      dup3\n        /* \"#utility.yul\":28001:28008   */\n      dup5\n        /* \"#utility.yul\":27997:28020   */\n      sub\n        /* \"#utility.yul\":27993:28026   */\n      slt\n        /* \"#utility.yul\":27990:28110   */\n      iszero\n      tag_727\n      jumpi\n        /* \"#utility.yul\":28029:28108   */\n      tag_728\n      tag_343\n      jump\t// in\n    tag_728:\n        /* \"#utility.yul\":27990:28110   */\n    tag_727:\n        /* \"#utility.yul\":28149:28150   */\n      0x00\n        /* \"#utility.yul\":28174:28279   */\n      tag_729\n        /* \"#utility.yul\":28271:28278   */\n      dup5\n        /* \"#utility.yul\":28262:28268   */\n      dup3\n        /* \"#utility.yul\":28251:28260   */\n      dup6\n        /* \"#utility.yul\":28247:28269   */\n      add\n        /* \"#utility.yul\":28174:28279   */\n      tag_410\n      jump\t// in\n    tag_729:\n        /* \"#utility.yul\":28164:28279   */\n      swap2\n      pop\n        /* \"#utility.yul\":28120:28289   */\n      pop\n        /* \"#utility.yul\":27862:28296   */\n      swap3\n      swap2\n      pop\n      pop\n      jump\t// out\n        /* \"#utility.yul\":28302:28482   */\n    tag_411:\n        /* \"#utility.yul\":28350:28427   */\n      0x4e487b7100000000000000000000000000000000000000000000000000000000\n        /* \"#utility.yul\":28347:28348   */\n      0x00\n        /* \"#utility.yul\":28340:28428   */\n      mstore\n        /* \"#utility.yul\":28447:28451   */\n      0x11\n        /* \"#utility.yul\":28444:28445   */\n      0x04\n        /* \"#utility.yul\":28437:28452   */\n      mstore\n        /* \"#utility.yul\":28471:28475   */\n      0x24\n        /* \"#utility.yul\":28468:28469   */\n      0x00\n        /* \"#utility.yul\":28461:28476   */\n      revert\n        /* \"#utility.yul\":28488:28793   */\n    tag_217:\n        /* \"#utility.yul\":28528:28531   */\n      0x00\n        /* \"#utility.yul\":28547:28567   */\n      tag_732\n        /* \"#utility.yul\":28565:28566   */\n      dup3\n        /* \"#utility.yul\":28547:28567   */\n      tag_364\n      jump\t// in\n    tag_732:\n        /* \"#utility.yul\":28542:28567   */\n      swap2\n      pop\n        /* \"#utility.yul\":28581:28601   */\n      tag_733\n        /* \"#utility.yul\":28599:28600   */\n      dup4\n        /* \"#utility.yul\":28581:28601   */\n      tag_364\n      jump\t// in\n    tag_733:\n        /* \"#utility.yul\":28576:28601   */\n      swap3\n      pop\n        /* \"#utility.yul\":28735:28736   */\n      dup3\n        /* \"#utility.yul\":28667:28733   */\n      0xffffffffffffffffffffffffffffffffffffffffffffffffffffffffffffffff\n        /* \"#utility.yul\":28663:28737   */\n      sub\n        /* \"#utility.yul\":28660:28661   */\n      dup3\n        /* \"#utility.yul\":28657:28738   */\n      gt\n        /* \"#utility.yul\":28654:28761   */\n      iszero\n      tag_734\n      jumpi\n        /* \"#utility.yul\":28741:28759   */\n      tag_735\n      tag_411\n      jump\t// in\n    tag_735:\n        /* \"#utility.yul\":28654:28761   */\n    tag_734:\n        /* \"#utility.yul\":28785:28786   */\n      dup3\n        /* \"#utility.yul\":28782:28783   */\n      dup3\n        /* \"#utility.yul\":28778:28787   */\n      add\n        /* \"#utility.yul\":28771:28787   */\n      swap1\n      pop\n        /* \"#utility.yul\":28488:28793   */\n      swap3\n      swap2\n      pop\n      pop\n      jump\t// out\n        /* \"#utility.yul\":28799:28917   */\n    tag_412:\n        /* \"#utility.yul\":28886:28910   */\n      tag_737\n        /* \"#utility.yul\":28904:28909   */\n      dup2\n        /* \"#utility.yul\":28886:28910   */\n      tag_345\n      jump\t// in\n    tag_737:\n        /* \"#utility.yul\":28881:28884   */\n      dup3\n        /* \"#utility.yul\":28874:28911   */\n      mstore\n        /* \"#utility.yul\":28799:28917   */\n      pop\n      pop\n      jump\t// out\n        /* \"#utility.yul\":28923:29072   */\n    tag_413:\n        /* \"#utility.yul\":28959:28966   */\n      0x00\n        /* \"#utility.yul\":28999:29065   */\n      0xffffffff00000000000000000000000000000000000000000000000000000000\n        /* \"#utility.yul\":28992:28997   */\n      dup3\n        /* \"#utility.yul\":28988:29066   */\n      and\n        /* \"#utility.yul\":28977:29066   */\n      swap1\n      pop\n        /* \"#utility.yul\":28923:29072   */\n      swap2\n      swap1\n      pop\n      jump\t// out\n        /* \"#utility.yul\":29078:29193   */\n    tag_414:\n        /* \"#utility.yul\":29163:29186   */\n      tag_740\n        /* \"#utility.yul\":29180:29185   */\n      dup2\n        /* \"#utility.yul\":29163:29186   */\n      tag_413\n      jump\t// in\n    tag_740:\n        /* \"#utility.yul\":29158:29161   */\n      dup3\n        /* \"#utility.yul\":29151:29187   */\n      mstore\n        /* \"#utility.yul\":29078:29193   */\n      pop\n      pop\n      jump\t// out\n        /* \"#utility.yul\":29199:29297   */\n    tag_415:\n        /* \"#utility.yul\":29250:29256   */\n      0x00\n        /* \"#utility.yul\":29284:29289   */\n      dup2\n        /* \"#utility.yul\":29278:29290   */\n      mload\n        /* \"#utility.yul\":29268:29290   */\n      swap1\n      pop\n        /* \"#utility.yul\":29199:29297   */\n      swap2\n      swap1\n      pop\n      jump\t// out\n        /* \"#utility.yul\":29303:29471   */\n    tag_416:\n        /* \"#utility.yul\":29386:29397   */\n      0x00\n        /* \"#utility.yul\":29420:29426   */\n      dup3\n        /* \"#utility.yul\":29415:29418   */\n      dup3\n        /* \"#utility.yul\":29408:29427   */\n      mstore\n        /* \"#utility.yul\":29460:29464   */\n      0x20\n        /* \"#utility.yul\":29455:29458   */\n      dup3\n        /* \"#utility.yul\":29451:29465   */\n      add\n        /* \"#utility.yul\":29436:29465   */\n      swap1\n      pop\n        /* \"#utility.yul\":29303:29471   */\n      swap3\n      swap2\n      pop\n      pop\n      jump\t// out\n        /* \"#utility.yul\":29477:29837   */\n    tag_417:\n        /* \"#utility.yul\":29563:29566   */\n      0x00\n        /* \"#utility.yul\":29591:29629   */\n      tag_744\n        /* \"#utility.yul\":29623:29628   */\n      dup3\n        /* \"#utility.yul\":29591:29629   */\n      tag_415\n      jump\t// in\n    tag_744:\n        /* \"#utility.yul\":29645:29715   */\n      tag_745\n        /* \"#utility.yul\":29708:29714   */\n      dup2\n        /* \"#utility.yul\":29703:29706   */\n      dup6\n        /* \"#utility.yul\":29645:29715   */\n      tag_416\n      jump\t// in\n    tag_745:\n        /* \"#utility.yul\":29638:29715   */\n      swap4\n      pop\n        /* \"#utility.yul\":29724:29776   */\n      tag_746\n        /* \"#utility.yul\":29769:29775   */\n      dup2\n        /* \"#utility.yul\":29764:29767   */\n      dup6\n        /* \"#utility.yul\":29757:29761   */\n      0x20\n        /* \"#utility.yul\":29750:29755   */\n      dup7\n        /* \"#utility.yul\":29746:29762   */\n      add\n        /* \"#utility.yul\":29724:29776   */\n      tag_380\n      jump\t// in\n    tag_746:\n        /* \"#utility.yul\":29801:29830   */\n      tag_747\n        /* \"#utility.yul\":29823:29829   */\n      dup2\n        /* \"#utility.yul\":29801:29830   */\n      tag_356\n      jump\t// in\n    tag_747:\n        /* \"#utility.yul\":29796:29799   */\n      dup5\n        /* \"#utility.yul\":29792:29831   */\n      add\n        /* \"#utility.yul\":29785:29831   */\n      swap2\n      pop\n        /* \"#utility.yul\":29567:29837   */\n      pop\n        /* \"#utility.yul\":29477:29837   */\n      swap3\n      swap2\n      pop\n      pop\n      jump\t// out\n        /* \"#utility.yul\":29843:30923   */\n    tag_219:\n        /* \"#utility.yul\":30148:30152   */\n      0x00\n        /* \"#utility.yul\":30186:30189   */\n      0x0100\n        /* \"#utility.yul\":30175:30184   */\n      dup3\n        /* \"#utility.yul\":30171:30190   */\n      add\n        /* \"#utility.yul\":30163:30190   */\n      swap1\n      pop\n        /* \"#utility.yul\":30200:30271   */\n      tag_749\n        /* \"#utility.yul\":30268:30269   */\n      0x00\n        /* \"#utility.yul\":30257:30266   */\n      dup4\n        /* \"#utility.yul\":30253:30270   */\n      add\n        /* \"#utility.yul\":30244:30250   */\n      dup12\n        /* \"#utility.yul\":30200:30271   */\n      tag_384\n      jump\t// in\n    tag_749:\n        /* \"#utility.yul\":30281:30353   */\n      tag_750\n        /* \"#utility.yul\":30349:30351   */\n      0x20\n        /* \"#utility.yul\":30338:30347   */\n      dup4\n        /* \"#utility.yul\":30334:30352   */\n      add\n        /* \"#utility.yul\":30325:30331   */\n      dup11\n        /* \"#utility.yul\":30281:30353   */\n      tag_365\n      jump\t// in\n    tag_750:\n        /* \"#utility.yul\":30363:30435   */\n      tag_751\n        /* \"#utility.yul\":30431:30433   */\n      0x40\n        /* \"#utility.yul\":30420:30429   */\n      dup4\n        /* \"#utility.yul\":30416:30434   */\n      add\n        /* \"#utility.yul\":30407:30413   */\n      dup10\n        /* \"#utility.yul\":30363:30435   */\n      tag_412\n      jump\t// in\n    tag_751:\n        /* \"#utility.yul\":30445:30517   */\n      tag_752\n        /* \"#utility.yul\":30513:30515   */\n      0x60\n        /* \"#utility.yul\":30502:30511   */\n      dup4\n        /* \"#utility.yul\":30498:30516   */\n      add\n        /* \"#utility.yul\":30489:30495   */\n      dup9\n        /* \"#utility.yul\":30445:30517   */\n      tag_384\n      jump\t// in\n    tag_752:\n        /* \"#utility.yul\":30527:30598   */\n      tag_753\n        /* \"#utility.yul\":30593:30596   */\n      0x80\n        /* \"#utility.yul\":30582:30591   */\n      dup4\n        /* \"#utility.yul\":30578:30597   */\n      add\n        /* \"#utility.yul\":30569:30575   */\n      dup8\n        /* \"#utility.yul\":30527:30598   */\n      tag_414\n      jump\t// in\n    tag_753:\n        /* \"#utility.yul\":30608:30681   */\n      tag_754\n        /* \"#utility.yul\":30676:30679   */\n      0xa0\n        /* \"#utility.yul\":30665:30674   */\n      dup4\n        /* \"#utility.yul\":30661:30680   */\n      add\n        /* \"#utility.yul\":30652:30658   */\n      dup7\n        /* \"#utility.yul\":30608:30681   */\n      tag_365\n      jump\t// in\n    tag_754:\n        /* \"#utility.yul\":30691:30764   */\n      tag_755\n        /* \"#utility.yul\":30759:30762   */\n      0xc0\n        /* \"#utility.yul\":30748:30757   */\n      dup4\n        /* \"#utility.yul\":30744:30763   */\n      add\n        /* \"#utility.yul\":30735:30741   */\n      dup6\n        /* \"#utility.yul\":30691:30764   */\n      tag_365\n      jump\t// in\n    tag_755:\n        /* \"#utility.yul\":30812:30821   */\n      dup2\n        /* \"#utility.yul\":30806:30810   */\n      dup2\n        /* \"#utility.yul\":30802:30822   */\n      sub\n        /* \"#utility.yul\":30796:30799   */\n      0xe0\n        /* \"#utility.yul\":30785:30794   */\n      dup4\n        /* \"#utility.yul\":30781:30800   */\n      add\n        /* \"#utility.yul\":30774:30823   */\n      mstore\n        /* \"#utility.yul\":30840:30916   */\n      tag_756\n        /* \"#utility.yul\":30911:30915   */\n      dup2\n        /* \"#utility.yul\":30902:30908   */\n      dup5\n        /* \"#utility.yul\":30840:30916   */\n      tag_417\n      jump\t// in\n    tag_756:\n        /* \"#utility.yul\":30832:30916   */\n      swap1\n      pop\n        /* \"#utility.yul\":29843:30923   */\n      swap10\n      swap9\n      pop\n      pop\n      pop\n      pop\n      pop\n      pop\n      pop\n      pop\n      pop\n      jump\t// out\n        /* \"#utility.yul\":30929:31109   */\n    tag_418:\n        /* \"#utility.yul\":30977:31054   */\n      0x4e487b7100000000000000000000000000000000000000000000000000000000\n        /* \"#utility.yul\":30974:30975   */\n      0x00\n        /* \"#utility.yul\":30967:31055   */\n      mstore\n        /* \"#utility.yul\":31074:31078   */\n      0x12\n        /* \"#utility.yul\":31071:31072   */\n      0x04\n        /* \"#utility.yul\":31064:31079   */\n      mstore\n        /* \"#utility.yul\":31098:31102   */\n      0x24\n        /* \"#utility.yul\":31095:31096   */\n      0x00\n        /* \"#utility.yul\":31088:31103   */\n      revert\n        /* \"#utility.yul\":31115:31291   */\n    tag_232:\n        /* \"#utility.yul\":31147:31148   */\n      0x00\n        /* \"#utility.yul\":31164:31184   */\n      tag_759\n        /* \"#utility.yul\":31182:31183   */\n      dup3\n        /* \"#utility.yul\":31164:31184   */\n      tag_364\n      jump\t// in\n    tag_759:\n        /* \"#utility.yul\":31159:31184   */\n      swap2\n      pop\n        /* \"#utility.yul\":31198:31218   */\n      tag_760\n        /* \"#utility.yul\":31216:31217   */\n      dup4\n        /* \"#utility.yul\":31198:31218   */\n      tag_364\n      jump\t// in\n    tag_760:\n        /* \"#utility.yul\":31193:31218   */\n      swap3\n      pop\n        /* \"#utility.yul\":31237:31238   */\n      dup3\n        /* \"#utility.yul\":31227:31262   */\n      tag_761\n      jumpi\n        /* \"#utility.yul\":31242:31260   */\n      tag_762\n      tag_418\n      jump\t// in\n    tag_762:\n        /* \"#utility.yul\":31227:31262   */\n    tag_761:\n        /* \"#utility.yul\":31283:31284   */\n      dup3\n        /* \"#utility.yul\":31280:31281   */\n      dup3\n        /* \"#utility.yul\":31276:31285   */\n      mod\n        /* \"#utility.yul\":31271:31285   */\n      swap1\n      pop\n        /* \"#utility.yul\":31115:31291   */\n      swap3\n      swap2\n      pop\n      pop\n      jump\t// out\n        /* \"#utility.yul\":31297:31488   */\n    tag_236:\n        /* \"#utility.yul\":31337:31341   */\n      0x00\n        /* \"#utility.yul\":31357:31377   */\n      tag_764\n        /* \"#utility.yul\":31375:31376   */\n      dup3\n        /* \"#utility.yul\":31357:31377   */\n      tag_364\n      jump\t// in\n    tag_764:\n        /* \"#utility.yul\":31352:31377   */\n      swap2\n      pop\n        /* \"#utility.yul\":31391:31411   */\n      tag_765\n        /* \"#utility.yul\":31409:31410   */\n      dup4\n        /* \"#utility.yul\":31391:31411   */\n      tag_364\n      jump\t// in\n    tag_765:\n        /* \"#utility.yul\":31386:31411   */\n      swap3\n      pop\n        /* \"#utility.yul\":31430:31431   */\n      dup3\n        /* \"#utility.yul\":31427:31428   */\n      dup3\n        /* \"#utility.yul\":31424:31432   */\n      lt\n        /* \"#utility.yul\":31421:31455   */\n      iszero\n      tag_766\n      jumpi\n        /* \"#utility.yul\":31435:31453   */\n      tag_767\n      tag_411\n      jump\t// in\n    tag_767:\n        /* \"#utility.yul\":31421:31455   */\n    tag_766:\n        /* \"#utility.yul\":31480:31481   */\n      dup3\n        /* \"#utility.yul\":31477:31478   */\n      dup3\n        /* \"#utility.yul\":31473:31482   */\n      sub\n        /* \"#utility.yul\":31465:31482   */\n      swap1\n      pop\n        /* \"#utility.yul\":31297:31488   */\n      swap3\n      swap2\n      pop\n      pop\n      jump\t// out\n        /* \"#utility.yul\":31494:31554   */\n    tag_419:\n        /* \"#utility.yul\":31522:31525   */\n      0x00\n        /* \"#utility.yul\":31543:31548   */\n      dup2\n        /* \"#utility.yul\":31536:31548   */\n      swap1\n      pop\n        /* \"#utility.yul\":31494:31554   */\n      swap2\n      swap1\n      pop\n      jump\t// out\n        /* \"#utility.yul\":31560:31702   */\n    tag_420:\n        /* \"#utility.yul\":31610:31619   */\n      0x00\n        /* \"#utility.yul\":31643:31696   */\n      tag_770\n        /* \"#utility.yul\":31661:31695   */\n      tag_771\n        /* \"#utility.yul\":31670:31694   */\n      tag_772\n        /* \"#utility.yul\":31688:31693   */\n      dup5\n        /* \"#utility.yul\":31670:31694   */\n      tag_374\n      jump\t// in\n    tag_772:\n        /* \"#utility.yul\":31661:31695   */\n      tag_419\n      jump\t// in\n    tag_771:\n        /* \"#utility.yul\":31643:31696   */\n      tag_374\n      jump\t// in\n    tag_770:\n        /* \"#utility.yul\":31630:31696   */\n      swap1\n      pop\n        /* \"#utility.yul\":31560:31702   */\n      swap2\n      swap1\n      pop\n      jump\t// out\n        /* \"#utility.yul\":31708:31834   */\n    tag_421:\n        /* \"#utility.yul\":31758:31767   */\n      0x00\n        /* \"#utility.yul\":31791:31828   */\n      tag_774\n        /* \"#utility.yul\":31822:31827   */\n      dup3\n        /* \"#utility.yul\":31791:31828   */\n      tag_420\n      jump\t// in\n    tag_774:\n        /* \"#utility.yul\":31778:31828   */\n      swap1\n      pop\n        /* \"#utility.yul\":31708:31834   */\n      swap2\n      swap1\n      pop\n      jump\t// out\n        /* \"#utility.yul\":31840:31989   */\n    tag_422:\n        /* \"#utility.yul\":31913:31922   */\n      0x00\n        /* \"#utility.yul\":31946:31983   */\n      tag_776\n        /* \"#utility.yul\":31977:31982   */\n      dup3\n        /* \"#utility.yul\":31946:31983   */\n      tag_421\n      jump\t// in\n    tag_776:\n        /* \"#utility.yul\":31933:31983   */\n      swap1\n      pop\n        /* \"#utility.yul\":31840:31989   */\n      swap2\n      swap1\n      pop\n      jump\t// out\n        /* \"#utility.yul\":31995:32089   */\n    tag_423:\n        /* \"#utility.yul\":32028:32036   */\n      0x00\n        /* \"#utility.yul\":32076:32081   */\n      dup2\n        /* \"#utility.yul\":32072:32074   */\n      0x60\n        /* \"#utility.yul\":32068:32082   */\n      shl\n        /* \"#utility.yul\":32047:32082   */\n      swap1\n      pop\n        /* \"#utility.yul\":31995:32089   */\n      swap2\n      swap1\n      pop\n      jump\t// out\n        /* \"#utility.yul\":32095:32189   */\n    tag_424:\n        /* \"#utility.yul\":32134:32141   */\n      0x00\n        /* \"#utility.yul\":32163:32183   */\n      tag_779\n        /* \"#utility.yul\":32177:32182   */\n      dup3\n        /* \"#utility.yul\":32163:32183   */\n      tag_423\n      jump\t// in\n    tag_779:\n        /* \"#utility.yul\":32152:32183   */\n      swap1\n      pop\n        /* \"#utility.yul\":32095:32189   */\n      swap2\n      swap1\n      pop\n      jump\t// out\n        /* \"#utility.yul\":32195:32295   */\n    tag_425:\n        /* \"#utility.yul\":32234:32241   */\n      0x00\n        /* \"#utility.yul\":32263:32289   */\n      tag_781\n        /* \"#utility.yul\":32283:32288   */\n      dup3\n        /* \"#utility.yul\":32263:32289   */\n      tag_424\n      jump\t// in\n    tag_781:\n        /* \"#utility.yul\":32252:32289   */\n      swap1\n      pop\n        /* \"#utility.yul\":32195:32295   */\n      swap2\n      swap1\n      pop\n      jump\t// out\n        /* \"#utility.yul\":32301:32517   */\n    tag_426:\n        /* \"#utility.yul\":32429:32510   */\n      tag_783\n        /* \"#utility.yul\":32449:32509   */\n      tag_784\n        /* \"#utility.yul\":32503:32508   */\n      dup3\n        /* \"#utility.yul\":32449:32509   */\n      tag_422\n      jump\t// in\n    tag_784:\n        /* \"#utility.yul\":32429:32510   */\n      tag_425\n      jump\t// in\n    tag_783:\n        /* \"#utility.yul\":32424:32427   */\n      dup3\n        /* \"#utility.yul\":32417:32511   */\n      mstore\n        /* \"#utility.yul\":32301:32517   */\n      pop\n      pop\n      jump\t// out\n        /* \"#utility.yul\":32523:32602   */\n    tag_427:\n        /* \"#utility.yul\":32562:32569   */\n      0x00\n        /* \"#utility.yul\":32591:32596   */\n      dup2\n        /* \"#utility.yul\":32580:32596   */\n      swap1\n      pop\n        /* \"#utility.yul\":32523:32602   */\n      swap2\n      swap1\n      pop\n      jump\t// out\n        /* \"#utility.yul\":32608:32765   */\n    tag_428:\n        /* \"#utility.yul\":32713:32758   */\n      tag_787\n        /* \"#utility.yul\":32733:32757   */\n      tag_788\n        /* \"#utility.yul\":32751:32756   */\n      dup3\n        /* \"#utility.yul\":32733:32757   */\n      tag_364\n      jump\t// in\n    tag_788:\n        /* \"#utility.yul\":32713:32758   */\n      tag_427\n      jump\t// in\n    tag_787:\n        /* \"#utility.yul\":32708:32711   */\n      dup3\n        /* \"#utility.yul\":32701:32759   */\n      mstore\n        /* \"#utility.yul\":32608:32765   */\n      pop\n      pop\n      jump\t// out\n        /* \"#utility.yul\":32771:33214   */\n    tag_264:\n        /* \"#utility.yul\":32934:32937   */\n      0x00\n        /* \"#utility.yul\":32949:33047   */\n      tag_790\n        /* \"#utility.yul\":33043:33046   */\n      dup3\n        /* \"#utility.yul\":33034:33040   */\n      dup6\n        /* \"#utility.yul\":32949:33047   */\n      tag_426\n      jump\t// in\n    tag_790:\n        /* \"#utility.yul\":33072:33074   */\n      0x14\n        /* \"#utility.yul\":33067:33070   */\n      dup3\n        /* \"#utility.yul\":33063:33075   */\n      add\n        /* \"#utility.yul\":33056:33075   */\n      swap2\n      pop\n        /* \"#utility.yul\":33085:33160   */\n      tag_791\n        /* \"#utility.yul\":33156:33159   */\n      dup3\n        /* \"#utility.yul\":33147:33153   */\n      dup5\n        /* \"#utility.yul\":33085:33160   */\n      tag_428\n      jump\t// in\n    tag_791:\n        /* \"#utility.yul\":33185:33187   */\n      0x20\n        /* \"#utility.yul\":33180:33183   */\n      dup3\n        /* \"#utility.yul\":33176:33188   */\n      add\n        /* \"#utility.yul\":33169:33188   */\n      swap2\n      pop\n        /* \"#utility.yul\":33205:33208   */\n      dup2\n        /* \"#utility.yul\":33198:33208   */\n      swap1\n      pop\n        /* \"#utility.yul\":32771:33214   */\n      swap4\n      swap3\n      pop\n      pop\n      pop\n      jump\t// out\n        /* \"#utility.yul\":33220:33749   */\n    tag_266:\n        /* \"#utility.yul\":33387:33391   */\n      0x00\n        /* \"#utility.yul\":33425:33427   */\n      0x60\n        /* \"#utility.yul\":33414:33423   */\n      dup3\n        /* \"#utility.yul\":33410:33428   */\n      add\n        /* \"#utility.yul\":33402:33428   */\n      swap1\n      pop\n        /* \"#utility.yul\":33438:33509   */\n      tag_793\n        /* \"#utility.yul\":33506:33507   */\n      0x00\n        /* \"#utility.yul\":33495:33504   */\n      dup4\n        /* \"#utility.yul\":33491:33508   */\n      add\n        /* \"#utility.yul\":33482:33488   */\n      dup7\n        /* \"#utility.yul\":33438:33509   */\n      tag_384\n      jump\t// in\n    tag_793:\n        /* \"#utility.yul\":33519:33591   */\n      tag_794\n        /* \"#utility.yul\":33587:33589   */\n      0x20\n        /* \"#utility.yul\":33576:33585   */\n      dup4\n        /* \"#utility.yul\":33572:33590   */\n      add\n        /* \"#utility.yul\":33563:33569   */\n      dup6\n        /* \"#utility.yul\":33519:33591   */\n      tag_365\n      jump\t// in\n    tag_794:\n        /* \"#utility.yul\":33638:33647   */\n      dup2\n        /* \"#utility.yul\":33632:33636   */\n      dup2\n        /* \"#utility.yul\":33628:33648   */\n      sub\n        /* \"#utility.yul\":33623:33625   */\n      0x40\n        /* \"#utility.yul\":33612:33621   */\n      dup4\n        /* \"#utility.yul\":33608:33626   */\n      add\n        /* \"#utility.yul\":33601:33649   */\n      mstore\n        /* \"#utility.yul\":33666:33742   */\n      tag_795\n        /* \"#utility.yul\":33737:33741   */\n      dup2\n        /* \"#utility.yul\":33728:33734   */\n      dup5\n        /* \"#utility.yul\":33666:33742   */\n      tag_417\n      jump\t// in\n    tag_795:\n        /* \"#utility.yul\":33658:33742   */\n      swap1\n      pop\n        /* \"#utility.yul\":33220:33749   */\n      swap5\n      swap4\n      pop\n      pop\n      pop\n      pop\n      jump\t// out\n        /* \"#utility.yul\":33755:33977   */\n    tag_429:\n        /* \"#utility.yul\":33895:33929   */\n      0x756e61626c6520746f207472616e73666572416e6443616c6c20746f206f7261\n        /* \"#utility.yul\":33891:33892   */\n      0x00\n        /* \"#utility.yul\":33883:33889   */\n      dup3\n        /* \"#utility.yul\":33879:33893   */\n      add\n        /* \"#utility.yul\":33872:33930   */\n      mstore\n        /* \"#utility.yul\":33964:33969   */\n      0x636c650000000000000000000000000000000000000000000000000000000000\n        /* \"#utility.yul\":33959:33961   */\n      0x20\n        /* \"#utility.yul\":33951:33957   */\n      dup3\n        /* \"#utility.yul\":33947:33962   */\n      add\n        /* \"#utility.yul\":33940:33970   */\n      mstore\n        /* \"#utility.yul\":33755:33977   */\n      pop\n      jump\t// out\n        /* \"#utility.yul\":33983:34349   */\n    tag_430:\n        /* \"#utility.yul\":34125:34128   */\n      0x00\n        /* \"#utility.yul\":34146:34213   */\n      tag_798\n        /* \"#utility.yul\":34210:34212   */\n      0x23\n        /* \"#utility.yul\":34205:34208   */\n      dup4\n        /* \"#utility.yul\":34146:34213   */\n      tag_379\n      jump\t// in\n    tag_798:\n        /* \"#utility.yul\":34139:34213   */\n      swap2\n      pop\n        /* \"#utility.yul\":34222:34315   */\n      tag_799\n        /* \"#utility.yul\":34311:34314   */\n      dup3\n        /* \"#utility.yul\":34222:34315   */\n      tag_429\n      jump\t// in\n    tag_799:\n        /* \"#utility.yul\":34340:34342   */\n      0x40\n        /* \"#utility.yul\":34335:34338   */\n      dup3\n        /* \"#utility.yul\":34331:34343   */\n      add\n        /* \"#utility.yul\":34324:34343   */\n      swap1\n      pop\n        /* \"#utility.yul\":33983:34349   */\n      swap2\n      swap1\n      pop\n      jump\t// out\n        /* \"#utility.yul\":34355:34774   */\n    tag_273:\n        /* \"#utility.yul\":34521:34525   */\n      0x00\n        /* \"#utility.yul\":34559:34561   */\n      0x20\n        /* \"#utility.yul\":34548:34557   */\n      dup3\n        /* \"#utility.yul\":34544:34562   */\n      add\n        /* \"#utility.yul\":34536:34562   */\n      swap1\n      pop\n        /* \"#utility.yul\":34608:34617   */\n      dup2\n        /* \"#utility.yul\":34602:34606   */\n      dup2\n        /* \"#utility.yul\":34598:34618   */\n      sub\n        /* \"#utility.yul\":34594:34595   */\n      0x00\n        /* \"#utility.yul\":34583:34592   */\n      dup4\n        /* \"#utility.yul\":34579:34596   */\n      add\n        /* \"#utility.yul\":34572:34619   */\n      mstore\n        /* \"#utility.yul\":34636:34767   */\n      tag_801\n        /* \"#utility.yul\":34762:34766   */\n      dup2\n        /* \"#utility.yul\":34636:34767   */\n      tag_430\n      jump\t// in\n    tag_801:\n        /* \"#utility.yul\":34628:34767   */\n      swap1\n      pop\n        /* \"#utility.yul\":34355:34774   */\n      swap2\n      swap1\n      pop\n      jump\t// out\n        /* \"#utility.yul\":34780:35128   */\n    tag_297:\n        /* \"#utility.yul\":34820:34827   */\n      0x00\n        /* \"#utility.yul\":34843:34863   */\n      tag_803\n        /* \"#utility.yul\":34861:34862   */\n      dup3\n        /* \"#utility.yul\":34843:34863   */\n      tag_364\n      jump\t// in\n    tag_803:\n        /* \"#utility.yul\":34838:34863   */\n      swap2\n      pop\n        /* \"#utility.yul\":34877:34897   */\n      tag_804\n        /* \"#utility.yul\":34895:34896   */\n      dup4\n        /* \"#utility.yul\":34877:34897   */\n      tag_364\n      jump\t// in\n    tag_804:\n        /* \"#utility.yul\":34872:34897   */\n      swap3\n      pop\n        /* \"#utility.yul\":35065:35066   */\n      dup2\n        /* \"#utility.yul\":34997:35063   */\n      0xffffffffffffffffffffffffffffffffffffffffffffffffffffffffffffffff\n        /* \"#utility.yul\":34993:35067   */\n      div\n        /* \"#utility.yul\":34990:34991   */\n      dup4\n        /* \"#utility.yul\":34987:35068   */\n      gt\n        /* \"#utility.yul\":34982:34983   */\n      dup3\n        /* \"#utility.yul\":34975:34984   */\n      iszero\n        /* \"#utility.yul\":34968:34985   */\n      iszero\n        /* \"#utility.yul\":34964:35069   */\n      and\n        /* \"#utility.yul\":34961:35092   */\n      iszero\n      tag_805\n      jumpi\n        /* \"#utility.yul\":35072:35090   */\n      tag_806\n      tag_411\n      jump\t// in\n    tag_806:\n        /* \"#utility.yul\":34961:35092   */\n    tag_805:\n        /* \"#utility.yul\":35120:35121   */\n      dup3\n        /* \"#utility.yul\":35117:35118   */\n      dup3\n        /* \"#utility.yul\":35113:35122   */\n      mul\n        /* \"#utility.yul\":35102:35122   */\n      swap1\n      pop\n        /* \"#utility.yul\":34780:35128   */\n      swap3\n      swap2\n      pop\n      pop\n      jump\t// out\n        /* \"#utility.yul\":35134:35236   */\n    tag_431:\n        /* \"#utility.yul\":35176:35184   */\n      0x00\n        /* \"#utility.yul\":35223:35228   */\n      dup2\n        /* \"#utility.yul\":35220:35221   */\n      0x01\n        /* \"#utility.yul\":35216:35229   */\n      shr\n        /* \"#utility.yul\":35195:35229   */\n      swap1\n      pop\n        /* \"#utility.yul\":35134:35236   */\n      swap2\n      swap1\n      pop\n      jump\t// out\n        /* \"#utility.yul\":35242:36090   */\n    tag_432:\n        /* \"#utility.yul\":35303:35308   */\n      0x00\n        /* \"#utility.yul\":35310:35314   */\n      dup1\n        /* \"#utility.yul\":35334:35340   */\n      dup3\n        /* \"#utility.yul\":35325:35340   */\n      swap2\n      pop\n        /* \"#utility.yul\":35358:35363   */\n      dup4\n        /* \"#utility.yul\":35349:35363   */\n      swap1\n      pop\n        /* \"#utility.yul\":35372:36084   */\n    tag_809:\n        /* \"#utility.yul\":35393:35394   */\n      0x01\n        /* \"#utility.yul\":35383:35391   */\n      dup6\n        /* \"#utility.yul\":35380:35395   */\n      gt\n        /* \"#utility.yul\":35372:36084   */\n      iszero\n      tag_811\n      jumpi\n        /* \"#utility.yul\":35488:35492   */\n      dup1\n        /* \"#utility.yul\":35483:35486   */\n      dup7\n        /* \"#utility.yul\":35479:35493   */\n      div\n        /* \"#utility.yul\":35473:35477   */\n      dup2\n        /* \"#utility.yul\":35470:35494   */\n      gt\n        /* \"#utility.yul\":35467:35517   */\n      iszero\n      tag_812\n      jumpi\n        /* \"#utility.yul\":35497:35515   */\n      tag_813\n      tag_411\n      jump\t// in\n    tag_813:\n        /* \"#utility.yul\":35467:35517   */\n    tag_812:\n        /* \"#utility.yul\":35547:35548   */\n      0x01\n        /* \"#utility.yul\":35537:35545   */\n      dup6\n        /* \"#utility.yul\":35533:35549   */\n      and\n        /* \"#utility.yul\":35530:35981   */\n      iszero\n      tag_814\n      jumpi\n        /* \"#utility.yul\":35962:35966   */\n      dup1\n        /* \"#utility.yul\":35955:35960   */\n      dup3\n        /* \"#utility.yul\":35951:35967   */\n      mul\n        /* \"#utility.yul\":35942:35967   */\n      swap2\n      pop\n        /* \"#utility.yul\":35530:35981   */\n    tag_814:\n        /* \"#utility.yul\":36012:36016   */\n      dup1\n        /* \"#utility.yul\":36006:36010   */\n      dup2\n        /* \"#utility.yul\":36002:36017   */\n      mul\n        /* \"#utility.yul\":35994:36017   */\n      swap1\n      pop\n        /* \"#utility.yul\":36042:36074   */\n      tag_815\n        /* \"#utility.yul\":36065:36073   */\n      dup6\n        /* \"#utility.yul\":36042:36074   */\n      tag_431\n      jump\t// in\n    tag_815:\n        /* \"#utility.yul\":36030:36074   */\n      swap5\n      pop\n        /* \"#utility.yul\":35372:36084   */\n      jump(tag_809)\n    tag_811:\n        /* \"#utility.yul\":35242:36090   */\n      swap5\n      pop\n      swap5\n      swap3\n      pop\n      pop\n      pop\n      jump\t// out\n        /* \"#utility.yul\":36096:37169   */\n    tag_433:\n        /* \"#utility.yul\":36150:36155   */\n      0x00\n        /* \"#utility.yul\":36341:36349   */\n      dup3\n        /* \"#utility.yul\":36331:36371   */\n      tag_817\n      jumpi\n        /* \"#utility.yul\":36362:36363   */\n      0x01\n        /* \"#utility.yul\":36353:36363   */\n      swap1\n      pop\n        /* \"#utility.yul\":36364:36369   */\n      jump(tag_816)\n        /* \"#utility.yul\":36331:36371   */\n    tag_817:\n        /* \"#utility.yul\":36390:36394   */\n      dup2\n        /* \"#utility.yul\":36380:36416   */\n      tag_818\n      jumpi\n        /* \"#utility.yul\":36407:36408   */\n      0x00\n        /* \"#utility.yul\":36398:36408   */\n      swap1\n      pop\n        /* \"#utility.yul\":36409:36414   */\n      jump(tag_816)\n        /* \"#utility.yul\":36380:36416   */\n    tag_818:\n        /* \"#utility.yul\":36476:36480   */\n      dup2\n        /* \"#utility.yul\":36524:36525   */\n      0x01\n        /* \"#utility.yul\":36519:36546   */\n      dup2\n      eq\n      tag_820\n      jumpi\n        /* \"#utility.yul\":36560:36561   */\n      0x02\n        /* \"#utility.yul\":36555:36746   */\n      dup2\n      eq\n      tag_821\n      jumpi\n        /* \"#utility.yul\":36469:36746   */\n      jump(tag_819)\n        /* \"#utility.yul\":36519:36546   */\n    tag_820:\n        /* \"#utility.yul\":36537:36538   */\n      0x01\n        /* \"#utility.yul\":36528:36538   */\n      swap2\n      pop\n        /* \"#utility.yul\":36539:36544   */\n      pop\n      jump(tag_816)\n        /* \"#utility.yul\":36555:36746   */\n    tag_821:\n        /* \"#utility.yul\":36600:36603   */\n      0xff\n        /* \"#utility.yul\":36590:36598   */\n      dup5\n        /* \"#utility.yul\":36587:36604   */\n      gt\n        /* \"#utility.yul\":36584:36627   */\n      iszero\n      tag_822\n      jumpi\n        /* \"#utility.yul\":36607:36625   */\n      tag_823\n      tag_411\n      jump\t// in\n    tag_823:\n        /* \"#utility.yul\":36584:36627   */\n    tag_822:\n        /* \"#utility.yul\":36656:36664   */\n      dup4\n        /* \"#utility.yul\":36653:36654   */\n      0x02\n        /* \"#utility.yul\":36649:36665   */\n      exp\n        /* \"#utility.yul\":36640:36665   */\n      swap2\n      pop\n        /* \"#utility.yul\":36691:36694   */\n      dup5\n        /* \"#utility.yul\":36684:36689   */\n      dup3\n        /* \"#utility.yul\":36681:36695   */\n      gt\n        /* \"#utility.yul\":36678:36718   */\n      iszero\n      tag_824\n      jumpi\n        /* \"#utility.yul\":36698:36716   */\n      tag_825\n      tag_411\n      jump\t// in\n    tag_825:\n        /* \"#utility.yul\":36678:36718   */\n    tag_824:\n        /* \"#utility.yul\":36731:36736   */\n      pop\n      jump(tag_816)\n        /* \"#utility.yul\":36469:36746   */\n    tag_819:\n      pop\n        /* \"#utility.yul\":36855:36857   */\n      0x20\n        /* \"#utility.yul\":36845:36853   */\n      dup4\n        /* \"#utility.yul\":36842:36858   */\n      lt\n        /* \"#utility.yul\":36836:36839   */\n      0x0133\n        /* \"#utility.yul\":36830:36834   */\n      dup4\n        /* \"#utility.yul\":36827:36840   */\n      lt\n        /* \"#utility.yul\":36823:36859   */\n      and\n        /* \"#utility.yul\":36805:36807   */\n      0x4e\n        /* \"#utility.yul\":36795:36803   */\n      dup5\n        /* \"#utility.yul\":36792:36808   */\n      lt\n        /* \"#utility.yul\":36787:36789   */\n      0x0b\n        /* \"#utility.yul\":36781:36785   */\n      dup5\n        /* \"#utility.yul\":36778:36790   */\n      lt\n        /* \"#utility.yul\":36774:36809   */\n      and\n        /* \"#utility.yul\":36758:36869   */\n      or\n        /* \"#utility.yul\":36755:37001   */\n      iszero\n      tag_826\n      jumpi\n        /* \"#utility.yul\":36911:36919   */\n      dup3\n        /* \"#utility.yul\":36905:36909   */\n      dup3\n        /* \"#utility.yul\":36901:36920   */\n      exp\n        /* \"#utility.yul\":36892:36920   */\n      swap1\n      pop\n        /* \"#utility.yul\":36946:36949   */\n      dup4\n        /* \"#utility.yul\":36939:36944   */\n      dup2\n        /* \"#utility.yul\":36936:36950   */\n      gt\n        /* \"#utility.yul\":36933:36973   */\n      iszero\n      tag_827\n      jumpi\n        /* \"#utility.yul\":36953:36971   */\n      tag_828\n      tag_411\n      jump\t// in\n    tag_828:\n        /* \"#utility.yul\":36933:36973   */\n    tag_827:\n        /* \"#utility.yul\":36986:36991   */\n      jump(tag_816)\n        /* \"#utility.yul\":36755:37001   */\n    tag_826:\n        /* \"#utility.yul\":37026:37068   */\n      tag_829\n        /* \"#utility.yul\":37064:37067   */\n      dup5\n        /* \"#utility.yul\":37054:37062   */\n      dup5\n        /* \"#utility.yul\":37048:37052   */\n      dup5\n        /* \"#utility.yul\":37045:37046   */\n      0x01\n        /* \"#utility.yul\":37026:37068   */\n      tag_432\n      jump\t// in\n    tag_829:\n        /* \"#utility.yul\":37011:37068   */\n      swap3\n      pop\n      swap1\n      pop\n        /* \"#utility.yul\":37100:37104   */\n      dup2\n        /* \"#utility.yul\":37095:37098   */\n      dup5\n        /* \"#utility.yul\":37091:37105   */\n      div\n        /* \"#utility.yul\":37084:37089   */\n      dup2\n        /* \"#utility.yul\":37081:37106   */\n      gt\n        /* \"#utility.yul\":37078:37129   */\n      iszero\n      tag_830\n      jumpi\n        /* \"#utility.yul\":37109:37127   */\n      tag_831\n      tag_411\n      jump\t// in\n    tag_831:\n        /* \"#utility.yul\":37078:37129   */\n    tag_830:\n        /* \"#utility.yul\":37158:37162   */\n      dup2\n        /* \"#utility.yul\":37151:37156   */\n      dup2\n        /* \"#utility.yul\":37147:37163   */\n      mul\n        /* \"#utility.yul\":37138:37163   */\n      swap1\n      pop\n        /* \"#utility.yul\":36096:37169   */\n    tag_816:\n      swap4\n      swap3\n      pop\n      pop\n      pop\n      jump\t// out\n        /* \"#utility.yul\":37175:37460   */\n    tag_323:\n        /* \"#utility.yul\":37235:37240   */\n      0x00\n        /* \"#utility.yul\":37259:37282   */\n      tag_833\n        /* \"#utility.yul\":37277:37281   */\n      dup3\n        /* \"#utility.yul\":37259:37282   */\n      tag_364\n      jump\t// in\n    tag_833:\n        /* \"#utility.yul\":37251:37282   */\n      swap2\n      pop\n        /* \"#utility.yul\":37303:37330   */\n      tag_834\n        /* \"#utility.yul\":37321:37329   */\n      dup4\n        /* \"#utility.yul\":37303:37330   */\n      tag_364\n      jump\t// in\n    tag_834:\n        /* \"#utility.yul\":37291:37330   */\n      swap3\n      pop\n        /* \"#utility.yul\":37349:37453   */\n      tag_835\n        /* \"#utility.yul\":37386:37452   */\n      0xffffffffffffffffffffffffffffffffffffffffffffffffffffffffffffffff\n        /* \"#utility.yul\":37376:37384   */\n      dup5\n        /* \"#utility.yul\":37370:37374   */\n      dup5\n        /* \"#utility.yul\":37349:37453   */\n      tag_433\n      jump\t// in\n    tag_835:\n        /* \"#utility.yul\":37340:37453   */\n      swap1\n      pop\n        /* \"#utility.yul\":37175:37460   */\n      swap3\n      swap2\n      pop\n      pop\n      jump\t// out\n\n    auxdata: 0xa26469706673582212202252902e45bec27977c570a116250aac4e219f8c21769a6cef0f20bb7576731e64736f6c63430008090033\n}\n",
				"bytecode": {
					"linkReferences": {},
					"object": "608060405260016004553480156200001657600080fd5b50604051620038bd380380620038bd83398181016040528101906200003c919062000167565b6200004d826200007560201b60201c565b6200005e81620000b960201b60201c565b670de0b6b3a76400006009819055505050620001ae565b80600260006101000a81548173ffffffffffffffffffffffffffffffffffffffff021916908373ffffffffffffffffffffffffffffffffffffffff16021790555050565b80600360006101000a81548173ffffffffffffffffffffffffffffffffffffffff021916908373ffffffffffffffffffffffffffffffffffffffff16021790555050565b600080fd5b600073ffffffffffffffffffffffffffffffffffffffff82169050919050565b60006200012f8262000102565b9050919050565b620001418162000122565b81146200014d57600080fd5b50565b600081519050620001618162000136565b92915050565b60008060408385031215620001815762000180620000fd565b5b6000620001918582860162000150565b9250506020620001a48582860162000150565b9150509250929050565b6136ff80620001be6000396000f3fe608060405234801561001057600080fd5b50600436106100cf5760003560e01c80639e1e86c01161008c578063ddca3f4311610066578063ddca3f43146101f5578063dffe289414610213578063e13caa631461022f578063ed6a71751461024b576100cf565b80639e1e86c01461019f578063b18b78dd146101bb578063b69293e3146101d9576100cf565b8063022f2b87146100d4578063371eaced146100f057806337b95e861461010c5780637adbf973146101475780638dc654a2146101635780639c2b98fb1461016d575b600080fd5b6100ee60048036038101906100e991906122bf565b61027f565b005b61010a600480360381019061010591906124cd565b610524565b005b6101266004803603810190610121919061256c565b61064b565b60405161013e9c9b9a99989796959493929190612625565b60405180910390f35b610161600480360381019061015c919061273d565b610744565b005b61016b610750565b005b6101876004803603810190610182919061256c565b6108b3565b6040516101969392919061282d565b60405180910390f35b6101b960048036038101906101b4919061286b565b610972565b005b6101c3610cdc565b6040516101d09190612943565b60405180910390f35b6101f360048036038101906101ee919061298a565b610ceb565b005b6101fd610f61565b60405161020a91906129fe565b60405180910390f35b61022d60048036038101906102289190612a19565b610f67565b005b61024960048036038101906102449190612a88565b611083565b005b6102656004803603810190610260919061256c565b611197565b604051610276959493929190612ae4565b60405180910390f35b6000610293863063dffe289460e01b6113ed565b90506103146040518060400160405280600881526020017f656e64706f696e740000000000000000000000000000000000000000000000008152506040518060400160405280600881526020017f6c6f636174696f6e0000000000000000000000000000000000000000000000008152508361141e9092919063ffffffff16565b6103a26040518060400160405280600381526020017f6c6174000000000000000000000000000000000000000000000000000000000081525086868080601f016020809104026020016040519081016040528093929190818152602001838380828437600081840152601f19601f820116905080830192505050505050508361141e9092919063ffffffff16565b6104306040518060400160405280600381526020017f6c6f6e000000000000000000000000000000000000000000000000000000000081525084848080601f016020809104026020016040519081016040528093929190818152602001838380828437600081840152601f19601f820116905080830192505050505050508361141e9092919063ffffffff16565b600061043e82600954611451565b905061051b8160006040518060400160405280600881526020017f6c6f636174696f6e00000000000000000000000000000000000000000000000081525089898080601f016020809104026020016040519081016040528093929190818152602001838380828437600081840152601f19601f8201169050808301925050505050505088888080601f016020809104026020016040519081016040528093929190818152602001838380828437600081840152601f19601f8201169050808301925050505050505060405180602001604052806000815250611488565b50505050505050565b836005600082815260200190815260200160002060009054906101000a900473ffffffffffffffffffffffffffffffffffffffff1673ffffffffffffffffffffffffffffffffffffffff163373ffffffffffffffffffffffffffffffffffffffff16146105c6576040517f08c379a00000000000000000000000000000000000000000000000000000000081526004016105bd90612bc5565b60405180910390fd5b6005600082815260200190815260200160002060006101000a81549073ffffffffffffffffffffffffffffffffffffffff0219169055807f7cc135e0cebb02c3480ae5d74d377283180a2601f8f644edf7987b009316c63a60405160405180910390a2831561064457610639858461155c565b61064385836115d9565b5b5050505050565b60066020528060005260406000206000915090508060000154908060010160009054906101000a900462ffffff16908060010160039054906101000a900462ffffff16908060010160069054906101000a900462ffffff16908060010160099054906101000a900462ffffff169080600101600c9054906101000a900460010b9080600101600e9054906101000a900461ffff16908060010160109054906101000a900461ffff16908060010160129054906101000a900460ff16908060010160139054906101000a900460ff16908060010160149054906101000a900460ff16908060010160159054906101000a900460ff1690508c565b61074d8161179f565b50565b600061075a6117e3565b90508073ffffffffffffffffffffffffffffffffffffffff1663a9059cbb338373ffffffffffffffffffffffffffffffffffffffff166370a08231306040518263ffffffff1660e01b81526004016107b29190612943565b60206040518083038186803b1580156107ca57600080fd5b505afa1580156107de573d6000803e3d6000fd5b505050506040513d601f19601f820116820180604052508101906108029190612bfa565b6040518363ffffffff1660e01b815260040161081f929190612c27565b602060405180830381600087803b15801561083957600080fd5b505af115801561084d573d6000803e3d6000fd5b505050506040513d601f19601f820116820180604052508101906108719190612c65565b6108b0576040517f08c379a00000000000000000000000000000000000000000000000000000000081526004016108a790612cde565b60405180910390fd5b50565b60076020528060005260406000206000915090508060000154908060010180546108dc90612d2d565b80601f016020809104026020016040519081016040528092919081815260200182805461090890612d2d565b80156109555780601f1061092a57610100808354040283529160200191610955565b820191906000526020600020905b81548152906001019060200180831161093857829003601f168201915b5050505050908060020160009054906101000a900460f01b905083565b6000610986883063371eaced60e01b6113ed565b9050610a076040518060400160405280600881526020017f656e64706f696e740000000000000000000000000000000000000000000000008152506040518060400160405280601b81526020017f6c6f636174696f6e2d63757272656e742d636f6e646974696f6e7300000000008152508361141e9092919063ffffffff16565b610a956040518060400160405280600381526020017f6c6174000000000000000000000000000000000000000000000000000000000081525088888080601f016020809104026020016040519081016040528093929190818152602001838380828437600081840152601f19601f820116905080830192505050505050508361141e9092919063ffffffff16565b610b236040518060400160405280600381526020017f6c6f6e000000000000000000000000000000000000000000000000000000000081525086868080601f016020809104026020016040519081016040528093929190818152602001838380828437600081840152601f19601f820116905080830192505050505050508361141e9092919063ffffffff16565b610bb16040518060400160405280600581526020017f756e69747300000000000000000000000000000000000000000000000000000081525084848080601f016020809104026020016040519081016040528093929190818152602001838380828437600081840152601f19601f820116905080830192505050505050508361141e9092919063ffffffff16565b6000610bbf82600954611451565b9050610cd18160006040518060400160405280601b81526020017f6c6f636174696f6e2d63757272656e742d636f6e646974696f6e7300000000008152508b8b8080601f016020809104026020016040519081016040528093929190818152602001838380828437600081840152601f19601f820116905080830192505050505050508a8a8080601f016020809104026020016040519081016040528093929190818152602001838380828437600081840152601f19601f8201169050808301925050505050505089898080601f016020809104026020016040519081016040528093929190818152602001838380828437600081840152601f19601f82011690508083019250505050505050611488565b505050505050505050565b6000610ce661180d565b905090565b6000610cff853063e13caa6360e01b6113ed565b9050610d806040518060400160405280600881526020017f656e64706f696e740000000000000000000000000000000000000000000000008152506040518060400160405280601281526020017f63757272656e742d636f6e646974696f6e7300000000000000000000000000008152508361141e9092919063ffffffff16565b610dca6040518060400160405280600b81526020017f6c6f636174696f6e4b657900000000000000000000000000000000000000000081525085836118379092919063ffffffff16565b610e586040518060400160405280600581526020017f756e69747300000000000000000000000000000000000000000000000000000081525084848080601f016020809104026020016040519081016040528093929190818152602001838380828437600081840152601f19601f820116905080830192505050505050508361141e9092919063ffffffff16565b6000610e6682600954611451565b9050610f5981866040518060400160405280601281526020017f63757272656e742d636f6e646974696f6e7300000000000000000000000000008152506040518060400160405280600181526020017f30000000000000000000000000000000000000000000000000000000000000008152506040518060400160405280600181526020017f300000000000000000000000000000000000000000000000000000000000000081525089898080601f016020809104026020016040519081016040528093929190818152602001838380828437600081840152601f19601f82011690508083019250505050505050611488565b505050505050565b60095481565b826005600082815260200190815260200160002060009054906101000a900473ffffffffffffffffffffffffffffffffffffffff1673ffffffffffffffffffffffffffffffffffffffff163373ffffffffffffffffffffffffffffffffffffffff1614611009576040517f08c379a000000000000000000000000000000000000000000000000000000000815260040161100090612bc5565b60405180910390fd5b6005600082815260200190815260200160002060006101000a81549073ffffffffffffffffffffffffffffffffffffffff0219169055807f7cc135e0cebb02c3480ae5d74d377283180a2601f8f644edf7987b009316c63a60405160405180910390a2821561107d5761107c848361155c565b5b50505050565b816005600082815260200190815260200160002060009054906101000a900473ffffffffffffffffffffffffffffffffffffffff1673ffffffffffffffffffffffffffffffffffffffff163373ffffffffffffffffffffffffffffffffffffffff1614611125576040517f08c379a000000000000000000000000000000000000000000000000000000000815260040161111c90612bc5565b60405180910390fd5b6005600082815260200190815260200160002060006101000a81549073ffffffffffffffffffffffffffffffffffffffff0219169055807f7cc135e0cebb02c3480ae5d74d377283180a2601f8f644edf7987b009316c63a60405160405180910390a261119283836115d9565b505050565b60086020528060005260406000206000915090508060000154908060010180546111c090612d2d565b80601f01602080910402602001604051908101604052809291908181526020018280546111ec90612d2d565b80156112395780601f1061120e57610100808354040283529160200191611239565b820191906000526020600020905b81548152906001019060200180831161121c57829003601f168201915b50505050509080600201805461124e90612d2d565b80601f016020809104026020016040519081016040528092919081815260200182805461127a90612d2d565b80156112c75780601f1061129c576101008083540402835291602001916112c7565b820191906000526020600020905b8154815290600101906020018083116112aa57829003601f168201915b5050505050908060030180546112dc90612d2d565b80601f016020809104026020016040519081016040528092919081815260200182805461130890612d2d565b80156113555780601f1061132a57610100808354040283529160200191611355565b820191906000526020600020905b81548152906001019060200180831161133857829003601f168201915b50505050509080600401805461136a90612d2d565b80601f016020809104026020016040519081016040528092919081815260200182805461139690612d2d565b80156113e35780601f106113b8576101008083540402835291602001916113e3565b820191906000526020600020905b8154815290600101906020018083116113c657829003601f168201915b5050505050905085565b6113f56120b7565b6113fd6120b7565b6114148585858461186a909392919063ffffffff16565b9150509392505050565b61143582846080015161191a90919063ffffffff16565b61144c81846080015161191a90919063ffffffff16565b505050565b6000611480600360009054906101000a900473ffffffffffffffffffffffffffffffffffffffff16848461193f565b905092915050565b611490612124565b8581600001818152505084816020018190525083816040018190525082816060018190525081816080018190525080600860008981526020019081526020016000206000820151816000015560208201518160010190805190602001906114f8929190612153565b506040820151816002019080519060200190611515929190612153565b506060820151816003019080519060200190611532929190612153565b50608082015181600401908051906020019061154f929190612153565b5090505050505050505050565b6000818060200190518101906115729190612eb6565b905080600760008581526020019081526020016000206000820151816000015560208201518160010190805190602001906115ae929190612153565b5060408201518160020160006101000a81548161ffff021916908360f01c0217905550905050505050565b6000818060200190518101906115ef91906130d1565b905080600660008581526020019081526020016000206000820151816000015560208201518160010160006101000a81548162ffffff021916908362ffffff16021790555060408201518160010160036101000a81548162ffffff021916908362ffffff16021790555060608201518160010160066101000a81548162ffffff021916908362ffffff16021790555060808201518160010160096101000a81548162ffffff021916908362ffffff16021790555060a082015181600101600c6101000a81548161ffff021916908360010b61ffff16021790555060c082015181600101600e6101000a81548161ffff021916908361ffff16021790555060e08201518160010160106101000a81548161ffff021916908361ffff1602179055506101008201518160010160126101000a81548160ff021916908360ff1602179055506101208201518160010160136101000a81548160ff021916908360ff1602179055506101408201518160010160146101000a81548160ff021916908360ff1602179055506101608201518160010160156101000a81548160ff021916908360ff160217905550905050505050565b80600360006101000a81548173ffffffffffffffffffffffffffffffffffffffff021916908373ffffffffffffffffffffffffffffffffffffffff16021790555050565b6000600260009054906101000a900473ffffffffffffffffffffffffffffffffffffffff16905090565b6000600360009054906101000a900473ffffffffffffffffffffffffffffffffffffffff16905090565b61184e82846080015161191a90919063ffffffff16565b611865818460800151611a0b90919063ffffffff16565b505050565b6118726120b7565b6118828560800151610100611a3b565b508385600001818152505082856020019073ffffffffffffffffffffffffffffffffffffffff16908173ffffffffffffffffffffffffffffffffffffffff16815250508185604001907bffffffffffffffffffffffffffffffffffffffffffffffffffffffff191690817bffffffffffffffffffffffffffffffffffffffffffffffffffffffff191681525050849050949350505050565b6119278260038351611aa5565b61193a8183611c2a90919063ffffffff16565b505050565b6000806004549050600181611954919061312e565b6004819055506000634042994660e01b60008087600001513089604001518760018c6080015160000151604051602401611995989796959493929190613223565b604051602081830303815290604052907bffffffffffffffffffffffffffffffffffffffffffffffffffffffff19166020820180517bffffffffffffffffffffffffffffffffffffffffffffffffffffffff83818316178352505050509050611a0086838684611c4c565b925050509392505050565b67ffffffffffffffff811115611a2a57611a258282611df0565b611a37565b611a3682600083611aa5565b5b5050565b611a436121d9565b6000602083611a5291906132d7565b14611a7e57602082611a6491906132d7565b6020611a709190613308565b82611a7b919061312e565b91505b81836020018181525050604051808452600081528281016020016040525082905092915050565b60178167ffffffffffffffff1611611adc57611ad68160058460ff16901b60ff161784611e3c90919063ffffffff16565b50611c25565b60ff8167ffffffffffffffff1611611b3257611b0b601860058460ff16901b1784611e3c90919063ffffffff16565b50611b2c8167ffffffffffffffff16600185611e5c9092919063ffffffff16565b50611c24565b61ffff8167ffffffffffffffff1611611b8957611b62601960058460ff16901b1784611e3c90919063ffffffff16565b50611b838167ffffffffffffffff16600285611e5c9092919063ffffffff16565b50611c23565b63ffffffff8167ffffffffffffffff1611611be257611bbb601a60058460ff16901b1784611e3c90919063ffffffff16565b50611bdc8167ffffffffffffffff16600485611e5c9092919063ffffffff16565b50611c22565b611bff601b60058460ff16901b1784611e3c90919063ffffffff16565b50611c208167ffffffffffffffff16600885611e5c9092919063ffffffff16565b505b5b5b5b505050565b611c326121d9565b611c4483846000015151848551611e7e565b905092915050565b60003084604051602001611c619291906133f5565b604051602081830303815290604052805190602001209050846005600083815260200190815260200160002060006101000a81548173ffffffffffffffffffffffffffffffffffffffff021916908373ffffffffffffffffffffffffffffffffffffffff160217905550807fb5e6e01e79f91267dc17b4e6314d5d4d03593d2ceee0fbb452b750bd70ea5af960405160405180910390a2600260009054906101000a900473ffffffffffffffffffffffffffffffffffffffff1673ffffffffffffffffffffffffffffffffffffffff16634000aea08685856040518463ffffffff1660e01b8152600401611d5793929190613421565b602060405180830381600087803b158015611d7157600080fd5b505af1158015611d85573d6000803e3d6000fd5b505050506040513d601f19601f82011682018060405250810190611da99190612c65565b611de8576040517f08c379a0000000000000000000000000000000000000000000000000000000008152600401611ddf906134d1565b60405180910390fd5b949350505050565b611e0e60026005600660ff16901b1783611e3c90919063ffffffff16565b50611e388282604051602001611e2491906129fe565b604051602081830303815290604052611f6d565b5050565b611e446121d9565b611e548384600001515184611f92565b905092915050565b611e646121d9565b611e75848560000151518585611fe9565b90509392505050565b611e866121d9565b8251821115611e9457600080fd5b84602001518285611ea5919061312e565b1115611eda57611ed9856002611eca88602001518887611ec5919061312e565b612077565b611ed491906134f1565b612093565b5b600080865180518760208301019350808887011115611ef95787860182525b60208701925050505b60208410611f405780518252602082611f1b919061312e565b9150602081611f2a919061312e565b9050602084611f399190613308565b9350611f02565b60006001856020036101000a03905080198251168184511681811785525050508692505050949350505050565b611f7a8260028351611aa5565b611f8d8183611c2a90919063ffffffff16565b505050565b611f9a6121d9565b83602001518310611fc057611fbf8460028660200151611fba91906134f1565b612093565b5b8351805160208583010184815381861415611fdc576001820183525b5050508390509392505050565b611ff16121d9565b84602001518483612002919061312e565b111561202a57612029856002868561201a919061312e565b61202491906134f1565b612093565b5b600060018361010061203c919061367e565b6120469190613308565b905085518386820101858319825116178152815185880111156120695784870182525b505085915050949350505050565b6000818311156120895782905061208d565b8190505b92915050565b6000826000015190506120a68383611a3b565b506120b18382611c2a565b50505050565b6040518060a0016040528060008019168152602001600073ffffffffffffffffffffffffffffffffffffffff16815260200160007bffffffffffffffffffffffffffffffffffffffffffffffffffffffff191681526020016000815260200161211e6121d9565b81525090565b6040518060a0016040528060008152602001606081526020016060815260200160608152602001606081525090565b82805461215f90612d2d565b90600052602060002090601f01602090048101928261218157600085556121c8565b82601f1061219a57805160ff19168380011785556121c8565b828001600101855582156121c8579182015b828111156121c75782518255916020019190600101906121ac565b5b5090506121d591906121f3565b5090565b604051806040016040528060608152602001600081525090565b5b8082111561220c5760008160009055506001016121f4565b5090565b6000604051905090565b600080fd5b600080fd5b6000819050919050565b61223781612224565b811461224257600080fd5b50565b6000813590506122548161222e565b92915050565b600080fd5b600080fd5b600080fd5b60008083601f84011261227f5761227e61225a565b5b8235905067ffffffffffffffff81111561229c5761229b61225f565b5b6020830191508360018202830111156122b8576122b7612264565b5b9250929050565b6000806000806000606086880312156122db576122da61221a565b5b60006122e988828901612245565b955050602086013567ffffffffffffffff81111561230a5761230961221f565b5b61231688828901612269565b9450945050604086013567ffffffffffffffff8111156123395761233861221f565b5b61234588828901612269565b92509250509295509295909350565b60008115159050919050565b61236981612354565b811461237457600080fd5b50565b60008135905061238681612360565b92915050565b600080fd5b6000601f19601f8301169050919050565b7f4e487b7100000000000000000000000000000000000000000000000000000000600052604160045260246000fd5b6123da82612391565b810181811067ffffffffffffffff821117156123f9576123f86123a2565b5b80604052505050565b600061240c612210565b905061241882826123d1565b919050565b600067ffffffffffffffff821115612438576124376123a2565b5b61244182612391565b9050602081019050919050565b82818337600083830152505050565b600061247061246b8461241d565b612402565b90508281526020810184848401111561248c5761248b61238c565b5b61249784828561244e565b509392505050565b600082601f8301126124b4576124b361225a565b5b81356124c484826020860161245d565b91505092915050565b600080600080608085870312156124e7576124e661221a565b5b60006124f587828801612245565b945050602061250687828801612377565b935050604085013567ffffffffffffffff8111156125275761252661221f565b5b6125338782880161249f565b925050606085013567ffffffffffffffff8111156125545761255361221f565b5b6125608782880161249f565b91505092959194509250565b6000602082840312156125825761258161221a565b5b600061259084828501612245565b91505092915050565b6000819050919050565b6125ac81612599565b82525050565b600062ffffff82169050919050565b6125ca816125b2565b82525050565b60008160010b9050919050565b6125e6816125d0565b82525050565b600061ffff82169050919050565b612603816125ec565b82525050565b600060ff82169050919050565b61261f81612609565b82525050565b60006101808201905061263b600083018f6125a3565b612648602083018e6125c1565b612655604083018d6125c1565b612662606083018c6125c1565b61266f608083018b6125c1565b61267c60a083018a6125dd565b61268960c08301896125fa565b61269660e08301886125fa565b6126a4610100830187612616565b6126b2610120830186612616565b6126c0610140830185612616565b6126ce610160830184612616565b9d9c50505050505050505050505050565b600073ffffffffffffffffffffffffffffffffffffffff82169050919050565b600061270a826126df565b9050919050565b61271a816126ff565b811461272557600080fd5b50565b60008135905061273781612711565b92915050565b6000602082840312156127535761275261221a565b5b600061276184828501612728565b91505092915050565b600081519050919050565b600082825260208201905092915050565b60005b838110156127a4578082015181840152602081019050612789565b838111156127b3576000848401525b50505050565b60006127c48261276a565b6127ce8185612775565b93506127de818560208601612786565b6127e781612391565b840191505092915050565b60007fffff00000000000000000000000000000000000000000000000000000000000082169050919050565b612827816127f2565b82525050565b600060608201905061284260008301866125a3565b818103602083015261285481856127b9565b9050612863604083018461281e565b949350505050565b60008060008060008060006080888a03121561288a5761288961221a565b5b60006128988a828b01612245565b975050602088013567ffffffffffffffff8111156128b9576128b861221f565b5b6128c58a828b01612269565b9650965050604088013567ffffffffffffffff8111156128e8576128e761221f565b5b6128f48a828b01612269565b9450945050606088013567ffffffffffffffff8111156129175761291661221f565b5b6129238a828b01612269565b925092505092959891949750929550565b61293d816126ff565b82525050565b60006020820190506129586000830184612934565b92915050565b61296781612599565b811461297257600080fd5b50565b6000813590506129848161295e565b92915050565b600080600080606085870312156129a4576129a361221a565b5b60006129b287828801612245565b94505060206129c387828801612975565b935050604085013567ffffffffffffffff8111156129e4576129e361221f565b5b6129f087828801612269565b925092505092959194509250565b6000602082019050612a1360008301846125a3565b92915050565b600080600060608486031215612a3257612a3161221a565b5b6000612a4086828701612245565b9350506020612a5186828701612377565b925050604084013567ffffffffffffffff811115612a7257612a7161221f565b5b612a7e8682870161249f565b9150509250925092565b60008060408385031215612a9f57612a9e61221a565b5b6000612aad85828601612245565b925050602083013567ffffffffffffffff811115612ace57612acd61221f565b5b612ada8582860161249f565b9150509250929050565b600060a082019050612af960008301886125a3565b8181036020830152612b0b81876127b9565b90508181036040830152612b1f81866127b9565b90508181036060830152612b3381856127b9565b90508181036080830152612b4781846127b9565b90509695505050505050565b7f536f75726365206d75737420626520746865206f7261636c65206f662074686560008201527f2072657175657374000000000000000000000000000000000000000000000000602082015250565b6000612baf602883612775565b9150612bba82612b53565b604082019050919050565b60006020820190508181036000830152612bde81612ba2565b9050919050565b600081519050612bf48161295e565b92915050565b600060208284031215612c1057612c0f61221a565b5b6000612c1e84828501612be5565b91505092915050565b6000604082019050612c3c6000830185612934565b612c4960208301846125a3565b9392505050565b600081519050612c5f81612360565b92915050565b600060208284031215612c7b57612c7a61221a565b5b6000612c8984828501612c50565b91505092915050565b7f556e61626c6520746f207472616e736665720000000000000000000000000000600082015250565b6000612cc8601283612775565b9150612cd382612c92565b602082019050919050565b60006020820190508181036000830152612cf781612cbb565b9050919050565b7f4e487b7100000000000000000000000000000000000000000000000000000000600052602260045260246000fd5b60006002820490506001821680612d4557607f821691505b60208210811415612d5957612d58612cfe565b5b50919050565b600080fd5b600080fd5b600067ffffffffffffffff821115612d8457612d836123a2565b5b612d8d82612391565b9050602081019050919050565b6000612dad612da884612d69565b612402565b905082815260208101848484011115612dc957612dc861238c565b5b612dd4848285612786565b509392505050565b600082601f830112612df157612df061225a565b5b8151612e01848260208601612d9a565b91505092915050565b612e13816127f2565b8114612e1e57600080fd5b50565b600081519050612e3081612e0a565b92915050565b600060608284031215612e4c57612e4b612d5f565b5b612e566060612402565b90506000612e6684828501612be5565b600083015250602082015167ffffffffffffffff811115612e8a57612e89612d64565b5b612e9684828501612ddc565b6020830152506040612eaa84828501612e21565b60408301525092915050565b600060208284031215612ecc57612ecb61221a565b5b600082015167ffffffffffffffff811115612eea57612ee961221f565b5b612ef684828501612e36565b91505092915050565b612f08816125b2565b8114612f1357600080fd5b50565b600081519050612f2581612eff565b92915050565b612f34816125d0565b8114612f3f57600080fd5b50565b600081519050612f5181612f2b565b92915050565b612f60816125ec565b8114612f6b57600080fd5b50565b600081519050612f7d81612f57565b92915050565b612f8c81612609565b8114612f9757600080fd5b50565b600081519050612fa981612f83565b92915050565b60006101808284031215612fc657612fc5612d5f565b5b612fd1610180612402565b90506000612fe184828501612be5565b6000830152506020612ff584828501612f16565b602083015250604061300984828501612f16565b604083015250606061301d84828501612f16565b606083015250608061303184828501612f16565b60808301525060a061304584828501612f42565b60a08301525060c061305984828501612f6e565b60c08301525060e061306d84828501612f6e565b60e08301525061010061308284828501612f9a565b6101008301525061012061309884828501612f9a565b610120830152506101406130ae84828501612f9a565b610140830152506101606130c484828501612f9a565b6101608301525092915050565b600061018082840312156130e8576130e761221a565b5b60006130f684828501612faf565b91505092915050565b7f4e487b7100000000000000000000000000000000000000000000000000000000600052601160045260246000fd5b600061313982612599565b915061314483612599565b9250827fffffffffffffffffffffffffffffffffffffffffffffffffffffffffffffffff03821115613179576131786130ff565b5b828201905092915050565b61318d81612224565b82525050565b60007fffffffff0000000000000000000000000000000000000000000000000000000082169050919050565b6131c881613193565b82525050565b600081519050919050565b600082825260208201905092915050565b60006131f5826131ce565b6131ff81856131d9565b935061320f818560208601612786565b61321881612391565b840191505092915050565b600061010082019050613239600083018b612934565b613246602083018a6125a3565b6132536040830189613184565b6132606060830188612934565b61326d60808301876131bf565b61327a60a08301866125a3565b61328760c08301856125a3565b81810360e083015261329981846131ea565b90509998505050505050505050565b7f4e487b7100000000000000000000000000000000000000000000000000000000600052601260045260246000fd5b60006132e282612599565b91506132ed83612599565b9250826132fd576132fc6132a8565b5b828206905092915050565b600061331382612599565b915061331e83612599565b925082821015613331576133306130ff565b5b828203905092915050565b6000819050919050565b600061336161335c613357846126df565b61333c565b6126df565b9050919050565b600061337382613346565b9050919050565b600061338582613368565b9050919050565b60008160601b9050919050565b60006133a48261338c565b9050919050565b60006133b682613399565b9050919050565b6133ce6133c98261337a565b6133ab565b82525050565b6000819050919050565b6133ef6133ea82612599565b6133d4565b82525050565b600061340182856133bd565b60148201915061341182846133de565b6020820191508190509392505050565b60006060820190506134366000830186612934565b61344360208301856125a3565b818103604083015261345581846131ea565b9050949350505050565b7f756e61626c6520746f207472616e73666572416e6443616c6c20746f206f726160008201527f636c650000000000000000000000000000000000000000000000000000000000602082015250565b60006134bb602383612775565b91506134c68261345f565b604082019050919050565b600060208201905081810360008301526134ea816134ae565b9050919050565b60006134fc82612599565b915061350783612599565b9250817fffffffffffffffffffffffffffffffffffffffffffffffffffffffffffffffff04831182151516156135405761353f6130ff565b5b828202905092915050565b60008160011c9050919050565b6000808291508390505b60018511156135a25780860481111561357e5761357d6130ff565b5b600185161561358d5780820291505b808102905061359b8561354b565b9450613562565b94509492505050565b6000826135bb5760019050613677565b816135c95760009050613677565b81600181146135df57600281146135e957613618565b6001915050613677565b60ff8411156135fb576135fa6130ff565b5b8360020a915084821115613612576136116130ff565b5b50613677565b5060208310610133831016604e8410600b841016171561364d5782820a905083811115613648576136476130ff565b5b613677565b61365a8484846001613558565b92509050818404811115613671576136706130ff565b5b81810290505b9392505050565b600061368982612599565b915061369483612599565b92506136c17fffffffffffffffffffffffffffffffffffffffffffffffffffffffffffffffff84846135ab565b90509291505056fea26469706673582212202252902e45bec27977c570a116250aac4e219f8c21769a6cef0f20bb7576731e64736f6c63430008090033",
					"opcodes": "PUSH1 0x80 PUSH1 0x40 MSTORE PUSH1 0x1 PUSH1 0x4 SSTORE CALLVALUE DUP1 ISZERO PUSH3 0x16 JUMPI PUSH1 0x0 DUP1 REVERT JUMPDEST POP PUSH1 0x40 MLOAD PUSH3 0x38BD CODESIZE SUB DUP1 PUSH3 0x38BD DUP4 CODECOPY DUP2 DUP2 ADD PUSH1 0x40 MSTORE DUP2 ADD SWAP1 PUSH3 0x3C SWAP2 SWAP1 PUSH3 0x167 JUMP JUMPDEST PUSH3 0x4D DUP3 PUSH3 0x75 PUSH1 0x20 SHL PUSH1 0x20 SHR JUMP JUMPDEST PUSH3 0x5E DUP2 PUSH3 0xB9 PUSH1 0x20 SHL PUSH1 0x20 SHR JUMP JUMPDEST PUSH8 0xDE0B6B3A7640000 PUSH1 0x9 DUP2 SWAP1 SSTORE POP POP POP PUSH3 0x1AE JUMP JUMPDEST DUP1 PUSH1 0x2 PUSH1 0x0 PUSH2 0x100 EXP DUP2 SLOAD DUP2 PUSH20 0xFFFFFFFFFFFFFFFFFFFFFFFFFFFFFFFFFFFFFFFF MUL NOT AND SWAP1 DUP4 PUSH20 0xFFFFFFFFFFFFFFFFFFFFFFFFFFFFFFFFFFFFFFFF AND MUL OR SWAP1 SSTORE POP POP JUMP JUMPDEST DUP1 PUSH1 0x3 PUSH1 0x0 PUSH2 0x100 EXP DUP2 SLOAD DUP2 PUSH20 0xFFFFFFFFFFFFFFFFFFFFFFFFFFFFFFFFFFFFFFFF MUL NOT AND SWAP1 DUP4 PUSH20 0xFFFFFFFFFFFFFFFFFFFFFFFFFFFFFFFFFFFFFFFF AND MUL OR SWAP1 SSTORE POP POP JUMP JUMPDEST PUSH1 0x0 DUP1 REVERT JUMPDEST PUSH1 0x0 PUSH20 0xFFFFFFFFFFFFFFFFFFFFFFFFFFFFFFFFFFFFFFFF DUP3 AND SWAP1 POP SWAP2 SWAP1 POP JUMP JUMPDEST PUSH1 0x0 PUSH3 0x12F DUP3 PUSH3 0x102 JUMP JUMPDEST SWAP1 POP SWAP2 SWAP1 POP JUMP JUMPDEST PUSH3 0x141 DUP2 PUSH3 0x122 JUMP JUMPDEST DUP2 EQ PUSH3 0x14D JUMPI PUSH1 0x0 DUP1 REVERT JUMPDEST POP JUMP JUMPDEST PUSH1 0x0 DUP2 MLOAD SWAP1 POP PUSH3 0x161 DUP2 PUSH3 0x136 JUMP JUMPDEST SWAP3 SWAP2 POP POP JUMP JUMPDEST PUSH1 0x0 DUP1 PUSH1 0x40 DUP4 DUP6 SUB SLT ISZERO PUSH3 0x181 JUMPI PUSH3 0x180 PUSH3 0xFD JUMP JUMPDEST JUMPDEST PUSH1 0x0 PUSH3 0x191 DUP6 DUP3 DUP7 ADD PUSH3 0x150 JUMP JUMPDEST SWAP3 POP POP PUSH1 0x20 PUSH3 0x1A4 DUP6 DUP3 DUP7 ADD PUSH3 0x150 JUMP JUMPDEST SWAP2 POP POP SWAP3 POP SWAP3 SWAP1 POP JUMP JUMPDEST PUSH2 0x36FF DUP1 PUSH3 0x1BE PUSH1 0x0 CODECOPY PUSH1 0x0 RETURN INVALID PUSH1 0x80 PUSH1 0x40 MSTORE CALLVALUE DUP1 ISZERO PUSH2 0x10 JUMPI PUSH1 0x0 DUP1 REVERT JUMPDEST POP PUSH1 0x4 CALLDATASIZE LT PUSH2 0xCF JUMPI PUSH1 0x0 CALLDATALOAD PUSH1 0xE0 SHR DUP1 PUSH4 0x9E1E86C0 GT PUSH2 0x8C JUMPI DUP1 PUSH4 0xDDCA3F43 GT PUSH2 0x66 JUMPI DUP1 PUSH4 0xDDCA3F43 EQ PUSH2 0x1F5 JUMPI DUP1 PUSH4 0xDFFE2894 EQ PUSH2 0x213 JUMPI DUP1 PUSH4 0xE13CAA63 EQ PUSH2 0x22F JUMPI DUP1 PUSH4 0xED6A7175 EQ PUSH2 0x24B JUMPI PUSH2 0xCF JUMP JUMPDEST DUP1 PUSH4 0x9E1E86C0 EQ PUSH2 0x19F JUMPI DUP1 PUSH4 0xB18B78DD EQ PUSH2 0x1BB JUMPI DUP1 PUSH4 0xB69293E3 EQ PUSH2 0x1D9 JUMPI PUSH2 0xCF JUMP JUMPDEST DUP1 PUSH4 0x22F2B87 EQ PUSH2 0xD4 JUMPI DUP1 PUSH4 0x371EACED EQ PUSH2 0xF0 JUMPI DUP1 PUSH4 0x37B95E86 EQ PUSH2 0x10C JUMPI DUP1 PUSH4 0x7ADBF973 EQ PUSH2 0x147 JUMPI DUP1 PUSH4 0x8DC654A2 EQ PUSH2 0x163 JUMPI DUP1 PUSH4 0x9C2B98FB EQ PUSH2 0x16D JUMPI JUMPDEST PUSH1 0x0 DUP1 REVERT JUMPDEST PUSH2 0xEE PUSH1 0x4 DUP1 CALLDATASIZE SUB DUP2 ADD SWAP1 PUSH2 0xE9 SWAP2 SWAP1 PUSH2 0x22BF JUMP JUMPDEST PUSH2 0x27F JUMP JUMPDEST STOP JUMPDEST PUSH2 0x10A PUSH1 0x4 DUP1 CALLDATASIZE SUB DUP2 ADD SWAP1 PUSH2 0x105 SWAP2 SWAP1 PUSH2 0x24CD JUMP JUMPDEST PUSH2 0x524 JUMP JUMPDEST STOP JUMPDEST PUSH2 0x126 PUSH1 0x4 DUP1 CALLDATASIZE SUB DUP2 ADD SWAP1 PUSH2 0x121 SWAP2 SWAP1 PUSH2 0x256C JUMP JUMPDEST PUSH2 0x64B JUMP JUMPDEST PUSH1 0x40 MLOAD PUSH2 0x13E SWAP13 SWAP12 SWAP11 SWAP10 SWAP9 SWAP8 SWAP7 SWAP6 SWAP5 SWAP4 SWAP3 SWAP2 SWAP1 PUSH2 0x2625 JUMP JUMPDEST PUSH1 0x40 MLOAD DUP1 SWAP2 SUB SWAP1 RETURN JUMPDEST PUSH2 0x161 PUSH1 0x4 DUP1 CALLDATASIZE SUB DUP2 ADD SWAP1 PUSH2 0x15C SWAP2 SWAP1 PUSH2 0x273D JUMP JUMPDEST PUSH2 0x744 JUMP JUMPDEST STOP JUMPDEST PUSH2 0x16B PUSH2 0x750 JUMP JUMPDEST STOP JUMPDEST PUSH2 0x187 PUSH1 0x4 DUP1 CALLDATASIZE SUB DUP2 ADD SWAP1 PUSH2 0x182 SWAP2 SWAP1 PUSH2 0x256C JUMP JUMPDEST PUSH2 0x8B3 JUMP JUMPDEST PUSH1 0x40 MLOAD PUSH2 0x196 SWAP4 SWAP3 SWAP2 SWAP1 PUSH2 0x282D JUMP JUMPDEST PUSH1 0x40 MLOAD DUP1 SWAP2 SUB SWAP1 RETURN JUMPDEST PUSH2 0x1B9 PUSH1 0x4 DUP1 CALLDATASIZE SUB DUP2 ADD SWAP1 PUSH2 0x1B4 SWAP2 SWAP1 PUSH2 0x286B JUMP JUMPDEST PUSH2 0x972 JUMP JUMPDEST STOP JUMPDEST PUSH2 0x1C3 PUSH2 0xCDC JUMP JUMPDEST PUSH1 0x40 MLOAD PUSH2 0x1D0 SWAP2 SWAP1 PUSH2 0x2943 JUMP JUMPDEST PUSH1 0x40 MLOAD DUP1 SWAP2 SUB SWAP1 RETURN JUMPDEST PUSH2 0x1F3 PUSH1 0x4 DUP1 CALLDATASIZE SUB DUP2 ADD SWAP1 PUSH2 0x1EE SWAP2 SWAP1 PUSH2 0x298A JUMP JUMPDEST PUSH2 0xCEB JUMP JUMPDEST STOP JUMPDEST PUSH2 0x1FD PUSH2 0xF61 JUMP JUMPDEST PUSH1 0x40 MLOAD PUSH2 0x20A SWAP2 SWAP1 PUSH2 0x29FE JUMP JUMPDEST PUSH1 0x40 MLOAD DUP1 SWAP2 SUB SWAP1 RETURN JUMPDEST PUSH2 0x22D PUSH1 0x4 DUP1 CALLDATASIZE SUB DUP2 ADD SWAP1 PUSH2 0x228 SWAP2 SWAP1 PUSH2 0x2A19 JUMP JUMPDEST PUSH2 0xF67 JUMP JUMPDEST STOP JUMPDEST PUSH2 0x249 PUSH1 0x4 DUP1 CALLDATASIZE SUB DUP2 ADD SWAP1 PUSH2 0x244 SWAP2 SWAP1 PUSH2 0x2A88 JUMP JUMPDEST PUSH2 0x1083 JUMP JUMPDEST STOP JUMPDEST PUSH2 0x265 PUSH1 0x4 DUP1 CALLDATASIZE SUB DUP2 ADD SWAP1 PUSH2 0x260 SWAP2 SWAP1 PUSH2 0x256C JUMP JUMPDEST PUSH2 0x1197 JUMP JUMPDEST PUSH1 0x40 MLOAD PUSH2 0x276 SWAP6 SWAP5 SWAP4 SWAP3 SWAP2 SWAP1 PUSH2 0x2AE4 JUMP JUMPDEST PUSH1 0x40 MLOAD DUP1 SWAP2 SUB SWAP1 RETURN JUMPDEST PUSH1 0x0 PUSH2 0x293 DUP7 ADDRESS PUSH4 0xDFFE2894 PUSH1 0xE0 SHL PUSH2 0x13ED JUMP JUMPDEST SWAP1 POP PUSH2 0x314 PUSH1 0x40 MLOAD DUP1 PUSH1 0x40 ADD PUSH1 0x40 MSTORE DUP1 PUSH1 0x8 DUP2 MSTORE PUSH1 0x20 ADD PUSH32 0x656E64706F696E74000000000000000000000000000000000000000000000000 DUP2 MSTORE POP PUSH1 0x40 MLOAD DUP1 PUSH1 0x40 ADD PUSH1 0x40 MSTORE DUP1 PUSH1 0x8 DUP2 MSTORE PUSH1 0x20 ADD PUSH32 0x6C6F636174696F6E000000000000000000000000000000000000000000000000 DUP2 MSTORE POP DUP4 PUSH2 0x141E SWAP1 SWAP3 SWAP2 SWAP1 PUSH4 0xFFFFFFFF AND JUMP JUMPDEST PUSH2 0x3A2 PUSH1 0x40 MLOAD DUP1 PUSH1 0x40 ADD PUSH1 0x40 MSTORE DUP1 PUSH1 0x3 DUP2 MSTORE PUSH1 0x20 ADD PUSH32 0x6C61740000000000000000000000000000000000000000000000000000000000 DUP2 MSTORE POP DUP7 DUP7 DUP1 DUP1 PUSH1 0x1F ADD PUSH1 0x20 DUP1 SWAP2 DIV MUL PUSH1 0x20 ADD PUSH1 0x40 MLOAD SWAP1 DUP2 ADD PUSH1 0x40 MSTORE DUP1 SWAP4 SWAP3 SWAP2 SWAP1 DUP2 DUP2 MSTORE PUSH1 0x20 ADD DUP4 DUP4 DUP1 DUP3 DUP5 CALLDATACOPY PUSH1 0x0 DUP2 DUP5 ADD MSTORE PUSH1 0x1F NOT PUSH1 0x1F DUP3 ADD AND SWAP1 POP DUP1 DUP4 ADD SWAP3 POP POP POP POP POP POP POP DUP4 PUSH2 0x141E SWAP1 SWAP3 SWAP2 SWAP1 PUSH4 0xFFFFFFFF AND JUMP JUMPDEST PUSH2 0x430 PUSH1 0x40 MLOAD DUP1 PUSH1 0x40 ADD PUSH1 0x40 MSTORE DUP1 PUSH1 0x3 DUP2 MSTORE PUSH1 0x20 ADD PUSH32 0x6C6F6E0000000000000000000000000000000000000000000000000000000000 DUP2 MSTORE POP DUP5 DUP5 DUP1 DUP1 PUSH1 0x1F ADD PUSH1 0x20 DUP1 SWAP2 DIV MUL PUSH1 0x20 ADD PUSH1 0x40 MLOAD SWAP1 DUP2 ADD PUSH1 0x40 MSTORE DUP1 SWAP4 SWAP3 SWAP2 SWAP1 DUP2 DUP2 MSTORE PUSH1 0x20 ADD DUP4 DUP4 DUP1 DUP3 DUP5 CALLDATACOPY PUSH1 0x0 DUP2 DUP5 ADD MSTORE PUSH1 0x1F NOT PUSH1 0x1F DUP3 ADD AND SWAP1 POP DUP1 DUP4 ADD SWAP3 POP POP POP POP POP POP POP DUP4 PUSH2 0x141E SWAP1 SWAP3 SWAP2 SWAP1 PUSH4 0xFFFFFFFF AND JUMP JUMPDEST PUSH1 0x0 PUSH2 0x43E DUP3 PUSH1 0x9 SLOAD PUSH2 0x1451 JUMP JUMPDEST SWAP1 POP PUSH2 0x51B DUP2 PUSH1 0x0 PUSH1 0x40 MLOAD DUP1 PUSH1 0x40 ADD PUSH1 0x40 MSTORE DUP1 PUSH1 0x8 DUP2 MSTORE PUSH1 0x20 ADD PUSH32 0x6C6F636174696F6E000000000000000000000000000000000000000000000000 DUP2 MSTORE POP DUP10 DUP10 DUP1 DUP1 PUSH1 0x1F ADD PUSH1 0x20 DUP1 SWAP2 DIV MUL PUSH1 0x20 ADD PUSH1 0x40 MLOAD SWAP1 DUP2 ADD PUSH1 0x40 MSTORE DUP1 SWAP4 SWAP3 SWAP2 SWAP1 DUP2 DUP2 MSTORE PUSH1 0x20 ADD DUP4 DUP4 DUP1 DUP3 DUP5 CALLDATACOPY PUSH1 0x0 DUP2 DUP5 ADD MSTORE PUSH1 0x1F NOT PUSH1 0x1F DUP3 ADD AND SWAP1 POP DUP1 DUP4 ADD SWAP3 POP POP POP POP POP POP POP DUP9 DUP9 DUP1 DUP1 PUSH1 0x1F ADD PUSH1 0x20 DUP1 SWAP2 DIV MUL PUSH1 0x20 ADD PUSH1 0x40 MLOAD SWAP1 DUP2 ADD PUSH1 0x40 MSTORE DUP1 SWAP4 SWAP3 SWAP2 SWAP1 DUP2 DUP2 MSTORE PUSH1 0x20 ADD DUP4 DUP4 DUP1 DUP3 DUP5 CALLDATACOPY PUSH1 0x0 DUP2 DUP5 ADD MSTORE PUSH1 0x1F NOT PUSH1 0x1F DUP3 ADD AND SWAP1 POP DUP1 DUP4 ADD SWAP3 POP POP POP POP POP POP POP PUSH1 0x40 MLOAD DUP1 PUSH1 0x20 ADD PUSH1 0x40 MSTORE DUP1 PUSH1 0x0 DUP2 MSTORE POP PUSH2 0x1488 JUMP JUMPDEST POP POP POP POP POP POP POP JUMP JUMPDEST DUP4 PUSH1 0x5 PUSH1 0x0 DUP3 DUP2 MSTORE PUSH1 0x20 ADD SWAP1 DUP2 MSTORE PUSH1 0x20 ADD PUSH1 0x0 KECCAK256 PUSH1 0x0 SWAP1 SLOAD SWAP1 PUSH2 0x100 EXP SWAP1 DIV PUSH20 0xFFFFFFFFFFFFFFFFFFFFFFFFFFFFFFFFFFFFFFFF AND PUSH20 0xFFFFFFFFFFFFFFFFFFFFFFFFFFFFFFFFFFFFFFFF AND CALLER PUSH20 0xFFFFFFFFFFFFFFFFFFFFFFFFFFFFFFFFFFFFFFFF AND EQ PUSH2 0x5C6 JUMPI PUSH1 0x40 MLOAD PUSH32 0x8C379A000000000000000000000000000000000000000000000000000000000 DUP2 MSTORE PUSH1 0x4 ADD PUSH2 0x5BD SWAP1 PUSH2 0x2BC5 JUMP JUMPDEST PUSH1 0x40 MLOAD DUP1 SWAP2 SUB SWAP1 REVERT JUMPDEST PUSH1 0x5 PUSH1 0x0 DUP3 DUP2 MSTORE PUSH1 0x20 ADD SWAP1 DUP2 MSTORE PUSH1 0x20 ADD PUSH1 0x0 KECCAK256 PUSH1 0x0 PUSH2 0x100 EXP DUP2 SLOAD SWAP1 PUSH20 0xFFFFFFFFFFFFFFFFFFFFFFFFFFFFFFFFFFFFFFFF MUL NOT AND SWAP1 SSTORE DUP1 PUSH32 0x7CC135E0CEBB02C3480AE5D74D377283180A2601F8F644EDF7987B009316C63A PUSH1 0x40 MLOAD PUSH1 0x40 MLOAD DUP1 SWAP2 SUB SWAP1 LOG2 DUP4 ISZERO PUSH2 0x644 JUMPI PUSH2 0x639 DUP6 DUP5 PUSH2 0x155C JUMP JUMPDEST PUSH2 0x643 DUP6 DUP4 PUSH2 0x15D9 JUMP JUMPDEST JUMPDEST POP POP POP POP POP JUMP JUMPDEST PUSH1 0x6 PUSH1 0x20 MSTORE DUP1 PUSH1 0x0 MSTORE PUSH1 0x40 PUSH1 0x0 KECCAK256 PUSH1 0x0 SWAP2 POP SWAP1 POP DUP1 PUSH1 0x0 ADD SLOAD SWAP1 DUP1 PUSH1 0x1 ADD PUSH1 0x0 SWAP1 SLOAD SWAP1 PUSH2 0x100 EXP SWAP1 DIV PUSH3 0xFFFFFF AND SWAP1 DUP1 PUSH1 0x1 ADD PUSH1 0x3 SWAP1 SLOAD SWAP1 PUSH2 0x100 EXP SWAP1 DIV PUSH3 0xFFFFFF AND SWAP1 DUP1 PUSH1 0x1 ADD PUSH1 0x6 SWAP1 SLOAD SWAP1 PUSH2 0x100 EXP SWAP1 DIV PUSH3 0xFFFFFF AND SWAP1 DUP1 PUSH1 0x1 ADD PUSH1 0x9 SWAP1 SLOAD SWAP1 PUSH2 0x100 EXP SWAP1 DIV PUSH3 0xFFFFFF AND SWAP1 DUP1 PUSH1 0x1 ADD PUSH1 0xC SWAP1 SLOAD SWAP1 PUSH2 0x100 EXP SWAP1 DIV PUSH1 0x1 SIGNEXTEND SWAP1 DUP1 PUSH1 0x1 ADD PUSH1 0xE SWAP1 SLOAD SWAP1 PUSH2 0x100 EXP SWAP1 DIV PUSH2 0xFFFF AND SWAP1 DUP1 PUSH1 0x1 ADD PUSH1 0x10 SWAP1 SLOAD SWAP1 PUSH2 0x100 EXP SWAP1 DIV PUSH2 0xFFFF AND SWAP1 DUP1 PUSH1 0x1 ADD PUSH1 0x12 SWAP1 SLOAD SWAP1 PUSH2 0x100 EXP SWAP1 DIV PUSH1 0xFF AND SWAP1 DUP1 PUSH1 0x1 ADD PUSH1 0x13 SWAP1 SLOAD SWAP1 PUSH2 0x100 EXP SWAP1 DIV PUSH1 0xFF AND SWAP1 DUP1 PUSH1 0x1 ADD PUSH1 0x14 SWAP1 SLOAD SWAP1 PUSH2 0x100 EXP SWAP1 DIV PUSH1 0xFF AND SWAP1 DUP1 PUSH1 0x1 ADD PUSH1 0x15 SWAP1 SLOAD SWAP1 PUSH2 0x100 EXP SWAP1 DIV PUSH1 0xFF AND SWAP1 POP DUP13 JUMP JUMPDEST PUSH2 0x74D DUP2 PUSH2 0x179F JUMP JUMPDEST POP JUMP JUMPDEST PUSH1 0x0 PUSH2 0x75A PUSH2 0x17E3 JUMP JUMPDEST SWAP1 POP DUP1 PUSH20 0xFFFFFFFFFFFFFFFFFFFFFFFFFFFFFFFFFFFFFFFF AND PUSH4 0xA9059CBB CALLER DUP4 PUSH20 0xFFFFFFFFFFFFFFFFFFFFFFFFFFFFFFFFFFFFFFFF AND PUSH4 0x70A08231 ADDRESS PUSH1 0x40 MLOAD DUP3 PUSH4 0xFFFFFFFF AND PUSH1 0xE0 SHL DUP2 MSTORE PUSH1 0x4 ADD PUSH2 0x7B2 SWAP2 SWAP1 PUSH2 0x2943 JUMP JUMPDEST PUSH1 0x20 PUSH1 0x40 MLOAD DUP1 DUP4 SUB DUP2 DUP7 DUP1 EXTCODESIZE ISZERO DUP1 ISZERO PUSH2 0x7CA JUMPI PUSH1 0x0 DUP1 REVERT JUMPDEST POP GAS STATICCALL ISZERO DUP1 ISZERO PUSH2 0x7DE JUMPI RETURNDATASIZE PUSH1 0x0 DUP1 RETURNDATACOPY RETURNDATASIZE PUSH1 0x0 REVERT JUMPDEST POP POP POP POP PUSH1 0x40 MLOAD RETURNDATASIZE PUSH1 0x1F NOT PUSH1 0x1F DUP3 ADD AND DUP3 ADD DUP1 PUSH1 0x40 MSTORE POP DUP2 ADD SWAP1 PUSH2 0x802 SWAP2 SWAP1 PUSH2 0x2BFA JUMP JUMPDEST PUSH1 0x40 MLOAD DUP4 PUSH4 0xFFFFFFFF AND PUSH1 0xE0 SHL DUP2 MSTORE PUSH1 0x4 ADD PUSH2 0x81F SWAP3 SWAP2 SWAP1 PUSH2 0x2C27 JUMP JUMPDEST PUSH1 0x20 PUSH1 0x40 MLOAD DUP1 DUP4 SUB DUP2 PUSH1 0x0 DUP8 DUP1 EXTCODESIZE ISZERO DUP1 ISZERO PUSH2 0x839 JUMPI PUSH1 0x0 DUP1 REVERT JUMPDEST POP GAS CALL ISZERO DUP1 ISZERO PUSH2 0x84D JUMPI RETURNDATASIZE PUSH1 0x0 DUP1 RETURNDATACOPY RETURNDATASIZE PUSH1 0x0 REVERT JUMPDEST POP POP POP POP PUSH1 0x40 MLOAD RETURNDATASIZE PUSH1 0x1F NOT PUSH1 0x1F DUP3 ADD AND DUP3 ADD DUP1 PUSH1 0x40 MSTORE POP DUP2 ADD SWAP1 PUSH2 0x871 SWAP2 SWAP1 PUSH2 0x2C65 JUMP JUMPDEST PUSH2 0x8B0 JUMPI PUSH1 0x40 MLOAD PUSH32 0x8C379A000000000000000000000000000000000000000000000000000000000 DUP2 MSTORE PUSH1 0x4 ADD PUSH2 0x8A7 SWAP1 PUSH2 0x2CDE JUMP JUMPDEST PUSH1 0x40 MLOAD DUP1 SWAP2 SUB SWAP1 REVERT JUMPDEST POP JUMP JUMPDEST PUSH1 0x7 PUSH1 0x20 MSTORE DUP1 PUSH1 0x0 MSTORE PUSH1 0x40 PUSH1 0x0 KECCAK256 PUSH1 0x0 SWAP2 POP SWAP1 POP DUP1 PUSH1 0x0 ADD SLOAD SWAP1 DUP1 PUSH1 0x1 ADD DUP1 SLOAD PUSH2 0x8DC SWAP1 PUSH2 0x2D2D JUMP JUMPDEST DUP1 PUSH1 0x1F ADD PUSH1 0x20 DUP1 SWAP2 DIV MUL PUSH1 0x20 ADD PUSH1 0x40 MLOAD SWAP1 DUP2 ADD PUSH1 0x40 MSTORE DUP1 SWAP3 SWAP2 SWAP1 DUP2 DUP2 MSTORE PUSH1 0x20 ADD DUP3 DUP1 SLOAD PUSH2 0x908 SWAP1 PUSH2 0x2D2D JUMP JUMPDEST DUP1 ISZERO PUSH2 0x955 JUMPI DUP1 PUSH1 0x1F LT PUSH2 0x92A JUMPI PUSH2 0x100 DUP1 DUP4 SLOAD DIV MUL DUP4 MSTORE SWAP2 PUSH1 0x20 ADD SWAP2 PUSH2 0x955 JUMP JUMPDEST DUP3 ADD SWAP2 SWAP1 PUSH1 0x0 MSTORE PUSH1 0x20 PUSH1 0x0 KECCAK256 SWAP1 JUMPDEST DUP2 SLOAD DUP2 MSTORE SWAP1 PUSH1 0x1 ADD SWAP1 PUSH1 0x20 ADD DUP1 DUP4 GT PUSH2 0x938 JUMPI DUP3 SWAP1 SUB PUSH1 0x1F AND DUP3 ADD SWAP2 JUMPDEST POP POP POP POP POP SWAP1 DUP1 PUSH1 0x2 ADD PUSH1 0x0 SWAP1 SLOAD SWAP1 PUSH2 0x100 EXP SWAP1 DIV PUSH1 0xF0 SHL SWAP1 POP DUP4 JUMP JUMPDEST PUSH1 0x0 PUSH2 0x986 DUP9 ADDRESS PUSH4 0x371EACED PUSH1 0xE0 SHL PUSH2 0x13ED JUMP JUMPDEST SWAP1 POP PUSH2 0xA07 PUSH1 0x40 MLOAD DUP1 PUSH1 0x40 ADD PUSH1 0x40 MSTORE DUP1 PUSH1 0x8 DUP2 MSTORE PUSH1 0x20 ADD PUSH32 0x656E64706F696E74000000000000000000000000000000000000000000000000 DUP2 MSTORE POP PUSH1 0x40 MLOAD DUP1 PUSH1 0x40 ADD PUSH1 0x40 MSTORE DUP1 PUSH1 0x1B DUP2 MSTORE PUSH1 0x20 ADD PUSH32 0x6C6F636174696F6E2D63757272656E742D636F6E646974696F6E730000000000 DUP2 MSTORE POP DUP4 PUSH2 0x141E SWAP1 SWAP3 SWAP2 SWAP1 PUSH4 0xFFFFFFFF AND JUMP JUMPDEST PUSH2 0xA95 PUSH1 0x40 MLOAD DUP1 PUSH1 0x40 ADD PUSH1 0x40 MSTORE DUP1 PUSH1 0x3 DUP2 MSTORE PUSH1 0x20 ADD PUSH32 0x6C61740000000000000000000000000000000000000000000000000000000000 DUP2 MSTORE POP DUP9 DUP9 DUP1 DUP1 PUSH1 0x1F ADD PUSH1 0x20 DUP1 SWAP2 DIV MUL PUSH1 0x20 ADD PUSH1 0x40 MLOAD SWAP1 DUP2 ADD PUSH1 0x40 MSTORE DUP1 SWAP4 SWAP3 SWAP2 SWAP1 DUP2 DUP2 MSTORE PUSH1 0x20 ADD DUP4 DUP4 DUP1 DUP3 DUP5 CALLDATACOPY PUSH1 0x0 DUP2 DUP5 ADD MSTORE PUSH1 0x1F NOT PUSH1 0x1F DUP3 ADD AND SWAP1 POP DUP1 DUP4 ADD SWAP3 POP POP POP POP POP POP POP DUP4 PUSH2 0x141E SWAP1 SWAP3 SWAP2 SWAP1 PUSH4 0xFFFFFFFF AND JUMP JUMPDEST PUSH2 0xB23 PUSH1 0x40 MLOAD DUP1 PUSH1 0x40 ADD PUSH1 0x40 MSTORE DUP1 PUSH1 0x3 DUP2 MSTORE PUSH1 0x20 ADD PUSH32 0x6C6F6E0000000000000000000000000000000000000000000000000000000000 DUP2 MSTORE POP DUP7 DUP7 DUP1 DUP1 PUSH1 0x1F ADD PUSH1 0x20 DUP1 SWAP2 DIV MUL PUSH1 0x20 ADD PUSH1 0x40 MLOAD SWAP1 DUP2 ADD PUSH1 0x40 MSTORE DUP1 SWAP4 SWAP3 SWAP2 SWAP1 DUP2 DUP2 MSTORE PUSH1 0x20 ADD DUP4 DUP4 DUP1 DUP3 DUP5 CALLDATACOPY PUSH1 0x0 DUP2 DUP5 ADD MSTORE PUSH1 0x1F NOT PUSH1 0x1F DUP3 ADD AND SWAP1 POP DUP1 DUP4 ADD SWAP3 POP POP POP POP POP POP POP DUP4 PUSH2 0x141E SWAP1 SWAP3 SWAP2 SWAP1 PUSH4 0xFFFFFFFF AND JUMP JUMPDEST PUSH2 0xBB1 PUSH1 0x40 MLOAD DUP1 PUSH1 0x40 ADD PUSH1 0x40 MSTORE DUP1 PUSH1 0x5 DUP2 MSTORE PUSH1 0x20 ADD PUSH32 0x756E697473000000000000000000000000000000000000000000000000000000 DUP2 MSTORE POP DUP5 DUP5 DUP1 DUP1 PUSH1 0x1F ADD PUSH1 0x20 DUP1 SWAP2 DIV MUL PUSH1 0x20 ADD PUSH1 0x40 MLOAD SWAP1 DUP2 ADD PUSH1 0x40 MSTORE DUP1 SWAP4 SWAP3 SWAP2 SWAP1 DUP2 DUP2 MSTORE PUSH1 0x20 ADD DUP4 DUP4 DUP1 DUP3 DUP5 CALLDATACOPY PUSH1 0x0 DUP2 DUP5 ADD MSTORE PUSH1 0x1F NOT PUSH1 0x1F DUP3 ADD AND SWAP1 POP DUP1 DUP4 ADD SWAP3 POP POP POP POP POP POP POP DUP4 PUSH2 0x141E SWAP1 SWAP3 SWAP2 SWAP1 PUSH4 0xFFFFFFFF AND JUMP JUMPDEST PUSH1 0x0 PUSH2 0xBBF DUP3 PUSH1 0x9 SLOAD PUSH2 0x1451 JUMP JUMPDEST SWAP1 POP PUSH2 0xCD1 DUP2 PUSH1 0x0 PUSH1 0x40 MLOAD DUP1 PUSH1 0x40 ADD PUSH1 0x40 MSTORE DUP1 PUSH1 0x1B DUP2 MSTORE PUSH1 0x20 ADD PUSH32 0x6C6F636174696F6E2D63757272656E742D636F6E646974696F6E730000000000 DUP2 MSTORE POP DUP12 DUP12 DUP1 DUP1 PUSH1 0x1F ADD PUSH1 0x20 DUP1 SWAP2 DIV MUL PUSH1 0x20 ADD PUSH1 0x40 MLOAD SWAP1 DUP2 ADD PUSH1 0x40 MSTORE DUP1 SWAP4 SWAP3 SWAP2 SWAP1 DUP2 DUP2 MSTORE PUSH1 0x20 ADD DUP4 DUP4 DUP1 DUP3 DUP5 CALLDATACOPY PUSH1 0x0 DUP2 DUP5 ADD MSTORE PUSH1 0x1F NOT PUSH1 0x1F DUP3 ADD AND SWAP1 POP DUP1 DUP4 ADD SWAP3 POP POP POP POP POP POP POP DUP11 DUP11 DUP1 DUP1 PUSH1 0x1F ADD PUSH1 0x20 DUP1 SWAP2 DIV MUL PUSH1 0x20 ADD PUSH1 0x40 MLOAD SWAP1 DUP2 ADD PUSH1 0x40 MSTORE DUP1 SWAP4 SWAP3 SWAP2 SWAP1 DUP2 DUP2 MSTORE PUSH1 0x20 ADD DUP4 DUP4 DUP1 DUP3 DUP5 CALLDATACOPY PUSH1 0x0 DUP2 DUP5 ADD MSTORE PUSH1 0x1F NOT PUSH1 0x1F DUP3 ADD AND SWAP1 POP DUP1 DUP4 ADD SWAP3 POP POP POP POP POP POP POP DUP10 DUP10 DUP1 DUP1 PUSH1 0x1F ADD PUSH1 0x20 DUP1 SWAP2 DIV MUL PUSH1 0x20 ADD PUSH1 0x40 MLOAD SWAP1 DUP2 ADD PUSH1 0x40 MSTORE DUP1 SWAP4 SWAP3 SWAP2 SWAP1 DUP2 DUP2 MSTORE PUSH1 0x20 ADD DUP4 DUP4 DUP1 DUP3 DUP5 CALLDATACOPY PUSH1 0x0 DUP2 DUP5 ADD MSTORE PUSH1 0x1F NOT PUSH1 0x1F DUP3 ADD AND SWAP1 POP DUP1 DUP4 ADD SWAP3 POP POP POP POP POP POP POP PUSH2 0x1488 JUMP JUMPDEST POP POP POP POP POP POP POP POP POP JUMP JUMPDEST PUSH1 0x0 PUSH2 0xCE6 PUSH2 0x180D JUMP JUMPDEST SWAP1 POP SWAP1 JUMP JUMPDEST PUSH1 0x0 PUSH2 0xCFF DUP6 ADDRESS PUSH4 0xE13CAA63 PUSH1 0xE0 SHL PUSH2 0x13ED JUMP JUMPDEST SWAP1 POP PUSH2 0xD80 PUSH1 0x40 MLOAD DUP1 PUSH1 0x40 ADD PUSH1 0x40 MSTORE DUP1 PUSH1 0x8 DUP2 MSTORE PUSH1 0x20 ADD PUSH32 0x656E64706F696E74000000000000000000000000000000000000000000000000 DUP2 MSTORE POP PUSH1 0x40 MLOAD DUP1 PUSH1 0x40 ADD PUSH1 0x40 MSTORE DUP1 PUSH1 0x12 DUP2 MSTORE PUSH1 0x20 ADD PUSH32 0x63757272656E742D636F6E646974696F6E730000000000000000000000000000 DUP2 MSTORE POP DUP4 PUSH2 0x141E SWAP1 SWAP3 SWAP2 SWAP1 PUSH4 0xFFFFFFFF AND JUMP JUMPDEST PUSH2 0xDCA PUSH1 0x40 MLOAD DUP1 PUSH1 0x40 ADD PUSH1 0x40 MSTORE DUP1 PUSH1 0xB DUP2 MSTORE PUSH1 0x20 ADD PUSH32 0x6C6F636174696F6E4B6579000000000000000000000000000000000000000000 DUP2 MSTORE POP DUP6 DUP4 PUSH2 0x1837 SWAP1 SWAP3 SWAP2 SWAP1 PUSH4 0xFFFFFFFF AND JUMP JUMPDEST PUSH2 0xE58 PUSH1 0x40 MLOAD DUP1 PUSH1 0x40 ADD PUSH1 0x40 MSTORE DUP1 PUSH1 0x5 DUP2 MSTORE PUSH1 0x20 ADD PUSH32 0x756E697473000000000000000000000000000000000000000000000000000000 DUP2 MSTORE POP DUP5 DUP5 DUP1 DUP1 PUSH1 0x1F ADD PUSH1 0x20 DUP1 SWAP2 DIV MUL PUSH1 0x20 ADD PUSH1 0x40 MLOAD SWAP1 DUP2 ADD PUSH1 0x40 MSTORE DUP1 SWAP4 SWAP3 SWAP2 SWAP1 DUP2 DUP2 MSTORE PUSH1 0x20 ADD DUP4 DUP4 DUP1 DUP3 DUP5 CALLDATACOPY PUSH1 0x0 DUP2 DUP5 ADD MSTORE PUSH1 0x1F NOT PUSH1 0x1F DUP3 ADD AND SWAP1 POP DUP1 DUP4 ADD SWAP3 POP POP POP POP POP POP POP DUP4 PUSH2 0x141E SWAP1 SWAP3 SWAP2 SWAP1 PUSH4 0xFFFFFFFF AND JUMP JUMPDEST PUSH1 0x0 PUSH2 0xE66 DUP3 PUSH1 0x9 SLOAD PUSH2 0x1451 JUMP JUMPDEST SWAP1 POP PUSH2 0xF59 DUP2 DUP7 PUSH1 0x40 MLOAD DUP1 PUSH1 0x40 ADD PUSH1 0x40 MSTORE DUP1 PUSH1 0x12 DUP2 MSTORE PUSH1 0x20 ADD PUSH32 0x63757272656E742D636F6E646974696F6E730000000000000000000000000000 DUP2 MSTORE POP PUSH1 0x40 MLOAD DUP1 PUSH1 0x40 ADD PUSH1 0x40 MSTORE DUP1 PUSH1 0x1 DUP2 MSTORE PUSH1 0x20 ADD PUSH32 0x3000000000000000000000000000000000000000000000000000000000000000 DUP2 MSTORE POP PUSH1 0x40 MLOAD DUP1 PUSH1 0x40 ADD PUSH1 0x40 MSTORE DUP1 PUSH1 0x1 DUP2 MSTORE PUSH1 0x20 ADD PUSH32 0x3000000000000000000000000000000000000000000000000000000000000000 DUP2 MSTORE POP DUP10 DUP10 DUP1 DUP1 PUSH1 0x1F ADD PUSH1 0x20 DUP1 SWAP2 DIV MUL PUSH1 0x20 ADD PUSH1 0x40 MLOAD SWAP1 DUP2 ADD PUSH1 0x40 MSTORE DUP1 SWAP4 SWAP3 SWAP2 SWAP1 DUP2 DUP2 MSTORE PUSH1 0x20 ADD DUP4 DUP4 DUP1 DUP3 DUP5 CALLDATACOPY PUSH1 0x0 DUP2 DUP5 ADD MSTORE PUSH1 0x1F NOT PUSH1 0x1F DUP3 ADD AND SWAP1 POP DUP1 DUP4 ADD SWAP3 POP POP POP POP POP POP POP PUSH2 0x1488 JUMP JUMPDEST POP POP POP POP POP POP JUMP JUMPDEST PUSH1 0x9 SLOAD DUP2 JUMP JUMPDEST DUP3 PUSH1 0x5 PUSH1 0x0 DUP3 DUP2 MSTORE PUSH1 0x20 ADD SWAP1 DUP2 MSTORE PUSH1 0x20 ADD PUSH1 0x0 KECCAK256 PUSH1 0x0 SWAP1 SLOAD SWAP1 PUSH2 0x100 EXP SWAP1 DIV PUSH20 0xFFFFFFFFFFFFFFFFFFFFFFFFFFFFFFFFFFFFFFFF AND PUSH20 0xFFFFFFFFFFFFFFFFFFFFFFFFFFFFFFFFFFFFFFFF AND CALLER PUSH20 0xFFFFFFFFFFFFFFFFFFFFFFFFFFFFFFFFFFFFFFFF AND EQ PUSH2 0x1009 JUMPI PUSH1 0x40 MLOAD PUSH32 0x8C379A000000000000000000000000000000000000000000000000000000000 DUP2 MSTORE PUSH1 0x4 ADD PUSH2 0x1000 SWAP1 PUSH2 0x2BC5 JUMP JUMPDEST PUSH1 0x40 MLOAD DUP1 SWAP2 SUB SWAP1 REVERT JUMPDEST PUSH1 0x5 PUSH1 0x0 DUP3 DUP2 MSTORE PUSH1 0x20 ADD SWAP1 DUP2 MSTORE PUSH1 0x20 ADD PUSH1 0x0 KECCAK256 PUSH1 0x0 PUSH2 0x100 EXP DUP2 SLOAD SWAP1 PUSH20 0xFFFFFFFFFFFFFFFFFFFFFFFFFFFFFFFFFFFFFFFF MUL NOT AND SWAP1 SSTORE DUP1 PUSH32 0x7CC135E0CEBB02C3480AE5D74D377283180A2601F8F644EDF7987B009316C63A PUSH1 0x40 MLOAD PUSH1 0x40 MLOAD DUP1 SWAP2 SUB SWAP1 LOG2 DUP3 ISZERO PUSH2 0x107D JUMPI PUSH2 0x107C DUP5 DUP4 PUSH2 0x155C JUMP JUMPDEST JUMPDEST POP POP POP POP JUMP JUMPDEST DUP2 PUSH1 0x5 PUSH1 0x0 DUP3 DUP2 MSTORE PUSH1 0x20 ADD SWAP1 DUP2 MSTORE PUSH1 0x20 ADD PUSH1 0x0 KECCAK256 PUSH1 0x0 SWAP1 SLOAD SWAP1 PUSH2 0x100 EXP SWAP1 DIV PUSH20 0xFFFFFFFFFFFFFFFFFFFFFFFFFFFFFFFFFFFFFFFF AND PUSH20 0xFFFFFFFFFFFFFFFFFFFFFFFFFFFFFFFFFFFFFFFF AND CALLER PUSH20 0xFFFFFFFFFFFFFFFFFFFFFFFFFFFFFFFFFFFFFFFF AND EQ PUSH2 0x1125 JUMPI PUSH1 0x40 MLOAD PUSH32 0x8C379A000000000000000000000000000000000000000000000000000000000 DUP2 MSTORE PUSH1 0x4 ADD PUSH2 0x111C SWAP1 PUSH2 0x2BC5 JUMP JUMPDEST PUSH1 0x40 MLOAD DUP1 SWAP2 SUB SWAP1 REVERT JUMPDEST PUSH1 0x5 PUSH1 0x0 DUP3 DUP2 MSTORE PUSH1 0x20 ADD SWAP1 DUP2 MSTORE PUSH1 0x20 ADD PUSH1 0x0 KECCAK256 PUSH1 0x0 PUSH2 0x100 EXP DUP2 SLOAD SWAP1 PUSH20 0xFFFFFFFFFFFFFFFFFFFFFFFFFFFFFFFFFFFFFFFF MUL NOT AND SWAP1 SSTORE DUP1 PUSH32 0x7CC135E0CEBB02C3480AE5D74D377283180A2601F8F644EDF7987B009316C63A PUSH1 0x40 MLOAD PUSH1 0x40 MLOAD DUP1 SWAP2 SUB SWAP1 LOG2 PUSH2 0x1192 DUP4 DUP4 PUSH2 0x15D9 JUMP JUMPDEST POP POP POP JUMP JUMPDEST PUSH1 0x8 PUSH1 0x20 MSTORE DUP1 PUSH1 0x0 MSTORE PUSH1 0x40 PUSH1 0x0 KECCAK256 PUSH1 0x0 SWAP2 POP SWAP1 POP DUP1 PUSH1 0x0 ADD SLOAD SWAP1 DUP1 PUSH1 0x1 ADD DUP1 SLOAD PUSH2 0x11C0 SWAP1 PUSH2 0x2D2D JUMP JUMPDEST DUP1 PUSH1 0x1F ADD PUSH1 0x20 DUP1 SWAP2 DIV MUL PUSH1 0x20 ADD PUSH1 0x40 MLOAD SWAP1 DUP2 ADD PUSH1 0x40 MSTORE DUP1 SWAP3 SWAP2 SWAP1 DUP2 DUP2 MSTORE PUSH1 0x20 ADD DUP3 DUP1 SLOAD PUSH2 0x11EC SWAP1 PUSH2 0x2D2D JUMP JUMPDEST DUP1 ISZERO PUSH2 0x1239 JUMPI DUP1 PUSH1 0x1F LT PUSH2 0x120E JUMPI PUSH2 0x100 DUP1 DUP4 SLOAD DIV MUL DUP4 MSTORE SWAP2 PUSH1 0x20 ADD SWAP2 PUSH2 0x1239 JUMP JUMPDEST DUP3 ADD SWAP2 SWAP1 PUSH1 0x0 MSTORE PUSH1 0x20 PUSH1 0x0 KECCAK256 SWAP1 JUMPDEST DUP2 SLOAD DUP2 MSTORE SWAP1 PUSH1 0x1 ADD SWAP1 PUSH1 0x20 ADD DUP1 DUP4 GT PUSH2 0x121C JUMPI DUP3 SWAP1 SUB PUSH1 0x1F AND DUP3 ADD SWAP2 JUMPDEST POP POP POP POP POP SWAP1 DUP1 PUSH1 0x2 ADD DUP1 SLOAD PUSH2 0x124E SWAP1 PUSH2 0x2D2D JUMP JUMPDEST DUP1 PUSH1 0x1F ADD PUSH1 0x20 DUP1 SWAP2 DIV MUL PUSH1 0x20 ADD PUSH1 0x40 MLOAD SWAP1 DUP2 ADD PUSH1 0x40 MSTORE DUP1 SWAP3 SWAP2 SWAP1 DUP2 DUP2 MSTORE PUSH1 0x20 ADD DUP3 DUP1 SLOAD PUSH2 0x127A SWAP1 PUSH2 0x2D2D JUMP JUMPDEST DUP1 ISZERO PUSH2 0x12C7 JUMPI DUP1 PUSH1 0x1F LT PUSH2 0x129C JUMPI PUSH2 0x100 DUP1 DUP4 SLOAD DIV MUL DUP4 MSTORE SWAP2 PUSH1 0x20 ADD SWAP2 PUSH2 0x12C7 JUMP JUMPDEST DUP3 ADD SWAP2 SWAP1 PUSH1 0x0 MSTORE PUSH1 0x20 PUSH1 0x0 KECCAK256 SWAP1 JUMPDEST DUP2 SLOAD DUP2 MSTORE SWAP1 PUSH1 0x1 ADD SWAP1 PUSH1 0x20 ADD DUP1 DUP4 GT PUSH2 0x12AA JUMPI DUP3 SWAP1 SUB PUSH1 0x1F AND DUP3 ADD SWAP2 JUMPDEST POP POP POP POP POP SWAP1 DUP1 PUSH1 0x3 ADD DUP1 SLOAD PUSH2 0x12DC SWAP1 PUSH2 0x2D2D JUMP JUMPDEST DUP1 PUSH1 0x1F ADD PUSH1 0x20 DUP1 SWAP2 DIV MUL PUSH1 0x20 ADD PUSH1 0x40 MLOAD SWAP1 DUP2 ADD PUSH1 0x40 MSTORE DUP1 SWAP3 SWAP2 SWAP1 DUP2 DUP2 MSTORE PUSH1 0x20 ADD DUP3 DUP1 SLOAD PUSH2 0x1308 SWAP1 PUSH2 0x2D2D JUMP JUMPDEST DUP1 ISZERO PUSH2 0x1355 JUMPI DUP1 PUSH1 0x1F LT PUSH2 0x132A JUMPI PUSH2 0x100 DUP1 DUP4 SLOAD DIV MUL DUP4 MSTORE SWAP2 PUSH1 0x20 ADD SWAP2 PUSH2 0x1355 JUMP JUMPDEST DUP3 ADD SWAP2 SWAP1 PUSH1 0x0 MSTORE PUSH1 0x20 PUSH1 0x0 KECCAK256 SWAP1 JUMPDEST DUP2 SLOAD DUP2 MSTORE SWAP1 PUSH1 0x1 ADD SWAP1 PUSH1 0x20 ADD DUP1 DUP4 GT PUSH2 0x1338 JUMPI DUP3 SWAP1 SUB PUSH1 0x1F AND DUP3 ADD SWAP2 JUMPDEST POP POP POP POP POP SWAP1 DUP1 PUSH1 0x4 ADD DUP1 SLOAD PUSH2 0x136A SWAP1 PUSH2 0x2D2D JUMP JUMPDEST DUP1 PUSH1 0x1F ADD PUSH1 0x20 DUP1 SWAP2 DIV MUL PUSH1 0x20 ADD PUSH1 0x40 MLOAD SWAP1 DUP2 ADD PUSH1 0x40 MSTORE DUP1 SWAP3 SWAP2 SWAP1 DUP2 DUP2 MSTORE PUSH1 0x20 ADD DUP3 DUP1 SLOAD PUSH2 0x1396 SWAP1 PUSH2 0x2D2D JUMP JUMPDEST DUP1 ISZERO PUSH2 0x13E3 JUMPI DUP1 PUSH1 0x1F LT PUSH2 0x13B8 JUMPI PUSH2 0x100 DUP1 DUP4 SLOAD DIV MUL DUP4 MSTORE SWAP2 PUSH1 0x20 ADD SWAP2 PUSH2 0x13E3 JUMP JUMPDEST DUP3 ADD SWAP2 SWAP1 PUSH1 0x0 MSTORE PUSH1 0x20 PUSH1 0x0 KECCAK256 SWAP1 JUMPDEST DUP2 SLOAD DUP2 MSTORE SWAP1 PUSH1 0x1 ADD SWAP1 PUSH1 0x20 ADD DUP1 DUP4 GT PUSH2 0x13C6 JUMPI DUP3 SWAP1 SUB PUSH1 0x1F AND DUP3 ADD SWAP2 JUMPDEST POP POP POP POP POP SWAP1 POP DUP6 JUMP JUMPDEST PUSH2 0x13F5 PUSH2 0x20B7 JUMP JUMPDEST PUSH2 0x13FD PUSH2 0x20B7 JUMP JUMPDEST PUSH2 0x1414 DUP6 DUP6 DUP6 DUP5 PUSH2 0x186A SWAP1 SWAP4 SWAP3 SWAP2 SWAP1 PUSH4 0xFFFFFFFF AND JUMP JUMPDEST SWAP2 POP POP SWAP4 SWAP3 POP POP POP JUMP JUMPDEST PUSH2 0x1435 DUP3 DUP5 PUSH1 0x80 ADD MLOAD PUSH2 0x191A SWAP1 SWAP2 SWAP1 PUSH4 0xFFFFFFFF AND JUMP JUMPDEST PUSH2 0x144C DUP2 DUP5 PUSH1 0x80 ADD MLOAD PUSH2 0x191A SWAP1 SWAP2 SWAP1 PUSH4 0xFFFFFFFF AND JUMP JUMPDEST POP POP POP JUMP JUMPDEST PUSH1 0x0 PUSH2 0x1480 PUSH1 0x3 PUSH1 0x0 SWAP1 SLOAD SWAP1 PUSH2 0x100 EXP SWAP1 DIV PUSH20 0xFFFFFFFFFFFFFFFFFFFFFFFFFFFFFFFFFFFFFFFF AND DUP5 DUP5 PUSH2 0x193F JUMP JUMPDEST SWAP1 POP SWAP3 SWAP2 POP POP JUMP JUMPDEST PUSH2 0x1490 PUSH2 0x2124 JUMP JUMPDEST DUP6 DUP2 PUSH1 0x0 ADD DUP2 DUP2 MSTORE POP POP DUP5 DUP2 PUSH1 0x20 ADD DUP2 SWAP1 MSTORE POP DUP4 DUP2 PUSH1 0x40 ADD DUP2 SWAP1 MSTORE POP DUP3 DUP2 PUSH1 0x60 ADD DUP2 SWAP1 MSTORE POP DUP2 DUP2 PUSH1 0x80 ADD DUP2 SWAP1 MSTORE POP DUP1 PUSH1 0x8 PUSH1 0x0 DUP10 DUP2 MSTORE PUSH1 0x20 ADD SWAP1 DUP2 MSTORE PUSH1 0x20 ADD PUSH1 0x0 KECCAK256 PUSH1 0x0 DUP3 ADD MLOAD DUP2 PUSH1 0x0 ADD SSTORE PUSH1 0x20 DUP3 ADD MLOAD DUP2 PUSH1 0x1 ADD SWAP1 DUP1 MLOAD SWAP1 PUSH1 0x20 ADD SWAP1 PUSH2 0x14F8 SWAP3 SWAP2 SWAP1 PUSH2 0x2153 JUMP JUMPDEST POP PUSH1 0x40 DUP3 ADD MLOAD DUP2 PUSH1 0x2 ADD SWAP1 DUP1 MLOAD SWAP1 PUSH1 0x20 ADD SWAP1 PUSH2 0x1515 SWAP3 SWAP2 SWAP1 PUSH2 0x2153 JUMP JUMPDEST POP PUSH1 0x60 DUP3 ADD MLOAD DUP2 PUSH1 0x3 ADD SWAP1 DUP1 MLOAD SWAP1 PUSH1 0x20 ADD SWAP1 PUSH2 0x1532 SWAP3 SWAP2 SWAP1 PUSH2 0x2153 JUMP JUMPDEST POP PUSH1 0x80 DUP3 ADD MLOAD DUP2 PUSH1 0x4 ADD SWAP1 DUP1 MLOAD SWAP1 PUSH1 0x20 ADD SWAP1 PUSH2 0x154F SWAP3 SWAP2 SWAP1 PUSH2 0x2153 JUMP JUMPDEST POP SWAP1 POP POP POP POP POP POP POP POP POP JUMP JUMPDEST PUSH1 0x0 DUP2 DUP1 PUSH1 0x20 ADD SWAP1 MLOAD DUP2 ADD SWAP1 PUSH2 0x1572 SWAP2 SWAP1 PUSH2 0x2EB6 JUMP JUMPDEST SWAP1 POP DUP1 PUSH1 0x7 PUSH1 0x0 DUP6 DUP2 MSTORE PUSH1 0x20 ADD SWAP1 DUP2 MSTORE PUSH1 0x20 ADD PUSH1 0x0 KECCAK256 PUSH1 0x0 DUP3 ADD MLOAD DUP2 PUSH1 0x0 ADD SSTORE PUSH1 0x20 DUP3 ADD MLOAD DUP2 PUSH1 0x1 ADD SWAP1 DUP1 MLOAD SWAP1 PUSH1 0x20 ADD SWAP1 PUSH2 0x15AE SWAP3 SWAP2 SWAP1 PUSH2 0x2153 JUMP JUMPDEST POP PUSH1 0x40 DUP3 ADD MLOAD DUP2 PUSH1 0x2 ADD PUSH1 0x0 PUSH2 0x100 EXP DUP2 SLOAD DUP2 PUSH2 0xFFFF MUL NOT AND SWAP1 DUP4 PUSH1 0xF0 SHR MUL OR SWAP1 SSTORE POP SWAP1 POP POP POP POP POP JUMP JUMPDEST PUSH1 0x0 DUP2 DUP1 PUSH1 0x20 ADD SWAP1 MLOAD DUP2 ADD SWAP1 PUSH2 0x15EF SWAP2 SWAP1 PUSH2 0x30D1 JUMP JUMPDEST SWAP1 POP DUP1 PUSH1 0x6 PUSH1 0x0 DUP6 DUP2 MSTORE PUSH1 0x20 ADD SWAP1 DUP2 MSTORE PUSH1 0x20 ADD PUSH1 0x0 KECCAK256 PUSH1 0x0 DUP3 ADD MLOAD DUP2 PUSH1 0x0 ADD SSTORE PUSH1 0x20 DUP3 ADD MLOAD DUP2 PUSH1 0x1 ADD PUSH1 0x0 PUSH2 0x100 EXP DUP2 SLOAD DUP2 PUSH3 0xFFFFFF MUL NOT AND SWAP1 DUP4 PUSH3 0xFFFFFF AND MUL OR SWAP1 SSTORE POP PUSH1 0x40 DUP3 ADD MLOAD DUP2 PUSH1 0x1 ADD PUSH1 0x3 PUSH2 0x100 EXP DUP2 SLOAD DUP2 PUSH3 0xFFFFFF MUL NOT AND SWAP1 DUP4 PUSH3 0xFFFFFF AND MUL OR SWAP1 SSTORE POP PUSH1 0x60 DUP3 ADD MLOAD DUP2 PUSH1 0x1 ADD PUSH1 0x6 PUSH2 0x100 EXP DUP2 SLOAD DUP2 PUSH3 0xFFFFFF MUL NOT AND SWAP1 DUP4 PUSH3 0xFFFFFF AND MUL OR SWAP1 SSTORE POP PUSH1 0x80 DUP3 ADD MLOAD DUP2 PUSH1 0x1 ADD PUSH1 0x9 PUSH2 0x100 EXP DUP2 SLOAD DUP2 PUSH3 0xFFFFFF MUL NOT AND SWAP1 DUP4 PUSH3 0xFFFFFF AND MUL OR SWAP1 SSTORE POP PUSH1 0xA0 DUP3 ADD MLOAD DUP2 PUSH1 0x1 ADD PUSH1 0xC PUSH2 0x100 EXP DUP2 SLOAD DUP2 PUSH2 0xFFFF MUL NOT AND SWAP1 DUP4 PUSH1 0x1 SIGNEXTEND PUSH2 0xFFFF AND MUL OR SWAP1 SSTORE POP PUSH1 0xC0 DUP3 ADD MLOAD DUP2 PUSH1 0x1 ADD PUSH1 0xE PUSH2 0x100 EXP DUP2 SLOAD DUP2 PUSH2 0xFFFF MUL NOT AND SWAP1 DUP4 PUSH2 0xFFFF AND MUL OR SWAP1 SSTORE POP PUSH1 0xE0 DUP3 ADD MLOAD DUP2 PUSH1 0x1 ADD PUSH1 0x10 PUSH2 0x100 EXP DUP2 SLOAD DUP2 PUSH2 0xFFFF MUL NOT AND SWAP1 DUP4 PUSH2 0xFFFF AND MUL OR SWAP1 SSTORE POP PUSH2 0x100 DUP3 ADD MLOAD DUP2 PUSH1 0x1 ADD PUSH1 0x12 PUSH2 0x100 EXP DUP2 SLOAD DUP2 PUSH1 0xFF MUL NOT AND SWAP1 DUP4 PUSH1 0xFF AND MUL OR SWAP1 SSTORE POP PUSH2 0x120 DUP3 ADD MLOAD DUP2 PUSH1 0x1 ADD PUSH1 0x13 PUSH2 0x100 EXP DUP2 SLOAD DUP2 PUSH1 0xFF MUL NOT AND SWAP1 DUP4 PUSH1 0xFF AND MUL OR SWAP1 SSTORE POP PUSH2 0x140 DUP3 ADD MLOAD DUP2 PUSH1 0x1 ADD PUSH1 0x14 PUSH2 0x100 EXP DUP2 SLOAD DUP2 PUSH1 0xFF MUL NOT AND SWAP1 DUP4 PUSH1 0xFF AND MUL OR SWAP1 SSTORE POP PUSH2 0x160 DUP3 ADD MLOAD DUP2 PUSH1 0x1 ADD PUSH1 0x15 PUSH2 0x100 EXP DUP2 SLOAD DUP2 PUSH1 0xFF MUL NOT AND SWAP1 DUP4 PUSH1 0xFF AND MUL OR SWAP1 SSTORE POP SWAP1 POP POP POP POP POP JUMP JUMPDEST DUP1 PUSH1 0x3 PUSH1 0x0 PUSH2 0x100 EXP DUP2 SLOAD DUP2 PUSH20 0xFFFFFFFFFFFFFFFFFFFFFFFFFFFFFFFFFFFFFFFF MUL NOT AND SWAP1 DUP4 PUSH20 0xFFFFFFFFFFFFFFFFFFFFFFFFFFFFFFFFFFFFFFFF AND MUL OR SWAP1 SSTORE POP POP JUMP JUMPDEST PUSH1 0x0 PUSH1 0x2 PUSH1 0x0 SWAP1 SLOAD SWAP1 PUSH2 0x100 EXP SWAP1 DIV PUSH20 0xFFFFFFFFFFFFFFFFFFFFFFFFFFFFFFFFFFFFFFFF AND SWAP1 POP SWAP1 JUMP JUMPDEST PUSH1 0x0 PUSH1 0x3 PUSH1 0x0 SWAP1 SLOAD SWAP1 PUSH2 0x100 EXP SWAP1 DIV PUSH20 0xFFFFFFFFFFFFFFFFFFFFFFFFFFFFFFFFFFFFFFFF AND SWAP1 POP SWAP1 JUMP JUMPDEST PUSH2 0x184E DUP3 DUP5 PUSH1 0x80 ADD MLOAD PUSH2 0x191A SWAP1 SWAP2 SWAP1 PUSH4 0xFFFFFFFF AND JUMP JUMPDEST PUSH2 0x1865 DUP2 DUP5 PUSH1 0x80 ADD MLOAD PUSH2 0x1A0B SWAP1 SWAP2 SWAP1 PUSH4 0xFFFFFFFF AND JUMP JUMPDEST POP POP POP JUMP JUMPDEST PUSH2 0x1872 PUSH2 0x20B7 JUMP JUMPDEST PUSH2 0x1882 DUP6 PUSH1 0x80 ADD MLOAD PUSH2 0x100 PUSH2 0x1A3B JUMP JUMPDEST POP DUP4 DUP6 PUSH1 0x0 ADD DUP2 DUP2 MSTORE POP POP DUP3 DUP6 PUSH1 0x20 ADD SWAP1 PUSH20 0xFFFFFFFFFFFFFFFFFFFFFFFFFFFFFFFFFFFFFFFF AND SWAP1 DUP2 PUSH20 0xFFFFFFFFFFFFFFFFFFFFFFFFFFFFFFFFFFFFFFFF AND DUP2 MSTORE POP POP DUP2 DUP6 PUSH1 0x40 ADD SWAP1 PUSH28 0xFFFFFFFFFFFFFFFFFFFFFFFFFFFFFFFFFFFFFFFFFFFFFFFFFFFFFFFF NOT AND SWAP1 DUP2 PUSH28 0xFFFFFFFFFFFFFFFFFFFFFFFFFFFFFFFFFFFFFFFFFFFFFFFFFFFFFFFF NOT AND DUP2 MSTORE POP POP DUP5 SWAP1 POP SWAP5 SWAP4 POP POP POP POP JUMP JUMPDEST PUSH2 0x1927 DUP3 PUSH1 0x3 DUP4 MLOAD PUSH2 0x1AA5 JUMP JUMPDEST PUSH2 0x193A DUP2 DUP4 PUSH2 0x1C2A SWAP1 SWAP2 SWAP1 PUSH4 0xFFFFFFFF AND JUMP JUMPDEST POP POP POP JUMP JUMPDEST PUSH1 0x0 DUP1 PUSH1 0x4 SLOAD SWAP1 POP PUSH1 0x1 DUP2 PUSH2 0x1954 SWAP2 SWAP1 PUSH2 0x312E JUMP JUMPDEST PUSH1 0x4 DUP2 SWAP1 SSTORE POP PUSH1 0x0 PUSH4 0x40429946 PUSH1 0xE0 SHL PUSH1 0x0 DUP1 DUP8 PUSH1 0x0 ADD MLOAD ADDRESS DUP10 PUSH1 0x40 ADD MLOAD DUP8 PUSH1 0x1 DUP13 PUSH1 0x80 ADD MLOAD PUSH1 0x0 ADD MLOAD PUSH1 0x40 MLOAD PUSH1 0x24 ADD PUSH2 0x1995 SWAP9 SWAP8 SWAP7 SWAP6 SWAP5 SWAP4 SWAP3 SWAP2 SWAP1 PUSH2 0x3223 JUMP JUMPDEST PUSH1 0x40 MLOAD PUSH1 0x20 DUP2 DUP4 SUB SUB DUP2 MSTORE SWAP1 PUSH1 0x40 MSTORE SWAP1 PUSH28 0xFFFFFFFFFFFFFFFFFFFFFFFFFFFFFFFFFFFFFFFFFFFFFFFFFFFFFFFF NOT AND PUSH1 0x20 DUP3 ADD DUP1 MLOAD PUSH28 0xFFFFFFFFFFFFFFFFFFFFFFFFFFFFFFFFFFFFFFFFFFFFFFFFFFFFFFFF DUP4 DUP2 DUP4 AND OR DUP4 MSTORE POP POP POP POP SWAP1 POP PUSH2 0x1A00 DUP7 DUP4 DUP7 DUP5 PUSH2 0x1C4C JUMP JUMPDEST SWAP3 POP POP POP SWAP4 SWAP3 POP POP POP JUMP JUMPDEST PUSH8 0xFFFFFFFFFFFFFFFF DUP2 GT ISZERO PUSH2 0x1A2A JUMPI PUSH2 0x1A25 DUP3 DUP3 PUSH2 0x1DF0 JUMP JUMPDEST PUSH2 0x1A37 JUMP JUMPDEST PUSH2 0x1A36 DUP3 PUSH1 0x0 DUP4 PUSH2 0x1AA5 JUMP JUMPDEST JUMPDEST POP POP JUMP JUMPDEST PUSH2 0x1A43 PUSH2 0x21D9 JUMP JUMPDEST PUSH1 0x0 PUSH1 0x20 DUP4 PUSH2 0x1A52 SWAP2 SWAP1 PUSH2 0x32D7 JUMP JUMPDEST EQ PUSH2 0x1A7E JUMPI PUSH1 0x20 DUP3 PUSH2 0x1A64 SWAP2 SWAP1 PUSH2 0x32D7 JUMP JUMPDEST PUSH1 0x20 PUSH2 0x1A70 SWAP2 SWAP1 PUSH2 0x3308 JUMP JUMPDEST DUP3 PUSH2 0x1A7B SWAP2 SWAP1 PUSH2 0x312E JUMP JUMPDEST SWAP2 POP JUMPDEST DUP2 DUP4 PUSH1 0x20 ADD DUP2 DUP2 MSTORE POP POP PUSH1 0x40 MLOAD DUP1 DUP5 MSTORE PUSH1 0x0 DUP2 MSTORE DUP3 DUP2 ADD PUSH1 0x20 ADD PUSH1 0x40 MSTORE POP DUP3 SWAP1 POP SWAP3 SWAP2 POP POP JUMP JUMPDEST PUSH1 0x17 DUP2 PUSH8 0xFFFFFFFFFFFFFFFF AND GT PUSH2 0x1ADC JUMPI PUSH2 0x1AD6 DUP2 PUSH1 0x5 DUP5 PUSH1 0xFF AND SWAP1 SHL PUSH1 0xFF AND OR DUP5 PUSH2 0x1E3C SWAP1 SWAP2 SWAP1 PUSH4 0xFFFFFFFF AND JUMP JUMPDEST POP PUSH2 0x1C25 JUMP JUMPDEST PUSH1 0xFF DUP2 PUSH8 0xFFFFFFFFFFFFFFFF AND GT PUSH2 0x1B32 JUMPI PUSH2 0x1B0B PUSH1 0x18 PUSH1 0x5 DUP5 PUSH1 0xFF AND SWAP1 SHL OR DUP5 PUSH2 0x1E3C SWAP1 SWAP2 SWAP1 PUSH4 0xFFFFFFFF AND JUMP JUMPDEST POP PUSH2 0x1B2C DUP2 PUSH8 0xFFFFFFFFFFFFFFFF AND PUSH1 0x1 DUP6 PUSH2 0x1E5C SWAP1 SWAP3 SWAP2 SWAP1 PUSH4 0xFFFFFFFF AND JUMP JUMPDEST POP PUSH2 0x1C24 JUMP JUMPDEST PUSH2 0xFFFF DUP2 PUSH8 0xFFFFFFFFFFFFFFFF AND GT PUSH2 0x1B89 JUMPI PUSH2 0x1B62 PUSH1 0x19 PUSH1 0x5 DUP5 PUSH1 0xFF AND SWAP1 SHL OR DUP5 PUSH2 0x1E3C SWAP1 SWAP2 SWAP1 PUSH4 0xFFFFFFFF AND JUMP JUMPDEST POP PUSH2 0x1B83 DUP2 PUSH8 0xFFFFFFFFFFFFFFFF AND PUSH1 0x2 DUP6 PUSH2 0x1E5C SWAP1 SWAP3 SWAP2 SWAP1 PUSH4 0xFFFFFFFF AND JUMP JUMPDEST POP PUSH2 0x1C23 JUMP JUMPDEST PUSH4 0xFFFFFFFF DUP2 PUSH8 0xFFFFFFFFFFFFFFFF AND GT PUSH2 0x1BE2 JUMPI PUSH2 0x1BBB PUSH1 0x1A PUSH1 0x5 DUP5 PUSH1 0xFF AND SWAP1 SHL OR DUP5 PUSH2 0x1E3C SWAP1 SWAP2 SWAP1 PUSH4 0xFFFFFFFF AND JUMP JUMPDEST POP PUSH2 0x1BDC DUP2 PUSH8 0xFFFFFFFFFFFFFFFF AND PUSH1 0x4 DUP6 PUSH2 0x1E5C SWAP1 SWAP3 SWAP2 SWAP1 PUSH4 0xFFFFFFFF AND JUMP JUMPDEST POP PUSH2 0x1C22 JUMP JUMPDEST PUSH2 0x1BFF PUSH1 0x1B PUSH1 0x5 DUP5 PUSH1 0xFF AND SWAP1 SHL OR DUP5 PUSH2 0x1E3C SWAP1 SWAP2 SWAP1 PUSH4 0xFFFFFFFF AND JUMP JUMPDEST POP PUSH2 0x1C20 DUP2 PUSH8 0xFFFFFFFFFFFFFFFF AND PUSH1 0x8 DUP6 PUSH2 0x1E5C SWAP1 SWAP3 SWAP2 SWAP1 PUSH4 0xFFFFFFFF AND JUMP JUMPDEST POP JUMPDEST JUMPDEST JUMPDEST JUMPDEST POP POP POP JUMP JUMPDEST PUSH2 0x1C32 PUSH2 0x21D9 JUMP JUMPDEST PUSH2 0x1C44 DUP4 DUP5 PUSH1 0x0 ADD MLOAD MLOAD DUP5 DUP6 MLOAD PUSH2 0x1E7E JUMP JUMPDEST SWAP1 POP SWAP3 SWAP2 POP POP JUMP JUMPDEST PUSH1 0x0 ADDRESS DUP5 PUSH1 0x40 MLOAD PUSH1 0x20 ADD PUSH2 0x1C61 SWAP3 SWAP2 SWAP1 PUSH2 0x33F5 JUMP JUMPDEST PUSH1 0x40 MLOAD PUSH1 0x20 DUP2 DUP4 SUB SUB DUP2 MSTORE SWAP1 PUSH1 0x40 MSTORE DUP1 MLOAD SWAP1 PUSH1 0x20 ADD KECCAK256 SWAP1 POP DUP5 PUSH1 0x5 PUSH1 0x0 DUP4 DUP2 MSTORE PUSH1 0x20 ADD SWAP1 DUP2 MSTORE PUSH1 0x20 ADD PUSH1 0x0 KECCAK256 PUSH1 0x0 PUSH2 0x100 EXP DUP2 SLOAD DUP2 PUSH20 0xFFFFFFFFFFFFFFFFFFFFFFFFFFFFFFFFFFFFFFFF MUL NOT AND SWAP1 DUP4 PUSH20 0xFFFFFFFFFFFFFFFFFFFFFFFFFFFFFFFFFFFFFFFF AND MUL OR SWAP1 SSTORE POP DUP1 PUSH32 0xB5E6E01E79F91267DC17B4E6314D5D4D03593D2CEEE0FBB452B750BD70EA5AF9 PUSH1 0x40 MLOAD PUSH1 0x40 MLOAD DUP1 SWAP2 SUB SWAP1 LOG2 PUSH1 0x2 PUSH1 0x0 SWAP1 SLOAD SWAP1 PUSH2 0x100 EXP SWAP1 DIV PUSH20 0xFFFFFFFFFFFFFFFFFFFFFFFFFFFFFFFFFFFFFFFF AND PUSH20 0xFFFFFFFFFFFFFFFFFFFFFFFFFFFFFFFFFFFFFFFF AND PUSH4 0x4000AEA0 DUP7 DUP6 DUP6 PUSH1 0x40 MLOAD DUP5 PUSH4 0xFFFFFFFF AND PUSH1 0xE0 SHL DUP2 MSTORE PUSH1 0x4 ADD PUSH2 0x1D57 SWAP4 SWAP3 SWAP2 SWAP1 PUSH2 0x3421 JUMP JUMPDEST PUSH1 0x20 PUSH1 0x40 MLOAD DUP1 DUP4 SUB DUP2 PUSH1 0x0 DUP8 DUP1 EXTCODESIZE ISZERO DUP1 ISZERO PUSH2 0x1D71 JUMPI PUSH1 0x0 DUP1 REVERT JUMPDEST POP GAS CALL ISZERO DUP1 ISZERO PUSH2 0x1D85 JUMPI RETURNDATASIZE PUSH1 0x0 DUP1 RETURNDATACOPY RETURNDATASIZE PUSH1 0x0 REVERT JUMPDEST POP POP POP POP PUSH1 0x40 MLOAD RETURNDATASIZE PUSH1 0x1F NOT PUSH1 0x1F DUP3 ADD AND DUP3 ADD DUP1 PUSH1 0x40 MSTORE POP DUP2 ADD SWAP1 PUSH2 0x1DA9 SWAP2 SWAP1 PUSH2 0x2C65 JUMP JUMPDEST PUSH2 0x1DE8 JUMPI PUSH1 0x40 MLOAD PUSH32 0x8C379A000000000000000000000000000000000000000000000000000000000 DUP2 MSTORE PUSH1 0x4 ADD PUSH2 0x1DDF SWAP1 PUSH2 0x34D1 JUMP JUMPDEST PUSH1 0x40 MLOAD DUP1 SWAP2 SUB SWAP1 REVERT JUMPDEST SWAP5 SWAP4 POP POP POP POP JUMP JUMPDEST PUSH2 0x1E0E PUSH1 0x2 PUSH1 0x5 PUSH1 0x6 PUSH1 0xFF AND SWAP1 SHL OR DUP4 PUSH2 0x1E3C SWAP1 SWAP2 SWAP1 PUSH4 0xFFFFFFFF AND JUMP JUMPDEST POP PUSH2 0x1E38 DUP3 DUP3 PUSH1 0x40 MLOAD PUSH1 0x20 ADD PUSH2 0x1E24 SWAP2 SWAP1 PUSH2 0x29FE JUMP JUMPDEST PUSH1 0x40 MLOAD PUSH1 0x20 DUP2 DUP4 SUB SUB DUP2 MSTORE SWAP1 PUSH1 0x40 MSTORE PUSH2 0x1F6D JUMP JUMPDEST POP POP JUMP JUMPDEST PUSH2 0x1E44 PUSH2 0x21D9 JUMP JUMPDEST PUSH2 0x1E54 DUP4 DUP5 PUSH1 0x0 ADD MLOAD MLOAD DUP5 PUSH2 0x1F92 JUMP JUMPDEST SWAP1 POP SWAP3 SWAP2 POP POP JUMP JUMPDEST PUSH2 0x1E64 PUSH2 0x21D9 JUMP JUMPDEST PUSH2 0x1E75 DUP5 DUP6 PUSH1 0x0 ADD MLOAD MLOAD DUP6 DUP6 PUSH2 0x1FE9 JUMP JUMPDEST SWAP1 POP SWAP4 SWAP3 POP POP POP JUMP JUMPDEST PUSH2 0x1E86 PUSH2 0x21D9 JUMP JUMPDEST DUP3 MLOAD DUP3 GT ISZERO PUSH2 0x1E94 JUMPI PUSH1 0x0 DUP1 REVERT JUMPDEST DUP5 PUSH1 0x20 ADD MLOAD DUP3 DUP6 PUSH2 0x1EA5 SWAP2 SWAP1 PUSH2 0x312E JUMP JUMPDEST GT ISZERO PUSH2 0x1EDA JUMPI PUSH2 0x1ED9 DUP6 PUSH1 0x2 PUSH2 0x1ECA DUP9 PUSH1 0x20 ADD MLOAD DUP9 DUP8 PUSH2 0x1EC5 SWAP2 SWAP1 PUSH2 0x312E JUMP JUMPDEST PUSH2 0x2077 JUMP JUMPDEST PUSH2 0x1ED4 SWAP2 SWAP1 PUSH2 0x34F1 JUMP JUMPDEST PUSH2 0x2093 JUMP JUMPDEST JUMPDEST PUSH1 0x0 DUP1 DUP7 MLOAD DUP1 MLOAD DUP8 PUSH1 0x20 DUP4 ADD ADD SWAP4 POP DUP1 DUP9 DUP8 ADD GT ISZERO PUSH2 0x1EF9 JUMPI DUP8 DUP7 ADD DUP3 MSTORE JUMPDEST PUSH1 0x20 DUP8 ADD SWAP3 POP POP POP JUMPDEST PUSH1 0x20 DUP5 LT PUSH2 0x1F40 JUMPI DUP1 MLOAD DUP3 MSTORE PUSH1 0x20 DUP3 PUSH2 0x1F1B SWAP2 SWAP1 PUSH2 0x312E JUMP JUMPDEST SWAP2 POP PUSH1 0x20 DUP2 PUSH2 0x1F2A SWAP2 SWAP1 PUSH2 0x312E JUMP JUMPDEST SWAP1 POP PUSH1 0x20 DUP5 PUSH2 0x1F39 SWAP2 SWAP1 PUSH2 0x3308 JUMP JUMPDEST SWAP4 POP PUSH2 0x1F02 JUMP JUMPDEST PUSH1 0x0 PUSH1 0x1 DUP6 PUSH1 0x20 SUB PUSH2 0x100 EXP SUB SWAP1 POP DUP1 NOT DUP3 MLOAD AND DUP2 DUP5 MLOAD AND DUP2 DUP2 OR DUP6 MSTORE POP POP POP DUP7 SWAP3 POP POP POP SWAP5 SWAP4 POP POP POP POP JUMP JUMPDEST PUSH2 0x1F7A DUP3 PUSH1 0x2 DUP4 MLOAD PUSH2 0x1AA5 JUMP JUMPDEST PUSH2 0x1F8D DUP2 DUP4 PUSH2 0x1C2A SWAP1 SWAP2 SWAP1 PUSH4 0xFFFFFFFF AND JUMP JUMPDEST POP POP POP JUMP JUMPDEST PUSH2 0x1F9A PUSH2 0x21D9 JUMP JUMPDEST DUP4 PUSH1 0x20 ADD MLOAD DUP4 LT PUSH2 0x1FC0 JUMPI PUSH2 0x1FBF DUP5 PUSH1 0x2 DUP7 PUSH1 0x20 ADD MLOAD PUSH2 0x1FBA SWAP2 SWAP1 PUSH2 0x34F1 JUMP JUMPDEST PUSH2 0x2093 JUMP JUMPDEST JUMPDEST DUP4 MLOAD DUP1 MLOAD PUSH1 0x20 DUP6 DUP4 ADD ADD DUP5 DUP2 MSTORE8 DUP2 DUP7 EQ ISZERO PUSH2 0x1FDC JUMPI PUSH1 0x1 DUP3 ADD DUP4 MSTORE JUMPDEST POP POP POP DUP4 SWAP1 POP SWAP4 SWAP3 POP POP POP JUMP JUMPDEST PUSH2 0x1FF1 PUSH2 0x21D9 JUMP JUMPDEST DUP5 PUSH1 0x20 ADD MLOAD DUP5 DUP4 PUSH2 0x2002 SWAP2 SWAP1 PUSH2 0x312E JUMP JUMPDEST GT ISZERO PUSH2 0x202A JUMPI PUSH2 0x2029 DUP6 PUSH1 0x2 DUP7 DUP6 PUSH2 0x201A SWAP2 SWAP1 PUSH2 0x312E JUMP JUMPDEST PUSH2 0x2024 SWAP2 SWAP1 PUSH2 0x34F1 JUMP JUMPDEST PUSH2 0x2093 JUMP JUMPDEST JUMPDEST PUSH1 0x0 PUSH1 0x1 DUP4 PUSH2 0x100 PUSH2 0x203C SWAP2 SWAP1 PUSH2 0x367E JUMP JUMPDEST PUSH2 0x2046 SWAP2 SWAP1 PUSH2 0x3308 JUMP JUMPDEST SWAP1 POP DUP6 MLOAD DUP4 DUP7 DUP3 ADD ADD DUP6 DUP4 NOT DUP3 MLOAD AND OR DUP2 MSTORE DUP2 MLOAD DUP6 DUP9 ADD GT ISZERO PUSH2 0x2069 JUMPI DUP5 DUP8 ADD DUP3 MSTORE JUMPDEST POP POP DUP6 SWAP2 POP POP SWAP5 SWAP4 POP POP POP POP JUMP JUMPDEST PUSH1 0x0 DUP2 DUP4 GT ISZERO PUSH2 0x2089 JUMPI DUP3 SWAP1 POP PUSH2 0x208D JUMP JUMPDEST DUP2 SWAP1 POP JUMPDEST SWAP3 SWAP2 POP POP JUMP JUMPDEST PUSH1 0x0 DUP3 PUSH1 0x0 ADD MLOAD SWAP1 POP PUSH2 0x20A6 DUP4 DUP4 PUSH2 0x1A3B JUMP JUMPDEST POP PUSH2 0x20B1 DUP4 DUP3 PUSH2 0x1C2A JUMP JUMPDEST POP POP POP POP JUMP JUMPDEST PUSH1 0x40 MLOAD DUP1 PUSH1 0xA0 ADD PUSH1 0x40 MSTORE DUP1 PUSH1 0x0 DUP1 NOT AND DUP2 MSTORE PUSH1 0x20 ADD PUSH1 0x0 PUSH20 0xFFFFFFFFFFFFFFFFFFFFFFFFFFFFFFFFFFFFFFFF AND DUP2 MSTORE PUSH1 0x20 ADD PUSH1 0x0 PUSH28 0xFFFFFFFFFFFFFFFFFFFFFFFFFFFFFFFFFFFFFFFFFFFFFFFFFFFFFFFF NOT AND DUP2 MSTORE PUSH1 0x20 ADD PUSH1 0x0 DUP2 MSTORE PUSH1 0x20 ADD PUSH2 0x211E PUSH2 0x21D9 JUMP JUMPDEST DUP2 MSTORE POP SWAP1 JUMP JUMPDEST PUSH1 0x40 MLOAD DUP1 PUSH1 0xA0 ADD PUSH1 0x40 MSTORE DUP1 PUSH1 0x0 DUP2 MSTORE PUSH1 0x20 ADD PUSH1 0x60 DUP2 MSTORE PUSH1 0x20 ADD PUSH1 0x60 DUP2 MSTORE PUSH1 0x20 ADD PUSH1 0x60 DUP2 MSTORE PUSH1 0x20 ADD PUSH1 0x60 DUP2 MSTORE POP SWAP1 JUMP JUMPDEST DUP3 DUP1 SLOAD PUSH2 0x215F SWAP1 PUSH2 0x2D2D JUMP JUMPDEST SWAP1 PUSH1 0x0 MSTORE PUSH1 0x20 PUSH1 0x0 KECCAK256 SWAP1 PUSH1 0x1F ADD PUSH1 0x20 SWAP1 DIV DUP2 ADD SWAP3 DUP3 PUSH2 0x2181 JUMPI PUSH1 0x0 DUP6 SSTORE PUSH2 0x21C8 JUMP JUMPDEST DUP3 PUSH1 0x1F LT PUSH2 0x219A JUMPI DUP1 MLOAD PUSH1 0xFF NOT AND DUP4 DUP1 ADD OR DUP6 SSTORE PUSH2 0x21C8 JUMP JUMPDEST DUP3 DUP1 ADD PUSH1 0x1 ADD DUP6 SSTORE DUP3 ISZERO PUSH2 0x21C8 JUMPI SWAP2 DUP3 ADD JUMPDEST DUP3 DUP2 GT ISZERO PUSH2 0x21C7 JUMPI DUP3 MLOAD DUP3 SSTORE SWAP2 PUSH1 0x20 ADD SWAP2 SWAP1 PUSH1 0x1 ADD SWAP1 PUSH2 0x21AC JUMP JUMPDEST JUMPDEST POP SWAP1 POP PUSH2 0x21D5 SWAP2 SWAP1 PUSH2 0x21F3 JUMP JUMPDEST POP SWAP1 JUMP JUMPDEST PUSH1 0x40 MLOAD DUP1 PUSH1 0x40 ADD PUSH1 0x40 MSTORE DUP1 PUSH1 0x60 DUP2 MSTORE PUSH1 0x20 ADD PUSH1 0x0 DUP2 MSTORE POP SWAP1 JUMP JUMPDEST JUMPDEST DUP1 DUP3 GT ISZERO PUSH2 0x220C JUMPI PUSH1 0x0 DUP2 PUSH1 0x0 SWAP1 SSTORE POP PUSH1 0x1 ADD PUSH2 0x21F4 JUMP JUMPDEST POP SWAP1 JUMP JUMPDEST PUSH1 0x0 PUSH1 0x40 MLOAD SWAP1 POP SWAP1 JUMP JUMPDEST PUSH1 0x0 DUP1 REVERT JUMPDEST PUSH1 0x0 DUP1 REVERT JUMPDEST PUSH1 0x0 DUP2 SWAP1 POP SWAP2 SWAP1 POP JUMP JUMPDEST PUSH2 0x2237 DUP2 PUSH2 0x2224 JUMP JUMPDEST DUP2 EQ PUSH2 0x2242 JUMPI PUSH1 0x0 DUP1 REVERT JUMPDEST POP JUMP JUMPDEST PUSH1 0x0 DUP2 CALLDATALOAD SWAP1 POP PUSH2 0x2254 DUP2 PUSH2 0x222E JUMP JUMPDEST SWAP3 SWAP2 POP POP JUMP JUMPDEST PUSH1 0x0 DUP1 REVERT JUMPDEST PUSH1 0x0 DUP1 REVERT JUMPDEST PUSH1 0x0 DUP1 REVERT JUMPDEST PUSH1 0x0 DUP1 DUP4 PUSH1 0x1F DUP5 ADD SLT PUSH2 0x227F JUMPI PUSH2 0x227E PUSH2 0x225A JUMP JUMPDEST JUMPDEST DUP3 CALLDATALOAD SWAP1 POP PUSH8 0xFFFFFFFFFFFFFFFF DUP2 GT ISZERO PUSH2 0x229C JUMPI PUSH2 0x229B PUSH2 0x225F JUMP JUMPDEST JUMPDEST PUSH1 0x20 DUP4 ADD SWAP2 POP DUP4 PUSH1 0x1 DUP3 MUL DUP4 ADD GT ISZERO PUSH2 0x22B8 JUMPI PUSH2 0x22B7 PUSH2 0x2264 JUMP JUMPDEST JUMPDEST SWAP3 POP SWAP3 SWAP1 POP JUMP JUMPDEST PUSH1 0x0 DUP1 PUSH1 0x0 DUP1 PUSH1 0x0 PUSH1 0x60 DUP7 DUP9 SUB SLT ISZERO PUSH2 0x22DB JUMPI PUSH2 0x22DA PUSH2 0x221A JUMP JUMPDEST JUMPDEST PUSH1 0x0 PUSH2 0x22E9 DUP9 DUP3 DUP10 ADD PUSH2 0x2245 JUMP JUMPDEST SWAP6 POP POP PUSH1 0x20 DUP7 ADD CALLDATALOAD PUSH8 0xFFFFFFFFFFFFFFFF DUP2 GT ISZERO PUSH2 0x230A JUMPI PUSH2 0x2309 PUSH2 0x221F JUMP JUMPDEST JUMPDEST PUSH2 0x2316 DUP9 DUP3 DUP10 ADD PUSH2 0x2269 JUMP JUMPDEST SWAP5 POP SWAP5 POP POP PUSH1 0x40 DUP7 ADD CALLDATALOAD PUSH8 0xFFFFFFFFFFFFFFFF DUP2 GT ISZERO PUSH2 0x2339 JUMPI PUSH2 0x2338 PUSH2 0x221F JUMP JUMPDEST JUMPDEST PUSH2 0x2345 DUP9 DUP3 DUP10 ADD PUSH2 0x2269 JUMP JUMPDEST SWAP3 POP SWAP3 POP POP SWAP3 SWAP6 POP SWAP3 SWAP6 SWAP1 SWAP4 POP JUMP JUMPDEST PUSH1 0x0 DUP2 ISZERO ISZERO SWAP1 POP SWAP2 SWAP1 POP JUMP JUMPDEST PUSH2 0x2369 DUP2 PUSH2 0x2354 JUMP JUMPDEST DUP2 EQ PUSH2 0x2374 JUMPI PUSH1 0x0 DUP1 REVERT JUMPDEST POP JUMP JUMPDEST PUSH1 0x0 DUP2 CALLDATALOAD SWAP1 POP PUSH2 0x2386 DUP2 PUSH2 0x2360 JUMP JUMPDEST SWAP3 SWAP2 POP POP JUMP JUMPDEST PUSH1 0x0 DUP1 REVERT JUMPDEST PUSH1 0x0 PUSH1 0x1F NOT PUSH1 0x1F DUP4 ADD AND SWAP1 POP SWAP2 SWAP1 POP JUMP JUMPDEST PUSH32 0x4E487B7100000000000000000000000000000000000000000000000000000000 PUSH1 0x0 MSTORE PUSH1 0x41 PUSH1 0x4 MSTORE PUSH1 0x24 PUSH1 0x0 REVERT JUMPDEST PUSH2 0x23DA DUP3 PUSH2 0x2391 JUMP JUMPDEST DUP2 ADD DUP2 DUP2 LT PUSH8 0xFFFFFFFFFFFFFFFF DUP3 GT OR ISZERO PUSH2 0x23F9 JUMPI PUSH2 0x23F8 PUSH2 0x23A2 JUMP JUMPDEST JUMPDEST DUP1 PUSH1 0x40 MSTORE POP POP POP JUMP JUMPDEST PUSH1 0x0 PUSH2 0x240C PUSH2 0x2210 JUMP JUMPDEST SWAP1 POP PUSH2 0x2418 DUP3 DUP3 PUSH2 0x23D1 JUMP JUMPDEST SWAP2 SWAP1 POP JUMP JUMPDEST PUSH1 0x0 PUSH8 0xFFFFFFFFFFFFFFFF DUP3 GT ISZERO PUSH2 0x2438 JUMPI PUSH2 0x2437 PUSH2 0x23A2 JUMP JUMPDEST JUMPDEST PUSH2 0x2441 DUP3 PUSH2 0x2391 JUMP JUMPDEST SWAP1 POP PUSH1 0x20 DUP2 ADD SWAP1 POP SWAP2 SWAP1 POP JUMP JUMPDEST DUP3 DUP2 DUP4 CALLDATACOPY PUSH1 0x0 DUP4 DUP4 ADD MSTORE POP POP POP JUMP JUMPDEST PUSH1 0x0 PUSH2 0x2470 PUSH2 0x246B DUP5 PUSH2 0x241D JUMP JUMPDEST PUSH2 0x2402 JUMP JUMPDEST SWAP1 POP DUP3 DUP2 MSTORE PUSH1 0x20 DUP2 ADD DUP5 DUP5 DUP5 ADD GT ISZERO PUSH2 0x248C JUMPI PUSH2 0x248B PUSH2 0x238C JUMP JUMPDEST JUMPDEST PUSH2 0x2497 DUP5 DUP3 DUP6 PUSH2 0x244E JUMP JUMPDEST POP SWAP4 SWAP3 POP POP POP JUMP JUMPDEST PUSH1 0x0 DUP3 PUSH1 0x1F DUP4 ADD SLT PUSH2 0x24B4 JUMPI PUSH2 0x24B3 PUSH2 0x225A JUMP JUMPDEST JUMPDEST DUP2 CALLDATALOAD PUSH2 0x24C4 DUP5 DUP3 PUSH1 0x20 DUP7 ADD PUSH2 0x245D JUMP JUMPDEST SWAP2 POP POP SWAP3 SWAP2 POP POP JUMP JUMPDEST PUSH1 0x0 DUP1 PUSH1 0x0 DUP1 PUSH1 0x80 DUP6 DUP8 SUB SLT ISZERO PUSH2 0x24E7 JUMPI PUSH2 0x24E6 PUSH2 0x221A JUMP JUMPDEST JUMPDEST PUSH1 0x0 PUSH2 0x24F5 DUP8 DUP3 DUP9 ADD PUSH2 0x2245 JUMP JUMPDEST SWAP5 POP POP PUSH1 0x20 PUSH2 0x2506 DUP8 DUP3 DUP9 ADD PUSH2 0x2377 JUMP JUMPDEST SWAP4 POP POP PUSH1 0x40 DUP6 ADD CALLDATALOAD PUSH8 0xFFFFFFFFFFFFFFFF DUP2 GT ISZERO PUSH2 0x2527 JUMPI PUSH2 0x2526 PUSH2 0x221F JUMP JUMPDEST JUMPDEST PUSH2 0x2533 DUP8 DUP3 DUP9 ADD PUSH2 0x249F JUMP JUMPDEST SWAP3 POP POP PUSH1 0x60 DUP6 ADD CALLDATALOAD PUSH8 0xFFFFFFFFFFFFFFFF DUP2 GT ISZERO PUSH2 0x2554 JUMPI PUSH2 0x2553 PUSH2 0x221F JUMP JUMPDEST JUMPDEST PUSH2 0x2560 DUP8 DUP3 DUP9 ADD PUSH2 0x249F JUMP JUMPDEST SWAP2 POP POP SWAP3 SWAP6 SWAP2 SWAP5 POP SWAP3 POP JUMP JUMPDEST PUSH1 0x0 PUSH1 0x20 DUP3 DUP5 SUB SLT ISZERO PUSH2 0x2582 JUMPI PUSH2 0x2581 PUSH2 0x221A JUMP JUMPDEST JUMPDEST PUSH1 0x0 PUSH2 0x2590 DUP5 DUP3 DUP6 ADD PUSH2 0x2245 JUMP JUMPDEST SWAP2 POP POP SWAP3 SWAP2 POP POP JUMP JUMPDEST PUSH1 0x0 DUP2 SWAP1 POP SWAP2 SWAP1 POP JUMP JUMPDEST PUSH2 0x25AC DUP2 PUSH2 0x2599 JUMP JUMPDEST DUP3 MSTORE POP POP JUMP JUMPDEST PUSH1 0x0 PUSH3 0xFFFFFF DUP3 AND SWAP1 POP SWAP2 SWAP1 POP JUMP JUMPDEST PUSH2 0x25CA DUP2 PUSH2 0x25B2 JUMP JUMPDEST DUP3 MSTORE POP POP JUMP JUMPDEST PUSH1 0x0 DUP2 PUSH1 0x1 SIGNEXTEND SWAP1 POP SWAP2 SWAP1 POP JUMP JUMPDEST PUSH2 0x25E6 DUP2 PUSH2 0x25D0 JUMP JUMPDEST DUP3 MSTORE POP POP JUMP JUMPDEST PUSH1 0x0 PUSH2 0xFFFF DUP3 AND SWAP1 POP SWAP2 SWAP1 POP JUMP JUMPDEST PUSH2 0x2603 DUP2 PUSH2 0x25EC JUMP JUMPDEST DUP3 MSTORE POP POP JUMP JUMPDEST PUSH1 0x0 PUSH1 0xFF DUP3 AND SWAP1 POP SWAP2 SWAP1 POP JUMP JUMPDEST PUSH2 0x261F DUP2 PUSH2 0x2609 JUMP JUMPDEST DUP3 MSTORE POP POP JUMP JUMPDEST PUSH1 0x0 PUSH2 0x180 DUP3 ADD SWAP1 POP PUSH2 0x263B PUSH1 0x0 DUP4 ADD DUP16 PUSH2 0x25A3 JUMP JUMPDEST PUSH2 0x2648 PUSH1 0x20 DUP4 ADD DUP15 PUSH2 0x25C1 JUMP JUMPDEST PUSH2 0x2655 PUSH1 0x40 DUP4 ADD DUP14 PUSH2 0x25C1 JUMP JUMPDEST PUSH2 0x2662 PUSH1 0x60 DUP4 ADD DUP13 PUSH2 0x25C1 JUMP JUMPDEST PUSH2 0x266F PUSH1 0x80 DUP4 ADD DUP12 PUSH2 0x25C1 JUMP JUMPDEST PUSH2 0x267C PUSH1 0xA0 DUP4 ADD DUP11 PUSH2 0x25DD JUMP JUMPDEST PUSH2 0x2689 PUSH1 0xC0 DUP4 ADD DUP10 PUSH2 0x25FA JUMP JUMPDEST PUSH2 0x2696 PUSH1 0xE0 DUP4 ADD DUP9 PUSH2 0x25FA JUMP JUMPDEST PUSH2 0x26A4 PUSH2 0x100 DUP4 ADD DUP8 PUSH2 0x2616 JUMP JUMPDEST PUSH2 0x26B2 PUSH2 0x120 DUP4 ADD DUP7 PUSH2 0x2616 JUMP JUMPDEST PUSH2 0x26C0 PUSH2 0x140 DUP4 ADD DUP6 PUSH2 0x2616 JUMP JUMPDEST PUSH2 0x26CE PUSH2 0x160 DUP4 ADD DUP5 PUSH2 0x2616 JUMP JUMPDEST SWAP14 SWAP13 POP POP POP POP POP POP POP POP POP POP POP POP POP JUMP JUMPDEST PUSH1 0x0 PUSH20 0xFFFFFFFFFFFFFFFFFFFFFFFFFFFFFFFFFFFFFFFF DUP3 AND SWAP1 POP SWAP2 SWAP1 POP JUMP JUMPDEST PUSH1 0x0 PUSH2 0x270A DUP3 PUSH2 0x26DF JUMP JUMPDEST SWAP1 POP SWAP2 SWAP1 POP JUMP JUMPDEST PUSH2 0x271A DUP2 PUSH2 0x26FF JUMP JUMPDEST DUP2 EQ PUSH2 0x2725 JUMPI PUSH1 0x0 DUP1 REVERT JUMPDEST POP JUMP JUMPDEST PUSH1 0x0 DUP2 CALLDATALOAD SWAP1 POP PUSH2 0x2737 DUP2 PUSH2 0x2711 JUMP JUMPDEST SWAP3 SWAP2 POP POP JUMP JUMPDEST PUSH1 0x0 PUSH1 0x20 DUP3 DUP5 SUB SLT ISZERO PUSH2 0x2753 JUMPI PUSH2 0x2752 PUSH2 0x221A JUMP JUMPDEST JUMPDEST PUSH1 0x0 PUSH2 0x2761 DUP5 DUP3 DUP6 ADD PUSH2 0x2728 JUMP JUMPDEST SWAP2 POP POP SWAP3 SWAP2 POP POP JUMP JUMPDEST PUSH1 0x0 DUP2 MLOAD SWAP1 POP SWAP2 SWAP1 POP JUMP JUMPDEST PUSH1 0x0 DUP3 DUP3 MSTORE PUSH1 0x20 DUP3 ADD SWAP1 POP SWAP3 SWAP2 POP POP JUMP JUMPDEST PUSH1 0x0 JUMPDEST DUP4 DUP2 LT ISZERO PUSH2 0x27A4 JUMPI DUP1 DUP3 ADD MLOAD DUP2 DUP5 ADD MSTORE PUSH1 0x20 DUP2 ADD SWAP1 POP PUSH2 0x2789 JUMP JUMPDEST DUP4 DUP2 GT ISZERO PUSH2 0x27B3 JUMPI PUSH1 0x0 DUP5 DUP5 ADD MSTORE JUMPDEST POP POP POP POP JUMP JUMPDEST PUSH1 0x0 PUSH2 0x27C4 DUP3 PUSH2 0x276A JUMP JUMPDEST PUSH2 0x27CE DUP2 DUP6 PUSH2 0x2775 JUMP JUMPDEST SWAP4 POP PUSH2 0x27DE DUP2 DUP6 PUSH1 0x20 DUP7 ADD PUSH2 0x2786 JUMP JUMPDEST PUSH2 0x27E7 DUP2 PUSH2 0x2391 JUMP JUMPDEST DUP5 ADD SWAP2 POP POP SWAP3 SWAP2 POP POP JUMP JUMPDEST PUSH1 0x0 PUSH32 0xFFFF000000000000000000000000000000000000000000000000000000000000 DUP3 AND SWAP1 POP SWAP2 SWAP1 POP JUMP JUMPDEST PUSH2 0x2827 DUP2 PUSH2 0x27F2 JUMP JUMPDEST DUP3 MSTORE POP POP JUMP JUMPDEST PUSH1 0x0 PUSH1 0x60 DUP3 ADD SWAP1 POP PUSH2 0x2842 PUSH1 0x0 DUP4 ADD DUP7 PUSH2 0x25A3 JUMP JUMPDEST DUP2 DUP2 SUB PUSH1 0x20 DUP4 ADD MSTORE PUSH2 0x2854 DUP2 DUP6 PUSH2 0x27B9 JUMP JUMPDEST SWAP1 POP PUSH2 0x2863 PUSH1 0x40 DUP4 ADD DUP5 PUSH2 0x281E JUMP JUMPDEST SWAP5 SWAP4 POP POP POP POP JUMP JUMPDEST PUSH1 0x0 DUP1 PUSH1 0x0 DUP1 PUSH1 0x0 DUP1 PUSH1 0x0 PUSH1 0x80 DUP9 DUP11 SUB SLT ISZERO PUSH2 0x288A JUMPI PUSH2 0x2889 PUSH2 0x221A JUMP JUMPDEST JUMPDEST PUSH1 0x0 PUSH2 0x2898 DUP11 DUP3 DUP12 ADD PUSH2 0x2245 JUMP JUMPDEST SWAP8 POP POP PUSH1 0x20 DUP9 ADD CALLDATALOAD PUSH8 0xFFFFFFFFFFFFFFFF DUP2 GT ISZERO PUSH2 0x28B9 JUMPI PUSH2 0x28B8 PUSH2 0x221F JUMP JUMPDEST JUMPDEST PUSH2 0x28C5 DUP11 DUP3 DUP12 ADD PUSH2 0x2269 JUMP JUMPDEST SWAP7 POP SWAP7 POP POP PUSH1 0x40 DUP9 ADD CALLDATALOAD PUSH8 0xFFFFFFFFFFFFFFFF DUP2 GT ISZERO PUSH2 0x28E8 JUMPI PUSH2 0x28E7 PUSH2 0x221F JUMP JUMPDEST JUMPDEST PUSH2 0x28F4 DUP11 DUP3 DUP12 ADD PUSH2 0x2269 JUMP JUMPDEST SWAP5 POP SWAP5 POP POP PUSH1 0x60 DUP9 ADD CALLDATALOAD PUSH8 0xFFFFFFFFFFFFFFFF DUP2 GT ISZERO PUSH2 0x2917 JUMPI PUSH2 0x2916 PUSH2 0x221F JUMP JUMPDEST JUMPDEST PUSH2 0x2923 DUP11 DUP3 DUP12 ADD PUSH2 0x2269 JUMP JUMPDEST SWAP3 POP SWAP3 POP POP SWAP3 SWAP6 SWAP9 SWAP2 SWAP5 SWAP8 POP SWAP3 SWAP6 POP JUMP JUMPDEST PUSH2 0x293D DUP2 PUSH2 0x26FF JUMP JUMPDEST DUP3 MSTORE POP POP JUMP JUMPDEST PUSH1 0x0 PUSH1 0x20 DUP3 ADD SWAP1 POP PUSH2 0x2958 PUSH1 0x0 DUP4 ADD DUP5 PUSH2 0x2934 JUMP JUMPDEST SWAP3 SWAP2 POP POP JUMP JUMPDEST PUSH2 0x2967 DUP2 PUSH2 0x2599 JUMP JUMPDEST DUP2 EQ PUSH2 0x2972 JUMPI PUSH1 0x0 DUP1 REVERT JUMPDEST POP JUMP JUMPDEST PUSH1 0x0 DUP2 CALLDATALOAD SWAP1 POP PUSH2 0x2984 DUP2 PUSH2 0x295E JUMP JUMPDEST SWAP3 SWAP2 POP POP JUMP JUMPDEST PUSH1 0x0 DUP1 PUSH1 0x0 DUP1 PUSH1 0x60 DUP6 DUP8 SUB SLT ISZERO PUSH2 0x29A4 JUMPI PUSH2 0x29A3 PUSH2 0x221A JUMP JUMPDEST JUMPDEST PUSH1 0x0 PUSH2 0x29B2 DUP8 DUP3 DUP9 ADD PUSH2 0x2245 JUMP JUMPDEST SWAP5 POP POP PUSH1 0x20 PUSH2 0x29C3 DUP8 DUP3 DUP9 ADD PUSH2 0x2975 JUMP JUMPDEST SWAP4 POP POP PUSH1 0x40 DUP6 ADD CALLDATALOAD PUSH8 0xFFFFFFFFFFFFFFFF DUP2 GT ISZERO PUSH2 0x29E4 JUMPI PUSH2 0x29E3 PUSH2 0x221F JUMP JUMPDEST JUMPDEST PUSH2 0x29F0 DUP8 DUP3 DUP9 ADD PUSH2 0x2269 JUMP JUMPDEST SWAP3 POP SWAP3 POP POP SWAP3 SWAP6 SWAP2 SWAP5 POP SWAP3 POP JUMP JUMPDEST PUSH1 0x0 PUSH1 0x20 DUP3 ADD SWAP1 POP PUSH2 0x2A13 PUSH1 0x0 DUP4 ADD DUP5 PUSH2 0x25A3 JUMP JUMPDEST SWAP3 SWAP2 POP POP JUMP JUMPDEST PUSH1 0x0 DUP1 PUSH1 0x0 PUSH1 0x60 DUP5 DUP7 SUB SLT ISZERO PUSH2 0x2A32 JUMPI PUSH2 0x2A31 PUSH2 0x221A JUMP JUMPDEST JUMPDEST PUSH1 0x0 PUSH2 0x2A40 DUP7 DUP3 DUP8 ADD PUSH2 0x2245 JUMP JUMPDEST SWAP4 POP POP PUSH1 0x20 PUSH2 0x2A51 DUP7 DUP3 DUP8 ADD PUSH2 0x2377 JUMP JUMPDEST SWAP3 POP POP PUSH1 0x40 DUP5 ADD CALLDATALOAD PUSH8 0xFFFFFFFFFFFFFFFF DUP2 GT ISZERO PUSH2 0x2A72 JUMPI PUSH2 0x2A71 PUSH2 0x221F JUMP JUMPDEST JUMPDEST PUSH2 0x2A7E DUP7 DUP3 DUP8 ADD PUSH2 0x249F JUMP JUMPDEST SWAP2 POP POP SWAP3 POP SWAP3 POP SWAP3 JUMP JUMPDEST PUSH1 0x0 DUP1 PUSH1 0x40 DUP4 DUP6 SUB SLT ISZERO PUSH2 0x2A9F JUMPI PUSH2 0x2A9E PUSH2 0x221A JUMP JUMPDEST JUMPDEST PUSH1 0x0 PUSH2 0x2AAD DUP6 DUP3 DUP7 ADD PUSH2 0x2245 JUMP JUMPDEST SWAP3 POP POP PUSH1 0x20 DUP4 ADD CALLDATALOAD PUSH8 0xFFFFFFFFFFFFFFFF DUP2 GT ISZERO PUSH2 0x2ACE JUMPI PUSH2 0x2ACD PUSH2 0x221F JUMP JUMPDEST JUMPDEST PUSH2 0x2ADA DUP6 DUP3 DUP7 ADD PUSH2 0x249F JUMP JUMPDEST SWAP2 POP POP SWAP3 POP SWAP3 SWAP1 POP JUMP JUMPDEST PUSH1 0x0 PUSH1 0xA0 DUP3 ADD SWAP1 POP PUSH2 0x2AF9 PUSH1 0x0 DUP4 ADD DUP9 PUSH2 0x25A3 JUMP JUMPDEST DUP2 DUP2 SUB PUSH1 0x20 DUP4 ADD MSTORE PUSH2 0x2B0B DUP2 DUP8 PUSH2 0x27B9 JUMP JUMPDEST SWAP1 POP DUP2 DUP2 SUB PUSH1 0x40 DUP4 ADD MSTORE PUSH2 0x2B1F DUP2 DUP7 PUSH2 0x27B9 JUMP JUMPDEST SWAP1 POP DUP2 DUP2 SUB PUSH1 0x60 DUP4 ADD MSTORE PUSH2 0x2B33 DUP2 DUP6 PUSH2 0x27B9 JUMP JUMPDEST SWAP1 POP DUP2 DUP2 SUB PUSH1 0x80 DUP4 ADD MSTORE PUSH2 0x2B47 DUP2 DUP5 PUSH2 0x27B9 JUMP JUMPDEST SWAP1 POP SWAP7 SWAP6 POP POP POP POP POP POP JUMP JUMPDEST PUSH32 0x536F75726365206D75737420626520746865206F7261636C65206F6620746865 PUSH1 0x0 DUP3 ADD MSTORE PUSH32 0x2072657175657374000000000000000000000000000000000000000000000000 PUSH1 0x20 DUP3 ADD MSTORE POP JUMP JUMPDEST PUSH1 0x0 PUSH2 0x2BAF PUSH1 0x28 DUP4 PUSH2 0x2775 JUMP JUMPDEST SWAP2 POP PUSH2 0x2BBA DUP3 PUSH2 0x2B53 JUMP JUMPDEST PUSH1 0x40 DUP3 ADD SWAP1 POP SWAP2 SWAP1 POP JUMP JUMPDEST PUSH1 0x0 PUSH1 0x20 DUP3 ADD SWAP1 POP DUP2 DUP2 SUB PUSH1 0x0 DUP4 ADD MSTORE PUSH2 0x2BDE DUP2 PUSH2 0x2BA2 JUMP JUMPDEST SWAP1 POP SWAP2 SWAP1 POP JUMP JUMPDEST PUSH1 0x0 DUP2 MLOAD SWAP1 POP PUSH2 0x2BF4 DUP2 PUSH2 0x295E JUMP JUMPDEST SWAP3 SWAP2 POP POP JUMP JUMPDEST PUSH1 0x0 PUSH1 0x20 DUP3 DUP5 SUB SLT ISZERO PUSH2 0x2C10 JUMPI PUSH2 0x2C0F PUSH2 0x221A JUMP JUMPDEST JUMPDEST PUSH1 0x0 PUSH2 0x2C1E DUP5 DUP3 DUP6 ADD PUSH2 0x2BE5 JUMP JUMPDEST SWAP2 POP POP SWAP3 SWAP2 POP POP JUMP JUMPDEST PUSH1 0x0 PUSH1 0x40 DUP3 ADD SWAP1 POP PUSH2 0x2C3C PUSH1 0x0 DUP4 ADD DUP6 PUSH2 0x2934 JUMP JUMPDEST PUSH2 0x2C49 PUSH1 0x20 DUP4 ADD DUP5 PUSH2 0x25A3 JUMP JUMPDEST SWAP4 SWAP3 POP POP POP JUMP JUMPDEST PUSH1 0x0 DUP2 MLOAD SWAP1 POP PUSH2 0x2C5F DUP2 PUSH2 0x2360 JUMP JUMPDEST SWAP3 SWAP2 POP POP JUMP JUMPDEST PUSH1 0x0 PUSH1 0x20 DUP3 DUP5 SUB SLT ISZERO PUSH2 0x2C7B JUMPI PUSH2 0x2C7A PUSH2 0x221A JUMP JUMPDEST JUMPDEST PUSH1 0x0 PUSH2 0x2C89 DUP5 DUP3 DUP6 ADD PUSH2 0x2C50 JUMP JUMPDEST SWAP2 POP POP SWAP3 SWAP2 POP POP JUMP JUMPDEST PUSH32 0x556E61626C6520746F207472616E736665720000000000000000000000000000 PUSH1 0x0 DUP3 ADD MSTORE POP JUMP JUMPDEST PUSH1 0x0 PUSH2 0x2CC8 PUSH1 0x12 DUP4 PUSH2 0x2775 JUMP JUMPDEST SWAP2 POP PUSH2 0x2CD3 DUP3 PUSH2 0x2C92 JUMP JUMPDEST PUSH1 0x20 DUP3 ADD SWAP1 POP SWAP2 SWAP1 POP JUMP JUMPDEST PUSH1 0x0 PUSH1 0x20 DUP3 ADD SWAP1 POP DUP2 DUP2 SUB PUSH1 0x0 DUP4 ADD MSTORE PUSH2 0x2CF7 DUP2 PUSH2 0x2CBB JUMP JUMPDEST SWAP1 POP SWAP2 SWAP1 POP JUMP JUMPDEST PUSH32 0x4E487B7100000000000000000000000000000000000000000000000000000000 PUSH1 0x0 MSTORE PUSH1 0x22 PUSH1 0x4 MSTORE PUSH1 0x24 PUSH1 0x0 REVERT JUMPDEST PUSH1 0x0 PUSH1 0x2 DUP3 DIV SWAP1 POP PUSH1 0x1 DUP3 AND DUP1 PUSH2 0x2D45 JUMPI PUSH1 0x7F DUP3 AND SWAP2 POP JUMPDEST PUSH1 0x20 DUP3 LT DUP2 EQ ISZERO PUSH2 0x2D59 JUMPI PUSH2 0x2D58 PUSH2 0x2CFE JUMP JUMPDEST JUMPDEST POP SWAP2 SWAP1 POP JUMP JUMPDEST PUSH1 0x0 DUP1 REVERT JUMPDEST PUSH1 0x0 DUP1 REVERT JUMPDEST PUSH1 0x0 PUSH8 0xFFFFFFFFFFFFFFFF DUP3 GT ISZERO PUSH2 0x2D84 JUMPI PUSH2 0x2D83 PUSH2 0x23A2 JUMP JUMPDEST JUMPDEST PUSH2 0x2D8D DUP3 PUSH2 0x2391 JUMP JUMPDEST SWAP1 POP PUSH1 0x20 DUP2 ADD SWAP1 POP SWAP2 SWAP1 POP JUMP JUMPDEST PUSH1 0x0 PUSH2 0x2DAD PUSH2 0x2DA8 DUP5 PUSH2 0x2D69 JUMP JUMPDEST PUSH2 0x2402 JUMP JUMPDEST SWAP1 POP DUP3 DUP2 MSTORE PUSH1 0x20 DUP2 ADD DUP5 DUP5 DUP5 ADD GT ISZERO PUSH2 0x2DC9 JUMPI PUSH2 0x2DC8 PUSH2 0x238C JUMP JUMPDEST JUMPDEST PUSH2 0x2DD4 DUP5 DUP3 DUP6 PUSH2 0x2786 JUMP JUMPDEST POP SWAP4 SWAP3 POP POP POP JUMP JUMPDEST PUSH1 0x0 DUP3 PUSH1 0x1F DUP4 ADD SLT PUSH2 0x2DF1 JUMPI PUSH2 0x2DF0 PUSH2 0x225A JUMP JUMPDEST JUMPDEST DUP2 MLOAD PUSH2 0x2E01 DUP5 DUP3 PUSH1 0x20 DUP7 ADD PUSH2 0x2D9A JUMP JUMPDEST SWAP2 POP POP SWAP3 SWAP2 POP POP JUMP JUMPDEST PUSH2 0x2E13 DUP2 PUSH2 0x27F2 JUMP JUMPDEST DUP2 EQ PUSH2 0x2E1E JUMPI PUSH1 0x0 DUP1 REVERT JUMPDEST POP JUMP JUMPDEST PUSH1 0x0 DUP2 MLOAD SWAP1 POP PUSH2 0x2E30 DUP2 PUSH2 0x2E0A JUMP JUMPDEST SWAP3 SWAP2 POP POP JUMP JUMPDEST PUSH1 0x0 PUSH1 0x60 DUP3 DUP5 SUB SLT ISZERO PUSH2 0x2E4C JUMPI PUSH2 0x2E4B PUSH2 0x2D5F JUMP JUMPDEST JUMPDEST PUSH2 0x2E56 PUSH1 0x60 PUSH2 0x2402 JUMP JUMPDEST SWAP1 POP PUSH1 0x0 PUSH2 0x2E66 DUP5 DUP3 DUP6 ADD PUSH2 0x2BE5 JUMP JUMPDEST PUSH1 0x0 DUP4 ADD MSTORE POP PUSH1 0x20 DUP3 ADD MLOAD PUSH8 0xFFFFFFFFFFFFFFFF DUP2 GT ISZERO PUSH2 0x2E8A JUMPI PUSH2 0x2E89 PUSH2 0x2D64 JUMP JUMPDEST JUMPDEST PUSH2 0x2E96 DUP5 DUP3 DUP6 ADD PUSH2 0x2DDC JUMP JUMPDEST PUSH1 0x20 DUP4 ADD MSTORE POP PUSH1 0x40 PUSH2 0x2EAA DUP5 DUP3 DUP6 ADD PUSH2 0x2E21 JUMP JUMPDEST PUSH1 0x40 DUP4 ADD MSTORE POP SWAP3 SWAP2 POP POP JUMP JUMPDEST PUSH1 0x0 PUSH1 0x20 DUP3 DUP5 SUB SLT ISZERO PUSH2 0x2ECC JUMPI PUSH2 0x2ECB PUSH2 0x221A JUMP JUMPDEST JUMPDEST PUSH1 0x0 DUP3 ADD MLOAD PUSH8 0xFFFFFFFFFFFFFFFF DUP2 GT ISZERO PUSH2 0x2EEA JUMPI PUSH2 0x2EE9 PUSH2 0x221F JUMP JUMPDEST JUMPDEST PUSH2 0x2EF6 DUP5 DUP3 DUP6 ADD PUSH2 0x2E36 JUMP JUMPDEST SWAP2 POP POP SWAP3 SWAP2 POP POP JUMP JUMPDEST PUSH2 0x2F08 DUP2 PUSH2 0x25B2 JUMP JUMPDEST DUP2 EQ PUSH2 0x2F13 JUMPI PUSH1 0x0 DUP1 REVERT JUMPDEST POP JUMP JUMPDEST PUSH1 0x0 DUP2 MLOAD SWAP1 POP PUSH2 0x2F25 DUP2 PUSH2 0x2EFF JUMP JUMPDEST SWAP3 SWAP2 POP POP JUMP JUMPDEST PUSH2 0x2F34 DUP2 PUSH2 0x25D0 JUMP JUMPDEST DUP2 EQ PUSH2 0x2F3F JUMPI PUSH1 0x0 DUP1 REVERT JUMPDEST POP JUMP JUMPDEST PUSH1 0x0 DUP2 MLOAD SWAP1 POP PUSH2 0x2F51 DUP2 PUSH2 0x2F2B JUMP JUMPDEST SWAP3 SWAP2 POP POP JUMP JUMPDEST PUSH2 0x2F60 DUP2 PUSH2 0x25EC JUMP JUMPDEST DUP2 EQ PUSH2 0x2F6B JUMPI PUSH1 0x0 DUP1 REVERT JUMPDEST POP JUMP JUMPDEST PUSH1 0x0 DUP2 MLOAD SWAP1 POP PUSH2 0x2F7D DUP2 PUSH2 0x2F57 JUMP JUMPDEST SWAP3 SWAP2 POP POP JUMP JUMPDEST PUSH2 0x2F8C DUP2 PUSH2 0x2609 JUMP JUMPDEST DUP2 EQ PUSH2 0x2F97 JUMPI PUSH1 0x0 DUP1 REVERT JUMPDEST POP JUMP JUMPDEST PUSH1 0x0 DUP2 MLOAD SWAP1 POP PUSH2 0x2FA9 DUP2 PUSH2 0x2F83 JUMP JUMPDEST SWAP3 SWAP2 POP POP JUMP JUMPDEST PUSH1 0x0 PUSH2 0x180 DUP3 DUP5 SUB SLT ISZERO PUSH2 0x2FC6 JUMPI PUSH2 0x2FC5 PUSH2 0x2D5F JUMP JUMPDEST JUMPDEST PUSH2 0x2FD1 PUSH2 0x180 PUSH2 0x2402 JUMP JUMPDEST SWAP1 POP PUSH1 0x0 PUSH2 0x2FE1 DUP5 DUP3 DUP6 ADD PUSH2 0x2BE5 JUMP JUMPDEST PUSH1 0x0 DUP4 ADD MSTORE POP PUSH1 0x20 PUSH2 0x2FF5 DUP5 DUP3 DUP6 ADD PUSH2 0x2F16 JUMP JUMPDEST PUSH1 0x20 DUP4 ADD MSTORE POP PUSH1 0x40 PUSH2 0x3009 DUP5 DUP3 DUP6 ADD PUSH2 0x2F16 JUMP JUMPDEST PUSH1 0x40 DUP4 ADD MSTORE POP PUSH1 0x60 PUSH2 0x301D DUP5 DUP3 DUP6 ADD PUSH2 0x2F16 JUMP JUMPDEST PUSH1 0x60 DUP4 ADD MSTORE POP PUSH1 0x80 PUSH2 0x3031 DUP5 DUP3 DUP6 ADD PUSH2 0x2F16 JUMP JUMPDEST PUSH1 0x80 DUP4 ADD MSTORE POP PUSH1 0xA0 PUSH2 0x3045 DUP5 DUP3 DUP6 ADD PUSH2 0x2F42 JUMP JUMPDEST PUSH1 0xA0 DUP4 ADD MSTORE POP PUSH1 0xC0 PUSH2 0x3059 DUP5 DUP3 DUP6 ADD PUSH2 0x2F6E JUMP JUMPDEST PUSH1 0xC0 DUP4 ADD MSTORE POP PUSH1 0xE0 PUSH2 0x306D DUP5 DUP3 DUP6 ADD PUSH2 0x2F6E JUMP JUMPDEST PUSH1 0xE0 DUP4 ADD MSTORE POP PUSH2 0x100 PUSH2 0x3082 DUP5 DUP3 DUP6 ADD PUSH2 0x2F9A JUMP JUMPDEST PUSH2 0x100 DUP4 ADD MSTORE POP PUSH2 0x120 PUSH2 0x3098 DUP5 DUP3 DUP6 ADD PUSH2 0x2F9A JUMP JUMPDEST PUSH2 0x120 DUP4 ADD MSTORE POP PUSH2 0x140 PUSH2 0x30AE DUP5 DUP3 DUP6 ADD PUSH2 0x2F9A JUMP JUMPDEST PUSH2 0x140 DUP4 ADD MSTORE POP PUSH2 0x160 PUSH2 0x30C4 DUP5 DUP3 DUP6 ADD PUSH2 0x2F9A JUMP JUMPDEST PUSH2 0x160 DUP4 ADD MSTORE POP SWAP3 SWAP2 POP POP JUMP JUMPDEST PUSH1 0x0 PUSH2 0x180 DUP3 DUP5 SUB SLT ISZERO PUSH2 0x30E8 JUMPI PUSH2 0x30E7 PUSH2 0x221A JUMP JUMPDEST JUMPDEST PUSH1 0x0 PUSH2 0x30F6 DUP5 DUP3 DUP6 ADD PUSH2 0x2FAF JUMP JUMPDEST SWAP2 POP POP SWAP3 SWAP2 POP POP JUMP JUMPDEST PUSH32 0x4E487B7100000000000000000000000000000000000000000000000000000000 PUSH1 0x0 MSTORE PUSH1 0x11 PUSH1 0x4 MSTORE PUSH1 0x24 PUSH1 0x0 REVERT JUMPDEST PUSH1 0x0 PUSH2 0x3139 DUP3 PUSH2 0x2599 JUMP JUMPDEST SWAP2 POP PUSH2 0x3144 DUP4 PUSH2 0x2599 JUMP JUMPDEST SWAP3 POP DUP3 PUSH32 0xFFFFFFFFFFFFFFFFFFFFFFFFFFFFFFFFFFFFFFFFFFFFFFFFFFFFFFFFFFFFFFFF SUB DUP3 GT ISZERO PUSH2 0x3179 JUMPI PUSH2 0x3178 PUSH2 0x30FF JUMP JUMPDEST JUMPDEST DUP3 DUP3 ADD SWAP1 POP SWAP3 SWAP2 POP POP JUMP JUMPDEST PUSH2 0x318D DUP2 PUSH2 0x2224 JUMP JUMPDEST DUP3 MSTORE POP POP JUMP JUMPDEST PUSH1 0x0 PUSH32 0xFFFFFFFF00000000000000000000000000000000000000000000000000000000 DUP3 AND SWAP1 POP SWAP2 SWAP1 POP JUMP JUMPDEST PUSH2 0x31C8 DUP2 PUSH2 0x3193 JUMP JUMPDEST DUP3 MSTORE POP POP JUMP JUMPDEST PUSH1 0x0 DUP2 MLOAD SWAP1 POP SWAP2 SWAP1 POP JUMP JUMPDEST PUSH1 0x0 DUP3 DUP3 MSTORE PUSH1 0x20 DUP3 ADD SWAP1 POP SWAP3 SWAP2 POP POP JUMP JUMPDEST PUSH1 0x0 PUSH2 0x31F5 DUP3 PUSH2 0x31CE JUMP JUMPDEST PUSH2 0x31FF DUP2 DUP6 PUSH2 0x31D9 JUMP JUMPDEST SWAP4 POP PUSH2 0x320F DUP2 DUP6 PUSH1 0x20 DUP7 ADD PUSH2 0x2786 JUMP JUMPDEST PUSH2 0x3218 DUP2 PUSH2 0x2391 JUMP JUMPDEST DUP5 ADD SWAP2 POP POP SWAP3 SWAP2 POP POP JUMP JUMPDEST PUSH1 0x0 PUSH2 0x100 DUP3 ADD SWAP1 POP PUSH2 0x3239 PUSH1 0x0 DUP4 ADD DUP12 PUSH2 0x2934 JUMP JUMPDEST PUSH2 0x3246 PUSH1 0x20 DUP4 ADD DUP11 PUSH2 0x25A3 JUMP JUMPDEST PUSH2 0x3253 PUSH1 0x40 DUP4 ADD DUP10 PUSH2 0x3184 JUMP JUMPDEST PUSH2 0x3260 PUSH1 0x60 DUP4 ADD DUP9 PUSH2 0x2934 JUMP JUMPDEST PUSH2 0x326D PUSH1 0x80 DUP4 ADD DUP8 PUSH2 0x31BF JUMP JUMPDEST PUSH2 0x327A PUSH1 0xA0 DUP4 ADD DUP7 PUSH2 0x25A3 JUMP JUMPDEST PUSH2 0x3287 PUSH1 0xC0 DUP4 ADD DUP6 PUSH2 0x25A3 JUMP JUMPDEST DUP2 DUP2 SUB PUSH1 0xE0 DUP4 ADD MSTORE PUSH2 0x3299 DUP2 DUP5 PUSH2 0x31EA JUMP JUMPDEST SWAP1 POP SWAP10 SWAP9 POP POP POP POP POP POP POP POP POP JUMP JUMPDEST PUSH32 0x4E487B7100000000000000000000000000000000000000000000000000000000 PUSH1 0x0 MSTORE PUSH1 0x12 PUSH1 0x4 MSTORE PUSH1 0x24 PUSH1 0x0 REVERT JUMPDEST PUSH1 0x0 PUSH2 0x32E2 DUP3 PUSH2 0x2599 JUMP JUMPDEST SWAP2 POP PUSH2 0x32ED DUP4 PUSH2 0x2599 JUMP JUMPDEST SWAP3 POP DUP3 PUSH2 0x32FD JUMPI PUSH2 0x32FC PUSH2 0x32A8 JUMP JUMPDEST JUMPDEST DUP3 DUP3 MOD SWAP1 POP SWAP3 SWAP2 POP POP JUMP JUMPDEST PUSH1 0x0 PUSH2 0x3313 DUP3 PUSH2 0x2599 JUMP JUMPDEST SWAP2 POP PUSH2 0x331E DUP4 PUSH2 0x2599 JUMP JUMPDEST SWAP3 POP DUP3 DUP3 LT ISZERO PUSH2 0x3331 JUMPI PUSH2 0x3330 PUSH2 0x30FF JUMP JUMPDEST JUMPDEST DUP3 DUP3 SUB SWAP1 POP SWAP3 SWAP2 POP POP JUMP JUMPDEST PUSH1 0x0 DUP2 SWAP1 POP SWAP2 SWAP1 POP JUMP JUMPDEST PUSH1 0x0 PUSH2 0x3361 PUSH2 0x335C PUSH2 0x3357 DUP5 PUSH2 0x26DF JUMP JUMPDEST PUSH2 0x333C JUMP JUMPDEST PUSH2 0x26DF JUMP JUMPDEST SWAP1 POP SWAP2 SWAP1 POP JUMP JUMPDEST PUSH1 0x0 PUSH2 0x3373 DUP3 PUSH2 0x3346 JUMP JUMPDEST SWAP1 POP SWAP2 SWAP1 POP JUMP JUMPDEST PUSH1 0x0 PUSH2 0x3385 DUP3 PUSH2 0x3368 JUMP JUMPDEST SWAP1 POP SWAP2 SWAP1 POP JUMP JUMPDEST PUSH1 0x0 DUP2 PUSH1 0x60 SHL SWAP1 POP SWAP2 SWAP1 POP JUMP JUMPDEST PUSH1 0x0 PUSH2 0x33A4 DUP3 PUSH2 0x338C JUMP JUMPDEST SWAP1 POP SWAP2 SWAP1 POP JUMP JUMPDEST PUSH1 0x0 PUSH2 0x33B6 DUP3 PUSH2 0x3399 JUMP JUMPDEST SWAP1 POP SWAP2 SWAP1 POP JUMP JUMPDEST PUSH2 0x33CE PUSH2 0x33C9 DUP3 PUSH2 0x337A JUMP JUMPDEST PUSH2 0x33AB JUMP JUMPDEST DUP3 MSTORE POP POP JUMP JUMPDEST PUSH1 0x0 DUP2 SWAP1 POP SWAP2 SWAP1 POP JUMP JUMPDEST PUSH2 0x33EF PUSH2 0x33EA DUP3 PUSH2 0x2599 JUMP JUMPDEST PUSH2 0x33D4 JUMP JUMPDEST DUP3 MSTORE POP POP JUMP JUMPDEST PUSH1 0x0 PUSH2 0x3401 DUP3 DUP6 PUSH2 0x33BD JUMP JUMPDEST PUSH1 0x14 DUP3 ADD SWAP2 POP PUSH2 0x3411 DUP3 DUP5 PUSH2 0x33DE JUMP JUMPDEST PUSH1 0x20 DUP3 ADD SWAP2 POP DUP2 SWAP1 POP SWAP4 SWAP3 POP POP POP JUMP JUMPDEST PUSH1 0x0 PUSH1 0x60 DUP3 ADD SWAP1 POP PUSH2 0x3436 PUSH1 0x0 DUP4 ADD DUP7 PUSH2 0x2934 JUMP JUMPDEST PUSH2 0x3443 PUSH1 0x20 DUP4 ADD DUP6 PUSH2 0x25A3 JUMP JUMPDEST DUP2 DUP2 SUB PUSH1 0x40 DUP4 ADD MSTORE PUSH2 0x3455 DUP2 DUP5 PUSH2 0x31EA JUMP JUMPDEST SWAP1 POP SWAP5 SWAP4 POP POP POP POP JUMP JUMPDEST PUSH32 0x756E61626C6520746F207472616E73666572416E6443616C6C20746F206F7261 PUSH1 0x0 DUP3 ADD MSTORE PUSH32 0x636C650000000000000000000000000000000000000000000000000000000000 PUSH1 0x20 DUP3 ADD MSTORE POP JUMP JUMPDEST PUSH1 0x0 PUSH2 0x34BB PUSH1 0x23 DUP4 PUSH2 0x2775 JUMP JUMPDEST SWAP2 POP PUSH2 0x34C6 DUP3 PUSH2 0x345F JUMP JUMPDEST PUSH1 0x40 DUP3 ADD SWAP1 POP SWAP2 SWAP1 POP JUMP JUMPDEST PUSH1 0x0 PUSH1 0x20 DUP3 ADD SWAP1 POP DUP2 DUP2 SUB PUSH1 0x0 DUP4 ADD MSTORE PUSH2 0x34EA DUP2 PUSH2 0x34AE JUMP JUMPDEST SWAP1 POP SWAP2 SWAP1 POP JUMP JUMPDEST PUSH1 0x0 PUSH2 0x34FC DUP3 PUSH2 0x2599 JUMP JUMPDEST SWAP2 POP PUSH2 0x3507 DUP4 PUSH2 0x2599 JUMP JUMPDEST SWAP3 POP DUP2 PUSH32 0xFFFFFFFFFFFFFFFFFFFFFFFFFFFFFFFFFFFFFFFFFFFFFFFFFFFFFFFFFFFFFFFF DIV DUP4 GT DUP3 ISZERO ISZERO AND ISZERO PUSH2 0x3540 JUMPI PUSH2 0x353F PUSH2 0x30FF JUMP JUMPDEST JUMPDEST DUP3 DUP3 MUL SWAP1 POP SWAP3 SWAP2 POP POP JUMP JUMPDEST PUSH1 0x0 DUP2 PUSH1 0x1 SHR SWAP1 POP SWAP2 SWAP1 POP JUMP JUMPDEST PUSH1 0x0 DUP1 DUP3 SWAP2 POP DUP4 SWAP1 POP JUMPDEST PUSH1 0x1 DUP6 GT ISZERO PUSH2 0x35A2 JUMPI DUP1 DUP7 DIV DUP2 GT ISZERO PUSH2 0x357E JUMPI PUSH2 0x357D PUSH2 0x30FF JUMP JUMPDEST JUMPDEST PUSH1 0x1 DUP6 AND ISZERO PUSH2 0x358D JUMPI DUP1 DUP3 MUL SWAP2 POP JUMPDEST DUP1 DUP2 MUL SWAP1 POP PUSH2 0x359B DUP6 PUSH2 0x354B JUMP JUMPDEST SWAP5 POP PUSH2 0x3562 JUMP JUMPDEST SWAP5 POP SWAP5 SWAP3 POP POP POP JUMP JUMPDEST PUSH1 0x0 DUP3 PUSH2 0x35BB JUMPI PUSH1 0x1 SWAP1 POP PUSH2 0x3677 JUMP JUMPDEST DUP2 PUSH2 0x35C9 JUMPI PUSH1 0x0 SWAP1 POP PUSH2 0x3677 JUMP JUMPDEST DUP2 PUSH1 0x1 DUP2 EQ PUSH2 0x35DF JUMPI PUSH1 0x2 DUP2 EQ PUSH2 0x35E9 JUMPI PUSH2 0x3618 JUMP JUMPDEST PUSH1 0x1 SWAP2 POP POP PUSH2 0x3677 JUMP JUMPDEST PUSH1 0xFF DUP5 GT ISZERO PUSH2 0x35FB JUMPI PUSH2 0x35FA PUSH2 0x30FF JUMP JUMPDEST JUMPDEST DUP4 PUSH1 0x2 EXP SWAP2 POP DUP5 DUP3 GT ISZERO PUSH2 0x3612 JUMPI PUSH2 0x3611 PUSH2 0x30FF JUMP JUMPDEST JUMPDEST POP PUSH2 0x3677 JUMP JUMPDEST POP PUSH1 0x20 DUP4 LT PUSH2 0x133 DUP4 LT AND PUSH1 0x4E DUP5 LT PUSH1 0xB DUP5 LT AND OR ISZERO PUSH2 0x364D JUMPI DUP3 DUP3 EXP SWAP1 POP DUP4 DUP2 GT ISZERO PUSH2 0x3648 JUMPI PUSH2 0x3647 PUSH2 0x30FF JUMP JUMPDEST JUMPDEST PUSH2 0x3677 JUMP JUMPDEST PUSH2 0x365A DUP5 DUP5 DUP5 PUSH1 0x1 PUSH2 0x3558 JUMP JUMPDEST SWAP3 POP SWAP1 POP DUP2 DUP5 DIV DUP2 GT ISZERO PUSH2 0x3671 JUMPI PUSH2 0x3670 PUSH2 0x30FF JUMP JUMPDEST JUMPDEST DUP2 DUP2 MUL SWAP1 POP JUMPDEST SWAP4 SWAP3 POP POP POP JUMP JUMPDEST PUSH1 0x0 PUSH2 0x3689 DUP3 PUSH2 0x2599 JUMP JUMPDEST SWAP2 POP PUSH2 0x3694 DUP4 PUSH2 0x2599 JUMP JUMPDEST SWAP3 POP PUSH2 0x36C1 PUSH32 0xFFFFFFFFFFFFFFFFFFFFFFFFFFFFFFFFFFFFFFFFFFFFFFFFFFFFFFFFFFFFFFFF DUP5 DUP5 PUSH2 0x35AB JUMP JUMPDEST SWAP1 POP SWAP3 SWAP2 POP POP JUMP INVALID LOG2 PUSH5 0x6970667358 0x22 SLT KECCAK256 0x22 MSTORE SWAP1 0x2E GASLIMIT 0xBE 0xC2 PUSH26 0x77C570A116250AAC4E219F8C21769A6CEF0F20BB7576731E6473 PUSH16 0x6C634300080900330000000000000000 "
				},
				"gasEstimates": {
					"creation": {
						"codeDepositCost": "2815800",
						"executionCost": "infinite",
						"totalCost": "infinite"
					},
					"external": {
						"fee()": "2451",
						"fulfillCurrentConditions(bytes32,bytes)": "infinite",
						"fulfillLocation(bytes32,bool,bytes)": "infinite",
						"fulfillLocationCurrentConditions(bytes32,bool,bytes,bytes)": "infinite",
						"getOracleAddress()": "2602",
						"requestCurrentConditions(bytes32,uint256,string)": "infinite",
						"requestIdCurrentConditionsResult(bytes32)": "infinite",
						"requestIdLocationResult(bytes32)": "infinite",
						"requestIdRequestParams(bytes32)": "infinite",
						"requestLocation(bytes32,string,string)": "infinite",
						"requestLocationCurrentConditions(bytes32,string,string,string)": "infinite",
						"setOracle(address)": "24818",
						"withdrawLink()": "infinite"
					},
					"internal": {
						"storeCurrentConditionsResult(bytes32,bytes memory)": "infinite",
						"storeLocationResult(bytes32,bytes memory)": "infinite",
						"storeRequestParams(bytes32,uint256,string memory,string memory,string memory,string memory)": "infinite"
					}
				},
				"methodIdentifiers": {
					"fee()": "ddca3f43",
					"fulfillCurrentConditions(bytes32,bytes)": "e13caa63",
					"fulfillLocation(bytes32,bool,bytes)": "dffe2894",
					"fulfillLocationCurrentConditions(bytes32,bool,bytes,bytes)": "371eaced",
					"getOracleAddress()": "b18b78dd",
					"requestCurrentConditions(bytes32,uint256,string)": "b69293e3",
					"requestIdCurrentConditionsResult(bytes32)": "37b95e86",
					"requestIdLocationResult(bytes32)": "9c2b98fb",
					"requestIdRequestParams(bytes32)": "ed6a7175",
					"requestLocation(bytes32,string,string)": "022f2b87",
					"requestLocationCurrentConditions(bytes32,string,string,string)": "9e1e86c0",
					"setOracle(address)": "7adbf973",
					"withdrawLink()": "8dc654a2"
				}
			},
			"storageLayout": {
				"storage": [
					{
						"astId": 319,
						"contract": "dynamic_nft/test_yongh/test.sol:AccuweatherConsumer",
						"label": "s_ens",
						"offset": 0,
						"slot": "0",
						"type": "t_contract(ENSInterface)974"
					},
					{
						"astId": 321,
						"contract": "dynamic_nft/test_yongh/test.sol:AccuweatherConsumer",
						"label": "s_ensNode",
						"offset": 0,
						"slot": "1",
						"type": "t_bytes32"
					},
					{
						"astId": 324,
						"contract": "dynamic_nft/test_yongh/test.sol:AccuweatherConsumer",
						"label": "s_link",
						"offset": 0,
						"slot": "2",
						"type": "t_contract(LinkTokenInterface)1069"
					},
					{
						"astId": 327,
						"contract": "dynamic_nft/test_yongh/test.sol:AccuweatherConsumer",
						"label": "s_oracle",
						"offset": 0,
						"slot": "3",
						"type": "t_contract(OperatorInterface)1149"
					},
					{
						"astId": 330,
						"contract": "dynamic_nft/test_yongh/test.sol:AccuweatherConsumer",
						"label": "s_requestCount",
						"offset": 0,
						"slot": "4",
						"type": "t_uint256"
					},
					{
						"astId": 334,
						"contract": "dynamic_nft/test_yongh/test.sol:AccuweatherConsumer",
						"label": "s_pendingRequests",
						"offset": 0,
						"slot": "5",
						"type": "t_mapping(t_bytes32,t_address)"
					},
					{
						"astId": 2233,
						"contract": "dynamic_nft/test_yongh/test.sol:AccuweatherConsumer",
						"label": "requestIdCurrentConditionsResult",
						"offset": 0,
						"slot": "6",
						"type": "t_mapping(t_bytes32,t_struct(CurrentConditionsResult)2228_storage)"
					},
					{
						"astId": 2238,
						"contract": "dynamic_nft/test_yongh/test.sol:AccuweatherConsumer",
						"label": "requestIdLocationResult",
						"offset": 0,
						"slot": "7",
						"type": "t_mapping(t_bytes32,t_struct(LocationResult)2203_storage)"
					},
					{
						"astId": 2243,
						"contract": "dynamic_nft/test_yongh/test.sol:AccuweatherConsumer",
						"label": "requestIdRequestParams",
						"offset": 0,
						"slot": "8",
						"type": "t_mapping(t_bytes32,t_struct(RequestParams)2196_storage)"
					},
					{
						"astId": 2245,
						"contract": "dynamic_nft/test_yongh/test.sol:AccuweatherConsumer",
						"label": "fee",
						"offset": 0,
						"slot": "9",
						"type": "t_uint256"
					}
				],
				"types": {
					"t_address": {
						"encoding": "inplace",
						"label": "address",
						"numberOfBytes": "20"
					},
					"t_bytes2": {
						"encoding": "inplace",
						"label": "bytes2",
						"numberOfBytes": "2"
					},
					"t_bytes32": {
						"encoding": "inplace",
						"label": "bytes32",
						"numberOfBytes": "32"
					},
					"t_contract(ENSInterface)974": {
						"encoding": "inplace",
						"label": "contract ENSInterface",
						"numberOfBytes": "20"
					},
					"t_contract(LinkTokenInterface)1069": {
						"encoding": "inplace",
						"label": "contract LinkTokenInterface",
						"numberOfBytes": "20"
					},
					"t_contract(OperatorInterface)1149": {
						"encoding": "inplace",
						"label": "contract OperatorInterface",
						"numberOfBytes": "20"
					},
					"t_int16": {
						"encoding": "inplace",
						"label": "int16",
						"numberOfBytes": "2"
					},
					"t_mapping(t_bytes32,t_address)": {
						"encoding": "mapping",
						"key": "t_bytes32",
						"label": "mapping(bytes32 => address)",
						"numberOfBytes": "32",
						"value": "t_address"
					},
					"t_mapping(t_bytes32,t_struct(CurrentConditionsResult)2228_storage)": {
						"encoding": "mapping",
						"key": "t_bytes32",
						"label": "mapping(bytes32 => struct AccuweatherConsumer.CurrentConditionsResult)",
						"numberOfBytes": "32",
						"value": "t_struct(CurrentConditionsResult)2228_storage"
					},
					"t_mapping(t_bytes32,t_struct(LocationResult)2203_storage)": {
						"encoding": "mapping",
						"key": "t_bytes32",
						"label": "mapping(bytes32 => struct AccuweatherConsumer.LocationResult)",
						"numberOfBytes": "32",
						"value": "t_struct(LocationResult)2203_storage"
					},
					"t_mapping(t_bytes32,t_struct(RequestParams)2196_storage)": {
						"encoding": "mapping",
						"key": "t_bytes32",
						"label": "mapping(bytes32 => struct AccuweatherConsumer.RequestParams)",
						"numberOfBytes": "32",
						"value": "t_struct(RequestParams)2196_storage"
					},
					"t_string_storage": {
						"encoding": "bytes",
						"label": "string",
						"numberOfBytes": "32"
					},
					"t_struct(CurrentConditionsResult)2228_storage": {
						"encoding": "inplace",
						"label": "struct AccuweatherConsumer.CurrentConditionsResult",
						"members": [
							{
								"astId": 2205,
								"contract": "dynamic_nft/test_yongh/test.sol:AccuweatherConsumer",
								"label": "timestamp",
								"offset": 0,
								"slot": "0",
								"type": "t_uint256"
							},
							{
								"astId": 2207,
								"contract": "dynamic_nft/test_yongh/test.sol:AccuweatherConsumer",
								"label": "precipitationPast12Hours",
								"offset": 0,
								"slot": "1",
								"type": "t_uint24"
							},
							{
								"astId": 2209,
								"contract": "dynamic_nft/test_yongh/test.sol:AccuweatherConsumer",
								"label": "precipitationPast24Hours",
								"offset": 3,
								"slot": "1",
								"type": "t_uint24"
							},
							{
								"astId": 2211,
								"contract": "dynamic_nft/test_yongh/test.sol:AccuweatherConsumer",
								"label": "precipitationPastHour",
								"offset": 6,
								"slot": "1",
								"type": "t_uint24"
							},
							{
								"astId": 2213,
								"contract": "dynamic_nft/test_yongh/test.sol:AccuweatherConsumer",
								"label": "pressure",
								"offset": 9,
								"slot": "1",
								"type": "t_uint24"
							},
							{
								"astId": 2215,
								"contract": "dynamic_nft/test_yongh/test.sol:AccuweatherConsumer",
								"label": "temperature",
								"offset": 12,
								"slot": "1",
								"type": "t_int16"
							},
							{
								"astId": 2217,
								"contract": "dynamic_nft/test_yongh/test.sol:AccuweatherConsumer",
								"label": "windDirectionDegrees",
								"offset": 14,
								"slot": "1",
								"type": "t_uint16"
							},
							{
								"astId": 2219,
								"contract": "dynamic_nft/test_yongh/test.sol:AccuweatherConsumer",
								"label": "windSpeed",
								"offset": 16,
								"slot": "1",
								"type": "t_uint16"
							},
							{
								"astId": 2221,
								"contract": "dynamic_nft/test_yongh/test.sol:AccuweatherConsumer",
								"label": "precipitationType",
								"offset": 18,
								"slot": "1",
								"type": "t_uint8"
							},
							{
								"astId": 2223,
								"contract": "dynamic_nft/test_yongh/test.sol:AccuweatherConsumer",
								"label": "relativeHumidity",
								"offset": 19,
								"slot": "1",
								"type": "t_uint8"
							},
							{
								"astId": 2225,
								"contract": "dynamic_nft/test_yongh/test.sol:AccuweatherConsumer",
								"label": "uvIndex",
								"offset": 20,
								"slot": "1",
								"type": "t_uint8"
							},
							{
								"astId": 2227,
								"contract": "dynamic_nft/test_yongh/test.sol:AccuweatherConsumer",
								"label": "weatherIcon",
								"offset": 21,
								"slot": "1",
								"type": "t_uint8"
							}
						],
						"numberOfBytes": "64"
					},
					"t_struct(LocationResult)2203_storage": {
						"encoding": "inplace",
						"label": "struct AccuweatherConsumer.LocationResult",
						"members": [
							{
								"astId": 2198,
								"contract": "dynamic_nft/test_yongh/test.sol:AccuweatherConsumer",
								"label": "locationKey",
								"offset": 0,
								"slot": "0",
								"type": "t_uint256"
							},
							{
								"astId": 2200,
								"contract": "dynamic_nft/test_yongh/test.sol:AccuweatherConsumer",
								"label": "name",
								"offset": 0,
								"slot": "1",
								"type": "t_string_storage"
							},
							{
								"astId": 2202,
								"contract": "dynamic_nft/test_yongh/test.sol:AccuweatherConsumer",
								"label": "countryCode",
								"offset": 0,
								"slot": "2",
								"type": "t_bytes2"
							}
						],
						"numberOfBytes": "96"
					},
					"t_struct(RequestParams)2196_storage": {
						"encoding": "inplace",
						"label": "struct AccuweatherConsumer.RequestParams",
						"members": [
							{
								"astId": 2187,
								"contract": "dynamic_nft/test_yongh/test.sol:AccuweatherConsumer",
								"label": "locationKey",
								"offset": 0,
								"slot": "0",
								"type": "t_uint256"
							},
							{
								"astId": 2189,
								"contract": "dynamic_nft/test_yongh/test.sol:AccuweatherConsumer",
								"label": "endpoint",
								"offset": 0,
								"slot": "1",
								"type": "t_string_storage"
							},
							{
								"astId": 2191,
								"contract": "dynamic_nft/test_yongh/test.sol:AccuweatherConsumer",
								"label": "lat",
								"offset": 0,
								"slot": "2",
								"type": "t_string_storage"
							},
							{
								"astId": 2193,
								"contract": "dynamic_nft/test_yongh/test.sol:AccuweatherConsumer",
								"label": "lon",
								"offset": 0,
								"slot": "3",
								"type": "t_string_storage"
							},
							{
								"astId": 2195,
								"contract": "dynamic_nft/test_yongh/test.sol:AccuweatherConsumer",
								"label": "units",
								"offset": 0,
								"slot": "4",
								"type": "t_string_storage"
							}
						],
						"numberOfBytes": "160"
					},
					"t_uint16": {
						"encoding": "inplace",
						"label": "uint16",
						"numberOfBytes": "2"
					},
					"t_uint24": {
						"encoding": "inplace",
						"label": "uint24",
						"numberOfBytes": "3"
					},
					"t_uint256": {
						"encoding": "inplace",
						"label": "uint256",
						"numberOfBytes": "32"
					},
					"t_uint8": {
						"encoding": "inplace",
						"label": "uint8",
						"numberOfBytes": "1"
					}
				}
			},
			"userdoc": {
				"kind": "user",
				"methods": {
					"fulfillCurrentConditions(bytes32,bytes)": {
						"notice": "Consumes the data returned by the node job on a particular request."
					},
					"fulfillLocation(bytes32,bool,bytes)": {
						"notice": "Consumes the data returned by the node job on a particular request."
					},
					"fulfillLocationCurrentConditions(bytes32,bool,bytes,bytes)": {
						"notice": "Consumes the data returned by the node job on a particular request."
					},
					"requestCurrentConditions(bytes32,uint256,string)": {
						"notice": "Returns the current weather conditions of a location by ID."
					},
					"requestLocation(bytes32,string,string)": {
						"notice": "Returns the location information for the given coordinates."
					},
					"requestLocationCurrentConditions(bytes32,string,string,string)": {
						"notice": "Returns the current weather conditions of a location for the given coordinates."
					}
				},
				"notice": "Request the current weather conditions for the given location coordinates (i.e. latitude an d longitude).",
				"version": 1
			}
		}
	}
}