{
	"data": {
		"bytecode": {
			"linkReferences": {},
			"object": "608060405260016004553480156200001657600080fd5b50604051620038bd380380620038bd83398181016040528101906200003c919062000167565b6200004d826200007560201b60201c565b6200005e81620000b960201b60201c565b670de0b6b3a76400006009819055505050620001ae565b80600260006101000a81548173ffffffffffffffffffffffffffffffffffffffff021916908373ffffffffffffffffffffffffffffffffffffffff16021790555050565b80600360006101000a81548173ffffffffffffffffffffffffffffffffffffffff021916908373ffffffffffffffffffffffffffffffffffffffff16021790555050565b600080fd5b600073ffffffffffffffffffffffffffffffffffffffff82169050919050565b60006200012f8262000102565b9050919050565b620001418162000122565b81146200014d57600080fd5b50565b600081519050620001618162000136565b92915050565b60008060408385031215620001815762000180620000fd565b5b6000620001918582860162000150565b9250506020620001a48582860162000150565b9150509250929050565b6136ff80620001be6000396000f3fe608060405234801561001057600080fd5b50600436106100cf5760003560e01c80639e1e86c01161008c578063ddca3f4311610066578063ddca3f43146101f5578063dffe289414610213578063e13caa631461022f578063ed6a71751461024b576100cf565b80639e1e86c01461019f578063b18b78dd146101bb578063b69293e3146101d9576100cf565b8063022f2b87146100d4578063371eaced146100f057806337b95e861461010c5780637adbf973146101475780638dc654a2146101635780639c2b98fb1461016d575b600080fd5b6100ee60048036038101906100e991906122bf565b61027f565b005b61010a600480360381019061010591906124cd565b610524565b005b6101266004803603810190610121919061256c565b61064b565b60405161013e9c9b9a99989796959493929190612625565b60405180910390f35b610161600480360381019061015c919061273d565b610744565b005b61016b610750565b005b6101876004803603810190610182919061256c565b6108b3565b6040516101969392919061282d565b60405180910390f35b6101b960048036038101906101b4919061286b565b610972565b005b6101c3610cdc565b6040516101d09190612943565b60405180910390f35b6101f360048036038101906101ee919061298a565b610ceb565b005b6101fd610f61565b60405161020a91906129fe565b60405180910390f35b61022d60048036038101906102289190612a19565b610f67565b005b61024960048036038101906102449190612a88565b611083565b005b6102656004803603810190610260919061256c565b611197565b604051610276959493929190612ae4565b60405180910390f35b6000610293863063dffe289460e01b6113ed565b90506103146040518060400160405280600881526020017f656e64706f696e740000000000000000000000000000000000000000000000008152506040518060400160405280600881526020017f6c6f636174696f6e0000000000000000000000000000000000000000000000008152508361141e9092919063ffffffff16565b6103a26040518060400160405280600381526020017f6c6174000000000000000000000000000000000000000000000000000000000081525086868080601f016020809104026020016040519081016040528093929190818152602001838380828437600081840152601f19601f820116905080830192505050505050508361141e9092919063ffffffff16565b6104306040518060400160405280600381526020017f6c6f6e000000000000000000000000000000000000000000000000000000000081525084848080601f016020809104026020016040519081016040528093929190818152602001838380828437600081840152601f19601f820116905080830192505050505050508361141e9092919063ffffffff16565b600061043e82600954611451565b905061051b8160006040518060400160405280600881526020017f6c6f636174696f6e00000000000000000000000000000000000000000000000081525089898080601f016020809104026020016040519081016040528093929190818152602001838380828437600081840152601f19601f8201169050808301925050505050505088888080601f016020809104026020016040519081016040528093929190818152602001838380828437600081840152601f19601f8201169050808301925050505050505060405180602001604052806000815250611488565b50505050505050565b836005600082815260200190815260200160002060009054906101000a900473ffffffffffffffffffffffffffffffffffffffff1673ffffffffffffffffffffffffffffffffffffffff163373ffffffffffffffffffffffffffffffffffffffff16146105c6576040517f08c379a00000000000000000000000000000000000000000000000000000000081526004016105bd90612bc5565b60405180910390fd5b6005600082815260200190815260200160002060006101000a81549073ffffffffffffffffffffffffffffffffffffffff0219169055807f7cc135e0cebb02c3480ae5d74d377283180a2601f8f644edf7987b009316c63a60405160405180910390a2831561064457610639858461155c565b61064385836115d9565b5b5050505050565b60066020528060005260406000206000915090508060000154908060010160009054906101000a900462ffffff16908060010160039054906101000a900462ffffff16908060010160069054906101000a900462ffffff16908060010160099054906101000a900462ffffff169080600101600c9054906101000a900460010b9080600101600e9054906101000a900461ffff16908060010160109054906101000a900461ffff16908060010160129054906101000a900460ff16908060010160139054906101000a900460ff16908060010160149054906101000a900460ff16908060010160159054906101000a900460ff1690508c565b61074d8161179f565b50565b600061075a6117e3565b90508073ffffffffffffffffffffffffffffffffffffffff1663a9059cbb338373ffffffffffffffffffffffffffffffffffffffff166370a08231306040518263ffffffff1660e01b81526004016107b29190612943565b60206040518083038186803b1580156107ca57600080fd5b505afa1580156107de573d6000803e3d6000fd5b505050506040513d601f19601f820116820180604052508101906108029190612bfa565b6040518363ffffffff1660e01b815260040161081f929190612c27565b602060405180830381600087803b15801561083957600080fd5b505af115801561084d573d6000803e3d6000fd5b505050506040513d601f19601f820116820180604052508101906108719190612c65565b6108b0576040517f08c379a00000000000000000000000000000000000000000000000000000000081526004016108a790612cde565b60405180910390fd5b50565b60076020528060005260406000206000915090508060000154908060010180546108dc90612d2d565b80601f016020809104026020016040519081016040528092919081815260200182805461090890612d2d565b80156109555780601f1061092a57610100808354040283529160200191610955565b820191906000526020600020905b81548152906001019060200180831161093857829003601f168201915b5050505050908060020160009054906101000a900460f01b905083565b6000610986883063371eaced60e01b6113ed565b9050610a076040518060400160405280600881526020017f656e64706f696e740000000000000000000000000000000000000000000000008152506040518060400160405280601b81526020017f6c6f636174696f6e2d63757272656e742d636f6e646974696f6e7300000000008152508361141e9092919063ffffffff16565b610a956040518060400160405280600381526020017f6c6174000000000000000000000000000000000000000000000000000000000081525088888080601f016020809104026020016040519081016040528093929190818152602001838380828437600081840152601f19601f820116905080830192505050505050508361141e9092919063ffffffff16565b610b236040518060400160405280600381526020017f6c6f6e000000000000000000000000000000000000000000000000000000000081525086868080601f016020809104026020016040519081016040528093929190818152602001838380828437600081840152601f19601f820116905080830192505050505050508361141e9092919063ffffffff16565b610bb16040518060400160405280600581526020017f756e69747300000000000000000000000000000000000000000000000000000081525084848080601f016020809104026020016040519081016040528093929190818152602001838380828437600081840152601f19601f820116905080830192505050505050508361141e9092919063ffffffff16565b6000610bbf82600954611451565b9050610cd18160006040518060400160405280601b81526020017f6c6f636174696f6e2d63757272656e742d636f6e646974696f6e7300000000008152508b8b8080601f016020809104026020016040519081016040528093929190818152602001838380828437600081840152601f19601f820116905080830192505050505050508a8a8080601f016020809104026020016040519081016040528093929190818152602001838380828437600081840152601f19601f8201169050808301925050505050505089898080601f016020809104026020016040519081016040528093929190818152602001838380828437600081840152601f19601f82011690508083019250505050505050611488565b505050505050505050565b6000610ce661180d565b905090565b6000610cff853063e13caa6360e01b6113ed565b9050610d806040518060400160405280600881526020017f656e64706f696e740000000000000000000000000000000000000000000000008152506040518060400160405280601281526020017f63757272656e742d636f6e646974696f6e7300000000000000000000000000008152508361141e9092919063ffffffff16565b610dca6040518060400160405280600b81526020017f6c6f636174696f6e4b657900000000000000000000000000000000000000000081525085836118379092919063ffffffff16565b610e586040518060400160405280600581526020017f756e69747300000000000000000000000000000000000000000000000000000081525084848080601f016020809104026020016040519081016040528093929190818152602001838380828437600081840152601f19601f820116905080830192505050505050508361141e9092919063ffffffff16565b6000610e6682600954611451565b9050610f5981866040518060400160405280601281526020017f63757272656e742d636f6e646974696f6e7300000000000000000000000000008152506040518060400160405280600181526020017f30000000000000000000000000000000000000000000000000000000000000008152506040518060400160405280600181526020017f300000000000000000000000000000000000000000000000000000000000000081525089898080601f016020809104026020016040519081016040528093929190818152602001838380828437600081840152601f19601f82011690508083019250505050505050611488565b505050505050565b60095481565b826005600082815260200190815260200160002060009054906101000a900473ffffffffffffffffffffffffffffffffffffffff1673ffffffffffffffffffffffffffffffffffffffff163373ffffffffffffffffffffffffffffffffffffffff1614611009576040517f08c379a000000000000000000000000000000000000000000000000000000000815260040161100090612bc5565b60405180910390fd5b6005600082815260200190815260200160002060006101000a81549073ffffffffffffffffffffffffffffffffffffffff0219169055807f7cc135e0cebb02c3480ae5d74d377283180a2601f8f644edf7987b009316c63a60405160405180910390a2821561107d5761107c848361155c565b5b50505050565b816005600082815260200190815260200160002060009054906101000a900473ffffffffffffffffffffffffffffffffffffffff1673ffffffffffffffffffffffffffffffffffffffff163373ffffffffffffffffffffffffffffffffffffffff1614611125576040517f08c379a000000000000000000000000000000000000000000000000000000000815260040161111c90612bc5565b60405180910390fd5b6005600082815260200190815260200160002060006101000a81549073ffffffffffffffffffffffffffffffffffffffff0219169055807f7cc135e0cebb02c3480ae5d74d377283180a2601f8f644edf7987b009316c63a60405160405180910390a261119283836115d9565b505050565b60086020528060005260406000206000915090508060000154908060010180546111c090612d2d565b80601f01602080910402602001604051908101604052809291908181526020018280546111ec90612d2d565b80156112395780601f1061120e57610100808354040283529160200191611239565b820191906000526020600020905b81548152906001019060200180831161121c57829003601f168201915b50505050509080600201805461124e90612d2d565b80601f016020809104026020016040519081016040528092919081815260200182805461127a90612d2d565b80156112c75780601f1061129c576101008083540402835291602001916112c7565b820191906000526020600020905b8154815290600101906020018083116112aa57829003601f168201915b5050505050908060030180546112dc90612d2d565b80601f016020809104026020016040519081016040528092919081815260200182805461130890612d2d565b80156113555780601f1061132a57610100808354040283529160200191611355565b820191906000526020600020905b81548152906001019060200180831161133857829003601f168201915b50505050509080600401805461136a90612d2d565b80601f016020809104026020016040519081016040528092919081815260200182805461139690612d2d565b80156113e35780601f106113b8576101008083540402835291602001916113e3565b820191906000526020600020905b8154815290600101906020018083116113c657829003601f168201915b5050505050905085565b6113f56120b7565b6113fd6120b7565b6114148585858461186a909392919063ffffffff16565b9150509392505050565b61143582846080015161191a90919063ffffffff16565b61144c81846080015161191a90919063ffffffff16565b505050565b6000611480600360009054906101000a900473ffffffffffffffffffffffffffffffffffffffff16848461193f565b905092915050565b611490612124565b8581600001818152505084816020018190525083816040018190525082816060018190525081816080018190525080600860008981526020019081526020016000206000820151816000015560208201518160010190805190602001906114f8929190612153565b506040820151816002019080519060200190611515929190612153565b506060820151816003019080519060200190611532929190612153565b50608082015181600401908051906020019061154f929190612153565b5090505050505050505050565b6000818060200190518101906115729190612eb6565b905080600760008581526020019081526020016000206000820151816000015560208201518160010190805190602001906115ae929190612153565b5060408201518160020160006101000a81548161ffff021916908360f01c0217905550905050505050565b6000818060200190518101906115ef91906130d1565b905080600660008581526020019081526020016000206000820151816000015560208201518160010160006101000a81548162ffffff021916908362ffffff16021790555060408201518160010160036101000a81548162ffffff021916908362ffffff16021790555060608201518160010160066101000a81548162ffffff021916908362ffffff16021790555060808201518160010160096101000a81548162ffffff021916908362ffffff16021790555060a082015181600101600c6101000a81548161ffff021916908360010b61ffff16021790555060c082015181600101600e6101000a81548161ffff021916908361ffff16021790555060e08201518160010160106101000a81548161ffff021916908361ffff1602179055506101008201518160010160126101000a81548160ff021916908360ff1602179055506101208201518160010160136101000a81548160ff021916908360ff1602179055506101408201518160010160146101000a81548160ff021916908360ff1602179055506101608201518160010160156101000a81548160ff021916908360ff160217905550905050505050565b80600360006101000a81548173ffffffffffffffffffffffffffffffffffffffff021916908373ffffffffffffffffffffffffffffffffffffffff16021790555050565b6000600260009054906101000a900473ffffffffffffffffffffffffffffffffffffffff16905090565b6000600360009054906101000a900473ffffffffffffffffffffffffffffffffffffffff16905090565b61184e82846080015161191a90919063ffffffff16565b611865818460800151611a0b90919063ffffffff16565b505050565b6118726120b7565b6118828560800151610100611a3b565b508385600001818152505082856020019073ffffffffffffffffffffffffffffffffffffffff16908173ffffffffffffffffffffffffffffffffffffffff16815250508185604001907bffffffffffffffffffffffffffffffffffffffffffffffffffffffff191690817bffffffffffffffffffffffffffffffffffffffffffffffffffffffff191681525050849050949350505050565b6119278260038351611aa5565b61193a8183611c2a90919063ffffffff16565b505050565b6000806004549050600181611954919061312e565b6004819055506000634042994660e01b60008087600001513089604001518760018c6080015160000151604051602401611995989796959493929190613223565b604051602081830303815290604052907bffffffffffffffffffffffffffffffffffffffffffffffffffffffff19166020820180517bffffffffffffffffffffffffffffffffffffffffffffffffffffffff83818316178352505050509050611a0086838684611c4c565b925050509392505050565b67ffffffffffffffff811115611a2a57611a258282611df0565b611a37565b611a3682600083611aa5565b5b5050565b611a436121d9565b6000602083611a5291906132d7565b14611a7e57602082611a6491906132d7565b6020611a709190613308565b82611a7b919061312e565b91505b81836020018181525050604051808452600081528281016020016040525082905092915050565b60178167ffffffffffffffff1611611adc57611ad68160058460ff16901b60ff161784611e3c90919063ffffffff16565b50611c25565b60ff8167ffffffffffffffff1611611b3257611b0b601860058460ff16901b1784611e3c90919063ffffffff16565b50611b2c8167ffffffffffffffff16600185611e5c9092919063ffffffff16565b50611c24565b61ffff8167ffffffffffffffff1611611b8957611b62601960058460ff16901b1784611e3c90919063ffffffff16565b50611b838167ffffffffffffffff16600285611e5c9092919063ffffffff16565b50611c23565b63ffffffff8167ffffffffffffffff1611611be257611bbb601a60058460ff16901b1784611e3c90919063ffffffff16565b50611bdc8167ffffffffffffffff16600485611e5c9092919063ffffffff16565b50611c22565b611bff601b60058460ff16901b1784611e3c90919063ffffffff16565b50611c208167ffffffffffffffff16600885611e5c9092919063ffffffff16565b505b5b5b5b505050565b611c326121d9565b611c4483846000015151848551611e7e565b905092915050565b60003084604051602001611c619291906133f5565b604051602081830303815290604052805190602001209050846005600083815260200190815260200160002060006101000a81548173ffffffffffffffffffffffffffffffffffffffff021916908373ffffffffffffffffffffffffffffffffffffffff160217905550807fb5e6e01e79f91267dc17b4e6314d5d4d03593d2ceee0fbb452b750bd70ea5af960405160405180910390a2600260009054906101000a900473ffffffffffffffffffffffffffffffffffffffff1673ffffffffffffffffffffffffffffffffffffffff16634000aea08685856040518463ffffffff1660e01b8152600401611d5793929190613421565b602060405180830381600087803b158015611d7157600080fd5b505af1158015611d85573d6000803e3d6000fd5b505050506040513d601f19601f82011682018060405250810190611da99190612c65565b611de8576040517f08c379a0000000000000000000000000000000000000000000000000000000008152600401611ddf906134d1565b60405180910390fd5b949350505050565b611e0e60026005600660ff16901b1783611e3c90919063ffffffff16565b50611e388282604051602001611e2491906129fe565b604051602081830303815290604052611f6d565b5050565b611e446121d9565b611e548384600001515184611f92565b905092915050565b611e646121d9565b611e75848560000151518585611fe9565b90509392505050565b611e866121d9565b8251821115611e9457600080fd5b84602001518285611ea5919061312e565b1115611eda57611ed9856002611eca88602001518887611ec5919061312e565b612077565b611ed491906134f1565b612093565b5b600080865180518760208301019350808887011115611ef95787860182525b60208701925050505b60208410611f405780518252602082611f1b919061312e565b9150602081611f2a919061312e565b9050602084611f399190613308565b9350611f02565b60006001856020036101000a03905080198251168184511681811785525050508692505050949350505050565b611f7a8260028351611aa5565b611f8d8183611c2a90919063ffffffff16565b505050565b611f9a6121d9565b83602001518310611fc057611fbf8460028660200151611fba91906134f1565b612093565b5b8351805160208583010184815381861415611fdc576001820183525b5050508390509392505050565b611ff16121d9565b84602001518483612002919061312e565b111561202a57612029856002868561201a919061312e565b61202491906134f1565b612093565b5b600060018361010061203c919061367e565b6120469190613308565b905085518386820101858319825116178152815185880111156120695784870182525b505085915050949350505050565b6000818311156120895782905061208d565b8190505b92915050565b6000826000015190506120a68383611a3b565b506120b18382611c2a565b50505050565b6040518060a0016040528060008019168152602001600073ffffffffffffffffffffffffffffffffffffffff16815260200160007bffffffffffffffffffffffffffffffffffffffffffffffffffffffff191681526020016000815260200161211e6121d9565b81525090565b6040518060a0016040528060008152602001606081526020016060815260200160608152602001606081525090565b82805461215f90612d2d565b90600052602060002090601f01602090048101928261218157600085556121c8565b82601f1061219a57805160ff19168380011785556121c8565b828001600101855582156121c8579182015b828111156121c75782518255916020019190600101906121ac565b5b5090506121d591906121f3565b5090565b604051806040016040528060608152602001600081525090565b5b8082111561220c5760008160009055506001016121f4565b5090565b6000604051905090565b600080fd5b600080fd5b6000819050919050565b61223781612224565b811461224257600080fd5b50565b6000813590506122548161222e565b92915050565b600080fd5b600080fd5b600080fd5b60008083601f84011261227f5761227e61225a565b5b8235905067ffffffffffffffff81111561229c5761229b61225f565b5b6020830191508360018202830111156122b8576122b7612264565b5b9250929050565b6000806000806000606086880312156122db576122da61221a565b5b60006122e988828901612245565b955050602086013567ffffffffffffffff81111561230a5761230961221f565b5b61231688828901612269565b9450945050604086013567ffffffffffffffff8111156123395761233861221f565b5b61234588828901612269565b92509250509295509295909350565b60008115159050919050565b61236981612354565b811461237457600080fd5b50565b60008135905061238681612360565b92915050565b600080fd5b6000601f19601f8301169050919050565b7f4e487b7100000000000000000000000000000000000000000000000000000000600052604160045260246000fd5b6123da82612391565b810181811067ffffffffffffffff821117156123f9576123f86123a2565b5b80604052505050565b600061240c612210565b905061241882826123d1565b919050565b600067ffffffffffffffff821115612438576124376123a2565b5b61244182612391565b9050602081019050919050565b82818337600083830152505050565b600061247061246b8461241d565b612402565b90508281526020810184848401111561248c5761248b61238c565b5b61249784828561244e565b509392505050565b600082601f8301126124b4576124b361225a565b5b81356124c484826020860161245d565b91505092915050565b600080600080608085870312156124e7576124e661221a565b5b60006124f587828801612245565b945050602061250687828801612377565b935050604085013567ffffffffffffffff8111156125275761252661221f565b5b6125338782880161249f565b925050606085013567ffffffffffffffff8111156125545761255361221f565b5b6125608782880161249f565b91505092959194509250565b6000602082840312156125825761258161221a565b5b600061259084828501612245565b91505092915050565b6000819050919050565b6125ac81612599565b82525050565b600062ffffff82169050919050565b6125ca816125b2565b82525050565b60008160010b9050919050565b6125e6816125d0565b82525050565b600061ffff82169050919050565b612603816125ec565b82525050565b600060ff82169050919050565b61261f81612609565b82525050565b60006101808201905061263b600083018f6125a3565b612648602083018e6125c1565b612655604083018d6125c1565b612662606083018c6125c1565b61266f608083018b6125c1565b61267c60a083018a6125dd565b61268960c08301896125fa565b61269660e08301886125fa565b6126a4610100830187612616565b6126b2610120830186612616565b6126c0610140830185612616565b6126ce610160830184612616565b9d9c50505050505050505050505050565b600073ffffffffffffffffffffffffffffffffffffffff82169050919050565b600061270a826126df565b9050919050565b61271a816126ff565b811461272557600080fd5b50565b60008135905061273781612711565b92915050565b6000602082840312156127535761275261221a565b5b600061276184828501612728565b91505092915050565b600081519050919050565b600082825260208201905092915050565b60005b838110156127a4578082015181840152602081019050612789565b838111156127b3576000848401525b50505050565b60006127c48261276a565b6127ce8185612775565b93506127de818560208601612786565b6127e781612391565b840191505092915050565b60007fffff00000000000000000000000000000000000000000000000000000000000082169050919050565b612827816127f2565b82525050565b600060608201905061284260008301866125a3565b818103602083015261285481856127b9565b9050612863604083018461281e565b949350505050565b60008060008060008060006080888a03121561288a5761288961221a565b5b60006128988a828b01612245565b975050602088013567ffffffffffffffff8111156128b9576128b861221f565b5b6128c58a828b01612269565b9650965050604088013567ffffffffffffffff8111156128e8576128e761221f565b5b6128f48a828b01612269565b9450945050606088013567ffffffffffffffff8111156129175761291661221f565b5b6129238a828b01612269565b925092505092959891949750929550565b61293d816126ff565b82525050565b60006020820190506129586000830184612934565b92915050565b61296781612599565b811461297257600080fd5b50565b6000813590506129848161295e565b92915050565b600080600080606085870312156129a4576129a361221a565b5b60006129b287828801612245565b94505060206129c387828801612975565b935050604085013567ffffffffffffffff8111156129e4576129e361221f565b5b6129f087828801612269565b925092505092959194509250565b6000602082019050612a1360008301846125a3565b92915050565b600080600060608486031215612a3257612a3161221a565b5b6000612a4086828701612245565b9350506020612a5186828701612377565b925050604084013567ffffffffffffffff811115612a7257612a7161221f565b5b612a7e8682870161249f565b9150509250925092565b60008060408385031215612a9f57612a9e61221a565b5b6000612aad85828601612245565b925050602083013567ffffffffffffffff811115612ace57612acd61221f565b5b612ada8582860161249f565b9150509250929050565b600060a082019050612af960008301886125a3565b8181036020830152612b0b81876127b9565b90508181036040830152612b1f81866127b9565b90508181036060830152612b3381856127b9565b90508181036080830152612b4781846127b9565b90509695505050505050565b7f536f75726365206d75737420626520746865206f7261636c65206f662074686560008201527f2072657175657374000000000000000000000000000000000000000000000000602082015250565b6000612baf602883612775565b9150612bba82612b53565b604082019050919050565b60006020820190508181036000830152612bde81612ba2565b9050919050565b600081519050612bf48161295e565b92915050565b600060208284031215612c1057612c0f61221a565b5b6000612c1e84828501612be5565b91505092915050565b6000604082019050612c3c6000830185612934565b612c4960208301846125a3565b9392505050565b600081519050612c5f81612360565b92915050565b600060208284031215612c7b57612c7a61221a565b5b6000612c8984828501612c50565b91505092915050565b7f556e61626c6520746f207472616e736665720000000000000000000000000000600082015250565b6000612cc8601283612775565b9150612cd382612c92565b602082019050919050565b60006020820190508181036000830152612cf781612cbb565b9050919050565b7f4e487b7100000000000000000000000000000000000000000000000000000000600052602260045260246000fd5b60006002820490506001821680612d4557607f821691505b60208210811415612d5957612d58612cfe565b5b50919050565b600080fd5b600080fd5b600067ffffffffffffffff821115612d8457612d836123a2565b5b612d8d82612391565b9050602081019050919050565b6000612dad612da884612d69565b612402565b905082815260208101848484011115612dc957612dc861238c565b5b612dd4848285612786565b509392505050565b600082601f830112612df157612df061225a565b5b8151612e01848260208601612d9a565b91505092915050565b612e13816127f2565b8114612e1e57600080fd5b50565b600081519050612e3081612e0a565b92915050565b600060608284031215612e4c57612e4b612d5f565b5b612e566060612402565b90506000612e6684828501612be5565b600083015250602082015167ffffffffffffffff811115612e8a57612e89612d64565b5b612e9684828501612ddc565b6020830152506040612eaa84828501612e21565b60408301525092915050565b600060208284031215612ecc57612ecb61221a565b5b600082015167ffffffffffffffff811115612eea57612ee961221f565b5b612ef684828501612e36565b91505092915050565b612f08816125b2565b8114612f1357600080fd5b50565b600081519050612f2581612eff565b92915050565b612f34816125d0565b8114612f3f57600080fd5b50565b600081519050612f5181612f2b565b92915050565b612f60816125ec565b8114612f6b57600080fd5b50565b600081519050612f7d81612f57565b92915050565b612f8c81612609565b8114612f9757600080fd5b50565b600081519050612fa981612f83565b92915050565b60006101808284031215612fc657612fc5612d5f565b5b612fd1610180612402565b90506000612fe184828501612be5565b6000830152506020612ff584828501612f16565b602083015250604061300984828501612f16565b604083015250606061301d84828501612f16565b606083015250608061303184828501612f16565b60808301525060a061304584828501612f42565b60a08301525060c061305984828501612f6e565b60c08301525060e061306d84828501612f6e565b60e08301525061010061308284828501612f9a565b6101008301525061012061309884828501612f9a565b610120830152506101406130ae84828501612f9a565b610140830152506101606130c484828501612f9a565b6101608301525092915050565b600061018082840312156130e8576130e761221a565b5b60006130f684828501612faf565b91505092915050565b7f4e487b7100000000000000000000000000000000000000000000000000000000600052601160045260246000fd5b600061313982612599565b915061314483612599565b9250827fffffffffffffffffffffffffffffffffffffffffffffffffffffffffffffffff03821115613179576131786130ff565b5b828201905092915050565b61318d81612224565b82525050565b60007fffffffff0000000000000000000000000000000000000000000000000000000082169050919050565b6131c881613193565b82525050565b600081519050919050565b600082825260208201905092915050565b60006131f5826131ce565b6131ff81856131d9565b935061320f818560208601612786565b61321881612391565b840191505092915050565b600061010082019050613239600083018b612934565b613246602083018a6125a3565b6132536040830189613184565b6132606060830188612934565b61326d60808301876131bf565b61327a60a08301866125a3565b61328760c08301856125a3565b81810360e083015261329981846131ea565b90509998505050505050505050565b7f4e487b7100000000000000000000000000000000000000000000000000000000600052601260045260246000fd5b60006132e282612599565b91506132ed83612599565b9250826132fd576132fc6132a8565b5b828206905092915050565b600061331382612599565b915061331e83612599565b925082821015613331576133306130ff565b5b828203905092915050565b6000819050919050565b600061336161335c613357846126df565b61333c565b6126df565b9050919050565b600061337382613346565b9050919050565b600061338582613368565b9050919050565b60008160601b9050919050565b60006133a48261338c565b9050919050565b60006133b682613399565b9050919050565b6133ce6133c98261337a565b6133ab565b82525050565b6000819050919050565b6133ef6133ea82612599565b6133d4565b82525050565b600061340182856133bd565b60148201915061341182846133de565b6020820191508190509392505050565b60006060820190506134366000830186612934565b61344360208301856125a3565b818103604083015261345581846131ea565b9050949350505050565b7f756e61626c6520746f207472616e73666572416e6443616c6c20746f206f726160008201527f636c650000000000000000000000000000000000000000000000000000000000602082015250565b60006134bb602383612775565b91506134c68261345f565b604082019050919050565b600060208201905081810360008301526134ea816134ae565b9050919050565b60006134fc82612599565b915061350783612599565b9250817fffffffffffffffffffffffffffffffffffffffffffffffffffffffffffffffff04831182151516156135405761353f6130ff565b5b828202905092915050565b60008160011c9050919050565b6000808291508390505b60018511156135a25780860481111561357e5761357d6130ff565b5b600185161561358d5780820291505b808102905061359b8561354b565b9450613562565b94509492505050565b6000826135bb5760019050613677565b816135c95760009050613677565b81600181146135df57600281146135e957613618565b6001915050613677565b60ff8411156135fb576135fa6130ff565b5b8360020a915084821115613612576136116130ff565b5b50613677565b5060208310610133831016604e8410600b841016171561364d5782820a905083811115613648576136476130ff565b5b613677565b61365a8484846001613558565b92509050818404811115613671576136706130ff565b5b81810290505b9392505050565b600061368982612599565b915061369483612599565b92506136c17fffffffffffffffffffffffffffffffffffffffffffffffffffffffffffffffff84846135ab565b90509291505056fea26469706673582212202252902e45bec27977c570a116250aac4e219f8c21769a6cef0f20bb7576731e64736f6c63430008090033",
			"opcodes": "PUSH1 0x80 PUSH1 0x40 MSTORE PUSH1 0x1 PUSH1 0x4 SSTORE CALLVALUE DUP1 ISZERO PUSH3 0x16 JUMPI PUSH1 0x0 DUP1 REVERT JUMPDEST POP PUSH1 0x40 MLOAD PUSH3 0x38BD CODESIZE SUB DUP1 PUSH3 0x38BD DUP4 CODECOPY DUP2 DUP2 ADD PUSH1 0x40 MSTORE DUP2 ADD SWAP1 PUSH3 0x3C SWAP2 SWAP1 PUSH3 0x167 JUMP JUMPDEST PUSH3 0x4D DUP3 PUSH3 0x75 PUSH1 0x20 SHL PUSH1 0x20 SHR JUMP JUMPDEST PUSH3 0x5E DUP2 PUSH3 0xB9 PUSH1 0x20 SHL PUSH1 0x20 SHR JUMP JUMPDEST PUSH8 0xDE0B6B3A7640000 PUSH1 0x9 DUP2 SWAP1 SSTORE POP POP POP PUSH3 0x1AE JUMP JUMPDEST DUP1 PUSH1 0x2 PUSH1 0x0 PUSH2 0x100 EXP DUP2 SLOAD DUP2 PUSH20 0xFFFFFFFFFFFFFFFFFFFFFFFFFFFFFFFFFFFFFFFF MUL NOT AND SWAP1 DUP4 PUSH20 0xFFFFFFFFFFFFFFFFFFFFFFFFFFFFFFFFFFFFFFFF AND MUL OR SWAP1 SSTORE POP POP JUMP JUMPDEST DUP1 PUSH1 0x3 PUSH1 0x0 PUSH2 0x100 EXP DUP2 SLOAD DUP2 PUSH20 0xFFFFFFFFFFFFFFFFFFFFFFFFFFFFFFFFFFFFFFFF MUL NOT AND SWAP1 DUP4 PUSH20 0xFFFFFFFFFFFFFFFFFFFFFFFFFFFFFFFFFFFFFFFF AND MUL OR SWAP1 SSTORE POP POP JUMP JUMPDEST PUSH1 0x0 DUP1 REVERT JUMPDEST PUSH1 0x0 PUSH20 0xFFFFFFFFFFFFFFFFFFFFFFFFFFFFFFFFFFFFFFFF DUP3 AND SWAP1 POP SWAP2 SWAP1 POP JUMP JUMPDEST PUSH1 0x0 PUSH3 0x12F DUP3 PUSH3 0x102 JUMP JUMPDEST SWAP1 POP SWAP2 SWAP1 POP JUMP JUMPDEST PUSH3 0x141 DUP2 PUSH3 0x122 JUMP JUMPDEST DUP2 EQ PUSH3 0x14D JUMPI PUSH1 0x0 DUP1 REVERT JUMPDEST POP JUMP JUMPDEST PUSH1 0x0 DUP2 MLOAD SWAP1 POP PUSH3 0x161 DUP2 PUSH3 0x136 JUMP JUMPDEST SWAP3 SWAP2 POP POP JUMP JUMPDEST PUSH1 0x0 DUP1 PUSH1 0x40 DUP4 DUP6 SUB SLT ISZERO PUSH3 0x181 JUMPI PUSH3 0x180 PUSH3 0xFD JUMP JUMPDEST JUMPDEST PUSH1 0x0 PUSH3 0x191 DUP6 DUP3 DUP7 ADD PUSH3 0x150 JUMP JUMPDEST SWAP3 POP POP PUSH1 0x20 PUSH3 0x1A4 DUP6 DUP3 DUP7 ADD PUSH3 0x150 JUMP JUMPDEST SWAP2 POP POP SWAP3 POP SWAP3 SWAP1 POP JUMP JUMPDEST PUSH2 0x36FF DUP1 PUSH3 0x1BE PUSH1 0x0 CODECOPY PUSH1 0x0 RETURN INVALID PUSH1 0x80 PUSH1 0x40 MSTORE CALLVALUE DUP1 ISZERO PUSH2 0x10 JUMPI PUSH1 0x0 DUP1 REVERT JUMPDEST POP PUSH1 0x4 CALLDATASIZE LT PUSH2 0xCF JUMPI PUSH1 0x0 CALLDATALOAD PUSH1 0xE0 SHR DUP1 PUSH4 0x9E1E86C0 GT PUSH2 0x8C JUMPI DUP1 PUSH4 0xDDCA3F43 GT PUSH2 0x66 JUMPI DUP1 PUSH4 0xDDCA3F43 EQ PUSH2 0x1F5 JUMPI DUP1 PUSH4 0xDFFE2894 EQ PUSH2 0x213 JUMPI DUP1 PUSH4 0xE13CAA63 EQ PUSH2 0x22F JUMPI DUP1 PUSH4 0xED6A7175 EQ PUSH2 0x24B JUMPI PUSH2 0xCF JUMP JUMPDEST DUP1 PUSH4 0x9E1E86C0 EQ PUSH2 0x19F JUMPI DUP1 PUSH4 0xB18B78DD EQ PUSH2 0x1BB JUMPI DUP1 PUSH4 0xB69293E3 EQ PUSH2 0x1D9 JUMPI PUSH2 0xCF JUMP JUMPDEST DUP1 PUSH4 0x22F2B87 EQ PUSH2 0xD4 JUMPI DUP1 PUSH4 0x371EACED EQ PUSH2 0xF0 JUMPI DUP1 PUSH4 0x37B95E86 EQ PUSH2 0x10C JUMPI DUP1 PUSH4 0x7ADBF973 EQ PUSH2 0x147 JUMPI DUP1 PUSH4 0x8DC654A2 EQ PUSH2 0x163 JUMPI DUP1 PUSH4 0x9C2B98FB EQ PUSH2 0x16D JUMPI JUMPDEST PUSH1 0x0 DUP1 REVERT JUMPDEST PUSH2 0xEE PUSH1 0x4 DUP1 CALLDATASIZE SUB DUP2 ADD SWAP1 PUSH2 0xE9 SWAP2 SWAP1 PUSH2 0x22BF JUMP JUMPDEST PUSH2 0x27F JUMP JUMPDEST STOP JUMPDEST PUSH2 0x10A PUSH1 0x4 DUP1 CALLDATASIZE SUB DUP2 ADD SWAP1 PUSH2 0x105 SWAP2 SWAP1 PUSH2 0x24CD JUMP JUMPDEST PUSH2 0x524 JUMP JUMPDEST STOP JUMPDEST PUSH2 0x126 PUSH1 0x4 DUP1 CALLDATASIZE SUB DUP2 ADD SWAP1 PUSH2 0x121 SWAP2 SWAP1 PUSH2 0x256C JUMP JUMPDEST PUSH2 0x64B JUMP JUMPDEST PUSH1 0x40 MLOAD PUSH2 0x13E SWAP13 SWAP12 SWAP11 SWAP10 SWAP9 SWAP8 SWAP7 SWAP6 SWAP5 SWAP4 SWAP3 SWAP2 SWAP1 PUSH2 0x2625 JUMP JUMPDEST PUSH1 0x40 MLOAD DUP1 SWAP2 SUB SWAP1 RETURN JUMPDEST PUSH2 0x161 PUSH1 0x4 DUP1 CALLDATASIZE SUB DUP2 ADD SWAP1 PUSH2 0x15C SWAP2 SWAP1 PUSH2 0x273D JUMP JUMPDEST PUSH2 0x744 JUMP JUMPDEST STOP JUMPDEST PUSH2 0x16B PUSH2 0x750 JUMP JUMPDEST STOP JUMPDEST PUSH2 0x187 PUSH1 0x4 DUP1 CALLDATASIZE SUB DUP2 ADD SWAP1 PUSH2 0x182 SWAP2 SWAP1 PUSH2 0x256C JUMP JUMPDEST PUSH2 0x8B3 JUMP JUMPDEST PUSH1 0x40 MLOAD PUSH2 0x196 SWAP4 SWAP3 SWAP2 SWAP1 PUSH2 0x282D JUMP JUMPDEST PUSH1 0x40 MLOAD DUP1 SWAP2 SUB SWAP1 RETURN JUMPDEST PUSH2 0x1B9 PUSH1 0x4 DUP1 CALLDATASIZE SUB DUP2 ADD SWAP1 PUSH2 0x1B4 SWAP2 SWAP1 PUSH2 0x286B JUMP JUMPDEST PUSH2 0x972 JUMP JUMPDEST STOP JUMPDEST PUSH2 0x1C3 PUSH2 0xCDC JUMP JUMPDEST PUSH1 0x40 MLOAD PUSH2 0x1D0 SWAP2 SWAP1 PUSH2 0x2943 JUMP JUMPDEST PUSH1 0x40 MLOAD DUP1 SWAP2 SUB SWAP1 RETURN JUMPDEST PUSH2 0x1F3 PUSH1 0x4 DUP1 CALLDATASIZE SUB DUP2 ADD SWAP1 PUSH2 0x1EE SWAP2 SWAP1 PUSH2 0x298A JUMP JUMPDEST PUSH2 0xCEB JUMP JUMPDEST STOP JUMPDEST PUSH2 0x1FD PUSH2 0xF61 JUMP JUMPDEST PUSH1 0x40 MLOAD PUSH2 0x20A SWAP2 SWAP1 PUSH2 0x29FE JUMP JUMPDEST PUSH1 0x40 MLOAD DUP1 SWAP2 SUB SWAP1 RETURN JUMPDEST PUSH2 0x22D PUSH1 0x4 DUP1 CALLDATASIZE SUB DUP2 ADD SWAP1 PUSH2 0x228 SWAP2 SWAP1 PUSH2 0x2A19 JUMP JUMPDEST PUSH2 0xF67 JUMP JUMPDEST STOP JUMPDEST PUSH2 0x249 PUSH1 0x4 DUP1 CALLDATASIZE SUB DUP2 ADD SWAP1 PUSH2 0x244 SWAP2 SWAP1 PUSH2 0x2A88 JUMP JUMPDEST PUSH2 0x1083 JUMP JUMPDEST STOP JUMPDEST PUSH2 0x265 PUSH1 0x4 DUP1 CALLDATASIZE SUB DUP2 ADD SWAP1 PUSH2 0x260 SWAP2 SWAP1 PUSH2 0x256C JUMP JUMPDEST PUSH2 0x1197 JUMP JUMPDEST PUSH1 0x40 MLOAD PUSH2 0x276 SWAP6 SWAP5 SWAP4 SWAP3 SWAP2 SWAP1 PUSH2 0x2AE4 JUMP JUMPDEST PUSH1 0x40 MLOAD DUP1 SWAP2 SUB SWAP1 RETURN JUMPDEST PUSH1 0x0 PUSH2 0x293 DUP7 ADDRESS PUSH4 0xDFFE2894 PUSH1 0xE0 SHL PUSH2 0x13ED JUMP JUMPDEST SWAP1 POP PUSH2 0x314 PUSH1 0x40 MLOAD DUP1 PUSH1 0x40 ADD PUSH1 0x40 MSTORE DUP1 PUSH1 0x8 DUP2 MSTORE PUSH1 0x20 ADD PUSH32 0x656E64706F696E74000000000000000000000000000000000000000000000000 DUP2 MSTORE POP PUSH1 0x40 MLOAD DUP1 PUSH1 0x40 ADD PUSH1 0x40 MSTORE DUP1 PUSH1 0x8 DUP2 MSTORE PUSH1 0x20 ADD PUSH32 0x6C6F636174696F6E000000000000000000000000000000000000000000000000 DUP2 MSTORE POP DUP4 PUSH2 0x141E SWAP1 SWAP3 SWAP2 SWAP1 PUSH4 0xFFFFFFFF AND JUMP JUMPDEST PUSH2 0x3A2 PUSH1 0x40 MLOAD DUP1 PUSH1 0x40 ADD PUSH1 0x40 MSTORE DUP1 PUSH1 0x3 DUP2 MSTORE PUSH1 0x20 ADD PUSH32 0x6C61740000000000000000000000000000000000000000000000000000000000 DUP2 MSTORE POP DUP7 DUP7 DUP1 DUP1 PUSH1 0x1F ADD PUSH1 0x20 DUP1 SWAP2 DIV MUL PUSH1 0x20 ADD PUSH1 0x40 MLOAD SWAP1 DUP2 ADD PUSH1 0x40 MSTORE DUP1 SWAP4 SWAP3 SWAP2 SWAP1 DUP2 DUP2 MSTORE PUSH1 0x20 ADD DUP4 DUP4 DUP1 DUP3 DUP5 CALLDATACOPY PUSH1 0x0 DUP2 DUP5 ADD MSTORE PUSH1 0x1F NOT PUSH1 0x1F DUP3 ADD AND SWAP1 POP DUP1 DUP4 ADD SWAP3 POP POP POP POP POP POP POP DUP4 PUSH2 0x141E SWAP1 SWAP3 SWAP2 SWAP1 PUSH4 0xFFFFFFFF AND JUMP JUMPDEST PUSH2 0x430 PUSH1 0x40 MLOAD DUP1 PUSH1 0x40 ADD PUSH1 0x40 MSTORE DUP1 PUSH1 0x3 DUP2 MSTORE PUSH1 0x20 ADD PUSH32 0x6C6F6E0000000000000000000000000000000000000000000000000000000000 DUP2 MSTORE POP DUP5 DUP5 DUP1 DUP1 PUSH1 0x1F ADD PUSH1 0x20 DUP1 SWAP2 DIV MUL PUSH1 0x20 ADD PUSH1 0x40 MLOAD SWAP1 DUP2 ADD PUSH1 0x40 MSTORE DUP1 SWAP4 SWAP3 SWAP2 SWAP1 DUP2 DUP2 MSTORE PUSH1 0x20 ADD DUP4 DUP4 DUP1 DUP3 DUP5 CALLDATACOPY PUSH1 0x0 DUP2 DUP5 ADD MSTORE PUSH1 0x1F NOT PUSH1 0x1F DUP3 ADD AND SWAP1 POP DUP1 DUP4 ADD SWAP3 POP POP POP POP POP POP POP DUP4 PUSH2 0x141E SWAP1 SWAP3 SWAP2 SWAP1 PUSH4 0xFFFFFFFF AND JUMP JUMPDEST PUSH1 0x0 PUSH2 0x43E DUP3 PUSH1 0x9 SLOAD PUSH2 0x1451 JUMP JUMPDEST SWAP1 POP PUSH2 0x51B DUP2 PUSH1 0x0 PUSH1 0x40 MLOAD DUP1 PUSH1 0x40 ADD PUSH1 0x40 MSTORE DUP1 PUSH1 0x8 DUP2 MSTORE PUSH1 0x20 ADD PUSH32 0x6C6F636174696F6E000000000000000000000000000000000000000000000000 DUP2 MSTORE POP DUP10 DUP10 DUP1 DUP1 PUSH1 0x1F ADD PUSH1 0x20 DUP1 SWAP2 DIV MUL PUSH1 0x20 ADD PUSH1 0x40 MLOAD SWAP1 DUP2 ADD PUSH1 0x40 MSTORE DUP1 SWAP4 SWAP3 SWAP2 SWAP1 DUP2 DUP2 MSTORE PUSH1 0x20 ADD DUP4 DUP4 DUP1 DUP3 DUP5 CALLDATACOPY PUSH1 0x0 DUP2 DUP5 ADD MSTORE PUSH1 0x1F NOT PUSH1 0x1F DUP3 ADD AND SWAP1 POP DUP1 DUP4 ADD SWAP3 POP POP POP POP POP POP POP DUP9 DUP9 DUP1 DUP1 PUSH1 0x1F ADD PUSH1 0x20 DUP1 SWAP2 DIV MUL PUSH1 0x20 ADD PUSH1 0x40 MLOAD SWAP1 DUP2 ADD PUSH1 0x40 MSTORE DUP1 SWAP4 SWAP3 SWAP2 SWAP1 DUP2 DUP2 MSTORE PUSH1 0x20 ADD DUP4 DUP4 DUP1 DUP3 DUP5 CALLDATACOPY PUSH1 0x0 DUP2 DUP5 ADD MSTORE PUSH1 0x1F NOT PUSH1 0x1F DUP3 ADD AND SWAP1 POP DUP1 DUP4 ADD SWAP3 POP POP POP POP POP POP POP PUSH1 0x40 MLOAD DUP1 PUSH1 0x20 ADD PUSH1 0x40 MSTORE DUP1 PUSH1 0x0 DUP2 MSTORE POP PUSH2 0x1488 JUMP JUMPDEST POP POP POP POP POP POP POP JUMP JUMPDEST DUP4 PUSH1 0x5 PUSH1 0x0 DUP3 DUP2 MSTORE PUSH1 0x20 ADD SWAP1 DUP2 MSTORE PUSH1 0x20 ADD PUSH1 0x0 KECCAK256 PUSH1 0x0 SWAP1 SLOAD SWAP1 PUSH2 0x100 EXP SWAP1 DIV PUSH20 0xFFFFFFFFFFFFFFFFFFFFFFFFFFFFFFFFFFFFFFFF AND PUSH20 0xFFFFFFFFFFFFFFFFFFFFFFFFFFFFFFFFFFFFFFFF AND CALLER PUSH20 0xFFFFFFFFFFFFFFFFFFFFFFFFFFFFFFFFFFFFFFFF AND EQ PUSH2 0x5C6 JUMPI PUSH1 0x40 MLOAD PUSH32 0x8C379A000000000000000000000000000000000000000000000000000000000 DUP2 MSTORE PUSH1 0x4 ADD PUSH2 0x5BD SWAP1 PUSH2 0x2BC5 JUMP JUMPDEST PUSH1 0x40 MLOAD DUP1 SWAP2 SUB SWAP1 REVERT JUMPDEST PUSH1 0x5 PUSH1 0x0 DUP3 DUP2 MSTORE PUSH1 0x20 ADD SWAP1 DUP2 MSTORE PUSH1 0x20 ADD PUSH1 0x0 KECCAK256 PUSH1 0x0 PUSH2 0x100 EXP DUP2 SLOAD SWAP1 PUSH20 0xFFFFFFFFFFFFFFFFFFFFFFFFFFFFFFFFFFFFFFFF MUL NOT AND SWAP1 SSTORE DUP1 PUSH32 0x7CC135E0CEBB02C3480AE5D74D377283180A2601F8F644EDF7987B009316C63A PUSH1 0x40 MLOAD PUSH1 0x40 MLOAD DUP1 SWAP2 SUB SWAP1 LOG2 DUP4 ISZERO PUSH2 0x644 JUMPI PUSH2 0x639 DUP6 DUP5 PUSH2 0x155C JUMP JUMPDEST PUSH2 0x643 DUP6 DUP4 PUSH2 0x15D9 JUMP JUMPDEST JUMPDEST POP POP POP POP POP JUMP JUMPDEST PUSH1 0x6 PUSH1 0x20 MSTORE DUP1 PUSH1 0x0 MSTORE PUSH1 0x40 PUSH1 0x0 KECCAK256 PUSH1 0x0 SWAP2 POP SWAP1 POP DUP1 PUSH1 0x0 ADD SLOAD SWAP1 DUP1 PUSH1 0x1 ADD PUSH1 0x0 SWAP1 SLOAD SWAP1 PUSH2 0x100 EXP SWAP1 DIV PUSH3 0xFFFFFF AND SWAP1 DUP1 PUSH1 0x1 ADD PUSH1 0x3 SWAP1 SLOAD SWAP1 PUSH2 0x100 EXP SWAP1 DIV PUSH3 0xFFFFFF AND SWAP1 DUP1 PUSH1 0x1 ADD PUSH1 0x6 SWAP1 SLOAD SWAP1 PUSH2 0x100 EXP SWAP1 DIV PUSH3 0xFFFFFF AND SWAP1 DUP1 PUSH1 0x1 ADD PUSH1 0x9 SWAP1 SLOAD SWAP1 PUSH2 0x100 EXP SWAP1 DIV PUSH3 0xFFFFFF AND SWAP1 DUP1 PUSH1 0x1 ADD PUSH1 0xC SWAP1 SLOAD SWAP1 PUSH2 0x100 EXP SWAP1 DIV PUSH1 0x1 SIGNEXTEND SWAP1 DUP1 PUSH1 0x1 ADD PUSH1 0xE SWAP1 SLOAD SWAP1 PUSH2 0x100 EXP SWAP1 DIV PUSH2 0xFFFF AND SWAP1 DUP1 PUSH1 0x1 ADD PUSH1 0x10 SWAP1 SLOAD SWAP1 PUSH2 0x100 EXP SWAP1 DIV PUSH2 0xFFFF AND SWAP1 DUP1 PUSH1 0x1 ADD PUSH1 0x12 SWAP1 SLOAD SWAP1 PUSH2 0x100 EXP SWAP1 DIV PUSH1 0xFF AND SWAP1 DUP1 PUSH1 0x1 ADD PUSH1 0x13 SWAP1 SLOAD SWAP1 PUSH2 0x100 EXP SWAP1 DIV PUSH1 0xFF AND SWAP1 DUP1 PUSH1 0x1 ADD PUSH1 0x14 SWAP1 SLOAD SWAP1 PUSH2 0x100 EXP SWAP1 DIV PUSH1 0xFF AND SWAP1 DUP1 PUSH1 0x1 ADD PUSH1 0x15 SWAP1 SLOAD SWAP1 PUSH2 0x100 EXP SWAP1 DIV PUSH1 0xFF AND SWAP1 POP DUP13 JUMP JUMPDEST PUSH2 0x74D DUP2 PUSH2 0x179F JUMP JUMPDEST POP JUMP JUMPDEST PUSH1 0x0 PUSH2 0x75A PUSH2 0x17E3 JUMP JUMPDEST SWAP1 POP DUP1 PUSH20 0xFFFFFFFFFFFFFFFFFFFFFFFFFFFFFFFFFFFFFFFF AND PUSH4 0xA9059CBB CALLER DUP4 PUSH20 0xFFFFFFFFFFFFFFFFFFFFFFFFFFFFFFFFFFFFFFFF AND PUSH4 0x70A08231 ADDRESS PUSH1 0x40 MLOAD DUP3 PUSH4 0xFFFFFFFF AND PUSH1 0xE0 SHL DUP2 MSTORE PUSH1 0x4 ADD PUSH2 0x7B2 SWAP2 SWAP1 PUSH2 0x2943 JUMP JUMPDEST PUSH1 0x20 PUSH1 0x40 MLOAD DUP1 DUP4 SUB DUP2 DUP7 DUP1 EXTCODESIZE ISZERO DUP1 ISZERO PUSH2 0x7CA JUMPI PUSH1 0x0 DUP1 REVERT JUMPDEST POP GAS STATICCALL ISZERO DUP1 ISZERO PUSH2 0x7DE JUMPI RETURNDATASIZE PUSH1 0x0 DUP1 RETURNDATACOPY RETURNDATASIZE PUSH1 0x0 REVERT JUMPDEST POP POP POP POP PUSH1 0x40 MLOAD RETURNDATASIZE PUSH1 0x1F NOT PUSH1 0x1F DUP3 ADD AND DUP3 ADD DUP1 PUSH1 0x40 MSTORE POP DUP2 ADD SWAP1 PUSH2 0x802 SWAP2 SWAP1 PUSH2 0x2BFA JUMP JUMPDEST PUSH1 0x40 MLOAD DUP4 PUSH4 0xFFFFFFFF AND PUSH1 0xE0 SHL DUP2 MSTORE PUSH1 0x4 ADD PUSH2 0x81F SWAP3 SWAP2 SWAP1 PUSH2 0x2C27 JUMP JUMPDEST PUSH1 0x20 PUSH1 0x40 MLOAD DUP1 DUP4 SUB DUP2 PUSH1 0x0 DUP8 DUP1 EXTCODESIZE ISZERO DUP1 ISZERO PUSH2 0x839 JUMPI PUSH1 0x0 DUP1 REVERT JUMPDEST POP GAS CALL ISZERO DUP1 ISZERO PUSH2 0x84D JUMPI RETURNDATASIZE PUSH1 0x0 DUP1 RETURNDATACOPY RETURNDATASIZE PUSH1 0x0 REVERT JUMPDEST POP POP POP POP PUSH1 0x40 MLOAD RETURNDATASIZE PUSH1 0x1F NOT PUSH1 0x1F DUP3 ADD AND DUP3 ADD DUP1 PUSH1 0x40 MSTORE POP DUP2 ADD SWAP1 PUSH2 0x871 SWAP2 SWAP1 PUSH2 0x2C65 JUMP JUMPDEST PUSH2 0x8B0 JUMPI PUSH1 0x40 MLOAD PUSH32 0x8C379A000000000000000000000000000000000000000000000000000000000 DUP2 MSTORE PUSH1 0x4 ADD PUSH2 0x8A7 SWAP1 PUSH2 0x2CDE JUMP JUMPDEST PUSH1 0x40 MLOAD DUP1 SWAP2 SUB SWAP1 REVERT JUMPDEST POP JUMP JUMPDEST PUSH1 0x7 PUSH1 0x20 MSTORE DUP1 PUSH1 0x0 MSTORE PUSH1 0x40 PUSH1 0x0 KECCAK256 PUSH1 0x0 SWAP2 POP SWAP1 POP DUP1 PUSH1 0x0 ADD SLOAD SWAP1 DUP1 PUSH1 0x1 ADD DUP1 SLOAD PUSH2 0x8DC SWAP1 PUSH2 0x2D2D JUMP JUMPDEST DUP1 PUSH1 0x1F ADD PUSH1 0x20 DUP1 SWAP2 DIV MUL PUSH1 0x20 ADD PUSH1 0x40 MLOAD SWAP1 DUP2 ADD PUSH1 0x40 MSTORE DUP1 SWAP3 SWAP2 SWAP1 DUP2 DUP2 MSTORE PUSH1 0x20 ADD DUP3 DUP1 SLOAD PUSH2 0x908 SWAP1 PUSH2 0x2D2D JUMP JUMPDEST DUP1 ISZERO PUSH2 0x955 JUMPI DUP1 PUSH1 0x1F LT PUSH2 0x92A JUMPI PUSH2 0x100 DUP1 DUP4 SLOAD DIV MUL DUP4 MSTORE SWAP2 PUSH1 0x20 ADD SWAP2 PUSH2 0x955 JUMP JUMPDEST DUP3 ADD SWAP2 SWAP1 PUSH1 0x0 MSTORE PUSH1 0x20 PUSH1 0x0 KECCAK256 SWAP1 JUMPDEST DUP2 SLOAD DUP2 MSTORE SWAP1 PUSH1 0x1 ADD SWAP1 PUSH1 0x20 ADD DUP1 DUP4 GT PUSH2 0x938 JUMPI DUP3 SWAP1 SUB PUSH1 0x1F AND DUP3 ADD SWAP2 JUMPDEST POP POP POP POP POP SWAP1 DUP1 PUSH1 0x2 ADD PUSH1 0x0 SWAP1 SLOAD SWAP1 PUSH2 0x100 EXP SWAP1 DIV PUSH1 0xF0 SHL SWAP1 POP DUP4 JUMP JUMPDEST PUSH1 0x0 PUSH2 0x986 DUP9 ADDRESS PUSH4 0x371EACED PUSH1 0xE0 SHL PUSH2 0x13ED JUMP JUMPDEST SWAP1 POP PUSH2 0xA07 PUSH1 0x40 MLOAD DUP1 PUSH1 0x40 ADD PUSH1 0x40 MSTORE DUP1 PUSH1 0x8 DUP2 MSTORE PUSH1 0x20 ADD PUSH32 0x656E64706F696E74000000000000000000000000000000000000000000000000 DUP2 MSTORE POP PUSH1 0x40 MLOAD DUP1 PUSH1 0x40 ADD PUSH1 0x40 MSTORE DUP1 PUSH1 0x1B DUP2 MSTORE PUSH1 0x20 ADD PUSH32 0x6C6F636174696F6E2D63757272656E742D636F6E646974696F6E730000000000 DUP2 MSTORE POP DUP4 PUSH2 0x141E SWAP1 SWAP3 SWAP2 SWAP1 PUSH4 0xFFFFFFFF AND JUMP JUMPDEST PUSH2 0xA95 PUSH1 0x40 MLOAD DUP1 PUSH1 0x40 ADD PUSH1 0x40 MSTORE DUP1 PUSH1 0x3 DUP2 MSTORE PUSH1 0x20 ADD PUSH32 0x6C61740000000000000000000000000000000000000000000000000000000000 DUP2 MSTORE POP DUP9 DUP9 DUP1 DUP1 PUSH1 0x1F ADD PUSH1 0x20 DUP1 SWAP2 DIV MUL PUSH1 0x20 ADD PUSH1 0x40 MLOAD SWAP1 DUP2 ADD PUSH1 0x40 MSTORE DUP1 SWAP4 SWAP3 SWAP2 SWAP1 DUP2 DUP2 MSTORE PUSH1 0x20 ADD DUP4 DUP4 DUP1 DUP3 DUP5 CALLDATACOPY PUSH1 0x0 DUP2 DUP5 ADD MSTORE PUSH1 0x1F NOT PUSH1 0x1F DUP3 ADD AND SWAP1 POP DUP1 DUP4 ADD SWAP3 POP POP POP POP POP POP POP DUP4 PUSH2 0x141E SWAP1 SWAP3 SWAP2 SWAP1 PUSH4 0xFFFFFFFF AND JUMP JUMPDEST PUSH2 0xB23 PUSH1 0x40 MLOAD DUP1 PUSH1 0x40 ADD PUSH1 0x40 MSTORE DUP1 PUSH1 0x3 DUP2 MSTORE PUSH1 0x20 ADD PUSH32 0x6C6F6E0000000000000000000000000000000000000000000000000000000000 DUP2 MSTORE POP DUP7 DUP7 DUP1 DUP1 PUSH1 0x1F ADD PUSH1 0x20 DUP1 SWAP2 DIV MUL PUSH1 0x20 ADD PUSH1 0x40 MLOAD SWAP1 DUP2 ADD PUSH1 0x40 MSTORE DUP1 SWAP4 SWAP3 SWAP2 SWAP1 DUP2 DUP2 MSTORE PUSH1 0x20 ADD DUP4 DUP4 DUP1 DUP3 DUP5 CALLDATACOPY PUSH1 0x0 DUP2 DUP5 ADD MSTORE PUSH1 0x1F NOT PUSH1 0x1F DUP3 ADD AND SWAP1 POP DUP1 DUP4 ADD SWAP3 POP POP POP POP POP POP POP DUP4 PUSH2 0x141E SWAP1 SWAP3 SWAP2 SWAP1 PUSH4 0xFFFFFFFF AND JUMP JUMPDEST PUSH2 0xBB1 PUSH1 0x40 MLOAD DUP1 PUSH1 0x40 ADD PUSH1 0x40 MSTORE DUP1 PUSH1 0x5 DUP2 MSTORE PUSH1 0x20 ADD PUSH32 0x756E697473000000000000000000000000000000000000000000000000000000 DUP2 MSTORE POP DUP5 DUP5 DUP1 DUP1 PUSH1 0x1F ADD PUSH1 0x20 DUP1 SWAP2 DIV MUL PUSH1 0x20 ADD PUSH1 0x40 MLOAD SWAP1 DUP2 ADD PUSH1 0x40 MSTORE DUP1 SWAP4 SWAP3 SWAP2 SWAP1 DUP2 DUP2 MSTORE PUSH1 0x20 ADD DUP4 DUP4 DUP1 DUP3 DUP5 CALLDATACOPY PUSH1 0x0 DUP2 DUP5 ADD MSTORE PUSH1 0x1F NOT PUSH1 0x1F DUP3 ADD AND SWAP1 POP DUP1 DUP4 ADD SWAP3 POP POP POP POP POP POP POP DUP4 PUSH2 0x141E SWAP1 SWAP3 SWAP2 SWAP1 PUSH4 0xFFFFFFFF AND JUMP JUMPDEST PUSH1 0x0 PUSH2 0xBBF DUP3 PUSH1 0x9 SLOAD PUSH2 0x1451 JUMP JUMPDEST SWAP1 POP PUSH2 0xCD1 DUP2 PUSH1 0x0 PUSH1 0x40 MLOAD DUP1 PUSH1 0x40 ADD PUSH1 0x40 MSTORE DUP1 PUSH1 0x1B DUP2 MSTORE PUSH1 0x20 ADD PUSH32 0x6C6F636174696F6E2D63757272656E742D636F6E646974696F6E730000000000 DUP2 MSTORE POP DUP12 DUP12 DUP1 DUP1 PUSH1 0x1F ADD PUSH1 0x20 DUP1 SWAP2 DIV MUL PUSH1 0x20 ADD PUSH1 0x40 MLOAD SWAP1 DUP2 ADD PUSH1 0x40 MSTORE DUP1 SWAP4 SWAP3 SWAP2 SWAP1 DUP2 DUP2 MSTORE PUSH1 0x20 ADD DUP4 DUP4 DUP1 DUP3 DUP5 CALLDATACOPY PUSH1 0x0 DUP2 DUP5 ADD MSTORE PUSH1 0x1F NOT PUSH1 0x1F DUP3 ADD AND SWAP1 POP DUP1 DUP4 ADD SWAP3 POP POP POP POP POP POP POP DUP11 DUP11 DUP1 DUP1 PUSH1 0x1F ADD PUSH1 0x20 DUP1 SWAP2 DIV MUL PUSH1 0x20 ADD PUSH1 0x40 MLOAD SWAP1 DUP2 ADD PUSH1 0x40 MSTORE DUP1 SWAP4 SWAP3 SWAP2 SWAP1 DUP2 DUP2 MSTORE PUSH1 0x20 ADD DUP4 DUP4 DUP1 DUP3 DUP5 CALLDATACOPY PUSH1 0x0 DUP2 DUP5 ADD MSTORE PUSH1 0x1F NOT PUSH1 0x1F DUP3 ADD AND SWAP1 POP DUP1 DUP4 ADD SWAP3 POP POP POP POP POP POP POP DUP10 DUP10 DUP1 DUP1 PUSH1 0x1F ADD PUSH1 0x20 DUP1 SWAP2 DIV MUL PUSH1 0x20 ADD PUSH1 0x40 MLOAD SWAP1 DUP2 ADD PUSH1 0x40 MSTORE DUP1 SWAP4 SWAP3 SWAP2 SWAP1 DUP2 DUP2 MSTORE PUSH1 0x20 ADD DUP4 DUP4 DUP1 DUP3 DUP5 CALLDATACOPY PUSH1 0x0 DUP2 DUP5 ADD MSTORE PUSH1 0x1F NOT PUSH1 0x1F DUP3 ADD AND SWAP1 POP DUP1 DUP4 ADD SWAP3 POP POP POP POP POP POP POP PUSH2 0x1488 JUMP JUMPDEST POP POP POP POP POP POP POP POP POP JUMP JUMPDEST PUSH1 0x0 PUSH2 0xCE6 PUSH2 0x180D JUMP JUMPDEST SWAP1 POP SWAP1 JUMP JUMPDEST PUSH1 0x0 PUSH2 0xCFF DUP6 ADDRESS PUSH4 0xE13CAA63 PUSH1 0xE0 SHL PUSH2 0x13ED JUMP JUMPDEST SWAP1 POP PUSH2 0xD80 PUSH1 0x40 MLOAD DUP1 PUSH1 0x40 ADD PUSH1 0x40 MSTORE DUP1 PUSH1 0x8 DUP2 MSTORE PUSH1 0x20 ADD PUSH32 0x656E64706F696E74000000000000000000000000000000000000000000000000 DUP2 MSTORE POP PUSH1 0x40 MLOAD DUP1 PUSH1 0x40 ADD PUSH1 0x40 MSTORE DUP1 PUSH1 0x12 DUP2 MSTORE PUSH1 0x20 ADD PUSH32 0x63757272656E742D636F6E646974696F6E730000000000000000000000000000 DUP2 MSTORE POP DUP4 PUSH2 0x141E SWAP1 SWAP3 SWAP2 SWAP1 PUSH4 0xFFFFFFFF AND JUMP JUMPDEST PUSH2 0xDCA PUSH1 0x40 MLOAD DUP1 PUSH1 0x40 ADD PUSH1 0x40 MSTORE DUP1 PUSH1 0xB DUP2 MSTORE PUSH1 0x20 ADD PUSH32 0x6C6F636174696F6E4B6579000000000000000000000000000000000000000000 DUP2 MSTORE POP DUP6 DUP4 PUSH2 0x1837 SWAP1 SWAP3 SWAP2 SWAP1 PUSH4 0xFFFFFFFF AND JUMP JUMPDEST PUSH2 0xE58 PUSH1 0x40 MLOAD DUP1 PUSH1 0x40 ADD PUSH1 0x40 MSTORE DUP1 PUSH1 0x5 DUP2 MSTORE PUSH1 0x20 ADD PUSH32 0x756E697473000000000000000000000000000000000000000000000000000000 DUP2 MSTORE POP DUP5 DUP5 DUP1 DUP1 PUSH1 0x1F ADD PUSH1 0x20 DUP1 SWAP2 DIV MUL PUSH1 0x20 ADD PUSH1 0x40 MLOAD SWAP1 DUP2 ADD PUSH1 0x40 MSTORE DUP1 SWAP4 SWAP3 SWAP2 SWAP1 DUP2 DUP2 MSTORE PUSH1 0x20 ADD DUP4 DUP4 DUP1 DUP3 DUP5 CALLDATACOPY PUSH1 0x0 DUP2 DUP5 ADD MSTORE PUSH1 0x1F NOT PUSH1 0x1F DUP3 ADD AND SWAP1 POP DUP1 DUP4 ADD SWAP3 POP POP POP POP POP POP POP DUP4 PUSH2 0x141E SWAP1 SWAP3 SWAP2 SWAP1 PUSH4 0xFFFFFFFF AND JUMP JUMPDEST PUSH1 0x0 PUSH2 0xE66 DUP3 PUSH1 0x9 SLOAD PUSH2 0x1451 JUMP JUMPDEST SWAP1 POP PUSH2 0xF59 DUP2 DUP7 PUSH1 0x40 MLOAD DUP1 PUSH1 0x40 ADD PUSH1 0x40 MSTORE DUP1 PUSH1 0x12 DUP2 MSTORE PUSH1 0x20 ADD PUSH32 0x63757272656E742D636F6E646974696F6E730000000000000000000000000000 DUP2 MSTORE POP PUSH1 0x40 MLOAD DUP1 PUSH1 0x40 ADD PUSH1 0x40 MSTORE DUP1 PUSH1 0x1 DUP2 MSTORE PUSH1 0x20 ADD PUSH32 0x3000000000000000000000000000000000000000000000000000000000000000 DUP2 MSTORE POP PUSH1 0x40 MLOAD DUP1 PUSH1 0x40 ADD PUSH1 0x40 MSTORE DUP1 PUSH1 0x1 DUP2 MSTORE PUSH1 0x20 ADD PUSH32 0x3000000000000000000000000000000000000000000000000000000000000000 DUP2 MSTORE POP DUP10 DUP10 DUP1 DUP1 PUSH1 0x1F ADD PUSH1 0x20 DUP1 SWAP2 DIV MUL PUSH1 0x20 ADD PUSH1 0x40 MLOAD SWAP1 DUP2 ADD PUSH1 0x40 MSTORE DUP1 SWAP4 SWAP3 SWAP2 SWAP1 DUP2 DUP2 MSTORE PUSH1 0x20 ADD DUP4 DUP4 DUP1 DUP3 DUP5 CALLDATACOPY PUSH1 0x0 DUP2 DUP5 ADD MSTORE PUSH1 0x1F NOT PUSH1 0x1F DUP3 ADD AND SWAP1 POP DUP1 DUP4 ADD SWAP3 POP POP POP POP POP POP POP PUSH2 0x1488 JUMP JUMPDEST POP POP POP POP POP POP JUMP JUMPDEST PUSH1 0x9 SLOAD DUP2 JUMP JUMPDEST DUP3 PUSH1 0x5 PUSH1 0x0 DUP3 DUP2 MSTORE PUSH1 0x20 ADD SWAP1 DUP2 MSTORE PUSH1 0x20 ADD PUSH1 0x0 KECCAK256 PUSH1 0x0 SWAP1 SLOAD SWAP1 PUSH2 0x100 EXP SWAP1 DIV PUSH20 0xFFFFFFFFFFFFFFFFFFFFFFFFFFFFFFFFFFFFFFFF AND PUSH20 0xFFFFFFFFFFFFFFFFFFFFFFFFFFFFFFFFFFFFFFFF AND CALLER PUSH20 0xFFFFFFFFFFFFFFFFFFFFFFFFFFFFFFFFFFFFFFFF AND EQ PUSH2 0x1009 JUMPI PUSH1 0x40 MLOAD PUSH32 0x8C379A000000000000000000000000000000000000000000000000000000000 DUP2 MSTORE PUSH1 0x4 ADD PUSH2 0x1000 SWAP1 PUSH2 0x2BC5 JUMP JUMPDEST PUSH1 0x40 MLOAD DUP1 SWAP2 SUB SWAP1 REVERT JUMPDEST PUSH1 0x5 PUSH1 0x0 DUP3 DUP2 MSTORE PUSH1 0x20 ADD SWAP1 DUP2 MSTORE PUSH1 0x20 ADD PUSH1 0x0 KECCAK256 PUSH1 0x0 PUSH2 0x100 EXP DUP2 SLOAD SWAP1 PUSH20 0xFFFFFFFFFFFFFFFFFFFFFFFFFFFFFFFFFFFFFFFF MUL NOT AND SWAP1 SSTORE DUP1 PUSH32 0x7CC135E0CEBB02C3480AE5D74D377283180A2601F8F644EDF7987B009316C63A PUSH1 0x40 MLOAD PUSH1 0x40 MLOAD DUP1 SWAP2 SUB SWAP1 LOG2 DUP3 ISZERO PUSH2 0x107D JUMPI PUSH2 0x107C DUP5 DUP4 PUSH2 0x155C JUMP JUMPDEST JUMPDEST POP POP POP POP JUMP JUMPDEST DUP2 PUSH1 0x5 PUSH1 0x0 DUP3 DUP2 MSTORE PUSH1 0x20 ADD SWAP1 DUP2 MSTORE PUSH1 0x20 ADD PUSH1 0x0 KECCAK256 PUSH1 0x0 SWAP1 SLOAD SWAP1 PUSH2 0x100 EXP SWAP1 DIV PUSH20 0xFFFFFFFFFFFFFFFFFFFFFFFFFFFFFFFFFFFFFFFF AND PUSH20 0xFFFFFFFFFFFFFFFFFFFFFFFFFFFFFFFFFFFFFFFF AND CALLER PUSH20 0xFFFFFFFFFFFFFFFFFFFFFFFFFFFFFFFFFFFFFFFF AND EQ PUSH2 0x1125 JUMPI PUSH1 0x40 MLOAD PUSH32 0x8C379A000000000000000000000000000000000000000000000000000000000 DUP2 MSTORE PUSH1 0x4 ADD PUSH2 0x111C SWAP1 PUSH2 0x2BC5 JUMP JUMPDEST PUSH1 0x40 MLOAD DUP1 SWAP2 SUB SWAP1 REVERT JUMPDEST PUSH1 0x5 PUSH1 0x0 DUP3 DUP2 MSTORE PUSH1 0x20 ADD SWAP1 DUP2 MSTORE PUSH1 0x20 ADD PUSH1 0x0 KECCAK256 PUSH1 0x0 PUSH2 0x100 EXP DUP2 SLOAD SWAP1 PUSH20 0xFFFFFFFFFFFFFFFFFFFFFFFFFFFFFFFFFFFFFFFF MUL NOT AND SWAP1 SSTORE DUP1 PUSH32 0x7CC135E0CEBB02C3480AE5D74D377283180A2601F8F644EDF7987B009316C63A PUSH1 0x40 MLOAD PUSH1 0x40 MLOAD DUP1 SWAP2 SUB SWAP1 LOG2 PUSH2 0x1192 DUP4 DUP4 PUSH2 0x15D9 JUMP JUMPDEST POP POP POP JUMP JUMPDEST PUSH1 0x8 PUSH1 0x20 MSTORE DUP1 PUSH1 0x0 MSTORE PUSH1 0x40 PUSH1 0x0 KECCAK256 PUSH1 0x0 SWAP2 POP SWAP1 POP DUP1 PUSH1 0x0 ADD SLOAD SWAP1 DUP1 PUSH1 0x1 ADD DUP1 SLOAD PUSH2 0x11C0 SWAP1 PUSH2 0x2D2D JUMP JUMPDEST DUP1 PUSH1 0x1F ADD PUSH1 0x20 DUP1 SWAP2 DIV MUL PUSH1 0x20 ADD PUSH1 0x40 MLOAD SWAP1 DUP2 ADD PUSH1 0x40 MSTORE DUP1 SWAP3 SWAP2 SWAP1 DUP2 DUP2 MSTORE PUSH1 0x20 ADD DUP3 DUP1 SLOAD PUSH2 0x11EC SWAP1 PUSH2 0x2D2D JUMP JUMPDEST DUP1 ISZERO PUSH2 0x1239 JUMPI DUP1 PUSH1 0x1F LT PUSH2 0x120E JUMPI PUSH2 0x100 DUP1 DUP4 SLOAD DIV MUL DUP4 MSTORE SWAP2 PUSH1 0x20 ADD SWAP2 PUSH2 0x1239 JUMP JUMPDEST DUP3 ADD SWAP2 SWAP1 PUSH1 0x0 MSTORE PUSH1 0x20 PUSH1 0x0 KECCAK256 SWAP1 JUMPDEST DUP2 SLOAD DUP2 MSTORE SWAP1 PUSH1 0x1 ADD SWAP1 PUSH1 0x20 ADD DUP1 DUP4 GT PUSH2 0x121C JUMPI DUP3 SWAP1 SUB PUSH1 0x1F AND DUP3 ADD SWAP2 JUMPDEST POP POP POP POP POP SWAP1 DUP1 PUSH1 0x2 ADD DUP1 SLOAD PUSH2 0x124E SWAP1 PUSH2 0x2D2D JUMP JUMPDEST DUP1 PUSH1 0x1F ADD PUSH1 0x20 DUP1 SWAP2 DIV MUL PUSH1 0x20 ADD PUSH1 0x40 MLOAD SWAP1 DUP2 ADD PUSH1 0x40 MSTORE DUP1 SWAP3 SWAP2 SWAP1 DUP2 DUP2 MSTORE PUSH1 0x20 ADD DUP3 DUP1 SLOAD PUSH2 0x127A SWAP1 PUSH2 0x2D2D JUMP JUMPDEST DUP1 ISZERO PUSH2 0x12C7 JUMPI DUP1 PUSH1 0x1F LT PUSH2 0x129C JUMPI PUSH2 0x100 DUP1 DUP4 SLOAD DIV MUL DUP4 MSTORE SWAP2 PUSH1 0x20 ADD SWAP2 PUSH2 0x12C7 JUMP JUMPDEST DUP3 ADD SWAP2 SWAP1 PUSH1 0x0 MSTORE PUSH1 0x20 PUSH1 0x0 KECCAK256 SWAP1 JUMPDEST DUP2 SLOAD DUP2 MSTORE SWAP1 PUSH1 0x1 ADD SWAP1 PUSH1 0x20 ADD DUP1 DUP4 GT PUSH2 0x12AA JUMPI DUP3 SWAP1 SUB PUSH1 0x1F AND DUP3 ADD SWAP2 JUMPDEST POP POP POP POP POP SWAP1 DUP1 PUSH1 0x3 ADD DUP1 SLOAD PUSH2 0x12DC SWAP1 PUSH2 0x2D2D JUMP JUMPDEST DUP1 PUSH1 0x1F ADD PUSH1 0x20 DUP1 SWAP2 DIV MUL PUSH1 0x20 ADD PUSH1 0x40 MLOAD SWAP1 DUP2 ADD PUSH1 0x40 MSTORE DUP1 SWAP3 SWAP2 SWAP1 DUP2 DUP2 MSTORE PUSH1 0x20 ADD DUP3 DUP1 SLOAD PUSH2 0x1308 SWAP1 PUSH2 0x2D2D JUMP JUMPDEST DUP1 ISZERO PUSH2 0x1355 JUMPI DUP1 PUSH1 0x1F LT PUSH2 0x132A JUMPI PUSH2 0x100 DUP1 DUP4 SLOAD DIV MUL DUP4 MSTORE SWAP2 PUSH1 0x20 ADD SWAP2 PUSH2 0x1355 JUMP JUMPDEST DUP3 ADD SWAP2 SWAP1 PUSH1 0x0 MSTORE PUSH1 0x20 PUSH1 0x0 KECCAK256 SWAP1 JUMPDEST DUP2 SLOAD DUP2 MSTORE SWAP1 PUSH1 0x1 ADD SWAP1 PUSH1 0x20 ADD DUP1 DUP4 GT PUSH2 0x1338 JUMPI DUP3 SWAP1 SUB PUSH1 0x1F AND DUP3 ADD SWAP2 JUMPDEST POP POP POP POP POP SWAP1 DUP1 PUSH1 0x4 ADD DUP1 SLOAD PUSH2 0x136A SWAP1 PUSH2 0x2D2D JUMP JUMPDEST DUP1 PUSH1 0x1F ADD PUSH1 0x20 DUP1 SWAP2 DIV MUL PUSH1 0x20 ADD PUSH1 0x40 MLOAD SWAP1 DUP2 ADD PUSH1 0x40 MSTORE DUP1 SWAP3 SWAP2 SWAP1 DUP2 DUP2 MSTORE PUSH1 0x20 ADD DUP3 DUP1 SLOAD PUSH2 0x1396 SWAP1 PUSH2 0x2D2D JUMP JUMPDEST DUP1 ISZERO PUSH2 0x13E3 JUMPI DUP1 PUSH1 0x1F LT PUSH2 0x13B8 JUMPI PUSH2 0x100 DUP1 DUP4 SLOAD DIV MUL DUP4 MSTORE SWAP2 PUSH1 0x20 ADD SWAP2 PUSH2 0x13E3 JUMP JUMPDEST DUP3 ADD SWAP2 SWAP1 PUSH1 0x0 MSTORE PUSH1 0x20 PUSH1 0x0 KECCAK256 SWAP1 JUMPDEST DUP2 SLOAD DUP2 MSTORE SWAP1 PUSH1 0x1 ADD SWAP1 PUSH1 0x20 ADD DUP1 DUP4 GT PUSH2 0x13C6 JUMPI DUP3 SWAP1 SUB PUSH1 0x1F AND DUP3 ADD SWAP2 JUMPDEST POP POP POP POP POP SWAP1 POP DUP6 JUMP JUMPDEST PUSH2 0x13F5 PUSH2 0x20B7 JUMP JUMPDEST PUSH2 0x13FD PUSH2 0x20B7 JUMP JUMPDEST PUSH2 0x1414 DUP6 DUP6 DUP6 DUP5 PUSH2 0x186A SWAP1 SWAP4 SWAP3 SWAP2 SWAP1 PUSH4 0xFFFFFFFF AND JUMP JUMPDEST SWAP2 POP POP SWAP4 SWAP3 POP POP POP JUMP JUMPDEST PUSH2 0x1435 DUP3 DUP5 PUSH1 0x80 ADD MLOAD PUSH2 0x191A SWAP1 SWAP2 SWAP1 PUSH4 0xFFFFFFFF AND JUMP JUMPDEST PUSH2 0x144C DUP2 DUP5 PUSH1 0x80 ADD MLOAD PUSH2 0x191A SWAP1 SWAP2 SWAP1 PUSH4 0xFFFFFFFF AND JUMP JUMPDEST POP POP POP JUMP JUMPDEST PUSH1 0x0 PUSH2 0x1480 PUSH1 0x3 PUSH1 0x0 SWAP1 SLOAD SWAP1 PUSH2 0x100 EXP SWAP1 DIV PUSH20 0xFFFFFFFFFFFFFFFFFFFFFFFFFFFFFFFFFFFFFFFF AND DUP5 DUP5 PUSH2 0x193F JUMP JUMPDEST SWAP1 POP SWAP3 SWAP2 POP POP JUMP JUMPDEST PUSH2 0x1490 PUSH2 0x2124 JUMP JUMPDEST DUP6 DUP2 PUSH1 0x0 ADD DUP2 DUP2 MSTORE POP POP DUP5 DUP2 PUSH1 0x20 ADD DUP2 SWAP1 MSTORE POP DUP4 DUP2 PUSH1 0x40 ADD DUP2 SWAP1 MSTORE POP DUP3 DUP2 PUSH1 0x60 ADD DUP2 SWAP1 MSTORE POP DUP2 DUP2 PUSH1 0x80 ADD DUP2 SWAP1 MSTORE POP DUP1 PUSH1 0x8 PUSH1 0x0 DUP10 DUP2 MSTORE PUSH1 0x20 ADD SWAP1 DUP2 MSTORE PUSH1 0x20 ADD PUSH1 0x0 KECCAK256 PUSH1 0x0 DUP3 ADD MLOAD DUP2 PUSH1 0x0 ADD SSTORE PUSH1 0x20 DUP3 ADD MLOAD DUP2 PUSH1 0x1 ADD SWAP1 DUP1 MLOAD SWAP1 PUSH1 0x20 ADD SWAP1 PUSH2 0x14F8 SWAP3 SWAP2 SWAP1 PUSH2 0x2153 JUMP JUMPDEST POP PUSH1 0x40 DUP3 ADD MLOAD DUP2 PUSH1 0x2 ADD SWAP1 DUP1 MLOAD SWAP1 PUSH1 0x20 ADD SWAP1 PUSH2 0x1515 SWAP3 SWAP2 SWAP1 PUSH2 0x2153 JUMP JUMPDEST POP PUSH1 0x60 DUP3 ADD MLOAD DUP2 PUSH1 0x3 ADD SWAP1 DUP1 MLOAD SWAP1 PUSH1 0x20 ADD SWAP1 PUSH2 0x1532 SWAP3 SWAP2 SWAP1 PUSH2 0x2153 JUMP JUMPDEST POP PUSH1 0x80 DUP3 ADD MLOAD DUP2 PUSH1 0x4 ADD SWAP1 DUP1 MLOAD SWAP1 PUSH1 0x20 ADD SWAP1 PUSH2 0x154F SWAP3 SWAP2 SWAP1 PUSH2 0x2153 JUMP JUMPDEST POP SWAP1 POP POP POP POP POP POP POP POP POP JUMP JUMPDEST PUSH1 0x0 DUP2 DUP1 PUSH1 0x20 ADD SWAP1 MLOAD DUP2 ADD SWAP1 PUSH2 0x1572 SWAP2 SWAP1 PUSH2 0x2EB6 JUMP JUMPDEST SWAP1 POP DUP1 PUSH1 0x7 PUSH1 0x0 DUP6 DUP2 MSTORE PUSH1 0x20 ADD SWAP1 DUP2 MSTORE PUSH1 0x20 ADD PUSH1 0x0 KECCAK256 PUSH1 0x0 DUP3 ADD MLOAD DUP2 PUSH1 0x0 ADD SSTORE PUSH1 0x20 DUP3 ADD MLOAD DUP2 PUSH1 0x1 ADD SWAP1 DUP1 MLOAD SWAP1 PUSH1 0x20 ADD SWAP1 PUSH2 0x15AE SWAP3 SWAP2 SWAP1 PUSH2 0x2153 JUMP JUMPDEST POP PUSH1 0x40 DUP3 ADD MLOAD DUP2 PUSH1 0x2 ADD PUSH1 0x0 PUSH2 0x100 EXP DUP2 SLOAD DUP2 PUSH2 0xFFFF MUL NOT AND SWAP1 DUP4 PUSH1 0xF0 SHR MUL OR SWAP1 SSTORE POP SWAP1 POP POP POP POP POP JUMP JUMPDEST PUSH1 0x0 DUP2 DUP1 PUSH1 0x20 ADD SWAP1 MLOAD DUP2 ADD SWAP1 PUSH2 0x15EF SWAP2 SWAP1 PUSH2 0x30D1 JUMP JUMPDEST SWAP1 POP DUP1 PUSH1 0x6 PUSH1 0x0 DUP6 DUP2 MSTORE PUSH1 0x20 ADD SWAP1 DUP2 MSTORE PUSH1 0x20 ADD PUSH1 0x0 KECCAK256 PUSH1 0x0 DUP3 ADD MLOAD DUP2 PUSH1 0x0 ADD SSTORE PUSH1 0x20 DUP3 ADD MLOAD DUP2 PUSH1 0x1 ADD PUSH1 0x0 PUSH2 0x100 EXP DUP2 SLOAD DUP2 PUSH3 0xFFFFFF MUL NOT AND SWAP1 DUP4 PUSH3 0xFFFFFF AND MUL OR SWAP1 SSTORE POP PUSH1 0x40 DUP3 ADD MLOAD DUP2 PUSH1 0x1 ADD PUSH1 0x3 PUSH2 0x100 EXP DUP2 SLOAD DUP2 PUSH3 0xFFFFFF MUL NOT AND SWAP1 DUP4 PUSH3 0xFFFFFF AND MUL OR SWAP1 SSTORE POP PUSH1 0x60 DUP3 ADD MLOAD DUP2 PUSH1 0x1 ADD PUSH1 0x6 PUSH2 0x100 EXP DUP2 SLOAD DUP2 PUSH3 0xFFFFFF MUL NOT AND SWAP1 DUP4 PUSH3 0xFFFFFF AND MUL OR SWAP1 SSTORE POP PUSH1 0x80 DUP3 ADD MLOAD DUP2 PUSH1 0x1 ADD PUSH1 0x9 PUSH2 0x100 EXP DUP2 SLOAD DUP2 PUSH3 0xFFFFFF MUL NOT AND SWAP1 DUP4 PUSH3 0xFFFFFF AND MUL OR SWAP1 SSTORE POP PUSH1 0xA0 DUP3 ADD MLOAD DUP2 PUSH1 0x1 ADD PUSH1 0xC PUSH2 0x100 EXP DUP2 SLOAD DUP2 PUSH2 0xFFFF MUL NOT AND SWAP1 DUP4 PUSH1 0x1 SIGNEXTEND PUSH2 0xFFFF AND MUL OR SWAP1 SSTORE POP PUSH1 0xC0 DUP3 ADD MLOAD DUP2 PUSH1 0x1 ADD PUSH1 0xE PUSH2 0x100 EXP DUP2 SLOAD DUP2 PUSH2 0xFFFF MUL NOT AND SWAP1 DUP4 PUSH2 0xFFFF AND MUL OR SWAP1 SSTORE POP PUSH1 0xE0 DUP3 ADD MLOAD DUP2 PUSH1 0x1 ADD PUSH1 0x10 PUSH2 0x100 EXP DUP2 SLOAD DUP2 PUSH2 0xFFFF MUL NOT AND SWAP1 DUP4 PUSH2 0xFFFF AND MUL OR SWAP1 SSTORE POP PUSH2 0x100 DUP3 ADD MLOAD DUP2 PUSH1 0x1 ADD PUSH1 0x12 PUSH2 0x100 EXP DUP2 SLOAD DUP2 PUSH1 0xFF MUL NOT AND SWAP1 DUP4 PUSH1 0xFF AND MUL OR SWAP1 SSTORE POP PUSH2 0x120 DUP3 ADD MLOAD DUP2 PUSH1 0x1 ADD PUSH1 0x13 PUSH2 0x100 EXP DUP2 SLOAD DUP2 PUSH1 0xFF MUL NOT AND SWAP1 DUP4 PUSH1 0xFF AND MUL OR SWAP1 SSTORE POP PUSH2 0x140 DUP3 ADD MLOAD DUP2 PUSH1 0x1 ADD PUSH1 0x14 PUSH2 0x100 EXP DUP2 SLOAD DUP2 PUSH1 0xFF MUL NOT AND SWAP1 DUP4 PUSH1 0xFF AND MUL OR SWAP1 SSTORE POP PUSH2 0x160 DUP3 ADD MLOAD DUP2 PUSH1 0x1 ADD PUSH1 0x15 PUSH2 0x100 EXP DUP2 SLOAD DUP2 PUSH1 0xFF MUL NOT AND SWAP1 DUP4 PUSH1 0xFF AND MUL OR SWAP1 SSTORE POP SWAP1 POP POP POP POP POP JUMP JUMPDEST DUP1 PUSH1 0x3 PUSH1 0x0 PUSH2 0x100 EXP DUP2 SLOAD DUP2 PUSH20 0xFFFFFFFFFFFFFFFFFFFFFFFFFFFFFFFFFFFFFFFF MUL NOT AND SWAP1 DUP4 PUSH20 0xFFFFFFFFFFFFFFFFFFFFFFFFFFFFFFFFFFFFFFFF AND MUL OR SWAP1 SSTORE POP POP JUMP JUMPDEST PUSH1 0x0 PUSH1 0x2 PUSH1 0x0 SWAP1 SLOAD SWAP1 PUSH2 0x100 EXP SWAP1 DIV PUSH20 0xFFFFFFFFFFFFFFFFFFFFFFFFFFFFFFFFFFFFFFFF AND SWAP1 POP SWAP1 JUMP JUMPDEST PUSH1 0x0 PUSH1 0x3 PUSH1 0x0 SWAP1 SLOAD SWAP1 PUSH2 0x100 EXP SWAP1 DIV PUSH20 0xFFFFFFFFFFFFFFFFFFFFFFFFFFFFFFFFFFFFFFFF AND SWAP1 POP SWAP1 JUMP JUMPDEST PUSH2 0x184E DUP3 DUP5 PUSH1 0x80 ADD MLOAD PUSH2 0x191A SWAP1 SWAP2 SWAP1 PUSH4 0xFFFFFFFF AND JUMP JUMPDEST PUSH2 0x1865 DUP2 DUP5 PUSH1 0x80 ADD MLOAD PUSH2 0x1A0B SWAP1 SWAP2 SWAP1 PUSH4 0xFFFFFFFF AND JUMP JUMPDEST POP POP POP JUMP JUMPDEST PUSH2 0x1872 PUSH2 0x20B7 JUMP JUMPDEST PUSH2 0x1882 DUP6 PUSH1 0x80 ADD MLOAD PUSH2 0x100 PUSH2 0x1A3B JUMP JUMPDEST POP DUP4 DUP6 PUSH1 0x0 ADD DUP2 DUP2 MSTORE POP POP DUP3 DUP6 PUSH1 0x20 ADD SWAP1 PUSH20 0xFFFFFFFFFFFFFFFFFFFFFFFFFFFFFFFFFFFFFFFF AND SWAP1 DUP2 PUSH20 0xFFFFFFFFFFFFFFFFFFFFFFFFFFFFFFFFFFFFFFFF AND DUP2 MSTORE POP POP DUP2 DUP6 PUSH1 0x40 ADD SWAP1 PUSH28 0xFFFFFFFFFFFFFFFFFFFFFFFFFFFFFFFFFFFFFFFFFFFFFFFFFFFFFFFF NOT AND SWAP1 DUP2 PUSH28 0xFFFFFFFFFFFFFFFFFFFFFFFFFFFFFFFFFFFFFFFFFFFFFFFFFFFFFFFF NOT AND DUP2 MSTORE POP POP DUP5 SWAP1 POP SWAP5 SWAP4 POP POP POP POP JUMP JUMPDEST PUSH2 0x1927 DUP3 PUSH1 0x3 DUP4 MLOAD PUSH2 0x1AA5 JUMP JUMPDEST PUSH2 0x193A DUP2 DUP4 PUSH2 0x1C2A SWAP1 SWAP2 SWAP1 PUSH4 0xFFFFFFFF AND JUMP JUMPDEST POP POP POP JUMP JUMPDEST PUSH1 0x0 DUP1 PUSH1 0x4 SLOAD SWAP1 POP PUSH1 0x1 DUP2 PUSH2 0x1954 SWAP2 SWAP1 PUSH2 0x312E JUMP JUMPDEST PUSH1 0x4 DUP2 SWAP1 SSTORE POP PUSH1 0x0 PUSH4 0x40429946 PUSH1 0xE0 SHL PUSH1 0x0 DUP1 DUP8 PUSH1 0x0 ADD MLOAD ADDRESS DUP10 PUSH1 0x40 ADD MLOAD DUP8 PUSH1 0x1 DUP13 PUSH1 0x80 ADD MLOAD PUSH1 0x0 ADD MLOAD PUSH1 0x40 MLOAD PUSH1 0x24 ADD PUSH2 0x1995 SWAP9 SWAP8 SWAP7 SWAP6 SWAP5 SWAP4 SWAP3 SWAP2 SWAP1 PUSH2 0x3223 JUMP JUMPDEST PUSH1 0x40 MLOAD PUSH1 0x20 DUP2 DUP4 SUB SUB DUP2 MSTORE SWAP1 PUSH1 0x40 MSTORE SWAP1 PUSH28 0xFFFFFFFFFFFFFFFFFFFFFFFFFFFFFFFFFFFFFFFFFFFFFFFFFFFFFFFF NOT AND PUSH1 0x20 DUP3 ADD DUP1 MLOAD PUSH28 0xFFFFFFFFFFFFFFFFFFFFFFFFFFFFFFFFFFFFFFFFFFFFFFFFFFFFFFFF DUP4 DUP2 DUP4 AND OR DUP4 MSTORE POP POP POP POP SWAP1 POP PUSH2 0x1A00 DUP7 DUP4 DUP7 DUP5 PUSH2 0x1C4C JUMP JUMPDEST SWAP3 POP POP POP SWAP4 SWAP3 POP POP POP JUMP JUMPDEST PUSH8 0xFFFFFFFFFFFFFFFF DUP2 GT ISZERO PUSH2 0x1A2A JUMPI PUSH2 0x1A25 DUP3 DUP3 PUSH2 0x1DF0 JUMP JUMPDEST PUSH2 0x1A37 JUMP JUMPDEST PUSH2 0x1A36 DUP3 PUSH1 0x0 DUP4 PUSH2 0x1AA5 JUMP JUMPDEST JUMPDEST POP POP JUMP JUMPDEST PUSH2 0x1A43 PUSH2 0x21D9 JUMP JUMPDEST PUSH1 0x0 PUSH1 0x20 DUP4 PUSH2 0x1A52 SWAP2 SWAP1 PUSH2 0x32D7 JUMP JUMPDEST EQ PUSH2 0x1A7E JUMPI PUSH1 0x20 DUP3 PUSH2 0x1A64 SWAP2 SWAP1 PUSH2 0x32D7 JUMP JUMPDEST PUSH1 0x20 PUSH2 0x1A70 SWAP2 SWAP1 PUSH2 0x3308 JUMP JUMPDEST DUP3 PUSH2 0x1A7B SWAP2 SWAP1 PUSH2 0x312E JUMP JUMPDEST SWAP2 POP JUMPDEST DUP2 DUP4 PUSH1 0x20 ADD DUP2 DUP2 MSTORE POP POP PUSH1 0x40 MLOAD DUP1 DUP5 MSTORE PUSH1 0x0 DUP2 MSTORE DUP3 DUP2 ADD PUSH1 0x20 ADD PUSH1 0x40 MSTORE POP DUP3 SWAP1 POP SWAP3 SWAP2 POP POP JUMP JUMPDEST PUSH1 0x17 DUP2 PUSH8 0xFFFFFFFFFFFFFFFF AND GT PUSH2 0x1ADC JUMPI PUSH2 0x1AD6 DUP2 PUSH1 0x5 DUP5 PUSH1 0xFF AND SWAP1 SHL PUSH1 0xFF AND OR DUP5 PUSH2 0x1E3C SWAP1 SWAP2 SWAP1 PUSH4 0xFFFFFFFF AND JUMP JUMPDEST POP PUSH2 0x1C25 JUMP JUMPDEST PUSH1 0xFF DUP2 PUSH8 0xFFFFFFFFFFFFFFFF AND GT PUSH2 0x1B32 JUMPI PUSH2 0x1B0B PUSH1 0x18 PUSH1 0x5 DUP5 PUSH1 0xFF AND SWAP1 SHL OR DUP5 PUSH2 0x1E3C SWAP1 SWAP2 SWAP1 PUSH4 0xFFFFFFFF AND JUMP JUMPDEST POP PUSH2 0x1B2C DUP2 PUSH8 0xFFFFFFFFFFFFFFFF AND PUSH1 0x1 DUP6 PUSH2 0x1E5C SWAP1 SWAP3 SWAP2 SWAP1 PUSH4 0xFFFFFFFF AND JUMP JUMPDEST POP PUSH2 0x1C24 JUMP JUMPDEST PUSH2 0xFFFF DUP2 PUSH8 0xFFFFFFFFFFFFFFFF AND GT PUSH2 0x1B89 JUMPI PUSH2 0x1B62 PUSH1 0x19 PUSH1 0x5 DUP5 PUSH1 0xFF AND SWAP1 SHL OR DUP5 PUSH2 0x1E3C SWAP1 SWAP2 SWAP1 PUSH4 0xFFFFFFFF AND JUMP JUMPDEST POP PUSH2 0x1B83 DUP2 PUSH8 0xFFFFFFFFFFFFFFFF AND PUSH1 0x2 DUP6 PUSH2 0x1E5C SWAP1 SWAP3 SWAP2 SWAP1 PUSH4 0xFFFFFFFF AND JUMP JUMPDEST POP PUSH2 0x1C23 JUMP JUMPDEST PUSH4 0xFFFFFFFF DUP2 PUSH8 0xFFFFFFFFFFFFFFFF AND GT PUSH2 0x1BE2 JUMPI PUSH2 0x1BBB PUSH1 0x1A PUSH1 0x5 DUP5 PUSH1 0xFF AND SWAP1 SHL OR DUP5 PUSH2 0x1E3C SWAP1 SWAP2 SWAP1 PUSH4 0xFFFFFFFF AND JUMP JUMPDEST POP PUSH2 0x1BDC DUP2 PUSH8 0xFFFFFFFFFFFFFFFF AND PUSH1 0x4 DUP6 PUSH2 0x1E5C SWAP1 SWAP3 SWAP2 SWAP1 PUSH4 0xFFFFFFFF AND JUMP JUMPDEST POP PUSH2 0x1C22 JUMP JUMPDEST PUSH2 0x1BFF PUSH1 0x1B PUSH1 0x5 DUP5 PUSH1 0xFF AND SWAP1 SHL OR DUP5 PUSH2 0x1E3C SWAP1 SWAP2 SWAP1 PUSH4 0xFFFFFFFF AND JUMP JUMPDEST POP PUSH2 0x1C20 DUP2 PUSH8 0xFFFFFFFFFFFFFFFF AND PUSH1 0x8 DUP6 PUSH2 0x1E5C SWAP1 SWAP3 SWAP2 SWAP1 PUSH4 0xFFFFFFFF AND JUMP JUMPDEST POP JUMPDEST JUMPDEST JUMPDEST JUMPDEST POP POP POP JUMP JUMPDEST PUSH2 0x1C32 PUSH2 0x21D9 JUMP JUMPDEST PUSH2 0x1C44 DUP4 DUP5 PUSH1 0x0 ADD MLOAD MLOAD DUP5 DUP6 MLOAD PUSH2 0x1E7E JUMP JUMPDEST SWAP1 POP SWAP3 SWAP2 POP POP JUMP JUMPDEST PUSH1 0x0 ADDRESS DUP5 PUSH1 0x40 MLOAD PUSH1 0x20 ADD PUSH2 0x1C61 SWAP3 SWAP2 SWAP1 PUSH2 0x33F5 JUMP JUMPDEST PUSH1 0x40 MLOAD PUSH1 0x20 DUP2 DUP4 SUB SUB DUP2 MSTORE SWAP1 PUSH1 0x40 MSTORE DUP1 MLOAD SWAP1 PUSH1 0x20 ADD KECCAK256 SWAP1 POP DUP5 PUSH1 0x5 PUSH1 0x0 DUP4 DUP2 MSTORE PUSH1 0x20 ADD SWAP1 DUP2 MSTORE PUSH1 0x20 ADD PUSH1 0x0 KECCAK256 PUSH1 0x0 PUSH2 0x100 EXP DUP2 SLOAD DUP2 PUSH20 0xFFFFFFFFFFFFFFFFFFFFFFFFFFFFFFFFFFFFFFFF MUL NOT AND SWAP1 DUP4 PUSH20 0xFFFFFFFFFFFFFFFFFFFFFFFFFFFFFFFFFFFFFFFF AND MUL OR SWAP1 SSTORE POP DUP1 PUSH32 0xB5E6E01E79F91267DC17B4E6314D5D4D03593D2CEEE0FBB452B750BD70EA5AF9 PUSH1 0x40 MLOAD PUSH1 0x40 MLOAD DUP1 SWAP2 SUB SWAP1 LOG2 PUSH1 0x2 PUSH1 0x0 SWAP1 SLOAD SWAP1 PUSH2 0x100 EXP SWAP1 DIV PUSH20 0xFFFFFFFFFFFFFFFFFFFFFFFFFFFFFFFFFFFFFFFF AND PUSH20 0xFFFFFFFFFFFFFFFFFFFFFFFFFFFFFFFFFFFFFFFF AND PUSH4 0x4000AEA0 DUP7 DUP6 DUP6 PUSH1 0x40 MLOAD DUP5 PUSH4 0xFFFFFFFF AND PUSH1 0xE0 SHL DUP2 MSTORE PUSH1 0x4 ADD PUSH2 0x1D57 SWAP4 SWAP3 SWAP2 SWAP1 PUSH2 0x3421 JUMP JUMPDEST PUSH1 0x20 PUSH1 0x40 MLOAD DUP1 DUP4 SUB DUP2 PUSH1 0x0 DUP8 DUP1 EXTCODESIZE ISZERO DUP1 ISZERO PUSH2 0x1D71 JUMPI PUSH1 0x0 DUP1 REVERT JUMPDEST POP GAS CALL ISZERO DUP1 ISZERO PUSH2 0x1D85 JUMPI RETURNDATASIZE PUSH1 0x0 DUP1 RETURNDATACOPY RETURNDATASIZE PUSH1 0x0 REVERT JUMPDEST POP POP POP POP PUSH1 0x40 MLOAD RETURNDATASIZE PUSH1 0x1F NOT PUSH1 0x1F DUP3 ADD AND DUP3 ADD DUP1 PUSH1 0x40 MSTORE POP DUP2 ADD SWAP1 PUSH2 0x1DA9 SWAP2 SWAP1 PUSH2 0x2C65 JUMP JUMPDEST PUSH2 0x1DE8 JUMPI PUSH1 0x40 MLOAD PUSH32 0x8C379A000000000000000000000000000000000000000000000000000000000 DUP2 MSTORE PUSH1 0x4 ADD PUSH2 0x1DDF SWAP1 PUSH2 0x34D1 JUMP JUMPDEST PUSH1 0x40 MLOAD DUP1 SWAP2 SUB SWAP1 REVERT JUMPDEST SWAP5 SWAP4 POP POP POP POP JUMP JUMPDEST PUSH2 0x1E0E PUSH1 0x2 PUSH1 0x5 PUSH1 0x6 PUSH1 0xFF AND SWAP1 SHL OR DUP4 PUSH2 0x1E3C SWAP1 SWAP2 SWAP1 PUSH4 0xFFFFFFFF AND JUMP JUMPDEST POP PUSH2 0x1E38 DUP3 DUP3 PUSH1 0x40 MLOAD PUSH1 0x20 ADD PUSH2 0x1E24 SWAP2 SWAP1 PUSH2 0x29FE JUMP JUMPDEST PUSH1 0x40 MLOAD PUSH1 0x20 DUP2 DUP4 SUB SUB DUP2 MSTORE SWAP1 PUSH1 0x40 MSTORE PUSH2 0x1F6D JUMP JUMPDEST POP POP JUMP JUMPDEST PUSH2 0x1E44 PUSH2 0x21D9 JUMP JUMPDEST PUSH2 0x1E54 DUP4 DUP5 PUSH1 0x0 ADD MLOAD MLOAD DUP5 PUSH2 0x1F92 JUMP JUMPDEST SWAP1 POP SWAP3 SWAP2 POP POP JUMP JUMPDEST PUSH2 0x1E64 PUSH2 0x21D9 JUMP JUMPDEST PUSH2 0x1E75 DUP5 DUP6 PUSH1 0x0 ADD MLOAD MLOAD DUP6 DUP6 PUSH2 0x1FE9 JUMP JUMPDEST SWAP1 POP SWAP4 SWAP3 POP POP POP JUMP JUMPDEST PUSH2 0x1E86 PUSH2 0x21D9 JUMP JUMPDEST DUP3 MLOAD DUP3 GT ISZERO PUSH2 0x1E94 JUMPI PUSH1 0x0 DUP1 REVERT JUMPDEST DUP5 PUSH1 0x20 ADD MLOAD DUP3 DUP6 PUSH2 0x1EA5 SWAP2 SWAP1 PUSH2 0x312E JUMP JUMPDEST GT ISZERO PUSH2 0x1EDA JUMPI PUSH2 0x1ED9 DUP6 PUSH1 0x2 PUSH2 0x1ECA DUP9 PUSH1 0x20 ADD MLOAD DUP9 DUP8 PUSH2 0x1EC5 SWAP2 SWAP1 PUSH2 0x312E JUMP JUMPDEST PUSH2 0x2077 JUMP JUMPDEST PUSH2 0x1ED4 SWAP2 SWAP1 PUSH2 0x34F1 JUMP JUMPDEST PUSH2 0x2093 JUMP JUMPDEST JUMPDEST PUSH1 0x0 DUP1 DUP7 MLOAD DUP1 MLOAD DUP8 PUSH1 0x20 DUP4 ADD ADD SWAP4 POP DUP1 DUP9 DUP8 ADD GT ISZERO PUSH2 0x1EF9 JUMPI DUP8 DUP7 ADD DUP3 MSTORE JUMPDEST PUSH1 0x20 DUP8 ADD SWAP3 POP POP POP JUMPDEST PUSH1 0x20 DUP5 LT PUSH2 0x1F40 JUMPI DUP1 MLOAD DUP3 MSTORE PUSH1 0x20 DUP3 PUSH2 0x1F1B SWAP2 SWAP1 PUSH2 0x312E JUMP JUMPDEST SWAP2 POP PUSH1 0x20 DUP2 PUSH2 0x1F2A SWAP2 SWAP1 PUSH2 0x312E JUMP JUMPDEST SWAP1 POP PUSH1 0x20 DUP5 PUSH2 0x1F39 SWAP2 SWAP1 PUSH2 0x3308 JUMP JUMPDEST SWAP4 POP PUSH2 0x1F02 JUMP JUMPDEST PUSH1 0x0 PUSH1 0x1 DUP6 PUSH1 0x20 SUB PUSH2 0x100 EXP SUB SWAP1 POP DUP1 NOT DUP3 MLOAD AND DUP2 DUP5 MLOAD AND DUP2 DUP2 OR DUP6 MSTORE POP POP POP DUP7 SWAP3 POP POP POP SWAP5 SWAP4 POP POP POP POP JUMP JUMPDEST PUSH2 0x1F7A DUP3 PUSH1 0x2 DUP4 MLOAD PUSH2 0x1AA5 JUMP JUMPDEST PUSH2 0x1F8D DUP2 DUP4 PUSH2 0x1C2A SWAP1 SWAP2 SWAP1 PUSH4 0xFFFFFFFF AND JUMP JUMPDEST POP POP POP JUMP JUMPDEST PUSH2 0x1F9A PUSH2 0x21D9 JUMP JUMPDEST DUP4 PUSH1 0x20 ADD MLOAD DUP4 LT PUSH2 0x1FC0 JUMPI PUSH2 0x1FBF DUP5 PUSH1 0x2 DUP7 PUSH1 0x20 ADD MLOAD PUSH2 0x1FBA SWAP2 SWAP1 PUSH2 0x34F1 JUMP JUMPDEST PUSH2 0x2093 JUMP JUMPDEST JUMPDEST DUP4 MLOAD DUP1 MLOAD PUSH1 0x20 DUP6 DUP4 ADD ADD DUP5 DUP2 MSTORE8 DUP2 DUP7 EQ ISZERO PUSH2 0x1FDC JUMPI PUSH1 0x1 DUP3 ADD DUP4 MSTORE JUMPDEST POP POP POP DUP4 SWAP1 POP SWAP4 SWAP3 POP POP POP JUMP JUMPDEST PUSH2 0x1FF1 PUSH2 0x21D9 JUMP JUMPDEST DUP5 PUSH1 0x20 ADD MLOAD DUP5 DUP4 PUSH2 0x2002 SWAP2 SWAP1 PUSH2 0x312E JUMP JUMPDEST GT ISZERO PUSH2 0x202A JUMPI PUSH2 0x2029 DUP6 PUSH1 0x2 DUP7 DUP6 PUSH2 0x201A SWAP2 SWAP1 PUSH2 0x312E JUMP JUMPDEST PUSH2 0x2024 SWAP2 SWAP1 PUSH2 0x34F1 JUMP JUMPDEST PUSH2 0x2093 JUMP JUMPDEST JUMPDEST PUSH1 0x0 PUSH1 0x1 DUP4 PUSH2 0x100 PUSH2 0x203C SWAP2 SWAP1 PUSH2 0x367E JUMP JUMPDEST PUSH2 0x2046 SWAP2 SWAP1 PUSH2 0x3308 JUMP JUMPDEST SWAP1 POP DUP6 MLOAD DUP4 DUP7 DUP3 ADD ADD DUP6 DUP4 NOT DUP3 MLOAD AND OR DUP2 MSTORE DUP2 MLOAD DUP6 DUP9 ADD GT ISZERO PUSH2 0x2069 JUMPI DUP5 DUP8 ADD DUP3 MSTORE JUMPDEST POP POP DUP6 SWAP2 POP POP SWAP5 SWAP4 POP POP POP POP JUMP JUMPDEST PUSH1 0x0 DUP2 DUP4 GT ISZERO PUSH2 0x2089 JUMPI DUP3 SWAP1 POP PUSH2 0x208D JUMP JUMPDEST DUP2 SWAP1 POP JUMPDEST SWAP3 SWAP2 POP POP JUMP JUMPDEST PUSH1 0x0 DUP3 PUSH1 0x0 ADD MLOAD SWAP1 POP PUSH2 0x20A6 DUP4 DUP4 PUSH2 0x1A3B JUMP JUMPDEST POP PUSH2 0x20B1 DUP4 DUP3 PUSH2 0x1C2A JUMP JUMPDEST POP POP POP POP JUMP JUMPDEST PUSH1 0x40 MLOAD DUP1 PUSH1 0xA0 ADD PUSH1 0x40 MSTORE DUP1 PUSH1 0x0 DUP1 NOT AND DUP2 MSTORE PUSH1 0x20 ADD PUSH1 0x0 PUSH20 0xFFFFFFFFFFFFFFFFFFFFFFFFFFFFFFFFFFFFFFFF AND DUP2 MSTORE PUSH1 0x20 ADD PUSH1 0x0 PUSH28 0xFFFFFFFFFFFFFFFFFFFFFFFFFFFFFFFFFFFFFFFFFFFFFFFFFFFFFFFF NOT AND DUP2 MSTORE PUSH1 0x20 ADD PUSH1 0x0 DUP2 MSTORE PUSH1 0x20 ADD PUSH2 0x211E PUSH2 0x21D9 JUMP JUMPDEST DUP2 MSTORE POP SWAP1 JUMP JUMPDEST PUSH1 0x40 MLOAD DUP1 PUSH1 0xA0 ADD PUSH1 0x40 MSTORE DUP1 PUSH1 0x0 DUP2 MSTORE PUSH1 0x20 ADD PUSH1 0x60 DUP2 MSTORE PUSH1 0x20 ADD PUSH1 0x60 DUP2 MSTORE PUSH1 0x20 ADD PUSH1 0x60 DUP2 MSTORE PUSH1 0x20 ADD PUSH1 0x60 DUP2 MSTORE POP SWAP1 JUMP JUMPDEST DUP3 DUP1 SLOAD PUSH2 0x215F SWAP1 PUSH2 0x2D2D JUMP JUMPDEST SWAP1 PUSH1 0x0 MSTORE PUSH1 0x20 PUSH1 0x0 KECCAK256 SWAP1 PUSH1 0x1F ADD PUSH1 0x20 SWAP1 DIV DUP2 ADD SWAP3 DUP3 PUSH2 0x2181 JUMPI PUSH1 0x0 DUP6 SSTORE PUSH2 0x21C8 JUMP JUMPDEST DUP3 PUSH1 0x1F LT PUSH2 0x219A JUMPI DUP1 MLOAD PUSH1 0xFF NOT AND DUP4 DUP1 ADD OR DUP6 SSTORE PUSH2 0x21C8 JUMP JUMPDEST DUP3 DUP1 ADD PUSH1 0x1 ADD DUP6 SSTORE DUP3 ISZERO PUSH2 0x21C8 JUMPI SWAP2 DUP3 ADD JUMPDEST DUP3 DUP2 GT ISZERO PUSH2 0x21C7 JUMPI DUP3 MLOAD DUP3 SSTORE SWAP2 PUSH1 0x20 ADD SWAP2 SWAP1 PUSH1 0x1 ADD SWAP1 PUSH2 0x21AC JUMP JUMPDEST JUMPDEST POP SWAP1 POP PUSH2 0x21D5 SWAP2 SWAP1 PUSH2 0x21F3 JUMP JUMPDEST POP SWAP1 JUMP JUMPDEST PUSH1 0x40 MLOAD DUP1 PUSH1 0x40 ADD PUSH1 0x40 MSTORE DUP1 PUSH1 0x60 DUP2 MSTORE PUSH1 0x20 ADD PUSH1 0x0 DUP2 MSTORE POP SWAP1 JUMP JUMPDEST JUMPDEST DUP1 DUP3 GT ISZERO PUSH2 0x220C JUMPI PUSH1 0x0 DUP2 PUSH1 0x0 SWAP1 SSTORE POP PUSH1 0x1 ADD PUSH2 0x21F4 JUMP JUMPDEST POP SWAP1 JUMP JUMPDEST PUSH1 0x0 PUSH1 0x40 MLOAD SWAP1 POP SWAP1 JUMP JUMPDEST PUSH1 0x0 DUP1 REVERT JUMPDEST PUSH1 0x0 DUP1 REVERT JUMPDEST PUSH1 0x0 DUP2 SWAP1 POP SWAP2 SWAP1 POP JUMP JUMPDEST PUSH2 0x2237 DUP2 PUSH2 0x2224 JUMP JUMPDEST DUP2 EQ PUSH2 0x2242 JUMPI PUSH1 0x0 DUP1 REVERT JUMPDEST POP JUMP JUMPDEST PUSH1 0x0 DUP2 CALLDATALOAD SWAP1 POP PUSH2 0x2254 DUP2 PUSH2 0x222E JUMP JUMPDEST SWAP3 SWAP2 POP POP JUMP JUMPDEST PUSH1 0x0 DUP1 REVERT JUMPDEST PUSH1 0x0 DUP1 REVERT JUMPDEST PUSH1 0x0 DUP1 REVERT JUMPDEST PUSH1 0x0 DUP1 DUP4 PUSH1 0x1F DUP5 ADD SLT PUSH2 0x227F JUMPI PUSH2 0x227E PUSH2 0x225A JUMP JUMPDEST JUMPDEST DUP3 CALLDATALOAD SWAP1 POP PUSH8 0xFFFFFFFFFFFFFFFF DUP2 GT ISZERO PUSH2 0x229C JUMPI PUSH2 0x229B PUSH2 0x225F JUMP JUMPDEST JUMPDEST PUSH1 0x20 DUP4 ADD SWAP2 POP DUP4 PUSH1 0x1 DUP3 MUL DUP4 ADD GT ISZERO PUSH2 0x22B8 JUMPI PUSH2 0x22B7 PUSH2 0x2264 JUMP JUMPDEST JUMPDEST SWAP3 POP SWAP3 SWAP1 POP JUMP JUMPDEST PUSH1 0x0 DUP1 PUSH1 0x0 DUP1 PUSH1 0x0 PUSH1 0x60 DUP7 DUP9 SUB SLT ISZERO PUSH2 0x22DB JUMPI PUSH2 0x22DA PUSH2 0x221A JUMP JUMPDEST JUMPDEST PUSH1 0x0 PUSH2 0x22E9 DUP9 DUP3 DUP10 ADD PUSH2 0x2245 JUMP JUMPDEST SWAP6 POP POP PUSH1 0x20 DUP7 ADD CALLDATALOAD PUSH8 0xFFFFFFFFFFFFFFFF DUP2 GT ISZERO PUSH2 0x230A JUMPI PUSH2 0x2309 PUSH2 0x221F JUMP JUMPDEST JUMPDEST PUSH2 0x2316 DUP9 DUP3 DUP10 ADD PUSH2 0x2269 JUMP JUMPDEST SWAP5 POP SWAP5 POP POP PUSH1 0x40 DUP7 ADD CALLDATALOAD PUSH8 0xFFFFFFFFFFFFFFFF DUP2 GT ISZERO PUSH2 0x2339 JUMPI PUSH2 0x2338 PUSH2 0x221F JUMP JUMPDEST JUMPDEST PUSH2 0x2345 DUP9 DUP3 DUP10 ADD PUSH2 0x2269 JUMP JUMPDEST SWAP3 POP SWAP3 POP POP SWAP3 SWAP6 POP SWAP3 SWAP6 SWAP1 SWAP4 POP JUMP JUMPDEST PUSH1 0x0 DUP2 ISZERO ISZERO SWAP1 POP SWAP2 SWAP1 POP JUMP JUMPDEST PUSH2 0x2369 DUP2 PUSH2 0x2354 JUMP JUMPDEST DUP2 EQ PUSH2 0x2374 JUMPI PUSH1 0x0 DUP1 REVERT JUMPDEST POP JUMP JUMPDEST PUSH1 0x0 DUP2 CALLDATALOAD SWAP1 POP PUSH2 0x2386 DUP2 PUSH2 0x2360 JUMP JUMPDEST SWAP3 SWAP2 POP POP JUMP JUMPDEST PUSH1 0x0 DUP1 REVERT JUMPDEST PUSH1 0x0 PUSH1 0x1F NOT PUSH1 0x1F DUP4 ADD AND SWAP1 POP SWAP2 SWAP1 POP JUMP JUMPDEST PUSH32 0x4E487B7100000000000000000000000000000000000000000000000000000000 PUSH1 0x0 MSTORE PUSH1 0x41 PUSH1 0x4 MSTORE PUSH1 0x24 PUSH1 0x0 REVERT JUMPDEST PUSH2 0x23DA DUP3 PUSH2 0x2391 JUMP JUMPDEST DUP2 ADD DUP2 DUP2 LT PUSH8 0xFFFFFFFFFFFFFFFF DUP3 GT OR ISZERO PUSH2 0x23F9 JUMPI PUSH2 0x23F8 PUSH2 0x23A2 JUMP JUMPDEST JUMPDEST DUP1 PUSH1 0x40 MSTORE POP POP POP JUMP JUMPDEST PUSH1 0x0 PUSH2 0x240C PUSH2 0x2210 JUMP JUMPDEST SWAP1 POP PUSH2 0x2418 DUP3 DUP3 PUSH2 0x23D1 JUMP JUMPDEST SWAP2 SWAP1 POP JUMP JUMPDEST PUSH1 0x0 PUSH8 0xFFFFFFFFFFFFFFFF DUP3 GT ISZERO PUSH2 0x2438 JUMPI PUSH2 0x2437 PUSH2 0x23A2 JUMP JUMPDEST JUMPDEST PUSH2 0x2441 DUP3 PUSH2 0x2391 JUMP JUMPDEST SWAP1 POP PUSH1 0x20 DUP2 ADD SWAP1 POP SWAP2 SWAP1 POP JUMP JUMPDEST DUP3 DUP2 DUP4 CALLDATACOPY PUSH1 0x0 DUP4 DUP4 ADD MSTORE POP POP POP JUMP JUMPDEST PUSH1 0x0 PUSH2 0x2470 PUSH2 0x246B DUP5 PUSH2 0x241D JUMP JUMPDEST PUSH2 0x2402 JUMP JUMPDEST SWAP1 POP DUP3 DUP2 MSTORE PUSH1 0x20 DUP2 ADD DUP5 DUP5 DUP5 ADD GT ISZERO PUSH2 0x248C JUMPI PUSH2 0x248B PUSH2 0x238C JUMP JUMPDEST JUMPDEST PUSH2 0x2497 DUP5 DUP3 DUP6 PUSH2 0x244E JUMP JUMPDEST POP SWAP4 SWAP3 POP POP POP JUMP JUMPDEST PUSH1 0x0 DUP3 PUSH1 0x1F DUP4 ADD SLT PUSH2 0x24B4 JUMPI PUSH2 0x24B3 PUSH2 0x225A JUMP JUMPDEST JUMPDEST DUP2 CALLDATALOAD PUSH2 0x24C4 DUP5 DUP3 PUSH1 0x20 DUP7 ADD PUSH2 0x245D JUMP JUMPDEST SWAP2 POP POP SWAP3 SWAP2 POP POP JUMP JUMPDEST PUSH1 0x0 DUP1 PUSH1 0x0 DUP1 PUSH1 0x80 DUP6 DUP8 SUB SLT ISZERO PUSH2 0x24E7 JUMPI PUSH2 0x24E6 PUSH2 0x221A JUMP JUMPDEST JUMPDEST PUSH1 0x0 PUSH2 0x24F5 DUP8 DUP3 DUP9 ADD PUSH2 0x2245 JUMP JUMPDEST SWAP5 POP POP PUSH1 0x20 PUSH2 0x2506 DUP8 DUP3 DUP9 ADD PUSH2 0x2377 JUMP JUMPDEST SWAP4 POP POP PUSH1 0x40 DUP6 ADD CALLDATALOAD PUSH8 0xFFFFFFFFFFFFFFFF DUP2 GT ISZERO PUSH2 0x2527 JUMPI PUSH2 0x2526 PUSH2 0x221F JUMP JUMPDEST JUMPDEST PUSH2 0x2533 DUP8 DUP3 DUP9 ADD PUSH2 0x249F JUMP JUMPDEST SWAP3 POP POP PUSH1 0x60 DUP6 ADD CALLDATALOAD PUSH8 0xFFFFFFFFFFFFFFFF DUP2 GT ISZERO PUSH2 0x2554 JUMPI PUSH2 0x2553 PUSH2 0x221F JUMP JUMPDEST JUMPDEST PUSH2 0x2560 DUP8 DUP3 DUP9 ADD PUSH2 0x249F JUMP JUMPDEST SWAP2 POP POP SWAP3 SWAP6 SWAP2 SWAP5 POP SWAP3 POP JUMP JUMPDEST PUSH1 0x0 PUSH1 0x20 DUP3 DUP5 SUB SLT ISZERO PUSH2 0x2582 JUMPI PUSH2 0x2581 PUSH2 0x221A JUMP JUMPDEST JUMPDEST PUSH1 0x0 PUSH2 0x2590 DUP5 DUP3 DUP6 ADD PUSH2 0x2245 JUMP JUMPDEST SWAP2 POP POP SWAP3 SWAP2 POP POP JUMP JUMPDEST PUSH1 0x0 DUP2 SWAP1 POP SWAP2 SWAP1 POP JUMP JUMPDEST PUSH2 0x25AC DUP2 PUSH2 0x2599 JUMP JUMPDEST DUP3 MSTORE POP POP JUMP JUMPDEST PUSH1 0x0 PUSH3 0xFFFFFF DUP3 AND SWAP1 POP SWAP2 SWAP1 POP JUMP JUMPDEST PUSH2 0x25CA DUP2 PUSH2 0x25B2 JUMP JUMPDEST DUP3 MSTORE POP POP JUMP JUMPDEST PUSH1 0x0 DUP2 PUSH1 0x1 SIGNEXTEND SWAP1 POP SWAP2 SWAP1 POP JUMP JUMPDEST PUSH2 0x25E6 DUP2 PUSH2 0x25D0 JUMP JUMPDEST DUP3 MSTORE POP POP JUMP JUMPDEST PUSH1 0x0 PUSH2 0xFFFF DUP3 AND SWAP1 POP SWAP2 SWAP1 POP JUMP JUMPDEST PUSH2 0x2603 DUP2 PUSH2 0x25EC JUMP JUMPDEST DUP3 MSTORE POP POP JUMP JUMPDEST PUSH1 0x0 PUSH1 0xFF DUP3 AND SWAP1 POP SWAP2 SWAP1 POP JUMP JUMPDEST PUSH2 0x261F DUP2 PUSH2 0x2609 JUMP JUMPDEST DUP3 MSTORE POP POP JUMP JUMPDEST PUSH1 0x0 PUSH2 0x180 DUP3 ADD SWAP1 POP PUSH2 0x263B PUSH1 0x0 DUP4 ADD DUP16 PUSH2 0x25A3 JUMP JUMPDEST PUSH2 0x2648 PUSH1 0x20 DUP4 ADD DUP15 PUSH2 0x25C1 JUMP JUMPDEST PUSH2 0x2655 PUSH1 0x40 DUP4 ADD DUP14 PUSH2 0x25C1 JUMP JUMPDEST PUSH2 0x2662 PUSH1 0x60 DUP4 ADD DUP13 PUSH2 0x25C1 JUMP JUMPDEST PUSH2 0x266F PUSH1 0x80 DUP4 ADD DUP12 PUSH2 0x25C1 JUMP JUMPDEST PUSH2 0x267C PUSH1 0xA0 DUP4 ADD DUP11 PUSH2 0x25DD JUMP JUMPDEST PUSH2 0x2689 PUSH1 0xC0 DUP4 ADD DUP10 PUSH2 0x25FA JUMP JUMPDEST PUSH2 0x2696 PUSH1 0xE0 DUP4 ADD DUP9 PUSH2 0x25FA JUMP JUMPDEST PUSH2 0x26A4 PUSH2 0x100 DUP4 ADD DUP8 PUSH2 0x2616 JUMP JUMPDEST PUSH2 0x26B2 PUSH2 0x120 DUP4 ADD DUP7 PUSH2 0x2616 JUMP JUMPDEST PUSH2 0x26C0 PUSH2 0x140 DUP4 ADD DUP6 PUSH2 0x2616 JUMP JUMPDEST PUSH2 0x26CE PUSH2 0x160 DUP4 ADD DUP5 PUSH2 0x2616 JUMP JUMPDEST SWAP14 SWAP13 POP POP POP POP POP POP POP POP POP POP POP POP POP JUMP JUMPDEST PUSH1 0x0 PUSH20 0xFFFFFFFFFFFFFFFFFFFFFFFFFFFFFFFFFFFFFFFF DUP3 AND SWAP1 POP SWAP2 SWAP1 POP JUMP JUMPDEST PUSH1 0x0 PUSH2 0x270A DUP3 PUSH2 0x26DF JUMP JUMPDEST SWAP1 POP SWAP2 SWAP1 POP JUMP JUMPDEST PUSH2 0x271A DUP2 PUSH2 0x26FF JUMP JUMPDEST DUP2 EQ PUSH2 0x2725 JUMPI PUSH1 0x0 DUP1 REVERT JUMPDEST POP JUMP JUMPDEST PUSH1 0x0 DUP2 CALLDATALOAD SWAP1 POP PUSH2 0x2737 DUP2 PUSH2 0x2711 JUMP JUMPDEST SWAP3 SWAP2 POP POP JUMP JUMPDEST PUSH1 0x0 PUSH1 0x20 DUP3 DUP5 SUB SLT ISZERO PUSH2 0x2753 JUMPI PUSH2 0x2752 PUSH2 0x221A JUMP JUMPDEST JUMPDEST PUSH1 0x0 PUSH2 0x2761 DUP5 DUP3 DUP6 ADD PUSH2 0x2728 JUMP JUMPDEST SWAP2 POP POP SWAP3 SWAP2 POP POP JUMP JUMPDEST PUSH1 0x0 DUP2 MLOAD SWAP1 POP SWAP2 SWAP1 POP JUMP JUMPDEST PUSH1 0x0 DUP3 DUP3 MSTORE PUSH1 0x20 DUP3 ADD SWAP1 POP SWAP3 SWAP2 POP POP JUMP JUMPDEST PUSH1 0x0 JUMPDEST DUP4 DUP2 LT ISZERO PUSH2 0x27A4 JUMPI DUP1 DUP3 ADD MLOAD DUP2 DUP5 ADD MSTORE PUSH1 0x20 DUP2 ADD SWAP1 POP PUSH2 0x2789 JUMP JUMPDEST DUP4 DUP2 GT ISZERO PUSH2 0x27B3 JUMPI PUSH1 0x0 DUP5 DUP5 ADD MSTORE JUMPDEST POP POP POP POP JUMP JUMPDEST PUSH1 0x0 PUSH2 0x27C4 DUP3 PUSH2 0x276A JUMP JUMPDEST PUSH2 0x27CE DUP2 DUP6 PUSH2 0x2775 JUMP JUMPDEST SWAP4 POP PUSH2 0x27DE DUP2 DUP6 PUSH1 0x20 DUP7 ADD PUSH2 0x2786 JUMP JUMPDEST PUSH2 0x27E7 DUP2 PUSH2 0x2391 JUMP JUMPDEST DUP5 ADD SWAP2 POP POP SWAP3 SWAP2 POP POP JUMP JUMPDEST PUSH1 0x0 PUSH32 0xFFFF000000000000000000000000000000000000000000000000000000000000 DUP3 AND SWAP1 POP SWAP2 SWAP1 POP JUMP JUMPDEST PUSH2 0x2827 DUP2 PUSH2 0x27F2 JUMP JUMPDEST DUP3 MSTORE POP POP JUMP JUMPDEST PUSH1 0x0 PUSH1 0x60 DUP3 ADD SWAP1 POP PUSH2 0x2842 PUSH1 0x0 DUP4 ADD DUP7 PUSH2 0x25A3 JUMP JUMPDEST DUP2 DUP2 SUB PUSH1 0x20 DUP4 ADD MSTORE PUSH2 0x2854 DUP2 DUP6 PUSH2 0x27B9 JUMP JUMPDEST SWAP1 POP PUSH2 0x2863 PUSH1 0x40 DUP4 ADD DUP5 PUSH2 0x281E JUMP JUMPDEST SWAP5 SWAP4 POP POP POP POP JUMP JUMPDEST PUSH1 0x0 DUP1 PUSH1 0x0 DUP1 PUSH1 0x0 DUP1 PUSH1 0x0 PUSH1 0x80 DUP9 DUP11 SUB SLT ISZERO PUSH2 0x288A JUMPI PUSH2 0x2889 PUSH2 0x221A JUMP JUMPDEST JUMPDEST PUSH1 0x0 PUSH2 0x2898 DUP11 DUP3 DUP12 ADD PUSH2 0x2245 JUMP JUMPDEST SWAP8 POP POP PUSH1 0x20 DUP9 ADD CALLDATALOAD PUSH8 0xFFFFFFFFFFFFFFFF DUP2 GT ISZERO PUSH2 0x28B9 JUMPI PUSH2 0x28B8 PUSH2 0x221F JUMP JUMPDEST JUMPDEST PUSH2 0x28C5 DUP11 DUP3 DUP12 ADD PUSH2 0x2269 JUMP JUMPDEST SWAP7 POP SWAP7 POP POP PUSH1 0x40 DUP9 ADD CALLDATALOAD PUSH8 0xFFFFFFFFFFFFFFFF DUP2 GT ISZERO PUSH2 0x28E8 JUMPI PUSH2 0x28E7 PUSH2 0x221F JUMP JUMPDEST JUMPDEST PUSH2 0x28F4 DUP11 DUP3 DUP12 ADD PUSH2 0x2269 JUMP JUMPDEST SWAP5 POP SWAP5 POP POP PUSH1 0x60 DUP9 ADD CALLDATALOAD PUSH8 0xFFFFFFFFFFFFFFFF DUP2 GT ISZERO PUSH2 0x2917 JUMPI PUSH2 0x2916 PUSH2 0x221F JUMP JUMPDEST JUMPDEST PUSH2 0x2923 DUP11 DUP3 DUP12 ADD PUSH2 0x2269 JUMP JUMPDEST SWAP3 POP SWAP3 POP POP SWAP3 SWAP6 SWAP9 SWAP2 SWAP5 SWAP8 POP SWAP3 SWAP6 POP JUMP JUMPDEST PUSH2 0x293D DUP2 PUSH2 0x26FF JUMP JUMPDEST DUP3 MSTORE POP POP JUMP JUMPDEST PUSH1 0x0 PUSH1 0x20 DUP3 ADD SWAP1 POP PUSH2 0x2958 PUSH1 0x0 DUP4 ADD DUP5 PUSH2 0x2934 JUMP JUMPDEST SWAP3 SWAP2 POP POP JUMP JUMPDEST PUSH2 0x2967 DUP2 PUSH2 0x2599 JUMP JUMPDEST DUP2 EQ PUSH2 0x2972 JUMPI PUSH1 0x0 DUP1 REVERT JUMPDEST POP JUMP JUMPDEST PUSH1 0x0 DUP2 CALLDATALOAD SWAP1 POP PUSH2 0x2984 DUP2 PUSH2 0x295E JUMP JUMPDEST SWAP3 SWAP2 POP POP JUMP JUMPDEST PUSH1 0x0 DUP1 PUSH1 0x0 DUP1 PUSH1 0x60 DUP6 DUP8 SUB SLT ISZERO PUSH2 0x29A4 JUMPI PUSH2 0x29A3 PUSH2 0x221A JUMP JUMPDEST JUMPDEST PUSH1 0x0 PUSH2 0x29B2 DUP8 DUP3 DUP9 ADD PUSH2 0x2245 JUMP JUMPDEST SWAP5 POP POP PUSH1 0x20 PUSH2 0x29C3 DUP8 DUP3 DUP9 ADD PUSH2 0x2975 JUMP JUMPDEST SWAP4 POP POP PUSH1 0x40 DUP6 ADD CALLDATALOAD PUSH8 0xFFFFFFFFFFFFFFFF DUP2 GT ISZERO PUSH2 0x29E4 JUMPI PUSH2 0x29E3 PUSH2 0x221F JUMP JUMPDEST JUMPDEST PUSH2 0x29F0 DUP8 DUP3 DUP9 ADD PUSH2 0x2269 JUMP JUMPDEST SWAP3 POP SWAP3 POP POP SWAP3 SWAP6 SWAP2 SWAP5 POP SWAP3 POP JUMP JUMPDEST PUSH1 0x0 PUSH1 0x20 DUP3 ADD SWAP1 POP PUSH2 0x2A13 PUSH1 0x0 DUP4 ADD DUP5 PUSH2 0x25A3 JUMP JUMPDEST SWAP3 SWAP2 POP POP JUMP JUMPDEST PUSH1 0x0 DUP1 PUSH1 0x0 PUSH1 0x60 DUP5 DUP7 SUB SLT ISZERO PUSH2 0x2A32 JUMPI PUSH2 0x2A31 PUSH2 0x221A JUMP JUMPDEST JUMPDEST PUSH1 0x0 PUSH2 0x2A40 DUP7 DUP3 DUP8 ADD PUSH2 0x2245 JUMP JUMPDEST SWAP4 POP POP PUSH1 0x20 PUSH2 0x2A51 DUP7 DUP3 DUP8 ADD PUSH2 0x2377 JUMP JUMPDEST SWAP3 POP POP PUSH1 0x40 DUP5 ADD CALLDATALOAD PUSH8 0xFFFFFFFFFFFFFFFF DUP2 GT ISZERO PUSH2 0x2A72 JUMPI PUSH2 0x2A71 PUSH2 0x221F JUMP JUMPDEST JUMPDEST PUSH2 0x2A7E DUP7 DUP3 DUP8 ADD PUSH2 0x249F JUMP JUMPDEST SWAP2 POP POP SWAP3 POP SWAP3 POP SWAP3 JUMP JUMPDEST PUSH1 0x0 DUP1 PUSH1 0x40 DUP4 DUP6 SUB SLT ISZERO PUSH2 0x2A9F JUMPI PUSH2 0x2A9E PUSH2 0x221A JUMP JUMPDEST JUMPDEST PUSH1 0x0 PUSH2 0x2AAD DUP6 DUP3 DUP7 ADD PUSH2 0x2245 JUMP JUMPDEST SWAP3 POP POP PUSH1 0x20 DUP4 ADD CALLDATALOAD PUSH8 0xFFFFFFFFFFFFFFFF DUP2 GT ISZERO PUSH2 0x2ACE JUMPI PUSH2 0x2ACD PUSH2 0x221F JUMP JUMPDEST JUMPDEST PUSH2 0x2ADA DUP6 DUP3 DUP7 ADD PUSH2 0x249F JUMP JUMPDEST SWAP2 POP POP SWAP3 POP SWAP3 SWAP1 POP JUMP JUMPDEST PUSH1 0x0 PUSH1 0xA0 DUP3 ADD SWAP1 POP PUSH2 0x2AF9 PUSH1 0x0 DUP4 ADD DUP9 PUSH2 0x25A3 JUMP JUMPDEST DUP2 DUP2 SUB PUSH1 0x20 DUP4 ADD MSTORE PUSH2 0x2B0B DUP2 DUP8 PUSH2 0x27B9 JUMP JUMPDEST SWAP1 POP DUP2 DUP2 SUB PUSH1 0x40 DUP4 ADD MSTORE PUSH2 0x2B1F DUP2 DUP7 PUSH2 0x27B9 JUMP JUMPDEST SWAP1 POP DUP2 DUP2 SUB PUSH1 0x60 DUP4 ADD MSTORE PUSH2 0x2B33 DUP2 DUP6 PUSH2 0x27B9 JUMP JUMPDEST SWAP1 POP DUP2 DUP2 SUB PUSH1 0x80 DUP4 ADD MSTORE PUSH2 0x2B47 DUP2 DUP5 PUSH2 0x27B9 JUMP JUMPDEST SWAP1 POP SWAP7 SWAP6 POP POP POP POP POP POP JUMP JUMPDEST PUSH32 0x536F75726365206D75737420626520746865206F7261636C65206F6620746865 PUSH1 0x0 DUP3 ADD MSTORE PUSH32 0x2072657175657374000000000000000000000000000000000000000000000000 PUSH1 0x20 DUP3 ADD MSTORE POP JUMP JUMPDEST PUSH1 0x0 PUSH2 0x2BAF PUSH1 0x28 DUP4 PUSH2 0x2775 JUMP JUMPDEST SWAP2 POP PUSH2 0x2BBA DUP3 PUSH2 0x2B53 JUMP JUMPDEST PUSH1 0x40 DUP3 ADD SWAP1 POP SWAP2 SWAP1 POP JUMP JUMPDEST PUSH1 0x0 PUSH1 0x20 DUP3 ADD SWAP1 POP DUP2 DUP2 SUB PUSH1 0x0 DUP4 ADD MSTORE PUSH2 0x2BDE DUP2 PUSH2 0x2BA2 JUMP JUMPDEST SWAP1 POP SWAP2 SWAP1 POP JUMP JUMPDEST PUSH1 0x0 DUP2 MLOAD SWAP1 POP PUSH2 0x2BF4 DUP2 PUSH2 0x295E JUMP JUMPDEST SWAP3 SWAP2 POP POP JUMP JUMPDEST PUSH1 0x0 PUSH1 0x20 DUP3 DUP5 SUB SLT ISZERO PUSH2 0x2C10 JUMPI PUSH2 0x2C0F PUSH2 0x221A JUMP JUMPDEST JUMPDEST PUSH1 0x0 PUSH2 0x2C1E DUP5 DUP3 DUP6 ADD PUSH2 0x2BE5 JUMP JUMPDEST SWAP2 POP POP SWAP3 SWAP2 POP POP JUMP JUMPDEST PUSH1 0x0 PUSH1 0x40 DUP3 ADD SWAP1 POP PUSH2 0x2C3C PUSH1 0x0 DUP4 ADD DUP6 PUSH2 0x2934 JUMP JUMPDEST PUSH2 0x2C49 PUSH1 0x20 DUP4 ADD DUP5 PUSH2 0x25A3 JUMP JUMPDEST SWAP4 SWAP3 POP POP POP JUMP JUMPDEST PUSH1 0x0 DUP2 MLOAD SWAP1 POP PUSH2 0x2C5F DUP2 PUSH2 0x2360 JUMP JUMPDEST SWAP3 SWAP2 POP POP JUMP JUMPDEST PUSH1 0x0 PUSH1 0x20 DUP3 DUP5 SUB SLT ISZERO PUSH2 0x2C7B JUMPI PUSH2 0x2C7A PUSH2 0x221A JUMP JUMPDEST JUMPDEST PUSH1 0x0 PUSH2 0x2C89 DUP5 DUP3 DUP6 ADD PUSH2 0x2C50 JUMP JUMPDEST SWAP2 POP POP SWAP3 SWAP2 POP POP JUMP JUMPDEST PUSH32 0x556E61626C6520746F207472616E736665720000000000000000000000000000 PUSH1 0x0 DUP3 ADD MSTORE POP JUMP JUMPDEST PUSH1 0x0 PUSH2 0x2CC8 PUSH1 0x12 DUP4 PUSH2 0x2775 JUMP JUMPDEST SWAP2 POP PUSH2 0x2CD3 DUP3 PUSH2 0x2C92 JUMP JUMPDEST PUSH1 0x20 DUP3 ADD SWAP1 POP SWAP2 SWAP1 POP JUMP JUMPDEST PUSH1 0x0 PUSH1 0x20 DUP3 ADD SWAP1 POP DUP2 DUP2 SUB PUSH1 0x0 DUP4 ADD MSTORE PUSH2 0x2CF7 DUP2 PUSH2 0x2CBB JUMP JUMPDEST SWAP1 POP SWAP2 SWAP1 POP JUMP JUMPDEST PUSH32 0x4E487B7100000000000000000000000000000000000000000000000000000000 PUSH1 0x0 MSTORE PUSH1 0x22 PUSH1 0x4 MSTORE PUSH1 0x24 PUSH1 0x0 REVERT JUMPDEST PUSH1 0x0 PUSH1 0x2 DUP3 DIV SWAP1 POP PUSH1 0x1 DUP3 AND DUP1 PUSH2 0x2D45 JUMPI PUSH1 0x7F DUP3 AND SWAP2 POP JUMPDEST PUSH1 0x20 DUP3 LT DUP2 EQ ISZERO PUSH2 0x2D59 JUMPI PUSH2 0x2D58 PUSH2 0x2CFE JUMP JUMPDEST JUMPDEST POP SWAP2 SWAP1 POP JUMP JUMPDEST PUSH1 0x0 DUP1 REVERT JUMPDEST PUSH1 0x0 DUP1 REVERT JUMPDEST PUSH1 0x0 PUSH8 0xFFFFFFFFFFFFFFFF DUP3 GT ISZERO PUSH2 0x2D84 JUMPI PUSH2 0x2D83 PUSH2 0x23A2 JUMP JUMPDEST JUMPDEST PUSH2 0x2D8D DUP3 PUSH2 0x2391 JUMP JUMPDEST SWAP1 POP PUSH1 0x20 DUP2 ADD SWAP1 POP SWAP2 SWAP1 POP JUMP JUMPDEST PUSH1 0x0 PUSH2 0x2DAD PUSH2 0x2DA8 DUP5 PUSH2 0x2D69 JUMP JUMPDEST PUSH2 0x2402 JUMP JUMPDEST SWAP1 POP DUP3 DUP2 MSTORE PUSH1 0x20 DUP2 ADD DUP5 DUP5 DUP5 ADD GT ISZERO PUSH2 0x2DC9 JUMPI PUSH2 0x2DC8 PUSH2 0x238C JUMP JUMPDEST JUMPDEST PUSH2 0x2DD4 DUP5 DUP3 DUP6 PUSH2 0x2786 JUMP JUMPDEST POP SWAP4 SWAP3 POP POP POP JUMP JUMPDEST PUSH1 0x0 DUP3 PUSH1 0x1F DUP4 ADD SLT PUSH2 0x2DF1 JUMPI PUSH2 0x2DF0 PUSH2 0x225A JUMP JUMPDEST JUMPDEST DUP2 MLOAD PUSH2 0x2E01 DUP5 DUP3 PUSH1 0x20 DUP7 ADD PUSH2 0x2D9A JUMP JUMPDEST SWAP2 POP POP SWAP3 SWAP2 POP POP JUMP JUMPDEST PUSH2 0x2E13 DUP2 PUSH2 0x27F2 JUMP JUMPDEST DUP2 EQ PUSH2 0x2E1E JUMPI PUSH1 0x0 DUP1 REVERT JUMPDEST POP JUMP JUMPDEST PUSH1 0x0 DUP2 MLOAD SWAP1 POP PUSH2 0x2E30 DUP2 PUSH2 0x2E0A JUMP JUMPDEST SWAP3 SWAP2 POP POP JUMP JUMPDEST PUSH1 0x0 PUSH1 0x60 DUP3 DUP5 SUB SLT ISZERO PUSH2 0x2E4C JUMPI PUSH2 0x2E4B PUSH2 0x2D5F JUMP JUMPDEST JUMPDEST PUSH2 0x2E56 PUSH1 0x60 PUSH2 0x2402 JUMP JUMPDEST SWAP1 POP PUSH1 0x0 PUSH2 0x2E66 DUP5 DUP3 DUP6 ADD PUSH2 0x2BE5 JUMP JUMPDEST PUSH1 0x0 DUP4 ADD MSTORE POP PUSH1 0x20 DUP3 ADD MLOAD PUSH8 0xFFFFFFFFFFFFFFFF DUP2 GT ISZERO PUSH2 0x2E8A JUMPI PUSH2 0x2E89 PUSH2 0x2D64 JUMP JUMPDEST JUMPDEST PUSH2 0x2E96 DUP5 DUP3 DUP6 ADD PUSH2 0x2DDC JUMP JUMPDEST PUSH1 0x20 DUP4 ADD MSTORE POP PUSH1 0x40 PUSH2 0x2EAA DUP5 DUP3 DUP6 ADD PUSH2 0x2E21 JUMP JUMPDEST PUSH1 0x40 DUP4 ADD MSTORE POP SWAP3 SWAP2 POP POP JUMP JUMPDEST PUSH1 0x0 PUSH1 0x20 DUP3 DUP5 SUB SLT ISZERO PUSH2 0x2ECC JUMPI PUSH2 0x2ECB PUSH2 0x221A JUMP JUMPDEST JUMPDEST PUSH1 0x0 DUP3 ADD MLOAD PUSH8 0xFFFFFFFFFFFFFFFF DUP2 GT ISZERO PUSH2 0x2EEA JUMPI PUSH2 0x2EE9 PUSH2 0x221F JUMP JUMPDEST JUMPDEST PUSH2 0x2EF6 DUP5 DUP3 DUP6 ADD PUSH2 0x2E36 JUMP JUMPDEST SWAP2 POP POP SWAP3 SWAP2 POP POP JUMP JUMPDEST PUSH2 0x2F08 DUP2 PUSH2 0x25B2 JUMP JUMPDEST DUP2 EQ PUSH2 0x2F13 JUMPI PUSH1 0x0 DUP1 REVERT JUMPDEST POP JUMP JUMPDEST PUSH1 0x0 DUP2 MLOAD SWAP1 POP PUSH2 0x2F25 DUP2 PUSH2 0x2EFF JUMP JUMPDEST SWAP3 SWAP2 POP POP JUMP JUMPDEST PUSH2 0x2F34 DUP2 PUSH2 0x25D0 JUMP JUMPDEST DUP2 EQ PUSH2 0x2F3F JUMPI PUSH1 0x0 DUP1 REVERT JUMPDEST POP JUMP JUMPDEST PUSH1 0x0 DUP2 MLOAD SWAP1 POP PUSH2 0x2F51 DUP2 PUSH2 0x2F2B JUMP JUMPDEST SWAP3 SWAP2 POP POP JUMP JUMPDEST PUSH2 0x2F60 DUP2 PUSH2 0x25EC JUMP JUMPDEST DUP2 EQ PUSH2 0x2F6B JUMPI PUSH1 0x0 DUP1 REVERT JUMPDEST POP JUMP JUMPDEST PUSH1 0x0 DUP2 MLOAD SWAP1 POP PUSH2 0x2F7D DUP2 PUSH2 0x2F57 JUMP JUMPDEST SWAP3 SWAP2 POP POP JUMP JUMPDEST PUSH2 0x2F8C DUP2 PUSH2 0x2609 JUMP JUMPDEST DUP2 EQ PUSH2 0x2F97 JUMPI PUSH1 0x0 DUP1 REVERT JUMPDEST POP JUMP JUMPDEST PUSH1 0x0 DUP2 MLOAD SWAP1 POP PUSH2 0x2FA9 DUP2 PUSH2 0x2F83 JUMP JUMPDEST SWAP3 SWAP2 POP POP JUMP JUMPDEST PUSH1 0x0 PUSH2 0x180 DUP3 DUP5 SUB SLT ISZERO PUSH2 0x2FC6 JUMPI PUSH2 0x2FC5 PUSH2 0x2D5F JUMP JUMPDEST JUMPDEST PUSH2 0x2FD1 PUSH2 0x180 PUSH2 0x2402 JUMP JUMPDEST SWAP1 POP PUSH1 0x0 PUSH2 0x2FE1 DUP5 DUP3 DUP6 ADD PUSH2 0x2BE5 JUMP JUMPDEST PUSH1 0x0 DUP4 ADD MSTORE POP PUSH1 0x20 PUSH2 0x2FF5 DUP5 DUP3 DUP6 ADD PUSH2 0x2F16 JUMP JUMPDEST PUSH1 0x20 DUP4 ADD MSTORE POP PUSH1 0x40 PUSH2 0x3009 DUP5 DUP3 DUP6 ADD PUSH2 0x2F16 JUMP JUMPDEST PUSH1 0x40 DUP4 ADD MSTORE POP PUSH1 0x60 PUSH2 0x301D DUP5 DUP3 DUP6 ADD PUSH2 0x2F16 JUMP JUMPDEST PUSH1 0x60 DUP4 ADD MSTORE POP PUSH1 0x80 PUSH2 0x3031 DUP5 DUP3 DUP6 ADD PUSH2 0x2F16 JUMP JUMPDEST PUSH1 0x80 DUP4 ADD MSTORE POP PUSH1 0xA0 PUSH2 0x3045 DUP5 DUP3 DUP6 ADD PUSH2 0x2F42 JUMP JUMPDEST PUSH1 0xA0 DUP4 ADD MSTORE POP PUSH1 0xC0 PUSH2 0x3059 DUP5 DUP3 DUP6 ADD PUSH2 0x2F6E JUMP JUMPDEST PUSH1 0xC0 DUP4 ADD MSTORE POP PUSH1 0xE0 PUSH2 0x306D DUP5 DUP3 DUP6 ADD PUSH2 0x2F6E JUMP JUMPDEST PUSH1 0xE0 DUP4 ADD MSTORE POP PUSH2 0x100 PUSH2 0x3082 DUP5 DUP3 DUP6 ADD PUSH2 0x2F9A JUMP JUMPDEST PUSH2 0x100 DUP4 ADD MSTORE POP PUSH2 0x120 PUSH2 0x3098 DUP5 DUP3 DUP6 ADD PUSH2 0x2F9A JUMP JUMPDEST PUSH2 0x120 DUP4 ADD MSTORE POP PUSH2 0x140 PUSH2 0x30AE DUP5 DUP3 DUP6 ADD PUSH2 0x2F9A JUMP JUMPDEST PUSH2 0x140 DUP4 ADD MSTORE POP PUSH2 0x160 PUSH2 0x30C4 DUP5 DUP3 DUP6 ADD PUSH2 0x2F9A JUMP JUMPDEST PUSH2 0x160 DUP4 ADD MSTORE POP SWAP3 SWAP2 POP POP JUMP JUMPDEST PUSH1 0x0 PUSH2 0x180 DUP3 DUP5 SUB SLT ISZERO PUSH2 0x30E8 JUMPI PUSH2 0x30E7 PUSH2 0x221A JUMP JUMPDEST JUMPDEST PUSH1 0x0 PUSH2 0x30F6 DUP5 DUP3 DUP6 ADD PUSH2 0x2FAF JUMP JUMPDEST SWAP2 POP POP SWAP3 SWAP2 POP POP JUMP JUMPDEST PUSH32 0x4E487B7100000000000000000000000000000000000000000000000000000000 PUSH1 0x0 MSTORE PUSH1 0x11 PUSH1 0x4 MSTORE PUSH1 0x24 PUSH1 0x0 REVERT JUMPDEST PUSH1 0x0 PUSH2 0x3139 DUP3 PUSH2 0x2599 JUMP JUMPDEST SWAP2 POP PUSH2 0x3144 DUP4 PUSH2 0x2599 JUMP JUMPDEST SWAP3 POP DUP3 PUSH32 0xFFFFFFFFFFFFFFFFFFFFFFFFFFFFFFFFFFFFFFFFFFFFFFFFFFFFFFFFFFFFFFFF SUB DUP3 GT ISZERO PUSH2 0x3179 JUMPI PUSH2 0x3178 PUSH2 0x30FF JUMP JUMPDEST JUMPDEST DUP3 DUP3 ADD SWAP1 POP SWAP3 SWAP2 POP POP JUMP JUMPDEST PUSH2 0x318D DUP2 PUSH2 0x2224 JUMP JUMPDEST DUP3 MSTORE POP POP JUMP JUMPDEST PUSH1 0x0 PUSH32 0xFFFFFFFF00000000000000000000000000000000000000000000000000000000 DUP3 AND SWAP1 POP SWAP2 SWAP1 POP JUMP JUMPDEST PUSH2 0x31C8 DUP2 PUSH2 0x3193 JUMP JUMPDEST DUP3 MSTORE POP POP JUMP JUMPDEST PUSH1 0x0 DUP2 MLOAD SWAP1 POP SWAP2 SWAP1 POP JUMP JUMPDEST PUSH1 0x0 DUP3 DUP3 MSTORE PUSH1 0x20 DUP3 ADD SWAP1 POP SWAP3 SWAP2 POP POP JUMP JUMPDEST PUSH1 0x0 PUSH2 0x31F5 DUP3 PUSH2 0x31CE JUMP JUMPDEST PUSH2 0x31FF DUP2 DUP6 PUSH2 0x31D9 JUMP JUMPDEST SWAP4 POP PUSH2 0x320F DUP2 DUP6 PUSH1 0x20 DUP7 ADD PUSH2 0x2786 JUMP JUMPDEST PUSH2 0x3218 DUP2 PUSH2 0x2391 JUMP JUMPDEST DUP5 ADD SWAP2 POP POP SWAP3 SWAP2 POP POP JUMP JUMPDEST PUSH1 0x0 PUSH2 0x100 DUP3 ADD SWAP1 POP PUSH2 0x3239 PUSH1 0x0 DUP4 ADD DUP12 PUSH2 0x2934 JUMP JUMPDEST PUSH2 0x3246 PUSH1 0x20 DUP4 ADD DUP11 PUSH2 0x25A3 JUMP JUMPDEST PUSH2 0x3253 PUSH1 0x40 DUP4 ADD DUP10 PUSH2 0x3184 JUMP JUMPDEST PUSH2 0x3260 PUSH1 0x60 DUP4 ADD DUP9 PUSH2 0x2934 JUMP JUMPDEST PUSH2 0x326D PUSH1 0x80 DUP4 ADD DUP8 PUSH2 0x31BF JUMP JUMPDEST PUSH2 0x327A PUSH1 0xA0 DUP4 ADD DUP7 PUSH2 0x25A3 JUMP JUMPDEST PUSH2 0x3287 PUSH1 0xC0 DUP4 ADD DUP6 PUSH2 0x25A3 JUMP JUMPDEST DUP2 DUP2 SUB PUSH1 0xE0 DUP4 ADD MSTORE PUSH2 0x3299 DUP2 DUP5 PUSH2 0x31EA JUMP JUMPDEST SWAP1 POP SWAP10 SWAP9 POP POP POP POP POP POP POP POP POP JUMP JUMPDEST PUSH32 0x4E487B7100000000000000000000000000000000000000000000000000000000 PUSH1 0x0 MSTORE PUSH1 0x12 PUSH1 0x4 MSTORE PUSH1 0x24 PUSH1 0x0 REVERT JUMPDEST PUSH1 0x0 PUSH2 0x32E2 DUP3 PUSH2 0x2599 JUMP JUMPDEST SWAP2 POP PUSH2 0x32ED DUP4 PUSH2 0x2599 JUMP JUMPDEST SWAP3 POP DUP3 PUSH2 0x32FD JUMPI PUSH2 0x32FC PUSH2 0x32A8 JUMP JUMPDEST JUMPDEST DUP3 DUP3 MOD SWAP1 POP SWAP3 SWAP2 POP POP JUMP JUMPDEST PUSH1 0x0 PUSH2 0x3313 DUP3 PUSH2 0x2599 JUMP JUMPDEST SWAP2 POP PUSH2 0x331E DUP4 PUSH2 0x2599 JUMP JUMPDEST SWAP3 POP DUP3 DUP3 LT ISZERO PUSH2 0x3331 JUMPI PUSH2 0x3330 PUSH2 0x30FF JUMP JUMPDEST JUMPDEST DUP3 DUP3 SUB SWAP1 POP SWAP3 SWAP2 POP POP JUMP JUMPDEST PUSH1 0x0 DUP2 SWAP1 POP SWAP2 SWAP1 POP JUMP JUMPDEST PUSH1 0x0 PUSH2 0x3361 PUSH2 0x335C PUSH2 0x3357 DUP5 PUSH2 0x26DF JUMP JUMPDEST PUSH2 0x333C JUMP JUMPDEST PUSH2 0x26DF JUMP JUMPDEST SWAP1 POP SWAP2 SWAP1 POP JUMP JUMPDEST PUSH1 0x0 PUSH2 0x3373 DUP3 PUSH2 0x3346 JUMP JUMPDEST SWAP1 POP SWAP2 SWAP1 POP JUMP JUMPDEST PUSH1 0x0 PUSH2 0x3385 DUP3 PUSH2 0x3368 JUMP JUMPDEST SWAP1 POP SWAP2 SWAP1 POP JUMP JUMPDEST PUSH1 0x0 DUP2 PUSH1 0x60 SHL SWAP1 POP SWAP2 SWAP1 POP JUMP JUMPDEST PUSH1 0x0 PUSH2 0x33A4 DUP3 PUSH2 0x338C JUMP JUMPDEST SWAP1 POP SWAP2 SWAP1 POP JUMP JUMPDEST PUSH1 0x0 PUSH2 0x33B6 DUP3 PUSH2 0x3399 JUMP JUMPDEST SWAP1 POP SWAP2 SWAP1 POP JUMP JUMPDEST PUSH2 0x33CE PUSH2 0x33C9 DUP3 PUSH2 0x337A JUMP JUMPDEST PUSH2 0x33AB JUMP JUMPDEST DUP3 MSTORE POP POP JUMP JUMPDEST PUSH1 0x0 DUP2 SWAP1 POP SWAP2 SWAP1 POP JUMP JUMPDEST PUSH2 0x33EF PUSH2 0x33EA DUP3 PUSH2 0x2599 JUMP JUMPDEST PUSH2 0x33D4 JUMP JUMPDEST DUP3 MSTORE POP POP JUMP JUMPDEST PUSH1 0x0 PUSH2 0x3401 DUP3 DUP6 PUSH2 0x33BD JUMP JUMPDEST PUSH1 0x14 DUP3 ADD SWAP2 POP PUSH2 0x3411 DUP3 DUP5 PUSH2 0x33DE JUMP JUMPDEST PUSH1 0x20 DUP3 ADD SWAP2 POP DUP2 SWAP1 POP SWAP4 SWAP3 POP POP POP JUMP JUMPDEST PUSH1 0x0 PUSH1 0x60 DUP3 ADD SWAP1 POP PUSH2 0x3436 PUSH1 0x0 DUP4 ADD DUP7 PUSH2 0x2934 JUMP JUMPDEST PUSH2 0x3443 PUSH1 0x20 DUP4 ADD DUP6 PUSH2 0x25A3 JUMP JUMPDEST DUP2 DUP2 SUB PUSH1 0x40 DUP4 ADD MSTORE PUSH2 0x3455 DUP2 DUP5 PUSH2 0x31EA JUMP JUMPDEST SWAP1 POP SWAP5 SWAP4 POP POP POP POP JUMP JUMPDEST PUSH32 0x756E61626C6520746F207472616E73666572416E6443616C6C20746F206F7261 PUSH1 0x0 DUP3 ADD MSTORE PUSH32 0x636C650000000000000000000000000000000000000000000000000000000000 PUSH1 0x20 DUP3 ADD MSTORE POP JUMP JUMPDEST PUSH1 0x0 PUSH2 0x34BB PUSH1 0x23 DUP4 PUSH2 0x2775 JUMP JUMPDEST SWAP2 POP PUSH2 0x34C6 DUP3 PUSH2 0x345F JUMP JUMPDEST PUSH1 0x40 DUP3 ADD SWAP1 POP SWAP2 SWAP1 POP JUMP JUMPDEST PUSH1 0x0 PUSH1 0x20 DUP3 ADD SWAP1 POP DUP2 DUP2 SUB PUSH1 0x0 DUP4 ADD MSTORE PUSH2 0x34EA DUP2 PUSH2 0x34AE JUMP JUMPDEST SWAP1 POP SWAP2 SWAP1 POP JUMP JUMPDEST PUSH1 0x0 PUSH2 0x34FC DUP3 PUSH2 0x2599 JUMP JUMPDEST SWAP2 POP PUSH2 0x3507 DUP4 PUSH2 0x2599 JUMP JUMPDEST SWAP3 POP DUP2 PUSH32 0xFFFFFFFFFFFFFFFFFFFFFFFFFFFFFFFFFFFFFFFFFFFFFFFFFFFFFFFFFFFFFFFF DIV DUP4 GT DUP3 ISZERO ISZERO AND ISZERO PUSH2 0x3540 JUMPI PUSH2 0x353F PUSH2 0x30FF JUMP JUMPDEST JUMPDEST DUP3 DUP3 MUL SWAP1 POP SWAP3 SWAP2 POP POP JUMP JUMPDEST PUSH1 0x0 DUP2 PUSH1 0x1 SHR SWAP1 POP SWAP2 SWAP1 POP JUMP JUMPDEST PUSH1 0x0 DUP1 DUP3 SWAP2 POP DUP4 SWAP1 POP JUMPDEST PUSH1 0x1 DUP6 GT ISZERO PUSH2 0x35A2 JUMPI DUP1 DUP7 DIV DUP2 GT ISZERO PUSH2 0x357E JUMPI PUSH2 0x357D PUSH2 0x30FF JUMP JUMPDEST JUMPDEST PUSH1 0x1 DUP6 AND ISZERO PUSH2 0x358D JUMPI DUP1 DUP3 MUL SWAP2 POP JUMPDEST DUP1 DUP2 MUL SWAP1 POP PUSH2 0x359B DUP6 PUSH2 0x354B JUMP JUMPDEST SWAP5 POP PUSH2 0x3562 JUMP JUMPDEST SWAP5 POP SWAP5 SWAP3 POP POP POP JUMP JUMPDEST PUSH1 0x0 DUP3 PUSH2 0x35BB JUMPI PUSH1 0x1 SWAP1 POP PUSH2 0x3677 JUMP JUMPDEST DUP2 PUSH2 0x35C9 JUMPI PUSH1 0x0 SWAP1 POP PUSH2 0x3677 JUMP JUMPDEST DUP2 PUSH1 0x1 DUP2 EQ PUSH2 0x35DF JUMPI PUSH1 0x2 DUP2 EQ PUSH2 0x35E9 JUMPI PUSH2 0x3618 JUMP JUMPDEST PUSH1 0x1 SWAP2 POP POP PUSH2 0x3677 JUMP JUMPDEST PUSH1 0xFF DUP5 GT ISZERO PUSH2 0x35FB JUMPI PUSH2 0x35FA PUSH2 0x30FF JUMP JUMPDEST JUMPDEST DUP4 PUSH1 0x2 EXP SWAP2 POP DUP5 DUP3 GT ISZERO PUSH2 0x3612 JUMPI PUSH2 0x3611 PUSH2 0x30FF JUMP JUMPDEST JUMPDEST POP PUSH2 0x3677 JUMP JUMPDEST POP PUSH1 0x20 DUP4 LT PUSH2 0x133 DUP4 LT AND PUSH1 0x4E DUP5 LT PUSH1 0xB DUP5 LT AND OR ISZERO PUSH2 0x364D JUMPI DUP3 DUP3 EXP SWAP1 POP DUP4 DUP2 GT ISZERO PUSH2 0x3648 JUMPI PUSH2 0x3647 PUSH2 0x30FF JUMP JUMPDEST JUMPDEST PUSH2 0x3677 JUMP JUMPDEST PUSH2 0x365A DUP5 DUP5 DUP5 PUSH1 0x1 PUSH2 0x3558 JUMP JUMPDEST SWAP3 POP SWAP1 POP DUP2 DUP5 DIV DUP2 GT ISZERO PUSH2 0x3671 JUMPI PUSH2 0x3670 PUSH2 0x30FF JUMP JUMPDEST JUMPDEST DUP2 DUP2 MUL SWAP1 POP JUMPDEST SWAP4 SWAP3 POP POP POP JUMP JUMPDEST PUSH1 0x0 PUSH2 0x3689 DUP3 PUSH2 0x2599 JUMP JUMPDEST SWAP2 POP PUSH2 0x3694 DUP4 PUSH2 0x2599 JUMP JUMPDEST SWAP3 POP PUSH2 0x36C1 PUSH32 0xFFFFFFFFFFFFFFFFFFFFFFFFFFFFFFFFFFFFFFFFFFFFFFFFFFFFFFFFFFFFFFFF DUP5 DUP5 PUSH2 0x35AB JUMP JUMPDEST SWAP1 POP SWAP3 SWAP2 POP POP JUMP INVALID LOG2 PUSH5 0x6970667358 0x22 SLT KECCAK256 0x22 MSTORE SWAP1 0x2E GASLIMIT 0xBE 0xC2 PUSH26 0x77C570A116250AAC4E219F8C21769A6CEF0F20BB7576731E6473 PUSH16 0x6C634300080900330000000000000000 "
		},
		"gasEstimates": {
			"creation": {
				"codeDepositCost": "2815800",
				"executionCost": "infinite",
				"totalCost": "infinite"
			},
			"external": {
				"fee()": "2451",
				"fulfillCurrentConditions(bytes32,bytes)": "infinite",
				"fulfillLocation(bytes32,bool,bytes)": "infinite",
				"fulfillLocationCurrentConditions(bytes32,bool,bytes,bytes)": "infinite",
				"getOracleAddress()": "2602",
				"requestCurrentConditions(bytes32,uint256,string)": "infinite",
				"requestIdCurrentConditionsResult(bytes32)": "infinite",
				"requestIdLocationResult(bytes32)": "infinite",
				"requestIdRequestParams(bytes32)": "infinite",
				"requestLocation(bytes32,string,string)": "infinite",
				"requestLocationCurrentConditions(bytes32,string,string,string)": "infinite",
				"setOracle(address)": "24818",
				"withdrawLink()": "infinite"
			},
			"internal": {
				"storeCurrentConditionsResult(bytes32,bytes memory)": "infinite",
				"storeLocationResult(bytes32,bytes memory)": "infinite",
				"storeRequestParams(bytes32,uint256,string memory,string memory,string memory,string memory)": "infinite"
			}
		},
		"methodIdentifiers": {
			"fee()": "ddca3f43",
			"fulfillCurrentConditions(bytes32,bytes)": "e13caa63",
			"fulfillLocation(bytes32,bool,bytes)": "dffe2894",
			"fulfillLocationCurrentConditions(bytes32,bool,bytes,bytes)": "371eaced",
			"getOracleAddress()": "b18b78dd",
			"requestCurrentConditions(bytes32,uint256,string)": "b69293e3",
			"requestIdCurrentConditionsResult(bytes32)": "37b95e86",
			"requestIdLocationResult(bytes32)": "9c2b98fb",
			"requestIdRequestParams(bytes32)": "ed6a7175",
			"requestLocation(bytes32,string,string)": "022f2b87",
			"requestLocationCurrentConditions(bytes32,string,string,string)": "9e1e86c0",
			"setOracle(address)": "7adbf973",
			"withdrawLink()": "8dc654a2"
		}
	},
	"abi": [
		{
			"inputs": [
				{
					"internalType": "address",
					"name": "_link",
					"type": "address"
				},
				{
					"internalType": "address",
					"name": "_oracle",
					"type": "address"
				}
			],
			"stateMutability": "nonpayable",
			"type": "constructor"
		},
		{
			"anonymous": false,
			"inputs": [
				{
					"indexed": true,
					"internalType": "bytes32",
					"name": "id",
					"type": "bytes32"
				}
			],
			"name": "ChainlinkCancelled",
			"type": "event"
		},
		{
			"anonymous": false,
			"inputs": [
				{
					"indexed": true,
					"internalType": "bytes32",
					"name": "id",
					"type": "bytes32"
				}
			],
			"name": "ChainlinkFulfilled",
			"type": "event"
		},
		{
			"anonymous": false,
			"inputs": [
				{
					"indexed": true,
					"internalType": "bytes32",
					"name": "id",
					"type": "bytes32"
				}
			],
			"name": "ChainlinkRequested",
			"type": "event"
		},
		{
			"inputs": [],
			"name": "fee",
			"outputs": [
				{
					"internalType": "uint256",
					"name": "",
					"type": "uint256"
				}
			],
			"stateMutability": "view",
			"type": "function"
		},
		{
			"inputs": [
				{
					"internalType": "bytes32",
					"name": "_requestId",
					"type": "bytes32"
				},
				{
					"internalType": "bytes",
					"name": "_currentConditionsResult",
					"type": "bytes"
				}
			],
			"name": "fulfillCurrentConditions",
			"outputs": [],
			"stateMutability": "nonpayable",
			"type": "function"
		},
		{
			"inputs": [
				{
					"internalType": "bytes32",
					"name": "_requestId",
					"type": "bytes32"
				},
				{
					"internalType": "bool",
					"name": "_locationFound",
					"type": "bool"
				},
				{
					"internalType": "bytes",
					"name": "_locationResult",
					"type": "bytes"
				}
			],
			"name": "fulfillLocation",
			"outputs": [],
			"stateMutability": "nonpayable",
			"type": "function"
		},
		{
			"inputs": [
				{
					"internalType": "bytes32",
					"name": "_requestId",
					"type": "bytes32"
				},
				{
					"internalType": "bool",
					"name": "_locationFound",
					"type": "bool"
				},
				{
					"internalType": "bytes",
					"name": "_locationResult",
					"type": "bytes"
				},
				{
					"internalType": "bytes",
					"name": "_currentConditionsResult",
					"type": "bytes"
				}
			],
			"name": "fulfillLocationCurrentConditions",
			"outputs": [],
			"stateMutability": "nonpayable",
			"type": "function"
		},
		{
			"inputs": [],
			"name": "getOracleAddress",
			"outputs": [
				{
					"internalType": "address",
					"name": "",
					"type": "address"
				}
			],
			"stateMutability": "view",
			"type": "function"
		},
		{
			"inputs": [
				{
					"internalType": "bytes32",
					"name": "_specId",
					"type": "bytes32"
				},
				{
					"internalType": "uint256",
					"name": "_locationKey",
					"type": "uint256"
				},
				{
					"internalType": "string",
					"name": "_units",
					"type": "string"
				}
			],
			"name": "requestCurrentConditions",
			"outputs": [],
			"stateMutability": "nonpayable",
			"type": "function"
		},
		{
			"inputs": [
				{
					"internalType": "bytes32",
					"name": "",
					"type": "bytes32"
				}
			],
			"name": "requestIdCurrentConditionsResult",
			"outputs": [
				{
					"internalType": "uint256",
					"name": "timestamp",
					"type": "uint256"
				},
				{
					"internalType": "uint24",
					"name": "precipitationPast12Hours",
					"type": "uint24"
				},
				{
					"internalType": "uint24",
					"name": "precipitationPast24Hours",
					"type": "uint24"
				},
				{
					"internalType": "uint24",
					"name": "precipitationPastHour",
					"type": "uint24"
				},
				{
					"internalType": "uint24",
					"name": "pressure",
					"type": "uint24"
				},
				{
					"internalType": "int16",
					"name": "temperature",
					"type": "int16"
				},
				{
					"internalType": "uint16",
					"name": "windDirectionDegrees",
					"type": "uint16"
				},
				{
					"internalType": "uint16",
					"name": "windSpeed",
					"type": "uint16"
				},
				{
					"internalType": "uint8",
					"name": "precipitationType",
					"type": "uint8"
				},
				{
					"internalType": "uint8",
					"name": "relativeHumidity",
					"type": "uint8"
				},
				{
					"internalType": "uint8",
					"name": "uvIndex",
					"type": "uint8"
				},
				{
					"internalType": "uint8",
					"name": "weatherIcon",
					"type": "uint8"
				}
			],
			"stateMutability": "view",
			"type": "function"
		},
		{
			"inputs": [
				{
					"internalType": "bytes32",
					"name": "",
					"type": "bytes32"
				}
			],
			"name": "requestIdLocationResult",
			"outputs": [
				{
					"internalType": "uint256",
					"name": "locationKey",
					"type": "uint256"
				},
				{
					"internalType": "string",
					"name": "name",
					"type": "string"
				},
				{
					"internalType": "bytes2",
					"name": "countryCode",
					"type": "bytes2"
				}
			],
			"stateMutability": "view",
			"type": "function"
		},
		{
			"inputs": [
				{
					"internalType": "bytes32",
					"name": "",
					"type": "bytes32"
				}
			],
			"name": "requestIdRequestParams",
			"outputs": [
				{
					"internalType": "uint256",
					"name": "locationKey",
					"type": "uint256"
				},
				{
					"internalType": "string",
					"name": "endpoint",
					"type": "string"
				},
				{
					"internalType": "string",
					"name": "lat",
					"type": "string"
				},
				{
					"internalType": "string",
					"name": "lon",
					"type": "string"
				},
				{
					"internalType": "string",
					"name": "units",
					"type": "string"
				}
			],
			"stateMutability": "view",
			"type": "function"
		},
		{
			"inputs": [
				{
					"internalType": "bytes32",
					"name": "_specId",
					"type": "bytes32"
				},
				{
					"internalType": "string",
					"name": "_lat",
					"type": "string"
				},
				{
					"internalType": "string",
					"name": "_lon",
					"type": "string"
				}
			],
			"name": "requestLocation",
			"outputs": [],
			"stateMutability": "nonpayable",
			"type": "function"
		},
		{
			"inputs": [
				{
					"internalType": "bytes32",
					"name": "_specId",
					"type": "bytes32"
				},
				{
					"internalType": "string",
					"name": "_lat",
					"type": "string"
				},
				{
					"internalType": "string",
					"name": "_lon",
					"type": "string"
				},
				{
					"internalType": "string",
					"name": "_units",
					"type": "string"
				}
			],
			"name": "requestLocationCurrentConditions",
			"outputs": [],
			"stateMutability": "nonpayable",
			"type": "function"
		},
		{
			"inputs": [
				{
					"internalType": "address",
					"name": "_oracle",
					"type": "address"
				}
			],
			"name": "setOracle",
			"outputs": [],
			"stateMutability": "nonpayable",
			"type": "function"
		},
		{
			"inputs": [],
			"name": "withdrawLink",
			"outputs": [],
			"stateMutability": "nonpayable",
			"type": "function"
		}
	]
}