{
  "contractName": "MyNFTs",
  "abi": [
    {
      "inputs": [],
      "stateMutability": "nonpayable",
      "type": "constructor"
    },
    {
      "anonymous": false,
      "inputs": [
        {
          "indexed": true,
          "internalType": "address",
          "name": "owner",
          "type": "address"
        },
        {
          "indexed": true,
          "internalType": "address",
          "name": "approved",
          "type": "address"
        },
        {
          "indexed": true,
          "internalType": "uint256",
          "name": "tokenId",
          "type": "uint256"
        }
      ],
      "name": "Approval",
      "type": "event"
    },
    {
      "anonymous": false,
      "inputs": [
        {
          "indexed": true,
          "internalType": "address",
          "name": "owner",
          "type": "address"
        },
        {
          "indexed": true,
          "internalType": "address",
          "name": "operator",
          "type": "address"
        },
        {
          "indexed": false,
          "internalType": "bool",
          "name": "approved",
          "type": "bool"
        }
      ],
      "name": "ApprovalForAll",
      "type": "event"
    },
    {
      "anonymous": false,
      "inputs": [
        {
          "indexed": true,
          "internalType": "address",
          "name": "previousOwner",
          "type": "address"
        },
        {
          "indexed": true,
          "internalType": "address",
          "name": "newOwner",
          "type": "address"
        }
      ],
      "name": "OwnershipTransferred",
      "type": "event"
    },
    {
      "anonymous": false,
      "inputs": [
        {
          "indexed": true,
          "internalType": "address",
          "name": "from",
          "type": "address"
        },
        {
          "indexed": true,
          "internalType": "address",
          "name": "to",
          "type": "address"
        },
        {
          "indexed": true,
          "internalType": "uint256",
          "name": "tokenId",
          "type": "uint256"
        }
      ],
      "name": "Transfer",
      "type": "event"
    },
    {
      "inputs": [
        {
          "internalType": "address",
          "name": "to",
          "type": "address"
        },
        {
          "internalType": "uint256",
          "name": "tokenId",
          "type": "uint256"
        }
      ],
      "name": "approve",
      "outputs": [],
      "stateMutability": "nonpayable",
      "type": "function"
    },
    {
      "inputs": [
        {
          "internalType": "address",
          "name": "owner",
          "type": "address"
        }
      ],
      "name": "balanceOf",
      "outputs": [
        {
          "internalType": "uint256",
          "name": "",
          "type": "uint256"
        }
      ],
      "stateMutability": "view",
      "type": "function",
      "constant": true
    },
    {
      "inputs": [
        {
          "internalType": "uint256",
          "name": "tokenId",
          "type": "uint256"
        }
      ],
      "name": "getApproved",
      "outputs": [
        {
          "internalType": "address",
          "name": "",
          "type": "address"
        }
      ],
      "stateMutability": "view",
      "type": "function",
      "constant": true
    },
    {
      "inputs": [
        {
          "internalType": "address",
          "name": "owner",
          "type": "address"
        },
        {
          "internalType": "address",
          "name": "operator",
          "type": "address"
        }
      ],
      "name": "isApprovedForAll",
      "outputs": [
        {
          "internalType": "bool",
          "name": "",
          "type": "bool"
        }
      ],
      "stateMutability": "view",
      "type": "function",
      "constant": true
    },
    {
      "inputs": [],
      "name": "name",
      "outputs": [
        {
          "internalType": "string",
          "name": "",
          "type": "string"
        }
      ],
      "stateMutability": "view",
      "type": "function",
      "constant": true
    },
    {
      "inputs": [],
      "name": "owner",
      "outputs": [
        {
          "internalType": "address",
          "name": "",
          "type": "address"
        }
      ],
      "stateMutability": "view",
      "type": "function",
      "constant": true
    },
    {
      "inputs": [
        {
          "internalType": "uint256",
          "name": "tokenId",
          "type": "uint256"
        }
      ],
      "name": "ownerOf",
      "outputs": [
        {
          "internalType": "address",
          "name": "",
          "type": "address"
        }
      ],
      "stateMutability": "view",
      "type": "function",
      "constant": true
    },
    {
      "inputs": [],
      "name": "renounceOwnership",
      "outputs": [],
      "stateMutability": "nonpayable",
      "type": "function"
    },
    {
      "inputs": [
        {
          "internalType": "address",
          "name": "from",
          "type": "address"
        },
        {
          "internalType": "address",
          "name": "to",
          "type": "address"
        },
        {
          "internalType": "uint256",
          "name": "tokenId",
          "type": "uint256"
        }
      ],
      "name": "safeTransferFrom",
      "outputs": [],
      "stateMutability": "nonpayable",
      "type": "function"
    },
    {
      "inputs": [
        {
          "internalType": "address",
          "name": "from",
          "type": "address"
        },
        {
          "internalType": "address",
          "name": "to",
          "type": "address"
        },
        {
          "internalType": "uint256",
          "name": "tokenId",
          "type": "uint256"
        },
        {
          "internalType": "bytes",
          "name": "data",
          "type": "bytes"
        }
      ],
      "name": "safeTransferFrom",
      "outputs": [],
      "stateMutability": "nonpayable",
      "type": "function"
    },
    {
      "inputs": [
        {
          "internalType": "address",
          "name": "operator",
          "type": "address"
        },
        {
          "internalType": "bool",
          "name": "approved",
          "type": "bool"
        }
      ],
      "name": "setApprovalForAll",
      "outputs": [],
      "stateMutability": "nonpayable",
      "type": "function"
    },
    {
      "inputs": [
        {
          "internalType": "bytes4",
          "name": "interfaceId",
          "type": "bytes4"
        }
      ],
      "name": "supportsInterface",
      "outputs": [
        {
          "internalType": "bool",
          "name": "",
          "type": "bool"
        }
      ],
      "stateMutability": "view",
      "type": "function",
      "constant": true
    },
    {
      "inputs": [],
      "name": "symbol",
      "outputs": [
        {
          "internalType": "string",
          "name": "",
          "type": "string"
        }
      ],
      "stateMutability": "view",
      "type": "function",
      "constant": true
    },
    {
      "inputs": [
        {
          "internalType": "uint256",
          "name": "tokenId",
          "type": "uint256"
        }
      ],
      "name": "tokenURI",
      "outputs": [
        {
          "internalType": "string",
          "name": "",
          "type": "string"
        }
      ],
      "stateMutability": "view",
      "type": "function",
      "constant": true
    },
    {
      "inputs": [
        {
          "internalType": "address",
          "name": "from",
          "type": "address"
        },
        {
          "internalType": "address",
          "name": "to",
          "type": "address"
        },
        {
          "internalType": "uint256",
          "name": "tokenId",
          "type": "uint256"
        }
      ],
      "name": "transferFrom",
      "outputs": [],
      "stateMutability": "nonpayable",
      "type": "function"
    },
    {
      "inputs": [
        {
          "internalType": "address",
          "name": "newOwner",
          "type": "address"
        }
      ],
      "name": "transferOwnership",
      "outputs": [],
      "stateMutability": "nonpayable",
      "type": "function"
    },
    {
      "inputs": [
        {
          "internalType": "string",
          "name": "tokenURI",
          "type": "string"
        }
      ],
      "name": "mintNFT",
      "outputs": [
        {
          "internalType": "uint256",
          "name": "",
          "type": "uint256"
        }
      ],
      "stateMutability": "nonpayable",
      "type": "function"
    }
  ],
  "bytecode": "0x60806040523480156200001157600080fd5b506040518060400160405280600681526020017f4d794e46547300000000000000000000000000000000000000000000000000008152506040518060400160405280600481526020017f4d4e465400000000000000000000000000000000000000000000000000000000815250816000908051906020019062000096929190620001a6565b508060019080519060200190620000af929190620001a6565b505050620000d2620000c6620000d860201b60201c565b620000e060201b60201c565b620002bb565b600033905090565b6000600760009054906101000a900473ffffffffffffffffffffffffffffffffffffffff16905081600760006101000a81548173ffffffffffffffffffffffffffffffffffffffff021916908373ffffffffffffffffffffffffffffffffffffffff1602179055508173ffffffffffffffffffffffffffffffffffffffff168173ffffffffffffffffffffffffffffffffffffffff167f8be0079c531659141344cd1fd0a4f28419497f9722a3daafe3b4186f6b6457e060405160405180910390a35050565b828054620001b49062000256565b90600052602060002090601f016020900481019282620001d8576000855562000224565b82601f10620001f357805160ff191683800117855562000224565b8280016001018555821562000224579182015b828111156200022357825182559160200191906001019062000206565b5b50905062000233919062000237565b5090565b5b808211156200025257600081600090555060010162000238565b5090565b600060028204905060018216806200026f57607f821691505b602082108114156200028657620002856200028c565b5b50919050565b7f4e487b7100000000000000000000000000000000000000000000000000000000600052602260045260246000fd5b612dd580620002cb6000396000f3fe608060405234801561001057600080fd5b506004361061010b5760003560e01c8063715018a6116100a2578063b88d4fde11610071578063b88d4fde146102a4578063c87b56dd146102c0578063e985e9c5146102f0578063f2fde38b14610320578063fb37e8831461033c5761010b565b8063715018a6146102425780638da5cb5b1461024c57806395d89b411461026a578063a22cb465146102885761010b565b806323b872dd116100de57806323b872dd146101aa57806342842e0e146101c65780636352211e146101e257806370a08231146102125761010b565b806301ffc9a71461011057806306fdde0314610140578063081812fc1461015e578063095ea7b31461018e575b600080fd5b61012a60048036038101906101259190612034565b61036c565b6040516101379190612449565b60405180910390f35b61014861044e565b6040516101559190612464565b60405180910390f35b610178600480360381019061017391906120d7565b6104e0565b60405161018591906123e2565b60405180910390f35b6101a860048036038101906101a39190611ff4565b610526565b005b6101c460048036038101906101bf9190611ede565b61063e565b005b6101e060048036038101906101db9190611ede565b61069e565b005b6101fc60048036038101906101f791906120d7565b6106be565b60405161020991906123e2565b60405180910390f35b61022c60048036038101906102279190611e71565b610745565b6040516102399190612646565b60405180910390f35b61024a6107fd565b005b610254610811565b60405161026191906123e2565b60405180910390f35b61027261083b565b60405161027f9190612464565b60405180910390f35b6102a2600480360381019061029d9190611fb4565b6108cd565b005b6102be60048036038101906102b99190611f31565b6108e3565b005b6102da60048036038101906102d591906120d7565b610945565b6040516102e79190612464565b60405180910390f35b61030a60048036038101906103059190611e9e565b610a58565b6040516103179190612449565b60405180910390f35b61033a60048036038101906103359190611e71565b610aec565b005b6103566004803603810190610351919061208e565b610b70565b6040516103639190612646565b60405180910390f35b60007f80ac58cd000000000000000000000000000000000000000000000000000000007bffffffffffffffffffffffffffffffffffffffffffffffffffffffff1916827bffffffffffffffffffffffffffffffffffffffffffffffffffffffff1916148061043757507f5b5e139f000000000000000000000000000000000000000000000000000000007bffffffffffffffffffffffffffffffffffffffffffffffffffffffff1916827bffffffffffffffffffffffffffffffffffffffffffffffffffffffff1916145b80610447575061044682610baf565b5b9050919050565b60606000805461045d9061286b565b80601f01602080910402602001604051908101604052809291908181526020018280546104899061286b565b80156104d65780601f106104ab576101008083540402835291602001916104d6565b820191906000526020600020905b8154815290600101906020018083116104b957829003601f168201915b5050505050905090565b60006104eb82610c19565b6004600083815260200190815260200160002060009054906101000a900473ffffffffffffffffffffffffffffffffffffffff169050919050565b6000610531826106be565b90508073ffffffffffffffffffffffffffffffffffffffff168373ffffffffffffffffffffffffffffffffffffffff1614156105a2576040517f08c379a000000000000000000000000000000000000000000000000000000000815260040161059990612606565b60405180910390fd5b8073ffffffffffffffffffffffffffffffffffffffff166105c1610c64565b73ffffffffffffffffffffffffffffffffffffffff1614806105f057506105ef816105ea610c64565b610a58565b5b61062f576040517f08c379a000000000000000000000000000000000000000000000000000000000815260040161062690612626565b60405180910390fd5b6106398383610c6c565b505050565b61064f610649610c64565b82610d25565b61068e576040517f08c379a000000000000000000000000000000000000000000000000000000000815260040161068590612486565b60405180910390fd5b610699838383610dba565b505050565b6106b9838383604051806020016040528060008152506108e3565b505050565b6000806106ca836110b4565b9050600073ffffffffffffffffffffffffffffffffffffffff168173ffffffffffffffffffffffffffffffffffffffff16141561073c576040517f08c379a0000000000000000000000000000000000000000000000000000000008152600401610733906125e6565b60405180910390fd5b80915050919050565b60008073ffffffffffffffffffffffffffffffffffffffff168273ffffffffffffffffffffffffffffffffffffffff1614156107b6576040517f08c379a00000000000000000000000000000000000000000000000000000000081526004016107ad90612566565b60405180910390fd5b600360008373ffffffffffffffffffffffffffffffffffffffff1673ffffffffffffffffffffffffffffffffffffffff168152602001908152602001600020549050919050565b6108056110f1565b61080f600061116f565b565b6000600760009054906101000a900473ffffffffffffffffffffffffffffffffffffffff16905090565b60606001805461084a9061286b565b80601f01602080910402602001604051908101604052809291908181526020018280546108769061286b565b80156108c35780601f10610898576101008083540402835291602001916108c3565b820191906000526020600020905b8154815290600101906020018083116108a657829003601f168201915b5050505050905090565b6108df6108d8610c64565b8383611235565b5050565b6108f46108ee610c64565b83610d25565b610933576040517f08c379a000000000000000000000000000000000000000000000000000000000815260040161092a90612486565b60405180910390fd5b61093f848484846113a2565b50505050565b606061095082610c19565b60006006600084815260200190815260200160002080546109709061286b565b80601f016020809104026020016040519081016040528092919081815260200182805461099c9061286b565b80156109e95780601f106109be576101008083540402835291602001916109e9565b820191906000526020600020905b8154815290600101906020018083116109cc57829003601f168201915b5050505050905060006109fa6113fe565b9050600081511415610a10578192505050610a53565b600082511115610a45578082604051602001610a2d9291906123be565b60405160208183030381529060405292505050610a53565b610a4e84611415565b925050505b919050565b6000600560008473ffffffffffffffffffffffffffffffffffffffff1673ffffffffffffffffffffffffffffffffffffffff16815260200190815260200160002060008373ffffffffffffffffffffffffffffffffffffffff1673ffffffffffffffffffffffffffffffffffffffff16815260200190815260200160002060009054906101000a900460ff16905092915050565b610af46110f1565b600073ffffffffffffffffffffffffffffffffffffffff168173ffffffffffffffffffffffffffffffffffffffff161415610b64576040517f08c379a0000000000000000000000000000000000000000000000000000000008152600401610b5b906124c6565b60405180910390fd5b610b6d8161116f565b50565b6000610b7a6110f1565b610b84600861147d565b6000610b906008611493565b9050610b9c33826114a1565b610ba681846116bf565b80915050919050565b60007f01ffc9a7000000000000000000000000000000000000000000000000000000007bffffffffffffffffffffffffffffffffffffffffffffffffffffffff1916827bffffffffffffffffffffffffffffffffffffffffffffffffffffffff1916149050919050565b610c2281611733565b610c61576040517f08c379a0000000000000000000000000000000000000000000000000000000008152600401610c58906125e6565b60405180910390fd5b50565b600033905090565b816004600083815260200190815260200160002060006101000a81548173ffffffffffffffffffffffffffffffffffffffff021916908373ffffffffffffffffffffffffffffffffffffffff160217905550808273ffffffffffffffffffffffffffffffffffffffff16610cdf836106be565b73ffffffffffffffffffffffffffffffffffffffff167f8c5be1e5ebec7d5bd14f71427d1e84f3dd0314c0f7b2291e5b200ac8c7c3b92560405160405180910390a45050565b600080610d31836106be565b90508073ffffffffffffffffffffffffffffffffffffffff168473ffffffffffffffffffffffffffffffffffffffff161480610d735750610d728185610a58565b5b80610db157508373ffffffffffffffffffffffffffffffffffffffff16610d99846104e0565b73ffffffffffffffffffffffffffffffffffffffff16145b91505092915050565b8273ffffffffffffffffffffffffffffffffffffffff16610dda826106be565b73ffffffffffffffffffffffffffffffffffffffff1614610e30576040517f08c379a0000000000000000000000000000000000000000000000000000000008152600401610e27906124e6565b60405180910390fd5b600073ffffffffffffffffffffffffffffffffffffffff168273ffffffffffffffffffffffffffffffffffffffff161415610ea0576040517f08c379a0000000000000000000000000000000000000000000000000000000008152600401610e9790612526565b60405180910390fd5b610ead8383836001611774565b8273ffffffffffffffffffffffffffffffffffffffff16610ecd826106be565b73ffffffffffffffffffffffffffffffffffffffff1614610f23576040517f08c379a0000000000000000000000000000000000000000000000000000000008152600401610f1a906124e6565b60405180910390fd5b6004600082815260200190815260200160002060006101000a81549073ffffffffffffffffffffffffffffffffffffffff02191690556001600360008573ffffffffffffffffffffffffffffffffffffffff1673ffffffffffffffffffffffffffffffffffffffff168152602001908152602001600020600082825403925050819055506001600360008473ffffffffffffffffffffffffffffffffffffffff1673ffffffffffffffffffffffffffffffffffffffff16815260200190815260200160002060008282540192505081905550816002600083815260200190815260200160002060006101000a81548173ffffffffffffffffffffffffffffffffffffffff021916908373ffffffffffffffffffffffffffffffffffffffff160217905550808273ffffffffffffffffffffffffffffffffffffffff168473ffffffffffffffffffffffffffffffffffffffff167fddf252ad1be2c89b69c2b068fc378daa952ba7f163c4a11628f55a4df523b3ef60405160405180910390a46110af838383600161189a565b505050565b60006002600083815260200190815260200160002060009054906101000a900473ffffffffffffffffffffffffffffffffffffffff169050919050565b6110f9610c64565b73ffffffffffffffffffffffffffffffffffffffff16611117610811565b73ffffffffffffffffffffffffffffffffffffffff161461116d576040517f08c379a0000000000000000000000000000000000000000000000000000000008152600401611164906125c6565b60405180910390fd5b565b6000600760009054906101000a900473ffffffffffffffffffffffffffffffffffffffff16905081600760006101000a81548173ffffffffffffffffffffffffffffffffffffffff021916908373ffffffffffffffffffffffffffffffffffffffff1602179055508173ffffffffffffffffffffffffffffffffffffffff168173ffffffffffffffffffffffffffffffffffffffff167f8be0079c531659141344cd1fd0a4f28419497f9722a3daafe3b4186f6b6457e060405160405180910390a35050565b8173ffffffffffffffffffffffffffffffffffffffff168373ffffffffffffffffffffffffffffffffffffffff1614156112a4576040517f08c379a000000000000000000000000000000000000000000000000000000000815260040161129b90612546565b60405180910390fd5b80600560008573ffffffffffffffffffffffffffffffffffffffff1673ffffffffffffffffffffffffffffffffffffffff16815260200190815260200160002060008473ffffffffffffffffffffffffffffffffffffffff1673ffffffffffffffffffffffffffffffffffffffff16815260200190815260200160002060006101000a81548160ff0219169083151502179055508173ffffffffffffffffffffffffffffffffffffffff168373ffffffffffffffffffffffffffffffffffffffff167f17307eab39ab6107e8899845ad3d59bd9653f200f220920489ca2b5937696c31836040516113959190612449565b60405180910390a3505050565b6113ad848484610dba565b6113b9848484846118a0565b6113f8576040517f08c379a00000000000000000000000000000000000000000000000000000000081526004016113ef906124a6565b60405180910390fd5b50505050565b606060405180602001604052806000815250905090565b606061142082610c19565b600061142a6113fe565b9050600081511161144a5760405180602001604052806000815250611475565b8061145484611a37565b6040516020016114659291906123be565b6040516020818303038152906040525b915050919050565b6001816000016000828254019250508190555050565b600081600001549050919050565b600073ffffffffffffffffffffffffffffffffffffffff168273ffffffffffffffffffffffffffffffffffffffff161415611511576040517f08c379a0000000000000000000000000000000000000000000000000000000008152600401611508906125a6565b60405180910390fd5b61151a81611733565b1561155a576040517f08c379a000000000000000000000000000000000000000000000000000000000815260040161155190612506565b60405180910390fd5b611568600083836001611774565b61157181611733565b156115b1576040517f08c379a00000000000000000000000000000000000000000000000000000000081526004016115a890612506565b60405180910390fd5b6001600360008473ffffffffffffffffffffffffffffffffffffffff1673ffffffffffffffffffffffffffffffffffffffff16815260200190815260200160002060008282540192505081905550816002600083815260200190815260200160002060006101000a81548173ffffffffffffffffffffffffffffffffffffffff021916908373ffffffffffffffffffffffffffffffffffffffff160217905550808273ffffffffffffffffffffffffffffffffffffffff16600073ffffffffffffffffffffffffffffffffffffffff167fddf252ad1be2c89b69c2b068fc378daa952ba7f163c4a11628f55a4df523b3ef60405160405180910390a46116bb60008383600161189a565b5050565b6116c882611733565b611707576040517f08c379a00000000000000000000000000000000000000000000000000000000081526004016116fe90612586565b60405180910390fd5b8060066000848152602001908152602001600020908051906020019061172e929190611c85565b505050565b60008073ffffffffffffffffffffffffffffffffffffffff16611755836110b4565b73ffffffffffffffffffffffffffffffffffffffff1614159050919050565b600181111561189457600073ffffffffffffffffffffffffffffffffffffffff168473ffffffffffffffffffffffffffffffffffffffff16146118085780600360008673ffffffffffffffffffffffffffffffffffffffff1673ffffffffffffffffffffffffffffffffffffffff16815260200190815260200160002060008282546118009190612781565b925050819055505b600073ffffffffffffffffffffffffffffffffffffffff168373ffffffffffffffffffffffffffffffffffffffff16146118935780600360008573ffffffffffffffffffffffffffffffffffffffff1673ffffffffffffffffffffffffffffffffffffffff168152602001908152602001600020600082825461188b919061272b565b925050819055505b5b50505050565b50505050565b60006118c18473ffffffffffffffffffffffffffffffffffffffff16611b0f565b15611a2a578373ffffffffffffffffffffffffffffffffffffffff1663150b7a026118ea610c64565b8786866040518563ffffffff1660e01b815260040161190c94939291906123fd565b602060405180830381600087803b15801561192657600080fd5b505af192505050801561195757506040513d601f19601f820116820180604052508101906119549190612061565b60015b6119da573d8060008114611987576040519150601f19603f3d011682016040523d82523d6000602084013e61198c565b606091505b506000815114156119d2576040517f08c379a00000000000000000000000000000000000000000000000000000000081526004016119c9906124a6565b60405180910390fd5b805181602001fd5b63150b7a0260e01b7bffffffffffffffffffffffffffffffffffffffffffffffffffffffff1916817bffffffffffffffffffffffffffffffffffffffffffffffffffffffff191614915050611a2f565b600190505b949350505050565b606060006001611a4684611b32565b01905060008167ffffffffffffffff811115611a6557611a6461295b565b5b6040519080825280601f01601f191660200182016040528015611a975781602001600182028036833780820191505090505b509050600082602001820190505b600115611b04578080600190039150507f3031323334353637383961626364656600000000000000000000000000000000600a86061a8153600a8581611aee57611aed6128fd565b5b0494506000851415611aff57611b04565b611aa5565b819350505050919050565b6000808273ffffffffffffffffffffffffffffffffffffffff163b119050919050565b600080600090507a184f03e93ff9f4daa797ed6e38ed64bf6a1f0100000000000000008310611b90577a184f03e93ff9f4daa797ed6e38ed64bf6a1f0100000000000000008381611b8657611b856128fd565b5b0492506040810190505b6d04ee2d6d415b85acef81000000008310611bcd576d04ee2d6d415b85acef81000000008381611bc357611bc26128fd565b5b0492506020810190505b662386f26fc100008310611bfc57662386f26fc100008381611bf257611bf16128fd565b5b0492506010810190505b6305f5e1008310611c25576305f5e1008381611c1b57611c1a6128fd565b5b0492506008810190505b6127108310611c4a576127108381611c4057611c3f6128fd565b5b0492506004810190505b60648310611c6d5760648381611c6357611c626128fd565b5b0492506002810190505b600a8310611c7c576001810190505b80915050919050565b828054611c919061286b565b90600052602060002090601f016020900481019282611cb35760008555611cfa565b82601f10611ccc57805160ff1916838001178555611cfa565b82800160010185558215611cfa579182015b82811115611cf9578251825591602001919060010190611cde565b5b509050611d079190611d0b565b5090565b5b80821115611d24576000816000905550600101611d0c565b5090565b6000611d3b611d3684612686565b612661565b905082815260208101848484011115611d5757611d5661298f565b5b611d62848285612829565b509392505050565b6000611d7d611d78846126b7565b612661565b905082815260208101848484011115611d9957611d9861298f565b5b611da4848285612829565b509392505050565b600081359050611dbb81612d43565b92915050565b600081359050611dd081612d5a565b92915050565b600081359050611de581612d71565b92915050565b600081519050611dfa81612d71565b92915050565b600082601f830112611e1557611e1461298a565b5b8135611e25848260208601611d28565b91505092915050565b600082601f830112611e4357611e4261298a565b5b8135611e53848260208601611d6a565b91505092915050565b600081359050611e6b81612d88565b92915050565b600060208284031215611e8757611e86612999565b5b6000611e9584828501611dac565b91505092915050565b60008060408385031215611eb557611eb4612999565b5b6000611ec385828601611dac565b9250506020611ed485828601611dac565b9150509250929050565b600080600060608486031215611ef757611ef6612999565b5b6000611f0586828701611dac565b9350506020611f1686828701611dac565b9250506040611f2786828701611e5c565b9150509250925092565b60008060008060808587031215611f4b57611f4a612999565b5b6000611f5987828801611dac565b9450506020611f6a87828801611dac565b9350506040611f7b87828801611e5c565b925050606085013567ffffffffffffffff811115611f9c57611f9b612994565b5b611fa887828801611e00565b91505092959194509250565b60008060408385031215611fcb57611fca612999565b5b6000611fd985828601611dac565b9250506020611fea85828601611dc1565b9150509250929050565b6000806040838503121561200b5761200a612999565b5b600061201985828601611dac565b925050602061202a85828601611e5c565b9150509250929050565b60006020828403121561204a57612049612999565b5b600061205884828501611dd6565b91505092915050565b60006020828403121561207757612076612999565b5b600061208584828501611deb565b91505092915050565b6000602082840312156120a4576120a3612999565b5b600082013567ffffffffffffffff8111156120c2576120c1612994565b5b6120ce84828501611e2e565b91505092915050565b6000602082840312156120ed576120ec612999565b5b60006120fb84828501611e5c565b91505092915050565b61210d816127b5565b82525050565b61211c816127c7565b82525050565b600061212d826126e8565b61213781856126fe565b9350612147818560208601612838565b6121508161299e565b840191505092915050565b6000612166826126f3565b612170818561270f565b9350612180818560208601612838565b6121898161299e565b840191505092915050565b600061219f826126f3565b6121a98185612720565b93506121b9818560208601612838565b80840191505092915050565b60006121d2602d8361270f565b91506121dd826129af565b604082019050919050565b60006121f560328361270f565b9150612200826129fe565b604082019050919050565b600061221860268361270f565b915061222382612a4d565b604082019050919050565b600061223b60258361270f565b915061224682612a9c565b604082019050919050565b600061225e601c8361270f565b915061226982612aeb565b602082019050919050565b600061228160248361270f565b915061228c82612b14565b604082019050919050565b60006122a460198361270f565b91506122af82612b63565b602082019050919050565b60006122c760298361270f565b91506122d282612b8c565b604082019050919050565b60006122ea602e8361270f565b91506122f582612bdb565b604082019050919050565b600061230d60208361270f565b915061231882612c2a565b602082019050919050565b600061233060208361270f565b915061233b82612c53565b602082019050919050565b600061235360188361270f565b915061235e82612c7c565b602082019050919050565b600061237660218361270f565b915061238182612ca5565b604082019050919050565b6000612399603d8361270f565b91506123a482612cf4565b604082019050919050565b6123b88161281f565b82525050565b60006123ca8285612194565b91506123d68284612194565b91508190509392505050565b60006020820190506123f76000830184612104565b92915050565b60006080820190506124126000830187612104565b61241f6020830186612104565b61242c60408301856123af565b818103606083015261243e8184612122565b905095945050505050565b600060208201905061245e6000830184612113565b92915050565b6000602082019050818103600083015261247e818461215b565b905092915050565b6000602082019050818103600083015261249f816121c5565b9050919050565b600060208201905081810360008301526124bf816121e8565b9050919050565b600060208201905081810360008301526124df8161220b565b9050919050565b600060208201905081810360008301526124ff8161222e565b9050919050565b6000602082019050818103600083015261251f81612251565b9050919050565b6000602082019050818103600083015261253f81612274565b9050919050565b6000602082019050818103600083015261255f81612297565b9050919050565b6000602082019050818103600083015261257f816122ba565b9050919050565b6000602082019050818103600083015261259f816122dd565b9050919050565b600060208201905081810360008301526125bf81612300565b9050919050565b600060208201905081810360008301526125df81612323565b9050919050565b600060208201905081810360008301526125ff81612346565b9050919050565b6000602082019050818103600083015261261f81612369565b9050919050565b6000602082019050818103600083015261263f8161238c565b9050919050565b600060208201905061265b60008301846123af565b92915050565b600061266b61267c565b9050612677828261289d565b919050565b6000604051905090565b600067ffffffffffffffff8211156126a1576126a061295b565b5b6126aa8261299e565b9050602081019050919050565b600067ffffffffffffffff8211156126d2576126d161295b565b5b6126db8261299e565b9050602081019050919050565b600081519050919050565b600081519050919050565b600082825260208201905092915050565b600082825260208201905092915050565b600081905092915050565b60006127368261281f565b91506127418361281f565b9250827fffffffffffffffffffffffffffffffffffffffffffffffffffffffffffffffff03821115612776576127756128ce565b5b828201905092915050565b600061278c8261281f565b91506127978361281f565b9250828210156127aa576127a96128ce565b5b828203905092915050565b60006127c0826127ff565b9050919050565b60008115159050919050565b60007fffffffff0000000000000000000000000000000000000000000000000000000082169050919050565b600073ffffffffffffffffffffffffffffffffffffffff82169050919050565b6000819050919050565b82818337600083830152505050565b60005b8381101561285657808201518184015260208101905061283b565b83811115612865576000848401525b50505050565b6000600282049050600182168061288357607f821691505b602082108114156128975761289661292c565b5b50919050565b6128a68261299e565b810181811067ffffffffffffffff821117156128c5576128c461295b565b5b80604052505050565b7f4e487b7100000000000000000000000000000000000000000000000000000000600052601160045260246000fd5b7f4e487b7100000000000000000000000000000000000000000000000000000000600052601260045260246000fd5b7f4e487b7100000000000000000000000000000000000000000000000000000000600052602260045260246000fd5b7f4e487b7100000000000000000000000000000000000000000000000000000000600052604160045260246000fd5b600080fd5b600080fd5b600080fd5b600080fd5b6000601f19601f8301169050919050565b7f4552433732313a2063616c6c6572206973206e6f7420746f6b656e206f776e6560008201527f72206f7220617070726f76656400000000000000000000000000000000000000602082015250565b7f4552433732313a207472616e7366657220746f206e6f6e20455243373231526560008201527f63656976657220696d706c656d656e7465720000000000000000000000000000602082015250565b7f4f776e61626c653a206e6577206f776e657220697320746865207a65726f206160008201527f6464726573730000000000000000000000000000000000000000000000000000602082015250565b7f4552433732313a207472616e736665722066726f6d20696e636f72726563742060008201527f6f776e6572000000000000000000000000000000000000000000000000000000602082015250565b7f4552433732313a20746f6b656e20616c7265616479206d696e74656400000000600082015250565b7f4552433732313a207472616e7366657220746f20746865207a65726f2061646460008201527f7265737300000000000000000000000000000000000000000000000000000000602082015250565b7f4552433732313a20617070726f766520746f2063616c6c657200000000000000600082015250565b7f4552433732313a2061646472657373207a65726f206973206e6f74206120766160008201527f6c6964206f776e65720000000000000000000000000000000000000000000000602082015250565b7f45524337323155524953746f726167653a2055524920736574206f66206e6f6e60008201527f6578697374656e7420746f6b656e000000000000000000000000000000000000602082015250565b7f4552433732313a206d696e7420746f20746865207a65726f2061646472657373600082015250565b7f4f776e61626c653a2063616c6c6572206973206e6f7420746865206f776e6572600082015250565b7f4552433732313a20696e76616c696420746f6b656e2049440000000000000000600082015250565b7f4552433732313a20617070726f76616c20746f2063757272656e74206f776e6560008201527f7200000000000000000000000000000000000000000000000000000000000000602082015250565b7f4552433732313a20617070726f76652063616c6c6572206973206e6f7420746f60008201527f6b656e206f776e6572206f7220617070726f76656420666f7220616c6c000000602082015250565b612d4c816127b5565b8114612d5757600080fd5b50565b612d63816127c7565b8114612d6e57600080fd5b50565b612d7a816127d3565b8114612d8557600080fd5b50565b612d918161281f565b8114612d9c57600080fd5b5056fea26469706673582212204d7d56dd1476c3c7386fbb882ec1d07732c876060666cf26778c96ff2d0297bd64736f6c63430008070033",
  "immutableReferences": {},
  "source": "//Contract based on [<https://docs.openzeppelin.com/contracts/3.x/erc721>](<https://docs.openzeppelin.com/contracts/3.x/erc721>)\n// SPDX-License-Identifier: MIT\npragma solidity ^0.8.7;\n\nimport \"@openzeppelin/contracts/token/ERC721/ERC721.sol\";\nimport \"@openzeppelin/contracts/utils/Counters.sol\";\nimport \"@openzeppelin/contracts/access/Ownable.sol\";\nimport \"@openzeppelin/contracts/token/ERC721/extensions/ERC721URIStorage.sol\";\n\ncontract MyNFTs is ERC721URIStorage, Ownable {\n    using Counters for Counters.Counter;\n    Counters.Counter private _tokenIds;\n\n    constructor() ERC721(\"MyNFTs\", \"MNFT\") {}\n\n    function mintNFT(string memory tokenURI)\n        public onlyOwner\n        returns (uint256)\n    {\n        _tokenIds.increment();\n\n        uint256 newItemId = _tokenIds.current();\n        _mint(msg.sender, newItemId);\n        _setTokenURI(newItemId, tokenURI);\n\n        return newItemId;\n    }\n}",
  "sourcePath": "/home/robertseo/work/solidity/erc721/contracts/MyNFTs.sol",
  "compiler": {
    "name": "solc",
    "version": "0.8.7+commit.e28d00a7.Emscripten.clang"
  },
  "schemaVersion": "3.4.11",
  "updatedAt": "2023-02-14T09:48:08.780Z",
  "networkType": "ethereum",
  "devdoc": {
    "kind": "dev",
    "methods": {
      "approve(address,uint256)": {
        "details": "See {IERC721-approve}."
      },
      "balanceOf(address)": {
        "details": "See {IERC721-balanceOf}."
      },
      "getApproved(uint256)": {
        "details": "See {IERC721-getApproved}."
      },
      "isApprovedForAll(address,address)": {
        "details": "See {IERC721-isApprovedForAll}."
      },
      "name()": {
        "details": "See {IERC721Metadata-name}."
      },
      "owner()": {
        "details": "Returns the address of the current owner."
      },
      "ownerOf(uint256)": {
        "details": "See {IERC721-ownerOf}."
      },
      "renounceOwnership()": {
        "details": "Leaves the contract without owner. It will not be possible to call `onlyOwner` functions anymore. Can only be called by the current owner. NOTE: Renouncing ownership will leave the contract without an owner, thereby removing any functionality that is only available to the owner."
      },
      "safeTransferFrom(address,address,uint256)": {
        "details": "See {IERC721-safeTransferFrom}."
      },
      "safeTransferFrom(address,address,uint256,bytes)": {
        "details": "See {IERC721-safeTransferFrom}."
      },
      "setApprovalForAll(address,bool)": {
        "details": "See {IERC721-setApprovalForAll}."
      },
      "supportsInterface(bytes4)": {
        "details": "See {IERC165-supportsInterface}."
      },
      "symbol()": {
        "details": "See {IERC721Metadata-symbol}."
      },
      "tokenURI(uint256)": {
        "details": "See {IERC721Metadata-tokenURI}."
      },
      "transferFrom(address,address,uint256)": {
        "details": "See {IERC721-transferFrom}."
      },
      "transferOwnership(address)": {
        "details": "Transfers ownership of the contract to a new account (`newOwner`). Can only be called by the current owner."
      }
    },
    "version": 1
  },
  "userdoc": {
    "kind": "user",
    "methods": {},
    "version": 1
  }
}