{
	"rps.sol": {
		"RPS": {
			"abi": [
				{
					"inputs": [],
					"stateMutability": "payable",
					"type": "constructor"
				},
				{
					"inputs": [
						{
							"internalType": "uint256",
							"name": "roomNum",
							"type": "uint256"
						}
					],
					"name": "checkTotalPay",
					"outputs": [
						{
							"internalType": "uint256",
							"name": "roomNumPay",
							"type": "uint256"
						}
					],
					"stateMutability": "view",
					"type": "function"
				},
				{
					"inputs": [
						{
							"internalType": "enum RPS.Hand",
							"name": "_hand",
							"type": "uint8"
						}
					],
					"name": "createRoom",
					"outputs": [
						{
							"internalType": "uint256",
							"name": "roomNum",
							"type": "uint256"
						}
					],
					"stateMutability": "payable",
					"type": "function"
				},
				{
					"inputs": [
						{
							"internalType": "uint256",
							"name": "roomNum",
							"type": "uint256"
						},
						{
							"internalType": "enum RPS.Hand",
							"name": "_hand",
							"type": "uint8"
						}
					],
					"name": "joinRoom",
					"outputs": [],
					"stateMutability": "payable",
					"type": "function"
				},
				{
					"inputs": [
						{
							"internalType": "uint256",
							"name": "roomNum",
							"type": "uint256"
						}
					],
					"name": "payout",
					"outputs": [],
					"stateMutability": "payable",
					"type": "function"
				}
			],
			"devdoc": {
				"kind": "dev",
				"methods": {},
				"version": 1
			},
			"evm": {
				"assembly": "    /* \"rps.sol\":58:5951  contract RPS {... */\n  mstore(0x40, 0x80)\n    /* \"rps.sol\":1428:1429  0 */\n  0x00\n    /* \"rps.sol\":1413:1429  uint roomLen = 0 */\n  0x01\n  sstore\n    /* \"rps.sol\":58:5951  contract RPS {... */\n  dataSize(sub_0)\n  dup1\n  dataOffset(sub_0)\n  0x00\n  codecopy\n  0x00\n  return\nstop\n\nsub_0: assembly {\n        /* \"rps.sol\":58:5951  contract RPS {... */\n      mstore(0x40, 0x80)\n      jumpi(tag_1, lt(calldatasize, 0x04))\n      shr(0xe0, calldataload(0x00))\n      dup1\n      0x0f36f3b5\n      eq\n      tag_2\n      jumpi\n      dup1\n      0x393af760\n      eq\n      tag_3\n      jumpi\n      dup1\n      0x79b15776\n      eq\n      tag_4\n      jumpi\n      dup1\n      0xe1152343\n      eq\n      tag_5\n      jumpi\n    tag_1:\n      0x00\n      dup1\n      revert\n        /* \"rps.sol\":1859:2841  function createRoom (Hand _hand) public payable isValidHand(_hand) returns (uint roomNum){... */\n    tag_2:\n      tag_6\n      0x04\n      dup1\n      calldatasize\n      sub\n      dup2\n      add\n      swap1\n      tag_7\n      swap2\n      swap1\n      tag_8\n      jump\t// in\n    tag_7:\n      tag_9\n      jump\t// in\n    tag_6:\n      mload(0x40)\n      tag_10\n      swap2\n      swap1\n      tag_11\n      jump\t// in\n    tag_10:\n      mload(0x40)\n      dup1\n      swap2\n      sub\n      swap1\n      return\n        /* \"rps.sol\":3507:3628  function checkTotalPay(uint roomNum) public view returns(uint roomNumPay){... */\n    tag_3:\n      callvalue\n      dup1\n      iszero\n      tag_12\n      jumpi\n      0x00\n      dup1\n      revert\n    tag_12:\n      pop\n      tag_13\n      0x04\n      dup1\n      calldatasize\n      sub\n      dup2\n      add\n      swap1\n      tag_14\n      swap2\n      swap1\n      tag_15\n      jump\t// in\n    tag_14:\n      tag_16\n      jump\t// in\n    tag_13:\n      mload(0x40)\n      tag_17\n      swap2\n      swap1\n      tag_11\n      jump\t// in\n    tag_17:\n      mload(0x40)\n      dup1\n      swap2\n      sub\n      swap1\n      return\n        /* \"rps.sol\":2883:3372  function joinRoom(uint roomNum, Hand _hand) public payable isValidHand(_hand){... */\n    tag_4:\n      tag_18\n      0x04\n      dup1\n      calldatasize\n      sub\n      dup2\n      add\n      swap1\n      tag_19\n      swap2\n      swap1\n      tag_20\n      jump\t// in\n    tag_19:\n      tag_21\n      jump\t// in\n    tag_18:\n      stop\n        /* \"rps.sol\":3767:4814  function payout(uint roomNum) public payable isPlayer(roomNum, msg.sender){... */\n    tag_5:\n      tag_22\n      0x04\n      dup1\n      calldatasize\n      sub\n      dup2\n      add\n      swap1\n      tag_23\n      swap2\n      swap1\n      tag_15\n      jump\t// in\n    tag_23:\n      tag_24\n      jump\t// in\n    tag_22:\n      stop\n        /* \"rps.sol\":1859:2841  function createRoom (Hand _hand) public payable isValidHand(_hand) returns (uint roomNum){... */\n    tag_9:\n        /* \"rps.sol\":1935:1947  uint roomNum */\n      0x00\n        /* \"rps.sol\":1919:1924  _hand */\n      dup2\n        /* \"rps.sol\":1497:1506  Hand.rock */\n      0x00\n        /* \"rps.sol\":1488:1506  _hand == Hand.rock */\n      0x02\n      dup2\n      gt\n      iszero\n      tag_26\n      jumpi\n      tag_27\n      tag_28\n      jump\t// in\n    tag_27:\n    tag_26:\n        /* \"rps.sol\":1488:1493  _hand */\n      dup2\n        /* \"rps.sol\":1488:1506  _hand == Hand.rock */\n      0x02\n      dup2\n      gt\n      iszero\n      tag_29\n      jumpi\n      tag_30\n      tag_28\n      jump\t// in\n    tag_30:\n    tag_29:\n      eq\n        /* \"rps.sol\":1487:1532  (_hand == Hand.rock) || (_hand == Hand.paper) */\n      dup1\n      tag_31\n      jumpi\n      pop\n        /* \"rps.sol\":1521:1531  Hand.paper */\n      0x01\n        /* \"rps.sol\":1512:1531  _hand == Hand.paper */\n      0x02\n      dup2\n      gt\n      iszero\n      tag_32\n      jumpi\n      tag_33\n      tag_28\n      jump\t// in\n    tag_33:\n    tag_32:\n        /* \"rps.sol\":1512:1517  _hand */\n      dup2\n        /* \"rps.sol\":1512:1531  _hand == Hand.paper */\n      0x02\n      dup2\n      gt\n      iszero\n      tag_34\n      jumpi\n      tag_35\n      tag_28\n      jump\t// in\n    tag_35:\n    tag_34:\n      eq\n        /* \"rps.sol\":1487:1532  (_hand == Hand.rock) || (_hand == Hand.paper) */\n    tag_31:\n        /* \"rps.sol\":1487:1560  (_hand == Hand.rock) || (_hand == Hand.paper) || (_hand == Hand.scissors) */\n      dup1\n      tag_36\n      jumpi\n      pop\n        /* \"rps.sol\":1546:1559  Hand.scissors */\n      0x02\n        /* \"rps.sol\":1537:1559  _hand == Hand.scissors */\n      dup1\n      dup2\n      gt\n      iszero\n      tag_37\n      jumpi\n      tag_38\n      tag_28\n      jump\t// in\n    tag_38:\n    tag_37:\n        /* \"rps.sol\":1537:1542  _hand */\n      dup2\n        /* \"rps.sol\":1537:1559  _hand == Hand.scissors */\n      0x02\n      dup2\n      gt\n      iszero\n      tag_39\n      jumpi\n      tag_40\n      tag_28\n      jump\t// in\n    tag_40:\n    tag_39:\n      eq\n        /* \"rps.sol\":1487:1560  (_hand == Hand.rock) || (_hand == Hand.paper) || (_hand == Hand.scissors) */\n    tag_36:\n        /* \"rps.sol\":1479:1561  require((_hand == Hand.rock) || (_hand == Hand.paper) || (_hand == Hand.scissors)) */\n      tag_41\n      jumpi\n      0x00\n      dup1\n      revert\n    tag_41:\n        /* \"rps.sol\":2059:2617  Game({... */\n      mload(0x40)\n      dup1\n      0x80\n      add\n      0x40\n      mstore\n      dup1\n        /* \"rps.sol\":2089:2098  msg.value */\n      callvalue\n        /* \"rps.sol\":2059:2617  Game({... */\n      dup2\n      mstore\n      0x20\n      add\n        /* \"rps.sol\":2140:2169  GameStatus.STATUS_NOT_STARTED */\n      0x00\n        /* \"rps.sol\":2059:2617  Game({... */\n      0x03\n      dup2\n      gt\n      iszero\n      tag_43\n      jumpi\n      tag_44\n      tag_28\n      jump\t// in\n    tag_44:\n    tag_43:\n      dup2\n      mstore\n      0x20\n      add\n        /* \"rps.sol\":2195:2393  Player({... */\n      mload(0x40)\n      dup1\n      0x80\n      add\n      0x40\n      mstore\n      dup1\n        /* \"rps.sol\":2263:2273  msg.sender */\n      caller\n        /* \"rps.sol\":2195:2393  Player({... */\n      0xffffffffffffffffffffffffffffffffffffffff\n      and\n      dup2\n      mstore\n      0x20\n      add\n        /* \"rps.sol\":2368:2377  msg.value */\n      callvalue\n        /* \"rps.sol\":2195:2393  Player({... */\n      dup2\n      mstore\n      0x20\n      add\n        /* \"rps.sol\":2226:2231  _hand */\n      dup7\n        /* \"rps.sol\":2195:2393  Player({... */\n      0x02\n      dup2\n      gt\n      iszero\n      tag_45\n      jumpi\n      tag_46\n      tag_28\n      jump\t// in\n    tag_46:\n    tag_45:\n      dup2\n      mstore\n      0x20\n      add\n        /* \"rps.sol\":2306:2333  PlayerStatus.STATUS_PENDING */\n      0x03\n        /* \"rps.sol\":2195:2393  Player({... */\n      dup1\n      dup2\n      gt\n      iszero\n      tag_47\n      jumpi\n      tag_48\n      tag_28\n      jump\t// in\n    tag_48:\n    tag_47:\n      dup2\n      mstore\n      pop\n        /* \"rps.sol\":2059:2617  Game({... */\n      dup2\n      mstore\n      0x20\n      add\n        /* \"rps.sol\":2414:2606  Player({... */\n      mload(0x40)\n      dup1\n      0x80\n      add\n      0x40\n      mstore\n      dup1\n        /* \"rps.sol\":2486:2496  msg.sender */\n      caller\n        /* \"rps.sol\":2414:2606  Player({... */\n      0xffffffffffffffffffffffffffffffffffffffff\n      and\n      dup2\n      mstore\n      0x20\n      add\n        /* \"rps.sol\":2590:2591  0 */\n      0x00\n        /* \"rps.sol\":2414:2606  Player({... */\n      dup2\n      mstore\n      0x20\n      add\n        /* \"rps.sol\":2445:2454  Hand.rock */\n      0x00\n        /* \"rps.sol\":2414:2606  Player({... */\n      0x02\n      dup2\n      gt\n      iszero\n      tag_49\n      jumpi\n      tag_50\n      tag_28\n      jump\t// in\n    tag_50:\n    tag_49:\n      dup2\n      mstore\n      0x20\n      add\n        /* \"rps.sol\":2529:2556  PlayerStatus.STATUS_PENDING */\n      0x03\n        /* \"rps.sol\":2414:2606  Player({... */\n      dup1\n      dup2\n      gt\n      iszero\n      tag_51\n      jumpi\n      tag_52\n      tag_28\n      jump\t// in\n    tag_52:\n    tag_51:\n      dup2\n      mstore\n      pop\n        /* \"rps.sol\":2059:2617  Game({... */\n      dup2\n      mstore\n      pop\n        /* \"rps.sol\":2042:2047  rooms */\n      0x00\n        /* \"rps.sol\":2042:2056  rooms[roomLen] */\n      dup1\n        /* \"rps.sol\":2048:2055  roomLen */\n      sload(0x01)\n        /* \"rps.sol\":2042:2056  rooms[roomLen] */\n      dup2\n      mstore\n      0x20\n      add\n      swap1\n      dup2\n      mstore\n      0x20\n      add\n      0x00\n      keccak256\n        /* \"rps.sol\":2042:2617  rooms[roomLen] = Game({... */\n      0x00\n      dup3\n      add\n      mload\n      dup2\n      0x00\n      add\n      sstore\n      0x20\n      dup3\n      add\n      mload\n      dup2\n      0x01\n      add\n      exp(0x0100, 0x00)\n      dup2\n      sload\n      dup2\n      0xff\n      mul\n      not\n      and\n      swap1\n      dup4\n      0x03\n      dup2\n      gt\n      iszero\n      tag_53\n      jumpi\n      tag_54\n      tag_28\n      jump\t// in\n    tag_54:\n    tag_53:\n      mul\n      or\n      swap1\n      sstore\n      pop\n      0x40\n      dup3\n      add\n      mload\n      dup2\n      0x02\n      add\n      0x00\n      dup3\n      add\n      mload\n      dup2\n      0x00\n      add\n      exp(0x0100, 0x00)\n      dup2\n      sload\n      dup2\n      0xffffffffffffffffffffffffffffffffffffffff\n      mul\n      not\n      and\n      swap1\n      dup4\n      0xffffffffffffffffffffffffffffffffffffffff\n      and\n      mul\n      or\n      swap1\n      sstore\n      pop\n      0x20\n      dup3\n      add\n      mload\n      dup2\n      0x01\n      add\n      sstore\n      0x40\n      dup3\n      add\n      mload\n      dup2\n      0x02\n      add\n      exp(0x0100, 0x00)\n      dup2\n      sload\n      dup2\n      0xff\n      mul\n      not\n      and\n      swap1\n      dup4\n      0x02\n      dup2\n      gt\n      iszero\n      tag_55\n      jumpi\n      tag_56\n      tag_28\n      jump\t// in\n    tag_56:\n    tag_55:\n      mul\n      or\n      swap1\n      sstore\n      pop\n      0x60\n      dup3\n      add\n      mload\n      dup2\n      0x02\n      add\n      exp(0x0100, 0x01)\n      dup2\n      sload\n      dup2\n      0xff\n      mul\n      not\n      and\n      swap1\n      dup4\n      0x03\n      dup2\n      gt\n      iszero\n      tag_57\n      jumpi\n      tag_58\n      tag_28\n      jump\t// in\n    tag_58:\n    tag_57:\n      mul\n      or\n      swap1\n      sstore\n      pop\n      pop\n      pop\n      0x60\n      dup3\n      add\n      mload\n      dup2\n      0x05\n      add\n      0x00\n      dup3\n      add\n      mload\n      dup2\n      0x00\n      add\n      exp(0x0100, 0x00)\n      dup2\n      sload\n      dup2\n      0xffffffffffffffffffffffffffffffffffffffff\n      mul\n      not\n      and\n      swap1\n      dup4\n      0xffffffffffffffffffffffffffffffffffffffff\n      and\n      mul\n      or\n      swap1\n      sstore\n      pop\n      0x20\n      dup3\n      add\n      mload\n      dup2\n      0x01\n      add\n      sstore\n      0x40\n      dup3\n      add\n      mload\n      dup2\n      0x02\n      add\n      exp(0x0100, 0x00)\n      dup2\n      sload\n      dup2\n      0xff\n      mul\n      not\n      and\n      swap1\n      dup4\n      0x02\n      dup2\n      gt\n      iszero\n      tag_59\n      jumpi\n      tag_60\n      tag_28\n      jump\t// in\n    tag_60:\n    tag_59:\n      mul\n      or\n      swap1\n      sstore\n      pop\n      0x60\n      dup3\n      add\n      mload\n      dup2\n      0x02\n      add\n      exp(0x0100, 0x01)\n      dup2\n      sload\n      dup2\n      0xff\n      mul\n      not\n      and\n      swap1\n      dup4\n      0x03\n      dup2\n      gt\n      iszero\n      tag_61\n      jumpi\n      tag_62\n      tag_28\n      jump\t// in\n    tag_62:\n    tag_61:\n      mul\n      or\n      swap1\n      sstore\n      pop\n      pop\n      pop\n      swap1\n      pop\n      pop\n        /* \"rps.sol\":2637:2644  roomLen */\n      sload(0x01)\n        /* \"rps.sol\":2627:2644  roomNum = roomLen */\n      swap2\n      pop\n        /* \"rps.sol\":2725:2726  1 */\n      0x01\n        /* \"rps.sol\":2717:2724  roomLen */\n      dup1\n      sload\n        /* \"rps.sol\":2717:2726  roomLen+1 */\n      tag_63\n      swap2\n      swap1\n      tag_64\n      jump\t// in\n    tag_63:\n        /* \"rps.sol\":2707:2714  roomLen */\n      0x01\n        /* \"rps.sol\":2707:2726  roomLen = roomLen+1 */\n      dup2\n      swap1\n      sstore\n      pop\n        /* \"rps.sol\":1859:2841  function createRoom (Hand _hand) public payable isValidHand(_hand) returns (uint roomNum){... */\n      pop\n      swap2\n      swap1\n      pop\n      jump\t// out\n        /* \"rps.sol\":3507:3628  function checkTotalPay(uint roomNum) public view returns(uint roomNumPay){... */\n    tag_16:\n        /* \"rps.sol\":3564:3579  uint roomNumPay */\n      0x00\n        /* \"rps.sol\":3597:3602  rooms */\n      dup1\n        /* \"rps.sol\":3597:3611  rooms[roomNum] */\n      0x00\n        /* \"rps.sol\":3603:3610  roomNum */\n      dup4\n        /* \"rps.sol\":3597:3611  rooms[roomNum] */\n      dup2\n      mstore\n      0x20\n      add\n      swap1\n      dup2\n      mstore\n      0x20\n      add\n      0x00\n      keccak256\n        /* \"rps.sol\":3597:3621  rooms[roomNum].betAmount */\n      0x00\n      add\n      sload\n        /* \"rps.sol\":3590:3621  return rooms[roomNum].betAmount */\n      swap1\n      pop\n        /* \"rps.sol\":3507:3628  function checkTotalPay(uint roomNum) public view returns(uint roomNumPay){... */\n      swap2\n      swap1\n      pop\n      jump\t// out\n        /* \"rps.sol\":2883:3372  function joinRoom(uint roomNum, Hand _hand) public payable isValidHand(_hand){... */\n    tag_21:\n        /* \"rps.sol\":2954:2959  _hand */\n      dup1\n        /* \"rps.sol\":1497:1506  Hand.rock */\n      0x00\n        /* \"rps.sol\":1488:1506  _hand == Hand.rock */\n      0x02\n      dup2\n      gt\n      iszero\n      tag_67\n      jumpi\n      tag_68\n      tag_28\n      jump\t// in\n    tag_68:\n    tag_67:\n        /* \"rps.sol\":1488:1493  _hand */\n      dup2\n        /* \"rps.sol\":1488:1506  _hand == Hand.rock */\n      0x02\n      dup2\n      gt\n      iszero\n      tag_69\n      jumpi\n      tag_70\n      tag_28\n      jump\t// in\n    tag_70:\n    tag_69:\n      eq\n        /* \"rps.sol\":1487:1532  (_hand == Hand.rock) || (_hand == Hand.paper) */\n      dup1\n      tag_71\n      jumpi\n      pop\n        /* \"rps.sol\":1521:1531  Hand.paper */\n      0x01\n        /* \"rps.sol\":1512:1531  _hand == Hand.paper */\n      0x02\n      dup2\n      gt\n      iszero\n      tag_72\n      jumpi\n      tag_73\n      tag_28\n      jump\t// in\n    tag_73:\n    tag_72:\n        /* \"rps.sol\":1512:1517  _hand */\n      dup2\n        /* \"rps.sol\":1512:1531  _hand == Hand.paper */\n      0x02\n      dup2\n      gt\n      iszero\n      tag_74\n      jumpi\n      tag_75\n      tag_28\n      jump\t// in\n    tag_75:\n    tag_74:\n      eq\n        /* \"rps.sol\":1487:1532  (_hand == Hand.rock) || (_hand == Hand.paper) */\n    tag_71:\n        /* \"rps.sol\":1487:1560  (_hand == Hand.rock) || (_hand == Hand.paper) || (_hand == Hand.scissors) */\n      dup1\n      tag_76\n      jumpi\n      pop\n        /* \"rps.sol\":1546:1559  Hand.scissors */\n      0x02\n        /* \"rps.sol\":1537:1559  _hand == Hand.scissors */\n      dup1\n      dup2\n      gt\n      iszero\n      tag_77\n      jumpi\n      tag_78\n      tag_28\n      jump\t// in\n    tag_78:\n    tag_77:\n        /* \"rps.sol\":1537:1542  _hand */\n      dup2\n        /* \"rps.sol\":1537:1559  _hand == Hand.scissors */\n      0x02\n      dup2\n      gt\n      iszero\n      tag_79\n      jumpi\n      tag_80\n      tag_28\n      jump\t// in\n    tag_80:\n    tag_79:\n      eq\n        /* \"rps.sol\":1487:1560  (_hand == Hand.rock) || (_hand == Hand.paper) || (_hand == Hand.scissors) */\n    tag_76:\n        /* \"rps.sol\":1479:1561  require((_hand == Hand.rock) || (_hand == Hand.paper) || (_hand == Hand.scissors)) */\n      tag_81\n      jumpi\n      0x00\n      dup1\n      revert\n    tag_81:\n        /* \"rps.sol\":3082:3260  Player({... */\n      mload(0x40)\n      dup1\n      0x80\n      add\n      0x40\n      mstore\n      dup1\n        /* \"rps.sol\":3142:3152  msg.sender */\n      caller\n        /* \"rps.sol\":3082:3260  Player({... */\n      0xffffffffffffffffffffffffffffffffffffffff\n      and\n      dup2\n      mstore\n      0x20\n      add\n        /* \"rps.sol\":3239:3248  msg.value */\n      callvalue\n        /* \"rps.sol\":3082:3260  Player({... */\n      dup2\n      mstore\n      0x20\n      add\n        /* \"rps.sol\":3109:3114  _hand */\n      dup4\n        /* \"rps.sol\":3082:3260  Player({... */\n      0x02\n      dup2\n      gt\n      iszero\n      tag_83\n      jumpi\n      tag_84\n      tag_28\n      jump\t// in\n    tag_84:\n    tag_83:\n      dup2\n      mstore\n      0x20\n      add\n        /* \"rps.sol\":3181:3208  PlayerStatus.STATUS_PENDING */\n      0x03\n        /* \"rps.sol\":3082:3260  Player({... */\n      dup1\n      dup2\n      gt\n      iszero\n      tag_85\n      jumpi\n      tag_86\n      tag_28\n      jump\t// in\n    tag_86:\n    tag_85:\n      dup2\n      mstore\n      pop\n        /* \"rps.sol\":3059:3064  rooms */\n      0x00\n        /* \"rps.sol\":3059:3073  rooms[roomNum] */\n      dup1\n        /* \"rps.sol\":3065:3072  roomNum */\n      dup6\n        /* \"rps.sol\":3059:3073  rooms[roomNum] */\n      dup2\n      mstore\n      0x20\n      add\n      swap1\n      dup2\n      mstore\n      0x20\n      add\n      0x00\n      keccak256\n        /* \"rps.sol\":3059:3079  rooms[roomNum].taker */\n      0x05\n      add\n        /* \"rps.sol\":3059:3260  rooms[roomNum].taker = Player({... */\n      0x00\n      dup3\n      add\n      mload\n      dup2\n      0x00\n      add\n      exp(0x0100, 0x00)\n      dup2\n      sload\n      dup2\n      0xffffffffffffffffffffffffffffffffffffffff\n      mul\n      not\n      and\n      swap1\n      dup4\n      0xffffffffffffffffffffffffffffffffffffffff\n      and\n      mul\n      or\n      swap1\n      sstore\n      pop\n      0x20\n      dup3\n      add\n      mload\n      dup2\n      0x01\n      add\n      sstore\n      0x40\n      dup3\n      add\n      mload\n      dup2\n      0x02\n      add\n      exp(0x0100, 0x00)\n      dup2\n      sload\n      dup2\n      0xff\n      mul\n      not\n      and\n      swap1\n      dup4\n      0x02\n      dup2\n      gt\n      iszero\n      tag_87\n      jumpi\n      tag_88\n      tag_28\n      jump\t// in\n    tag_88:\n    tag_87:\n      mul\n      or\n      swap1\n      sstore\n      pop\n      0x60\n      dup3\n      add\n      mload\n      dup2\n      0x02\n      add\n      exp(0x0100, 0x01)\n      dup2\n      sload\n      dup2\n      0xff\n      mul\n      not\n      and\n      swap1\n      dup4\n      0x03\n      dup2\n      gt\n      iszero\n      tag_89\n      jumpi\n      tag_90\n      tag_28\n      jump\t// in\n    tag_90:\n    tag_89:\n      mul\n      or\n      swap1\n      sstore\n      pop\n      swap1\n      pop\n      pop\n        /* \"rps.sol\":3324:3333  msg.value */\n      callvalue\n        /* \"rps.sol\":3297:3302  rooms */\n      0x00\n        /* \"rps.sol\":3297:3311  rooms[roomNum] */\n      dup1\n        /* \"rps.sol\":3303:3310  roomNum */\n      dup6\n        /* \"rps.sol\":3297:3311  rooms[roomNum] */\n      dup2\n      mstore\n      0x20\n      add\n      swap1\n      dup2\n      mstore\n      0x20\n      add\n      0x00\n      keccak256\n        /* \"rps.sol\":3297:3321  rooms[roomNum].betAmount */\n      0x00\n      add\n      sload\n        /* \"rps.sol\":3297:3333  rooms[roomNum].betAmount + msg.value */\n      tag_91\n      swap2\n      swap1\n      tag_64\n      jump\t// in\n    tag_91:\n        /* \"rps.sol\":3270:3275  rooms */\n      0x00\n        /* \"rps.sol\":3270:3284  rooms[roomNum] */\n      dup1\n        /* \"rps.sol\":3276:3283  roomNum */\n      dup6\n        /* \"rps.sol\":3270:3284  rooms[roomNum] */\n      dup2\n      mstore\n      0x20\n      add\n      swap1\n      dup2\n      mstore\n      0x20\n      add\n      0x00\n      keccak256\n        /* \"rps.sol\":3270:3294  rooms[roomNum].betAmount */\n      0x00\n      add\n        /* \"rps.sol\":3270:3333  rooms[roomNum].betAmount = rooms[roomNum].betAmount + msg.value */\n      dup2\n      swap1\n      sstore\n      pop\n        /* \"rps.sol\":3344:3365  compareHands(roomNum) */\n      tag_92\n        /* \"rps.sol\":3357:3364  roomNum */\n      dup4\n        /* \"rps.sol\":3344:3356  compareHands */\n      tag_93\n        /* \"rps.sol\":3344:3365  compareHands(roomNum) */\n      jump\t// in\n    tag_92:\n        /* \"rps.sol\":2883:3372  function joinRoom(uint roomNum, Hand _hand) public payable isValidHand(_hand){... */\n      pop\n      pop\n      pop\n      jump\t// out\n        /* \"rps.sol\":3767:4814  function payout(uint roomNum) public payable isPlayer(roomNum, msg.sender){... */\n    tag_24:\n        /* \"rps.sol\":3821:3828  roomNum */\n      dup1\n        /* \"rps.sol\":3830:3840  msg.sender */\n      caller\n        /* \"rps.sol\":1662:1667  rooms */\n      0x00\n        /* \"rps.sol\":1662:1676  rooms[roomNum] */\n      dup1\n        /* \"rps.sol\":1668:1675  roomNum */\n      dup4\n        /* \"rps.sol\":1662:1676  rooms[roomNum] */\n      dup2\n      mstore\n      0x20\n      add\n      swap1\n      dup2\n      mstore\n      0x20\n      add\n      0x00\n      keccak256\n        /* \"rps.sol\":1662:1687  rooms[roomNum].originator */\n      0x02\n      add\n        /* \"rps.sol\":1662:1692  rooms[roomNum].originator.addr */\n      0x00\n      add\n      0x00\n      swap1\n      sload\n      swap1\n      0x0100\n      exp\n      swap1\n      div\n      0xffffffffffffffffffffffffffffffffffffffff\n      and\n        /* \"rps.sol\":1652:1692  sender == rooms[roomNum].originator.addr */\n      0xffffffffffffffffffffffffffffffffffffffff\n      and\n        /* \"rps.sol\":1652:1658  sender */\n      dup2\n        /* \"rps.sol\":1652:1692  sender == rooms[roomNum].originator.addr */\n      0xffffffffffffffffffffffffffffffffffffffff\n      and\n      eq\n        /* \"rps.sol\":1652:1731  sender == rooms[roomNum].originator.addr || sender == rooms[roomNum].taker.addr */\n      dup1\n      tag_95\n      jumpi\n      pop\n        /* \"rps.sol\":1706:1711  rooms */\n      0x00\n        /* \"rps.sol\":1706:1720  rooms[roomNum] */\n      dup1\n        /* \"rps.sol\":1712:1719  roomNum */\n      dup4\n        /* \"rps.sol\":1706:1720  rooms[roomNum] */\n      dup2\n      mstore\n      0x20\n      add\n      swap1\n      dup2\n      mstore\n      0x20\n      add\n      0x00\n      keccak256\n        /* \"rps.sol\":1706:1726  rooms[roomNum].taker */\n      0x05\n      add\n        /* \"rps.sol\":1706:1731  rooms[roomNum].taker.addr */\n      0x00\n      add\n      0x00\n      swap1\n      sload\n      swap1\n      0x0100\n      exp\n      swap1\n      div\n      0xffffffffffffffffffffffffffffffffffffffff\n      and\n        /* \"rps.sol\":1696:1731  sender == rooms[roomNum].taker.addr */\n      0xffffffffffffffffffffffffffffffffffffffff\n      and\n        /* \"rps.sol\":1696:1702  sender */\n      dup2\n        /* \"rps.sol\":1696:1731  sender == rooms[roomNum].taker.addr */\n      0xffffffffffffffffffffffffffffffffffffffff\n      and\n      eq\n        /* \"rps.sol\":1652:1731  sender == rooms[roomNum].originator.addr || sender == rooms[roomNum].taker.addr */\n    tag_95:\n        /* \"rps.sol\":1644:1733  require(sender == rooms[roomNum].originator.addr || sender == rooms[roomNum].taker.addr ) */\n      tag_96\n      jumpi\n      0x00\n      dup1\n      revert\n    tag_96:\n        /* \"rps.sol\":3896:3919  PlayerStatus.STATUS_TIE */\n      0x02\n        /* \"rps.sol\":3854:3919  rooms[roomNum].originator.playerStatus == PlayerStatus.STATUS_TIE */\n      0x03\n      dup2\n      gt\n      iszero\n      tag_98\n      jumpi\n      tag_99\n      tag_28\n      jump\t// in\n    tag_99:\n    tag_98:\n        /* \"rps.sol\":3854:3859  rooms */\n      0x00\n        /* \"rps.sol\":3854:3868  rooms[roomNum] */\n      dup1\n        /* \"rps.sol\":3860:3867  roomNum */\n      dup6\n        /* \"rps.sol\":3854:3868  rooms[roomNum] */\n      dup2\n      mstore\n      0x20\n      add\n      swap1\n      dup2\n      mstore\n      0x20\n      add\n      0x00\n      keccak256\n        /* \"rps.sol\":3854:3879  rooms[roomNum].originator */\n      0x02\n      add\n        /* \"rps.sol\":3854:3892  rooms[roomNum].originator.playerStatus */\n      0x02\n      add\n      0x01\n      swap1\n      sload\n      swap1\n      0x0100\n      exp\n      swap1\n      div\n      0xff\n      and\n        /* \"rps.sol\":3854:3919  rooms[roomNum].originator.playerStatus == PlayerStatus.STATUS_TIE */\n      0x03\n      dup2\n      gt\n      iszero\n      tag_100\n      jumpi\n      tag_101\n      tag_28\n      jump\t// in\n    tag_101:\n    tag_100:\n      eq\n        /* \"rps.sol\":3854:3983  rooms[roomNum].originator.playerStatus == PlayerStatus.STATUS_TIE && rooms[roomNum].taker.playerStatus == PlayerStatus.STATUS_TIE */\n      dup1\n      iszero\n      tag_102\n      jumpi\n      pop\n        /* \"rps.sol\":3960:3983  PlayerStatus.STATUS_TIE */\n      0x02\n        /* \"rps.sol\":3923:3983  rooms[roomNum].taker.playerStatus == PlayerStatus.STATUS_TIE */\n      0x03\n      dup2\n      gt\n      iszero\n      tag_103\n      jumpi\n      tag_104\n      tag_28\n      jump\t// in\n    tag_104:\n    tag_103:\n        /* \"rps.sol\":3923:3928  rooms */\n      0x00\n        /* \"rps.sol\":3923:3937  rooms[roomNum] */\n      dup1\n        /* \"rps.sol\":3929:3936  roomNum */\n      dup6\n        /* \"rps.sol\":3923:3937  rooms[roomNum] */\n      dup2\n      mstore\n      0x20\n      add\n      swap1\n      dup2\n      mstore\n      0x20\n      add\n      0x00\n      keccak256\n        /* \"rps.sol\":3923:3943  rooms[roomNum].taker */\n      0x05\n      add\n        /* \"rps.sol\":3923:3956  rooms[roomNum].taker.playerStatus */\n      0x02\n      add\n      0x01\n      swap1\n      sload\n      swap1\n      0x0100\n      exp\n      swap1\n      div\n      0xff\n      and\n        /* \"rps.sol\":3923:3983  rooms[roomNum].taker.playerStatus == PlayerStatus.STATUS_TIE */\n      0x03\n      dup2\n      gt\n      iszero\n      tag_105\n      jumpi\n      tag_106\n      tag_28\n      jump\t// in\n    tag_106:\n    tag_105:\n      eq\n        /* \"rps.sol\":3854:3983  rooms[roomNum].originator.playerStatus == PlayerStatus.STATUS_TIE && rooms[roomNum].taker.playerStatus == PlayerStatus.STATUS_TIE */\n    tag_102:\n        /* \"rps.sol\":3851:4744  if(rooms[roomNum].originator.playerStatus == PlayerStatus.STATUS_TIE && rooms[roomNum].taker.playerStatus == PlayerStatus.STATUS_TIE ){... */\n      iszero\n      tag_107\n      jumpi\n        /* \"rps.sol\":3999:4004  rooms */\n      0x00\n        /* \"rps.sol\":3999:4013  rooms[roomNum] */\n      dup1\n        /* \"rps.sol\":4005:4012  roomNum */\n      dup5\n        /* \"rps.sol\":3999:4013  rooms[roomNum] */\n      dup2\n      mstore\n      0x20\n      add\n      swap1\n      dup2\n      mstore\n      0x20\n      add\n      0x00\n      keccak256\n        /* \"rps.sol\":3999:4024  rooms[roomNum].originator */\n      0x02\n      add\n        /* \"rps.sol\":3999:4029  rooms[roomNum].originator.addr */\n      0x00\n      add\n      0x00\n      swap1\n      sload\n      swap1\n      0x0100\n      exp\n      swap1\n      div\n      0xffffffffffffffffffffffffffffffffffffffff\n      and\n        /* \"rps.sol\":3999:4038  rooms[roomNum].originator.addr.transfer */\n      0xffffffffffffffffffffffffffffffffffffffff\n      and\n        /* \"rps.sol\":3999:4081  rooms[roomNum].originator.addr.transfer(rooms[roomNum].originator.playerBetAmount) */\n      0x08fc\n        /* \"rps.sol\":4039:4044  rooms */\n      0x00\n        /* \"rps.sol\":4039:4053  rooms[roomNum] */\n      dup1\n        /* \"rps.sol\":4045:4052  roomNum */\n      dup7\n        /* \"rps.sol\":4039:4053  rooms[roomNum] */\n      dup2\n      mstore\n      0x20\n      add\n      swap1\n      dup2\n      mstore\n      0x20\n      add\n      0x00\n      keccak256\n        /* \"rps.sol\":4039:4064  rooms[roomNum].originator */\n      0x02\n      add\n        /* \"rps.sol\":4039:4080  rooms[roomNum].originator.playerBetAmount */\n      0x01\n      add\n      sload\n        /* \"rps.sol\":3999:4081  rooms[roomNum].originator.addr.transfer(rooms[roomNum].originator.playerBetAmount) */\n      swap1\n      dup2\n      iszero\n      mul\n      swap1\n      mload(0x40)\n      0x00\n      mload(0x40)\n      dup1\n      dup4\n      sub\n      dup2\n      dup6\n      dup9\n      dup9\n      call\n      swap4\n      pop\n      pop\n      pop\n      pop\n      iszero\n      dup1\n      iszero\n      tag_109\n      jumpi\n      returndatasize\n      0x00\n      dup1\n      returndatacopy\n      revert(0x00, returndatasize)\n    tag_109:\n      pop\n        /* \"rps.sol\":4095:4100  rooms */\n      0x00\n        /* \"rps.sol\":4095:4109  rooms[roomNum] */\n      dup1\n        /* \"rps.sol\":4101:4108  roomNum */\n      dup5\n        /* \"rps.sol\":4095:4109  rooms[roomNum] */\n      dup2\n      mstore\n      0x20\n      add\n      swap1\n      dup2\n      mstore\n      0x20\n      add\n      0x00\n      keccak256\n        /* \"rps.sol\":4095:4115  rooms[roomNum].taker */\n      0x05\n      add\n        /* \"rps.sol\":4095:4120  rooms[roomNum].taker.addr */\n      0x00\n      add\n      0x00\n      swap1\n      sload\n      swap1\n      0x0100\n      exp\n      swap1\n      div\n      0xffffffffffffffffffffffffffffffffffffffff\n      and\n        /* \"rps.sol\":4095:4129  rooms[roomNum].taker.addr.transfer */\n      0xffffffffffffffffffffffffffffffffffffffff\n      and\n        /* \"rps.sol\":4095:4167  rooms[roomNum].taker.addr.transfer(rooms[roomNum].taker.playerBetAmount) */\n      0x08fc\n        /* \"rps.sol\":4130:4135  rooms */\n      0x00\n        /* \"rps.sol\":4130:4144  rooms[roomNum] */\n      dup1\n        /* \"rps.sol\":4136:4143  roomNum */\n      dup7\n        /* \"rps.sol\":4130:4144  rooms[roomNum] */\n      dup2\n      mstore\n      0x20\n      add\n      swap1\n      dup2\n      mstore\n      0x20\n      add\n      0x00\n      keccak256\n        /* \"rps.sol\":4130:4150  rooms[roomNum].taker */\n      0x05\n      add\n        /* \"rps.sol\":4130:4166  rooms[roomNum].taker.playerBetAmount */\n      0x01\n      add\n      sload\n        /* \"rps.sol\":4095:4167  rooms[roomNum].taker.addr.transfer(rooms[roomNum].taker.playerBetAmount) */\n      swap1\n      dup2\n      iszero\n      mul\n      swap1\n      mload(0x40)\n      0x00\n      mload(0x40)\n      dup1\n      dup4\n      sub\n      dup2\n      dup6\n      dup9\n      dup9\n      call\n      swap4\n      pop\n      pop\n      pop\n      pop\n      iszero\n      dup1\n      iszero\n      tag_111\n      jumpi\n      returndatasize\n      0x00\n      dup1\n      returndatacopy\n      revert(0x00, returndatasize)\n    tag_111:\n      pop\n        /* \"rps.sol\":3851:4744  if(rooms[roomNum].originator.playerStatus == PlayerStatus.STATUS_TIE && rooms[roomNum].taker.playerStatus == PlayerStatus.STATUS_TIE ){... */\n      jump(tag_112)\n    tag_107:\n        /* \"rps.sol\":4241:4264  PlayerStatus.STATUS_WIN */\n      0x00\n        /* \"rps.sol\":4199:4264  rooms[roomNum].originator.playerStatus == PlayerStatus.STATUS_WIN */\n      0x03\n      dup2\n      gt\n      iszero\n      tag_113\n      jumpi\n      tag_114\n      tag_28\n      jump\t// in\n    tag_114:\n    tag_113:\n        /* \"rps.sol\":4199:4204  rooms */\n      0x00\n        /* \"rps.sol\":4199:4213  rooms[roomNum] */\n      dup1\n        /* \"rps.sol\":4205:4212  roomNum */\n      dup6\n        /* \"rps.sol\":4199:4213  rooms[roomNum] */\n      dup2\n      mstore\n      0x20\n      add\n      swap1\n      dup2\n      mstore\n      0x20\n      add\n      0x00\n      keccak256\n        /* \"rps.sol\":4199:4224  rooms[roomNum].originator */\n      0x02\n      add\n        /* \"rps.sol\":4199:4237  rooms[roomNum].originator.playerStatus */\n      0x02\n      add\n      0x01\n      swap1\n      sload\n      swap1\n      0x0100\n      exp\n      swap1\n      div\n      0xff\n      and\n        /* \"rps.sol\":4199:4264  rooms[roomNum].originator.playerStatus == PlayerStatus.STATUS_WIN */\n      0x03\n      dup2\n      gt\n      iszero\n      tag_115\n      jumpi\n      tag_116\n      tag_28\n      jump\t// in\n    tag_116:\n    tag_115:\n      sub\n        /* \"rps.sol\":4196:4734  if(rooms[roomNum].originator.playerStatus == PlayerStatus.STATUS_WIN){... */\n      tag_117\n      jumpi\n        /* \"rps.sol\":4283:4288  rooms */\n      0x00\n        /* \"rps.sol\":4283:4297  rooms[roomNum] */\n      dup1\n        /* \"rps.sol\":4289:4296  roomNum */\n      dup5\n        /* \"rps.sol\":4283:4297  rooms[roomNum] */\n      dup2\n      mstore\n      0x20\n      add\n      swap1\n      dup2\n      mstore\n      0x20\n      add\n      0x00\n      keccak256\n        /* \"rps.sol\":4283:4308  rooms[roomNum].originator */\n      0x02\n      add\n        /* \"rps.sol\":4283:4313  rooms[roomNum].originator.addr */\n      0x00\n      add\n      0x00\n      swap1\n      sload\n      swap1\n      0x0100\n      exp\n      swap1\n      div\n      0xffffffffffffffffffffffffffffffffffffffff\n      and\n        /* \"rps.sol\":4283:4322  rooms[roomNum].originator.addr.transfer */\n      0xffffffffffffffffffffffffffffffffffffffff\n      and\n        /* \"rps.sol\":4283:4348  rooms[roomNum].originator.addr.transfer(rooms[roomNum].betAmount) */\n      0x08fc\n        /* \"rps.sol\":4323:4328  rooms */\n      0x00\n        /* \"rps.sol\":4323:4337  rooms[roomNum] */\n      dup1\n        /* \"rps.sol\":4329:4336  roomNum */\n      dup7\n        /* \"rps.sol\":4323:4337  rooms[roomNum] */\n      dup2\n      mstore\n      0x20\n      add\n      swap1\n      dup2\n      mstore\n      0x20\n      add\n      0x00\n      keccak256\n        /* \"rps.sol\":4323:4347  rooms[roomNum].betAmount */\n      0x00\n      add\n      sload\n        /* \"rps.sol\":4283:4348  rooms[roomNum].originator.addr.transfer(rooms[roomNum].betAmount) */\n      swap1\n      dup2\n      iszero\n      mul\n      swap1\n      mload(0x40)\n      0x00\n      mload(0x40)\n      dup1\n      dup4\n      sub\n      dup2\n      dup6\n      dup9\n      dup9\n      call\n      swap4\n      pop\n      pop\n      pop\n      pop\n      iszero\n      dup1\n      iszero\n      tag_119\n      jumpi\n      returndatasize\n      0x00\n      dup1\n      returndatacopy\n      revert(0x00, returndatasize)\n    tag_119:\n      pop\n        /* \"rps.sol\":4196:4734  if(rooms[roomNum].originator.playerStatus == PlayerStatus.STATUS_WIN){... */\n      jump(tag_120)\n    tag_117:\n        /* \"rps.sol\":4408:4431  PlayerStatus.STATUS_WIN */\n      0x00\n        /* \"rps.sol\":4371:4431  rooms[roomNum].taker.playerStatus == PlayerStatus.STATUS_WIN */\n      0x03\n      dup2\n      gt\n      iszero\n      tag_121\n      jumpi\n      tag_122\n      tag_28\n      jump\t// in\n    tag_122:\n    tag_121:\n        /* \"rps.sol\":4371:4376  rooms */\n      0x00\n        /* \"rps.sol\":4371:4385  rooms[roomNum] */\n      dup1\n        /* \"rps.sol\":4377:4384  roomNum */\n      dup6\n        /* \"rps.sol\":4371:4385  rooms[roomNum] */\n      dup2\n      mstore\n      0x20\n      add\n      swap1\n      dup2\n      mstore\n      0x20\n      add\n      0x00\n      keccak256\n        /* \"rps.sol\":4371:4391  rooms[roomNum].taker */\n      0x05\n      add\n        /* \"rps.sol\":4371:4404  rooms[roomNum].taker.playerStatus */\n      0x02\n      add\n      0x01\n      swap1\n      sload\n      swap1\n      0x0100\n      exp\n      swap1\n      div\n      0xff\n      and\n        /* \"rps.sol\":4371:4431  rooms[roomNum].taker.playerStatus == PlayerStatus.STATUS_WIN */\n      0x03\n      dup2\n      gt\n      iszero\n      tag_123\n      jumpi\n      tag_124\n      tag_28\n      jump\t// in\n    tag_124:\n    tag_123:\n      sub\n        /* \"rps.sol\":4368:4734  if(rooms[roomNum].taker.playerStatus == PlayerStatus.STATUS_WIN){... */\n      tag_125\n      jumpi\n        /* \"rps.sol\":4450:4455  rooms */\n      0x00\n        /* \"rps.sol\":4450:4464  rooms[roomNum] */\n      dup1\n        /* \"rps.sol\":4456:4463  roomNum */\n      dup5\n        /* \"rps.sol\":4450:4464  rooms[roomNum] */\n      dup2\n      mstore\n      0x20\n      add\n      swap1\n      dup2\n      mstore\n      0x20\n      add\n      0x00\n      keccak256\n        /* \"rps.sol\":4450:4470  rooms[roomNum].taker */\n      0x05\n      add\n        /* \"rps.sol\":4450:4475  rooms[roomNum].taker.addr */\n      0x00\n      add\n      0x00\n      swap1\n      sload\n      swap1\n      0x0100\n      exp\n      swap1\n      div\n      0xffffffffffffffffffffffffffffffffffffffff\n      and\n        /* \"rps.sol\":4450:4484  rooms[roomNum].taker.addr.transfer */\n      0xffffffffffffffffffffffffffffffffffffffff\n      and\n        /* \"rps.sol\":4450:4510  rooms[roomNum].taker.addr.transfer(rooms[roomNum].betAmount) */\n      0x08fc\n        /* \"rps.sol\":4485:4490  rooms */\n      0x00\n        /* \"rps.sol\":4485:4499  rooms[roomNum] */\n      dup1\n        /* \"rps.sol\":4491:4498  roomNum */\n      dup7\n        /* \"rps.sol\":4485:4499  rooms[roomNum] */\n      dup2\n      mstore\n      0x20\n      add\n      swap1\n      dup2\n      mstore\n      0x20\n      add\n      0x00\n      keccak256\n        /* \"rps.sol\":4485:4509  rooms[roomNum].betAmount */\n      0x00\n      add\n      sload\n        /* \"rps.sol\":4450:4510  rooms[roomNum].taker.addr.transfer(rooms[roomNum].betAmount) */\n      swap1\n      dup2\n      iszero\n      mul\n      swap1\n      mload(0x40)\n      0x00\n      mload(0x40)\n      dup1\n      dup4\n      sub\n      dup2\n      dup6\n      dup9\n      dup9\n      call\n      swap4\n      pop\n      pop\n      pop\n      pop\n      iszero\n      dup1\n      iszero\n      tag_127\n      jumpi\n      returndatasize\n      0x00\n      dup1\n      returndatacopy\n      revert(0x00, returndatasize)\n    tag_127:\n      pop\n        /* \"rps.sol\":4368:4734  if(rooms[roomNum].taker.playerStatus == PlayerStatus.STATUS_WIN){... */\n      jump(tag_128)\n    tag_125:\n        /* \"rps.sol\":4547:4552  rooms */\n      0x00\n        /* \"rps.sol\":4547:4561  rooms[roomNum] */\n      dup1\n        /* \"rps.sol\":4553:4560  roomNum */\n      dup5\n        /* \"rps.sol\":4547:4561  rooms[roomNum] */\n      dup2\n      mstore\n      0x20\n      add\n      swap1\n      dup2\n      mstore\n      0x20\n      add\n      0x00\n      keccak256\n        /* \"rps.sol\":4547:4572  rooms[roomNum].originator */\n      0x02\n      add\n        /* \"rps.sol\":4547:4577  rooms[roomNum].originator.addr */\n      0x00\n      add\n      0x00\n      swap1\n      sload\n      swap1\n      0x0100\n      exp\n      swap1\n      div\n      0xffffffffffffffffffffffffffffffffffffffff\n      and\n        /* \"rps.sol\":4547:4586  rooms[roomNum].originator.addr.transfer */\n      0xffffffffffffffffffffffffffffffffffffffff\n      and\n        /* \"rps.sol\":4547:4629  rooms[roomNum].originator.addr.transfer(rooms[roomNum].originator.playerBetAmount) */\n      0x08fc\n        /* \"rps.sol\":4587:4592  rooms */\n      0x00\n        /* \"rps.sol\":4587:4601  rooms[roomNum] */\n      dup1\n        /* \"rps.sol\":4593:4600  roomNum */\n      dup7\n        /* \"rps.sol\":4587:4601  rooms[roomNum] */\n      dup2\n      mstore\n      0x20\n      add\n      swap1\n      dup2\n      mstore\n      0x20\n      add\n      0x00\n      keccak256\n        /* \"rps.sol\":4587:4612  rooms[roomNum].originator */\n      0x02\n      add\n        /* \"rps.sol\":4587:4628  rooms[roomNum].originator.playerBetAmount */\n      0x01\n      add\n      sload\n        /* \"rps.sol\":4547:4629  rooms[roomNum].originator.addr.transfer(rooms[roomNum].originator.playerBetAmount) */\n      swap1\n      dup2\n      iszero\n      mul\n      swap1\n      mload(0x40)\n      0x00\n      mload(0x40)\n      dup1\n      dup4\n      sub\n      dup2\n      dup6\n      dup9\n      dup9\n      call\n      swap4\n      pop\n      pop\n      pop\n      pop\n      iszero\n      dup1\n      iszero\n      tag_130\n      jumpi\n      returndatasize\n      0x00\n      dup1\n      returndatacopy\n      revert(0x00, returndatasize)\n    tag_130:\n      pop\n        /* \"rps.sol\":4647:4652  rooms */\n      0x00\n        /* \"rps.sol\":4647:4661  rooms[roomNum] */\n      dup1\n        /* \"rps.sol\":4653:4660  roomNum */\n      dup5\n        /* \"rps.sol\":4647:4661  rooms[roomNum] */\n      dup2\n      mstore\n      0x20\n      add\n      swap1\n      dup2\n      mstore\n      0x20\n      add\n      0x00\n      keccak256\n        /* \"rps.sol\":4647:4667  rooms[roomNum].taker */\n      0x05\n      add\n        /* \"rps.sol\":4647:4672  rooms[roomNum].taker.addr */\n      0x00\n      add\n      0x00\n      swap1\n      sload\n      swap1\n      0x0100\n      exp\n      swap1\n      div\n      0xffffffffffffffffffffffffffffffffffffffff\n      and\n        /* \"rps.sol\":4647:4681  rooms[roomNum].taker.addr.transfer */\n      0xffffffffffffffffffffffffffffffffffffffff\n      and\n        /* \"rps.sol\":4647:4719  rooms[roomNum].taker.addr.transfer(rooms[roomNum].taker.playerBetAmount) */\n      0x08fc\n        /* \"rps.sol\":4682:4687  rooms */\n      0x00\n        /* \"rps.sol\":4682:4696  rooms[roomNum] */\n      dup1\n        /* \"rps.sol\":4688:4695  roomNum */\n      dup7\n        /* \"rps.sol\":4682:4696  rooms[roomNum] */\n      dup2\n      mstore\n      0x20\n      add\n      swap1\n      dup2\n      mstore\n      0x20\n      add\n      0x00\n      keccak256\n        /* \"rps.sol\":4682:4702  rooms[roomNum].taker */\n      0x05\n      add\n        /* \"rps.sol\":4682:4718  rooms[roomNum].taker.playerBetAmount */\n      0x01\n      add\n      sload\n        /* \"rps.sol\":4647:4719  rooms[roomNum].taker.addr.transfer(rooms[roomNum].taker.playerBetAmount) */\n      swap1\n      dup2\n      iszero\n      mul\n      swap1\n      mload(0x40)\n      0x00\n      mload(0x40)\n      dup1\n      dup4\n      sub\n      dup2\n      dup6\n      dup9\n      dup9\n      call\n      swap4\n      pop\n      pop\n      pop\n      pop\n      iszero\n      dup1\n      iszero\n      tag_132\n      jumpi\n      returndatasize\n      0x00\n      dup1\n      returndatacopy\n      revert(0x00, returndatasize)\n    tag_132:\n      pop\n        /* \"rps.sol\":4368:4734  if(rooms[roomNum].taker.playerStatus == PlayerStatus.STATUS_WIN){... */\n    tag_128:\n        /* \"rps.sol\":4196:4734  if(rooms[roomNum].originator.playerStatus == PlayerStatus.STATUS_WIN){... */\n    tag_120:\n        /* \"rps.sol\":3851:4744  if(rooms[roomNum].originator.playerStatus == PlayerStatus.STATUS_TIE && rooms[roomNum].taker.playerStatus == PlayerStatus.STATUS_TIE ){... */\n    tag_112:\n        /* \"rps.sol\":4781:4807  GameStatus.STATUS_COMPLETE */\n      0x02\n        /* \"rps.sol\":4753:4758  rooms */\n      0x00\n        /* \"rps.sol\":4753:4767  rooms[roomNum] */\n      dup1\n        /* \"rps.sol\":4759:4766  roomNum */\n      dup6\n        /* \"rps.sol\":4753:4767  rooms[roomNum] */\n      dup2\n      mstore\n      0x20\n      add\n      swap1\n      dup2\n      mstore\n      0x20\n      add\n      0x00\n      keccak256\n        /* \"rps.sol\":4753:4778  rooms[roomNum].gameStatus */\n      0x01\n      add\n      0x00\n        /* \"rps.sol\":4753:4807  rooms[roomNum].gameStatus = GameStatus.STATUS_COMPLETE */\n      0x0100\n      exp\n      dup2\n      sload\n      dup2\n      0xff\n      mul\n      not\n      and\n      swap1\n      dup4\n      0x03\n      dup2\n      gt\n      iszero\n      tag_133\n      jumpi\n      tag_134\n      tag_28\n      jump\t// in\n    tag_134:\n    tag_133:\n      mul\n      or\n      swap1\n      sstore\n      pop\n        /* \"rps.sol\":3767:4814  function payout(uint roomNum) public payable isPlayer(roomNum, msg.sender){... */\n      pop\n      pop\n      pop\n      jump\t// out\n        /* \"rps.sol\":4852:5949  function compareHands(uint roomNum )private {... */\n    tag_93:\n        /* \"rps.sol\":4906:4922  uint8 originator */\n      0x00\n        /* \"rps.sol\":4931:4936  rooms */\n      dup1\n        /* \"rps.sol\":4931:4945  rooms[roomNum] */\n      0x00\n        /* \"rps.sol\":4937:4944  roomNum */\n      dup4\n        /* \"rps.sol\":4931:4945  rooms[roomNum] */\n      dup2\n      mstore\n      0x20\n      add\n      swap1\n      dup2\n      mstore\n      0x20\n      add\n      0x00\n      keccak256\n        /* \"rps.sol\":4931:4956  rooms[roomNum].originator */\n      0x02\n      add\n        /* \"rps.sol\":4931:4961  rooms[roomNum].originator.hand */\n      0x02\n      add\n      0x00\n      swap1\n      sload\n      swap1\n      0x0100\n      exp\n      swap1\n      div\n      0xff\n      and\n        /* \"rps.sol\":4925:4962  uint8(rooms[roomNum].originator.hand) */\n      0x02\n      dup2\n      gt\n      iszero\n      tag_136\n      jumpi\n      tag_137\n      tag_28\n      jump\t// in\n    tag_137:\n    tag_136:\n        /* \"rps.sol\":4906:4962  uint8 originator = uint8(rooms[roomNum].originator.hand) */\n      swap1\n      pop\n        /* \"rps.sol\":4972:4983  uint8 taker */\n      0x00\n        /* \"rps.sol\":4992:4997  rooms */\n      dup1\n        /* \"rps.sol\":4992:5006  rooms[roomNum] */\n      0x00\n        /* \"rps.sol\":4998:5005  roomNum */\n      dup5\n        /* \"rps.sol\":4992:5006  rooms[roomNum] */\n      dup2\n      mstore\n      0x20\n      add\n      swap1\n      dup2\n      mstore\n      0x20\n      add\n      0x00\n      keccak256\n        /* \"rps.sol\":4992:5012  rooms[roomNum].taker */\n      0x05\n      add\n        /* \"rps.sol\":4992:5017  rooms[roomNum].taker.hand */\n      0x02\n      add\n      0x00\n      swap1\n      sload\n      swap1\n      0x0100\n      exp\n      swap1\n      div\n      0xff\n      and\n        /* \"rps.sol\":4986:5018  uint8(rooms[roomNum].taker.hand) */\n      0x02\n      dup2\n      gt\n      iszero\n      tag_138\n      jumpi\n      tag_139\n      tag_28\n      jump\t// in\n    tag_139:\n    tag_138:\n        /* \"rps.sol\":4972:5018  uint8 taker = uint8(rooms[roomNum].taker.hand) */\n      swap1\n      pop\n        /* \"rps.sol\":5057:5082  GameStatus.STATUS_STARTED */\n      0x01\n        /* \"rps.sol\":5029:5034  rooms */\n      0x00\n        /* \"rps.sol\":5029:5043  rooms[roomNum] */\n      dup1\n        /* \"rps.sol\":5035:5042  roomNum */\n      dup6\n        /* \"rps.sol\":5029:5043  rooms[roomNum] */\n      dup2\n      mstore\n      0x20\n      add\n      swap1\n      dup2\n      mstore\n      0x20\n      add\n      0x00\n      keccak256\n        /* \"rps.sol\":5029:5054  rooms[roomNum].gameStatus */\n      0x01\n      add\n      0x00\n        /* \"rps.sol\":5029:5082  rooms[roomNum].gameStatus = GameStatus.STATUS_STARTED */\n      0x0100\n      exp\n      dup2\n      sload\n      dup2\n      0xff\n      mul\n      not\n      and\n      swap1\n      dup4\n      0x03\n      dup2\n      gt\n      iszero\n      tag_140\n      jumpi\n      tag_141\n      tag_28\n      jump\t// in\n    tag_141:\n    tag_140:\n      mul\n      or\n      swap1\n      sstore\n      pop\n        /* \"rps.sol\":5105:5115  originator */\n      dup2\n        /* \"rps.sol\":5096:5115  taker == originator */\n      0xff\n      and\n        /* \"rps.sol\":5096:5101  taker */\n      dup2\n        /* \"rps.sol\":5096:5115  taker == originator */\n      0xff\n      and\n      sub\n        /* \"rps.sol\":5093:5943  if(taker == originator){ //비긴 경우 ... */\n      tag_142\n      jumpi\n        /* \"rps.sol\":5207:5230  PlayerStatus.STATUS_TIE */\n      0x02\n        /* \"rps.sol\":5166:5171  rooms */\n      0x00\n        /* \"rps.sol\":5166:5180  rooms[roomNum] */\n      dup1\n        /* \"rps.sol\":5172:5179  roomNum */\n      dup6\n        /* \"rps.sol\":5166:5180  rooms[roomNum] */\n      dup2\n      mstore\n      0x20\n      add\n      swap1\n      dup2\n      mstore\n      0x20\n      add\n      0x00\n      keccak256\n        /* \"rps.sol\":5166:5191  rooms[roomNum].originator */\n      0x02\n      add\n        /* \"rps.sol\":5166:5204  rooms[roomNum].originator.playerStatus */\n      0x02\n      add\n      0x01\n        /* \"rps.sol\":5166:5230  rooms[roomNum].originator.playerStatus = PlayerStatus.STATUS_TIE */\n      0x0100\n      exp\n      dup2\n      sload\n      dup2\n      0xff\n      mul\n      not\n      and\n      swap1\n      dup4\n      0x03\n      dup2\n      gt\n      iszero\n      tag_143\n      jumpi\n      tag_144\n      tag_28\n      jump\t// in\n    tag_144:\n    tag_143:\n      mul\n      or\n      swap1\n      sstore\n      pop\n        /* \"rps.sol\":5280:5303  PlayerStatus.STATUS_TIE */\n      0x02\n        /* \"rps.sol\":5244:5249  rooms */\n      0x00\n        /* \"rps.sol\":5244:5258  rooms[roomNum] */\n      dup1\n        /* \"rps.sol\":5250:5257  roomNum */\n      dup6\n        /* \"rps.sol\":5244:5258  rooms[roomNum] */\n      dup2\n      mstore\n      0x20\n      add\n      swap1\n      dup2\n      mstore\n      0x20\n      add\n      0x00\n      keccak256\n        /* \"rps.sol\":5244:5264  rooms[roomNum].taker */\n      0x05\n      add\n        /* \"rps.sol\":5244:5277  rooms[roomNum].taker.playerStatus */\n      0x02\n      add\n      0x01\n        /* \"rps.sol\":5244:5303  rooms[roomNum].taker.playerStatus = PlayerStatus.STATUS_TIE */\n      0x0100\n      exp\n      dup2\n      sload\n      dup2\n      0xff\n      mul\n      not\n      and\n      swap1\n      dup4\n      0x03\n      dup2\n      gt\n      iszero\n      tag_145\n      jumpi\n      tag_146\n      tag_28\n      jump\t// in\n    tag_146:\n    tag_145:\n      mul\n      or\n      swap1\n      sstore\n      pop\n        /* \"rps.sol\":5093:5943  if(taker == originator){ //비긴 경우 ... */\n      jump(tag_147)\n    tag_142:\n        /* \"rps.sol\":5351:5361  originator */\n      dup2\n        /* \"rps.sol\":5332:5361  (taker + 1) % 3 == originator */\n      0xff\n      and\n        /* \"rps.sol\":5346:5347  3 */\n      0x03\n        /* \"rps.sol\":5341:5342  1 */\n      0x01\n        /* \"rps.sol\":5333:5338  taker */\n      dup4\n        /* \"rps.sol\":5333:5342  taker + 1 */\n      tag_148\n      swap2\n      swap1\n      tag_149\n      jump\t// in\n    tag_148:\n        /* \"rps.sol\":5332:5347  (taker + 1) % 3 */\n      tag_150\n      swap2\n      swap1\n      tag_151\n      jump\t// in\n    tag_150:\n        /* \"rps.sol\":5332:5361  (taker + 1) % 3 == originator */\n      0xff\n      and\n      sub\n        /* \"rps.sol\":5328:5943  if ((taker + 1) % 3 == originator){ //방장이 이긴 경우 ... */\n      tag_152\n      jumpi\n        /* \"rps.sol\":5444:5467  PlayerStatus.STATUS_WIN */\n      0x00\n        /* \"rps.sol\":5403:5408  rooms */\n      dup1\n        /* \"rps.sol\":5403:5417  rooms[roomNum] */\n      0x00\n        /* \"rps.sol\":5409:5416  roomNum */\n      dup6\n        /* \"rps.sol\":5403:5417  rooms[roomNum] */\n      dup2\n      mstore\n      0x20\n      add\n      swap1\n      dup2\n      mstore\n      0x20\n      add\n      0x00\n      keccak256\n        /* \"rps.sol\":5403:5428  rooms[roomNum].originator */\n      0x02\n      add\n        /* \"rps.sol\":5403:5441  rooms[roomNum].originator.playerStatus */\n      0x02\n      add\n      0x01\n        /* \"rps.sol\":5403:5467  rooms[roomNum].originator.playerStatus = PlayerStatus.STATUS_WIN */\n      0x0100\n      exp\n      dup2\n      sload\n      dup2\n      0xff\n      mul\n      not\n      and\n      swap1\n      dup4\n      0x03\n      dup2\n      gt\n      iszero\n      tag_153\n      jumpi\n      tag_154\n      tag_28\n      jump\t// in\n    tag_154:\n    tag_153:\n      mul\n      or\n      swap1\n      sstore\n      pop\n        /* \"rps.sol\":5517:5541  PlayerStatus.STATUS_LOSE */\n      0x01\n        /* \"rps.sol\":5481:5486  rooms */\n      0x00\n        /* \"rps.sol\":5481:5495  rooms[roomNum] */\n      dup1\n        /* \"rps.sol\":5487:5494  roomNum */\n      dup6\n        /* \"rps.sol\":5481:5495  rooms[roomNum] */\n      dup2\n      mstore\n      0x20\n      add\n      swap1\n      dup2\n      mstore\n      0x20\n      add\n      0x00\n      keccak256\n        /* \"rps.sol\":5481:5501  rooms[roomNum].taker */\n      0x05\n      add\n        /* \"rps.sol\":5481:5514  rooms[roomNum].taker.playerStatus */\n      0x02\n      add\n      0x01\n        /* \"rps.sol\":5481:5541  rooms[roomNum].taker.playerStatus = PlayerStatus.STATUS_LOSE */\n      0x0100\n      exp\n      dup2\n      sload\n      dup2\n      0xff\n      mul\n      not\n      and\n      swap1\n      dup4\n      0x03\n      dup2\n      gt\n      iszero\n      tag_155\n      jumpi\n      tag_156\n      tag_28\n      jump\t// in\n    tag_156:\n    tag_155:\n      mul\n      or\n      swap1\n      sstore\n      pop\n        /* \"rps.sol\":5328:5943  if ((taker + 1) % 3 == originator){ //방장이 이긴 경우 ... */\n      jump(tag_157)\n    tag_152:\n        /* \"rps.sol\":5593:5598  taker */\n      dup1\n        /* \"rps.sol\":5570:5598  (originator + 1) %3 == taker */\n      0xff\n      and\n        /* \"rps.sol\":5588:5589  3 */\n      0x03\n        /* \"rps.sol\":5584:5585  1 */\n      0x01\n        /* \"rps.sol\":5571:5581  originator */\n      dup5\n        /* \"rps.sol\":5571:5585  originator + 1 */\n      tag_158\n      swap2\n      swap1\n      tag_149\n      jump\t// in\n    tag_158:\n        /* \"rps.sol\":5570:5589  (originator + 1) %3 */\n      tag_159\n      swap2\n      swap1\n      tag_151\n      jump\t// in\n    tag_159:\n        /* \"rps.sol\":5570:5598  (originator + 1) %3 == taker */\n      0xff\n      and\n      sub\n        /* \"rps.sol\":5566:5943  if ((originator + 1) %3 == taker){ //참가자가 이긴 경우... */\n      tag_160\n      jumpi\n        /* \"rps.sol\":5683:5707  PlayerStatus.STATUS_LOSE */\n      0x01\n        /* \"rps.sol\":5642:5647  rooms */\n      0x00\n        /* \"rps.sol\":5642:5656  rooms[roomNum] */\n      dup1\n        /* \"rps.sol\":5648:5655  roomNum */\n      dup6\n        /* \"rps.sol\":5642:5656  rooms[roomNum] */\n      dup2\n      mstore\n      0x20\n      add\n      swap1\n      dup2\n      mstore\n      0x20\n      add\n      0x00\n      keccak256\n        /* \"rps.sol\":5642:5667  rooms[roomNum].originator */\n      0x02\n      add\n        /* \"rps.sol\":5642:5680  rooms[roomNum].originator.playerStatus */\n      0x02\n      add\n      0x01\n        /* \"rps.sol\":5642:5707  rooms[roomNum].originator.playerStatus = PlayerStatus.STATUS_LOSE */\n      0x0100\n      exp\n      dup2\n      sload\n      dup2\n      0xff\n      mul\n      not\n      and\n      swap1\n      dup4\n      0x03\n      dup2\n      gt\n      iszero\n      tag_161\n      jumpi\n      tag_162\n      tag_28\n      jump\t// in\n    tag_162:\n    tag_161:\n      mul\n      or\n      swap1\n      sstore\n      pop\n        /* \"rps.sol\":5758:5781  PlayerStatus.STATUS_WIN */\n      0x00\n        /* \"rps.sol\":5722:5727  rooms */\n      dup1\n        /* \"rps.sol\":5722:5736  rooms[roomNum] */\n      0x00\n        /* \"rps.sol\":5728:5735  roomNum */\n      dup6\n        /* \"rps.sol\":5722:5736  rooms[roomNum] */\n      dup2\n      mstore\n      0x20\n      add\n      swap1\n      dup2\n      mstore\n      0x20\n      add\n      0x00\n      keccak256\n        /* \"rps.sol\":5722:5742  rooms[roomNum].taker */\n      0x05\n      add\n        /* \"rps.sol\":5722:5755  rooms[roomNum].taker.playerStatus */\n      0x02\n      add\n      0x01\n        /* \"rps.sol\":5722:5781  rooms[roomNum].taker.playerStatus = PlayerStatus.STATUS_WIN */\n      0x0100\n      exp\n      dup2\n      sload\n      dup2\n      0xff\n      mul\n      not\n      and\n      swap1\n      dup4\n      0x03\n      dup2\n      gt\n      iszero\n      tag_163\n      jumpi\n      tag_164\n      tag_28\n      jump\t// in\n    tag_164:\n    tag_163:\n      mul\n      or\n      swap1\n      sstore\n      pop\n        /* \"rps.sol\":5566:5943  if ((originator + 1) %3 == taker){ //참가자가 이긴 경우... */\n      jump(tag_165)\n    tag_160:\n        /* \"rps.sol\":5909:5932  GameStatus.STATUS_ERROR */\n      0x03\n        /* \"rps.sol\":5881:5886  rooms */\n      0x00\n        /* \"rps.sol\":5881:5895  rooms[roomNum] */\n      dup1\n        /* \"rps.sol\":5887:5894  roomNum */\n      dup6\n        /* \"rps.sol\":5881:5895  rooms[roomNum] */\n      dup2\n      mstore\n      0x20\n      add\n      swap1\n      dup2\n      mstore\n      0x20\n      add\n      0x00\n      keccak256\n        /* \"rps.sol\":5881:5906  rooms[roomNum].gameStatus */\n      0x01\n      add\n      0x00\n        /* \"rps.sol\":5881:5932  rooms[roomNum].gameStatus = GameStatus.STATUS_ERROR */\n      0x0100\n      exp\n      dup2\n      sload\n      dup2\n      0xff\n      mul\n      not\n      and\n      swap1\n      dup4\n      0x03\n      dup2\n      gt\n      iszero\n      tag_166\n      jumpi\n      tag_167\n      tag_28\n      jump\t// in\n    tag_167:\n    tag_166:\n      mul\n      or\n      swap1\n      sstore\n      pop\n        /* \"rps.sol\":5566:5943  if ((originator + 1) %3 == taker){ //참가자가 이긴 경우... */\n    tag_165:\n        /* \"rps.sol\":5328:5943  if ((taker + 1) % 3 == originator){ //방장이 이긴 경우 ... */\n    tag_157:\n        /* \"rps.sol\":5093:5943  if(taker == originator){ //비긴 경우 ... */\n    tag_147:\n        /* \"rps.sol\":4896:5949  {... */\n      pop\n      pop\n        /* \"rps.sol\":4852:5949  function compareHands(uint roomNum )private {... */\n      pop\n      jump\t// out\n        /* \"#utility.yul\":88:205   */\n    tag_169:\n        /* \"#utility.yul\":197:198   */\n      0x00\n        /* \"#utility.yul\":194:195   */\n      dup1\n        /* \"#utility.yul\":187:199   */\n      revert\n        /* \"#utility.yul\":334:439   */\n    tag_171:\n        /* \"#utility.yul\":413:414   */\n      0x03\n        /* \"#utility.yul\":406:411   */\n      dup2\n        /* \"#utility.yul\":403:415   */\n      lt\n        /* \"#utility.yul\":393:433   */\n      tag_185\n      jumpi\n        /* \"#utility.yul\":429:430   */\n      0x00\n        /* \"#utility.yul\":426:427   */\n      dup1\n        /* \"#utility.yul\":419:431   */\n      revert\n        /* \"#utility.yul\":393:433   */\n    tag_185:\n        /* \"#utility.yul\":334:439   */\n      pop\n      jump\t// out\n        /* \"#utility.yul\":445:596   */\n    tag_172:\n        /* \"#utility.yul\":497:502   */\n      0x00\n        /* \"#utility.yul\":535:541   */\n      dup2\n        /* \"#utility.yul\":522:542   */\n      calldataload\n        /* \"#utility.yul\":513:542   */\n      swap1\n      pop\n        /* \"#utility.yul\":551:590   */\n      tag_187\n        /* \"#utility.yul\":584:589   */\n      dup2\n        /* \"#utility.yul\":551:590   */\n      tag_171\n      jump\t// in\n    tag_187:\n        /* \"#utility.yul\":445:596   */\n      swap3\n      swap2\n      pop\n      pop\n      jump\t// out\n        /* \"#utility.yul\":602:943   */\n    tag_8:\n        /* \"#utility.yul\":667:673   */\n      0x00\n        /* \"#utility.yul\":716:718   */\n      0x20\n        /* \"#utility.yul\":704:713   */\n      dup3\n        /* \"#utility.yul\":695:702   */\n      dup5\n        /* \"#utility.yul\":691:714   */\n      sub\n        /* \"#utility.yul\":687:719   */\n      slt\n        /* \"#utility.yul\":684:803   */\n      iszero\n      tag_189\n      jumpi\n        /* \"#utility.yul\":722:801   */\n      tag_190\n      tag_169\n      jump\t// in\n    tag_190:\n        /* \"#utility.yul\":684:803   */\n    tag_189:\n        /* \"#utility.yul\":842:843   */\n      0x00\n        /* \"#utility.yul\":867:926   */\n      tag_191\n        /* \"#utility.yul\":918:925   */\n      dup5\n        /* \"#utility.yul\":909:915   */\n      dup3\n        /* \"#utility.yul\":898:907   */\n      dup6\n        /* \"#utility.yul\":894:916   */\n      add\n        /* \"#utility.yul\":867:926   */\n      tag_172\n      jump\t// in\n    tag_191:\n        /* \"#utility.yul\":857:926   */\n      swap2\n      pop\n        /* \"#utility.yul\":813:936   */\n      pop\n        /* \"#utility.yul\":602:943   */\n      swap3\n      swap2\n      pop\n      pop\n      jump\t// out\n        /* \"#utility.yul\":949:1026   */\n    tag_173:\n        /* \"#utility.yul\":986:993   */\n      0x00\n        /* \"#utility.yul\":1015:1020   */\n      dup2\n        /* \"#utility.yul\":1004:1020   */\n      swap1\n      pop\n        /* \"#utility.yul\":949:1026   */\n      swap2\n      swap1\n      pop\n      jump\t// out\n        /* \"#utility.yul\":1032:1150   */\n    tag_174:\n        /* \"#utility.yul\":1119:1143   */\n      tag_194\n        /* \"#utility.yul\":1137:1142   */\n      dup2\n        /* \"#utility.yul\":1119:1143   */\n      tag_173\n      jump\t// in\n    tag_194:\n        /* \"#utility.yul\":1114:1117   */\n      dup3\n        /* \"#utility.yul\":1107:1144   */\n      mstore\n        /* \"#utility.yul\":1032:1150   */\n      pop\n      pop\n      jump\t// out\n        /* \"#utility.yul\":1156:1378   */\n    tag_11:\n        /* \"#utility.yul\":1249:1253   */\n      0x00\n        /* \"#utility.yul\":1287:1289   */\n      0x20\n        /* \"#utility.yul\":1276:1285   */\n      dup3\n        /* \"#utility.yul\":1272:1290   */\n      add\n        /* \"#utility.yul\":1264:1290   */\n      swap1\n      pop\n        /* \"#utility.yul\":1300:1371   */\n      tag_196\n        /* \"#utility.yul\":1368:1369   */\n      0x00\n        /* \"#utility.yul\":1357:1366   */\n      dup4\n        /* \"#utility.yul\":1353:1370   */\n      add\n        /* \"#utility.yul\":1344:1350   */\n      dup5\n        /* \"#utility.yul\":1300:1371   */\n      tag_174\n      jump\t// in\n    tag_196:\n        /* \"#utility.yul\":1156:1378   */\n      swap3\n      swap2\n      pop\n      pop\n      jump\t// out\n        /* \"#utility.yul\":1384:1506   */\n    tag_175:\n        /* \"#utility.yul\":1457:1481   */\n      tag_198\n        /* \"#utility.yul\":1475:1480   */\n      dup2\n        /* \"#utility.yul\":1457:1481   */\n      tag_173\n      jump\t// in\n    tag_198:\n        /* \"#utility.yul\":1450:1455   */\n      dup2\n        /* \"#utility.yul\":1447:1482   */\n      eq\n        /* \"#utility.yul\":1437:1500   */\n      tag_199\n      jumpi\n        /* \"#utility.yul\":1496:1497   */\n      0x00\n        /* \"#utility.yul\":1493:1494   */\n      dup1\n        /* \"#utility.yul\":1486:1498   */\n      revert\n        /* \"#utility.yul\":1437:1500   */\n    tag_199:\n        /* \"#utility.yul\":1384:1506   */\n      pop\n      jump\t// out\n        /* \"#utility.yul\":1512:1651   */\n    tag_176:\n        /* \"#utility.yul\":1558:1563   */\n      0x00\n        /* \"#utility.yul\":1596:1602   */\n      dup2\n        /* \"#utility.yul\":1583:1603   */\n      calldataload\n        /* \"#utility.yul\":1574:1603   */\n      swap1\n      pop\n        /* \"#utility.yul\":1612:1645   */\n      tag_201\n        /* \"#utility.yul\":1639:1644   */\n      dup2\n        /* \"#utility.yul\":1612:1645   */\n      tag_175\n      jump\t// in\n    tag_201:\n        /* \"#utility.yul\":1512:1651   */\n      swap3\n      swap2\n      pop\n      pop\n      jump\t// out\n        /* \"#utility.yul\":1657:1986   */\n    tag_15:\n        /* \"#utility.yul\":1716:1722   */\n      0x00\n        /* \"#utility.yul\":1765:1767   */\n      0x20\n        /* \"#utility.yul\":1753:1762   */\n      dup3\n        /* \"#utility.yul\":1744:1751   */\n      dup5\n        /* \"#utility.yul\":1740:1763   */\n      sub\n        /* \"#utility.yul\":1736:1768   */\n      slt\n        /* \"#utility.yul\":1733:1852   */\n      iszero\n      tag_203\n      jumpi\n        /* \"#utility.yul\":1771:1850   */\n      tag_204\n      tag_169\n      jump\t// in\n    tag_204:\n        /* \"#utility.yul\":1733:1852   */\n    tag_203:\n        /* \"#utility.yul\":1891:1892   */\n      0x00\n        /* \"#utility.yul\":1916:1969   */\n      tag_205\n        /* \"#utility.yul\":1961:1968   */\n      dup5\n        /* \"#utility.yul\":1952:1958   */\n      dup3\n        /* \"#utility.yul\":1941:1950   */\n      dup6\n        /* \"#utility.yul\":1937:1959   */\n      add\n        /* \"#utility.yul\":1916:1969   */\n      tag_176\n      jump\t// in\n    tag_205:\n        /* \"#utility.yul\":1906:1969   */\n      swap2\n      pop\n        /* \"#utility.yul\":1862:1979   */\n      pop\n        /* \"#utility.yul\":1657:1986   */\n      swap3\n      swap2\n      pop\n      pop\n      jump\t// out\n        /* \"#utility.yul\":1992:2478   */\n    tag_20:\n        /* \"#utility.yul\":2066:2072   */\n      0x00\n        /* \"#utility.yul\":2074:2080   */\n      dup1\n        /* \"#utility.yul\":2123:2125   */\n      0x40\n        /* \"#utility.yul\":2111:2120   */\n      dup4\n        /* \"#utility.yul\":2102:2109   */\n      dup6\n        /* \"#utility.yul\":2098:2121   */\n      sub\n        /* \"#utility.yul\":2094:2126   */\n      slt\n        /* \"#utility.yul\":2091:2210   */\n      iszero\n      tag_207\n      jumpi\n        /* \"#utility.yul\":2129:2208   */\n      tag_208\n      tag_169\n      jump\t// in\n    tag_208:\n        /* \"#utility.yul\":2091:2210   */\n    tag_207:\n        /* \"#utility.yul\":2249:2250   */\n      0x00\n        /* \"#utility.yul\":2274:2327   */\n      tag_209\n        /* \"#utility.yul\":2319:2326   */\n      dup6\n        /* \"#utility.yul\":2310:2316   */\n      dup3\n        /* \"#utility.yul\":2299:2308   */\n      dup7\n        /* \"#utility.yul\":2295:2317   */\n      add\n        /* \"#utility.yul\":2274:2327   */\n      tag_176\n      jump\t// in\n    tag_209:\n        /* \"#utility.yul\":2264:2327   */\n      swap3\n      pop\n        /* \"#utility.yul\":2220:2337   */\n      pop\n        /* \"#utility.yul\":2376:2378   */\n      0x20\n        /* \"#utility.yul\":2402:2461   */\n      tag_210\n        /* \"#utility.yul\":2453:2460   */\n      dup6\n        /* \"#utility.yul\":2444:2450   */\n      dup3\n        /* \"#utility.yul\":2433:2442   */\n      dup7\n        /* \"#utility.yul\":2429:2451   */\n      add\n        /* \"#utility.yul\":2402:2461   */\n      tag_172\n      jump\t// in\n    tag_210:\n        /* \"#utility.yul\":2392:2461   */\n      swap2\n      pop\n        /* \"#utility.yul\":2347:2471   */\n      pop\n        /* \"#utility.yul\":1992:2478   */\n      swap3\n      pop\n      swap3\n      swap1\n      pop\n      jump\t// out\n        /* \"#utility.yul\":2484:2664   */\n    tag_28:\n        /* \"#utility.yul\":2532:2609   */\n      0x4e487b7100000000000000000000000000000000000000000000000000000000\n        /* \"#utility.yul\":2529:2530   */\n      0x00\n        /* \"#utility.yul\":2522:2610   */\n      mstore\n        /* \"#utility.yul\":2629:2633   */\n      0x21\n        /* \"#utility.yul\":2626:2627   */\n      0x04\n        /* \"#utility.yul\":2619:2634   */\n      mstore\n        /* \"#utility.yul\":2653:2657   */\n      0x24\n        /* \"#utility.yul\":2650:2651   */\n      0x00\n        /* \"#utility.yul\":2643:2658   */\n      revert\n        /* \"#utility.yul\":2670:2850   */\n    tag_177:\n        /* \"#utility.yul\":2718:2795   */\n      0x4e487b7100000000000000000000000000000000000000000000000000000000\n        /* \"#utility.yul\":2715:2716   */\n      0x00\n        /* \"#utility.yul\":2708:2796   */\n      mstore\n        /* \"#utility.yul\":2815:2819   */\n      0x11\n        /* \"#utility.yul\":2812:2813   */\n      0x04\n        /* \"#utility.yul\":2805:2820   */\n      mstore\n        /* \"#utility.yul\":2839:2843   */\n      0x24\n        /* \"#utility.yul\":2836:2837   */\n      0x00\n        /* \"#utility.yul\":2829:2844   */\n      revert\n        /* \"#utility.yul\":2856:3047   */\n    tag_64:\n        /* \"#utility.yul\":2896:2899   */\n      0x00\n        /* \"#utility.yul\":2915:2935   */\n      tag_214\n        /* \"#utility.yul\":2933:2934   */\n      dup3\n        /* \"#utility.yul\":2915:2935   */\n      tag_173\n      jump\t// in\n    tag_214:\n        /* \"#utility.yul\":2910:2935   */\n      swap2\n      pop\n        /* \"#utility.yul\":2949:2969   */\n      tag_215\n        /* \"#utility.yul\":2967:2968   */\n      dup4\n        /* \"#utility.yul\":2949:2969   */\n      tag_173\n      jump\t// in\n    tag_215:\n        /* \"#utility.yul\":2944:2969   */\n      swap3\n      pop\n        /* \"#utility.yul\":2992:2993   */\n      dup3\n        /* \"#utility.yul\":2989:2990   */\n      dup3\n        /* \"#utility.yul\":2985:2994   */\n      add\n        /* \"#utility.yul\":2978:2994   */\n      swap1\n      pop\n        /* \"#utility.yul\":3013:3016   */\n      dup1\n        /* \"#utility.yul\":3010:3011   */\n      dup3\n        /* \"#utility.yul\":3007:3017   */\n      gt\n        /* \"#utility.yul\":3004:3040   */\n      iszero\n      tag_216\n      jumpi\n        /* \"#utility.yul\":3020:3038   */\n      tag_217\n      tag_177\n      jump\t// in\n    tag_217:\n        /* \"#utility.yul\":3004:3040   */\n    tag_216:\n        /* \"#utility.yul\":2856:3047   */\n      swap3\n      swap2\n      pop\n      pop\n      jump\t// out\n        /* \"#utility.yul\":3053:3139   */\n    tag_178:\n        /* \"#utility.yul\":3088:3095   */\n      0x00\n        /* \"#utility.yul\":3128:3132   */\n      0xff\n        /* \"#utility.yul\":3121:3126   */\n      dup3\n        /* \"#utility.yul\":3117:3133   */\n      and\n        /* \"#utility.yul\":3106:3133   */\n      swap1\n      pop\n        /* \"#utility.yul\":3053:3139   */\n      swap2\n      swap1\n      pop\n      jump\t// out\n        /* \"#utility.yul\":3145:3333   */\n    tag_149:\n        /* \"#utility.yul\":3183:3186   */\n      0x00\n        /* \"#utility.yul\":3202:3220   */\n      tag_220\n        /* \"#utility.yul\":3218:3219   */\n      dup3\n        /* \"#utility.yul\":3202:3220   */\n      tag_178\n      jump\t// in\n    tag_220:\n        /* \"#utility.yul\":3197:3220   */\n      swap2\n      pop\n        /* \"#utility.yul\":3234:3252   */\n      tag_221\n        /* \"#utility.yul\":3250:3251   */\n      dup4\n        /* \"#utility.yul\":3234:3252   */\n      tag_178\n      jump\t// in\n    tag_221:\n        /* \"#utility.yul\":3229:3252   */\n      swap3\n      pop\n        /* \"#utility.yul\":3275:3276   */\n      dup3\n        /* \"#utility.yul\":3272:3273   */\n      dup3\n        /* \"#utility.yul\":3268:3277   */\n      add\n        /* \"#utility.yul\":3261:3277   */\n      swap1\n      pop\n        /* \"#utility.yul\":3298:3302   */\n      0xff\n        /* \"#utility.yul\":3293:3296   */\n      dup2\n        /* \"#utility.yul\":3290:3303   */\n      gt\n        /* \"#utility.yul\":3287:3326   */\n      iszero\n      tag_222\n      jumpi\n        /* \"#utility.yul\":3306:3324   */\n      tag_223\n      tag_177\n      jump\t// in\n    tag_223:\n        /* \"#utility.yul\":3287:3326   */\n    tag_222:\n        /* \"#utility.yul\":3145:3333   */\n      swap3\n      swap2\n      pop\n      pop\n      jump\t// out\n        /* \"#utility.yul\":3339:3519   */\n    tag_179:\n        /* \"#utility.yul\":3387:3464   */\n      0x4e487b7100000000000000000000000000000000000000000000000000000000\n        /* \"#utility.yul\":3384:3385   */\n      0x00\n        /* \"#utility.yul\":3377:3465   */\n      mstore\n        /* \"#utility.yul\":3484:3488   */\n      0x12\n        /* \"#utility.yul\":3481:3482   */\n      0x04\n        /* \"#utility.yul\":3474:3489   */\n      mstore\n        /* \"#utility.yul\":3508:3512   */\n      0x24\n        /* \"#utility.yul\":3505:3506   */\n      0x00\n        /* \"#utility.yul\":3498:3513   */\n      revert\n        /* \"#utility.yul\":3525:3695   */\n    tag_151:\n        /* \"#utility.yul\":3555:3556   */\n      0x00\n        /* \"#utility.yul\":3572:3590   */\n      tag_226\n        /* \"#utility.yul\":3588:3589   */\n      dup3\n        /* \"#utility.yul\":3572:3590   */\n      tag_178\n      jump\t// in\n    tag_226:\n        /* \"#utility.yul\":3567:3590   */\n      swap2\n      pop\n        /* \"#utility.yul\":3604:3622   */\n      tag_227\n        /* \"#utility.yul\":3620:3621   */\n      dup4\n        /* \"#utility.yul\":3604:3622   */\n      tag_178\n      jump\t// in\n    tag_227:\n        /* \"#utility.yul\":3599:3622   */\n      swap3\n      pop\n        /* \"#utility.yul\":3641:3642   */\n      dup3\n        /* \"#utility.yul\":3631:3666   */\n      tag_228\n      jumpi\n        /* \"#utility.yul\":3646:3664   */\n      tag_229\n      tag_179\n      jump\t// in\n    tag_229:\n        /* \"#utility.yul\":3631:3666   */\n    tag_228:\n        /* \"#utility.yul\":3687:3688   */\n      dup3\n        /* \"#utility.yul\":3684:3685   */\n      dup3\n        /* \"#utility.yul\":3680:3689   */\n      mod\n        /* \"#utility.yul\":3675:3689   */\n      swap1\n      pop\n        /* \"#utility.yul\":3525:3695   */\n      swap3\n      swap2\n      pop\n      pop\n      jump\t// out\n\n    auxdata: 0xa2646970667358221220fd0e5912573675720199e0e2df227199e775150565a11a1f0b65c1a2241f207364736f6c63430008110033\n}\n",
				"bytecode": {
					"linkReferences": {},
					"object": "608060405260006001556111de806100186000396000f3fe60806040526004361061003f5760003560e01c80630f36f3b514610044578063393af7601461007457806379b15776146100b1578063e1152343146100cd575b600080fd5b61005e60048036038101906100599190610f7a565b6100e9565b60405161006b9190610fc0565b60405180910390f35b34801561008057600080fd5b5061009b60048036038101906100969190611007565b61044c565b6040516100a89190610fc0565b60405180910390f35b6100cb60048036038101906100c69190611034565b61046b565b005b6100e760048036038101906100e29190611007565b610666565b005b60008160006002811115610100576100ff611074565b5b81600281111561011357610112611074565b5b148061014357506001600281111561012e5761012d611074565b5b81600281111561014157610140611074565b5b145b80610171575060028081111561015c5761015b611074565b5b81600281111561016f5761016e611074565b5b145b61017a57600080fd5b60405180608001604052803481526020016000600381111561019f5761019e611074565b5b815260200160405180608001604052803373ffffffffffffffffffffffffffffffffffffffff1681526020013481526020018660028111156101e4576101e3611074565b5b81526020016003808111156101fc576101fb611074565b5b815250815260200160405180608001604052803373ffffffffffffffffffffffffffffffffffffffff168152602001600081526020016000600281111561024657610245611074565b5b815260200160038081111561025e5761025d611074565b5b81525081525060008060015481526020019081526020016000206000820151816000015560208201518160010160006101000a81548160ff021916908360038111156102ad576102ac611074565b5b021790555060408201518160020160008201518160000160006101000a81548173ffffffffffffffffffffffffffffffffffffffff021916908373ffffffffffffffffffffffffffffffffffffffff1602179055506020820151816001015560408201518160020160006101000a81548160ff0219169083600281111561033757610336611074565b5b021790555060608201518160020160016101000a81548160ff0219169083600381111561036757610366611074565b5b0217905550505060608201518160050160008201518160000160006101000a81548173ffffffffffffffffffffffffffffffffffffffff021916908373ffffffffffffffffffffffffffffffffffffffff1602179055506020820151816001015560408201518160020160006101000a81548160ff021916908360028111156103f3576103f2611074565b5b021790555060608201518160020160016101000a81548160ff0219169083600381111561042357610422611074565b5b0217905550505090505060015491506001805461044091906110d2565b60018190555050919050565b6000806000838152602001908152602001600020600001549050919050565b80600060028111156104805761047f611074565b5b81600281111561049357610492611074565b5b14806104c35750600160028111156104ae576104ad611074565b5b8160028111156104c1576104c0611074565b5b145b806104f157506002808111156104dc576104db611074565b5b8160028111156104ef576104ee611074565b5b145b6104fa57600080fd5b60405180608001604052803373ffffffffffffffffffffffffffffffffffffffff16815260200134815260200183600281111561053a57610539611074565b5b815260200160038081111561055257610551611074565b5b81525060008085815260200190815260200160002060050160008201518160000160006101000a81548173ffffffffffffffffffffffffffffffffffffffff021916908373ffffffffffffffffffffffffffffffffffffffff1602179055506020820151816001015560408201518160020160006101000a81548160ff021916908360028111156105e6576105e5611074565b5b021790555060608201518160020160016101000a81548160ff0219169083600381111561061657610615611074565b5b0217905550905050346000808581526020019081526020016000206000015461063f91906110d2565b6000808581526020019081526020016000206000018190555061066183610c68565b505050565b803360008083815260200190815260200160002060020160000160009054906101000a900473ffffffffffffffffffffffffffffffffffffffff1673ffffffffffffffffffffffffffffffffffffffff168173ffffffffffffffffffffffffffffffffffffffff16148061073d575060008083815260200190815260200160002060050160000160009054906101000a900473ffffffffffffffffffffffffffffffffffffffff1673ffffffffffffffffffffffffffffffffffffffff168173ffffffffffffffffffffffffffffffffffffffff16145b61074657600080fd5b6002600381111561075a57610759611074565b5b60008085815260200190815260200160002060020160020160019054906101000a900460ff16600381111561079257610791611074565b5b1480156107e85750600260038111156107ae576107ad611074565b5b60008085815260200190815260200160002060050160020160019054906101000a900460ff1660038111156107e6576107e5611074565b5b145b156109205760008084815260200190815260200160002060020160000160009054906101000a900473ffffffffffffffffffffffffffffffffffffffff1673ffffffffffffffffffffffffffffffffffffffff166108fc600080868152602001908152602001600020600201600101549081150290604051600060405180830381858888f19350505050158015610883573d6000803e3d6000fd5b5060008084815260200190815260200160002060050160000160009054906101000a900473ffffffffffffffffffffffffffffffffffffffff1673ffffffffffffffffffffffffffffffffffffffff166108fc600080868152602001908152602001600020600501600101549081150290604051600060405180830381858888f1935050505015801561091a573d6000803e3d6000fd5b50610c25565b6000600381111561093457610933611074565b5b60008085815260200190815260200160002060020160020160019054906101000a900460ff16600381111561096c5761096b611074565b5b03610a0a5760008084815260200190815260200160002060020160000160009054906101000a900473ffffffffffffffffffffffffffffffffffffffff1673ffffffffffffffffffffffffffffffffffffffff166108fc600080868152602001908152602001600020600001549081150290604051600060405180830381858888f19350505050158015610a04573d6000803e3d6000fd5b50610c24565b60006003811115610a1e57610a1d611074565b5b60008085815260200190815260200160002060050160020160019054906101000a900460ff166003811115610a5657610a55611074565b5b03610af45760008084815260200190815260200160002060050160000160009054906101000a900473ffffffffffffffffffffffffffffffffffffffff1673ffffffffffffffffffffffffffffffffffffffff166108fc600080868152602001908152602001600020600001549081150290604051600060405180830381858888f19350505050158015610aee573d6000803e3d6000fd5b50610c23565b60008084815260200190815260200160002060020160000160009054906101000a900473ffffffffffffffffffffffffffffffffffffffff1673ffffffffffffffffffffffffffffffffffffffff166108fc600080868152602001908152602001600020600201600101549081150290604051600060405180830381858888f19350505050158015610b8a573d6000803e3d6000fd5b5060008084815260200190815260200160002060050160000160009054906101000a900473ffffffffffffffffffffffffffffffffffffffff1673ffffffffffffffffffffffffffffffffffffffff166108fc600080868152602001908152602001600020600501600101549081150290604051600060405180830381858888f19350505050158015610c21573d6000803e3d6000fd5b505b5b5b600260008085815260200190815260200160002060010160006101000a81548160ff02191690836003811115610c5e57610c5d611074565b5b0217905550505050565b600080600083815260200190815260200160002060020160020160009054906101000a900460ff166002811115610ca257610ca1611074565b5b9050600080600084815260200190815260200160002060050160020160009054906101000a900460ff166002811115610cde57610cdd611074565b5b9050600160008085815260200190815260200160002060010160006101000a81548160ff02191690836003811115610d1957610d18611074565b5b02179055508160ff168160ff1603610db257600260008085815260200190815260200160002060020160020160016101000a81548160ff02191690836003811115610d6757610d66611074565b5b0217905550600260008085815260200190815260200160002060050160020160016101000a81548160ff02191690836003811115610da857610da7611074565b5b0217905550610f4b565b8160ff166003600183610dc59190611113565b610dcf9190611177565b60ff1603610e5e57600080600085815260200190815260200160002060020160020160016101000a81548160ff02191690836003811115610e1357610e12611074565b5b0217905550600160008085815260200190815260200160002060050160020160016101000a81548160ff02191690836003811115610e5457610e53611074565b5b0217905550610f4a565b8060ff166003600184610e719190611113565b610e7b9190611177565b60ff1603610f0a57600160008085815260200190815260200160002060020160020160016101000a81548160ff02191690836003811115610ebf57610ebe611074565b5b0217905550600080600085815260200190815260200160002060050160020160016101000a81548160ff02191690836003811115610f0057610eff611074565b5b0217905550610f49565b600360008085815260200190815260200160002060010160006101000a81548160ff02191690836003811115610f4357610f42611074565b5b02179055505b5b5b505050565b600080fd5b60038110610f6257600080fd5b50565b600081359050610f7481610f55565b92915050565b600060208284031215610f9057610f8f610f50565b5b6000610f9e84828501610f65565b91505092915050565b6000819050919050565b610fba81610fa7565b82525050565b6000602082019050610fd56000830184610fb1565b92915050565b610fe481610fa7565b8114610fef57600080fd5b50565b60008135905061100181610fdb565b92915050565b60006020828403121561101d5761101c610f50565b5b600061102b84828501610ff2565b91505092915050565b6000806040838503121561104b5761104a610f50565b5b600061105985828601610ff2565b925050602061106a85828601610f65565b9150509250929050565b7f4e487b7100000000000000000000000000000000000000000000000000000000600052602160045260246000fd5b7f4e487b7100000000000000000000000000000000000000000000000000000000600052601160045260246000fd5b60006110dd82610fa7565b91506110e883610fa7565b9250828201905080821115611100576110ff6110a3565b5b92915050565b600060ff82169050919050565b600061111e82611106565b915061112983611106565b9250828201905060ff811115611142576111416110a3565b5b92915050565b7f4e487b7100000000000000000000000000000000000000000000000000000000600052601260045260246000fd5b600061118282611106565b915061118d83611106565b92508261119d5761119c611148565b5b82820690509291505056fea2646970667358221220fd0e5912573675720199e0e2df227199e775150565a11a1f0b65c1a2241f207364736f6c63430008110033",
					"opcodes": "PUSH1 0x80 PUSH1 0x40 MSTORE PUSH1 0x0 PUSH1 0x1 SSTORE PUSH2 0x11DE DUP1 PUSH2 0x18 PUSH1 0x0 CODECOPY PUSH1 0x0 RETURN INVALID PUSH1 0x80 PUSH1 0x40 MSTORE PUSH1 0x4 CALLDATASIZE LT PUSH2 0x3F JUMPI PUSH1 0x0 CALLDATALOAD PUSH1 0xE0 SHR DUP1 PUSH4 0xF36F3B5 EQ PUSH2 0x44 JUMPI DUP1 PUSH4 0x393AF760 EQ PUSH2 0x74 JUMPI DUP1 PUSH4 0x79B15776 EQ PUSH2 0xB1 JUMPI DUP1 PUSH4 0xE1152343 EQ PUSH2 0xCD JUMPI JUMPDEST PUSH1 0x0 DUP1 REVERT JUMPDEST PUSH2 0x5E PUSH1 0x4 DUP1 CALLDATASIZE SUB DUP2 ADD SWAP1 PUSH2 0x59 SWAP2 SWAP1 PUSH2 0xF7A JUMP JUMPDEST PUSH2 0xE9 JUMP JUMPDEST PUSH1 0x40 MLOAD PUSH2 0x6B SWAP2 SWAP1 PUSH2 0xFC0 JUMP JUMPDEST PUSH1 0x40 MLOAD DUP1 SWAP2 SUB SWAP1 RETURN JUMPDEST CALLVALUE DUP1 ISZERO PUSH2 0x80 JUMPI PUSH1 0x0 DUP1 REVERT JUMPDEST POP PUSH2 0x9B PUSH1 0x4 DUP1 CALLDATASIZE SUB DUP2 ADD SWAP1 PUSH2 0x96 SWAP2 SWAP1 PUSH2 0x1007 JUMP JUMPDEST PUSH2 0x44C JUMP JUMPDEST PUSH1 0x40 MLOAD PUSH2 0xA8 SWAP2 SWAP1 PUSH2 0xFC0 JUMP JUMPDEST PUSH1 0x40 MLOAD DUP1 SWAP2 SUB SWAP1 RETURN JUMPDEST PUSH2 0xCB PUSH1 0x4 DUP1 CALLDATASIZE SUB DUP2 ADD SWAP1 PUSH2 0xC6 SWAP2 SWAP1 PUSH2 0x1034 JUMP JUMPDEST PUSH2 0x46B JUMP JUMPDEST STOP JUMPDEST PUSH2 0xE7 PUSH1 0x4 DUP1 CALLDATASIZE SUB DUP2 ADD SWAP1 PUSH2 0xE2 SWAP2 SWAP1 PUSH2 0x1007 JUMP JUMPDEST PUSH2 0x666 JUMP JUMPDEST STOP JUMPDEST PUSH1 0x0 DUP2 PUSH1 0x0 PUSH1 0x2 DUP2 GT ISZERO PUSH2 0x100 JUMPI PUSH2 0xFF PUSH2 0x1074 JUMP JUMPDEST JUMPDEST DUP2 PUSH1 0x2 DUP2 GT ISZERO PUSH2 0x113 JUMPI PUSH2 0x112 PUSH2 0x1074 JUMP JUMPDEST JUMPDEST EQ DUP1 PUSH2 0x143 JUMPI POP PUSH1 0x1 PUSH1 0x2 DUP2 GT ISZERO PUSH2 0x12E JUMPI PUSH2 0x12D PUSH2 0x1074 JUMP JUMPDEST JUMPDEST DUP2 PUSH1 0x2 DUP2 GT ISZERO PUSH2 0x141 JUMPI PUSH2 0x140 PUSH2 0x1074 JUMP JUMPDEST JUMPDEST EQ JUMPDEST DUP1 PUSH2 0x171 JUMPI POP PUSH1 0x2 DUP1 DUP2 GT ISZERO PUSH2 0x15C JUMPI PUSH2 0x15B PUSH2 0x1074 JUMP JUMPDEST JUMPDEST DUP2 PUSH1 0x2 DUP2 GT ISZERO PUSH2 0x16F JUMPI PUSH2 0x16E PUSH2 0x1074 JUMP JUMPDEST JUMPDEST EQ JUMPDEST PUSH2 0x17A JUMPI PUSH1 0x0 DUP1 REVERT JUMPDEST PUSH1 0x40 MLOAD DUP1 PUSH1 0x80 ADD PUSH1 0x40 MSTORE DUP1 CALLVALUE DUP2 MSTORE PUSH1 0x20 ADD PUSH1 0x0 PUSH1 0x3 DUP2 GT ISZERO PUSH2 0x19F JUMPI PUSH2 0x19E PUSH2 0x1074 JUMP JUMPDEST JUMPDEST DUP2 MSTORE PUSH1 0x20 ADD PUSH1 0x40 MLOAD DUP1 PUSH1 0x80 ADD PUSH1 0x40 MSTORE DUP1 CALLER PUSH20 0xFFFFFFFFFFFFFFFFFFFFFFFFFFFFFFFFFFFFFFFF AND DUP2 MSTORE PUSH1 0x20 ADD CALLVALUE DUP2 MSTORE PUSH1 0x20 ADD DUP7 PUSH1 0x2 DUP2 GT ISZERO PUSH2 0x1E4 JUMPI PUSH2 0x1E3 PUSH2 0x1074 JUMP JUMPDEST JUMPDEST DUP2 MSTORE PUSH1 0x20 ADD PUSH1 0x3 DUP1 DUP2 GT ISZERO PUSH2 0x1FC JUMPI PUSH2 0x1FB PUSH2 0x1074 JUMP JUMPDEST JUMPDEST DUP2 MSTORE POP DUP2 MSTORE PUSH1 0x20 ADD PUSH1 0x40 MLOAD DUP1 PUSH1 0x80 ADD PUSH1 0x40 MSTORE DUP1 CALLER PUSH20 0xFFFFFFFFFFFFFFFFFFFFFFFFFFFFFFFFFFFFFFFF AND DUP2 MSTORE PUSH1 0x20 ADD PUSH1 0x0 DUP2 MSTORE PUSH1 0x20 ADD PUSH1 0x0 PUSH1 0x2 DUP2 GT ISZERO PUSH2 0x246 JUMPI PUSH2 0x245 PUSH2 0x1074 JUMP JUMPDEST JUMPDEST DUP2 MSTORE PUSH1 0x20 ADD PUSH1 0x3 DUP1 DUP2 GT ISZERO PUSH2 0x25E JUMPI PUSH2 0x25D PUSH2 0x1074 JUMP JUMPDEST JUMPDEST DUP2 MSTORE POP DUP2 MSTORE POP PUSH1 0x0 DUP1 PUSH1 0x1 SLOAD DUP2 MSTORE PUSH1 0x20 ADD SWAP1 DUP2 MSTORE PUSH1 0x20 ADD PUSH1 0x0 KECCAK256 PUSH1 0x0 DUP3 ADD MLOAD DUP2 PUSH1 0x0 ADD SSTORE PUSH1 0x20 DUP3 ADD MLOAD DUP2 PUSH1 0x1 ADD PUSH1 0x0 PUSH2 0x100 EXP DUP2 SLOAD DUP2 PUSH1 0xFF MUL NOT AND SWAP1 DUP4 PUSH1 0x3 DUP2 GT ISZERO PUSH2 0x2AD JUMPI PUSH2 0x2AC PUSH2 0x1074 JUMP JUMPDEST JUMPDEST MUL OR SWAP1 SSTORE POP PUSH1 0x40 DUP3 ADD MLOAD DUP2 PUSH1 0x2 ADD PUSH1 0x0 DUP3 ADD MLOAD DUP2 PUSH1 0x0 ADD PUSH1 0x0 PUSH2 0x100 EXP DUP2 SLOAD DUP2 PUSH20 0xFFFFFFFFFFFFFFFFFFFFFFFFFFFFFFFFFFFFFFFF MUL NOT AND SWAP1 DUP4 PUSH20 0xFFFFFFFFFFFFFFFFFFFFFFFFFFFFFFFFFFFFFFFF AND MUL OR SWAP1 SSTORE POP PUSH1 0x20 DUP3 ADD MLOAD DUP2 PUSH1 0x1 ADD SSTORE PUSH1 0x40 DUP3 ADD MLOAD DUP2 PUSH1 0x2 ADD PUSH1 0x0 PUSH2 0x100 EXP DUP2 SLOAD DUP2 PUSH1 0xFF MUL NOT AND SWAP1 DUP4 PUSH1 0x2 DUP2 GT ISZERO PUSH2 0x337 JUMPI PUSH2 0x336 PUSH2 0x1074 JUMP JUMPDEST JUMPDEST MUL OR SWAP1 SSTORE POP PUSH1 0x60 DUP3 ADD MLOAD DUP2 PUSH1 0x2 ADD PUSH1 0x1 PUSH2 0x100 EXP DUP2 SLOAD DUP2 PUSH1 0xFF MUL NOT AND SWAP1 DUP4 PUSH1 0x3 DUP2 GT ISZERO PUSH2 0x367 JUMPI PUSH2 0x366 PUSH2 0x1074 JUMP JUMPDEST JUMPDEST MUL OR SWAP1 SSTORE POP POP POP PUSH1 0x60 DUP3 ADD MLOAD DUP2 PUSH1 0x5 ADD PUSH1 0x0 DUP3 ADD MLOAD DUP2 PUSH1 0x0 ADD PUSH1 0x0 PUSH2 0x100 EXP DUP2 SLOAD DUP2 PUSH20 0xFFFFFFFFFFFFFFFFFFFFFFFFFFFFFFFFFFFFFFFF MUL NOT AND SWAP1 DUP4 PUSH20 0xFFFFFFFFFFFFFFFFFFFFFFFFFFFFFFFFFFFFFFFF AND MUL OR SWAP1 SSTORE POP PUSH1 0x20 DUP3 ADD MLOAD DUP2 PUSH1 0x1 ADD SSTORE PUSH1 0x40 DUP3 ADD MLOAD DUP2 PUSH1 0x2 ADD PUSH1 0x0 PUSH2 0x100 EXP DUP2 SLOAD DUP2 PUSH1 0xFF MUL NOT AND SWAP1 DUP4 PUSH1 0x2 DUP2 GT ISZERO PUSH2 0x3F3 JUMPI PUSH2 0x3F2 PUSH2 0x1074 JUMP JUMPDEST JUMPDEST MUL OR SWAP1 SSTORE POP PUSH1 0x60 DUP3 ADD MLOAD DUP2 PUSH1 0x2 ADD PUSH1 0x1 PUSH2 0x100 EXP DUP2 SLOAD DUP2 PUSH1 0xFF MUL NOT AND SWAP1 DUP4 PUSH1 0x3 DUP2 GT ISZERO PUSH2 0x423 JUMPI PUSH2 0x422 PUSH2 0x1074 JUMP JUMPDEST JUMPDEST MUL OR SWAP1 SSTORE POP POP POP SWAP1 POP POP PUSH1 0x1 SLOAD SWAP2 POP PUSH1 0x1 DUP1 SLOAD PUSH2 0x440 SWAP2 SWAP1 PUSH2 0x10D2 JUMP JUMPDEST PUSH1 0x1 DUP2 SWAP1 SSTORE POP POP SWAP2 SWAP1 POP JUMP JUMPDEST PUSH1 0x0 DUP1 PUSH1 0x0 DUP4 DUP2 MSTORE PUSH1 0x20 ADD SWAP1 DUP2 MSTORE PUSH1 0x20 ADD PUSH1 0x0 KECCAK256 PUSH1 0x0 ADD SLOAD SWAP1 POP SWAP2 SWAP1 POP JUMP JUMPDEST DUP1 PUSH1 0x0 PUSH1 0x2 DUP2 GT ISZERO PUSH2 0x480 JUMPI PUSH2 0x47F PUSH2 0x1074 JUMP JUMPDEST JUMPDEST DUP2 PUSH1 0x2 DUP2 GT ISZERO PUSH2 0x493 JUMPI PUSH2 0x492 PUSH2 0x1074 JUMP JUMPDEST JUMPDEST EQ DUP1 PUSH2 0x4C3 JUMPI POP PUSH1 0x1 PUSH1 0x2 DUP2 GT ISZERO PUSH2 0x4AE JUMPI PUSH2 0x4AD PUSH2 0x1074 JUMP JUMPDEST JUMPDEST DUP2 PUSH1 0x2 DUP2 GT ISZERO PUSH2 0x4C1 JUMPI PUSH2 0x4C0 PUSH2 0x1074 JUMP JUMPDEST JUMPDEST EQ JUMPDEST DUP1 PUSH2 0x4F1 JUMPI POP PUSH1 0x2 DUP1 DUP2 GT ISZERO PUSH2 0x4DC JUMPI PUSH2 0x4DB PUSH2 0x1074 JUMP JUMPDEST JUMPDEST DUP2 PUSH1 0x2 DUP2 GT ISZERO PUSH2 0x4EF JUMPI PUSH2 0x4EE PUSH2 0x1074 JUMP JUMPDEST JUMPDEST EQ JUMPDEST PUSH2 0x4FA JUMPI PUSH1 0x0 DUP1 REVERT JUMPDEST PUSH1 0x40 MLOAD DUP1 PUSH1 0x80 ADD PUSH1 0x40 MSTORE DUP1 CALLER PUSH20 0xFFFFFFFFFFFFFFFFFFFFFFFFFFFFFFFFFFFFFFFF AND DUP2 MSTORE PUSH1 0x20 ADD CALLVALUE DUP2 MSTORE PUSH1 0x20 ADD DUP4 PUSH1 0x2 DUP2 GT ISZERO PUSH2 0x53A JUMPI PUSH2 0x539 PUSH2 0x1074 JUMP JUMPDEST JUMPDEST DUP2 MSTORE PUSH1 0x20 ADD PUSH1 0x3 DUP1 DUP2 GT ISZERO PUSH2 0x552 JUMPI PUSH2 0x551 PUSH2 0x1074 JUMP JUMPDEST JUMPDEST DUP2 MSTORE POP PUSH1 0x0 DUP1 DUP6 DUP2 MSTORE PUSH1 0x20 ADD SWAP1 DUP2 MSTORE PUSH1 0x20 ADD PUSH1 0x0 KECCAK256 PUSH1 0x5 ADD PUSH1 0x0 DUP3 ADD MLOAD DUP2 PUSH1 0x0 ADD PUSH1 0x0 PUSH2 0x100 EXP DUP2 SLOAD DUP2 PUSH20 0xFFFFFFFFFFFFFFFFFFFFFFFFFFFFFFFFFFFFFFFF MUL NOT AND SWAP1 DUP4 PUSH20 0xFFFFFFFFFFFFFFFFFFFFFFFFFFFFFFFFFFFFFFFF AND MUL OR SWAP1 SSTORE POP PUSH1 0x20 DUP3 ADD MLOAD DUP2 PUSH1 0x1 ADD SSTORE PUSH1 0x40 DUP3 ADD MLOAD DUP2 PUSH1 0x2 ADD PUSH1 0x0 PUSH2 0x100 EXP DUP2 SLOAD DUP2 PUSH1 0xFF MUL NOT AND SWAP1 DUP4 PUSH1 0x2 DUP2 GT ISZERO PUSH2 0x5E6 JUMPI PUSH2 0x5E5 PUSH2 0x1074 JUMP JUMPDEST JUMPDEST MUL OR SWAP1 SSTORE POP PUSH1 0x60 DUP3 ADD MLOAD DUP2 PUSH1 0x2 ADD PUSH1 0x1 PUSH2 0x100 EXP DUP2 SLOAD DUP2 PUSH1 0xFF MUL NOT AND SWAP1 DUP4 PUSH1 0x3 DUP2 GT ISZERO PUSH2 0x616 JUMPI PUSH2 0x615 PUSH2 0x1074 JUMP JUMPDEST JUMPDEST MUL OR SWAP1 SSTORE POP SWAP1 POP POP CALLVALUE PUSH1 0x0 DUP1 DUP6 DUP2 MSTORE PUSH1 0x20 ADD SWAP1 DUP2 MSTORE PUSH1 0x20 ADD PUSH1 0x0 KECCAK256 PUSH1 0x0 ADD SLOAD PUSH2 0x63F SWAP2 SWAP1 PUSH2 0x10D2 JUMP JUMPDEST PUSH1 0x0 DUP1 DUP6 DUP2 MSTORE PUSH1 0x20 ADD SWAP1 DUP2 MSTORE PUSH1 0x20 ADD PUSH1 0x0 KECCAK256 PUSH1 0x0 ADD DUP2 SWAP1 SSTORE POP PUSH2 0x661 DUP4 PUSH2 0xC68 JUMP JUMPDEST POP POP POP JUMP JUMPDEST DUP1 CALLER PUSH1 0x0 DUP1 DUP4 DUP2 MSTORE PUSH1 0x20 ADD SWAP1 DUP2 MSTORE PUSH1 0x20 ADD PUSH1 0x0 KECCAK256 PUSH1 0x2 ADD PUSH1 0x0 ADD PUSH1 0x0 SWAP1 SLOAD SWAP1 PUSH2 0x100 EXP SWAP1 DIV PUSH20 0xFFFFFFFFFFFFFFFFFFFFFFFFFFFFFFFFFFFFFFFF AND PUSH20 0xFFFFFFFFFFFFFFFFFFFFFFFFFFFFFFFFFFFFFFFF AND DUP2 PUSH20 0xFFFFFFFFFFFFFFFFFFFFFFFFFFFFFFFFFFFFFFFF AND EQ DUP1 PUSH2 0x73D JUMPI POP PUSH1 0x0 DUP1 DUP4 DUP2 MSTORE PUSH1 0x20 ADD SWAP1 DUP2 MSTORE PUSH1 0x20 ADD PUSH1 0x0 KECCAK256 PUSH1 0x5 ADD PUSH1 0x0 ADD PUSH1 0x0 SWAP1 SLOAD SWAP1 PUSH2 0x100 EXP SWAP1 DIV PUSH20 0xFFFFFFFFFFFFFFFFFFFFFFFFFFFFFFFFFFFFFFFF AND PUSH20 0xFFFFFFFFFFFFFFFFFFFFFFFFFFFFFFFFFFFFFFFF AND DUP2 PUSH20 0xFFFFFFFFFFFFFFFFFFFFFFFFFFFFFFFFFFFFFFFF AND EQ JUMPDEST PUSH2 0x746 JUMPI PUSH1 0x0 DUP1 REVERT JUMPDEST PUSH1 0x2 PUSH1 0x3 DUP2 GT ISZERO PUSH2 0x75A JUMPI PUSH2 0x759 PUSH2 0x1074 JUMP JUMPDEST JUMPDEST PUSH1 0x0 DUP1 DUP6 DUP2 MSTORE PUSH1 0x20 ADD SWAP1 DUP2 MSTORE PUSH1 0x20 ADD PUSH1 0x0 KECCAK256 PUSH1 0x2 ADD PUSH1 0x2 ADD PUSH1 0x1 SWAP1 SLOAD SWAP1 PUSH2 0x100 EXP SWAP1 DIV PUSH1 0xFF AND PUSH1 0x3 DUP2 GT ISZERO PUSH2 0x792 JUMPI PUSH2 0x791 PUSH2 0x1074 JUMP JUMPDEST JUMPDEST EQ DUP1 ISZERO PUSH2 0x7E8 JUMPI POP PUSH1 0x2 PUSH1 0x3 DUP2 GT ISZERO PUSH2 0x7AE JUMPI PUSH2 0x7AD PUSH2 0x1074 JUMP JUMPDEST JUMPDEST PUSH1 0x0 DUP1 DUP6 DUP2 MSTORE PUSH1 0x20 ADD SWAP1 DUP2 MSTORE PUSH1 0x20 ADD PUSH1 0x0 KECCAK256 PUSH1 0x5 ADD PUSH1 0x2 ADD PUSH1 0x1 SWAP1 SLOAD SWAP1 PUSH2 0x100 EXP SWAP1 DIV PUSH1 0xFF AND PUSH1 0x3 DUP2 GT ISZERO PUSH2 0x7E6 JUMPI PUSH2 0x7E5 PUSH2 0x1074 JUMP JUMPDEST JUMPDEST EQ JUMPDEST ISZERO PUSH2 0x920 JUMPI PUSH1 0x0 DUP1 DUP5 DUP2 MSTORE PUSH1 0x20 ADD SWAP1 DUP2 MSTORE PUSH1 0x20 ADD PUSH1 0x0 KECCAK256 PUSH1 0x2 ADD PUSH1 0x0 ADD PUSH1 0x0 SWAP1 SLOAD SWAP1 PUSH2 0x100 EXP SWAP1 DIV PUSH20 0xFFFFFFFFFFFFFFFFFFFFFFFFFFFFFFFFFFFFFFFF AND PUSH20 0xFFFFFFFFFFFFFFFFFFFFFFFFFFFFFFFFFFFFFFFF AND PUSH2 0x8FC PUSH1 0x0 DUP1 DUP7 DUP2 MSTORE PUSH1 0x20 ADD SWAP1 DUP2 MSTORE PUSH1 0x20 ADD PUSH1 0x0 KECCAK256 PUSH1 0x2 ADD PUSH1 0x1 ADD SLOAD SWAP1 DUP2 ISZERO MUL SWAP1 PUSH1 0x40 MLOAD PUSH1 0x0 PUSH1 0x40 MLOAD DUP1 DUP4 SUB DUP2 DUP6 DUP9 DUP9 CALL SWAP4 POP POP POP POP ISZERO DUP1 ISZERO PUSH2 0x883 JUMPI RETURNDATASIZE PUSH1 0x0 DUP1 RETURNDATACOPY RETURNDATASIZE PUSH1 0x0 REVERT JUMPDEST POP PUSH1 0x0 DUP1 DUP5 DUP2 MSTORE PUSH1 0x20 ADD SWAP1 DUP2 MSTORE PUSH1 0x20 ADD PUSH1 0x0 KECCAK256 PUSH1 0x5 ADD PUSH1 0x0 ADD PUSH1 0x0 SWAP1 SLOAD SWAP1 PUSH2 0x100 EXP SWAP1 DIV PUSH20 0xFFFFFFFFFFFFFFFFFFFFFFFFFFFFFFFFFFFFFFFF AND PUSH20 0xFFFFFFFFFFFFFFFFFFFFFFFFFFFFFFFFFFFFFFFF AND PUSH2 0x8FC PUSH1 0x0 DUP1 DUP7 DUP2 MSTORE PUSH1 0x20 ADD SWAP1 DUP2 MSTORE PUSH1 0x20 ADD PUSH1 0x0 KECCAK256 PUSH1 0x5 ADD PUSH1 0x1 ADD SLOAD SWAP1 DUP2 ISZERO MUL SWAP1 PUSH1 0x40 MLOAD PUSH1 0x0 PUSH1 0x40 MLOAD DUP1 DUP4 SUB DUP2 DUP6 DUP9 DUP9 CALL SWAP4 POP POP POP POP ISZERO DUP1 ISZERO PUSH2 0x91A JUMPI RETURNDATASIZE PUSH1 0x0 DUP1 RETURNDATACOPY RETURNDATASIZE PUSH1 0x0 REVERT JUMPDEST POP PUSH2 0xC25 JUMP JUMPDEST PUSH1 0x0 PUSH1 0x3 DUP2 GT ISZERO PUSH2 0x934 JUMPI PUSH2 0x933 PUSH2 0x1074 JUMP JUMPDEST JUMPDEST PUSH1 0x0 DUP1 DUP6 DUP2 MSTORE PUSH1 0x20 ADD SWAP1 DUP2 MSTORE PUSH1 0x20 ADD PUSH1 0x0 KECCAK256 PUSH1 0x2 ADD PUSH1 0x2 ADD PUSH1 0x1 SWAP1 SLOAD SWAP1 PUSH2 0x100 EXP SWAP1 DIV PUSH1 0xFF AND PUSH1 0x3 DUP2 GT ISZERO PUSH2 0x96C JUMPI PUSH2 0x96B PUSH2 0x1074 JUMP JUMPDEST JUMPDEST SUB PUSH2 0xA0A JUMPI PUSH1 0x0 DUP1 DUP5 DUP2 MSTORE PUSH1 0x20 ADD SWAP1 DUP2 MSTORE PUSH1 0x20 ADD PUSH1 0x0 KECCAK256 PUSH1 0x2 ADD PUSH1 0x0 ADD PUSH1 0x0 SWAP1 SLOAD SWAP1 PUSH2 0x100 EXP SWAP1 DIV PUSH20 0xFFFFFFFFFFFFFFFFFFFFFFFFFFFFFFFFFFFFFFFF AND PUSH20 0xFFFFFFFFFFFFFFFFFFFFFFFFFFFFFFFFFFFFFFFF AND PUSH2 0x8FC PUSH1 0x0 DUP1 DUP7 DUP2 MSTORE PUSH1 0x20 ADD SWAP1 DUP2 MSTORE PUSH1 0x20 ADD PUSH1 0x0 KECCAK256 PUSH1 0x0 ADD SLOAD SWAP1 DUP2 ISZERO MUL SWAP1 PUSH1 0x40 MLOAD PUSH1 0x0 PUSH1 0x40 MLOAD DUP1 DUP4 SUB DUP2 DUP6 DUP9 DUP9 CALL SWAP4 POP POP POP POP ISZERO DUP1 ISZERO PUSH2 0xA04 JUMPI RETURNDATASIZE PUSH1 0x0 DUP1 RETURNDATACOPY RETURNDATASIZE PUSH1 0x0 REVERT JUMPDEST POP PUSH2 0xC24 JUMP JUMPDEST PUSH1 0x0 PUSH1 0x3 DUP2 GT ISZERO PUSH2 0xA1E JUMPI PUSH2 0xA1D PUSH2 0x1074 JUMP JUMPDEST JUMPDEST PUSH1 0x0 DUP1 DUP6 DUP2 MSTORE PUSH1 0x20 ADD SWAP1 DUP2 MSTORE PUSH1 0x20 ADD PUSH1 0x0 KECCAK256 PUSH1 0x5 ADD PUSH1 0x2 ADD PUSH1 0x1 SWAP1 SLOAD SWAP1 PUSH2 0x100 EXP SWAP1 DIV PUSH1 0xFF AND PUSH1 0x3 DUP2 GT ISZERO PUSH2 0xA56 JUMPI PUSH2 0xA55 PUSH2 0x1074 JUMP JUMPDEST JUMPDEST SUB PUSH2 0xAF4 JUMPI PUSH1 0x0 DUP1 DUP5 DUP2 MSTORE PUSH1 0x20 ADD SWAP1 DUP2 MSTORE PUSH1 0x20 ADD PUSH1 0x0 KECCAK256 PUSH1 0x5 ADD PUSH1 0x0 ADD PUSH1 0x0 SWAP1 SLOAD SWAP1 PUSH2 0x100 EXP SWAP1 DIV PUSH20 0xFFFFFFFFFFFFFFFFFFFFFFFFFFFFFFFFFFFFFFFF AND PUSH20 0xFFFFFFFFFFFFFFFFFFFFFFFFFFFFFFFFFFFFFFFF AND PUSH2 0x8FC PUSH1 0x0 DUP1 DUP7 DUP2 MSTORE PUSH1 0x20 ADD SWAP1 DUP2 MSTORE PUSH1 0x20 ADD PUSH1 0x0 KECCAK256 PUSH1 0x0 ADD SLOAD SWAP1 DUP2 ISZERO MUL SWAP1 PUSH1 0x40 MLOAD PUSH1 0x0 PUSH1 0x40 MLOAD DUP1 DUP4 SUB DUP2 DUP6 DUP9 DUP9 CALL SWAP4 POP POP POP POP ISZERO DUP1 ISZERO PUSH2 0xAEE JUMPI RETURNDATASIZE PUSH1 0x0 DUP1 RETURNDATACOPY RETURNDATASIZE PUSH1 0x0 REVERT JUMPDEST POP PUSH2 0xC23 JUMP JUMPDEST PUSH1 0x0 DUP1 DUP5 DUP2 MSTORE PUSH1 0x20 ADD SWAP1 DUP2 MSTORE PUSH1 0x20 ADD PUSH1 0x0 KECCAK256 PUSH1 0x2 ADD PUSH1 0x0 ADD PUSH1 0x0 SWAP1 SLOAD SWAP1 PUSH2 0x100 EXP SWAP1 DIV PUSH20 0xFFFFFFFFFFFFFFFFFFFFFFFFFFFFFFFFFFFFFFFF AND PUSH20 0xFFFFFFFFFFFFFFFFFFFFFFFFFFFFFFFFFFFFFFFF AND PUSH2 0x8FC PUSH1 0x0 DUP1 DUP7 DUP2 MSTORE PUSH1 0x20 ADD SWAP1 DUP2 MSTORE PUSH1 0x20 ADD PUSH1 0x0 KECCAK256 PUSH1 0x2 ADD PUSH1 0x1 ADD SLOAD SWAP1 DUP2 ISZERO MUL SWAP1 PUSH1 0x40 MLOAD PUSH1 0x0 PUSH1 0x40 MLOAD DUP1 DUP4 SUB DUP2 DUP6 DUP9 DUP9 CALL SWAP4 POP POP POP POP ISZERO DUP1 ISZERO PUSH2 0xB8A JUMPI RETURNDATASIZE PUSH1 0x0 DUP1 RETURNDATACOPY RETURNDATASIZE PUSH1 0x0 REVERT JUMPDEST POP PUSH1 0x0 DUP1 DUP5 DUP2 MSTORE PUSH1 0x20 ADD SWAP1 DUP2 MSTORE PUSH1 0x20 ADD PUSH1 0x0 KECCAK256 PUSH1 0x5 ADD PUSH1 0x0 ADD PUSH1 0x0 SWAP1 SLOAD SWAP1 PUSH2 0x100 EXP SWAP1 DIV PUSH20 0xFFFFFFFFFFFFFFFFFFFFFFFFFFFFFFFFFFFFFFFF AND PUSH20 0xFFFFFFFFFFFFFFFFFFFFFFFFFFFFFFFFFFFFFFFF AND PUSH2 0x8FC PUSH1 0x0 DUP1 DUP7 DUP2 MSTORE PUSH1 0x20 ADD SWAP1 DUP2 MSTORE PUSH1 0x20 ADD PUSH1 0x0 KECCAK256 PUSH1 0x5 ADD PUSH1 0x1 ADD SLOAD SWAP1 DUP2 ISZERO MUL SWAP1 PUSH1 0x40 MLOAD PUSH1 0x0 PUSH1 0x40 MLOAD DUP1 DUP4 SUB DUP2 DUP6 DUP9 DUP9 CALL SWAP4 POP POP POP POP ISZERO DUP1 ISZERO PUSH2 0xC21 JUMPI RETURNDATASIZE PUSH1 0x0 DUP1 RETURNDATACOPY RETURNDATASIZE PUSH1 0x0 REVERT JUMPDEST POP JUMPDEST JUMPDEST JUMPDEST PUSH1 0x2 PUSH1 0x0 DUP1 DUP6 DUP2 MSTORE PUSH1 0x20 ADD SWAP1 DUP2 MSTORE PUSH1 0x20 ADD PUSH1 0x0 KECCAK256 PUSH1 0x1 ADD PUSH1 0x0 PUSH2 0x100 EXP DUP2 SLOAD DUP2 PUSH1 0xFF MUL NOT AND SWAP1 DUP4 PUSH1 0x3 DUP2 GT ISZERO PUSH2 0xC5E JUMPI PUSH2 0xC5D PUSH2 0x1074 JUMP JUMPDEST JUMPDEST MUL OR SWAP1 SSTORE POP POP POP POP JUMP JUMPDEST PUSH1 0x0 DUP1 PUSH1 0x0 DUP4 DUP2 MSTORE PUSH1 0x20 ADD SWAP1 DUP2 MSTORE PUSH1 0x20 ADD PUSH1 0x0 KECCAK256 PUSH1 0x2 ADD PUSH1 0x2 ADD PUSH1 0x0 SWAP1 SLOAD SWAP1 PUSH2 0x100 EXP SWAP1 DIV PUSH1 0xFF AND PUSH1 0x2 DUP2 GT ISZERO PUSH2 0xCA2 JUMPI PUSH2 0xCA1 PUSH2 0x1074 JUMP JUMPDEST JUMPDEST SWAP1 POP PUSH1 0x0 DUP1 PUSH1 0x0 DUP5 DUP2 MSTORE PUSH1 0x20 ADD SWAP1 DUP2 MSTORE PUSH1 0x20 ADD PUSH1 0x0 KECCAK256 PUSH1 0x5 ADD PUSH1 0x2 ADD PUSH1 0x0 SWAP1 SLOAD SWAP1 PUSH2 0x100 EXP SWAP1 DIV PUSH1 0xFF AND PUSH1 0x2 DUP2 GT ISZERO PUSH2 0xCDE JUMPI PUSH2 0xCDD PUSH2 0x1074 JUMP JUMPDEST JUMPDEST SWAP1 POP PUSH1 0x1 PUSH1 0x0 DUP1 DUP6 DUP2 MSTORE PUSH1 0x20 ADD SWAP1 DUP2 MSTORE PUSH1 0x20 ADD PUSH1 0x0 KECCAK256 PUSH1 0x1 ADD PUSH1 0x0 PUSH2 0x100 EXP DUP2 SLOAD DUP2 PUSH1 0xFF MUL NOT AND SWAP1 DUP4 PUSH1 0x3 DUP2 GT ISZERO PUSH2 0xD19 JUMPI PUSH2 0xD18 PUSH2 0x1074 JUMP JUMPDEST JUMPDEST MUL OR SWAP1 SSTORE POP DUP2 PUSH1 0xFF AND DUP2 PUSH1 0xFF AND SUB PUSH2 0xDB2 JUMPI PUSH1 0x2 PUSH1 0x0 DUP1 DUP6 DUP2 MSTORE PUSH1 0x20 ADD SWAP1 DUP2 MSTORE PUSH1 0x20 ADD PUSH1 0x0 KECCAK256 PUSH1 0x2 ADD PUSH1 0x2 ADD PUSH1 0x1 PUSH2 0x100 EXP DUP2 SLOAD DUP2 PUSH1 0xFF MUL NOT AND SWAP1 DUP4 PUSH1 0x3 DUP2 GT ISZERO PUSH2 0xD67 JUMPI PUSH2 0xD66 PUSH2 0x1074 JUMP JUMPDEST JUMPDEST MUL OR SWAP1 SSTORE POP PUSH1 0x2 PUSH1 0x0 DUP1 DUP6 DUP2 MSTORE PUSH1 0x20 ADD SWAP1 DUP2 MSTORE PUSH1 0x20 ADD PUSH1 0x0 KECCAK256 PUSH1 0x5 ADD PUSH1 0x2 ADD PUSH1 0x1 PUSH2 0x100 EXP DUP2 SLOAD DUP2 PUSH1 0xFF MUL NOT AND SWAP1 DUP4 PUSH1 0x3 DUP2 GT ISZERO PUSH2 0xDA8 JUMPI PUSH2 0xDA7 PUSH2 0x1074 JUMP JUMPDEST JUMPDEST MUL OR SWAP1 SSTORE POP PUSH2 0xF4B JUMP JUMPDEST DUP2 PUSH1 0xFF AND PUSH1 0x3 PUSH1 0x1 DUP4 PUSH2 0xDC5 SWAP2 SWAP1 PUSH2 0x1113 JUMP JUMPDEST PUSH2 0xDCF SWAP2 SWAP1 PUSH2 0x1177 JUMP JUMPDEST PUSH1 0xFF AND SUB PUSH2 0xE5E JUMPI PUSH1 0x0 DUP1 PUSH1 0x0 DUP6 DUP2 MSTORE PUSH1 0x20 ADD SWAP1 DUP2 MSTORE PUSH1 0x20 ADD PUSH1 0x0 KECCAK256 PUSH1 0x2 ADD PUSH1 0x2 ADD PUSH1 0x1 PUSH2 0x100 EXP DUP2 SLOAD DUP2 PUSH1 0xFF MUL NOT AND SWAP1 DUP4 PUSH1 0x3 DUP2 GT ISZERO PUSH2 0xE13 JUMPI PUSH2 0xE12 PUSH2 0x1074 JUMP JUMPDEST JUMPDEST MUL OR SWAP1 SSTORE POP PUSH1 0x1 PUSH1 0x0 DUP1 DUP6 DUP2 MSTORE PUSH1 0x20 ADD SWAP1 DUP2 MSTORE PUSH1 0x20 ADD PUSH1 0x0 KECCAK256 PUSH1 0x5 ADD PUSH1 0x2 ADD PUSH1 0x1 PUSH2 0x100 EXP DUP2 SLOAD DUP2 PUSH1 0xFF MUL NOT AND SWAP1 DUP4 PUSH1 0x3 DUP2 GT ISZERO PUSH2 0xE54 JUMPI PUSH2 0xE53 PUSH2 0x1074 JUMP JUMPDEST JUMPDEST MUL OR SWAP1 SSTORE POP PUSH2 0xF4A JUMP JUMPDEST DUP1 PUSH1 0xFF AND PUSH1 0x3 PUSH1 0x1 DUP5 PUSH2 0xE71 SWAP2 SWAP1 PUSH2 0x1113 JUMP JUMPDEST PUSH2 0xE7B SWAP2 SWAP1 PUSH2 0x1177 JUMP JUMPDEST PUSH1 0xFF AND SUB PUSH2 0xF0A JUMPI PUSH1 0x1 PUSH1 0x0 DUP1 DUP6 DUP2 MSTORE PUSH1 0x20 ADD SWAP1 DUP2 MSTORE PUSH1 0x20 ADD PUSH1 0x0 KECCAK256 PUSH1 0x2 ADD PUSH1 0x2 ADD PUSH1 0x1 PUSH2 0x100 EXP DUP2 SLOAD DUP2 PUSH1 0xFF MUL NOT AND SWAP1 DUP4 PUSH1 0x3 DUP2 GT ISZERO PUSH2 0xEBF JUMPI PUSH2 0xEBE PUSH2 0x1074 JUMP JUMPDEST JUMPDEST MUL OR SWAP1 SSTORE POP PUSH1 0x0 DUP1 PUSH1 0x0 DUP6 DUP2 MSTORE PUSH1 0x20 ADD SWAP1 DUP2 MSTORE PUSH1 0x20 ADD PUSH1 0x0 KECCAK256 PUSH1 0x5 ADD PUSH1 0x2 ADD PUSH1 0x1 PUSH2 0x100 EXP DUP2 SLOAD DUP2 PUSH1 0xFF MUL NOT AND SWAP1 DUP4 PUSH1 0x3 DUP2 GT ISZERO PUSH2 0xF00 JUMPI PUSH2 0xEFF PUSH2 0x1074 JUMP JUMPDEST JUMPDEST MUL OR SWAP1 SSTORE POP PUSH2 0xF49 JUMP JUMPDEST PUSH1 0x3 PUSH1 0x0 DUP1 DUP6 DUP2 MSTORE PUSH1 0x20 ADD SWAP1 DUP2 MSTORE PUSH1 0x20 ADD PUSH1 0x0 KECCAK256 PUSH1 0x1 ADD PUSH1 0x0 PUSH2 0x100 EXP DUP2 SLOAD DUP2 PUSH1 0xFF MUL NOT AND SWAP1 DUP4 PUSH1 0x3 DUP2 GT ISZERO PUSH2 0xF43 JUMPI PUSH2 0xF42 PUSH2 0x1074 JUMP JUMPDEST JUMPDEST MUL OR SWAP1 SSTORE POP JUMPDEST JUMPDEST JUMPDEST POP POP POP JUMP JUMPDEST PUSH1 0x0 DUP1 REVERT JUMPDEST PUSH1 0x3 DUP2 LT PUSH2 0xF62 JUMPI PUSH1 0x0 DUP1 REVERT JUMPDEST POP JUMP JUMPDEST PUSH1 0x0 DUP2 CALLDATALOAD SWAP1 POP PUSH2 0xF74 DUP2 PUSH2 0xF55 JUMP JUMPDEST SWAP3 SWAP2 POP POP JUMP JUMPDEST PUSH1 0x0 PUSH1 0x20 DUP3 DUP5 SUB SLT ISZERO PUSH2 0xF90 JUMPI PUSH2 0xF8F PUSH2 0xF50 JUMP JUMPDEST JUMPDEST PUSH1 0x0 PUSH2 0xF9E DUP5 DUP3 DUP6 ADD PUSH2 0xF65 JUMP JUMPDEST SWAP2 POP POP SWAP3 SWAP2 POP POP JUMP JUMPDEST PUSH1 0x0 DUP2 SWAP1 POP SWAP2 SWAP1 POP JUMP JUMPDEST PUSH2 0xFBA DUP2 PUSH2 0xFA7 JUMP JUMPDEST DUP3 MSTORE POP POP JUMP JUMPDEST PUSH1 0x0 PUSH1 0x20 DUP3 ADD SWAP1 POP PUSH2 0xFD5 PUSH1 0x0 DUP4 ADD DUP5 PUSH2 0xFB1 JUMP JUMPDEST SWAP3 SWAP2 POP POP JUMP JUMPDEST PUSH2 0xFE4 DUP2 PUSH2 0xFA7 JUMP JUMPDEST DUP2 EQ PUSH2 0xFEF JUMPI PUSH1 0x0 DUP1 REVERT JUMPDEST POP JUMP JUMPDEST PUSH1 0x0 DUP2 CALLDATALOAD SWAP1 POP PUSH2 0x1001 DUP2 PUSH2 0xFDB JUMP JUMPDEST SWAP3 SWAP2 POP POP JUMP JUMPDEST PUSH1 0x0 PUSH1 0x20 DUP3 DUP5 SUB SLT ISZERO PUSH2 0x101D JUMPI PUSH2 0x101C PUSH2 0xF50 JUMP JUMPDEST JUMPDEST PUSH1 0x0 PUSH2 0x102B DUP5 DUP3 DUP6 ADD PUSH2 0xFF2 JUMP JUMPDEST SWAP2 POP POP SWAP3 SWAP2 POP POP JUMP JUMPDEST PUSH1 0x0 DUP1 PUSH1 0x40 DUP4 DUP6 SUB SLT ISZERO PUSH2 0x104B JUMPI PUSH2 0x104A PUSH2 0xF50 JUMP JUMPDEST JUMPDEST PUSH1 0x0 PUSH2 0x1059 DUP6 DUP3 DUP7 ADD PUSH2 0xFF2 JUMP JUMPDEST SWAP3 POP POP PUSH1 0x20 PUSH2 0x106A DUP6 DUP3 DUP7 ADD PUSH2 0xF65 JUMP JUMPDEST SWAP2 POP POP SWAP3 POP SWAP3 SWAP1 POP JUMP JUMPDEST PUSH32 0x4E487B7100000000000000000000000000000000000000000000000000000000 PUSH1 0x0 MSTORE PUSH1 0x21 PUSH1 0x4 MSTORE PUSH1 0x24 PUSH1 0x0 REVERT JUMPDEST PUSH32 0x4E487B7100000000000000000000000000000000000000000000000000000000 PUSH1 0x0 MSTORE PUSH1 0x11 PUSH1 0x4 MSTORE PUSH1 0x24 PUSH1 0x0 REVERT JUMPDEST PUSH1 0x0 PUSH2 0x10DD DUP3 PUSH2 0xFA7 JUMP JUMPDEST SWAP2 POP PUSH2 0x10E8 DUP4 PUSH2 0xFA7 JUMP JUMPDEST SWAP3 POP DUP3 DUP3 ADD SWAP1 POP DUP1 DUP3 GT ISZERO PUSH2 0x1100 JUMPI PUSH2 0x10FF PUSH2 0x10A3 JUMP JUMPDEST JUMPDEST SWAP3 SWAP2 POP POP JUMP JUMPDEST PUSH1 0x0 PUSH1 0xFF DUP3 AND SWAP1 POP SWAP2 SWAP1 POP JUMP JUMPDEST PUSH1 0x0 PUSH2 0x111E DUP3 PUSH2 0x1106 JUMP JUMPDEST SWAP2 POP PUSH2 0x1129 DUP4 PUSH2 0x1106 JUMP JUMPDEST SWAP3 POP DUP3 DUP3 ADD SWAP1 POP PUSH1 0xFF DUP2 GT ISZERO PUSH2 0x1142 JUMPI PUSH2 0x1141 PUSH2 0x10A3 JUMP JUMPDEST JUMPDEST SWAP3 SWAP2 POP POP JUMP JUMPDEST PUSH32 0x4E487B7100000000000000000000000000000000000000000000000000000000 PUSH1 0x0 MSTORE PUSH1 0x12 PUSH1 0x4 MSTORE PUSH1 0x24 PUSH1 0x0 REVERT JUMPDEST PUSH1 0x0 PUSH2 0x1182 DUP3 PUSH2 0x1106 JUMP JUMPDEST SWAP2 POP PUSH2 0x118D DUP4 PUSH2 0x1106 JUMP JUMPDEST SWAP3 POP DUP3 PUSH2 0x119D JUMPI PUSH2 0x119C PUSH2 0x1148 JUMP JUMPDEST JUMPDEST DUP3 DUP3 MOD SWAP1 POP SWAP3 SWAP2 POP POP JUMP INVALID LOG2 PUSH5 0x6970667358 0x22 SLT KECCAK256 REVERT 0xE MSIZE SLT JUMPI CALLDATASIZE PUSH22 0x720199E0E2DF227199E775150565A11A1F0B65C1A224 0x1F KECCAK256 PUSH20 0x64736F6C63430008110033000000000000000000 "
				},
				"gasEstimates": {
					"creation": {
						"codeDepositCost": "914800",
						"executionCost": "5930",
						"totalCost": "920730"
					},
					"external": {
						"checkTotalPay(uint256)": "infinite",
						"createRoom(uint8)": "infinite",
						"joinRoom(uint256,uint8)": "infinite",
						"payout(uint256)": "infinite"
					},
					"internal": {
						"compareHands(uint256)": "infinite"
					}
				},
				"methodIdentifiers": {
					"checkTotalPay(uint256)": "393af760",
					"createRoom(uint8)": "0f36f3b5",
					"joinRoom(uint256,uint8)": "79b15776",
					"payout(uint256)": "e1152343"
				}
			},
			"storageLayout": {
				"storage": [
					{
						"astId": 47,
						"contract": "rps.sol:RPS",
						"label": "rooms",
						"offset": 0,
						"slot": "0",
						"type": "t_mapping(t_uint256,t_struct(Game)42_storage)"
					},
					{
						"astId": 50,
						"contract": "rps.sol:RPS",
						"label": "roomLen",
						"offset": 0,
						"slot": "1",
						"type": "t_uint256"
					}
				],
				"types": {
					"t_address_payable": {
						"encoding": "inplace",
						"label": "address payable",
						"numberOfBytes": "20"
					},
					"t_enum(GameStatus)19": {
						"encoding": "inplace",
						"label": "enum RPS.GameStatus",
						"numberOfBytes": "1"
					},
					"t_enum(Hand)9": {
						"encoding": "inplace",
						"label": "enum RPS.Hand",
						"numberOfBytes": "1"
					},
					"t_enum(PlayerStatus)14": {
						"encoding": "inplace",
						"label": "enum RPS.PlayerStatus",
						"numberOfBytes": "1"
					},
					"t_mapping(t_uint256,t_struct(Game)42_storage)": {
						"encoding": "mapping",
						"key": "t_uint256",
						"label": "mapping(uint256 => struct RPS.Game)",
						"numberOfBytes": "32",
						"value": "t_struct(Game)42_storage"
					},
					"t_struct(Game)42_storage": {
						"encoding": "inplace",
						"label": "struct RPS.Game",
						"members": [
							{
								"astId": 32,
								"contract": "rps.sol:RPS",
								"label": "betAmount",
								"offset": 0,
								"slot": "0",
								"type": "t_uint256"
							},
							{
								"astId": 35,
								"contract": "rps.sol:RPS",
								"label": "gameStatus",
								"offset": 0,
								"slot": "1",
								"type": "t_enum(GameStatus)19"
							},
							{
								"astId": 38,
								"contract": "rps.sol:RPS",
								"label": "originator",
								"offset": 0,
								"slot": "2",
								"type": "t_struct(Player)30_storage"
							},
							{
								"astId": 41,
								"contract": "rps.sol:RPS",
								"label": "taker",
								"offset": 0,
								"slot": "5",
								"type": "t_struct(Player)30_storage"
							}
						],
						"numberOfBytes": "256"
					},
					"t_struct(Player)30_storage": {
						"encoding": "inplace",
						"label": "struct RPS.Player",
						"members": [
							{
								"astId": 21,
								"contract": "rps.sol:RPS",
								"label": "addr",
								"offset": 0,
								"slot": "0",
								"type": "t_address_payable"
							},
							{
								"astId": 23,
								"contract": "rps.sol:RPS",
								"label": "playerBetAmount",
								"offset": 0,
								"slot": "1",
								"type": "t_uint256"
							},
							{
								"astId": 26,
								"contract": "rps.sol:RPS",
								"label": "hand",
								"offset": 0,
								"slot": "2",
								"type": "t_enum(Hand)9"
							},
							{
								"astId": 29,
								"contract": "rps.sol:RPS",
								"label": "playerStatus",
								"offset": 1,
								"slot": "2",
								"type": "t_enum(PlayerStatus)14"
							}
						],
						"numberOfBytes": "96"
					},
					"t_uint256": {
						"encoding": "inplace",
						"label": "uint256",
						"numberOfBytes": "32"
					}
				}
			},
			"userdoc": {
				"kind": "user",
				"methods": {},
				"version": 1
			}
		}
	}
}